{
  "_format": "hh-sol-artifact-1",
  "contractName": "LaunchTokenWhitelistTaxed",
  "sourceName": "contracts/LaunchTokenWhitelistTaxed.sol",
  "abi": [
    {
      "inputs": [
        {
          "components": [
            {
              "internalType": "string",
              "name": "name",
              "type": "string"
            },
            {
              "internalType": "string",
              "name": "symbol",
              "type": "string"
            },
            {
              "internalType": "string",
              "name": "metadataURI",
              "type": "string"
            },
            {
              "internalType": "address",
              "name": "creator",
              "type": "address"
            },
            {
              "internalType": "address",
              "name": "factory",
              "type": "address"
            },
            {
              "internalType": "address",
              "name": "protocolFeeRecipient",
              "type": "address"
            },
            {
              "internalType": "address",
              "name": "router",
              "type": "address"
            },
            {
              "internalType": "uint256",
              "name": "graduationQuoteReserve",
              "type": "uint256"
            },
            {
              "internalType": "uint256",
              "name": "whitelistThreshold",
              "type": "uint256"
            },
            {
              "internalType": "uint256",
              "name": "whitelistSlotSize",
              "type": "uint256"
            },
            {
              "internalType": "uint256",
              "name": "whitelistOpensAt",
              "type": "uint256"
            },
            {
              "internalType": "address[]",
              "name": "whitelistAddresses",
              "type": "address[]"
            },
            {
              "internalType": "uint8",
              "name": "launchModeId",
              "type": "uint8"
            },
            {
              "internalType": "uint16",
              "name": "taxBps",
              "type": "uint16"
            },
            {
              "internalType": "uint16",
              "name": "burnShareBps",
              "type": "uint16"
            },
            {
              "internalType": "uint16",
              "name": "treasuryShareBps",
              "type": "uint16"
            },
            {
              "internalType": "address",
              "name": "treasuryWallet",
              "type": "address"
            }
          ],
          "internalType": "struct LaunchTokenWhitelistTaxed.TaxedConstructorArgs",
          "name": "args",
          "type": "tuple"
        }
      ],
      "stateMutability": "nonpayable",
      "type": "constructor"
    },
    {
      "inputs": [],
      "name": "CanonicalTaxablePoolRequired",
      "type": "error"
    },
    {
      "inputs": [],
      "name": "CreatorFeeSweepUnavailable",
      "type": "error"
    },
    {
      "inputs": [],
      "name": "DuplicateWhitelistAddress",
      "type": "error"
    },
    {
      "inputs": [
        {
          "internalType": "address",
          "name": "spender",
          "type": "address"
        },
        {
          "internalType": "uint256",
          "name": "allowance",
          "type": "uint256"
        },
        {
          "internalType": "uint256",
          "name": "needed",
          "type": "uint256"
        }
      ],
      "name": "ERC20InsufficientAllowance",
      "type": "error"
    },
    {
      "inputs": [
        {
          "internalType": "address",
          "name": "sender",
          "type": "address"
        },
        {
          "internalType": "uint256",
          "name": "balance",
          "type": "uint256"
        },
        {
          "internalType": "uint256",
          "name": "needed",
          "type": "uint256"
        }
      ],
      "name": "ERC20InsufficientBalance",
      "type": "error"
    },
    {
      "inputs": [
        {
          "internalType": "address",
          "name": "approver",
          "type": "address"
        }
      ],
      "name": "ERC20InvalidApprover",
      "type": "error"
    },
    {
      "inputs": [
        {
          "internalType": "address",
          "name": "receiver",
          "type": "address"
        }
      ],
      "name": "ERC20InvalidReceiver",
      "type": "error"
    },
    {
      "inputs": [
        {
          "internalType": "address",
          "name": "sender",
          "type": "address"
        }
      ],
      "name": "ERC20InvalidSender",
      "type": "error"
    },
    {
      "inputs": [
        {
          "internalType": "address",
          "name": "spender",
          "type": "address"
        }
      ],
      "name": "ERC20InvalidSpender",
      "type": "error"
    },
    {
      "inputs": [],
      "name": "FailedCall",
      "type": "error"
    },
    {
      "inputs": [],
      "name": "GraduationAlreadyTriggered",
      "type": "error"
    },
    {
      "inputs": [
        {
          "internalType": "uint256",
          "name": "balance",
          "type": "uint256"
        },
        {
          "internalType": "uint256",
          "name": "needed",
          "type": "uint256"
        }
      ],
      "name": "InsufficientBalance",
      "type": "error"
    },
    {
      "inputs": [],
      "name": "InvalidGraduationConfig",
      "type": "error"
    },
    {
      "inputs": [],
      "name": "InvalidRecipient",
      "type": "error"
    },
    {
      "inputs": [],
      "name": "InvalidState",
      "type": "error"
    },
    {
      "inputs": [],
      "name": "InvalidTaxConfig",
      "type": "error"
    },
    {
      "inputs": [],
      "name": "InvalidTaxablePool",
      "type": "error"
    },
    {
      "inputs": [],
      "name": "InvalidWhitelistAddressCount",
      "type": "error"
    },
    {
      "inputs": [],
      "name": "InvalidWhitelistCommitAmount",
      "type": "error"
    },
    {
      "inputs": [],
      "name": "InvalidWhitelistOpenTime",
      "type": "error"
    },
    {
      "inputs": [],
      "name": "InvalidWhitelistSeatCount",
      "type": "error"
    },
    {
      "inputs": [],
      "name": "InvalidWhitelistSlotSize",
      "type": "error"
    },
    {
      "inputs": [],
      "name": "InvalidWhitelistThreshold",
      "type": "error"
    },
    {
      "inputs": [],
      "name": "NothingToClaim",
      "type": "error"
    },
    {
      "inputs": [],
      "name": "PairPolluted",
      "type": "error"
    },
    {
      "inputs": [],
      "name": "ReentrancyGuardReentrantCall",
      "type": "error"
    },
    {
      "inputs": [],
      "name": "SellCooldownActive",
      "type": "error"
    },
    {
      "inputs": [],
      "name": "SlippageExceeded",
      "type": "error"
    },
    {
      "inputs": [],
      "name": "TransferDisabledPreGraduation",
      "type": "error"
    },
    {
      "inputs": [],
      "name": "Unauthorized",
      "type": "error"
    },
    {
      "inputs": [],
      "name": "UnauthorizedFactoryCaller",
      "type": "error"
    },
    {
      "inputs": [],
      "name": "UnauthorizedFactoryDeployment",
      "type": "error"
    },
    {
      "inputs": [],
      "name": "UnauthorizedTaxablePoolManager",
      "type": "error"
    },
    {
      "inputs": [],
      "name": "UnauthorizedWhitelistTaxedFactoryDeployment",
      "type": "error"
    },
    {
      "inputs": [],
      "name": "WhitelistAddressNotApproved",
      "type": "error"
    },
    {
      "inputs": [],
      "name": "WhitelistAllocationUnavailable",
      "type": "error"
    },
    {
      "inputs": [],
      "name": "WhitelistAlreadyCommitted",
      "type": "error"
    },
    {
      "inputs": [],
      "name": "WhitelistNotActive",
      "type": "error"
    },
    {
      "inputs": [],
      "name": "WhitelistRefundUnavailable",
      "type": "error"
    },
    {
      "inputs": [],
      "name": "WhitelistSeatUnavailable",
      "type": "error"
    },
    {
      "inputs": [],
      "name": "WrappedQuoteTransferFailed",
      "type": "error"
    },
    {
      "inputs": [],
      "name": "ZeroAddress",
      "type": "error"
    },
    {
      "inputs": [],
      "name": "ZeroAmount",
      "type": "error"
    },
    {
      "anonymous": false,
      "inputs": [
        {
          "indexed": true,
          "internalType": "address",
          "name": "owner",
          "type": "address"
        },
        {
          "indexed": true,
          "internalType": "address",
          "name": "spender",
          "type": "address"
        },
        {
          "indexed": false,
          "internalType": "uint256",
          "name": "value",
          "type": "uint256"
        }
      ],
      "name": "Approval",
      "type": "event"
    },
    {
      "anonymous": false,
      "inputs": [
        {
          "indexed": true,
          "internalType": "address",
          "name": "buyer",
          "type": "address"
        },
        {
          "indexed": false,
          "internalType": "uint256",
          "name": "grossQuoteIn",
          "type": "uint256"
        },
        {
          "indexed": false,
          "internalType": "uint256",
          "name": "netQuoteIn",
          "type": "uint256"
        },
        {
          "indexed": false,
          "internalType": "uint256",
          "name": "protocolFee",
          "type": "uint256"
        },
        {
          "indexed": false,
          "internalType": "uint256",
          "name": "creatorFee",
          "type": "uint256"
        },
        {
          "indexed": false,
          "internalType": "uint256",
          "name": "refundAmount",
          "type": "uint256"
        },
        {
          "indexed": false,
          "internalType": "uint256",
          "name": "tokenOut",
          "type": "uint256"
        },
        {
          "indexed": false,
          "internalType": "uint256",
          "name": "newCurveQuoteReserve",
          "type": "uint256"
        },
        {
          "indexed": false,
          "internalType": "uint256",
          "name": "newSaleTokenReserve",
          "type": "uint256"
        }
      ],
      "name": "BuyExecuted",
      "type": "event"
    },
    {
      "anonymous": false,
      "inputs": [
        {
          "indexed": true,
          "internalType": "address",
          "name": "recipient",
          "type": "address"
        },
        {
          "indexed": false,
          "internalType": "uint256",
          "name": "amount",
          "type": "uint256"
        }
      ],
      "name": "CreatorFeesClaimed",
      "type": "event"
    },
    {
      "anonymous": false,
      "inputs": [
        {
          "indexed": true,
          "internalType": "address",
          "name": "caller",
          "type": "address"
        },
        {
          "indexed": false,
          "internalType": "uint256",
          "name": "amount",
          "type": "uint256"
        }
      ],
      "name": "CreatorFeesSwept",
      "type": "event"
    },
    {
      "anonymous": false,
      "inputs": [
        {
          "indexed": true,
          "internalType": "address",
          "name": "pair",
          "type": "address"
        },
        {
          "indexed": false,
          "internalType": "uint256",
          "name": "tokenAmount",
          "type": "uint256"
        },
        {
          "indexed": false,
          "internalType": "uint256",
          "name": "quoteAmountContributed",
          "type": "uint256"
        },
        {
          "indexed": false,
          "internalType": "uint256",
          "name": "preloadedQuoteAmount",
          "type": "uint256"
        },
        {
          "indexed": false,
          "internalType": "uint256",
          "name": "liquidityBurned",
          "type": "uint256"
        }
      ],
      "name": "Graduated",
      "type": "event"
    },
    {
      "anonymous": false,
      "inputs": [
        {
          "indexed": true,
          "internalType": "address",
          "name": "recipient",
          "type": "address"
        },
        {
          "indexed": false,
          "internalType": "uint256",
          "name": "amount",
          "type": "uint256"
        }
      ],
      "name": "ProtocolFeesClaimed",
      "type": "event"
    },
    {
      "anonymous": false,
      "inputs": [
        {
          "indexed": true,
          "internalType": "address",
          "name": "seller",
          "type": "address"
        },
        {
          "indexed": false,
          "internalType": "uint256",
          "name": "tokenIn",
          "type": "uint256"
        },
        {
          "indexed": false,
          "internalType": "uint256",
          "name": "grossQuoteOut",
          "type": "uint256"
        },
        {
          "indexed": false,
          "internalType": "uint256",
          "name": "netQuoteOut",
          "type": "uint256"
        },
        {
          "indexed": false,
          "internalType": "uint256",
          "name": "protocolFee",
          "type": "uint256"
        },
        {
          "indexed": false,
          "internalType": "uint256",
          "name": "creatorFee",
          "type": "uint256"
        },
        {
          "indexed": false,
          "internalType": "uint256",
          "name": "newCurveQuoteReserve",
          "type": "uint256"
        },
        {
          "indexed": false,
          "internalType": "uint256",
          "name": "newSaleTokenReserve",
          "type": "uint256"
        }
      ],
      "name": "SellExecuted",
      "type": "event"
    },
    {
      "anonymous": false,
      "inputs": [
        {
          "indexed": true,
          "internalType": "enum LaunchTokenBase.LaunchState",
          "name": "previousState",
          "type": "uint8"
        },
        {
          "indexed": true,
          "internalType": "enum LaunchTokenBase.LaunchState",
          "name": "newState",
          "type": "uint8"
        }
      ],
      "name": "StateTransition",
      "type": "event"
    },
    {
      "anonymous": false,
      "inputs": [
        {
          "indexed": true,
          "internalType": "address",
          "name": "from",
          "type": "address"
        },
        {
          "indexed": true,
          "internalType": "address",
          "name": "to",
          "type": "address"
        },
        {
          "indexed": false,
          "internalType": "uint256",
          "name": "grossAmount",
          "type": "uint256"
        },
        {
          "indexed": false,
          "internalType": "uint256",
          "name": "taxAmount",
          "type": "uint256"
        },
        {
          "indexed": false,
          "internalType": "uint256",
          "name": "burnAmount",
          "type": "uint256"
        },
        {
          "indexed": false,
          "internalType": "uint256",
          "name": "treasuryAmount",
          "type": "uint256"
        }
      ],
      "name": "TaxApplied",
      "type": "event"
    },
    {
      "anonymous": false,
      "inputs": [
        {
          "indexed": true,
          "internalType": "address",
          "name": "pool",
          "type": "address"
        },
        {
          "indexed": false,
          "internalType": "bool",
          "name": "enabled",
          "type": "bool"
        },
        {
          "indexed": false,
          "internalType": "bool",
          "name": "canonicalPair",
          "type": "bool"
        }
      ],
      "name": "TaxablePoolUpdated",
      "type": "event"
    },
    {
      "anonymous": false,
      "inputs": [
        {
          "indexed": true,
          "internalType": "address",
          "name": "from",
          "type": "address"
        },
        {
          "indexed": true,
          "internalType": "address",
          "name": "to",
          "type": "address"
        },
        {
          "indexed": false,
          "internalType": "uint256",
          "name": "value",
          "type": "uint256"
        }
      ],
      "name": "Transfer",
      "type": "event"
    },
    {
      "anonymous": false,
      "inputs": [
        {
          "indexed": true,
          "internalType": "address",
          "name": "caller",
          "type": "address"
        },
        {
          "indexed": false,
          "internalType": "uint256",
          "name": "amount",
          "type": "uint256"
        }
      ],
      "name": "UnexpectedNativeReconciled",
      "type": "event"
    },
    {
      "anonymous": false,
      "inputs": [
        {
          "indexed": true,
          "internalType": "address",
          "name": "account",
          "type": "address"
        },
        {
          "indexed": false,
          "internalType": "uint256",
          "name": "tokenAmount",
          "type": "uint256"
        }
      ],
      "name": "WhitelistAllocationClaimed",
      "type": "event"
    },
    {
      "anonymous": false,
      "inputs": [
        {
          "indexed": false,
          "internalType": "uint256",
          "name": "threshold",
          "type": "uint256"
        },
        {
          "indexed": false,
          "internalType": "uint256",
          "name": "slotSize",
          "type": "uint256"
        },
        {
          "indexed": false,
          "internalType": "uint256",
          "name": "seatCount",
          "type": "uint256"
        },
        {
          "indexed": false,
          "internalType": "uint256",
          "name": "opensAt",
          "type": "uint256"
        },
        {
          "indexed": false,
          "internalType": "uint256",
          "name": "deadline",
          "type": "uint256"
        }
      ],
      "name": "WhitelistConfigured",
      "type": "event"
    },
    {
      "anonymous": false,
      "inputs": [
        {
          "indexed": false,
          "internalType": "uint256",
          "name": "committedTotal",
          "type": "uint256"
        },
        {
          "indexed": false,
          "internalType": "uint256",
          "name": "seatsFilled",
          "type": "uint256"
        }
      ],
      "name": "WhitelistExpired",
      "type": "event"
    },
    {
      "anonymous": false,
      "inputs": [
        {
          "indexed": false,
          "internalType": "uint256",
          "name": "grossCommitted",
          "type": "uint256"
        },
        {
          "indexed": false,
          "internalType": "uint256",
          "name": "netQuoteAdded",
          "type": "uint256"
        },
        {
          "indexed": false,
          "internalType": "uint256",
          "name": "protocolFee",
          "type": "uint256"
        },
        {
          "indexed": false,
          "internalType": "uint256",
          "name": "creatorFee",
          "type": "uint256"
        },
        {
          "indexed": false,
          "internalType": "uint256",
          "name": "seatsFilled",
          "type": "uint256"
        },
        {
          "indexed": false,
          "internalType": "uint256",
          "name": "tokensPerSeat",
          "type": "uint256"
        },
        {
          "indexed": false,
          "internalType": "uint256",
          "name": "reservedTokenAmount",
          "type": "uint256"
        }
      ],
      "name": "WhitelistFinalized",
      "type": "event"
    },
    {
      "anonymous": false,
      "inputs": [
        {
          "indexed": true,
          "internalType": "address",
          "name": "account",
          "type": "address"
        },
        {
          "indexed": false,
          "internalType": "uint256",
          "name": "amount",
          "type": "uint256"
        }
      ],
      "name": "WhitelistRefundClaimed",
      "type": "event"
    },
    {
      "anonymous": false,
      "inputs": [
        {
          "indexed": true,
          "internalType": "address",
          "name": "account",
          "type": "address"
        },
        {
          "indexed": false,
          "internalType": "uint256",
          "name": "seatNumber",
          "type": "uint256"
        },
        {
          "indexed": false,
          "internalType": "uint256",
          "name": "amount",
          "type": "uint256"
        },
        {
          "indexed": false,
          "internalType": "uint256",
          "name": "committedTotal",
          "type": "uint256"
        }
      ],
      "name": "WhitelistSeatCommitted",
      "type": "event"
    },
    {
      "inputs": [],
      "name": "BPS_DENOMINATOR",
      "outputs": [
        {
          "internalType": "uint256",
          "name": "",
          "type": "uint256"
        }
      ],
      "stateMutability": "view",
      "type": "function"
    },
    {
      "inputs": [],
      "name": "CREATOR_FEE_BPS",
      "outputs": [
        {
          "internalType": "uint256",
          "name": "",
          "type": "uint256"
        }
      ],
      "stateMutability": "view",
      "type": "function"
    },
    {
      "inputs": [],
      "name": "CREATOR_FEE_SWEEP_MIN_AGE",
      "outputs": [
        {
          "internalType": "uint256",
          "name": "",
          "type": "uint256"
        }
      ],
      "stateMutability": "view",
      "type": "function"
    },
    {
      "inputs": [],
      "name": "CREATOR_FEE_SWEEP_MIN_INACTIVITY",
      "outputs": [
        {
          "internalType": "uint256",
          "name": "",
          "type": "uint256"
        }
      ],
      "stateMutability": "view",
      "type": "function"
    },
    {
      "inputs": [],
      "name": "CURVE_VIRTUAL_TOKEN_RESERVE",
      "outputs": [
        {
          "internalType": "uint256",
          "name": "",
          "type": "uint256"
        }
      ],
      "stateMutability": "view",
      "type": "function"
    },
    {
      "inputs": [],
      "name": "DEAD_ADDRESS",
      "outputs": [
        {
          "internalType": "address",
          "name": "",
          "type": "address"
        }
      ],
      "stateMutability": "view",
      "type": "function"
    },
    {
      "inputs": [],
      "name": "LP_TOKEN_RESERVE",
      "outputs": [
        {
          "internalType": "uint256",
          "name": "",
          "type": "uint256"
        }
      ],
      "stateMutability": "view",
      "type": "function"
    },
    {
      "inputs": [],
      "name": "MAX_SEATS",
      "outputs": [
        {
          "internalType": "uint256",
          "name": "",
          "type": "uint256"
        }
      ],
      "stateMutability": "view",
      "type": "function"
    },
    {
      "inputs": [],
      "name": "MAX_WHITELIST_DELAY",
      "outputs": [
        {
          "internalType": "uint256",
          "name": "",
          "type": "uint256"
        }
      ],
      "stateMutability": "view",
      "type": "function"
    },
    {
      "inputs": [],
      "name": "MAX_WHITELIST_MULTIPLE",
      "outputs": [
        {
          "internalType": "uint256",
          "name": "",
          "type": "uint256"
        }
      ],
      "stateMutability": "view",
      "type": "function"
    },
    {
      "inputs": [],
      "name": "MODE_STANDARD_0314",
      "outputs": [
        {
          "internalType": "uint8",
          "name": "",
          "type": "uint8"
        }
      ],
      "stateMutability": "view",
      "type": "function"
    },
    {
      "inputs": [],
      "name": "MODE_TAXED_1314",
      "outputs": [
        {
          "internalType": "uint8",
          "name": "",
          "type": "uint8"
        }
      ],
      "stateMutability": "view",
      "type": "function"
    },
    {
      "inputs": [],
      "name": "MODE_TAXED_2314",
      "outputs": [
        {
          "internalType": "uint8",
          "name": "",
          "type": "uint8"
        }
      ],
      "stateMutability": "view",
      "type": "function"
    },
    {
      "inputs": [],
      "name": "MODE_TAXED_3314",
      "outputs": [
        {
          "internalType": "uint8",
          "name": "",
          "type": "uint8"
        }
      ],
      "stateMutability": "view",
      "type": "function"
    },
    {
      "inputs": [],
      "name": "MODE_TAXED_4314",
      "outputs": [
        {
          "internalType": "uint8",
          "name": "",
          "type": "uint8"
        }
      ],
      "stateMutability": "view",
      "type": "function"
    },
    {
      "inputs": [],
      "name": "MODE_TAXED_5314",
      "outputs": [
        {
          "internalType": "uint8",
          "name": "",
          "type": "uint8"
        }
      ],
      "stateMutability": "view",
      "type": "function"
    },
    {
      "inputs": [],
      "name": "MODE_TAXED_6314",
      "outputs": [
        {
          "internalType": "uint8",
          "name": "",
          "type": "uint8"
        }
      ],
      "stateMutability": "view",
      "type": "function"
    },
    {
      "inputs": [],
      "name": "MODE_TAXED_7314",
      "outputs": [
        {
          "internalType": "uint8",
          "name": "",
          "type": "uint8"
        }
      ],
      "stateMutability": "view",
      "type": "function"
    },
    {
      "inputs": [],
      "name": "MODE_TAXED_8314",
      "outputs": [
        {
          "internalType": "uint8",
          "name": "",
          "type": "uint8"
        }
      ],
      "stateMutability": "view",
      "type": "function"
    },
    {
      "inputs": [],
      "name": "MODE_TAXED_9314",
      "outputs": [
        {
          "internalType": "uint8",
          "name": "",
          "type": "uint8"
        }
      ],
      "stateMutability": "view",
      "type": "function"
    },
    {
      "inputs": [],
      "name": "MODE_WHITELIST_B314",
      "outputs": [
        {
          "internalType": "uint8",
          "name": "",
          "type": "uint8"
        }
      ],
      "stateMutability": "view",
      "type": "function"
    },
    {
      "inputs": [],
      "name": "MODE_WHITELIST_TAX_F314",
      "outputs": [
        {
          "internalType": "uint8",
          "name": "",
          "type": "uint8"
        }
      ],
      "stateMutability": "view",
      "type": "function"
    },
    {
      "inputs": [],
      "name": "PROTOCOL_FEE_BPS",
      "outputs": [
        {
          "internalType": "uint256",
          "name": "",
          "type": "uint256"
        }
      ],
      "stateMutability": "view",
      "type": "function"
    },
    {
      "inputs": [],
      "name": "SALE_TOKEN_RESERVE",
      "outputs": [
        {
          "internalType": "uint256",
          "name": "",
          "type": "uint256"
        }
      ],
      "stateMutability": "view",
      "type": "function"
    },
    {
      "inputs": [],
      "name": "SLOT_01_BNB",
      "outputs": [
        {
          "internalType": "uint256",
          "name": "",
          "type": "uint256"
        }
      ],
      "stateMutability": "view",
      "type": "function"
    },
    {
      "inputs": [],
      "name": "SLOT_02_BNB",
      "outputs": [
        {
          "internalType": "uint256",
          "name": "",
          "type": "uint256"
        }
      ],
      "stateMutability": "view",
      "type": "function"
    },
    {
      "inputs": [],
      "name": "SLOT_05_BNB",
      "outputs": [
        {
          "internalType": "uint256",
          "name": "",
          "type": "uint256"
        }
      ],
      "stateMutability": "view",
      "type": "function"
    },
    {
      "inputs": [],
      "name": "SLOT_1_BNB",
      "outputs": [
        {
          "internalType": "uint256",
          "name": "",
          "type": "uint256"
        }
      ],
      "stateMutability": "view",
      "type": "function"
    },
    {
      "inputs": [],
      "name": "THRESHOLD_4_BNB",
      "outputs": [
        {
          "internalType": "uint256",
          "name": "",
          "type": "uint256"
        }
      ],
      "stateMutability": "view",
      "type": "function"
    },
    {
      "inputs": [],
      "name": "THRESHOLD_6_BNB",
      "outputs": [
        {
          "internalType": "uint256",
          "name": "",
          "type": "uint256"
        }
      ],
      "stateMutability": "view",
      "type": "function"
    },
    {
      "inputs": [],
      "name": "THRESHOLD_8_BNB",
      "outputs": [
        {
          "internalType": "uint256",
          "name": "",
          "type": "uint256"
        }
      ],
      "stateMutability": "view",
      "type": "function"
    },
    {
      "inputs": [],
      "name": "TOTAL_FEE_BPS",
      "outputs": [
        {
          "internalType": "uint256",
          "name": "",
          "type": "uint256"
        }
      ],
      "stateMutability": "view",
      "type": "function"
    },
    {
      "inputs": [],
      "name": "TOTAL_SUPPLY",
      "outputs": [
        {
          "internalType": "uint256",
          "name": "",
          "type": "uint256"
        }
      ],
      "stateMutability": "view",
      "type": "function"
    },
    {
      "inputs": [],
      "name": "WHITELIST_DURATION",
      "outputs": [
        {
          "internalType": "uint256",
          "name": "",
          "type": "uint256"
        }
      ],
      "stateMutability": "view",
      "type": "function"
    },
    {
      "inputs": [],
      "name": "WHITELIST_STATUS_ACTIVE",
      "outputs": [
        {
          "internalType": "uint8",
          "name": "",
          "type": "uint8"
        }
      ],
      "stateMutability": "view",
      "type": "function"
    },
    {
      "inputs": [],
      "name": "WHITELIST_STATUS_EXPIRED",
      "outputs": [
        {
          "internalType": "uint8",
          "name": "",
          "type": "uint8"
        }
      ],
      "stateMutability": "view",
      "type": "function"
    },
    {
      "inputs": [],
      "name": "WHITELIST_STATUS_FINALIZED",
      "outputs": [
        {
          "internalType": "uint8",
          "name": "",
          "type": "uint8"
        }
      ],
      "stateMutability": "view",
      "type": "function"
    },
    {
      "inputs": [],
      "name": "WHITELIST_STATUS_NONE",
      "outputs": [
        {
          "internalType": "uint8",
          "name": "",
          "type": "uint8"
        }
      ],
      "stateMutability": "view",
      "type": "function"
    },
    {
      "inputs": [],
      "name": "WHITELIST_STATUS_SCHEDULED",
      "outputs": [
        {
          "internalType": "uint8",
          "name": "",
          "type": "uint8"
        }
      ],
      "stateMutability": "view",
      "type": "function"
    },
    {
      "inputs": [],
      "name": "accountedNativeBalance",
      "outputs": [
        {
          "internalType": "uint256",
          "name": "",
          "type": "uint256"
        }
      ],
      "stateMutability": "view",
      "type": "function"
    },
    {
      "inputs": [],
      "name": "advanceWhitelistPhase",
      "outputs": [],
      "stateMutability": "nonpayable",
      "type": "function"
    },
    {
      "inputs": [
        {
          "internalType": "address",
          "name": "owner",
          "type": "address"
        },
        {
          "internalType": "address",
          "name": "spender",
          "type": "address"
        }
      ],
      "name": "allowance",
      "outputs": [
        {
          "internalType": "uint256",
          "name": "",
          "type": "uint256"
        }
      ],
      "stateMutability": "view",
      "type": "function"
    },
    {
      "inputs": [
        {
          "internalType": "address",
          "name": "spender",
          "type": "address"
        },
        {
          "internalType": "uint256",
          "name": "value",
          "type": "uint256"
        }
      ],
      "name": "approve",
      "outputs": [
        {
          "internalType": "bool",
          "name": "",
          "type": "bool"
        }
      ],
      "stateMutability": "nonpayable",
      "type": "function"
    },
    {
      "inputs": [
        {
          "internalType": "address",
          "name": "account",
          "type": "address"
        }
      ],
      "name": "balanceOf",
      "outputs": [
        {
          "internalType": "uint256",
          "name": "",
          "type": "uint256"
        }
      ],
      "stateMutability": "view",
      "type": "function"
    },
    {
      "inputs": [
        {
          "internalType": "uint256",
          "name": "minTokenOut",
          "type": "uint256"
        }
      ],
      "name": "buy",
      "outputs": [
        {
          "internalType": "uint256",
          "name": "tokenOut",
          "type": "uint256"
        }
      ],
      "stateMutability": "payable",
      "type": "function"
    },
    {
      "inputs": [
        {
          "internalType": "address",
          "name": "account",
          "type": "address"
        }
      ],
      "name": "canClaimWhitelistAllocation",
      "outputs": [
        {
          "internalType": "bool",
          "name": "",
          "type": "bool"
        }
      ],
      "stateMutability": "view",
      "type": "function"
    },
    {
      "inputs": [
        {
          "internalType": "address",
          "name": "account",
          "type": "address"
        }
      ],
      "name": "canClaimWhitelistRefund",
      "outputs": [
        {
          "internalType": "bool",
          "name": "",
          "type": "bool"
        }
      ],
      "stateMutability": "view",
      "type": "function"
    },
    {
      "inputs": [
        {
          "internalType": "address",
          "name": "account",
          "type": "address"
        }
      ],
      "name": "canCommitWhitelist",
      "outputs": [
        {
          "internalType": "bool",
          "name": "",
          "type": "bool"
        }
      ],
      "stateMutability": "view",
      "type": "function"
    },
    {
      "inputs": [
        {
          "internalType": "address",
          "name": "account",
          "type": "address"
        }
      ],
      "name": "canSell",
      "outputs": [
        {
          "internalType": "bool",
          "name": "",
          "type": "bool"
        }
      ],
      "stateMutability": "view",
      "type": "function"
    },
    {
      "inputs": [],
      "name": "claimCreatorFees",
      "outputs": [
        {
          "internalType": "uint256",
          "name": "amount",
          "type": "uint256"
        }
      ],
      "stateMutability": "nonpayable",
      "type": "function"
    },
    {
      "inputs": [
        {
          "internalType": "address payable",
          "name": "recipient",
          "type": "address"
        }
      ],
      "name": "claimCreatorFeesTo",
      "outputs": [
        {
          "internalType": "uint256",
          "name": "amount",
          "type": "uint256"
        }
      ],
      "stateMutability": "nonpayable",
      "type": "function"
    },
    {
      "inputs": [],
      "name": "claimProtocolFees",
      "outputs": [
        {
          "internalType": "uint256",
          "name": "amount",
          "type": "uint256"
        }
      ],
      "stateMutability": "nonpayable",
      "type": "function"
    },
    {
      "inputs": [
        {
          "internalType": "address payable",
          "name": "recipient",
          "type": "address"
        }
      ],
      "name": "claimProtocolFeesTo",
      "outputs": [
        {
          "internalType": "uint256",
          "name": "amount",
          "type": "uint256"
        }
      ],
      "stateMutability": "nonpayable",
      "type": "function"
    },
    {
      "inputs": [],
      "name": "claimWhitelistAllocation",
      "outputs": [
        {
          "internalType": "uint256",
          "name": "tokenAmount",
          "type": "uint256"
        }
      ],
      "stateMutability": "nonpayable",
      "type": "function"
    },
    {
      "inputs": [],
      "name": "claimWhitelistRefund",
      "outputs": [
        {
          "internalType": "uint256",
          "name": "refundAmount",
          "type": "uint256"
        }
      ],
      "stateMutability": "nonpayable",
      "type": "function"
    },
    {
      "inputs": [],
      "name": "commitWhitelistSeat",
      "outputs": [],
      "stateMutability": "payable",
      "type": "function"
    },
    {
      "inputs": [],
      "name": "createdAt",
      "outputs": [
        {
          "internalType": "uint256",
          "name": "",
          "type": "uint256"
        }
      ],
      "stateMutability": "view",
      "type": "function"
    },
    {
      "inputs": [],
      "name": "creator",
      "outputs": [
        {
          "internalType": "address",
          "name": "",
          "type": "address"
        }
      ],
      "stateMutability": "view",
      "type": "function"
    },
    {
      "inputs": [],
      "name": "creatorClaimable",
      "outputs": [
        {
          "internalType": "uint256",
          "name": "",
          "type": "uint256"
        }
      ],
      "stateMutability": "view",
      "type": "function"
    },
    {
      "inputs": [],
      "name": "creatorFeeSweepReady",
      "outputs": [
        {
          "internalType": "bool",
          "name": "",
          "type": "bool"
        }
      ],
      "stateMutability": "view",
      "type": "function"
    },
    {
      "inputs": [],
      "name": "creatorFeeVault",
      "outputs": [
        {
          "internalType": "uint256",
          "name": "",
          "type": "uint256"
        }
      ],
      "stateMutability": "view",
      "type": "function"
    },
    {
      "inputs": [],
      "name": "currentPriceQuotePerToken",
      "outputs": [
        {
          "internalType": "uint256",
          "name": "",
          "type": "uint256"
        }
      ],
      "stateMutability": "view",
      "type": "function"
    },
    {
      "inputs": [],
      "name": "curveQuoteReserve",
      "outputs": [
        {
          "internalType": "uint256",
          "name": "",
          "type": "uint256"
        }
      ],
      "stateMutability": "view",
      "type": "function"
    },
    {
      "inputs": [],
      "name": "decimals",
      "outputs": [
        {
          "internalType": "uint8",
          "name": "",
          "type": "uint8"
        }
      ],
      "stateMutability": "view",
      "type": "function"
    },
    {
      "inputs": [],
      "name": "dexFactory",
      "outputs": [
        {
          "internalType": "address",
          "name": "",
          "type": "address"
        }
      ],
      "stateMutability": "view",
      "type": "function"
    },
    {
      "inputs": [],
      "name": "dexReserves",
      "outputs": [
        {
          "internalType": "uint256",
          "name": "tokenReserve",
          "type": "uint256"
        },
        {
          "internalType": "uint256",
          "name": "quoteReserve",
          "type": "uint256"
        }
      ],
      "stateMutability": "view",
      "type": "function"
    },
    {
      "inputs": [],
      "name": "displayGraduationProgressBps",
      "outputs": [
        {
          "internalType": "uint256",
          "name": "",
          "type": "uint256"
        }
      ],
      "stateMutability": "view",
      "type": "function"
    },
    {
      "inputs": [],
      "name": "factory",
      "outputs": [
        {
          "internalType": "address",
          "name": "",
          "type": "address"
        }
      ],
      "stateMutability": "view",
      "type": "function"
    },
    {
      "inputs": [
        {
          "internalType": "address",
          "name": "recipient",
          "type": "address"
        },
        {
          "internalType": "uint256",
          "name": "minTokenOut",
          "type": "uint256"
        }
      ],
      "name": "factoryBuyFor",
      "outputs": [
        {
          "internalType": "uint256",
          "name": "tokenOut",
          "type": "uint256"
        }
      ],
      "stateMutability": "payable",
      "type": "function"
    },
    {
      "inputs": [
        {
          "internalType": "address payable",
          "name": "recipient",
          "type": "address"
        }
      ],
      "name": "factoryClaimProtocolFeesTo",
      "outputs": [
        {
          "internalType": "uint256",
          "name": "amount",
          "type": "uint256"
        }
      ],
      "stateMutability": "nonpayable",
      "type": "function"
    },
    {
      "inputs": [
        {
          "internalType": "address",
          "name": "account",
          "type": "address"
        }
      ],
      "name": "factoryCommitWhitelistSeat",
      "outputs": [],
      "stateMutability": "payable",
      "type": "function"
    },
    {
      "inputs": [],
      "name": "graduationProgressBps",
      "outputs": [
        {
          "internalType": "uint256",
          "name": "",
          "type": "uint256"
        }
      ],
      "stateMutability": "view",
      "type": "function"
    },
    {
      "inputs": [],
      "name": "graduationQuoteReserve",
      "outputs": [
        {
          "internalType": "uint256",
          "name": "",
          "type": "uint256"
        }
      ],
      "stateMutability": "view",
      "type": "function"
    },
    {
      "inputs": [
        {
          "internalType": "address",
          "name": "",
          "type": "address"
        }
      ],
      "name": "isTaxablePool",
      "outputs": [
        {
          "internalType": "bool",
          "name": "",
          "type": "bool"
        }
      ],
      "stateMutability": "view",
      "type": "function"
    },
    {
      "inputs": [
        {
          "internalType": "address",
          "name": "account",
          "type": "address"
        }
      ],
      "name": "isWhitelisted",
      "outputs": [
        {
          "internalType": "bool",
          "name": "",
          "type": "bool"
        }
      ],
      "stateMutability": "view",
      "type": "function"
    },
    {
      "inputs": [
        {
          "internalType": "address",
          "name": "",
          "type": "address"
        }
      ],
      "name": "lastBuyBlock",
      "outputs": [
        {
          "internalType": "uint256",
          "name": "",
          "type": "uint256"
        }
      ],
      "stateMutability": "view",
      "type": "function"
    },
    {
      "inputs": [],
      "name": "lastTradeAt",
      "outputs": [
        {
          "internalType": "uint256",
          "name": "",
          "type": "uint256"
        }
      ],
      "stateMutability": "view",
      "type": "function"
    },
    {
      "inputs": [],
      "name": "launchMode",
      "outputs": [
        {
          "internalType": "uint8",
          "name": "",
          "type": "uint8"
        }
      ],
      "stateMutability": "view",
      "type": "function"
    },
    {
      "inputs": [],
      "name": "launchModeId",
      "outputs": [
        {
          "internalType": "uint8",
          "name": "",
          "type": "uint8"
        }
      ],
      "stateMutability": "view",
      "type": "function"
    },
    {
      "inputs": [],
      "name": "launchSuffix",
      "outputs": [
        {
          "internalType": "string",
          "name": "",
          "type": "string"
        }
      ],
      "stateMutability": "pure",
      "type": "function"
    },
    {
      "inputs": [],
      "name": "lpTokenReserve",
      "outputs": [
        {
          "internalType": "uint256",
          "name": "",
          "type": "uint256"
        }
      ],
      "stateMutability": "view",
      "type": "function"
    },
    {
      "inputs": [],
      "name": "metadataURI",
      "outputs": [
        {
          "internalType": "string",
          "name": "",
          "type": "string"
        }
      ],
      "stateMutability": "view",
      "type": "function"
    },
    {
      "inputs": [],
      "name": "name",
      "outputs": [
        {
          "internalType": "string",
          "name": "",
          "type": "string"
        }
      ],
      "stateMutability": "view",
      "type": "function"
    },
    {
      "inputs": [],
      "name": "pair",
      "outputs": [
        {
          "internalType": "address",
          "name": "",
          "type": "address"
        }
      ],
      "stateMutability": "view",
      "type": "function"
    },
    {
      "inputs": [],
      "name": "pairSnapshot",
      "outputs": [
        {
          "internalType": "address",
          "name": "pairAddress",
          "type": "address"
        },
        {
          "internalType": "uint256",
          "name": "pairTotalSupply",
          "type": "uint256"
        },
        {
          "internalType": "uint112",
          "name": "reserve0",
          "type": "uint112"
        },
        {
          "internalType": "uint112",
          "name": "reserve1",
          "type": "uint112"
        },
        {
          "internalType": "uint256",
          "name": "tokenBalance",
          "type": "uint256"
        },
        {
          "internalType": "uint256",
          "name": "wrappedNativeBalance",
          "type": "uint256"
        }
      ],
      "stateMutability": "view",
      "type": "function"
    },
    {
      "inputs": [
        {
          "internalType": "uint256",
          "name": "grossQuoteIn",
          "type": "uint256"
        }
      ],
      "name": "previewBuy",
      "outputs": [
        {
          "internalType": "uint256",
          "name": "tokenOut",
          "type": "uint256"
        },
        {
          "internalType": "uint256",
          "name": "feeAmount",
          "type": "uint256"
        },
        {
          "internalType": "uint256",
          "name": "refundAmount",
          "type": "uint256"
        }
      ],
      "stateMutability": "view",
      "type": "function"
    },
    {
      "inputs": [
        {
          "internalType": "uint256",
          "name": "tokenAmount",
          "type": "uint256"
        }
      ],
      "name": "previewSell",
      "outputs": [
        {
          "internalType": "uint256",
          "name": "grossQuoteOut",
          "type": "uint256"
        },
        {
          "internalType": "uint256",
          "name": "netQuoteOut",
          "type": "uint256"
        },
        {
          "internalType": "uint256",
          "name": "totalFee",
          "type": "uint256"
        }
      ],
      "stateMutability": "view",
      "type": "function"
    },
    {
      "inputs": [],
      "name": "priceQuotePerToken",
      "outputs": [
        {
          "internalType": "uint256",
          "name": "",
          "type": "uint256"
        }
      ],
      "stateMutability": "view",
      "type": "function"
    },
    {
      "inputs": [],
      "name": "protocolClaimable",
      "outputs": [
        {
          "internalType": "uint256",
          "name": "",
          "type": "uint256"
        }
      ],
      "stateMutability": "view",
      "type": "function"
    },
    {
      "inputs": [],
      "name": "protocolFeeRecipient",
      "outputs": [
        {
          "internalType": "address",
          "name": "",
          "type": "address"
        }
      ],
      "stateMutability": "view",
      "type": "function"
    },
    {
      "inputs": [],
      "name": "protocolFeeVault",
      "outputs": [
        {
          "internalType": "uint256",
          "name": "",
          "type": "uint256"
        }
      ],
      "stateMutability": "view",
      "type": "function"
    },
    {
      "inputs": [],
      "name": "reconcileUnexpectedNative",
      "outputs": [
        {
          "internalType": "uint256",
          "name": "amount",
          "type": "uint256"
        }
      ],
      "stateMutability": "nonpayable",
      "type": "function"
    },
    {
      "inputs": [],
      "name": "remainingQuoteCapacity",
      "outputs": [
        {
          "internalType": "uint256",
          "name": "",
          "type": "uint256"
        }
      ],
      "stateMutability": "view",
      "type": "function"
    },
    {
      "inputs": [],
      "name": "router",
      "outputs": [
        {
          "internalType": "address",
          "name": "",
          "type": "address"
        }
      ],
      "stateMutability": "view",
      "type": "function"
    },
    {
      "inputs": [],
      "name": "saleTokenReserve",
      "outputs": [
        {
          "internalType": "uint256",
          "name": "",
          "type": "uint256"
        }
      ],
      "stateMutability": "view",
      "type": "function"
    },
    {
      "inputs": [
        {
          "internalType": "uint256",
          "name": "tokenAmount",
          "type": "uint256"
        },
        {
          "internalType": "uint256",
          "name": "minQuoteOut",
          "type": "uint256"
        }
      ],
      "name": "sell",
      "outputs": [
        {
          "internalType": "uint256",
          "name": "netQuoteOut",
          "type": "uint256"
        }
      ],
      "stateMutability": "nonpayable",
      "type": "function"
    },
    {
      "inputs": [
        {
          "internalType": "address",
          "name": "account",
          "type": "address"
        }
      ],
      "name": "sellUnlockBlock",
      "outputs": [
        {
          "internalType": "uint256",
          "name": "",
          "type": "uint256"
        }
      ],
      "stateMutability": "view",
      "type": "function"
    },
    {
      "inputs": [
        {
          "internalType": "address",
          "name": "pool",
          "type": "address"
        },
        {
          "internalType": "bool",
          "name": "enabled",
          "type": "bool"
        }
      ],
      "name": "setTaxablePool",
      "outputs": [],
      "stateMutability": "nonpayable",
      "type": "function"
    },
    {
      "inputs": [],
      "name": "state",
      "outputs": [
        {
          "internalType": "enum LaunchTokenBase.LaunchState",
          "name": "",
          "type": "uint8"
        }
      ],
      "stateMutability": "view",
      "type": "function"
    },
    {
      "inputs": [],
      "name": "sweepAbandonedCreatorFees",
      "outputs": [
        {
          "internalType": "uint256",
          "name": "amount",
          "type": "uint256"
        }
      ],
      "stateMutability": "nonpayable",
      "type": "function"
    },
    {
      "inputs": [],
      "name": "symbol",
      "outputs": [
        {
          "internalType": "string",
          "name": "",
          "type": "string"
        }
      ],
      "stateMutability": "view",
      "type": "function"
    },
    {
      "inputs": [],
      "name": "taxConfig",
      "outputs": [
        {
          "internalType": "bool",
          "name": "enabled",
          "type": "bool"
        },
        {
          "internalType": "uint16",
          "name": "configuredTaxBps",
          "type": "uint16"
        },
        {
          "internalType": "uint16",
          "name": "burnBps",
          "type": "uint16"
        },
        {
          "internalType": "uint16",
          "name": "treasuryBps",
          "type": "uint16"
        },
        {
          "internalType": "address",
          "name": "wallet",
          "type": "address"
        },
        {
          "internalType": "bool",
          "name": "active",
          "type": "bool"
        }
      ],
      "stateMutability": "view",
      "type": "function"
    },
    {
      "inputs": [],
      "name": "totalSupply",
      "outputs": [
        {
          "internalType": "uint256",
          "name": "",
          "type": "uint256"
        }
      ],
      "stateMutability": "view",
      "type": "function"
    },
    {
      "inputs": [
        {
          "internalType": "address",
          "name": "to",
          "type": "address"
        },
        {
          "internalType": "uint256",
          "name": "value",
          "type": "uint256"
        }
      ],
      "name": "transfer",
      "outputs": [
        {
          "internalType": "bool",
          "name": "",
          "type": "bool"
        }
      ],
      "stateMutability": "nonpayable",
      "type": "function"
    },
    {
      "inputs": [
        {
          "internalType": "address",
          "name": "from",
          "type": "address"
        },
        {
          "internalType": "address",
          "name": "to",
          "type": "address"
        },
        {
          "internalType": "uint256",
          "name": "value",
          "type": "uint256"
        }
      ],
      "name": "transferFrom",
      "outputs": [
        {
          "internalType": "bool",
          "name": "",
          "type": "bool"
        }
      ],
      "stateMutability": "nonpayable",
      "type": "function"
    },
    {
      "inputs": [],
      "name": "unexpectedNativeBalance",
      "outputs": [
        {
          "internalType": "uint256",
          "name": "",
          "type": "uint256"
        }
      ],
      "stateMutability": "view",
      "type": "function"
    },
    {
      "inputs": [],
      "name": "virtualQuoteReserve",
      "outputs": [
        {
          "internalType": "uint256",
          "name": "",
          "type": "uint256"
        }
      ],
      "stateMutability": "view",
      "type": "function"
    },
    {
      "inputs": [],
      "name": "virtualTokenReserve",
      "outputs": [
        {
          "internalType": "uint256",
          "name": "",
          "type": "uint256"
        }
      ],
      "stateMutability": "view",
      "type": "function"
    },
    {
      "inputs": [
        {
          "internalType": "address",
          "name": "",
          "type": "address"
        }
      ],
      "name": "whitelist",
      "outputs": [
        {
          "internalType": "bool",
          "name": "",
          "type": "bool"
        }
      ],
      "stateMutability": "view",
      "type": "function"
    },
    {
      "inputs": [
        {
          "internalType": "address",
          "name": "",
          "type": "address"
        }
      ],
      "name": "whitelistAllocationClaimed",
      "outputs": [
        {
          "internalType": "bool",
          "name": "",
          "type": "bool"
        }
      ],
      "stateMutability": "view",
      "type": "function"
    },
    {
      "inputs": [],
      "name": "whitelistAllocationTokenReserve",
      "outputs": [
        {
          "internalType": "uint256",
          "name": "",
          "type": "uint256"
        }
      ],
      "stateMutability": "view",
      "type": "function"
    },
    {
      "inputs": [],
      "name": "whitelistCommitVault",
      "outputs": [
        {
          "internalType": "uint256",
          "name": "",
          "type": "uint256"
        }
      ],
      "stateMutability": "view",
      "type": "function"
    },
    {
      "inputs": [],
      "name": "whitelistCommittedTotal",
      "outputs": [
        {
          "internalType": "uint256",
          "name": "",
          "type": "uint256"
        }
      ],
      "stateMutability": "view",
      "type": "function"
    },
    {
      "inputs": [],
      "name": "whitelistExpiredWithoutFinalization",
      "outputs": [
        {
          "internalType": "bool",
          "name": "",
          "type": "bool"
        }
      ],
      "stateMutability": "view",
      "type": "function"
    },
    {
      "inputs": [],
      "name": "whitelistFinalized",
      "outputs": [
        {
          "internalType": "bool",
          "name": "",
          "type": "bool"
        }
      ],
      "stateMutability": "view",
      "type": "function"
    },
    {
      "inputs": [
        {
          "internalType": "address",
          "name": "",
          "type": "address"
        }
      ],
      "name": "whitelistRefundClaimed",
      "outputs": [
        {
          "internalType": "bool",
          "name": "",
          "type": "bool"
        }
      ],
      "stateMutability": "view",
      "type": "function"
    },
    {
      "inputs": [
        {
          "internalType": "address",
          "name": "",
          "type": "address"
        }
      ],
      "name": "whitelistSeatCommitted",
      "outputs": [
        {
          "internalType": "bool",
          "name": "",
          "type": "bool"
        }
      ],
      "stateMutability": "view",
      "type": "function"
    },
    {
      "inputs": [],
      "name": "whitelistSeatsFilled",
      "outputs": [
        {
          "internalType": "uint256",
          "name": "",
          "type": "uint256"
        }
      ],
      "stateMutability": "view",
      "type": "function"
    },
    {
      "inputs": [],
      "name": "whitelistSnapshot",
      "outputs": [
        {
          "internalType": "uint8",
          "name": "status",
          "type": "uint8"
        },
        {
          "internalType": "uint256",
          "name": "opensAt",
          "type": "uint256"
        },
        {
          "internalType": "uint256",
          "name": "deadline",
          "type": "uint256"
        },
        {
          "internalType": "uint256",
          "name": "threshold",
          "type": "uint256"
        },
        {
          "internalType": "uint256",
          "name": "slotSize",
          "type": "uint256"
        },
        {
          "internalType": "uint256",
          "name": "seatCount",
          "type": "uint256"
        },
        {
          "internalType": "uint256",
          "name": "seatsFilled",
          "type": "uint256"
        },
        {
          "internalType": "uint256",
          "name": "committedTotal",
          "type": "uint256"
        },
        {
          "internalType": "uint256",
          "name": "tokensPerSeat",
          "type": "uint256"
        }
      ],
      "stateMutability": "view",
      "type": "function"
    },
    {
      "inputs": [],
      "name": "whitelistStatus",
      "outputs": [
        {
          "internalType": "uint8",
          "name": "",
          "type": "uint8"
        }
      ],
      "stateMutability": "view",
      "type": "function"
    },
    {
      "inputs": [],
      "name": "whitelistTokensPerSeat",
      "outputs": [
        {
          "internalType": "uint256",
          "name": "",
          "type": "uint256"
        }
      ],
      "stateMutability": "view",
      "type": "function"
    },
    {
      "inputs": [],
      "name": "wrappedNative",
      "outputs": [
        {
          "internalType": "address",
          "name": "",
          "type": "address"
        }
      ],
      "stateMutability": "view",
      "type": "function"
    },
    {
      "stateMutability": "payable",
      "type": "receive"
    }
  ],
  "bytecode": "0x6102e0806040523462000dcb5762006a2a803803809162000021828562001256565b8339602082828101031262000dcb578151906001600160401b03821162000dcb57610220828401828501031262000dcb576040519161022083016001600160401b0381118482101762000f3d57604052838101516001600160401b03811162000dcb57620000979083860190838701016200127a565b8352838101602001516001600160401b03811162000dcb57620000c29083860190838701016200127a565b6020840152838101604001516001600160401b03811162000dcb57620000f09083860190838701016200127a565b604084015262000105606082860101620012f0565b60608401526200011a608082860101620012f0565b60808401526200012f60a082860101620012f0565b60a08401526200014460c082860101620012f0565b60c084015283810160e0818101519085015261010080820151908501526101208082015190850152610140808201519085015261016001516001600160401b03811162000dcb578185010191808501601f8401121562000dcb578251926001600160401b03841162000f3d578360051b9060405194620001c8602084018762001256565b8552602080860192820101928701831162000dcb57602001905b8282106200123b575050506102006200026291836101608601526200020d6101808288010162001305565b9586610180870152620002266101a08383010162001314565b6101a08701526200023d6101c08383010162001314565b6101c0870152620002546101e08383010162001314565b6101e08701520101620012f0565b610200830152815160208301516040808501516060860151608087015160a088015160c089015160e08a01516101008b01516101208c01516101408d01519851979d979b979a6001600160a01b039788169a939994881698958816979096169592949293916101a08d01808e116001600160401b039091111762000f3d57898f8e60e0916101a0820160405288825289602083015260408201528d60608201528960808201528a60a08201528b60c082015201526101008d01526101208c01526101408b01526101608a015260ff88166101808a015280519060018060401b03821162000f3d5760035490600182811c9216801562001230575b602083101462000f1c5781601f849311620011be575b50602090601f83116001146200112f5760009262001123575b50508160011b916000199060031b1c1916176003555b8051906001600160401b03821162000f3d5760045490600182811c9216801562001118575b602083101462000f1c5781601f849311620010a6575b50602090601f831160011462001017576000926200100b575b50508160011b916000199060031b1c1916176004555b60017f9b779b17422d0df92223018b32b4d1fa46e071723d6817e2486d003becc55f0055831562000ff9576200044184620015a9565b94851562000ff9578015801562000ff0575b801562000fe7575b801562000fde575b620007e65760a05260c05260e05261010081905260405163c45a015560e01b8152602081600481855afa90811562000dd95760009162000f95575b50610120526040516315ab88c960e31b815290602090829060049082905afa90811562000dd95760009162000f53575b506101405261016052610180526a5889e9f3e4c6e14f4000006101a052426101c0819052600c5583516001600160401b03811162000f3d57600554600181811c9116801562000f32575b602082101462000f1c57601f811162000ed2575b506020601f821160011462000e5e57819060ff94959660009262000e52575b50508160011b916000199060031b1c1916176005555b16608052301562000e395762000577306200165f565b6b0295be96e6406697200000006007556aa56fa5b99019a5c8000000600855610120516101405160405163e6a4390560e01b8152600092909160209183916001600160a01b039182169183918291620005d69116306004840162001645565b03915afa91821562000e2d57809262000de5575b50506001600160a01b0381161562000d36575b600680546001600160a81b03191660089290921b610100600160a81b03169190911760049081179091556040519060007f3a779de46631dd65116ae538600f1bc3c338200c6aef638429b5de43301c28f78180a3610100820151673782dace9d900000811490811562000d23575b811562000d10575b501562000d01575061010081015160e0820151111562000cef5761012081015167016345785d8a0000811490811562000cdc575b811562000cc9575b811562000cb6575b501562000ca45761010081015161012082015190811562000c8e570662000c6f576101008101519161012082015191821562000c8e578284041580801562000c81575b62000c6f576101608201515190848604821091821562000c4d575b505062000c3b576101408101518062000c34575042925b428410801562000c1d575b62000c0b57620151808401841162000bc3576201518084016101e05261010082015161020052610120820151610220528085046102405260005b6101608301518051821015620007f857600582901b01602001516001600160a01b0316908115620007e65781600052601460205260ff60406000205416620007d457600191600052601460205260406000208260ff198254161790550162000771565b604051630fb0efa560e41b8152600490fd5b60405163d92e233d60e01b8152600490fd5b8462000866857fc32c90bcebb1b5638e92a2a57d7cfd39596fa72768c7c95f945d9ed03baffac560a0878c8c61010086015192610120870151926101e05193604051958652602086015204604084015260608301526080820152a1608001516001600160a01b0316620014ba565b1562000bf95760ff6101808201511661ffff6101a08301511661ffff6101c08401511661ffff6101e08501511691600c60018060a01b0361020087015116940362000b78576064811090811562000bec575b811562000bd9575b5062000b7857810161ffff811162000bc35761ffff61271091160362000b78571580158062000bba575b62000b78578062000bb0575b62000b785730811490811562000b97575b811562000b8a575b5062000b78576101a081015161ffff908116610260526101c08201518116610280526101e0820151166102a0526102008101516001600160a01b039081166102c0526006546200097c9291620009699160081c1662001332565b608001516001600160a01b0316620013ac565b1562000b6657604051614f4362001aa782396080518161269e015260a051818181611e060152818161248e0152818161387401526142cb015260c051818181610a870152818161100f0152818161189e0152818161227b015281816133c001526142f4015260e05181818161192b01528181611c9d0152818161330d0152614dda015261010051816106f0015261012051816110a00152610140518181816108140152818161297e01528181612fe70152613f40015261016051818181611d6a0152818161274b01528181612b6201528181612c990152818161391901528181613a180152613c04015261018051818181610780015261350701526101a051818181611e4b015261354101526101c051818181610d700152613aa801526101e05181818161097f01528181610e96015281816111fb0152818161123801528181612ae10152818161363901526136890152610200518181816109d101528181613595015281816137c401526145e00152610220518181816109f701528181611a5801526136dc015261024051818181610a1d01528181611194015281816137190152614635015261026051818181610f3601526148de015261028051818181610f5e015261491d01526102a05181610f8501526102c051818181610fb401526149ad0152614f4390f35b604051635493503b60e11b8152600490fd5b60405163694f6dbf60e11b8152600490fd5b61dead915014826200090f565b60065460081c6001600160a01b03168114915062000907565b50801515620008f6565b508115620008ea565b634e487b7160e01b600052601160045260246000fd5b61ffff91506064900616151585620008c0565b61038481119150620008b8565b604051635bb6e57160e11b8152600490fd5b6040516305c742e960e11b8152600490fd5b506203f480420180421162000bc357841162000737565b926200072c565b60405163529cc2c560e01b8152600490fd5b909150600385870402918587048304600314171562000bc35711388062000715565b604051635ca83dcb60e11b8152600490fd5b50605084860411620006fa565b634e487b7160e01b600052601260045260246000fd5b604051633d8f86f560e21b8152600490fd5b670de0b6b3a764000091501438620006b7565b6706f05b59d3b2000081149150620006af565b6702c68af0bb14000081149150620006a7565b60405163230bad2760e11b8152600490fd5b63230bad2760e11b8152600490fd5b676f05b59d3b2000009150143862000673565b6753444835ec580000811491506200066b565b5061012051610140516040516364e329cb60e11b81529160209183916001600160a01b03908116918391600091839162000d769116306004840162001645565b03925af1801562000dd95760009062000d92575b9050620005fd565b506020813d60201162000dd0575b8162000daf6020938362001256565b8101031262000dcb5762000dc5600491620012f0565b62000d8a565b600080fd5b3d915062000da0565b6040513d6000823e3d90fd5b9091506020823d60201162000e24575b8162000e046020938362001256565b8101031262000e21575062000e1990620012f0565b3880620005ea565b80fd5b3d915062000df5565b604051903d90823e3d90fd5b60405163ec442f0560e01b815260006004820152602490fd5b0151905038806200054b565b600560005260206000209560005b601f198416811062000eb9575095829160ff959697600194601f1981161062000e9f575b505050811b0160055562000561565b015160001960f88460031b161c1916905538808062000e90565b8282015188556001909701966020928301920162000e6c565b60056000526020600020601f830160051c81016020841062000f14575b601f830160051c8201811062000f075750506200052c565b6000815560010162000eef565b508062000eef565b634e487b7160e01b600052602260045260246000fd5b90607f169062000518565b634e487b7160e01b600052604160045260246000fd5b90506020813d60201162000f8c575b8162000f716020938362001256565b8101031262000dcb5762000f8590620012f0565b38620004ce565b3d915062000f62565b90506020813d60201162000fd5575b8162000fb36020938362001256565b8101031262000dcb5760049162000fcc602092620012f0565b9150916200049e565b3d915062000fa4565b50831562000463565b5082156200045b565b50811562000453565b604051630d956e1760e21b8152600490fd5b015190503880620003f5565b6004600090815293507f8a35acfbc15ff81a39ae7d344fd709f28e8600b4aa8c65c6b64bfe7fe36bd19b91905b601f19841685106200108a576001945083601f1981161062001070575b505050811b016004556200040b565b015160001960f88460031b161c1916905538808062001061565b8181015183556020948501946001909301929091019062001044565b60046000529091507f8a35acfbc15ff81a39ae7d344fd709f28e8600b4aa8c65c6b64bfe7fe36bd19b601f840160051c81016020851062001110575b90849392915b601f830160051c8201811062001100575050620003dc565b60008155859450600101620010e8565b5080620010e2565b91607f1691620003c6565b0151905038806200038b565b6003600090815293507fc2575a0e9e593c00f959f8c92f12db2869c3395a3b0502d05e2516446f71f85b91905b601f1984168510620011a2576001945083601f1981161062001188575b505050811b01600355620003a1565b015160001960f88460031b161c1916905538808062001179565b818101518355602094850194600190930192909101906200115c565b60036000529091507fc2575a0e9e593c00f959f8c92f12db2869c3395a3b0502d05e2516446f71f85b601f840160051c81016020851062001228575b90849392915b601f830160051c820181106200121857505062000372565b6000815585945060010162001200565b5080620011fa565b91607f16916200035c565b602080916200124a84620012f0565b815201910190620001e2565b601f909101601f19168101906001600160401b0382119082101762000f3d57604052565b919080601f8401121562000dcb5782516001600160401b03811162000f3d5760209060405192620012b583601f19601f850116018562001256565b81845282828701011162000dcb5760005b818110620012dc57508260009394955001015290565b8581018301518482018401528201620012c6565b51906001600160a01b038216820362000dcb57565b519060ff8216820362000dcb57565b519061ffff8216820362000dcb57565b9190820180921162000bc357565b6001600160a01b0390811660008181526018602052604090208054919290919060ff82161515600114620013a6577ff1d8d554547fde8a73173802e84a46a02e1c0211606173662897eae8bd39d04292600160409360ff191617905560065460081c168314815190600182526020820152a2565b50505050565b803b15620014b457604051631b5c66b560e31b81526001600160a01b03918216916020918281600481875afa90811562000dd95760009162001477575b501633149182620013f957505090565b60405163b119b57b60e01b81523060048201529192508290829060249082905afa91821562000dd95760009262001436575b505060ff16600c1490565b90809250813d83116200146f575b62001450818362001256565b8101031262000dcb5760ff62001468600c9262001305565b916200142b565b503d62001444565b90508281813d8311620014ac575b62001491818362001256565b8101031262000dcb57620014a590620012f0565b38620013e9565b503d62001485565b50600090565b6001600160a01b039080821690338214620015a1573b156200159a57600260ff60805116146200156b57600c60ff6080511614620014f9575050600090565b602060049160405192838092631b5c66b560e31b82525afa90811562000dd95760009162001529575b5016331490565b90506020813d60201162001562575b81620015476020938362001256565b8101031262000dcb576200155b90620012f0565b3862001522565b3d915062001538565b6020600491604051928380926337eb7e0160e01b82525afa90811562000dd95760009162001529575016331490565b5050600090565b505050600190565b6afdf98fad74e087174000006000198183098183029182808310920391808303921462001630576b0295be96e64066972000000090828211156200161d577fab5d02869c14ad85338e6a157058d28e658611776aff168d01c445d3a8cc9189940990828211900360e31b9103601d1c170290565b634e487b7160005260116020526024601cfd5b50506b0295be96e64066972000000091500490565b6001600160a01b0391821681529116602082015260400190565b620016696200198c565b62001793575b60ff600654166005811015806200176f5760018214801562001785575b1562001713575b50506002546b033b2e3c9fd0803ce80000009182820180921162000bc3576002919091556001600160a01b03169060009060008051602062006a0a8339815191529060209084620016fd576b033b2e3c9fd0803ce7ffffff19600254016002555b604051908152a3565b84845283825260408420818154019055620016f4565b6200176f57600281036200174357503062001731575b388062001693565b60405163baf3f0f760e01b8152600490fd5b6003036200172957306001600160a01b0382160362001729575b604051634e46966960e11b8152600490fd5b634e487b7160e01b600052602160045260246000fd5b50506000600482146200168c565b61ffff806102605116906b033b2e3c9fd0803ce800000091808302908382040362000bc357612710809104918215908115620017d45750505050506200166f565b610280959394955116908185029185830414171562000bc357048083039280841162000bc35780850385811162000bc357620018119084620019ae565b816200187d575b916000938284608094600080516020620069ea83398151915296036200185d575b60408051988952602089019190915287015260608601526001600160a01b031693a3565b6102c051620018779084906001600160a01b0316620019ae565b62001839565b60ff600654166005811015806200176f576001821480156200197e575b1562001907575b50509160009382600080516020620069ea83398151915294620018c960809560025462001324565b60025561dead80885287602052604088208381540190558760008051602062006a0a8339815191526020604051868152a39294509250935062001818565b6200176f57600281036200194357509091306200173157600093600080516020620069ea833981519152936080935b92945092819550620018a1565b6003146200196a575b91600093608092600080516020620069ea8339815191529462001936565b90913061dead146200175d5791906200194c565b50506000600482146200189a565b60ff6006541660058110156200176f57600303620019a957600090565b600090565b60ff600654166005811015806200176f5760018214801562001a98575b1562001a1e575b505060008051602062006a0a8339815191526020600092620019f78560025462001324565b6002556001600160a01b03169384158414620016fd578060025403600255604051908152a3565b6200176f576002810362001a51575030620017315760008051602062006a0a83398151915260206000925b9250620019d2565b60031462001a75575b60008051602062006a0a833981519152602060009262001a49565b306001600160a01b0382160362001a5a57604051634e46966960e11b8152600490fd5b5050600060048214620019cb56fe6080604081815260049182361015610044575b505050361561002057600080fd5b6100286132d1565b610030612c08565b6001600080516020614eee83398151915255005b600092833560e01c9182630227591d146124bd5750816302d05d3f1461247957816303dffb5a1461245657816303ee438c146123b357816306b51d48146117ac57816306fdde03146122da57816307979003146122bb578163086e5ca014612248578163095ea7b31461219e5781630b42aae01461218257816315a0aa0814612145578163173d5e4214611d2757816318160ddd146121265781631c2945b2146120e85781631cd97db5146120c15781631d924c77146120a357816323b872dd14611f5757816324e69d7c14611f3057816325cacd0c14611f0c57816327bfa19614611ece578163292e5b0014611ea95781632a025a8614611e8a578163313ce56714611e6e578163343ee3b714611e33578163351fee4614611de457816337488a4214611dc557816337b28bfd14611d8d5781633993152714611d525781633af32abf146114585781633cfe0ade14611d2c578163403287a914610b6a57816340faa03c14611d27578163430437fb14611d0e57816345b2af8c14611ceb578163463bb800146113105781634815327914611cca5781634a7d036914611c7b5781634e6fd6c414611c5e57816352fb81bb14611c205781635386600614611b78578163571b1f8a14611b5a578163581b51f314611b3d5781635878f8ce14611b2057816358ebc06e14611a135781636095a620146119f757816362081d51146119b9578163644537cb1461199357816364a5dc2b1461195a57816364df049e146119165781636723064e146118755781636887c8481461182257816368bc13f5146118065781636a534fcb146117cd5781636a740d31146110eb5781636f28507c146117b15781636f71f017146117ac57816370a0823114611786578163722eb97a1461176a57816374452ec31461174b5781637531abe3146116d157816379e469871461103e5781637b412645146116ae57816385cac2371461110c57816386d4ff1d1461165f5781638925d36e14611640578163902d55a51461161a5781639111f13d146115f457816391e7cd34146115d55781639454d720146115b957816394c2c24f1461159d57816395d89b41146114b957816396f06241146114965781639b19251a146114585781639d0ee65b1461143c5781639ddf7ad3146114155781639e5f358a146113f8578163a202c86d146113dc578163a36cdf9914611368578163a8aa1b311461133b578163a8dccd0214611315578163a8ea444514611310578163a9059cbb146112a4578163aadade7a14611285578163aecf6a7c14611135578163af1af3b914610db6578163b0cc792d14611111578163b37dd6901461110c578163b5f1c1ff146110f0578163b82020e8146110eb578163b88202a9146110cf578163b8d8fbb41461108b578163be3782281461106f578163c19d93fb14611043578163c22898781461103e578163c45a015514610ffa578163c57da02914610f09578163cac01cbc14610eee578163cc3cbd2a14610ed2578163cc64aade14610dd5578163ce228ad214610db6578163cedf7c1914610d93578163cf09e0d014610d58578163d119e96514610d3a578163d79875eb14610b6f578163d81d946f14610b6a578163d96a094a14610aed578163d9d5a9f314610a66578163db9b541314610962578163dd62ed3e14610919578163e1a45218146108fc578163e832662614610843578163eb6d3a11146107ff578163ed1cc3a8146107e0578163f3bf10ed146107c1578163f48f6f1d146107a3578163f559662614610768578163f73aaf3c14610745578163f7ce612a1461071f578163f887ea40146106db578163fb3dd95f146106a5578163fb9a1d8d146105b3575063fd897e0b146105925780610012565b346105af57816003193601126105af57602090600d549051908152f35b5080fd5b8383346105af57816003193601126105af576105cd6132d1565b60ff6013541615801561068f575b801561067a575b61066b57602092506012549133815260168452818120600160ff1982541617905561060f83600d546126c2565b600d55338152600e8452814391205561062982333061422b565b80518281527f648b77675d9290f9aa4f34a5cd8b6ff268de43a375ce9f853f027bb3699ea84e843392a26001600080516020614eee8339815191525551908152f35b51630f6ff1d560e31b81529050fd5b50338252601660205260ff81832054166105e2565b50338252601560205260ff8183205416156105db565b8284346106d85760203660031901126106d857506106c66106d49235612bb4565b909391925193849384612636565b0390f35b80fd5b5050346105af57816003193601126105af57517f00000000000000000000000000000000000000000000000000000000000000006001600160a01b03168152602090f35b5050346105af57816003193601126105af57602090516aa56fa5b99019a5c80000008152f35b5050346105af57816003193601126105af57602090516702c68af0bb1400008152f35b5050346105af57816003193601126105af57602090517f00000000000000000000000000000000000000000000000000000000000000008152f35b5050346105af57816003193601126105af576020905162278d008152f35b5050346105af57816003193601126105af576020906012549051908152f35b5050346105af57816003193601126105af57602090600f549051908152f35b5050346105af57816003193601126105af57517f00000000000000000000000000000000000000000000000000000000000000006001600160a01b03168152602090f35b8383346105af57806003193601126105af5761085d6125b7565b602435918215801584036108f857610874336142be565b156108e95760065460081c6001600160a01b039081169084161490816108e1575b506108d25782806108c2575b6108b35750906108b091614534565b80f35b5163579e643f60e01b81528490fd5b506108cc82614399565b156108a1565b5163275118ef60e01b81528490fd5b905086610895565b8151628989cb60e61b81528690fd5b8480fd5b5050346105af57816003193601126105af57602090516127108152f35b5050346105af57806003193601126105af57806020926109376125b7565b61093f6125cd565b6001600160a01b0391821683526001865283832091168252845220549051908152f35b8284346106d857806003193601126106d85761097c612a8d565b917f00000000000000000000000000000000000000000000000000000000000000006201517f19810192818411610a5357506101209450600f5490601054926012549460ff82519716875260208701528501527f000000000000000000000000000000000000000000000000000000000000000060608501527f000000000000000000000000000000000000000000000000000000000000000060808501527f000000000000000000000000000000000000000000000000000000000000000060a085015260c084015260e0830152610100820152f35b634e487b7160e01b815260118652602490fd5b90506020366003190112610ae957610a7c6125b7565b91610a856132d1565b7f00000000000000000000000000000000000000000000000000000000000000006001600160a01b03163303610adc5783610ac784610ac2613566565b613660565b6001600080516020614eee8339815191525580f35b51635b2fb5b360e11b8152fd5b8280fd5b828460203660031901126106d857610b036132d1565b610b0b613566565b60ff60065416906005821015610b575750600103610b4a57610b31602092353333613bac565b906001600080516020614eee8339815191525551908152f35b5163baf3f0f760e01b8152fd5b634e487b7160e01b815260218452602490fd5b6125fe565b91905034610ae95780600319360112610ae957813592610b8d6132d1565b610b95613566565b60ff600654166005811015610d2757600103610d19578315610d0b578190338152600e60205220544314610cfe57610bf3610bed610bd16134ff565b610be787610be1838596956126e5565b92612809565b906141c2565b906126c2565b9283158015610cf3575b610ce557610c17610c0d856141f4565b91879391936126c2565b948515610cd7576024358610610cd75750602095610cbc7feebdf396b2ce33c6bf51df33b76958425b7430bd1c74fbef7b585106affddd1c938793610c5d87303361422b565b610c6987600754612809565b600755610c78846009546126c2565b600955610c8782600a54612809565b600a55610c9681600b54612809565b600b5542600c55610ca78533613b29565b60095490600754928951968796339a88612b86565b0390a26001600080516020614eee8339815191525551908152f35b8451638199f5f360e01b8152fd5b5051638199f5f360e01b8152fd5b506009548411610bfd565b51635aabee0f60e11b8152fd5b5051631f2a200560e01b8152fd5b505163baf3f0f760e01b8152fd5b634e487b7160e01b825260218452602482fd5b5050346105af57816003193601126105af57602090516203f4808152f35b5050346105af57816003193601126105af57602090517f00000000000000000000000000000000000000000000000000000000000000008152f35b5050346105af57816003193601126105af57602090516753444835ec5800008152f35b5050346105af57816003193601126105af57602090600a549051908152f35b8383346105af5760203660031901126105af57610df06125b7565b916013549260ff8460081c16938415610e5d575b506020945083610e3f575b83610e1f575b5050519015158152f35b6001600160a01b03168152601784528190205460ff161591508380610e15565b6001600160a01b0381168252601585528282205460ff169350610e0f565b90935060ff600654166005811015610ebf57602095149081610e94575b81610e88575b509285610e04565b60ff9150161585610e80565b7f00000000000000000000000000000000000000000000000000000000000000004210159150610e7a565b634e487b7160e01b835260218652602483fd5b5050346105af57816003193601126105af576020905160468152f35b5050346105af57816003193601126105af5751908152602090f35b8284346106d857806003193601126106d85760ff60065416926005841015610fe75782516001815261ffff7f0000000000000000000000000000000000000000000000000000000000000000811660208301527f00000000000000000000000000000000000000000000000000000000000000008116828601527f00000000000000000000000000000000000000000000000000000000000000001660608201526001600160a01b037f00000000000000000000000000000000000000000000000000000000000000001660808201526003851460a082015260c090f35b634e487b7160e01b825260219052602490fd5b5050346105af57816003193601126105af57517f00000000000000000000000000000000000000000000000000000000000000006001600160a01b03168152602090f35b612668565b8383346105af57816003193601126105af5760ff600654169051916005821015610b5757602083838152f35b5050346105af57816003193601126105af5760209051601e8152f35b5050346105af57816003193601126105af57517f00000000000000000000000000000000000000000000000000000000000000006001600160a01b03168152602090f35b5050346105af57816003193601126105af5760209051600b8152f35b61264c565b5050346105af57816003193601126105af5760209051600c8152f35b612684565b5050346105af57816003193601126105af5760209061112e612b44565b9051908152f35b8383346105af5760203660031901126105af576111506125b7565b9160ff6006541660058110156112725784149283611223575b60209450836111f9575b836111db575b836111bb575b50508161118f575b519015158152f35b600f547f0000000000000000000000000000000000000000000000000000000000000000119150611187565b6001600160a01b03168152601584528190205460ff16159150838061117f565b6001600160a01b0381168252601485528282205460ff169350611179565b7f000000000000000000000000000000000000000000000000000000000000000042109350611173565b925062015180420180421161125f57602094507f0000000000000000000000000000000000000000000000000000000000000000111592611169565b634e487b7160e01b825260118552602482fd5b634e487b7160e01b825260218552602482fd5b5050346105af57816003193601126105af57602090600b549051908152f35b905034610ae95781600319360112610ae9576112be6125b7565b9260ff600654169060058210156112fd57506003036112ef57506112e8602092602435903361422b565b5160018152f35b90516377d87fb560e11b8152fd5b634e487b7160e01b815260218352602490fd5b61261a565b5050346105af57816003193601126105af57516714adf4b7320334b9601d1b8152602090f35b5050346105af57816003193601126105af57600654905160089190911c6001600160a01b03168152602090f35b8284346106d857806003193601126106d85750611383613b0e565b9081156113cd576020925061139a82600a54612809565b600a5580518281527fa1e4c790cc8a017f9b597b92150a8a880324350496397bbb8fd774f571e710df843392a251908152f35b516312d37ee560e31b81529050fd5b5050346105af57816003193601126105af576020905160098152f35b5050346105af57816003193601126105af5760209061112e612b23565b5050346105af57816003193601126105af5760209060ff611434612a8d565b915191168152f35b5050346105af57816003193601126105af576020905160068152f35b5050346105af5760203660031901126105af5760209160ff9082906001600160a01b036114836125b7565b1681526014855220541690519015158152f35b5050346105af57816003193601126105af5760209051676f05b59d3b2000008152f35b8383346105af57816003193601126105af5780519180938054916001908360011c9260018516948515611593575b60209586861081146115805785895290811561155c5750600114611521575b6106d48787611517828c0383612523565b5191829182612546565b9080949750528583205b82841061154957505050826106d49461151792820101948680611506565b805486850188015292860192810161152b565b60ff19168887015250505050151560051b8301019250611517826106d48680611506565b634e487b7160e01b845260228352602484fd5b93607f16936114e7565b5050346105af57816003193601126105af576020905160508152f35b5050346105af57816003193601126105af5760209051600a8152f35b5050346105af57816003193601126105af576020906009549051908152f35b5050346105af57816003193601126105af57602090611611613a68565b90519015158152f35b5050346105af57816003193601126105af5751676765c793fa10079d601b1b8152602090f35b5050346105af57816003193601126105af576020906007549051908152f35b5050346105af5760203660031901126105af5760209181906001600160a01b036116876125b7565b168152600e845220549081159182156116a4575b50519015158152f35b431191503861169b565b5050346105af57816003193601126105af5760209051673782dace9d9000008152f35b5050346105af5760203660031901126105af57906020916116f06125b7565b9160ff60135416928361172d575b8361170d575050519015158152f35b6001600160a01b03168152601684528190205460ff161591503880610e15565b6001600160a01b0381168252601585528282205460ff1693506116fe565b5050346105af57816003193601126105af57602090600c549051908152f35b5050346105af57816003193601126105af576020905160038152f35b5050346105af5760203660031901126105af5760209061112e6117a76125b7565b612a72565b61258f565b5050346105af57816003193601126105af576020905160648152f35b905034610ae9576020366003190112610ae95735916001600160a01b03831683036106d85750610b316020926118016132d1565b613869565b5050346105af57816003193601126105af576020905160058152f35b5050346105af57816003193601126105af5760c09061183f6128e4565b9495909381519660018060a01b03168752602087015260018060701b0380931690860152166060840152608083015260a0820152f35b905081600319360112610ae95761188a6125b7565b906118936132d1565b6001600160a01b03937f000000000000000000000000000000000000000000000000000000000000000085163303611907576118cd613566565b60ff600654169060058210156112fd57506001036118f95750602092610b319160243591811690613bac565b825163baf3f0f760e01b8152fd5b508251635b2fb5b360e11b8152fd5b5050346105af57816003193601126105af57517f00000000000000000000000000000000000000000000000000000000000000006001600160a01b03168152602090f35b905034610ae9576020366003190112610ae95735916001600160a01b03831683036106d85750610b3160209261198e6132d1565b613301565b5050346105af5760203660031901126105af5760209061112e6119b46125b7565b612868565b5050346105af5760203660031901126105af5760209160ff9082906001600160a01b036119e46125b7565b1681526018855220541690519015158152f35b5050346105af57816003193601126105af576020905160078152f35b8383346105af57816003193601126105af57611a2d6132d1565b611a35613566565b60ff60135460081c16158015611b0a575b8015611af5575b611ae65760209250807f0000000000000000000000000000000000000000000000000000000000000000923381526017855220600160ff19825416179055611a97826011546126c2565b601155611aa48233613b29565b80518281527feda835ea67193b5de1fbd871950998f0537eec03a9e40592414ba19a24b4325d843392a26001600080516020614eee8339815191525551908152f35b516319e1016760e01b81529050fd5b50338252601760205260ff8183205416611a4d565b50338252601560205260ff818320541615611a46565b5050346105af57816003193601126105af5760209061112e613b0e565b5050346105af57816003193601126105af5760209061112e613ae7565b5050346105af57816003193601126105af5760209051620151808152f35b8383346105af57816003193601126105af57611b926132d1565b611b9a613a68565b15611c1157600b54918215611c015760209350600b55611bbc82600a54612809565b600a5580518281527f6a0c33aa8c816cdfa77b389739210eadb9f9a653e441ee697d9a29d61a9884a1843392a26001600080516020614eee8339815191525551908152f35b81516312d37ee560e31b81528490fd5b51638a430e9f60e01b81529050fd5b5050346105af5760203660031901126105af5760209160ff9082906001600160a01b03611c4b6125b7565b1681526015855220541690519015158152f35b5050346105af57816003193601126105af576020905161dead8152f35b5050346105af57816003193601126105af57602090611c986132d1565b610b317f00000000000000000000000000000000000000000000000000000000000000006001600160a01b0316613301565b8284346106d85760203660031901126106d857506106c66106d49235612816565b5050346105af57816003193601126105af576020905167016345785d8a00008152f35b83346106d857806003193601126106d8576108b0613566565b6125e3565b5050346105af57816003193601126105af57602090516a5889e9f3e4c6e14f4000008152f35b5050346105af57816003193601126105af57602090517f00000000000000000000000000000000000000000000000000000000000000008152f35b5050346105af5760203660031901126105af5760209181906001600160a01b03611db56125b7565b168152600e845220549051908152f35b5050346105af57816003193601126105af576020906008549051908152f35b5050346105af57816003193601126105af57602090611e016132d1565b610b317f00000000000000000000000000000000000000000000000000000000000000006001600160a01b0316613869565b5050346105af57816003193601126105af57602090517f00000000000000000000000000000000000000000000000000000000000000008152f35b5050346105af57816003193601126105af576020905160128152f35b5050346105af57816003193601126105af576020906010549051908152f35b83806003193601126106d857611ebd6132d1565b611ec5613566565b610ac733613660565b5050346105af5760203660031901126105af5760209160ff9082906001600160a01b03611ef96125b7565b1681526016855220541690519015158152f35b5050346105af57816003193601126105af5760209060ff6013541690519015158152f35b5050346105af57816003193601126105af5760209060ff60135460081c1690519015158152f35b905082346106d85760603660031901126106d857611f736125b7565b611f7b6125cd565b916044359360ff600654166005811015612090576003810361205c575b506001600160a01b03831680835260016020908152878420338552905286832054916000198310611fd2575b6020886112e889898961422b565b86831061203a57811561202357331561200c575082526001602090815286832033845281529186902090859003905582906112e887611fc4565b8751634a1406b160e11b8152908101849052602490fd5b875163e602df0560e01b8152908101849052602490fd5b9050612058868851938493637dc7a0d960e11b8552339085016145b1565b0390fd5b6002148061207e575b156120705786611f98565b85516377d87fb560e11b8152fd5b506001600160a01b0383163014612065565b634e487b7160e01b835260218252602483fd5b5050346105af57816003193601126105af576020905162ed4e008152f35b8284346106d857806003193601126106d857506120dc613407565b82519182526020820152f35b5050346105af5760203660031901126105af5760209160ff9082906001600160a01b036121136125b7565b1681526017855220541690519015158152f35b5050346105af57816003193601126105af576020906002549051908152f35b91905034610ae95782600319360112610ae9576106d4925080519161216983612508565b825263198ccc4d60e21b60208301525191829182612546565b5050346105af57816003193601126105af576020905160088152f35b905034610ae95781600319360112610ae9576121b86125b7565b602435903315612231576001600160a01b031691821561221a57508083602095338152600187528181208582528752205582519081527f8c5be1e5ebec7d5bd14f71427d1e84f3dd0314c0f7b2291e5b200ac8c7c3b925843392a35160018152f35b8351634a1406b160e11b8152908101859052602490fd5b835163e602df0560e01b8152808401869052602490fd5b905034610ae9576020366003190112610ae9578035926001600160a01b039081851685036106d857506122796132d1565b7f00000000000000000000000000000000000000000000000000000000000000001633036122ad5750610b31602092613301565b9051635b2fb5b360e11b8152fd5b5050346105af57816003193601126105af576020906011549051908152f35b91905034610ae95782600319360112610ae95780519183600354906001908260011c926001811680156123a9575b602095868610821461239657508488529081156123745750600114612339575b6106d48686611517828b0383612523565b929550600383528583205b82841061236157505050826106d494611517928201019438612328565b8054868501880152928601928101612344565b60ff191687860152505050151560051b8301019250611517826106d438612328565b634e487b7160e01b845260229052602483fd5b93607f1693612308565b91905034610ae95782600319360112610ae95780519183600554906001908260011c9260018116801561244c575b602095868610821461239657508488529081156123745750600114612411576106d48686611517828b0383612523565b929550600583528583205b82841061243957505050826106d494611517928201019438612328565b805486850188015292860192810161241c565b93607f16936123e1565b5050346105af57816003193601126105af5760209051670de0b6b3a76400008152f35b5050346105af57816003193601126105af57517f00000000000000000000000000000000000000000000000000000000000000006001600160a01b03168152602090f35b8490346105af57816003193601126105af57806706f05b59d3b2000060209252f35b6001600160401b0381116124f257604052565b634e487b7160e01b600052604160045260246000fd5b604081019081106001600160401b038211176124f257604052565b601f909101601f19168101906001600160401b038211908210176124f257604052565b6020808252825181830181905290939260005b82811061257b57505060409293506000838284010152601f8019910116010190565b818101860151848201604001528501612559565b346125b25760003660031901126125b25760206125aa612718565b604051908152f35b600080fd5b600435906001600160a01b03821682036125b257565b602435906001600160a01b03821682036125b257565b346125b25760003660031901126125b25760206125aa61278f565b346125b25760003660031901126125b257602060405160028152f35b346125b25760003660031901126125b257602060405160048152f35b6040919493926060820195825260208201520152565b346125b25760003660031901126125b257602060405160038152f35b346125b25760003660031901126125b257602060405160018152f35b346125b25760003660031901126125b257602060405160ff7f0000000000000000000000000000000000000000000000000000000000000000168152f35b919082039182116126cf57565b634e487b7160e01b600052601160045260246000fd5b818102929181159184041417156126cf57565b8115612702570490565b634e487b7160e01b600052601260045260246000fd5b60ff6006541660058110156127795760031461277357600954612710908181029181830414901517156126cf57612770907f0000000000000000000000000000000000000000000000000000000000000000906126f8565b90565b61271090565b634e487b7160e01b600052602160045260246000fd5b60ff600654166005811015612779576003146127d0576127ad6134ff565b670de0b6b3a7640000918281029281840414901517156126cf57612770916126f8565b6127d8613407565b90801561280257670de0b6b3a7640000918281029281840414901517156126cf57612770916126f8565b5050600090565b919082018092116126cf57565b60ff6006541660058110156127795760010361285c57801561285c576128569161277061285061284584613910565b919792939097613a0a565b96612809565b936126c2565b50600090600090600090565b6001600160a01b03166000908152600e6020526040902054801561289457600181018091116126cf5790565b50600090565b51906001600160701b03821682036125b257565b908160609103126125b2576128c28161289a565b9160406128d16020840161289a565b92015163ffffffff811681036125b25790565b60065460081c6001600160a01b03908116918215612a6157818316916040928351926318160ddd60e01b84526020938481600481865afa908115612a5657600091612a29575b5094805193630240bc6b60e21b8552606085600481875afa8015612a1e576000956000916129e8575b50949584600052600081528083600020549560248551809581936370a0823160e01b835260048301527f0000000000000000000000000000000000000000000000000000000000000000165afa9283156129de57506000926129b457505090565b90809250813d83116129d7575b6129cb8183612523565b810103126125b2575190565b503d6129c1565b513d6000823e3d90fd5b9050612a0d91955060603d606011612a17575b612a058183612523565b8101906128ae565b5094909438612953565b503d6129fb565b82513d6000823e3d90fd5b90508481813d8311612a4f575b612a408183612523565b810103126125b257513861292a565b503d612a36565b86513d6000823e3d90fd5b600092508291508190819081908190565b6001600160a01b031660009081526020819052604090205490565b60135460ff8116612b1d5760ff60065416600581101561277957600414612ad15760081c60ff168015612ac9575b612ac457600290565b600490565b506001612abb565b506201518042018042116126cf577f0000000000000000000000000000000000000000000000000000000000000000809110612b17574210612b1257600490565b600290565b50600190565b50600390565b60ff60065416600581101561277957600303612b3f57600b5490565b600090565b60ff60065416600581101561277957600103612b3f576127706009547f00000000000000000000000000000000000000000000000000000000000000006126c2565b93909796959260c0959260e08601998652602086015260408501526060840152608083015260a08201520152565b60ff6006541660058110156127795760010361285c57801561285c57612bef90610bed610be7612be26134ff565b919093610be183866126e5565b90612bf9826141f4565b5050612c0581846126c2565b91565b612c10613566565b60069060ff8254169160058310156127795760048093146132c357805460ff811660058110156132ae57600114612c525760405163baf3f0f760e01b81528490fd5b33159081156132a4575b811561328b575b5061327a57341561326957612c7734613910565b9391909280158015613261575b6132505760095492612c968385612809565b927f00000000000000000000000000000000000000000000000000000000000000009283612cc383613a0a565b9514613246575b8415801561323b575b61322a57612ce382600097612809565b600955612cf287600a54612809565b600a55612d0188600b54612809565b600b5542600c55612d14856007546126c2565b600755612d2285333061422b565b338652602094600e8652604098438a892055612d3e83346126c2565b908161321b575b60095499600754958c51958652898601528b8501526060840152608083015260a08201528660c08201528160e0820152600080516020614ece8339815191526101003392a282861090811591613212575b50612da6575b5050505050509050565b80549060ff82169560058710156131ff57600187036131ef5783036131df57600260ff1980931617908181558751916002600080516020614e4e83398151915298898980a36001600160a01b0392600891821c8416156131d15750612e09614d76565b815489516318160ddd60e01b815290821c8416949087818e81895afa9081156131965789916131a0575b506130d357612e4185612a72565b6130d3578951630240bc6b60e21b81526060818e81895afa9081156131965789908a92613173575b508d898d518092630dfe168160e01b8252818b5afa90811561316957908f918e8c918e9361314a575b505163d21220a760e01b8152928390818c5afa918215613140578c92613111575b50871630036130f357506001600160701b03919082166130e35716955b86116130d357815499612ef08b612ee9896009546126c2565b973061422b565b85612fe4575b8c8861dead6024888854881c16938d865195869485936335313c2160e11b85528401525af1988915612fda578a99612faa575b5050888355612f3a87600a54612809565b600a5588600955600384549260ff84169316178094556005821015612f9757600080516020614e8e8339815191529a9b9c50612f8897969594939291600391519a8a8c9ba31c16978561474d565b0390a280388080808080612d9c565b634e487b7160e01b895260218d52602489fd5b9080929950813d8311612fd3575b612fc28183612523565b810103126125b25751963880612f29565b503d612fb8565b82513d8c823e3d90fd5b847f000000000000000000000000000000000000000000000000000000000000000016803b156130ab578d8a83518092630d0e30db60e41b8252818b865af180156130c957908f916130b6575b5089906044888854881c16918d8651958694859363a9059cbb60e01b85528401528c60248401525af1908115612fda578a9161307c575b50612ef657516314da028560e11b81528c90fd5b90508881813d83116130af575b6130938183612523565b810103126130ab575180151581036130ab5738613068565b8980fd5b503d613089565b9a6130c28b929c6124df565b9a90613031565b83513d8d823e3d90fd5b8951633c1413fb60e01b81528c90fd5b8b51633c1413fb60e01b81528e90fd5b861630036130e3576001600160701b039182166130e3571695612ed0565b6131329192508b3d8d11613139575b61312a8183612523565b8101906133e8565b9038612eb3565b503d613120565b8e513d8e823e3d90fd5b613162919350823d84116131395761312a8183612523565b9138612e92565b8d513d8d823e3d90fd5b905061318e915060603d606011612a1757612a058183612523565b509038612e69565b8b513d8b823e3d90fd5b90508781813d83116131ca575b6131b78183612523565b810103126131c6575138612e33565b8880fd5b503d6131ad565b633c1413fb60e01b81528b90fd5b8651638199f5f360e01b81528990fd5b875163baf3f0f760e01b81528a90fd5b634e487b7160e01b865260218a52602486fd5b90501538612d96565b6132258233613b29565b612d45565b604051638199f5f360e01b81528a90fd5b506007548511612cd3565b6007549450612cca565b604051631f2a200560e01b81528790fd5b508115612c84565b604051631f2a200560e01b81528390fd5b604051634e46966960e11b81528390fd5b3360089190911c6001600160a01b031614905038612c63565b3330149150612c5c565b602185634e487b7160e01b6000525260246000fd5b5090506132cf33613660565b565b600080516020614eee83398151915260028154146132ef5760029055565b604051633ee5aeb560e01b8152600490fd5b906001600160a01b03337f000000000000000000000000000000000000000000000000000000000000000082161415806133bc575b6133ab578216801561339957600a54928315613387578361335b916000600a55613b29565b7f0f58cb6262d88971b87878468debb7bc81f1714be597710e16a9fb84c66ff7b56020604051858152a2565b6040516312d37ee560e31b8152600490fd5b60405163d92e233d60e01b8152600490fd5b6040516282b42960e81b8152600490fd5b50807f000000000000000000000000000000000000000000000000000000000000000016331415613336565b908160209103126125b257516001600160a01b03811681036125b25790565b60065460081c6001600160a01b03908116919082156134f657604051630240bc6b60e21b815290606082600481875afa9384156134bb576000926000956134c7575b5090602060049260405193848092630dfe168160e01b82525afa9182156134bb5760009261349a575b5016300361348a576001600160701b03908116921690565b6001600160701b03928316921690565b6134b491925060203d6020116131395761312a8183612523565b9038613472565b6040513d6000823e3d90fd5b600492919550602093506134e99060603d606011612a1757612a058183612523565b5093909395919250613449565b50600091508190565b61352c6009547f000000000000000000000000000000000000000000000000000000000000000090612809565b9061277061353f60075460085490612809565b7f000000000000000000000000000000000000000000000000000000000000000090612809565b60065460ff8116906005821015612779576004821480613636575b80613629575b61358f575050565b601054917f000000000000000000000000000000000000000000000000000000000000000083106135c5575050506132cf6145cf565b7fd06618f00e4db5bc4d25734a5aefd22c95ef99b512f746c01022645e501b62a092600160409361010061ff0019601354161760135560ff1916176006556001835192600080516020614e4e833981519152600080a3600f549082526020820152a1565b5060ff6013541615613587565b507f0000000000000000000000000000000000000000000000000000000000000000421015613581565b9060ff6006541691600583101561277957600480930361383257620151804201804211613854577f000000000000000000000000000000000000000000000000000000000000000080911061384357421015613832576001600160a01b03166000818152601460205260408082205490919060ff1615613822577f0000000000000000000000000000000000000000000000000000000000000000340361381257828152601560205260ff828220541661380257600f547f000000000000000000000000000000000000000000000000000000000000000011156137f2578281526015602052818120600160ff19825416179055600f549060018201809211610a5357506137bf93945090817f2937d4b8ffdeea00fe58bc57f57d3010576fc9b39a784691fcc8054e15c60a4392600f5561379d34601054612809565b948592836010556137b034601154612809565b60115551928392349084612636565b0390a27f0000000000000000000000000000000000000000000000000000000000000000146137ea57565b6132cf6145cf565b8151635c766e7560e01b81528590fd5b815163887daea160e01b81528590fd5b8151636ece8a1b60e01b81528590fd5b815163033bb9db60e21b81528590fd5b6040516302664e7160e11b81528390fd5b6040516302664e7160e11b81528490fd5b601184634e487b7160e01b6000525260246000fd5b906001600160a01b037f0000000000000000000000000000000000000000000000000000000000000000811633036133ab5760ff600654166005811015612779576003036138fe578216801561339957600b5492831561338757836138d2916000600b55613b29565b7fd046302bdc39599e60a5981e59227dcd1c643f512f56f2e984390c3ac6eadedb6020604051858152a2565b60405163baf3f0f760e01b8152600490fd5b9061393d6009547f00000000000000000000000000000000000000000000000000000000000000006126c2565b9182156139f857613958613950826141f4565b5050826126c2565b92808411613974575091905b61396d836141f4565b9091509091565b925050613993613983836147e4565b6126ac6127108509151590612809565b91825b6139b6575b506139b06139a8836141f4565b5050836126c2565b90613964565b91826139c46139a8836141f4565b11156139f25760001981019081116139dd579182613996565b60246000634e487b7160e01b81526011600452fd5b9161399b565b60405163c83ba27d60e01b8152600490fd5b613a1681600954612809565b7f000000000000000000000000000000000000000000000000000000000000000014613a6157613a5b610bed61277092613a4e6134ff565b939091610be185846126e5565b906126f8565b5060075490565b60ff6006541660058110156127795760011480613adc575b80613aa5575b80613a8e5790565b50600c5462278d0081018091116126cf5742101590565b507f000000000000000000000000000000000000000000000000000000000000000062ed4e0081018091116126cf57421015613a86565b50600b541515613a80565b612770613b05613afc600954600a5490612809565b600b5490612809565b60115490612809565b613b16613ae7565b47908082111561280257612770916126c2565b814710613b8d57604051602081016001600160401b038111828210176124f257604052600080809481948280955260018060a01b03165af115613b695750565b3d15613b7b57604051903d90823e3d90fd5b60405163d6bda27560e01b8152600490fd5b60405163cf47918160e01b815247600482015260248101839052604490fd5b6001600160a01b0380821694939092600091861580156141b9575b80156141a9575b61419757341561417d57613be134613910565b9792999091968a15801561418f575b61417d57600954613c018982612809565b9b7f00000000000000000000000000000000000000000000000000000000000000009687613c2e8c613a0a565b9e14614173575b8d158015614168575b614156578d1061415657613ca38d600080516020614ece83398151915294613c878e613c6d8f61010098612809565b600955613c7c8a600a54612809565b600a55600b54612809565b600b5542600c55613c9a826007546126c2565b6007553061422b565b838952602097600e895260409b8c9643888d2055613cc184346126c2565b928380614146575b50506009549c60075498519485528b8501528d840152606083015260808201528c60a08201528960c08201528460e0820152a28286109081159161413d575b50613d16575b505050505050565b60069081549160ff8316966005881015614129576001880361411857840361410757600260ff198094161780825588516002600080516020614e4e833981519152998a8a80a383600892831c16156140f85750613d71614d76565b828254821c16938951996318160ddd60e01b8b5260049a88818d818a5afa908115612fda578a916140cb575b5061402557613dab86612a72565b614025578051630240bc6b60e21b81526060818d818a5afa908115612fda578a908b926140a8575b508251630dfe168160e01b81528a818f818c5afa90811561401b57908e918d9161408b575b508b8551809363d21220a760e01b8252818d5afa918215614081578d92614062575b508816300361404457506001600160701b03919082166140345716965b87116140255782549a613e578c613e508a6009546126c2565b983061422b565b86613f3d575b8989878754871c1660248551809481936335313c2160e11b835261dead888401525af1998a156130c9578b9a613f0d575b5050898455613e9f88600a54612809565b600a5589600955600385549360ff85169416178095556005831015613efa5750916003600080516020614e8e8339815191529a9998969492613eec989694519a8a8c9ba31c16978561474d565b0390a2388080808080613d0e565b634e487b7160e01b8a5260219052602489fd5b9080929a50813d8311613f36575b613f258183612523565b810103126125b25751973880613e8e565b503d613f1b565b857f000000000000000000000000000000000000000000000000000000000000000016803b15613fff578251630d0e30db60e41b81528b8184818c865af1801561401b5761400a575b50898b916044898954891c168651948593849263a9059cbb60e01b8452888401528d60248401525af19081156130c9578b91613fd0575b50613e5d5790516314da028560e11b8152fd5b90508981813d8311614003575b613fe78183612523565b81010312613fff57518015158103613fff5738613fbd565b8a80fd5b503d613fdd565b9a6140158b9c6124df565b9a613f86565b84513d8e823e3d90fd5b51633c1413fb60e01b81528a90fd5b8251633c1413fb60e01b81528d90fd5b87163003614034576001600160701b03918216614034571696613e37565b61407a9192508c8d3d106131395761312a8183612523565b9038613e1a565b85513d8f823e3d90fd5b6140a291508c8d3d106131395761312a8183612523565b38613df8565b90506140c3915060603d606011612a1757612a058183612523565b509038613dd3565b90508881813d83116140f1575b6140e28183612523565b810103126130ab575138613d9d565b503d6140d8565b633c1413fb60e01b8152600490fd5b8751638199f5f360e01b8152600490fd5b885163baf3f0f760e01b8152600490fd5b634e487b7160e01b87526021600452602487fd5b90501538613d08565b61414f91613b29565b3883613cc9565b604051638199f5f360e01b8152600490fd5b508d60075410613c3e565b6007549d50613c35565b604051631f2a200560e01b8152600490fd5b508715613bf0565b604051634e46966960e11b8152600490fd5b508460065460081c168714613bce565b50308714613bc7565b9080156141e1576141d960019160001984016126f8565b019015150290565b634e487b7160005260126020526024601cfd5b801561285c5780612710606461420c6142169461484e565b9209151590612809565b9061422082614769565b9061277082846126c2565b91906001600160a01b03808416156142665781161561424d576132cf926148b7565b60405163ec442f0560e01b815260006004820152602490fd5b604051634b637e8f60e11b815260006004820152602490fd5b3d156142b9573d906001600160401b0382116124f257604051916142ad601f8201601f191660200184612523565b82523d6000602084013e565b606090565b6001600160a01b039081167f000000000000000000000000000000000000000000000000000000000000000082168114614392577f0000000000000000000000000000000000000000000000000000000000000000803b1561438a57600080916040516020810190638da5cb5b60e01b82526004815261433d81612508565b51915afa9161434a61427f565b8361437c575b8361435c575b50505090565b61437291929350602080825183010191016133e8565b1614388080614356565b925060208351101592614350565b505050600090565b5050600190565b6001600160a01b0390808216801590811561452a575b508015614521575b6128025760405160209283820191630dfe168160e01b8352600481526143dc81612508565b6000809381925190865afa6143ef61427f565b83806040518881019063d21220a760e01b82526004815261440f81612508565b5190885afa848061441e61427f565b976040518a81019063c45a015560e01b82526004815261443d81612508565b51915afa61444961427f565b9315918215614515575b821561450c575b508115614500575b81156144f7575b5080156144ed575b6144e45790826144a081614490858a806144af985183010191016133e8565b16968880825183010191016133e8565b169580825183010191016133e8565b1680159081156144da575b506144d4575030149081156144cd575090565b9050301490565b91505090565b90503b15386144ba565b50505091505090565b5085825110614471565b90501538614469565b90508686511090614462565b1591503861445a565b91508783511091614453565b50803b156143b7565b90503014386143af565b6001600160a01b0390811660008181526018602052604090208054919390929015159060ff8316151582146145aa577ff1d8d554547fde8a73173802e84a46a02e1c0211606173662897eae8bd39d0429360409360ff84169060ff191617905560065460081c16841482519182526020820152a2565b5050505050565b604091949392606082019560018060a01b0316825260208201520152565b60135460ff81166138fe57601054907f000000000000000000000000000000000000000000000000000000000000000082036138fe5761461d90614612836141f4565b9491829491946126c2565b9081156141565761462d82613a0a565b61466261465b7f000000000000000000000000000000000000000000000000000000000000000080936126f8565b91826126e5565b9181158015614745575b801561473a575b61415657600160ff19809616176013558160125582600d55600060115561469c84600954612809565b6009556146ab86600a54612809565b600a556146ba87600b54612809565b600b556146c9836007546126c2565b60075542600c5560016006549560ff87169616176006556005851015612779577f8020fdb0592775b626a997485c415e05a790703d920667e59222a260f0c3903a9660019661473595604051988998600080516020614e4e833981519152600080a3600f549388612b86565b0390a1565b506007548311614673565b50821561466c565b9094939260609260808301968352602083015260408201520152565b600019601e8209601e8202908180821091039080820391146147db5780606411156147c8576064601e7f5c28f5c28f5c28f5c28f5c28f5c28f5c28f5c28f5c28f5c28f5c28f5c28f5c29940990828211900360fe1b910360021c170290565b634e487b7160005260116020526024601cfd5b50606491500490565b61271060001981830981830291828083109203918083039214614843576126ac90828211156147c8577fa902ffe58553adaa902ffe58553adaa902ffe58553adaa902ffe58553adaa903940990828211900360fe1b910360021c170290565b50506126ac91500490565b6000196064820960648202908180821091039080820391146148ad57612710818111156147c85760647fbc01a36e2eb1c432ca57a786c226809d495182a9930be0ded288ce703afb7e91940990828211900360fc1b910360041c170290565b5061271091500490565b91906148c4828285614b77565b6148d2575b6132cf92614be6565b61ffff612710806149057f00000000000000000000000000000000000000000000000000000000000000008416866126e5565b049182614914575050506148c9565b614943909392937f000000000000000000000000000000000000000000000000000000000000000016846126e5565b0461494e81846126c2565b9061496361495c85876126c2565b8488614be6565b806149d7575b816149a291600080516020614e6e8339815191529594936149a7575b6040516001600160a01b039485169890941696939485948561474d565b0390a3565b6149d2827f00000000000000000000000000000000000000000000000000000000000000008a614be6565b614985565b60ff6006541660058110158061277957600182148015614b6a575b15614b255750506001600160a01b0386168015908115614b1c575b3014908115614b10575b159081614b07575b50614af5575b6001600160a01b03861680614a96579181600080516020614e6e833981519152959493614a576149a294600254612809565b6002555b61dead908160005260006020526040600020838154019055600080516020614eae8339815191526020604051858152a3915091929350614969565b6000818152806020526040812054838110614ad7579181604085600080516020614e6e83398151915299989795846149a29896528360205203912055614a5b565b886120588560405193849363391434e360e21b8552600485016145b1565b6040516377d87fb560e11b8152600490fd5b90501538614a1f565b61dead30149150614a17565b60009150614a0d565b6127795760028103614b485750306001600160a01b038716036138fe575b614a25565b600303614a25573061dead03614b4357604051634e46966960e11b8152600490fd5b50506000600482146149f2565b9091156128025760ff60065416600581101561277957600303612802576001600160a01b0390811680158015614bdc575b61438a57600052601860205260ff60406000205416918215614bc957505090565b9091501660005260ff6040600020541690565b5081831615614ba8565b9060ff6006541660058110158061277957600182148015614d69575b15614d1d57506001600160a01b0390508281168015908115614d12575b3014918215614d06575b50159081614cfd575b50614af5575b6001600160a01b038281169290919083614ca15750600080516020614eae83398151915291602091614c6c86600254612809565b6002555b169384614c895780600254036002555b604051908152a3565b84600052600082526040600020818154019055614c80565b60009084825281602052604082205490868210614ce05750918160408760209588600080516020614eae83398151915298965283875203912055614c70565b6120588760405193849363391434e360e21b8552600485016145b1565b90501538614c32565b83163014915038614c29565b838316159150614c1f565b6127795760028103614d405750306001600160a01b038316036138fe575b614c38565b600303614c3857306001600160a01b03821603614d3b57604051634e46966960e11b8152600490fd5b5050600060048214614c02565b60065460081c6001600160a01b03908116908115614e17576040516318160ddd60e01b8152602081600481865afa9081156134bb57600091614e1b575b50614e1757813b156125b25760009160248392604051948593849263bc25cf7760e01b84527f00000000000000000000000000000000000000000000000000000000000000001660048401525af180156134bb57614e0e5750565b6132cf906124df565b5050565b90506020813d602011614e45575b81614e3660209383612523565b810103126125b2575138614db3565b3d9150614e2956fe3a779de46631dd65116ae538600f1bc3c338200c6aef638429b5de43301c28f7e7394f16cc22ae35fb752bb4c8624944eb198544034ab0a3590d0e139bf9267871aa8c3702dbbc54247a4e6446450e64a46250dd72707a247ddb01d72eaef445ddf252ad1be2c89b69c2b068fc378daa952ba7f163c4a11628f55a4df523b3ef6ff5f8cb3bbdee941e910591101be7dcb3bd64213bbc4ac9e994c9d7b0ef74cd9b779b17422d0df92223018b32b4d1fa46e071723d6817e2486d003becc55f00a2646970667358221220f3abb7fecf0ac453c247a00f29f743e5ae7ffcafa379cbe3a8f4953fa3c75cf264736f6c63430008180033e7394f16cc22ae35fb752bb4c8624944eb198544034ab0a3590d0e139bf92678ddf252ad1be2c89b69c2b068fc378daa952ba7f163c4a11628f55a4df523b3ef",
  "linkReferences": {},
  "deployedLinkReferences": {}
}