{
  "_format": "hh-sol-artifact-1",
  "contractName": "LaunchFactory",
  "sourceName": "contracts/LaunchFactory.sol",
  "abi": [
    {
      "inputs": [
        {
          "internalType": "address",
          "name": "owner_",
          "type": "address"
        },
        {
          "internalType": "address",
          "name": "router_",
          "type": "address"
        },
        {
          "internalType": "address",
          "name": "protocolFeeRecipient_",
          "type": "address"
        },
        {
          "internalType": "address",
          "name": "standardDeployer_",
          "type": "address"
        },
        {
          "internalType": "address",
          "name": "whitelistDeployer_",
          "type": "address"
        },
        {
          "internalType": "uint256",
          "name": "standardCreateFee_",
          "type": "uint256"
        },
        {
          "internalType": "uint256",
          "name": "whitelistCreateFee_",
          "type": "uint256"
        },
        {
          "internalType": "uint256",
          "name": "graduationQuoteReserve_",
          "type": "uint256"
        }
      ],
      "stateMutability": "nonpayable",
      "type": "constructor"
    },
    {
      "inputs": [],
      "name": "FailedCall",
      "type": "error"
    },
    {
      "inputs": [
        {
          "internalType": "uint256",
          "name": "balance",
          "type": "uint256"
        },
        {
          "internalType": "uint256",
          "name": "needed",
          "type": "uint256"
        }
      ],
      "name": "InsufficientBalance",
      "type": "error"
    },
    {
      "inputs": [],
      "name": "InsufficientCreateFee",
      "type": "error"
    },
    {
      "inputs": [],
      "name": "InvalidGraduationConfig",
      "type": "error"
    },
    {
      "inputs": [],
      "name": "NothingToClaim",
      "type": "error"
    },
    {
      "inputs": [
        {
          "internalType": "address",
          "name": "owner",
          "type": "address"
        }
      ],
      "name": "OwnableInvalidOwner",
      "type": "error"
    },
    {
      "inputs": [
        {
          "internalType": "address",
          "name": "account",
          "type": "address"
        }
      ],
      "name": "OwnableUnauthorizedAccount",
      "type": "error"
    },
    {
      "inputs": [],
      "name": "PendingProtocolCreateFees",
      "type": "error"
    },
    {
      "inputs": [],
      "name": "Unauthorized",
      "type": "error"
    },
    {
      "inputs": [],
      "name": "ZeroAddress",
      "type": "error"
    },
    {
      "anonymous": false,
      "inputs": [
        {
          "indexed": true,
          "internalType": "address",
          "name": "creator",
          "type": "address"
        },
        {
          "indexed": true,
          "internalType": "address",
          "name": "token",
          "type": "address"
        },
        {
          "indexed": true,
          "internalType": "uint8",
          "name": "mode",
          "type": "uint8"
        },
        {
          "indexed": false,
          "internalType": "string",
          "name": "name",
          "type": "string"
        },
        {
          "indexed": false,
          "internalType": "string",
          "name": "symbol",
          "type": "string"
        },
        {
          "indexed": false,
          "internalType": "string",
          "name": "metadataURI",
          "type": "string"
        }
      ],
      "name": "LaunchCreated",
      "type": "event"
    },
    {
      "anonymous": false,
      "inputs": [
        {
          "indexed": true,
          "internalType": "address",
          "name": "previousOwner",
          "type": "address"
        },
        {
          "indexed": true,
          "internalType": "address",
          "name": "newOwner",
          "type": "address"
        }
      ],
      "name": "OwnershipTransferred",
      "type": "event"
    },
    {
      "anonymous": false,
      "inputs": [
        {
          "indexed": true,
          "internalType": "address",
          "name": "recipient",
          "type": "address"
        },
        {
          "indexed": false,
          "internalType": "uint256",
          "name": "amount",
          "type": "uint256"
        }
      ],
      "name": "ProtocolCreateFeesClaimed",
      "type": "event"
    },
    {
      "anonymous": false,
      "inputs": [
        {
          "indexed": true,
          "internalType": "address",
          "name": "previousRecipient",
          "type": "address"
        },
        {
          "indexed": true,
          "internalType": "address",
          "name": "newRecipient",
          "type": "address"
        }
      ],
      "name": "ProtocolFeeRecipientUpdated",
      "type": "event"
    },
    {
      "inputs": [],
      "name": "DEFAULT_PROTOCOL_FEE_RECIPIENT",
      "outputs": [
        {
          "internalType": "address",
          "name": "",
          "type": "address"
        }
      ],
      "stateMutability": "view",
      "type": "function"
    },
    {
      "inputs": [],
      "name": "accruedProtocolCreateFees",
      "outputs": [
        {
          "internalType": "uint256",
          "name": "",
          "type": "uint256"
        }
      ],
      "stateMutability": "view",
      "type": "function"
    },
    {
      "inputs": [
        {
          "internalType": "uint256",
          "name": "",
          "type": "uint256"
        }
      ],
      "name": "allLaunches",
      "outputs": [
        {
          "internalType": "address",
          "name": "",
          "type": "address"
        }
      ],
      "stateMutability": "view",
      "type": "function"
    },
    {
      "inputs": [],
      "name": "claimProtocolCreateFees",
      "outputs": [
        {
          "internalType": "uint256",
          "name": "amount",
          "type": "uint256"
        }
      ],
      "stateMutability": "nonpayable",
      "type": "function"
    },
    {
      "inputs": [
        {
          "internalType": "address payable",
          "name": "recipient",
          "type": "address"
        }
      ],
      "name": "claimProtocolCreateFeesTo",
      "outputs": [
        {
          "internalType": "uint256",
          "name": "amount",
          "type": "uint256"
        }
      ],
      "stateMutability": "nonpayable",
      "type": "function"
    },
    {
      "inputs": [],
      "name": "createFee",
      "outputs": [
        {
          "internalType": "uint256",
          "name": "",
          "type": "uint256"
        }
      ],
      "stateMutability": "view",
      "type": "function"
    },
    {
      "inputs": [
        {
          "internalType": "enum LaunchFactory.LaunchMode",
          "name": "mode",
          "type": "uint8"
        }
      ],
      "name": "createFeeForMode",
      "outputs": [
        {
          "internalType": "uint256",
          "name": "",
          "type": "uint256"
        }
      ],
      "stateMutability": "view",
      "type": "function"
    },
    {
      "inputs": [
        {
          "internalType": "string",
          "name": "name_",
          "type": "string"
        },
        {
          "internalType": "string",
          "name": "symbol_",
          "type": "string"
        },
        {
          "internalType": "string",
          "name": "metadataURI_",
          "type": "string"
        }
      ],
      "name": "createLaunch",
      "outputs": [
        {
          "internalType": "address",
          "name": "token",
          "type": "address"
        }
      ],
      "stateMutability": "payable",
      "type": "function"
    },
    {
      "inputs": [
        {
          "internalType": "string",
          "name": "name_",
          "type": "string"
        },
        {
          "internalType": "string",
          "name": "symbol_",
          "type": "string"
        },
        {
          "internalType": "string",
          "name": "metadataURI_",
          "type": "string"
        },
        {
          "internalType": "bytes32",
          "name": "salt",
          "type": "bytes32"
        }
      ],
      "name": "createLaunchWithSalt",
      "outputs": [
        {
          "internalType": "address",
          "name": "token",
          "type": "address"
        }
      ],
      "stateMutability": "payable",
      "type": "function"
    },
    {
      "inputs": [
        {
          "internalType": "string",
          "name": "name_",
          "type": "string"
        },
        {
          "internalType": "string",
          "name": "symbol_",
          "type": "string"
        },
        {
          "internalType": "string",
          "name": "metadataURI_",
          "type": "string"
        },
        {
          "internalType": "uint256",
          "name": "whitelistThreshold",
          "type": "uint256"
        },
        {
          "internalType": "uint256",
          "name": "whitelistSlotSize",
          "type": "uint256"
        },
        {
          "internalType": "address[]",
          "name": "whitelistAddresses",
          "type": "address[]"
        }
      ],
      "name": "createWhitelistLaunch",
      "outputs": [
        {
          "internalType": "address",
          "name": "token",
          "type": "address"
        }
      ],
      "stateMutability": "payable",
      "type": "function"
    },
    {
      "inputs": [
        {
          "internalType": "string",
          "name": "name_",
          "type": "string"
        },
        {
          "internalType": "string",
          "name": "symbol_",
          "type": "string"
        },
        {
          "internalType": "string",
          "name": "metadataURI_",
          "type": "string"
        },
        {
          "internalType": "uint256",
          "name": "whitelistThreshold",
          "type": "uint256"
        },
        {
          "internalType": "uint256",
          "name": "whitelistSlotSize",
          "type": "uint256"
        },
        {
          "internalType": "address[]",
          "name": "whitelistAddresses",
          "type": "address[]"
        },
        {
          "internalType": "bytes32",
          "name": "salt",
          "type": "bytes32"
        }
      ],
      "name": "createWhitelistLaunchWithSalt",
      "outputs": [
        {
          "internalType": "address",
          "name": "token",
          "type": "address"
        }
      ],
      "stateMutability": "payable",
      "type": "function"
    },
    {
      "inputs": [],
      "name": "graduationQuoteReserve",
      "outputs": [
        {
          "internalType": "uint256",
          "name": "",
          "type": "uint256"
        }
      ],
      "stateMutability": "view",
      "type": "function"
    },
    {
      "inputs": [
        {
          "internalType": "address",
          "name": "",
          "type": "address"
        },
        {
          "internalType": "uint256",
          "name": "",
          "type": "uint256"
        }
      ],
      "name": "launchesByCreator",
      "outputs": [
        {
          "internalType": "address",
          "name": "",
          "type": "address"
        }
      ],
      "stateMutability": "view",
      "type": "function"
    },
    {
      "inputs": [
        {
          "internalType": "address",
          "name": "creator_",
          "type": "address"
        }
      ],
      "name": "launchesOf",
      "outputs": [
        {
          "internalType": "address[]",
          "name": "",
          "type": "address[]"
        }
      ],
      "stateMutability": "view",
      "type": "function"
    },
    {
      "inputs": [
        {
          "internalType": "address",
          "name": "",
          "type": "address"
        }
      ],
      "name": "modeOf",
      "outputs": [
        {
          "internalType": "enum LaunchFactory.LaunchMode",
          "name": "",
          "type": "uint8"
        }
      ],
      "stateMutability": "view",
      "type": "function"
    },
    {
      "inputs": [],
      "name": "owner",
      "outputs": [
        {
          "internalType": "address",
          "name": "",
          "type": "address"
        }
      ],
      "stateMutability": "view",
      "type": "function"
    },
    {
      "inputs": [],
      "name": "protocolFeeRecipient",
      "outputs": [
        {
          "internalType": "address",
          "name": "",
          "type": "address"
        }
      ],
      "stateMutability": "view",
      "type": "function"
    },
    {
      "inputs": [],
      "name": "renounceOwnership",
      "outputs": [],
      "stateMutability": "nonpayable",
      "type": "function"
    },
    {
      "inputs": [],
      "name": "router",
      "outputs": [
        {
          "internalType": "address",
          "name": "",
          "type": "address"
        }
      ],
      "stateMutability": "view",
      "type": "function"
    },
    {
      "inputs": [
        {
          "internalType": "address",
          "name": "newRecipient",
          "type": "address"
        }
      ],
      "name": "setProtocolFeeRecipient",
      "outputs": [],
      "stateMutability": "nonpayable",
      "type": "function"
    },
    {
      "inputs": [],
      "name": "standardCreateFee",
      "outputs": [
        {
          "internalType": "uint256",
          "name": "",
          "type": "uint256"
        }
      ],
      "stateMutability": "view",
      "type": "function"
    },
    {
      "inputs": [],
      "name": "standardDeployer",
      "outputs": [
        {
          "internalType": "address",
          "name": "",
          "type": "address"
        }
      ],
      "stateMutability": "view",
      "type": "function"
    },
    {
      "inputs": [],
      "name": "totalLaunches",
      "outputs": [
        {
          "internalType": "uint256",
          "name": "",
          "type": "uint256"
        }
      ],
      "stateMutability": "view",
      "type": "function"
    },
    {
      "inputs": [
        {
          "internalType": "address",
          "name": "newOwner",
          "type": "address"
        }
      ],
      "name": "transferOwnership",
      "outputs": [],
      "stateMutability": "nonpayable",
      "type": "function"
    },
    {
      "inputs": [],
      "name": "whitelistCreateFee",
      "outputs": [
        {
          "internalType": "uint256",
          "name": "",
          "type": "uint256"
        }
      ],
      "stateMutability": "view",
      "type": "function"
    },
    {
      "inputs": [],
      "name": "whitelistDeployer",
      "outputs": [
        {
          "internalType": "address",
          "name": "",
          "type": "address"
        }
      ],
      "stateMutability": "view",
      "type": "function"
    }
  ],
  "bytecode": "0x610140346200022757620017fc601f38829003908101601f19168301906001600160401b038211848310176200022c5780849360409384528439610100938491810103126200022757620000538262000242565b620000616020840162000242565b6200006e83850162000242565b906200007d6060860162000242565b926200008c6080870162000242565b9260a08701519360e060c08901519801519560018060a01b038094169485156200020f5760005460018060a01b0319968088831617600055868b5192167f8be0079c531659141344cd1fd0a4f28419497f9722a3daafe3b4186f6b6457e0600080a385821615801562000204575b8015620001f9575b620001ea57508715620001d95760805260a05260c052808216620001d3575073c4187be6b362df625696d4a9ec5e6fa461cc03145b16906001541617600155845261012092835260e05251906115a4928362000258843960805183818161018c01528181610cb40152611118015260a05183818161044b015261122e015260c0518381816107260152610e66015260e0518381816106ee01528181610ce3015261113f015251828181610a6201528181610b30015261108001525181818161033e01528181610b0b0152610c1e0152f35b62000137565b8851630d956e1760e21b8152600490fd5b63d92e233d60e01b8152600490fd5b508584161562000102565b5085831615620000fa565b8851631e4fbdf760e01b815260006004820152602490fd5b600080fd5b634e487b7160e01b600052604160045260246000fd5b51906001600160a01b0382168203620002275756fe60c0604081815260048036101561001557600080fd5b600092833560e01c908163055ce18e146108c3575080630a002713146108985780630e883f8b1461087957806311344cac146107af5780631366899514610755578063151629c61461043157806337eb7e011461071157806339931527146106d657806341d6e9d31461068d5780634ad82e661461063257806364df049e146106095780636b1b953614610593578063715018a61461054b5780637b900023146104a25780638da5cb5b1461047a5780639b57f42814610436578063b2db919b14610431578063c767a59514610412578063d56604e614610361578063df407c4c14610326578063e521cb9214610292578063e5d7abad14610263578063ef1b720314610233578063f2fde38b146101bf578063f887ea40146101775763faf7e3bd1461014157600080fd5b3461017357602036600319011261017357359160038310156101705750610169602092610aec565b9051908152f35b80fd5b8280fd5b5050346101bb57816003193601126101bb57517f00000000000000000000000000000000000000000000000000000000000000006001600160a01b03168152602090f35b5080fd5b5034610173576020366003190112610173576101d9610a34565b906101e2611347565b6001600160a01b0391821692831561021d57505082546001600160a01b03198116831784551660008051602061154f8339815191528380a380f35b51631e4fbdf760e01b8152908101849052602490fd5b50346101735760203660031901126101735735916001600160a01b03831683036101705750610169602092610fda565b5050346101bb57816003193601126101bb576020905173c4187be6b362df625696d4a9ec5e6fa461cc03148152f35b5034610173576020366003190112610173576102ac610a34565b906102b5611347565b6001600160a01b039182169283156103195760025461030c575050816001549182167fd3890fc76afcfc31cba1dcf2c27b50e2541e4d75039c981855b5b5e03682aea08580a36001600160a01b0319161760015580f35b51631f462ad960e11b8152fd5b5163d92e233d60e01b8152fd5b5050346101bb57816003193601126101bb57602090517f00000000000000000000000000000000000000000000000000000000000000008152f35b509160e0366003190112610170576001600160401b0383358181116101735761038d90369086016109d2565b9060243583811161040e576103a590369088016109d2565b93909660443582811161040a576103bf90369083016109d2565b92909660a4359182116101705750916103e56020999694926103f9989694369101610a04565b95909460c435976084359560643595610c0d565b90516001600160a01b039091168152f35b8680fd5b8480fd5b5050346101bb57816003193601126101bb576020906002549051908152f35b610a4a565b5050346101bb57816003193601126101bb57517f00000000000000000000000000000000000000000000000000000000000000006001600160a01b03168152602090f35b5050346101bb57816003193601126101bb57905490516001600160a01b039091168152602090f35b5091346101705760209081600319360112610170576001600160a01b0393846104c9610a34565b168252825282812091835190818185549182815201908195855282852090855b81811061053557505050826104ff910383610ab3565b8451948186019282875251809352850193925b82811061051f5785850386f35b8351871685529381019392810192600101610512565b82548a16845292840192600192830192016104e9565b8334610170578060031936011261017057610564611347565b80546001600160a01b03198116825581906001600160a01b031660008051602061154f8339815191528280a380f35b50916080366003190112610170576001600160401b038335818111610173576105bf90369086016109d2565b91909460243582811161040e576105d990369083016109d2565b9290946044359182116101705750916105fd60209794926103f996943691016109d2565b93909260643595611073565b5050346101bb57816003193601126101bb5760015490516001600160a01b039091168152602090f35b50913461017057816003193601126101705761064c610a34565b6001600160a01b0390811682526020939093528181208054602435949290851015610170575060209361067e91610a85565b92905490519260031b1c168152f35b5034610173576020366003190112610173573560035481101561017357600390925260008051602061150f8339815191529091015490516001600160a01b039091168152602090f35b5050346101bb57816003193601126101bb57602090517f00000000000000000000000000000000000000000000000000000000000000008152f35b5050346101bb57816003193601126101bb57517f00000000000000000000000000000000000000000000000000000000000000006001600160a01b03168152602090f35b509190346101bb5760203660031901126101bb576001600160a01b03610779610a34565b168252600560205260ff8183205416905191600382101561079c57602083838152f35b634e487b7160e01b815260218452602490fd5b50916060366003190112610170576001600160401b038335818111610173576107db90369086016109d2565b602493919335838111610173576107f590369088016109d2565b9160443585811161040e5761080d9036908a016109d2565b95909433815289602052888120549189519160208301933385528b840152466060840152600160808401526080835260a0830191838310908311176108665760208b6103f98c8c8c8c8c8c8c8c8c8a5251902095611073565b634e487b7160e01b815260418c52602490fd5b5050346101bb57816003193601126101bb576020906003549051908152f35b5050346101bb57816003193601126101bb5760015460209190610169906001600160a01b0316610fda565b8493915060c03660031901126109ce576001600160401b039383358581116101bb576108f290369086016109d2565b6024939193358781116109ce5761090c90369088016109d2565b906044358981116109ca576109249036908a016109d2565b929091606435946084359660a4358d81116109c657908c9d61094e8d9e9b9c9d9336908d01610a04565b9c909b338252602052838120546020840194338652840152466060840152600260808401528960a08401528a60c084015260c0835260e0830191838310908311176109b25750916103f99b99979593918e9d9b9997959360209f5251902099610c0d565b8f906041602492634e487b7160e01b835252fd5b8980fd5b8580fd5b8380fd5b9181601f840112156109ff578235916001600160401b0383116109ff57602083818601950101116109ff57565b600080fd5b9181601f840112156109ff578235916001600160401b0383116109ff576020808501948460051b0101116109ff57565b600435906001600160a01b03821682036109ff57565b346109ff5760003660031901126109ff5760206040517f00000000000000000000000000000000000000000000000000000000000000008152f35b8054821015610a9d5760005260206000200190600090565b634e487b7160e01b600052603260045260246000fd5b601f909101601f19168101906001600160401b03821190821017610ad657604052565b634e487b7160e01b600052604160045260246000fd5b6003811015610b525760018114610b2d57600214610b0957600090565b7f000000000000000000000000000000000000000000000000000000000000000090565b507f000000000000000000000000000000000000000000000000000000000000000090565b634e487b7160e01b600052602160045260246000fd5b9192916001600160401b038211610ad65760405191610b91601f8201601f191660200184610ab3565b8294818452818301116109ff578281602093846000960137010152565b908160209103126109ff57516001600160a01b03811681036109ff5790565b919082519283825260005b848110610bf9575050826000602080949584010152601f8019910116010190565b602081830181015184830182015201610bd8565b95999297909493969a98919a610c427f0000000000000000000000000000000000000000000000000000000000000000611373565b6001546040519b906001600160a01b03166101808d016001600160401b0381118e821017610ad65760208f8f92908e610c848e8e610c8d956040523691610b68565b85523691610b68565b9101528c6040610c9e368a8e610b68565b9101523360608e01523060808e015260a08d01527f00000000000000000000000000000000000000000000000000000000000000006001600160a01b031660c08d01527f000000000000000000000000000000000000000000000000000000000000000060e08d01526101008c01526101208b01526001600160401b038211610ad6578160051b9060405192610d376020840185610ab3565b8352602083019136818301116109ff5781925b8183018410610fba57505050506101408901526101608801526040519663129ee04960e11b88526020600489015287610dc3610dad610d97845161018060248601526101a4850190610bcd565b6020850151848203602319016044860152610bcd565b6040840151838203602319016064850152610bcd565b60608301516001600160a01b0390811660848401526080840151811660a484015260a0840151811660c484015260c08401511660e483015260e08301516101048301526101008301516101248301526101208301516101448301526101408301518282036023190161016484015280518083526020928301929091019060005b818110610f985750505061016092909201516101848201526020918190038160007f00000000000000000000000000000000000000000000000000000000000000006001600160a01b03165af1968715610f8c57600097610f3a575b5090610f3560008051602061152f8339815191529392610f25899a6002999a9b610ec8816113dd565b336000526004602052610edf81604060002061142f565b60018060a01b03169889600052600560205260406000208b60ff19825416179055610f1760405197889760608952606089019161146a565b91868303602088015261146a565b908382036040850152339661146a565b0390a4565b600296975060008051602061152f833981519152939291610f25610f78610f359360203d602011610f85575b610f708183610ab3565b810190610bae565b9998505091929350610e9f565b503d610f66565b6040513d6000823e3d90fd5b82516001600160a01b031684528c945060209384019390920191600101610e43565b83356001600160a01b03811681036109ff57815260209384019301610d4a565b6001549091906001600160a01b03908116330361106257821680156110505760025492831561103e578361101291600060025561148b565b7fe520b2225629f84907c5bd92fb58063336ec178dcdc13d436213de8a6b2b22156020604051858152a2565b6040516312d37ee560e31b8152600490fd5b60405163d92e233d60e01b8152600490fd5b6040516282b42960e81b8152600490fd5b91969492936080526110a47f0000000000000000000000000000000000000000000000000000000000000000611373565b60015460405196906001600160a01b031661012088016001600160401b03811189821017610ad6576040526110da368486610b68565b88526110e736878b610b68565b60208901526110f93686608051610b68565b604089015233606089015230608089015260a088015260018060a01b037f00000000000000000000000000000000000000000000000000000000000000001660c08801527f000000000000000000000000000000000000000000000000000000000000000060e0880152610100870152602060405180809863331cc87f60e21b82528360048301526101006111cf61119f83516101206024870152610144860190610bcd565b6111ba87850151916023199283888303016044890152610bcd565b90604085015190868303016064870152610bcd565b60608301516001600160a01b0390811660848601526080840151811660a486015260a080850151821660c487015260c0850151821660e487015260e08501516101048701529290930151610124850152600091829052929092039183917f0000000000000000000000000000000000000000000000000000000000000000165af195861561133a5760a051966112fa575b509060008051602061152f83398151915291610f356112e88899600198999a611288816113dd565b3360a0515260046020526112a181604060a0512061142f565b898060a01b0316978860a051526005602052604060a051208a60ff198254161790556112da60405196879660608852606088019161146a565b91858303602087015261146a565b8281036040840152339560805161146a565b600195965090610f356112e861132e60008051602061152f833981519152959460203d602011610f8557610f708183610ab3565b98975050509091611260565b6040513d60a051823e3d90fd5b6000546001600160a01b0316330361135b57565b60405163118cdaa760e01b8152336004820152602490fd5b8034106113cb57806113b6575b803403903482116113a05734036113945750565b61139e903361148b565b565b634e487b7160e01b600052601160045260246000fd5b6002548181018091116113a057600255611380565b604051638d466a2f60e01b8152600490fd5b600354600160401b811015610ad6576001810180600355811015610a9d57600360005260008051602061150f8339815191520180546001600160a01b0319166001600160a01b03909216919091179055565b8054600160401b811015610ad65761144c91600182018155610a85565b60018060a09493941b038084549260031b9316831b921b1916179055565b908060209392818452848401376000828201840152601f01601f1916010190565b8147106114ef57604051602081016001600160401b03811182821017610ad657604052600080809481948280955260018060a01b03165af1156114cb5750565b3d156114dd57604051903d90823e3d90fd5b60405163d6bda27560e01b8152600490fd5b60405163cf47918160e01b815247600482015260248101839052604490fdfec2575a0e9e593c00f959f8c92f12db2869c3395a3b0502d05e2516446f71f85bb2a470af4bdbb3fda0e3ebc0d14bad66c79bef675ede7a82d1726ea951375eb78be0079c531659141344cd1fd0a4f28419497f9722a3daafe3b4186f6b6457e0a26469706673582212200155844901fd8ac4c2d52221593bffc3c850519741fac90df85d65523176709364736f6c63430008180033",
  "linkReferences": {},
  "deployedLinkReferences": {}
}