{
  "_format": "hh-sol-artifact-1",
  "contractName": "LaunchToken",
  "sourceName": "contracts/LaunchToken.sol",
  "abi": [
    {
      "inputs": [
        {
          "components": [
            {
              "internalType": "string",
              "name": "name",
              "type": "string"
            },
            {
              "internalType": "string",
              "name": "symbol",
              "type": "string"
            },
            {
              "internalType": "string",
              "name": "metadataURI",
              "type": "string"
            },
            {
              "internalType": "address",
              "name": "creator",
              "type": "address"
            },
            {
              "internalType": "address",
              "name": "factory",
              "type": "address"
            },
            {
              "internalType": "address",
              "name": "protocolFeeRecipient",
              "type": "address"
            },
            {
              "internalType": "address",
              "name": "router",
              "type": "address"
            },
            {
              "internalType": "uint256",
              "name": "graduationQuoteReserve",
              "type": "uint256"
            }
          ],
          "internalType": "struct LaunchToken.ConstructorArgs",
          "name": "args",
          "type": "tuple"
        }
      ],
      "stateMutability": "nonpayable",
      "type": "constructor"
    },
    {
      "inputs": [],
      "name": "CreatorFeeSweepUnavailable",
      "type": "error"
    },
    {
      "inputs": [
        {
          "internalType": "address",
          "name": "spender",
          "type": "address"
        },
        {
          "internalType": "uint256",
          "name": "allowance",
          "type": "uint256"
        },
        {
          "internalType": "uint256",
          "name": "needed",
          "type": "uint256"
        }
      ],
      "name": "ERC20InsufficientAllowance",
      "type": "error"
    },
    {
      "inputs": [
        {
          "internalType": "address",
          "name": "sender",
          "type": "address"
        },
        {
          "internalType": "uint256",
          "name": "balance",
          "type": "uint256"
        },
        {
          "internalType": "uint256",
          "name": "needed",
          "type": "uint256"
        }
      ],
      "name": "ERC20InsufficientBalance",
      "type": "error"
    },
    {
      "inputs": [
        {
          "internalType": "address",
          "name": "approver",
          "type": "address"
        }
      ],
      "name": "ERC20InvalidApprover",
      "type": "error"
    },
    {
      "inputs": [
        {
          "internalType": "address",
          "name": "receiver",
          "type": "address"
        }
      ],
      "name": "ERC20InvalidReceiver",
      "type": "error"
    },
    {
      "inputs": [
        {
          "internalType": "address",
          "name": "sender",
          "type": "address"
        }
      ],
      "name": "ERC20InvalidSender",
      "type": "error"
    },
    {
      "inputs": [
        {
          "internalType": "address",
          "name": "spender",
          "type": "address"
        }
      ],
      "name": "ERC20InvalidSpender",
      "type": "error"
    },
    {
      "inputs": [],
      "name": "FailedCall",
      "type": "error"
    },
    {
      "inputs": [],
      "name": "GraduationAlreadyTriggered",
      "type": "error"
    },
    {
      "inputs": [
        {
          "internalType": "uint256",
          "name": "balance",
          "type": "uint256"
        },
        {
          "internalType": "uint256",
          "name": "needed",
          "type": "uint256"
        }
      ],
      "name": "InsufficientBalance",
      "type": "error"
    },
    {
      "inputs": [],
      "name": "InvalidGraduationConfig",
      "type": "error"
    },
    {
      "inputs": [],
      "name": "InvalidRecipient",
      "type": "error"
    },
    {
      "inputs": [],
      "name": "InvalidState",
      "type": "error"
    },
    {
      "inputs": [],
      "name": "NothingToClaim",
      "type": "error"
    },
    {
      "inputs": [],
      "name": "PairPolluted",
      "type": "error"
    },
    {
      "inputs": [],
      "name": "ReentrancyGuardReentrantCall",
      "type": "error"
    },
    {
      "inputs": [],
      "name": "SellCooldownActive",
      "type": "error"
    },
    {
      "inputs": [],
      "name": "SlippageExceeded",
      "type": "error"
    },
    {
      "inputs": [],
      "name": "TransferDisabledPreGraduation",
      "type": "error"
    },
    {
      "inputs": [],
      "name": "Unauthorized",
      "type": "error"
    },
    {
      "inputs": [],
      "name": "UnauthorizedFactoryDeployment",
      "type": "error"
    },
    {
      "inputs": [],
      "name": "WrappedQuoteTransferFailed",
      "type": "error"
    },
    {
      "inputs": [],
      "name": "ZeroAddress",
      "type": "error"
    },
    {
      "inputs": [],
      "name": "ZeroAmount",
      "type": "error"
    },
    {
      "anonymous": false,
      "inputs": [
        {
          "indexed": true,
          "internalType": "address",
          "name": "owner",
          "type": "address"
        },
        {
          "indexed": true,
          "internalType": "address",
          "name": "spender",
          "type": "address"
        },
        {
          "indexed": false,
          "internalType": "uint256",
          "name": "value",
          "type": "uint256"
        }
      ],
      "name": "Approval",
      "type": "event"
    },
    {
      "anonymous": false,
      "inputs": [
        {
          "indexed": true,
          "internalType": "address",
          "name": "buyer",
          "type": "address"
        },
        {
          "indexed": false,
          "internalType": "uint256",
          "name": "grossQuoteIn",
          "type": "uint256"
        },
        {
          "indexed": false,
          "internalType": "uint256",
          "name": "netQuoteIn",
          "type": "uint256"
        },
        {
          "indexed": false,
          "internalType": "uint256",
          "name": "protocolFee",
          "type": "uint256"
        },
        {
          "indexed": false,
          "internalType": "uint256",
          "name": "creatorFee",
          "type": "uint256"
        },
        {
          "indexed": false,
          "internalType": "uint256",
          "name": "refundAmount",
          "type": "uint256"
        },
        {
          "indexed": false,
          "internalType": "uint256",
          "name": "tokenOut",
          "type": "uint256"
        },
        {
          "indexed": false,
          "internalType": "uint256",
          "name": "newCurveQuoteReserve",
          "type": "uint256"
        },
        {
          "indexed": false,
          "internalType": "uint256",
          "name": "newSaleTokenReserve",
          "type": "uint256"
        }
      ],
      "name": "BuyExecuted",
      "type": "event"
    },
    {
      "anonymous": false,
      "inputs": [
        {
          "indexed": true,
          "internalType": "address",
          "name": "recipient",
          "type": "address"
        },
        {
          "indexed": false,
          "internalType": "uint256",
          "name": "amount",
          "type": "uint256"
        }
      ],
      "name": "CreatorFeesClaimed",
      "type": "event"
    },
    {
      "anonymous": false,
      "inputs": [
        {
          "indexed": true,
          "internalType": "address",
          "name": "caller",
          "type": "address"
        },
        {
          "indexed": false,
          "internalType": "uint256",
          "name": "amount",
          "type": "uint256"
        }
      ],
      "name": "CreatorFeesSwept",
      "type": "event"
    },
    {
      "anonymous": false,
      "inputs": [
        {
          "indexed": true,
          "internalType": "address",
          "name": "pair",
          "type": "address"
        },
        {
          "indexed": false,
          "internalType": "uint256",
          "name": "tokenAmount",
          "type": "uint256"
        },
        {
          "indexed": false,
          "internalType": "uint256",
          "name": "quoteAmountContributed",
          "type": "uint256"
        },
        {
          "indexed": false,
          "internalType": "uint256",
          "name": "preloadedQuoteAmount",
          "type": "uint256"
        },
        {
          "indexed": false,
          "internalType": "uint256",
          "name": "liquidityBurned",
          "type": "uint256"
        }
      ],
      "name": "Graduated",
      "type": "event"
    },
    {
      "anonymous": false,
      "inputs": [
        {
          "indexed": true,
          "internalType": "address",
          "name": "recipient",
          "type": "address"
        },
        {
          "indexed": false,
          "internalType": "uint256",
          "name": "amount",
          "type": "uint256"
        }
      ],
      "name": "ProtocolFeesClaimed",
      "type": "event"
    },
    {
      "anonymous": false,
      "inputs": [
        {
          "indexed": true,
          "internalType": "address",
          "name": "seller",
          "type": "address"
        },
        {
          "indexed": false,
          "internalType": "uint256",
          "name": "tokenIn",
          "type": "uint256"
        },
        {
          "indexed": false,
          "internalType": "uint256",
          "name": "grossQuoteOut",
          "type": "uint256"
        },
        {
          "indexed": false,
          "internalType": "uint256",
          "name": "netQuoteOut",
          "type": "uint256"
        },
        {
          "indexed": false,
          "internalType": "uint256",
          "name": "protocolFee",
          "type": "uint256"
        },
        {
          "indexed": false,
          "internalType": "uint256",
          "name": "creatorFee",
          "type": "uint256"
        },
        {
          "indexed": false,
          "internalType": "uint256",
          "name": "newCurveQuoteReserve",
          "type": "uint256"
        },
        {
          "indexed": false,
          "internalType": "uint256",
          "name": "newSaleTokenReserve",
          "type": "uint256"
        }
      ],
      "name": "SellExecuted",
      "type": "event"
    },
    {
      "anonymous": false,
      "inputs": [
        {
          "indexed": true,
          "internalType": "enum LaunchTokenBase.LaunchState",
          "name": "previousState",
          "type": "uint8"
        },
        {
          "indexed": true,
          "internalType": "enum LaunchTokenBase.LaunchState",
          "name": "newState",
          "type": "uint8"
        }
      ],
      "name": "StateTransition",
      "type": "event"
    },
    {
      "anonymous": false,
      "inputs": [
        {
          "indexed": true,
          "internalType": "address",
          "name": "from",
          "type": "address"
        },
        {
          "indexed": true,
          "internalType": "address",
          "name": "to",
          "type": "address"
        },
        {
          "indexed": false,
          "internalType": "uint256",
          "name": "value",
          "type": "uint256"
        }
      ],
      "name": "Transfer",
      "type": "event"
    },
    {
      "inputs": [],
      "name": "BPS_DENOMINATOR",
      "outputs": [
        {
          "internalType": "uint256",
          "name": "",
          "type": "uint256"
        }
      ],
      "stateMutability": "view",
      "type": "function"
    },
    {
      "inputs": [],
      "name": "CREATOR_FEE_BPS",
      "outputs": [
        {
          "internalType": "uint256",
          "name": "",
          "type": "uint256"
        }
      ],
      "stateMutability": "view",
      "type": "function"
    },
    {
      "inputs": [],
      "name": "CREATOR_FEE_SWEEP_MIN_AGE",
      "outputs": [
        {
          "internalType": "uint256",
          "name": "",
          "type": "uint256"
        }
      ],
      "stateMutability": "view",
      "type": "function"
    },
    {
      "inputs": [],
      "name": "CREATOR_FEE_SWEEP_MIN_INACTIVITY",
      "outputs": [
        {
          "internalType": "uint256",
          "name": "",
          "type": "uint256"
        }
      ],
      "stateMutability": "view",
      "type": "function"
    },
    {
      "inputs": [],
      "name": "DEAD_ADDRESS",
      "outputs": [
        {
          "internalType": "address",
          "name": "",
          "type": "address"
        }
      ],
      "stateMutability": "view",
      "type": "function"
    },
    {
      "inputs": [],
      "name": "LP_TOKEN_RESERVE",
      "outputs": [
        {
          "internalType": "uint256",
          "name": "",
          "type": "uint256"
        }
      ],
      "stateMutability": "view",
      "type": "function"
    },
    {
      "inputs": [],
      "name": "MODE_STANDARD_0314",
      "outputs": [
        {
          "internalType": "uint8",
          "name": "",
          "type": "uint8"
        }
      ],
      "stateMutability": "view",
      "type": "function"
    },
    {
      "inputs": [],
      "name": "MODE_WHITELIST_B314",
      "outputs": [
        {
          "internalType": "uint8",
          "name": "",
          "type": "uint8"
        }
      ],
      "stateMutability": "view",
      "type": "function"
    },
    {
      "inputs": [],
      "name": "PROTOCOL_FEE_BPS",
      "outputs": [
        {
          "internalType": "uint256",
          "name": "",
          "type": "uint256"
        }
      ],
      "stateMutability": "view",
      "type": "function"
    },
    {
      "inputs": [],
      "name": "SALE_TOKEN_RESERVE",
      "outputs": [
        {
          "internalType": "uint256",
          "name": "",
          "type": "uint256"
        }
      ],
      "stateMutability": "view",
      "type": "function"
    },
    {
      "inputs": [],
      "name": "TOTAL_FEE_BPS",
      "outputs": [
        {
          "internalType": "uint256",
          "name": "",
          "type": "uint256"
        }
      ],
      "stateMutability": "view",
      "type": "function"
    },
    {
      "inputs": [],
      "name": "TOTAL_SUPPLY",
      "outputs": [
        {
          "internalType": "uint256",
          "name": "",
          "type": "uint256"
        }
      ],
      "stateMutability": "view",
      "type": "function"
    },
    {
      "inputs": [],
      "name": "VIRTUAL_QUOTE_DIVISOR",
      "outputs": [
        {
          "internalType": "uint256",
          "name": "",
          "type": "uint256"
        }
      ],
      "stateMutability": "view",
      "type": "function"
    },
    {
      "inputs": [],
      "name": "WHITELIST_STATUS_ACTIVE",
      "outputs": [
        {
          "internalType": "uint8",
          "name": "",
          "type": "uint8"
        }
      ],
      "stateMutability": "view",
      "type": "function"
    },
    {
      "inputs": [],
      "name": "WHITELIST_STATUS_EXPIRED",
      "outputs": [
        {
          "internalType": "uint8",
          "name": "",
          "type": "uint8"
        }
      ],
      "stateMutability": "view",
      "type": "function"
    },
    {
      "inputs": [],
      "name": "WHITELIST_STATUS_FINALIZED",
      "outputs": [
        {
          "internalType": "uint8",
          "name": "",
          "type": "uint8"
        }
      ],
      "stateMutability": "view",
      "type": "function"
    },
    {
      "inputs": [],
      "name": "WHITELIST_STATUS_NONE",
      "outputs": [
        {
          "internalType": "uint8",
          "name": "",
          "type": "uint8"
        }
      ],
      "stateMutability": "view",
      "type": "function"
    },
    {
      "inputs": [],
      "name": "accountedNativeBalance",
      "outputs": [
        {
          "internalType": "uint256",
          "name": "",
          "type": "uint256"
        }
      ],
      "stateMutability": "view",
      "type": "function"
    },
    {
      "inputs": [
        {
          "internalType": "address",
          "name": "owner",
          "type": "address"
        },
        {
          "internalType": "address",
          "name": "spender",
          "type": "address"
        }
      ],
      "name": "allowance",
      "outputs": [
        {
          "internalType": "uint256",
          "name": "",
          "type": "uint256"
        }
      ],
      "stateMutability": "view",
      "type": "function"
    },
    {
      "inputs": [
        {
          "internalType": "address",
          "name": "spender",
          "type": "address"
        },
        {
          "internalType": "uint256",
          "name": "value",
          "type": "uint256"
        }
      ],
      "name": "approve",
      "outputs": [
        {
          "internalType": "bool",
          "name": "",
          "type": "bool"
        }
      ],
      "stateMutability": "nonpayable",
      "type": "function"
    },
    {
      "inputs": [
        {
          "internalType": "address",
          "name": "account",
          "type": "address"
        }
      ],
      "name": "balanceOf",
      "outputs": [
        {
          "internalType": "uint256",
          "name": "",
          "type": "uint256"
        }
      ],
      "stateMutability": "view",
      "type": "function"
    },
    {
      "inputs": [
        {
          "internalType": "uint256",
          "name": "minTokenOut",
          "type": "uint256"
        }
      ],
      "name": "buy",
      "outputs": [
        {
          "internalType": "uint256",
          "name": "tokenOut",
          "type": "uint256"
        }
      ],
      "stateMutability": "payable",
      "type": "function"
    },
    {
      "inputs": [
        {
          "internalType": "address",
          "name": "",
          "type": "address"
        }
      ],
      "name": "canClaimWhitelistAllocation",
      "outputs": [
        {
          "internalType": "bool",
          "name": "",
          "type": "bool"
        }
      ],
      "stateMutability": "view",
      "type": "function"
    },
    {
      "inputs": [
        {
          "internalType": "address",
          "name": "",
          "type": "address"
        }
      ],
      "name": "canClaimWhitelistRefund",
      "outputs": [
        {
          "internalType": "bool",
          "name": "",
          "type": "bool"
        }
      ],
      "stateMutability": "view",
      "type": "function"
    },
    {
      "inputs": [
        {
          "internalType": "address",
          "name": "",
          "type": "address"
        }
      ],
      "name": "canCommitWhitelist",
      "outputs": [
        {
          "internalType": "bool",
          "name": "",
          "type": "bool"
        }
      ],
      "stateMutability": "view",
      "type": "function"
    },
    {
      "inputs": [
        {
          "internalType": "address",
          "name": "account",
          "type": "address"
        }
      ],
      "name": "canSell",
      "outputs": [
        {
          "internalType": "bool",
          "name": "",
          "type": "bool"
        }
      ],
      "stateMutability": "view",
      "type": "function"
    },
    {
      "inputs": [],
      "name": "claimCreatorFees",
      "outputs": [
        {
          "internalType": "uint256",
          "name": "amount",
          "type": "uint256"
        }
      ],
      "stateMutability": "nonpayable",
      "type": "function"
    },
    {
      "inputs": [
        {
          "internalType": "address payable",
          "name": "recipient",
          "type": "address"
        }
      ],
      "name": "claimCreatorFeesTo",
      "outputs": [
        {
          "internalType": "uint256",
          "name": "amount",
          "type": "uint256"
        }
      ],
      "stateMutability": "nonpayable",
      "type": "function"
    },
    {
      "inputs": [],
      "name": "claimProtocolFees",
      "outputs": [
        {
          "internalType": "uint256",
          "name": "amount",
          "type": "uint256"
        }
      ],
      "stateMutability": "nonpayable",
      "type": "function"
    },
    {
      "inputs": [
        {
          "internalType": "address payable",
          "name": "recipient",
          "type": "address"
        }
      ],
      "name": "claimProtocolFeesTo",
      "outputs": [
        {
          "internalType": "uint256",
          "name": "amount",
          "type": "uint256"
        }
      ],
      "stateMutability": "nonpayable",
      "type": "function"
    },
    {
      "inputs": [],
      "name": "createdAt",
      "outputs": [
        {
          "internalType": "uint256",
          "name": "",
          "type": "uint256"
        }
      ],
      "stateMutability": "view",
      "type": "function"
    },
    {
      "inputs": [],
      "name": "creator",
      "outputs": [
        {
          "internalType": "address",
          "name": "",
          "type": "address"
        }
      ],
      "stateMutability": "view",
      "type": "function"
    },
    {
      "inputs": [],
      "name": "creatorClaimable",
      "outputs": [
        {
          "internalType": "uint256",
          "name": "",
          "type": "uint256"
        }
      ],
      "stateMutability": "view",
      "type": "function"
    },
    {
      "inputs": [],
      "name": "creatorFeeSweepReady",
      "outputs": [
        {
          "internalType": "bool",
          "name": "",
          "type": "bool"
        }
      ],
      "stateMutability": "view",
      "type": "function"
    },
    {
      "inputs": [],
      "name": "creatorFeeVault",
      "outputs": [
        {
          "internalType": "uint256",
          "name": "",
          "type": "uint256"
        }
      ],
      "stateMutability": "view",
      "type": "function"
    },
    {
      "inputs": [],
      "name": "currentPriceQuotePerToken",
      "outputs": [
        {
          "internalType": "uint256",
          "name": "",
          "type": "uint256"
        }
      ],
      "stateMutability": "view",
      "type": "function"
    },
    {
      "inputs": [],
      "name": "curveQuoteReserve",
      "outputs": [
        {
          "internalType": "uint256",
          "name": "",
          "type": "uint256"
        }
      ],
      "stateMutability": "view",
      "type": "function"
    },
    {
      "inputs": [],
      "name": "decimals",
      "outputs": [
        {
          "internalType": "uint8",
          "name": "",
          "type": "uint8"
        }
      ],
      "stateMutability": "view",
      "type": "function"
    },
    {
      "inputs": [],
      "name": "dexFactory",
      "outputs": [
        {
          "internalType": "address",
          "name": "",
          "type": "address"
        }
      ],
      "stateMutability": "view",
      "type": "function"
    },
    {
      "inputs": [],
      "name": "dexReserves",
      "outputs": [
        {
          "internalType": "uint256",
          "name": "tokenReserve",
          "type": "uint256"
        },
        {
          "internalType": "uint256",
          "name": "quoteReserve",
          "type": "uint256"
        }
      ],
      "stateMutability": "view",
      "type": "function"
    },
    {
      "inputs": [],
      "name": "displayGraduationProgressBps",
      "outputs": [
        {
          "internalType": "uint256",
          "name": "",
          "type": "uint256"
        }
      ],
      "stateMutability": "view",
      "type": "function"
    },
    {
      "inputs": [],
      "name": "factory",
      "outputs": [
        {
          "internalType": "address",
          "name": "",
          "type": "address"
        }
      ],
      "stateMutability": "view",
      "type": "function"
    },
    {
      "inputs": [],
      "name": "graduationProgressBps",
      "outputs": [
        {
          "internalType": "uint256",
          "name": "",
          "type": "uint256"
        }
      ],
      "stateMutability": "view",
      "type": "function"
    },
    {
      "inputs": [],
      "name": "graduationQuoteReserve",
      "outputs": [
        {
          "internalType": "uint256",
          "name": "",
          "type": "uint256"
        }
      ],
      "stateMutability": "view",
      "type": "function"
    },
    {
      "inputs": [],
      "name": "isPairClean",
      "outputs": [
        {
          "internalType": "bool",
          "name": "",
          "type": "bool"
        }
      ],
      "stateMutability": "view",
      "type": "function"
    },
    {
      "inputs": [],
      "name": "isPairGraduationCompatible",
      "outputs": [
        {
          "internalType": "bool",
          "name": "",
          "type": "bool"
        }
      ],
      "stateMutability": "view",
      "type": "function"
    },
    {
      "inputs": [
        {
          "internalType": "address",
          "name": "",
          "type": "address"
        }
      ],
      "name": "isWhitelisted",
      "outputs": [
        {
          "internalType": "bool",
          "name": "",
          "type": "bool"
        }
      ],
      "stateMutability": "view",
      "type": "function"
    },
    {
      "inputs": [
        {
          "internalType": "address",
          "name": "",
          "type": "address"
        }
      ],
      "name": "lastBuyBlock",
      "outputs": [
        {
          "internalType": "uint256",
          "name": "",
          "type": "uint256"
        }
      ],
      "stateMutability": "view",
      "type": "function"
    },
    {
      "inputs": [],
      "name": "lastTradeAt",
      "outputs": [
        {
          "internalType": "uint256",
          "name": "",
          "type": "uint256"
        }
      ],
      "stateMutability": "view",
      "type": "function"
    },
    {
      "inputs": [],
      "name": "launchMode",
      "outputs": [
        {
          "internalType": "uint8",
          "name": "",
          "type": "uint8"
        }
      ],
      "stateMutability": "view",
      "type": "function"
    },
    {
      "inputs": [],
      "name": "launchModeId",
      "outputs": [
        {
          "internalType": "uint8",
          "name": "",
          "type": "uint8"
        }
      ],
      "stateMutability": "view",
      "type": "function"
    },
    {
      "inputs": [],
      "name": "launchSuffix",
      "outputs": [
        {
          "internalType": "string",
          "name": "",
          "type": "string"
        }
      ],
      "stateMutability": "pure",
      "type": "function"
    },
    {
      "inputs": [],
      "name": "lpTokenReserve",
      "outputs": [
        {
          "internalType": "uint256",
          "name": "",
          "type": "uint256"
        }
      ],
      "stateMutability": "view",
      "type": "function"
    },
    {
      "inputs": [],
      "name": "metadataURI",
      "outputs": [
        {
          "internalType": "string",
          "name": "",
          "type": "string"
        }
      ],
      "stateMutability": "view",
      "type": "function"
    },
    {
      "inputs": [],
      "name": "name",
      "outputs": [
        {
          "internalType": "string",
          "name": "",
          "type": "string"
        }
      ],
      "stateMutability": "view",
      "type": "function"
    },
    {
      "inputs": [],
      "name": "pair",
      "outputs": [
        {
          "internalType": "address",
          "name": "",
          "type": "address"
        }
      ],
      "stateMutability": "view",
      "type": "function"
    },
    {
      "inputs": [],
      "name": "pairPreloadedQuote",
      "outputs": [
        {
          "internalType": "uint256",
          "name": "",
          "type": "uint256"
        }
      ],
      "stateMutability": "view",
      "type": "function"
    },
    {
      "inputs": [],
      "name": "pairSnapshot",
      "outputs": [
        {
          "internalType": "address",
          "name": "pairAddress",
          "type": "address"
        },
        {
          "internalType": "uint256",
          "name": "pairTotalSupply",
          "type": "uint256"
        },
        {
          "internalType": "uint112",
          "name": "reserve0",
          "type": "uint112"
        },
        {
          "internalType": "uint112",
          "name": "reserve1",
          "type": "uint112"
        },
        {
          "internalType": "uint256",
          "name": "tokenBalance",
          "type": "uint256"
        },
        {
          "internalType": "uint256",
          "name": "wrappedNativeBalance",
          "type": "uint256"
        }
      ],
      "stateMutability": "view",
      "type": "function"
    },
    {
      "inputs": [
        {
          "internalType": "uint256",
          "name": "grossQuoteIn",
          "type": "uint256"
        }
      ],
      "name": "previewBuy",
      "outputs": [
        {
          "internalType": "uint256",
          "name": "tokenOut",
          "type": "uint256"
        },
        {
          "internalType": "uint256",
          "name": "feeAmount",
          "type": "uint256"
        },
        {
          "internalType": "uint256",
          "name": "refundAmount",
          "type": "uint256"
        }
      ],
      "stateMutability": "view",
      "type": "function"
    },
    {
      "inputs": [
        {
          "internalType": "uint256",
          "name": "tokenAmount",
          "type": "uint256"
        }
      ],
      "name": "previewSell",
      "outputs": [
        {
          "internalType": "uint256",
          "name": "grossQuoteOut",
          "type": "uint256"
        },
        {
          "internalType": "uint256",
          "name": "netQuoteOut",
          "type": "uint256"
        },
        {
          "internalType": "uint256",
          "name": "totalFee",
          "type": "uint256"
        }
      ],
      "stateMutability": "view",
      "type": "function"
    },
    {
      "inputs": [],
      "name": "priceQuotePerToken",
      "outputs": [
        {
          "internalType": "uint256",
          "name": "",
          "type": "uint256"
        }
      ],
      "stateMutability": "view",
      "type": "function"
    },
    {
      "inputs": [],
      "name": "protocolClaimable",
      "outputs": [
        {
          "internalType": "uint256",
          "name": "",
          "type": "uint256"
        }
      ],
      "stateMutability": "view",
      "type": "function"
    },
    {
      "inputs": [],
      "name": "protocolFeeRecipient",
      "outputs": [
        {
          "internalType": "address",
          "name": "",
          "type": "address"
        }
      ],
      "stateMutability": "view",
      "type": "function"
    },
    {
      "inputs": [],
      "name": "protocolFeeVault",
      "outputs": [
        {
          "internalType": "uint256",
          "name": "",
          "type": "uint256"
        }
      ],
      "stateMutability": "view",
      "type": "function"
    },
    {
      "inputs": [],
      "name": "remainingQuoteCapacity",
      "outputs": [
        {
          "internalType": "uint256",
          "name": "",
          "type": "uint256"
        }
      ],
      "stateMutability": "view",
      "type": "function"
    },
    {
      "inputs": [],
      "name": "router",
      "outputs": [
        {
          "internalType": "address",
          "name": "",
          "type": "address"
        }
      ],
      "stateMutability": "view",
      "type": "function"
    },
    {
      "inputs": [],
      "name": "saleTokenReserve",
      "outputs": [
        {
          "internalType": "uint256",
          "name": "",
          "type": "uint256"
        }
      ],
      "stateMutability": "view",
      "type": "function"
    },
    {
      "inputs": [
        {
          "internalType": "uint256",
          "name": "tokenAmount",
          "type": "uint256"
        },
        {
          "internalType": "uint256",
          "name": "minQuoteOut",
          "type": "uint256"
        }
      ],
      "name": "sell",
      "outputs": [
        {
          "internalType": "uint256",
          "name": "netQuoteOut",
          "type": "uint256"
        }
      ],
      "stateMutability": "nonpayable",
      "type": "function"
    },
    {
      "inputs": [
        {
          "internalType": "address",
          "name": "account",
          "type": "address"
        }
      ],
      "name": "sellUnlockBlock",
      "outputs": [
        {
          "internalType": "uint256",
          "name": "",
          "type": "uint256"
        }
      ],
      "stateMutability": "view",
      "type": "function"
    },
    {
      "inputs": [],
      "name": "state",
      "outputs": [
        {
          "internalType": "enum LaunchTokenBase.LaunchState",
          "name": "",
          "type": "uint8"
        }
      ],
      "stateMutability": "view",
      "type": "function"
    },
    {
      "inputs": [],
      "name": "sweepAbandonedCreatorFees",
      "outputs": [
        {
          "internalType": "uint256",
          "name": "amount",
          "type": "uint256"
        }
      ],
      "stateMutability": "nonpayable",
      "type": "function"
    },
    {
      "inputs": [],
      "name": "symbol",
      "outputs": [
        {
          "internalType": "string",
          "name": "",
          "type": "string"
        }
      ],
      "stateMutability": "view",
      "type": "function"
    },
    {
      "inputs": [],
      "name": "taxConfig",
      "outputs": [
        {
          "internalType": "bool",
          "name": "enabled",
          "type": "bool"
        },
        {
          "internalType": "uint16",
          "name": "taxBps",
          "type": "uint16"
        },
        {
          "internalType": "uint16",
          "name": "burnShareBps",
          "type": "uint16"
        },
        {
          "internalType": "uint16",
          "name": "treasuryShareBps",
          "type": "uint16"
        },
        {
          "internalType": "address",
          "name": "treasuryWallet",
          "type": "address"
        },
        {
          "internalType": "bool",
          "name": "active",
          "type": "bool"
        }
      ],
      "stateMutability": "view",
      "type": "function"
    },
    {
      "inputs": [],
      "name": "totalSupply",
      "outputs": [
        {
          "internalType": "uint256",
          "name": "",
          "type": "uint256"
        }
      ],
      "stateMutability": "view",
      "type": "function"
    },
    {
      "inputs": [
        {
          "internalType": "address",
          "name": "to",
          "type": "address"
        },
        {
          "internalType": "uint256",
          "name": "value",
          "type": "uint256"
        }
      ],
      "name": "transfer",
      "outputs": [
        {
          "internalType": "bool",
          "name": "",
          "type": "bool"
        }
      ],
      "stateMutability": "nonpayable",
      "type": "function"
    },
    {
      "inputs": [
        {
          "internalType": "address",
          "name": "from",
          "type": "address"
        },
        {
          "internalType": "address",
          "name": "to",
          "type": "address"
        },
        {
          "internalType": "uint256",
          "name": "value",
          "type": "uint256"
        }
      ],
      "name": "transferFrom",
      "outputs": [
        {
          "internalType": "bool",
          "name": "",
          "type": "bool"
        }
      ],
      "stateMutability": "nonpayable",
      "type": "function"
    },
    {
      "inputs": [],
      "name": "unexpectedNativeBalance",
      "outputs": [
        {
          "internalType": "uint256",
          "name": "",
          "type": "uint256"
        }
      ],
      "stateMutability": "view",
      "type": "function"
    },
    {
      "inputs": [],
      "name": "virtualQuoteReserve",
      "outputs": [
        {
          "internalType": "uint256",
          "name": "",
          "type": "uint256"
        }
      ],
      "stateMutability": "view",
      "type": "function"
    },
    {
      "inputs": [],
      "name": "virtualTokenReserve",
      "outputs": [
        {
          "internalType": "uint256",
          "name": "",
          "type": "uint256"
        }
      ],
      "stateMutability": "view",
      "type": "function"
    },
    {
      "inputs": [],
      "name": "whitelistAllocationTokenReserve",
      "outputs": [
        {
          "internalType": "uint256",
          "name": "",
          "type": "uint256"
        }
      ],
      "stateMutability": "view",
      "type": "function"
    },
    {
      "inputs": [],
      "name": "whitelistSnapshot",
      "outputs": [
        {
          "internalType": "uint8",
          "name": "status",
          "type": "uint8"
        },
        {
          "internalType": "uint256",
          "name": "deadline",
          "type": "uint256"
        },
        {
          "internalType": "uint256",
          "name": "threshold",
          "type": "uint256"
        },
        {
          "internalType": "uint256",
          "name": "slotSize",
          "type": "uint256"
        },
        {
          "internalType": "uint256",
          "name": "seatCount",
          "type": "uint256"
        },
        {
          "internalType": "uint256",
          "name": "seatsFilled",
          "type": "uint256"
        },
        {
          "internalType": "uint256",
          "name": "committedTotal",
          "type": "uint256"
        },
        {
          "internalType": "uint256",
          "name": "tokensPerSeat",
          "type": "uint256"
        },
        {
          "internalType": "uint256",
          "name": "whitelistCount",
          "type": "uint256"
        }
      ],
      "stateMutability": "view",
      "type": "function"
    },
    {
      "inputs": [],
      "name": "whitelistStatus",
      "outputs": [
        {
          "internalType": "uint8",
          "name": "",
          "type": "uint8"
        }
      ],
      "stateMutability": "view",
      "type": "function"
    },
    {
      "inputs": [],
      "name": "wrappedNative",
      "outputs": [
        {
          "internalType": "address",
          "name": "",
          "type": "address"
        }
      ],
      "stateMutability": "view",
      "type": "function"
    },
    {
      "stateMutability": "payable",
      "type": "receive"
    }
  ],
  "bytecode": "0x6101e08060405234620006eb5762004041803803809162000021828562000c0b565b8339810190602081830312620006eb578051906001600160401b038211620006eb57019061010082820312620006eb576040519061010082016001600160401b03811183821017620008de5760405282516001600160401b038111620006eb57816200008f91850162000c2f565b825260208301516001600160401b038111620006eb5781620000b391850162000c2f565b60208301908152604084015190916001600160401b038211620006eb57620000dd91850162000c2f565b90816040840152620000f26060850162000ca5565b806060850152620001066080860162000ca5565b8060808601526200011a60a0870162000ca5565b918260a087015260e06200013160c0890162000ca5565b978860c08901520151938460e0880152865190519080519060018060401b038211620008de57600354908160011c91600181161562000c00575b6001166020831014620008bd5781601f84931162000b8e575b50602090601f831160011462000aff5760009262000af3575b50508160011b916000199060031b1c1916176003555b8051906001600160401b038211620008de5760045490600182811c9216801562000ae8575b6020831014620008bd5781601f84931162000a76575b50602090601f8311600114620009e757600092620009db575b50508160011b916000199060031b1c1916176004555b60017f9b779b17422d0df92223018b32b4d1fa46e071723d6817e2486d003becc55f00558315620009c9576003840415620009c9576001600160a01b038116158015620009b7575b8015620009a5575b801562000993575b62000981576001600160a01b0390811660a05290811660c05290811660e052841661010081905260405163c45a015560e01b815290602090829060049082905afa908115620006f95760009162000938575b50610120526040516315ab88c960e31b815293602090859060049082906001600160a01b03165afa938415620006f957600094620008f4575b5061014093845261016092818452610180906003830482526aa56fa5b99019a5c80000006003840481029381850460038204036200075b576101a0940484526101c09442865242600c55805160018060401b038111620008de57600591825490600182811c92168015620008d3575b6020831014620008bd5781601f84931162000867575b50602090601f8311600114620007fc57600092620007f0575b50508160011b916000199060031b1c19161781555b60016080523015620007d75760ff600654169081101580620007b357600182148015620007c9575b1562000771575b50506002546b033b2e3c9fd0803ce8000000908181018091116200075b57600255306000526000602052604060002081815401905560405190815260007fddf252ad1be2c89b69c2b068fc378daa952ba7f163c4a11628f55a4df523b3ef60203093a36b0295be96e64066972000000060075560085561012051865160405163e6a4390560e01b815260009392909160209183916001600160a01b039182169183918291620004979116306004840162000d57565b03915afa9283156200074f57809362000705575b50506001600160a01b0382161562000651575b600680546001600160a81b03191660089390931b610100600160a81b0316929092176001908117909255620005269160007f3a779de46631dd65116ae538600f1bc3c338200c6aef638429b5de43301c28f78180a3608001516001600160a01b031662000cba565b156200063f57604051936132cf958662000d72873960805186612110015260a051868181611b4a01528181611fa50152612828015260c051866113aa015260e05186818161186d01528181611a460152612a38015261010051866109dd0152610120518661143501525185818161021101528181610251015281816102940152818161030501528181610aa101528181610dad01528181610dfc01528181610e4001528181610eb10152818161233e015281816124b10152612bdd015251848181607d01528181610c0601528181611aaf015281816121d9015281816125f3015281816128de01526129dd015251838181610a4a015261278e015251828181611b8f01526127c80152518181816112bc0152612aec0152f35b604051635bb6e57160e11b8152600490fd5b6101205187516040516364e329cb60e11b8152935060209184916001600160a01b0391821691839160009183916200068f9116306004840162000d57565b03925af1918215620006f957600092620006ab575b50620004be565b91506020823d602011620006f0575b81620006c96020938362000c0b565b81010312620006eb576001620006e3620005269362000ca5565b9250620006a4565b600080fd5b3d9150620006ba565b6040513d6000823e3d90fd5b909192506020823d60201162000746575b81620007256020938362000c0b565b810103126200074357506200073a9062000ca5565b903880620004ab565b80fd5b3d915062000716565b604051903d90823e3d90fd5b634e487b7160e01b600052601160045260246000fd5b620007b35760028103620007915760405163baf3f0f760e01b8152600490fd5b600314620007a1573880620003e2565b604051634e46966960e11b8152600490fd5b634e487b7160e01b600052602160045260246000fd5b5050600060048214620003db565b60405163ec442f0560e01b815260006004820152602490fd5b0151905038806200039e565b6000858152602081209350601f198516905b8181106200084e575090846001959493921062000834575b505050811b018155620003b3565b015160001960f88460031b161c1916905538808062000826565b929360206001819287860151815501950193016200080e565b909150836000526020600020601f8401851c81019160208510620008b2575b90601f8594939201861c01905b818110620008a2575062000385565b6000815584935060010162000893565b909150819062000886565b634e487b7160e01b600052602260045260246000fd5b91607f16916200036f565b634e487b7160e01b600052604160045260246000fd5b9093506020813d6020116200092f575b81620009136020938362000c0b565b81010312620006eb57620009279062000ca5565b923862000300565b3d915062000904565b90506020813d60201162000978575b81620009566020938362000c0b565b81010312620006eb576004946200096f60209262000ca5565b915094620002c7565b3d915062000947565b60405163d92e233d60e01b8152600490fd5b506001600160a01b0387161562000275565b506001600160a01b038316156200026d565b506001600160a01b0382161562000265565b604051630d956e1760e21b8152600490fd5b01519050388062000207565b6004600090815293507f8a35acfbc15ff81a39ae7d344fd709f28e8600b4aa8c65c6b64bfe7fe36bd19b91905b601f198416851062000a5a576001945083601f1981161062000a40575b505050811b016004556200021d565b015160001960f88460031b161c1916905538808062000a31565b8181015183556020948501946001909301929091019062000a14565b60046000529091507f8a35acfbc15ff81a39ae7d344fd709f28e8600b4aa8c65c6b64bfe7fe36bd19b601f840160051c81016020851062000ae0575b90849392915b601f830160051c8201811062000ad0575050620001ee565b6000815585945060010162000ab8565b508062000ab2565b91607f1691620001d8565b0151905038806200019d565b6003600090815293507fc2575a0e9e593c00f959f8c92f12db2869c3395a3b0502d05e2516446f71f85b91905b601f198416851062000b72576001945083601f1981161062000b58575b505050811b01600355620001b3565b015160001960f88460031b161c1916905538808062000b49565b8181015183556020948501946001909301929091019062000b2c565b60036000529091507fc2575a0e9e593c00f959f8c92f12db2869c3395a3b0502d05e2516446f71f85b601f840160051c81016020851062000bf8575b90849392915b601f830160051c8201811062000be857505062000184565b6000815585945060010162000bd0565b508062000bca565b91607f16916200016b565b601f909101601f19168101906001600160401b03821190821017620008de57604052565b919080601f84011215620006eb5782516001600160401b038111620008de576020906040519262000c6a83601f19601f850116018562000c0b565b818452828287010111620006eb5760005b81811062000c9157508260009394955001015290565b858101830151848201840152820162000c7b565b51906001600160a01b0382168203620006eb57565b6001600160a01b03908082169033821462000d4f573b1562000d485760206004916040519283809263136afe8560e31b82525afa908115620006f95760009162000d06575b5016331490565b90506020813d60201162000d3f575b8162000d246020938362000c0b565b81010312620006eb5762000d389062000ca5565b3862000cff565b3d915062000d15565b5050600090565b505050600190565b6001600160a01b039182168152911660208201526040019056fe60808060405260043610156105cb575b50361561001b57600080fd5b6100236127ed565b60065460ff811660058110156105b5576001036105135733159081156105ab575b8115610592575b506105805734156105665761005f346128d5565b9183158015610578575b610566576009549361007b8286612281565b7f000000000000000000000000000000000000000000000000000000000000000094856100a7856129cf565b921461055c575b81158015610551575b610501576100c784600098612281565b6009556100d685600a54612281565b600a556100e581600b54612281565b600b5542600c556100f882600754612134565b600755610106823330612d21565b338752600e60205243604088205561011e8334612134565b9081610542575b6009549560075495604051958652602086015260408501526060840152608083015260a08201528260c08201528160e082015260008051602061325a8339815191526101003392a282821090811591610539575b50610193575b600160008051602061327a83398151915255005b60065460ff81169260058410156105255760018403610513578203610501576002809160ff191617928360065560008051602061321a8339815191528580a36101da612eef565b156104ef576008549160018060a01b039060081c166040516370a0823160e01b815281600482015260208160248160018060a01b037f0000000000000000000000000000000000000000000000000000000000000000165afa90811561044657849086926104b9575b5061024f919230612d21565b7f00000000000000000000000000000000000000000000000000000000000000006001600160a01b03163b156104b557604051630d0e30db60e41b81528481600481867f00000000000000000000000000000000000000000000000000000000000000006001600160a01b03165af18015610446576104a2575b5060065460405163a9059cbb60e01b815260089190911c6001600160a01b039081166004830152602482018490526020908290604490829089907f0000000000000000000000000000000000000000000000000000000000000000165af1908115610446578591610463575b5015610451576006546040516335313c2160e11b815261dead6004820152929060209084906024908290899060081c6001600160a01b03165af192831561044657859361040d575b50846008558460095560065493600360ff86169560ff191617948560065560058110156103f9579160008051602061323a83398151915295939160036080969460008051602061321a8339815191526040519a80a3875260208701526040860152606085015260081c6001600160a01b031692a238808061017f565b634e487b7160e01b87526021600452602487fd5b9092506020813d60201161043e575b8161042960209383611fe7565b810103126104395751913861037d565b600080fd5b3d915061041c565b6040513d87823e3d90fd5b6040516314da028560e11b8152600490fd5b90506020813d60201161049a575b8161047e60209383611fe7565b81010312610496575180151581036104965738610335565b8480fd5b3d9150610471565b6104ae90949194611fd4565b92386102c9565b8380fd5b9150506020813d6020116104e7575b816104d560209383611fe7565b8101031261049657518361024f610243565b3d91506104c8565b604051633c1413fb60e01b8152600490fd5b604051638199f5f360e01b8152600490fd5b60405163baf3f0f760e01b8152600490fd5b634e487b7160e01b85526021600452602485fd5b90501538610179565b61054c8233612e6c565b610125565b5060075482116100b7565b60075491506100ae565b604051631f2a200560e01b8152600490fd5b508015610069565b604051634e46966960e11b8152600490fd5b3360089190911c6001600160a01b03161490503861004b565b3330149150610044565b634e487b7160e01b600052602160045260246000fd5b60003560e01c90816302d05d3f14611f925750806303ee438c14611eed57806306b51d481461178c57806306fdde0314611e48578063095ea7b314611dc257806315a0aa0814611d5d578063173d5e4214611a9257806318160ddd14611d3f5780631cd97db514611d185780631d924c7714611cfa57806323b872dd14611bce578063313ce56714611bb2578063343ee3b714611b77578063351fee4614611b2a57806337488a4214611b0c57806337b28bfd14611ad257806338809be6146115095780633993152714611a975780633af32abf146112fd578063403287a91461146457806340faa03c14611a925780634815327914611a735780634a7d036914611a265780634e6fd6c414611a09578063538660061461195a578063581b51f31461192c5780635878f8ce146119115780635a85ffd7146118f6578063644537cb146118d357806364a5dc2b1461189c57806364df049e146118575780636887c848146117fe5780636a534fcb146117ad5780636f28507c146117915780636f71f0171461178c57806370a082311461176957806374452ec31461174b5780637531abe3146112fd57806385cac2371461146957806386d4ff1d146116fa5780638925d36e146116dc578063902d55a5146116b55780639111f13d1461169a57806391e7cd341461167c57806395d89b41146115945780639ddf7ad3146113395780639e5f358a14611579578063a8aa1b311461154c578063a8dccd0214611525578063a8ea444514611509578063a9059cbb146114af578063aadade7a14611491578063aecf6a7c146112fd578063af1af3b9146112df578063b0cc792d1461146e578063b37dd69014611469578063b82020e814611464578063b8d8fbb41461141f578063be37822814611403578063c19d93fb146113d9578063c2289878146110e6578063c45a015514611394578063c57da02914611355578063cac01cbc14611339578063cc3cbd2a1461131d578063cc45010414611302578063cc64aade146112fd578063ce228ad2146112df578063cf09e0d0146112a4578063d79875eb14611110578063d7f3ad6f146110eb578063d81d946f146110e6578063d96a094a14610b94578063db9b541314610b3e578063dd62ed3e14610aed578063e1a4521814610ad0578063eb6d3a1114610a8b578063f48f6f1d14610a6d578063f559662614610a32578063f7ce612a14610a0c578063f887ea40146109c7578063fb3dd95f146109875763fd897e0b14610969573861000f565b34610439576000366003190112610439576020600d54604051908152f35b34610439576020366003190112610439576109c36109a6600435612617565b604080519384526020840192909252908201529081906060820190565b0390f35b34610439576000366003190112610439576040517f00000000000000000000000000000000000000000000000000000000000000006001600160a01b03168152602090f35b346104395760003660031901126104395760206040516aa56fa5b99019a5c80000008152f35b346104395760003660031901126104395760206040517f00000000000000000000000000000000000000000000000000000000000000008152f35b3461043957600036600319011261043957602060405162278d008152f35b34610439576000366003190112610439576040517f00000000000000000000000000000000000000000000000000000000000000006001600160a01b03168152602090f35b346104395760003660031901126104395760206040516127108152f35b3461043957604036600319011261043957610b0661206e565b610b0e612084565b9060018060a01b038091166000526001602052604060002091166000526020526020604060002054604051908152f35b34610439576000366003190112610439576101206040516000815260006020820152600060408201526000606082015260006080820152600060a0820152600060c0820152600060e08201526000610100820152f35b602036600319011261043957610ba86127ed565b60065460ff811660058110156105b5576001036105135733159081156110dc575b81156110c3575b50610580576000341561056657610be6346128d5565b9291821580156110bb575b6105665760095492610c038285612281565b947f00000000000000000000000000000000000000000000000000000000000000009485610c30856129cf565b97146110b1575b861580156110a6575b6105015760043587106105015783610c5791612281565b600955610c6684600a54612281565b600a55610c7581600b54612281565b600b5542600c55610c8886600754612134565b600755610c96863330612d21565b33600052600e60205243604060002055610cb08234612134565b9081611097575b600954946007549460405194855260208501526040840152606083015260808201528460a08201528260c08201528160e082015260008051602061325a8339815191526101003392a28282109081159161108e575b50610d2f575b602083600160008051602061327a83398151915255604051908152f35b60065460ff81169260058410156105b55760018403610513578203610501576002809160ff191617928360065560008051602061321a833981519152600080a3610d77612eef565b156104ef57600854916040516370a0823160e01b815260018060a01b038260081c16600482015260208160248160018060a01b037f0000000000000000000000000000000000000000000000000000000000000000165afa90811561104c578490600092611058575b509091610dfa919060081c6001600160a01b031630612d21565b7f00000000000000000000000000000000000000000000000000000000000000006001600160a01b03163b1561043957604051630d0e30db60e41b8152600081600481867f00000000000000000000000000000000000000000000000000000000000000006001600160a01b03165af1801561104c57611038575b5060065460405163a9059cbb60e01b815260089190911c6001600160a01b03908116600483015260248201849052602090829060449082908a907f0000000000000000000000000000000000000000000000000000000000000000165af1908115610fee578691610ff9575b5015610451576006546040516335313c2160e11b815261dead60048201529290602090849060249082908a9060081c6001600160a01b03165af1928315610fee578693610fba575b50856008558560095560065493600360ff86169560ff19161794856006556005811015610fa65792602097959260008051602061323a8339815191529592600360809660008051602061321a8339815191526040519a80a38752888701526040860152606085015260081c6001600160a01b031692a28280610d12565b634e487b7160e01b88526021600452602488fd5b9092506020813d602011610fe6575b81610fd660209383611fe7565b8101031261043957519186610f29565b3d9150610fc9565b6040513d88823e3d90fd5b90506020813d602011611030575b8161101460209383611fe7565b8101031261102c5751801515810361102c5786610ee1565b8580fd5b3d9150611007565b611043919550611fd4565b60009385610e75565b6040513d6000823e3d90fd5b9150506020813d602011611086575b8161107460209383611fe7565b81010312610439575183610dfa610de0565b3d9150611067565b90501585610d0c565b6110a18233612e6c565b610cb7565b506007548711610c40565b6007549650610c37565b508015610bf1565b3360089190911c6001600160a01b031614905081610bd0565b3330149150610bc9565b612157565b34610439576000366003190112610439576020611106612eef565b6040519015158152f35b346104395760403660031901126104395760043561112c6127ed565b60ff6006541660058110156105b5576001036105135780156105665733600052600e60205260406000205443146112925761118d61118761116b612786565b6111818561117b83859695612173565b92612281565b90612cb8565b90612134565b9081158015611287575b610501576111b3906111a883612cea565b949182949194612134565b928315610501576024358410610501576020946111d1843033612d21565b6111dd84600754612281565b6007556111ec83600954612134565b6009556111fb82600a54612281565b600a5561120a81600b54612281565b600b5542600c5561121b8533612e6c565b6009549160075493604051958652878601528560408601526060850152608084015260a083015260c08201527feebdf396b2ce33c6bf51df33b76958425b7430bd1c74fbef7b585106affddd1c60e03392a2600160008051602061327a83398151915255604051908152f35b506009548211611197565b604051635aabee0f60e11b8152600490fd5b346104395760003660031901126104395760206040517f00000000000000000000000000000000000000000000000000000000000000008152f35b34610439576000366003190112610439576020600a54604051908152f35b6120b5565b34610439576000366003190112610439576020611106612b2b565b3461043957600036600319011261043957602060405160468152f35b3461043957600036600319011261043957602060405160008152f35b346104395760003660031901126104395760c06040516000815260006020820152600060408201526000606082015260006080820152600060a0820152f35b34610439576000366003190112610439576040517f00000000000000000000000000000000000000000000000000000000000000006001600160a01b03168152602090f35b346104395760003660031901126104395760ff6006541660405160058210156105b5576020918152f35b34610439576000366003190112610439576020604051601e8152f35b34610439576000366003190112610439576040517f00000000000000000000000000000000000000000000000000000000000000006001600160a01b03168152602090f35b6120da565b6120f6565b346104395760003660031901126104395760206114896125d5565b604051908152f35b34610439576000366003190112610439576020600b54604051908152f35b34610439576040366003190112610439576114c861206e565b60ff6006541660058110156105b5576003036114f7576114ec906024359033612d21565b602060405160018152f35b6040516377d87fb560e11b8152600490fd5b3461043957600036600319011261043957602060405160038152f35b34610439576000366003190112610439576040516714adf4b7320334b9601d1b8152602090f35b346104395760003660031901126104395760065460405160089190911c6001600160a01b03168152602090f35b346104395760003660031901126104395760206114896125b4565b346104395760003660031901126104395760405160009060045460018160011c9060018316928315611672575b602093848410811461165c5783865290811561163c57506001146115fc575b6109c3846115f081880382611fe7565b6040519182918261200a565b919350600460005283600020916000925b82841061162957505050816109c3936115f092820101936115e0565b805485850187015292850192810161160d565b60ff1916858501525050151560051b82010191506115f0816109c36115e0565b634e487b7160e01b600052602260045260246000fd5b91607f16916115c1565b34610439576000366003190112610439576020600954604051908152f35b34610439576000366003190112610439576020611106612aac565b3461043957600036600319011261043957604051676765c793fa10079d601b1b8152602090f35b34610439576000366003190112610439576020600754604051908152f35b34610439576020366003190112610439576001600160a01b0361171b61206e565b16600052600e60205260206040600020548015908115611741575b506040519015158152f35b9050431182611736565b34610439576000366003190112610439576020600c54604051908152f35b3461043957602036600319011261043957602061148961178761206e565b612599565b612053565b3461043957600036600319011261043957602060405160648152f35b34610439576020366003190112610439576004356001600160a01b0381168103610439576117e46020916117df6127ed565b61281d565b600160008051602061327a83398151915255604051908152f35b346104395760003660031901126104395760c0611819612417565b604080516001600160a01b03909716875260208701959095526001600160701b039384169486019490945291166060840152608083015260a0820152f35b34610439576000366003190112610439576040517f00000000000000000000000000000000000000000000000000000000000000006001600160a01b03168152602090f35b34610439576020366003190112610439576004356001600160a01b0381168103610439576117e46020916118ce6127ed565b612a2d565b346104395760203660031901126104395760206114896118f161206e565b6123a1565b3461043957600036600319011261043957602061148961230a565b346104395760003660031901126104395760206114896122e0565b34610439576000366003190112610439576020611489611951600954600a5490612281565b600b5490612281565b34610439576000366003190112610439576119736127ed565b61197b612aac565b156119f757600b5480156119e5576020906000600b5561199d81600a54612281565b600a556040518181527f6a0c33aa8c816cdfa77b389739210eadb9f9a653e441ee697d9a29d61a9884a1833392a2600160008051602061327a83398151915255604051908152f35b6040516312d37ee560e31b8152600490fd5b604051638a430e9f60e01b8152600490fd5b3461043957600036600319011261043957602060405161dead8152f35b3461043957600036600319011261043957611a3f6127ed565b60206117e47f00000000000000000000000000000000000000000000000000000000000000006001600160a01b0316612a2d565b34610439576020366003190112610439576109c36109a660043561228e565b61209a565b346104395760003660031901126104395760206040517f00000000000000000000000000000000000000000000000000000000000000008152f35b34610439576020366003190112610439576001600160a01b03611af361206e565b16600052600e6020526020604060002054604051908152f35b34610439576000366003190112610439576020600854604051908152f35b3461043957600036600319011261043957611b436127ed565b60206117e47f00000000000000000000000000000000000000000000000000000000000000006001600160a01b031661281d565b346104395760003660031901126104395760206040517f00000000000000000000000000000000000000000000000000000000000000008152f35b3461043957600036600319011261043957602060405160128152f35b3461043957606036600319011261043957611be761206e565b611bef612084565b6044359060ff6006541660058110156105b55760038103611cd4575b506001600160a01b038316600081815260016020908152604080832033845290915290205493906000198510611c47575b506114ec9350612d21565b838510611cb3578015611c9a573315611c81576114ec94849160005260016020526040600020336000526020520360406000205584611c3c565b604051634a1406b160e11b815260006004820152602490fd5b60405163e602df0560e01b815260006004820152602490fd5b604051637dc7a0d960e11b815280611cd0868833600485016130ad565b0390fd5b60021480611ce8575b156114f75783611c0b565b506001600160a01b0383163014611cdd565b3461043957600036600319011261043957602060405162ed4e008152f35b34610439576000366003190112610439576040611d3361268a565b82519182526020820152f35b34610439576000366003190112610439576020600254604051908152f35b346104395760003660031901126104395760408051908101906001600160401b03821181831017611dac576109c39160405260048152630c0ccc4d60e21b60208201526040519182918261200a565b634e487b7160e01b600052604160045260246000fd5b3461043957604036600319011261043957611ddb61206e565b602435903315611c9a576001600160a01b0316908115611c8157336000526001602052604060002082600052602052806040600020556040519081527f8c5be1e5ebec7d5bd14f71427d1e84f3dd0314c0f7b2291e5b200ac8c7c3b92560203392a3602060405160018152f35b346104395760003660031901126104395760405160009060035460018160011c9060018316928315611ee3575b602093848410811461165c5783865290811561163c5750600114611ea3576109c3846115f081880382611fe7565b919350600360005283600020916000925b828410611ed057505050816109c3936115f092820101936115e0565b8054858501870152928501928101611eb4565b91607f1691611e75565b346104395760003660031901126104395760405160009060055460018160011c9060018316928315611f88575b602093848410811461165c5783865290811561163c5750600114611f48576109c3846115f081880382611fe7565b919350600560005283600020916000925b828410611f7557505050816109c3936115f092820101936115e0565b8054858501870152928501928101611f59565b91607f1691611f1a565b34610439576000366003190112610439577f00000000000000000000000000000000000000000000000000000000000000006001600160a01b03168152602090f35b6001600160401b038111611dac57604052565b601f909101601f19168101906001600160401b03821190821017611dac57604052565b6020808252825181830181905290939260005b82811061203f57505060409293506000838284010152601f8019910116010190565b81810186015184820160400152850161201d565b346104395760003660031901126104395760206114896121a6565b600435906001600160a01b038216820361043957565b602435906001600160a01b038216820361043957565b34610439576000366003190112610439576020611489612207565b34610439576020366003190112610439576120ce61206e565b50602060405160008152f35b3461043957600036600319011261043957602060405160028152f35b3461043957600036600319011261043957602060405160ff7f0000000000000000000000000000000000000000000000000000000000000000168152f35b9190820391821161214157565b634e487b7160e01b600052601160045260246000fd5b3461043957600036600319011261043957602060405160018152f35b8181029291811591840414171561214157565b8115612190570490565b634e487b7160e01b600052601260045260246000fd5b60ff6006541660058110156105b5576003146122015760095461271090818102918183041490151715612141576121fe907f000000000000000000000000000000000000000000000000000000000000000090612186565b90565b61271090565b60ff6006541660058110156105b55760031461224857612225612786565b670de0b6b3a764000091828102928184041490151715612141576121fe91612186565b61225061268a565b90801561227a57670de0b6b3a764000091828102928184041490151715612141576121fe91612186565b5050600090565b9190820180921161214157565b60ff6006541660058110156105b5576001036122d45780156122d4576122ce916121fe6122c86122bd846128d5565b9197929390976129cf565b96612281565b93612134565b50600090600090600090565b6122f2611951600954600a5490612281565b80471115612304576121fe9047612134565b50600090565b6006546001600160a01b039060081c8116801561227a576020906024604051809481936370a0823160e01b835260048301527f0000000000000000000000000000000000000000000000000000000000000000165afa90811561104c57600091612372575090565b90506020813d602011612399575b8161238d60209383611fe7565b81010312610439575190565b3d9150612380565b6001600160a01b03166000908152600e6020526040902054801561230457600181018091116121415790565b51906001600160701b038216820361043957565b90816060910312610439576123f5816123cd565b916040612404602084016123cd565b92015163ffffffff811681036104395790565b60065460081c6001600160a01b0390811691821561258857818316916040928351926318160ddd60e01b84526020938481600481865afa90811561257d57600091612550575b5094805193630240bc6b60e21b8552606085600481875afa80156125455760009560009161250f575b50949584600052600081528083600020549560248551809581936370a0823160e01b835260048301527f0000000000000000000000000000000000000000000000000000000000000000165afa92831561250557506000926124e757505090565b90809250813d83116124fe575b61238d8183611fe7565b503d6124f4565b513d6000823e3d90fd5b905061253491955060603d60601161253e575b61252c8183611fe7565b8101906123e1565b5094909438612486565b503d612522565b82513d6000823e3d90fd5b90508481813d8311612576575b6125678183611fe7565b8101031261043957513861245d565b503d61255d565b86513d6000823e3d90fd5b600092508291508190819081908190565b6001600160a01b031660009081526020819052604090205490565b60ff6006541660058110156105b5576003036125d057600b5490565b600090565b60ff6006541660058110156105b5576001036125d0576121fe6009547f0000000000000000000000000000000000000000000000000000000000000000612134565b60ff6006541660058110156105b5576001036122d45780156122d45761265290611187611181612645612786565b91909361117b8386612173565b9061265c82612cea565b50506126688184612134565b91565b9081602091031261043957516001600160a01b03811681036104395790565b60065460081c6001600160a01b039081169190821561277d57604051630240bc6b60e21b815290606082600481875afa93841561104c5760009260009561274e575b5090602060049260405193848092630dfe168160e01b82525afa91821561104c5760009261271d575b5016300361270d576001600160701b03908116921690565b6001600160701b03928316921690565b61274091925060203d602011612747575b6127388183611fe7565b81019061266b565b90386126f5565b503d61272e565b600492919550602093506127709060603d60601161253e5761252c8183611fe7565b50939093959192506126cc565b50600091508190565b6127b36009547f000000000000000000000000000000000000000000000000000000000000000090612281565b906121fe6127c660075460085490612281565b7f000000000000000000000000000000000000000000000000000000000000000090612281565b60008051602061327a833981519152600281541461280b5760029055565b604051633ee5aeb560e01b8152600490fd5b906001600160a01b037f0000000000000000000000000000000000000000000000000000000000000000811633036128c45760ff6006541660058110156105b55760030361051357821680156128b257600b549283156119e55783612886916000600b55612e6c565b7fd046302bdc39599e60a5981e59227dcd1c643f512f56f2e984390c3ac6eadedb6020604051858152a2565b60405163d92e233d60e01b8152600490fd5b6040516282b42960e81b8152600490fd5b906129026009547f0000000000000000000000000000000000000000000000000000000000000000612134565b9182156129bd5761291d61291582612cea565b505082612134565b92808411612939575091905b61293283612cea565b9091509091565b92505061295861294883613146565b6126ac6127108509151590612281565b91825b61297b575b5061297561296d83612cea565b505083612134565b90612929565b918261298961296d83612cea565b11156129b75760001981019081116129a257918261295b565b60246000634e487b7160e01b81526011600452fd5b91612960565b60405163c83ba27d60e01b8152600490fd5b6129db81600954612281565b7f000000000000000000000000000000000000000000000000000000000000000014612a2657612a206111876121fe92612a13612786565b93909161117b8584612173565b90612186565b5060075490565b906001600160a01b037f0000000000000000000000000000000000000000000000000000000000000000811633036128c457821680156128b257600a549283156119e55783612a80916000600a55612e6c565b7f0f58cb6262d88971b87878468debb7bc81f1714be597710e16a9fb84c66ff7b56020604051858152a2565b60ff6006541660058110156105b55760011480612b20575b80612ae9575b80612ad25790565b50600c5462278d0081018091116121415742101590565b507f000000000000000000000000000000000000000000000000000000000000000062ed4e00810180911161214157421015612aca565b50600b541515612ac4565b60065460081c6001600160a01b0390811690811561227a57604080516318160ddd60e01b815290926020918281600481855afa908115612c8057600091612c8b575b50612c48578351630240bc6b60e21b8152606081600481855afa908115612c8057600090600092612c5d575b506001600160701b039081161580159290612c51575b5050612c4857612bbe81612599565b612c4857819060248551809581936370a0823160e01b835260048301527f0000000000000000000000000000000000000000000000000000000000000000165afa9283156125055750600092612c1a575b50506125d057600190565b90809250813d8311612c41575b612c318183611fe7565b8101031261043957513880612c0f565b503d612c27565b50505050600090565b16151590503880612baf565b9050612c78915060603d60601161253e5761252c8183611fe7565b509038612b99565b85513d6000823e3d90fd5b90508281813d8311612cb1575b612ca28183611fe7565b81010312610439575138612b6d565b503d612c98565b908015612cd757612ccf6001916000198401612186565b019015150290565b634e487b7160005260126020526024601cfd5b80156122d457806127106064612d02612d0c946131b0565b9209151590612281565b90612d16826130cb565b906121fe8284612134565b916001600160a01b03808416928315612e535716928315612e3a5760ff600654166005811015806105b557600182148015612e2d575b15612df35750503083148015612dea575b156114f7575b60009083825281602052604082205490838210612dcd575091604082827fddf252ad1be2c89b69c2b068fc378daa952ba7f163c4a11628f55a4df523b3ef958760209652828652038282205586815220818154019055604051908152a3565b611cd08460405193849363391434e360e21b8552600485016130ad565b50308414612d68565b6105b55760028103612e0d5750308303610513575b612d6e565b600303612d6e57308403612e0857604051634e46966960e11b8152600490fd5b5050600060048214612d57565b60405163ec442f0560e01b815260006004820152602490fd5b604051634b637e8f60e11b815260006004820152602490fd5b814710612ed057604051602081016001600160401b03811182821017611dac57604052600080809481948280955260018060a01b03165af115612eac5750565b3d15612ebe57604051903d90823e3d90fd5b60405163d6bda27560e01b8152600490fd5b60405163cf47918160e01b815247600482015260248101839052604490fd5b60065460081c6001600160a01b0390811690811561227a576040908151926318160ddd60e01b84526020938481600481855afa90811561307557600091613080575b50612c4857612f3f81612599565b612c48578251630240bc6b60e21b815290606082600481845afa9485156130755760009260009661304d575b508451630dfe168160e01b8152908082600481865afa91821561257d5760009261302b575b50806004929387519384809263d21220a760e01b82525afa958615612505575060009561300c575b5050821630149081612ff9575b50612ff1571630149081612fde575b506125d057600190565b6001600160701b03161515905038612fd4565b505050600090565b6001600160701b03161515905038612fc5565b613023929550803d10612747576127388183611fe7565b923880612fb8565b600492506130468291823d8411612747576127388183611fe7565b9250612f90565b90955061306a91925060603d60601161253e5761252c8183611fe7565b509190919438612f6b565b84513d6000823e3d90fd5b90508481813d83116130a6575b6130978183611fe7565b81010312610439575138612f31565b503d61308d565b604091949392606082019560018060a01b0316825260208201520152565b600019601e8209601e82029081808210910390808203911461313d57806064111561312a576064601e7f5c28f5c28f5c28f5c28f5c28f5c28f5c28f5c28f5c28f5c28f5c28f5c28f5c29940990828211900360fe1b910360021c170290565b634e487b7160005260116020526024601cfd5b50606491500490565b612710600019818309818302918280831092039180830392146131a5576126ac908282111561312a577fa902ffe58553adaa902ffe58553adaa902ffe58553adaa902ffe58553adaa903940990828211900360fe1b910360021c170290565b50506126ac91500490565b60001960648209606482029081808210910390808203911461320f576127108181111561312a5760647fbc01a36e2eb1c432ca57a786c226809d495182a9930be0ded288ce703afb7e91940990828211900360fc1b910360041c170290565b506127109150049056fe3a779de46631dd65116ae538600f1bc3c338200c6aef638429b5de43301c28f771aa8c3702dbbc54247a4e6446450e64a46250dd72707a247ddb01d72eaef4456ff5f8cb3bbdee941e910591101be7dcb3bd64213bbc4ac9e994c9d7b0ef74cd9b779b17422d0df92223018b32b4d1fa46e071723d6817e2486d003becc55f00a2646970667358221220cca23fa0287261bceebd6ef793d4511958783fe8949d44338ebb72d152ae70f764736f6c63430008180033",
  "linkReferences": {},
  "deployedLinkReferences": {}
}