{
  "_format": "hh-sol-artifact-1",
  "contractName": "LaunchTokenWhitelistTaxed",
  "sourceName": "contracts/LaunchTokenWhitelistTaxed.sol",
  "abi": [
    {
      "inputs": [
        {
          "components": [
            {
              "internalType": "string",
              "name": "name",
              "type": "string"
            },
            {
              "internalType": "string",
              "name": "symbol",
              "type": "string"
            },
            {
              "internalType": "string",
              "name": "metadataURI",
              "type": "string"
            },
            {
              "internalType": "address",
              "name": "creator",
              "type": "address"
            },
            {
              "internalType": "address",
              "name": "factory",
              "type": "address"
            },
            {
              "internalType": "address",
              "name": "protocolFeeRecipient",
              "type": "address"
            },
            {
              "internalType": "address",
              "name": "router",
              "type": "address"
            },
            {
              "internalType": "uint256",
              "name": "graduationQuoteReserve",
              "type": "uint256"
            },
            {
              "internalType": "uint256",
              "name": "whitelistThreshold",
              "type": "uint256"
            },
            {
              "internalType": "uint256",
              "name": "whitelistSlotSize",
              "type": "uint256"
            },
            {
              "internalType": "uint256",
              "name": "whitelistOpensAt",
              "type": "uint256"
            },
            {
              "internalType": "address[]",
              "name": "whitelistAddresses",
              "type": "address[]"
            },
            {
              "internalType": "uint8",
              "name": "launchModeId",
              "type": "uint8"
            },
            {
              "internalType": "uint16",
              "name": "taxBps",
              "type": "uint16"
            },
            {
              "internalType": "uint16",
              "name": "burnShareBps",
              "type": "uint16"
            },
            {
              "internalType": "uint16",
              "name": "treasuryShareBps",
              "type": "uint16"
            },
            {
              "internalType": "address",
              "name": "treasuryWallet",
              "type": "address"
            }
          ],
          "internalType": "struct LaunchTokenWhitelistTaxed.TaxedConstructorArgs",
          "name": "args",
          "type": "tuple"
        }
      ],
      "stateMutability": "nonpayable",
      "type": "constructor"
    },
    {
      "inputs": [],
      "name": "CreatorFeeSweepUnavailable",
      "type": "error"
    },
    {
      "inputs": [],
      "name": "DuplicateWhitelistAddress",
      "type": "error"
    },
    {
      "inputs": [
        {
          "internalType": "address",
          "name": "spender",
          "type": "address"
        },
        {
          "internalType": "uint256",
          "name": "allowance",
          "type": "uint256"
        },
        {
          "internalType": "uint256",
          "name": "needed",
          "type": "uint256"
        }
      ],
      "name": "ERC20InsufficientAllowance",
      "type": "error"
    },
    {
      "inputs": [
        {
          "internalType": "address",
          "name": "sender",
          "type": "address"
        },
        {
          "internalType": "uint256",
          "name": "balance",
          "type": "uint256"
        },
        {
          "internalType": "uint256",
          "name": "needed",
          "type": "uint256"
        }
      ],
      "name": "ERC20InsufficientBalance",
      "type": "error"
    },
    {
      "inputs": [
        {
          "internalType": "address",
          "name": "approver",
          "type": "address"
        }
      ],
      "name": "ERC20InvalidApprover",
      "type": "error"
    },
    {
      "inputs": [
        {
          "internalType": "address",
          "name": "receiver",
          "type": "address"
        }
      ],
      "name": "ERC20InvalidReceiver",
      "type": "error"
    },
    {
      "inputs": [
        {
          "internalType": "address",
          "name": "sender",
          "type": "address"
        }
      ],
      "name": "ERC20InvalidSender",
      "type": "error"
    },
    {
      "inputs": [
        {
          "internalType": "address",
          "name": "spender",
          "type": "address"
        }
      ],
      "name": "ERC20InvalidSpender",
      "type": "error"
    },
    {
      "inputs": [],
      "name": "FailedCall",
      "type": "error"
    },
    {
      "inputs": [],
      "name": "GraduationAlreadyTriggered",
      "type": "error"
    },
    {
      "inputs": [
        {
          "internalType": "uint256",
          "name": "balance",
          "type": "uint256"
        },
        {
          "internalType": "uint256",
          "name": "needed",
          "type": "uint256"
        }
      ],
      "name": "InsufficientBalance",
      "type": "error"
    },
    {
      "inputs": [],
      "name": "InvalidGraduationConfig",
      "type": "error"
    },
    {
      "inputs": [],
      "name": "InvalidRecipient",
      "type": "error"
    },
    {
      "inputs": [],
      "name": "InvalidState",
      "type": "error"
    },
    {
      "inputs": [],
      "name": "InvalidTaxConfig",
      "type": "error"
    },
    {
      "inputs": [],
      "name": "InvalidWhitelistAddressCount",
      "type": "error"
    },
    {
      "inputs": [],
      "name": "InvalidWhitelistCommitAmount",
      "type": "error"
    },
    {
      "inputs": [],
      "name": "InvalidWhitelistOpenTime",
      "type": "error"
    },
    {
      "inputs": [],
      "name": "InvalidWhitelistSeatCount",
      "type": "error"
    },
    {
      "inputs": [],
      "name": "InvalidWhitelistSlotSize",
      "type": "error"
    },
    {
      "inputs": [],
      "name": "InvalidWhitelistThreshold",
      "type": "error"
    },
    {
      "inputs": [],
      "name": "NothingToClaim",
      "type": "error"
    },
    {
      "inputs": [],
      "name": "PairPolluted",
      "type": "error"
    },
    {
      "inputs": [],
      "name": "ReentrancyGuardReentrantCall",
      "type": "error"
    },
    {
      "inputs": [],
      "name": "SellCooldownActive",
      "type": "error"
    },
    {
      "inputs": [],
      "name": "SlippageExceeded",
      "type": "error"
    },
    {
      "inputs": [],
      "name": "TransferDisabledPreGraduation",
      "type": "error"
    },
    {
      "inputs": [],
      "name": "Unauthorized",
      "type": "error"
    },
    {
      "inputs": [],
      "name": "UnauthorizedFactoryCaller",
      "type": "error"
    },
    {
      "inputs": [],
      "name": "UnauthorizedFactoryDeployment",
      "type": "error"
    },
    {
      "inputs": [],
      "name": "UnauthorizedWhitelistTaxedFactoryDeployment",
      "type": "error"
    },
    {
      "inputs": [],
      "name": "WhitelistAddressNotApproved",
      "type": "error"
    },
    {
      "inputs": [],
      "name": "WhitelistAllocationUnavailable",
      "type": "error"
    },
    {
      "inputs": [],
      "name": "WhitelistAlreadyCommitted",
      "type": "error"
    },
    {
      "inputs": [],
      "name": "WhitelistNotActive",
      "type": "error"
    },
    {
      "inputs": [],
      "name": "WhitelistRefundUnavailable",
      "type": "error"
    },
    {
      "inputs": [],
      "name": "WhitelistSeatUnavailable",
      "type": "error"
    },
    {
      "inputs": [],
      "name": "WrappedQuoteTransferFailed",
      "type": "error"
    },
    {
      "inputs": [],
      "name": "ZeroAddress",
      "type": "error"
    },
    {
      "inputs": [],
      "name": "ZeroAmount",
      "type": "error"
    },
    {
      "anonymous": false,
      "inputs": [
        {
          "indexed": true,
          "internalType": "address",
          "name": "owner",
          "type": "address"
        },
        {
          "indexed": true,
          "internalType": "address",
          "name": "spender",
          "type": "address"
        },
        {
          "indexed": false,
          "internalType": "uint256",
          "name": "value",
          "type": "uint256"
        }
      ],
      "name": "Approval",
      "type": "event"
    },
    {
      "anonymous": false,
      "inputs": [
        {
          "indexed": true,
          "internalType": "address",
          "name": "buyer",
          "type": "address"
        },
        {
          "indexed": false,
          "internalType": "uint256",
          "name": "grossQuoteIn",
          "type": "uint256"
        },
        {
          "indexed": false,
          "internalType": "uint256",
          "name": "netQuoteIn",
          "type": "uint256"
        },
        {
          "indexed": false,
          "internalType": "uint256",
          "name": "protocolFee",
          "type": "uint256"
        },
        {
          "indexed": false,
          "internalType": "uint256",
          "name": "creatorFee",
          "type": "uint256"
        },
        {
          "indexed": false,
          "internalType": "uint256",
          "name": "refundAmount",
          "type": "uint256"
        },
        {
          "indexed": false,
          "internalType": "uint256",
          "name": "tokenOut",
          "type": "uint256"
        },
        {
          "indexed": false,
          "internalType": "uint256",
          "name": "newCurveQuoteReserve",
          "type": "uint256"
        },
        {
          "indexed": false,
          "internalType": "uint256",
          "name": "newSaleTokenReserve",
          "type": "uint256"
        }
      ],
      "name": "BuyExecuted",
      "type": "event"
    },
    {
      "anonymous": false,
      "inputs": [
        {
          "indexed": true,
          "internalType": "address",
          "name": "recipient",
          "type": "address"
        },
        {
          "indexed": false,
          "internalType": "uint256",
          "name": "amount",
          "type": "uint256"
        }
      ],
      "name": "CreatorFeesClaimed",
      "type": "event"
    },
    {
      "anonymous": false,
      "inputs": [
        {
          "indexed": true,
          "internalType": "address",
          "name": "caller",
          "type": "address"
        },
        {
          "indexed": false,
          "internalType": "uint256",
          "name": "amount",
          "type": "uint256"
        }
      ],
      "name": "CreatorFeesSwept",
      "type": "event"
    },
    {
      "anonymous": false,
      "inputs": [
        {
          "indexed": true,
          "internalType": "address",
          "name": "pair",
          "type": "address"
        },
        {
          "indexed": false,
          "internalType": "uint256",
          "name": "tokenAmount",
          "type": "uint256"
        },
        {
          "indexed": false,
          "internalType": "uint256",
          "name": "quoteAmountContributed",
          "type": "uint256"
        },
        {
          "indexed": false,
          "internalType": "uint256",
          "name": "preloadedQuoteAmount",
          "type": "uint256"
        },
        {
          "indexed": false,
          "internalType": "uint256",
          "name": "liquidityBurned",
          "type": "uint256"
        }
      ],
      "name": "Graduated",
      "type": "event"
    },
    {
      "anonymous": false,
      "inputs": [
        {
          "indexed": true,
          "internalType": "address",
          "name": "recipient",
          "type": "address"
        },
        {
          "indexed": false,
          "internalType": "uint256",
          "name": "amount",
          "type": "uint256"
        }
      ],
      "name": "ProtocolFeesClaimed",
      "type": "event"
    },
    {
      "anonymous": false,
      "inputs": [
        {
          "indexed": true,
          "internalType": "address",
          "name": "seller",
          "type": "address"
        },
        {
          "indexed": false,
          "internalType": "uint256",
          "name": "tokenIn",
          "type": "uint256"
        },
        {
          "indexed": false,
          "internalType": "uint256",
          "name": "grossQuoteOut",
          "type": "uint256"
        },
        {
          "indexed": false,
          "internalType": "uint256",
          "name": "netQuoteOut",
          "type": "uint256"
        },
        {
          "indexed": false,
          "internalType": "uint256",
          "name": "protocolFee",
          "type": "uint256"
        },
        {
          "indexed": false,
          "internalType": "uint256",
          "name": "creatorFee",
          "type": "uint256"
        },
        {
          "indexed": false,
          "internalType": "uint256",
          "name": "newCurveQuoteReserve",
          "type": "uint256"
        },
        {
          "indexed": false,
          "internalType": "uint256",
          "name": "newSaleTokenReserve",
          "type": "uint256"
        }
      ],
      "name": "SellExecuted",
      "type": "event"
    },
    {
      "anonymous": false,
      "inputs": [
        {
          "indexed": true,
          "internalType": "enum LaunchTokenBase.LaunchState",
          "name": "previousState",
          "type": "uint8"
        },
        {
          "indexed": true,
          "internalType": "enum LaunchTokenBase.LaunchState",
          "name": "newState",
          "type": "uint8"
        }
      ],
      "name": "StateTransition",
      "type": "event"
    },
    {
      "anonymous": false,
      "inputs": [
        {
          "indexed": true,
          "internalType": "address",
          "name": "from",
          "type": "address"
        },
        {
          "indexed": true,
          "internalType": "address",
          "name": "to",
          "type": "address"
        },
        {
          "indexed": false,
          "internalType": "uint256",
          "name": "grossAmount",
          "type": "uint256"
        },
        {
          "indexed": false,
          "internalType": "uint256",
          "name": "taxAmount",
          "type": "uint256"
        },
        {
          "indexed": false,
          "internalType": "uint256",
          "name": "burnAmount",
          "type": "uint256"
        },
        {
          "indexed": false,
          "internalType": "uint256",
          "name": "treasuryAmount",
          "type": "uint256"
        }
      ],
      "name": "TaxApplied",
      "type": "event"
    },
    {
      "anonymous": false,
      "inputs": [
        {
          "indexed": true,
          "internalType": "address",
          "name": "from",
          "type": "address"
        },
        {
          "indexed": true,
          "internalType": "address",
          "name": "to",
          "type": "address"
        },
        {
          "indexed": false,
          "internalType": "uint256",
          "name": "value",
          "type": "uint256"
        }
      ],
      "name": "Transfer",
      "type": "event"
    },
    {
      "anonymous": false,
      "inputs": [
        {
          "indexed": true,
          "internalType": "address",
          "name": "account",
          "type": "address"
        },
        {
          "indexed": false,
          "internalType": "uint256",
          "name": "tokenAmount",
          "type": "uint256"
        }
      ],
      "name": "WhitelistAllocationClaimed",
      "type": "event"
    },
    {
      "anonymous": false,
      "inputs": [
        {
          "indexed": false,
          "internalType": "uint256",
          "name": "threshold",
          "type": "uint256"
        },
        {
          "indexed": false,
          "internalType": "uint256",
          "name": "slotSize",
          "type": "uint256"
        },
        {
          "indexed": false,
          "internalType": "uint256",
          "name": "seatCount",
          "type": "uint256"
        },
        {
          "indexed": false,
          "internalType": "uint256",
          "name": "opensAt",
          "type": "uint256"
        },
        {
          "indexed": false,
          "internalType": "uint256",
          "name": "deadline",
          "type": "uint256"
        }
      ],
      "name": "WhitelistConfigured",
      "type": "event"
    },
    {
      "anonymous": false,
      "inputs": [
        {
          "indexed": false,
          "internalType": "uint256",
          "name": "committedTotal",
          "type": "uint256"
        },
        {
          "indexed": false,
          "internalType": "uint256",
          "name": "seatsFilled",
          "type": "uint256"
        }
      ],
      "name": "WhitelistExpired",
      "type": "event"
    },
    {
      "anonymous": false,
      "inputs": [
        {
          "indexed": false,
          "internalType": "uint256",
          "name": "grossCommitted",
          "type": "uint256"
        },
        {
          "indexed": false,
          "internalType": "uint256",
          "name": "netQuoteAdded",
          "type": "uint256"
        },
        {
          "indexed": false,
          "internalType": "uint256",
          "name": "protocolFee",
          "type": "uint256"
        },
        {
          "indexed": false,
          "internalType": "uint256",
          "name": "creatorFee",
          "type": "uint256"
        },
        {
          "indexed": false,
          "internalType": "uint256",
          "name": "seatsFilled",
          "type": "uint256"
        },
        {
          "indexed": false,
          "internalType": "uint256",
          "name": "tokensPerSeat",
          "type": "uint256"
        },
        {
          "indexed": false,
          "internalType": "uint256",
          "name": "reservedTokenAmount",
          "type": "uint256"
        }
      ],
      "name": "WhitelistFinalized",
      "type": "event"
    },
    {
      "anonymous": false,
      "inputs": [
        {
          "indexed": true,
          "internalType": "address",
          "name": "account",
          "type": "address"
        },
        {
          "indexed": false,
          "internalType": "uint256",
          "name": "amount",
          "type": "uint256"
        }
      ],
      "name": "WhitelistRefundClaimed",
      "type": "event"
    },
    {
      "anonymous": false,
      "inputs": [
        {
          "indexed": true,
          "internalType": "address",
          "name": "account",
          "type": "address"
        },
        {
          "indexed": false,
          "internalType": "uint256",
          "name": "seatNumber",
          "type": "uint256"
        },
        {
          "indexed": false,
          "internalType": "uint256",
          "name": "amount",
          "type": "uint256"
        },
        {
          "indexed": false,
          "internalType": "uint256",
          "name": "committedTotal",
          "type": "uint256"
        }
      ],
      "name": "WhitelistSeatCommitted",
      "type": "event"
    },
    {
      "inputs": [],
      "name": "BPS_DENOMINATOR",
      "outputs": [
        {
          "internalType": "uint256",
          "name": "",
          "type": "uint256"
        }
      ],
      "stateMutability": "view",
      "type": "function"
    },
    {
      "inputs": [],
      "name": "CREATOR_FEE_BPS",
      "outputs": [
        {
          "internalType": "uint256",
          "name": "",
          "type": "uint256"
        }
      ],
      "stateMutability": "view",
      "type": "function"
    },
    {
      "inputs": [],
      "name": "CREATOR_FEE_SWEEP_MIN_AGE",
      "outputs": [
        {
          "internalType": "uint256",
          "name": "",
          "type": "uint256"
        }
      ],
      "stateMutability": "view",
      "type": "function"
    },
    {
      "inputs": [],
      "name": "CREATOR_FEE_SWEEP_MIN_INACTIVITY",
      "outputs": [
        {
          "internalType": "uint256",
          "name": "",
          "type": "uint256"
        }
      ],
      "stateMutability": "view",
      "type": "function"
    },
    {
      "inputs": [],
      "name": "DEAD_ADDRESS",
      "outputs": [
        {
          "internalType": "address",
          "name": "",
          "type": "address"
        }
      ],
      "stateMutability": "view",
      "type": "function"
    },
    {
      "inputs": [],
      "name": "LP_TOKEN_RESERVE",
      "outputs": [
        {
          "internalType": "uint256",
          "name": "",
          "type": "uint256"
        }
      ],
      "stateMutability": "view",
      "type": "function"
    },
    {
      "inputs": [],
      "name": "MAX_SEATS",
      "outputs": [
        {
          "internalType": "uint256",
          "name": "",
          "type": "uint256"
        }
      ],
      "stateMutability": "view",
      "type": "function"
    },
    {
      "inputs": [],
      "name": "MAX_WHITELIST_DELAY",
      "outputs": [
        {
          "internalType": "uint256",
          "name": "",
          "type": "uint256"
        }
      ],
      "stateMutability": "view",
      "type": "function"
    },
    {
      "inputs": [],
      "name": "MODE_STANDARD_0314",
      "outputs": [
        {
          "internalType": "uint8",
          "name": "",
          "type": "uint8"
        }
      ],
      "stateMutability": "view",
      "type": "function"
    },
    {
      "inputs": [],
      "name": "MODE_TAXED_1314",
      "outputs": [
        {
          "internalType": "uint8",
          "name": "",
          "type": "uint8"
        }
      ],
      "stateMutability": "view",
      "type": "function"
    },
    {
      "inputs": [],
      "name": "MODE_TAXED_2314",
      "outputs": [
        {
          "internalType": "uint8",
          "name": "",
          "type": "uint8"
        }
      ],
      "stateMutability": "view",
      "type": "function"
    },
    {
      "inputs": [],
      "name": "MODE_TAXED_3314",
      "outputs": [
        {
          "internalType": "uint8",
          "name": "",
          "type": "uint8"
        }
      ],
      "stateMutability": "view",
      "type": "function"
    },
    {
      "inputs": [],
      "name": "MODE_TAXED_4314",
      "outputs": [
        {
          "internalType": "uint8",
          "name": "",
          "type": "uint8"
        }
      ],
      "stateMutability": "view",
      "type": "function"
    },
    {
      "inputs": [],
      "name": "MODE_TAXED_5314",
      "outputs": [
        {
          "internalType": "uint8",
          "name": "",
          "type": "uint8"
        }
      ],
      "stateMutability": "view",
      "type": "function"
    },
    {
      "inputs": [],
      "name": "MODE_TAXED_6314",
      "outputs": [
        {
          "internalType": "uint8",
          "name": "",
          "type": "uint8"
        }
      ],
      "stateMutability": "view",
      "type": "function"
    },
    {
      "inputs": [],
      "name": "MODE_TAXED_7314",
      "outputs": [
        {
          "internalType": "uint8",
          "name": "",
          "type": "uint8"
        }
      ],
      "stateMutability": "view",
      "type": "function"
    },
    {
      "inputs": [],
      "name": "MODE_TAXED_8314",
      "outputs": [
        {
          "internalType": "uint8",
          "name": "",
          "type": "uint8"
        }
      ],
      "stateMutability": "view",
      "type": "function"
    },
    {
      "inputs": [],
      "name": "MODE_TAXED_9314",
      "outputs": [
        {
          "internalType": "uint8",
          "name": "",
          "type": "uint8"
        }
      ],
      "stateMutability": "view",
      "type": "function"
    },
    {
      "inputs": [],
      "name": "MODE_WHITELIST_B314",
      "outputs": [
        {
          "internalType": "uint8",
          "name": "",
          "type": "uint8"
        }
      ],
      "stateMutability": "view",
      "type": "function"
    },
    {
      "inputs": [],
      "name": "MODE_WHITELIST_TAX_F314",
      "outputs": [
        {
          "internalType": "uint8",
          "name": "",
          "type": "uint8"
        }
      ],
      "stateMutability": "view",
      "type": "function"
    },
    {
      "inputs": [],
      "name": "PROTOCOL_FEE_BPS",
      "outputs": [
        {
          "internalType": "uint256",
          "name": "",
          "type": "uint256"
        }
      ],
      "stateMutability": "view",
      "type": "function"
    },
    {
      "inputs": [],
      "name": "SALE_TOKEN_RESERVE",
      "outputs": [
        {
          "internalType": "uint256",
          "name": "",
          "type": "uint256"
        }
      ],
      "stateMutability": "view",
      "type": "function"
    },
    {
      "inputs": [],
      "name": "SLOT_01_BNB",
      "outputs": [
        {
          "internalType": "uint256",
          "name": "",
          "type": "uint256"
        }
      ],
      "stateMutability": "view",
      "type": "function"
    },
    {
      "inputs": [],
      "name": "SLOT_02_BNB",
      "outputs": [
        {
          "internalType": "uint256",
          "name": "",
          "type": "uint256"
        }
      ],
      "stateMutability": "view",
      "type": "function"
    },
    {
      "inputs": [],
      "name": "SLOT_05_BNB",
      "outputs": [
        {
          "internalType": "uint256",
          "name": "",
          "type": "uint256"
        }
      ],
      "stateMutability": "view",
      "type": "function"
    },
    {
      "inputs": [],
      "name": "SLOT_1_BNB",
      "outputs": [
        {
          "internalType": "uint256",
          "name": "",
          "type": "uint256"
        }
      ],
      "stateMutability": "view",
      "type": "function"
    },
    {
      "inputs": [],
      "name": "THRESHOLD_4_BNB",
      "outputs": [
        {
          "internalType": "uint256",
          "name": "",
          "type": "uint256"
        }
      ],
      "stateMutability": "view",
      "type": "function"
    },
    {
      "inputs": [],
      "name": "THRESHOLD_6_BNB",
      "outputs": [
        {
          "internalType": "uint256",
          "name": "",
          "type": "uint256"
        }
      ],
      "stateMutability": "view",
      "type": "function"
    },
    {
      "inputs": [],
      "name": "THRESHOLD_8_BNB",
      "outputs": [
        {
          "internalType": "uint256",
          "name": "",
          "type": "uint256"
        }
      ],
      "stateMutability": "view",
      "type": "function"
    },
    {
      "inputs": [],
      "name": "TOTAL_FEE_BPS",
      "outputs": [
        {
          "internalType": "uint256",
          "name": "",
          "type": "uint256"
        }
      ],
      "stateMutability": "view",
      "type": "function"
    },
    {
      "inputs": [],
      "name": "TOTAL_SUPPLY",
      "outputs": [
        {
          "internalType": "uint256",
          "name": "",
          "type": "uint256"
        }
      ],
      "stateMutability": "view",
      "type": "function"
    },
    {
      "inputs": [],
      "name": "VIRTUAL_QUOTE_DIVISOR",
      "outputs": [
        {
          "internalType": "uint256",
          "name": "",
          "type": "uint256"
        }
      ],
      "stateMutability": "view",
      "type": "function"
    },
    {
      "inputs": [],
      "name": "WHITELIST_DURATION",
      "outputs": [
        {
          "internalType": "uint256",
          "name": "",
          "type": "uint256"
        }
      ],
      "stateMutability": "view",
      "type": "function"
    },
    {
      "inputs": [],
      "name": "WHITELIST_STATUS_ACTIVE",
      "outputs": [
        {
          "internalType": "uint8",
          "name": "",
          "type": "uint8"
        }
      ],
      "stateMutability": "view",
      "type": "function"
    },
    {
      "inputs": [],
      "name": "WHITELIST_STATUS_EXPIRED",
      "outputs": [
        {
          "internalType": "uint8",
          "name": "",
          "type": "uint8"
        }
      ],
      "stateMutability": "view",
      "type": "function"
    },
    {
      "inputs": [],
      "name": "WHITELIST_STATUS_FINALIZED",
      "outputs": [
        {
          "internalType": "uint8",
          "name": "",
          "type": "uint8"
        }
      ],
      "stateMutability": "view",
      "type": "function"
    },
    {
      "inputs": [],
      "name": "WHITELIST_STATUS_NONE",
      "outputs": [
        {
          "internalType": "uint8",
          "name": "",
          "type": "uint8"
        }
      ],
      "stateMutability": "view",
      "type": "function"
    },
    {
      "inputs": [],
      "name": "WHITELIST_STATUS_SCHEDULED",
      "outputs": [
        {
          "internalType": "uint8",
          "name": "",
          "type": "uint8"
        }
      ],
      "stateMutability": "view",
      "type": "function"
    },
    {
      "inputs": [],
      "name": "accountedNativeBalance",
      "outputs": [
        {
          "internalType": "uint256",
          "name": "",
          "type": "uint256"
        }
      ],
      "stateMutability": "view",
      "type": "function"
    },
    {
      "inputs": [],
      "name": "advanceWhitelistPhase",
      "outputs": [],
      "stateMutability": "nonpayable",
      "type": "function"
    },
    {
      "inputs": [
        {
          "internalType": "address",
          "name": "owner",
          "type": "address"
        },
        {
          "internalType": "address",
          "name": "spender",
          "type": "address"
        }
      ],
      "name": "allowance",
      "outputs": [
        {
          "internalType": "uint256",
          "name": "",
          "type": "uint256"
        }
      ],
      "stateMutability": "view",
      "type": "function"
    },
    {
      "inputs": [
        {
          "internalType": "address",
          "name": "spender",
          "type": "address"
        },
        {
          "internalType": "uint256",
          "name": "value",
          "type": "uint256"
        }
      ],
      "name": "approve",
      "outputs": [
        {
          "internalType": "bool",
          "name": "",
          "type": "bool"
        }
      ],
      "stateMutability": "nonpayable",
      "type": "function"
    },
    {
      "inputs": [
        {
          "internalType": "address",
          "name": "account",
          "type": "address"
        }
      ],
      "name": "balanceOf",
      "outputs": [
        {
          "internalType": "uint256",
          "name": "",
          "type": "uint256"
        }
      ],
      "stateMutability": "view",
      "type": "function"
    },
    {
      "inputs": [
        {
          "internalType": "uint256",
          "name": "minTokenOut",
          "type": "uint256"
        }
      ],
      "name": "buy",
      "outputs": [
        {
          "internalType": "uint256",
          "name": "tokenOut",
          "type": "uint256"
        }
      ],
      "stateMutability": "payable",
      "type": "function"
    },
    {
      "inputs": [
        {
          "internalType": "address",
          "name": "account",
          "type": "address"
        }
      ],
      "name": "canClaimWhitelistAllocation",
      "outputs": [
        {
          "internalType": "bool",
          "name": "",
          "type": "bool"
        }
      ],
      "stateMutability": "view",
      "type": "function"
    },
    {
      "inputs": [
        {
          "internalType": "address",
          "name": "account",
          "type": "address"
        }
      ],
      "name": "canClaimWhitelistRefund",
      "outputs": [
        {
          "internalType": "bool",
          "name": "",
          "type": "bool"
        }
      ],
      "stateMutability": "view",
      "type": "function"
    },
    {
      "inputs": [
        {
          "internalType": "address",
          "name": "account",
          "type": "address"
        }
      ],
      "name": "canCommitWhitelist",
      "outputs": [
        {
          "internalType": "bool",
          "name": "",
          "type": "bool"
        }
      ],
      "stateMutability": "view",
      "type": "function"
    },
    {
      "inputs": [
        {
          "internalType": "address",
          "name": "account",
          "type": "address"
        }
      ],
      "name": "canSell",
      "outputs": [
        {
          "internalType": "bool",
          "name": "",
          "type": "bool"
        }
      ],
      "stateMutability": "view",
      "type": "function"
    },
    {
      "inputs": [],
      "name": "claimCreatorFees",
      "outputs": [
        {
          "internalType": "uint256",
          "name": "amount",
          "type": "uint256"
        }
      ],
      "stateMutability": "nonpayable",
      "type": "function"
    },
    {
      "inputs": [
        {
          "internalType": "address payable",
          "name": "recipient",
          "type": "address"
        }
      ],
      "name": "claimCreatorFeesTo",
      "outputs": [
        {
          "internalType": "uint256",
          "name": "amount",
          "type": "uint256"
        }
      ],
      "stateMutability": "nonpayable",
      "type": "function"
    },
    {
      "inputs": [],
      "name": "claimProtocolFees",
      "outputs": [
        {
          "internalType": "uint256",
          "name": "amount",
          "type": "uint256"
        }
      ],
      "stateMutability": "nonpayable",
      "type": "function"
    },
    {
      "inputs": [
        {
          "internalType": "address payable",
          "name": "recipient",
          "type": "address"
        }
      ],
      "name": "claimProtocolFeesTo",
      "outputs": [
        {
          "internalType": "uint256",
          "name": "amount",
          "type": "uint256"
        }
      ],
      "stateMutability": "nonpayable",
      "type": "function"
    },
    {
      "inputs": [],
      "name": "claimWhitelistAllocation",
      "outputs": [
        {
          "internalType": "uint256",
          "name": "tokenAmount",
          "type": "uint256"
        }
      ],
      "stateMutability": "nonpayable",
      "type": "function"
    },
    {
      "inputs": [],
      "name": "claimWhitelistRefund",
      "outputs": [
        {
          "internalType": "uint256",
          "name": "refundAmount",
          "type": "uint256"
        }
      ],
      "stateMutability": "nonpayable",
      "type": "function"
    },
    {
      "inputs": [],
      "name": "commitWhitelistSeat",
      "outputs": [],
      "stateMutability": "payable",
      "type": "function"
    },
    {
      "inputs": [],
      "name": "createdAt",
      "outputs": [
        {
          "internalType": "uint256",
          "name": "",
          "type": "uint256"
        }
      ],
      "stateMutability": "view",
      "type": "function"
    },
    {
      "inputs": [],
      "name": "creator",
      "outputs": [
        {
          "internalType": "address",
          "name": "",
          "type": "address"
        }
      ],
      "stateMutability": "view",
      "type": "function"
    },
    {
      "inputs": [],
      "name": "creatorClaimable",
      "outputs": [
        {
          "internalType": "uint256",
          "name": "",
          "type": "uint256"
        }
      ],
      "stateMutability": "view",
      "type": "function"
    },
    {
      "inputs": [],
      "name": "creatorFeeSweepReady",
      "outputs": [
        {
          "internalType": "bool",
          "name": "",
          "type": "bool"
        }
      ],
      "stateMutability": "view",
      "type": "function"
    },
    {
      "inputs": [],
      "name": "creatorFeeVault",
      "outputs": [
        {
          "internalType": "uint256",
          "name": "",
          "type": "uint256"
        }
      ],
      "stateMutability": "view",
      "type": "function"
    },
    {
      "inputs": [],
      "name": "currentPriceQuotePerToken",
      "outputs": [
        {
          "internalType": "uint256",
          "name": "",
          "type": "uint256"
        }
      ],
      "stateMutability": "view",
      "type": "function"
    },
    {
      "inputs": [],
      "name": "curveQuoteReserve",
      "outputs": [
        {
          "internalType": "uint256",
          "name": "",
          "type": "uint256"
        }
      ],
      "stateMutability": "view",
      "type": "function"
    },
    {
      "inputs": [],
      "name": "decimals",
      "outputs": [
        {
          "internalType": "uint8",
          "name": "",
          "type": "uint8"
        }
      ],
      "stateMutability": "view",
      "type": "function"
    },
    {
      "inputs": [],
      "name": "dexFactory",
      "outputs": [
        {
          "internalType": "address",
          "name": "",
          "type": "address"
        }
      ],
      "stateMutability": "view",
      "type": "function"
    },
    {
      "inputs": [],
      "name": "dexReserves",
      "outputs": [
        {
          "internalType": "uint256",
          "name": "tokenReserve",
          "type": "uint256"
        },
        {
          "internalType": "uint256",
          "name": "quoteReserve",
          "type": "uint256"
        }
      ],
      "stateMutability": "view",
      "type": "function"
    },
    {
      "inputs": [],
      "name": "displayGraduationProgressBps",
      "outputs": [
        {
          "internalType": "uint256",
          "name": "",
          "type": "uint256"
        }
      ],
      "stateMutability": "view",
      "type": "function"
    },
    {
      "inputs": [],
      "name": "factory",
      "outputs": [
        {
          "internalType": "address",
          "name": "",
          "type": "address"
        }
      ],
      "stateMutability": "view",
      "type": "function"
    },
    {
      "inputs": [
        {
          "internalType": "address",
          "name": "recipient",
          "type": "address"
        },
        {
          "internalType": "uint256",
          "name": "minTokenOut",
          "type": "uint256"
        }
      ],
      "name": "factoryBuyFor",
      "outputs": [
        {
          "internalType": "uint256",
          "name": "tokenOut",
          "type": "uint256"
        }
      ],
      "stateMutability": "payable",
      "type": "function"
    },
    {
      "inputs": [
        {
          "internalType": "address payable",
          "name": "recipient",
          "type": "address"
        }
      ],
      "name": "factoryClaimProtocolFeesTo",
      "outputs": [
        {
          "internalType": "uint256",
          "name": "amount",
          "type": "uint256"
        }
      ],
      "stateMutability": "nonpayable",
      "type": "function"
    },
    {
      "inputs": [
        {
          "internalType": "address",
          "name": "account",
          "type": "address"
        }
      ],
      "name": "factoryCommitWhitelistSeat",
      "outputs": [],
      "stateMutability": "payable",
      "type": "function"
    },
    {
      "inputs": [],
      "name": "graduationProgressBps",
      "outputs": [
        {
          "internalType": "uint256",
          "name": "",
          "type": "uint256"
        }
      ],
      "stateMutability": "view",
      "type": "function"
    },
    {
      "inputs": [],
      "name": "graduationQuoteReserve",
      "outputs": [
        {
          "internalType": "uint256",
          "name": "",
          "type": "uint256"
        }
      ],
      "stateMutability": "view",
      "type": "function"
    },
    {
      "inputs": [],
      "name": "isPairClean",
      "outputs": [
        {
          "internalType": "bool",
          "name": "",
          "type": "bool"
        }
      ],
      "stateMutability": "view",
      "type": "function"
    },
    {
      "inputs": [],
      "name": "isPairGraduationCompatible",
      "outputs": [
        {
          "internalType": "bool",
          "name": "",
          "type": "bool"
        }
      ],
      "stateMutability": "view",
      "type": "function"
    },
    {
      "inputs": [
        {
          "internalType": "address",
          "name": "account",
          "type": "address"
        }
      ],
      "name": "isWhitelisted",
      "outputs": [
        {
          "internalType": "bool",
          "name": "",
          "type": "bool"
        }
      ],
      "stateMutability": "view",
      "type": "function"
    },
    {
      "inputs": [
        {
          "internalType": "address",
          "name": "",
          "type": "address"
        }
      ],
      "name": "lastBuyBlock",
      "outputs": [
        {
          "internalType": "uint256",
          "name": "",
          "type": "uint256"
        }
      ],
      "stateMutability": "view",
      "type": "function"
    },
    {
      "inputs": [],
      "name": "lastTradeAt",
      "outputs": [
        {
          "internalType": "uint256",
          "name": "",
          "type": "uint256"
        }
      ],
      "stateMutability": "view",
      "type": "function"
    },
    {
      "inputs": [],
      "name": "launchMode",
      "outputs": [
        {
          "internalType": "uint8",
          "name": "",
          "type": "uint8"
        }
      ],
      "stateMutability": "view",
      "type": "function"
    },
    {
      "inputs": [],
      "name": "launchModeId",
      "outputs": [
        {
          "internalType": "uint8",
          "name": "",
          "type": "uint8"
        }
      ],
      "stateMutability": "view",
      "type": "function"
    },
    {
      "inputs": [],
      "name": "launchSuffix",
      "outputs": [
        {
          "internalType": "string",
          "name": "",
          "type": "string"
        }
      ],
      "stateMutability": "pure",
      "type": "function"
    },
    {
      "inputs": [],
      "name": "lpTokenReserve",
      "outputs": [
        {
          "internalType": "uint256",
          "name": "",
          "type": "uint256"
        }
      ],
      "stateMutability": "view",
      "type": "function"
    },
    {
      "inputs": [],
      "name": "metadataURI",
      "outputs": [
        {
          "internalType": "string",
          "name": "",
          "type": "string"
        }
      ],
      "stateMutability": "view",
      "type": "function"
    },
    {
      "inputs": [],
      "name": "name",
      "outputs": [
        {
          "internalType": "string",
          "name": "",
          "type": "string"
        }
      ],
      "stateMutability": "view",
      "type": "function"
    },
    {
      "inputs": [],
      "name": "pair",
      "outputs": [
        {
          "internalType": "address",
          "name": "",
          "type": "address"
        }
      ],
      "stateMutability": "view",
      "type": "function"
    },
    {
      "inputs": [],
      "name": "pairPreloadedQuote",
      "outputs": [
        {
          "internalType": "uint256",
          "name": "",
          "type": "uint256"
        }
      ],
      "stateMutability": "view",
      "type": "function"
    },
    {
      "inputs": [],
      "name": "pairSnapshot",
      "outputs": [
        {
          "internalType": "address",
          "name": "pairAddress",
          "type": "address"
        },
        {
          "internalType": "uint256",
          "name": "pairTotalSupply",
          "type": "uint256"
        },
        {
          "internalType": "uint112",
          "name": "reserve0",
          "type": "uint112"
        },
        {
          "internalType": "uint112",
          "name": "reserve1",
          "type": "uint112"
        },
        {
          "internalType": "uint256",
          "name": "tokenBalance",
          "type": "uint256"
        },
        {
          "internalType": "uint256",
          "name": "wrappedNativeBalance",
          "type": "uint256"
        }
      ],
      "stateMutability": "view",
      "type": "function"
    },
    {
      "inputs": [
        {
          "internalType": "uint256",
          "name": "grossQuoteIn",
          "type": "uint256"
        }
      ],
      "name": "previewBuy",
      "outputs": [
        {
          "internalType": "uint256",
          "name": "tokenOut",
          "type": "uint256"
        },
        {
          "internalType": "uint256",
          "name": "feeAmount",
          "type": "uint256"
        },
        {
          "internalType": "uint256",
          "name": "refundAmount",
          "type": "uint256"
        }
      ],
      "stateMutability": "view",
      "type": "function"
    },
    {
      "inputs": [
        {
          "internalType": "uint256",
          "name": "tokenAmount",
          "type": "uint256"
        }
      ],
      "name": "previewSell",
      "outputs": [
        {
          "internalType": "uint256",
          "name": "grossQuoteOut",
          "type": "uint256"
        },
        {
          "internalType": "uint256",
          "name": "netQuoteOut",
          "type": "uint256"
        },
        {
          "internalType": "uint256",
          "name": "totalFee",
          "type": "uint256"
        }
      ],
      "stateMutability": "view",
      "type": "function"
    },
    {
      "inputs": [],
      "name": "priceQuotePerToken",
      "outputs": [
        {
          "internalType": "uint256",
          "name": "",
          "type": "uint256"
        }
      ],
      "stateMutability": "view",
      "type": "function"
    },
    {
      "inputs": [],
      "name": "protocolClaimable",
      "outputs": [
        {
          "internalType": "uint256",
          "name": "",
          "type": "uint256"
        }
      ],
      "stateMutability": "view",
      "type": "function"
    },
    {
      "inputs": [],
      "name": "protocolFeeRecipient",
      "outputs": [
        {
          "internalType": "address",
          "name": "",
          "type": "address"
        }
      ],
      "stateMutability": "view",
      "type": "function"
    },
    {
      "inputs": [],
      "name": "protocolFeeVault",
      "outputs": [
        {
          "internalType": "uint256",
          "name": "",
          "type": "uint256"
        }
      ],
      "stateMutability": "view",
      "type": "function"
    },
    {
      "inputs": [],
      "name": "remainingQuoteCapacity",
      "outputs": [
        {
          "internalType": "uint256",
          "name": "",
          "type": "uint256"
        }
      ],
      "stateMutability": "view",
      "type": "function"
    },
    {
      "inputs": [],
      "name": "router",
      "outputs": [
        {
          "internalType": "address",
          "name": "",
          "type": "address"
        }
      ],
      "stateMutability": "view",
      "type": "function"
    },
    {
      "inputs": [],
      "name": "saleTokenReserve",
      "outputs": [
        {
          "internalType": "uint256",
          "name": "",
          "type": "uint256"
        }
      ],
      "stateMutability": "view",
      "type": "function"
    },
    {
      "inputs": [
        {
          "internalType": "uint256",
          "name": "tokenAmount",
          "type": "uint256"
        },
        {
          "internalType": "uint256",
          "name": "minQuoteOut",
          "type": "uint256"
        }
      ],
      "name": "sell",
      "outputs": [
        {
          "internalType": "uint256",
          "name": "netQuoteOut",
          "type": "uint256"
        }
      ],
      "stateMutability": "nonpayable",
      "type": "function"
    },
    {
      "inputs": [
        {
          "internalType": "address",
          "name": "account",
          "type": "address"
        }
      ],
      "name": "sellUnlockBlock",
      "outputs": [
        {
          "internalType": "uint256",
          "name": "",
          "type": "uint256"
        }
      ],
      "stateMutability": "view",
      "type": "function"
    },
    {
      "inputs": [],
      "name": "state",
      "outputs": [
        {
          "internalType": "enum LaunchTokenBase.LaunchState",
          "name": "",
          "type": "uint8"
        }
      ],
      "stateMutability": "view",
      "type": "function"
    },
    {
      "inputs": [],
      "name": "sweepAbandonedCreatorFees",
      "outputs": [
        {
          "internalType": "uint256",
          "name": "amount",
          "type": "uint256"
        }
      ],
      "stateMutability": "nonpayable",
      "type": "function"
    },
    {
      "inputs": [],
      "name": "symbol",
      "outputs": [
        {
          "internalType": "string",
          "name": "",
          "type": "string"
        }
      ],
      "stateMutability": "view",
      "type": "function"
    },
    {
      "inputs": [],
      "name": "taxConfig",
      "outputs": [
        {
          "internalType": "bool",
          "name": "enabled",
          "type": "bool"
        },
        {
          "internalType": "uint16",
          "name": "configuredTaxBps",
          "type": "uint16"
        },
        {
          "internalType": "uint16",
          "name": "burnBps",
          "type": "uint16"
        },
        {
          "internalType": "uint16",
          "name": "treasuryBps",
          "type": "uint16"
        },
        {
          "internalType": "address",
          "name": "wallet",
          "type": "address"
        },
        {
          "internalType": "bool",
          "name": "active",
          "type": "bool"
        }
      ],
      "stateMutability": "view",
      "type": "function"
    },
    {
      "inputs": [],
      "name": "totalSupply",
      "outputs": [
        {
          "internalType": "uint256",
          "name": "",
          "type": "uint256"
        }
      ],
      "stateMutability": "view",
      "type": "function"
    },
    {
      "inputs": [
        {
          "internalType": "address",
          "name": "to",
          "type": "address"
        },
        {
          "internalType": "uint256",
          "name": "value",
          "type": "uint256"
        }
      ],
      "name": "transfer",
      "outputs": [
        {
          "internalType": "bool",
          "name": "",
          "type": "bool"
        }
      ],
      "stateMutability": "nonpayable",
      "type": "function"
    },
    {
      "inputs": [
        {
          "internalType": "address",
          "name": "from",
          "type": "address"
        },
        {
          "internalType": "address",
          "name": "to",
          "type": "address"
        },
        {
          "internalType": "uint256",
          "name": "value",
          "type": "uint256"
        }
      ],
      "name": "transferFrom",
      "outputs": [
        {
          "internalType": "bool",
          "name": "",
          "type": "bool"
        }
      ],
      "stateMutability": "nonpayable",
      "type": "function"
    },
    {
      "inputs": [],
      "name": "unexpectedNativeBalance",
      "outputs": [
        {
          "internalType": "uint256",
          "name": "",
          "type": "uint256"
        }
      ],
      "stateMutability": "view",
      "type": "function"
    },
    {
      "inputs": [],
      "name": "virtualQuoteReserve",
      "outputs": [
        {
          "internalType": "uint256",
          "name": "",
          "type": "uint256"
        }
      ],
      "stateMutability": "view",
      "type": "function"
    },
    {
      "inputs": [],
      "name": "virtualTokenReserve",
      "outputs": [
        {
          "internalType": "uint256",
          "name": "",
          "type": "uint256"
        }
      ],
      "stateMutability": "view",
      "type": "function"
    },
    {
      "inputs": [
        {
          "internalType": "address",
          "name": "",
          "type": "address"
        }
      ],
      "name": "whitelist",
      "outputs": [
        {
          "internalType": "bool",
          "name": "",
          "type": "bool"
        }
      ],
      "stateMutability": "view",
      "type": "function"
    },
    {
      "inputs": [
        {
          "internalType": "address",
          "name": "",
          "type": "address"
        }
      ],
      "name": "whitelistAllocationClaimed",
      "outputs": [
        {
          "internalType": "bool",
          "name": "",
          "type": "bool"
        }
      ],
      "stateMutability": "view",
      "type": "function"
    },
    {
      "inputs": [],
      "name": "whitelistAllocationTokenReserve",
      "outputs": [
        {
          "internalType": "uint256",
          "name": "",
          "type": "uint256"
        }
      ],
      "stateMutability": "view",
      "type": "function"
    },
    {
      "inputs": [],
      "name": "whitelistCommitVault",
      "outputs": [
        {
          "internalType": "uint256",
          "name": "",
          "type": "uint256"
        }
      ],
      "stateMutability": "view",
      "type": "function"
    },
    {
      "inputs": [],
      "name": "whitelistCommittedTotal",
      "outputs": [
        {
          "internalType": "uint256",
          "name": "",
          "type": "uint256"
        }
      ],
      "stateMutability": "view",
      "type": "function"
    },
    {
      "inputs": [],
      "name": "whitelistExpiredWithoutFinalization",
      "outputs": [
        {
          "internalType": "bool",
          "name": "",
          "type": "bool"
        }
      ],
      "stateMutability": "view",
      "type": "function"
    },
    {
      "inputs": [],
      "name": "whitelistFinalized",
      "outputs": [
        {
          "internalType": "bool",
          "name": "",
          "type": "bool"
        }
      ],
      "stateMutability": "view",
      "type": "function"
    },
    {
      "inputs": [
        {
          "internalType": "address",
          "name": "",
          "type": "address"
        }
      ],
      "name": "whitelistRefundClaimed",
      "outputs": [
        {
          "internalType": "bool",
          "name": "",
          "type": "bool"
        }
      ],
      "stateMutability": "view",
      "type": "function"
    },
    {
      "inputs": [
        {
          "internalType": "address",
          "name": "",
          "type": "address"
        }
      ],
      "name": "whitelistSeatCommitted",
      "outputs": [
        {
          "internalType": "bool",
          "name": "",
          "type": "bool"
        }
      ],
      "stateMutability": "view",
      "type": "function"
    },
    {
      "inputs": [],
      "name": "whitelistSeatsFilled",
      "outputs": [
        {
          "internalType": "uint256",
          "name": "",
          "type": "uint256"
        }
      ],
      "stateMutability": "view",
      "type": "function"
    },
    {
      "inputs": [],
      "name": "whitelistSnapshot",
      "outputs": [
        {
          "internalType": "uint8",
          "name": "status",
          "type": "uint8"
        },
        {
          "internalType": "uint256",
          "name": "opensAt",
          "type": "uint256"
        },
        {
          "internalType": "uint256",
          "name": "deadline",
          "type": "uint256"
        },
        {
          "internalType": "uint256",
          "name": "threshold",
          "type": "uint256"
        },
        {
          "internalType": "uint256",
          "name": "slotSize",
          "type": "uint256"
        },
        {
          "internalType": "uint256",
          "name": "seatCount",
          "type": "uint256"
        },
        {
          "internalType": "uint256",
          "name": "seatsFilled",
          "type": "uint256"
        },
        {
          "internalType": "uint256",
          "name": "committedTotal",
          "type": "uint256"
        },
        {
          "internalType": "uint256",
          "name": "tokensPerSeat",
          "type": "uint256"
        }
      ],
      "stateMutability": "view",
      "type": "function"
    },
    {
      "inputs": [],
      "name": "whitelistStatus",
      "outputs": [
        {
          "internalType": "uint8",
          "name": "",
          "type": "uint8"
        }
      ],
      "stateMutability": "view",
      "type": "function"
    },
    {
      "inputs": [],
      "name": "whitelistTokensPerSeat",
      "outputs": [
        {
          "internalType": "uint256",
          "name": "",
          "type": "uint256"
        }
      ],
      "stateMutability": "view",
      "type": "function"
    },
    {
      "inputs": [],
      "name": "wrappedNative",
      "outputs": [
        {
          "internalType": "address",
          "name": "",
          "type": "address"
        }
      ],
      "stateMutability": "view",
      "type": "function"
    },
    {
      "stateMutability": "payable",
      "type": "receive"
    }
  ],
  "bytecode": "0x6102e0806040523462000db657620064c9803803809162000021828562001246565b8339602082828101031262000db65781516001600160401b03811162000db657610220818401838501031262000db6576040519061022082016001600160401b0381118382101762000f2857604052838101516001600160401b03811162000db657620000969084860190838701016200126a565b8252838101602001516001600160401b03811162000db657620000c19084860190838701016200126a565b6020830152838101604001516001600160401b03811162000db657620000ef9084860190838701016200126a565b604083015262000104606082860101620012e0565b606083015262000119608082860101620012e0565b60808301526200012e60a082860101620012e0565b60a08301526200014360c082860101620012e0565b60c083015283810160e081810151908401526101008082015190840152610120808201519084015261014080820151908401526101600151926001600160401b03841162000db657808501601f858488010101121562000db657848201840151906001600160401b03821162000f285760405194620001c960208460051b018762001246565b8286526020860191870160208460051b83878b010101011162000db6576020818589010101915b60208460051b83878b0101010183106200122657505050506102006200027d91846101608501526200022861018082880101620012f5565b9586610180860152620002416101a08383010162001304565b6101a0860152620002586101c08383010162001304565b6101c08601526200026f6101e08383010162001304565b6101e08601520101620012e0565b610200820152805160208201516040808401516060850151608086015160a087015160c088015160e08901516101008a01516101208b01516101408c01519851979d979c979a92996001600160a01b03948516999585169896851697909416959394929392916001600160401b036101a08f01908111908f111762000f28576101008f8f906101a0820160405287825288602083015260408201528860608201528960808201528a60a08201528b60c08201528c60e082015201526101208d01526101408c01526101608b015260ff88166101808b015280519060018060401b03821162000f285760035490600182811c921680156200121b575b602083101462000f075781601f849311620011a9575b50602090601f83116001146200111a576000926200110e575b50508160011b916000199060031b1c1916176003555b8051906001600160401b03821162000f285760045490600182811c9216801562001103575b602083101462000f075781601f84931162001091575b50602090601f8311600114620010025760009262000ff6575b50508160011b916000199060031b1c1916176004555b60017f9b779b17422d0df92223018b32b4d1fa46e071723d6817e2486d003becc55f0055841562000fe457600385041562000fe4578015801562000fdb575b801562000fd2575b801562000fc9575b620008175760a05260c05260e05261010081905260405163c45a015560e01b8152602081600481855afa90811562000dc45760009162000f80575b50610120526040516315ab88c960e31b815290602090829060049082905afa90811562000dc45760009162000f3e575b5061014052610160819052600381046101808190526aa56fa5b99019a5c800000080820204900362000bd2578060036200052992046aa56fa5b99019a5c80000000262001314565b6101a052426101c0819052600c5583516001600160401b03811162000f2857600554600181811c9116801562000f1d575b602082101462000f0757601f811162000ebd575b506020601f821160011462000e4957819060ff94959660009262000e3d575b50508160011b916000199060031b1c1916176005555b16608052301562000e2457620005b93062001544565b6b0295be96e6406697200000006007556aa56fa5b99019a5c8000000600855610120516101405160405163e6a4390560e01b8152600092909160209183916001600160a01b03918216918391829162000618911630600484016200152a565b03915afa91821562000e1857809262000dd0575b50506001600160a01b0381161562000d21575b600680546001600160a81b03191660089290921b610100600160a81b03169190911760049081179091556040519060007f3a779de46631dd65116ae538600f1bc3c338200c6aef638429b5de43301c28f78180a3610100830151673782dace9d900000811490811562000d0e575b811562000cfb575b501562000cec575061010082015160e0830151111562000cda5761012082015167016345785d8a0000811490811562000cc7575b811562000cb4575b811562000ca1575b501562000c8f5761010082015161012083015190811562000c79570662000c5c57620007316101008301516101208401519062001314565b908115801562000c6e575b62000c5c5781610160840151511062000c4a576101408301518062000c43575042925b428410801562000c2c575b62000c1a57620151808401841162000bd2576201518084016101e0526101008101516102005261012081015161022052826102405260005b61016082015180518210156200082957600582901b01602001516001600160a01b0316908115620008175781600052601460205260ff604060002054166200080557600191600052601460205260406000208260ff1982541617905501620007a2565b604051630fb0efa560e41b8152600490fd5b60405163d92e233d60e01b8152600490fd5b8362000895847fc32c90bcebb1b5638e92a2a57d7cfd39596fa72768c7c95f945d9ed03baffac560a08a8a61010085015191610120860151916101e051926040519485526020850152604084015260608301526080820152a1608001516001600160a01b03166200143b565b1562000c085760ff6101808201511661ffff6101a08301511661ffff6101c08401511661ffff6101e08501511691600c60018060a01b0361020087015116940362000b87576064811090811562000bfb575b811562000be8575b5062000b8757810161ffff811162000bd25761ffff61271091160362000b87571580158062000bc9575b62000b87578062000bbf575b62000b875730811490811562000ba6575b811562000b99575b5062000b87576101a081015161ffff908116610260526101c08201518116610280526101e0820151166102a0526102008101516001600160a01b039081166102c0526080909101516200099291166200132d565b1562000b7557604051614afd6200198c823960805181612582015260a051818181611ce30152818161238d0152613695015260c0518181816109c301528181610f8e015281816117840152818161217a01526131dd015260e05181818161181101528181611b81015261312a015261010051816106e50152610120518161101f015261014051818181610809015281816127ad0152818161292c01528181612dad01528181613b4f0152613ef7015261016051818181611c2b0152818161262f01528181612b0401528181612c3a0152818161373a0152818161383901526139e1015261018051818181610775015261332801526101a051818181611d28015261336201526101c051818181610cd201526138c901526101e0518181816108bb01528181610df80152818161117a015281816111b701528181612a830152818161345a01526134aa01526102005181818161090d015281816133b6015281816135e5015261427c0152610220518181816109330152818161191d01526134fd015261024051818181610959015281816111130152818161353a01526142d1015261026051818181610eb5015261457a015261028051818181610edd01526145b901526102a05181610f0401526102c051818181610f3301526146490152614afd90f35b604051635493503b60e11b8152600490fd5b60405163694f6dbf60e11b8152600490fd5b61dead915014826200093e565b60065460081c6001600160a01b03168114915062000936565b5080151562000925565b50811562000919565b634e487b7160e01b600052601160045260246000fd5b61ffff91506064900616151585620008ef565b61038481119150620008e7565b604051635bb6e57160e11b8152600490fd5b6040516305c742e960e11b8152600490fd5b506203f480420180421162000bd25784116200076a565b926200075f565b60405163529cc2c560e01b8152600490fd5b604051635ca83dcb60e11b8152600490fd5b50605082116200073c565b634e487b7160e01b600052601260045260246000fd5b604051633d8f86f560e21b8152600490fd5b670de0b6b3a764000091501438620006f9565b6706f05b59d3b2000081149150620006f1565b6702c68af0bb14000081149150620006e9565b60405163230bad2760e11b8152600490fd5b63230bad2760e11b8152600490fd5b676f05b59d3b20000091501438620006b5565b6753444835ec58000081149150620006ad565b5061012051610140516040516364e329cb60e11b81529160209183916001600160a01b03908116918391600091839162000d61911630600484016200152a565b03925af1801562000dc45760009062000d7d575b90506200063f565b506020813d60201162000dbb575b8162000d9a6020938362001246565b8101031262000db65762000db0600491620012e0565b62000d75565b600080fd5b3d915062000d8b565b6040513d6000823e3d90fd5b9091506020823d60201162000e0f575b8162000def6020938362001246565b8101031262000e0c575062000e0490620012e0565b38806200062c565b80fd5b3d915062000de0565b604051903d90823e3d90fd5b60405163ec442f0560e01b815260006004820152602490fd5b0151905038806200058d565b600560005260206000209560005b601f198416811062000ea4575095829160ff959697600194601f1981161062000e8a575b505050811b01600555620005a3565b015160001960f88460031b161c1916905538808062000e7b565b8282015188556001909701966020928301920162000e57565b60056000526020600020601f830160051c81016020841062000eff575b601f830160051c8201811062000ef25750506200056e565b6000815560010162000eda565b508062000eda565b634e487b7160e01b600052602260045260246000fd5b90607f16906200055a565b634e487b7160e01b600052604160045260246000fd5b90506020813d60201162000f77575b8162000f5c6020938362001246565b8101031262000db65762000f7090620012e0565b38620004e1565b3d915062000f4d565b90506020813d60201162000fc0575b8162000f9e6020938362001246565b8101031262000db65760049162000fb7602092620012e0565b915091620004b1565b3d915062000f8f565b50831562000476565b5082156200046e565b50811562000466565b604051630d956e1760e21b8152600490fd5b01519050388062000411565b6004600090815293507f8a35acfbc15ff81a39ae7d344fd709f28e8600b4aa8c65c6b64bfe7fe36bd19b91905b601f198416851062001075576001945083601f198116106200105b575b505050811b0160045562000427565b015160001960f88460031b161c191690553880806200104c565b818101518355602094850194600190930192909101906200102f565b60046000529091507f8a35acfbc15ff81a39ae7d344fd709f28e8600b4aa8c65c6b64bfe7fe36bd19b601f840160051c810160208510620010fb575b90849392915b601f830160051c82018110620010eb575050620003f8565b60008155859450600101620010d3565b5080620010cd565b91607f1691620003e2565b015190503880620003a7565b6003600090815293507fc2575a0e9e593c00f959f8c92f12db2869c3395a3b0502d05e2516446f71f85b91905b601f19841685106200118d576001945083601f1981161062001173575b505050811b01600355620003bd565b015160001960f88460031b161c1916905538808062001164565b8181015183556020948501946001909301929091019062001147565b60036000529091507fc2575a0e9e593c00f959f8c92f12db2869c3395a3b0502d05e2516446f71f85b601f840160051c81016020851062001213575b90849392915b601f830160051c82018110620012035750506200038e565b60008155859450600101620011eb565b5080620011e5565b91607f169162000378565b9060208080936200123786620012e0565b815201930192909150620001f0565b601f909101601f19168101906001600160401b0382119082101762000f2857604052565b919080601f8401121562000db65782516001600160401b03811162000f285760209060405192620012a583601f19601f850116018562001246565b81845282828701011162000db65760005b818110620012cc57508260009394955001015290565b8581018301518482018401528201620012b6565b51906001600160a01b038216820362000db657565b519060ff8216820362000db657565b519061ffff8216820362000db657565b811562000c79570490565b9190820180921162000bd257565b803b156200143557604051631b5c66b560e31b81526001600160a01b03918216916020918281600481875afa90811562000dc457600091620013f8575b5016331491826200137a57505090565b60405163b119b57b60e01b81523060048201529192508290829060249082905afa91821562000dc457600092620013b7575b505060ff16600c1490565b90809250813d8311620013f0575b620013d1818362001246565b8101031262000db65760ff620013e9600c92620012f5565b91620013ac565b503d620013c5565b90508281813d83116200142d575b62001412818362001246565b8101031262000db6576200142690620012e0565b386200136a565b503d62001406565b50600090565b6001600160a01b03908082169033821462001522573b156200151b57600260ff6080511614620014ec57600c60ff60805116146200147a575050600090565b602060049160405192838092631b5c66b560e31b82525afa90811562000dc457600091620014aa575b5016331490565b90506020813d602011620014e3575b81620014c86020938362001246565b8101031262000db657620014dc90620012e0565b38620014a3565b3d9150620014b9565b6020600491604051928380926337eb7e0160e01b82525afa90811562000dc457600091620014aa575016331490565b5050600090565b505050600190565b6001600160a01b0391821681529116602082015260400190565b6200154e62001871565b62001678575b60ff6006541660058110158062001654576001821480156200166a575b15620015f8575b50506002546b033b2e3c9fd0803ce80000009182820180921162000bd2576002919091556001600160a01b031690600090600080516020620064a98339815191529060209084620015e2576b033b2e3c9fd0803ce7ffffff19600254016002555b604051908152a3565b84845283825260408420818154019055620015d9565b6200165457600281036200162857503062001616575b388062001578565b60405163baf3f0f760e01b8152600490fd5b6003036200160e57306001600160a01b038216036200160e575b604051634e46966960e11b8152600490fd5b634e487b7160e01b600052602160045260246000fd5b505060006004821462001571565b61ffff806102605116906b033b2e3c9fd0803ce800000091808302908382040362000bd257612710809104918215908115620016b957505050505062001554565b610280959394955116908185029185830414171562000bd257048083039280841162000bd25780850385811162000bd257620016f6908462001893565b8162001762575b91600093828460809460008051602062006489833981519152960362001742575b60408051988952602089019190915287015260608601526001600160a01b031693a3565b6102c0516200175c9084906001600160a01b031662001893565b6200171e565b60ff60065416600581101580620016545760018214801562001863575b15620017ec575b505091600093826000805160206200648983398151915294620017ae6080956002546200131f565b60025561dead808852876020526040882083815401905587600080516020620064a98339815191526020604051868152a392945092509350620016fd565b620016545760028103620018285750909130620016165760009360008051602062006489833981519152936080935b9294509281955062001786565b6003146200184f575b9160009360809260008051602062006489833981519152946200181b565b90913061dead146200164257919062001831565b50506000600482146200177f565b60ff60065416600581101562001654576003036200188e57600090565b600090565b60ff6006541660058110158062001654576001821480156200197d575b1562001903575b5050600080516020620064a98339815191526020600092620018dc856002546200131f565b6002556001600160a01b03169384158414620015e2578060025403600255604051908152a3565b620016545760028103620019365750306200161657600080516020620064a983398151915260206000925b9250620018b7565b6003146200195a575b600080516020620064a983398151915260206000926200192e565b306001600160a01b038216036200193f57604051634e46966960e11b8152600490fd5b5050600060048214620018b056fe6080604081815260049182361015610044575b505050361561002057600080fd5b6100286130ee565b610030612baa565b6001600080516020614aa883398151915255005b600092833560e01c9182630227591d146123bc5750816302d05d3f1461237857816303dffb5a1461235557816303ee438c146122b257816306b51d481461169257816306fdde03146121d957816307979003146121ba578163086e5ca014612147578163095ea7b31461209d5781630b42aae01461208157816315a0aa0814612022578163173d5e4214611c0e57816318160ddd146120035781631c2945b214611fc55781631cd97db514611f9e5781631d924c7714611f8057816323b872dd14611e3457816324e69d7c14611e0d57816325cacd0c14611de957816327bfa19614611dab578163292e5b0014611d865781632a025a8614611d67578163313ce56714611d4b578163343ee3b714611d10578163351fee4614611cc157816337488a4214611ca257816337b28bfd14611c6a57816338809be614611c4e5781633993152714611c135781633af32abf14611363578163403287a914610aa657816340faa03c14611c0e578163430437fb14611bf257816345b2af8c14611bcf578163463bb8001461128f5781634815327914611bae5781634a7d036914611b5f5781634e6fd6c414611b4257816352fb81bb14611b045781635386600614611a5c578163571b1f8a14611a3e578163581b51f314611a025781635878f8ce146119e557816358ebc06e146118d85781635a85ffd7146118bb5781636095a6201461189f578163644537cb1461187957816364a5dc2b1461184057816364df049e146117fc5781636723064e1461175b5781636887c8481461170857816368bc13f5146116ec5781636a534fcb146116b35781636a740d311461106a5781636f28507c146116975781636f71f0171461169257816370a082311461166c57816374452ec31461164d5781637531abe3146115d357816379e4698714610fbd5781637b412645146115b057816385cac2371461108b57816386d4ff1d146115615781638925d36e14611542578163902d55a51461151c5781639111f13d146114ff57816391e7cd34146114e05781639454d720146114c457816394c2c24f146114a857816395d89b41146113c457816396f06241146113a15781639b19251a146113635781639d0ee65b146113475781639ddf7ad3146113205781639e5f358a14611303578163a202c86d146112e7578163a8aa1b31146112ba578163a8dccd0214611294578163a8ea44451461128f578163a9059cbb14611223578163aadade7a14611204578163aecf6a7c146110b4578163af1af3b914610d18578163b0cc792d14611090578163b37dd6901461108b578163b5f1c1ff1461106f578163b82020e81461106a578163b88202a91461104e578163b8d8fbb41461100a578163be37822814610fee578163c19d93fb14610fc2578163c228987814610fbd578163c45a015514610f79578163c57da02914610e88578163cac01cbc14610e6d578163cc3cbd2a14610e51578163cc45010414610e34578163cc64aade14610d37578163ce228ad214610d18578163cedf7c1914610cf5578163cf09e0d014610cba578163d119e96514610c9c578163d79875eb14610ad1578163d7f3ad6f14610aab578163d81d946f14610aa6578163d96a094a14610a29578163d9d5a9f3146109a2578163db9b54131461089e578163dd62ed3e14610855578163e1a4521814610838578163eb6d3a11146107f4578163ed1cc3a8146107d5578163f3bf10ed146107b6578163f48f6f1d14610798578163f55966261461075d578163f73aaf3c1461073a578163f7ce612a14610714578163f887ea40146106d0578163fb3dd95f1461069a578163fb9a1d8d146105a8575063fd897e0b146105875780610012565b346105a457816003193601126105a457602090600d549051908152f35b5080fd5b8383346105a457816003193601126105a4576105c26130ee565b60ff60135416158015610684575b801561066f575b61066057602092506012549133815260168452818120600160ff1982541617905561060483600d546125a6565b600d55338152600e8452814391205561061e82333061403b565b80518281527f648b77675d9290f9aa4f34a5cd8b6ff268de43a375ce9f853f027bb3699ea84e843392a26001600080516020614aa88339815191525551908152f35b51630f6ff1d560e31b81529050fd5b50338252601660205260ff81832054166105d7565b50338252601560205260ff8183205416156105d0565b8284346106cd5760203660031901126106cd57506106bb6106c99235612b56565b90939192519384938461251a565b0390f35b80fd5b5050346105a457816003193601126105a457517f00000000000000000000000000000000000000000000000000000000000000006001600160a01b03168152602090f35b5050346105a457816003193601126105a457602090516aa56fa5b99019a5c80000008152f35b5050346105a457816003193601126105a457602090516702c68af0bb1400008152f35b5050346105a457816003193601126105a457602090517f00000000000000000000000000000000000000000000000000000000000000008152f35b5050346105a457816003193601126105a4576020905162278d008152f35b5050346105a457816003193601126105a4576020906012549051908152f35b5050346105a457816003193601126105a457602090600f549051908152f35b5050346105a457816003193601126105a457517f00000000000000000000000000000000000000000000000000000000000000006001600160a01b03168152602090f35b5050346105a457816003193601126105a457602090516127108152f35b5050346105a457806003193601126105a4578060209261087361249b565b61087b6124b1565b6001600160a01b0391821683526001865283832091168252845220549051908152f35b8284346106cd57806003193601126106cd576108b8612a2f565b917f00000000000000000000000000000000000000000000000000000000000000006201517f1981019281841161098f57506101209450600f5490601054926012549460ff82519716875260208701528501527f000000000000000000000000000000000000000000000000000000000000000060608501527f000000000000000000000000000000000000000000000000000000000000000060808501527f000000000000000000000000000000000000000000000000000000000000000060a085015260c084015260e0830152610100820152f35b634e487b7160e01b815260118652602490fd5b90506020366003190112610a25576109b861249b565b916109c16130ee565b7f00000000000000000000000000000000000000000000000000000000000000006001600160a01b03163303610a185783610a03846109fe613387565b613481565b6001600080516020614aa88339815191525580f35b51635b2fb5b360e11b8152fd5b8280fd5b828460203660031901126106cd57610a3f6130ee565b610a47613387565b60ff60065416906005821015610a935750600103610a8657610a6d60209235333361398b565b906001600080516020614aa88339815191525551908152f35b5163baf3f0f760e01b8152fd5b634e487b7160e01b815260218452602490fd5b6124e2565b5050346105a457816003193601126105a457602090610ac861408f565b90519015158152f35b91905034610a255780600319360112610a2557813592610aef6130ee565b610af7613387565b60ff600654166005811015610c8957600103610c7b578315610c6d578190338152600e60205220544314610c6057610b55610b4f610b33613320565b610b4987610b43838596956125c9565b926126ed565b90613fd2565b906125a6565b9283158015610c55575b610c4757610b79610b6f85614004565b91879391936125a6565b948515610c39576024358610610c395750602095610c1e7feebdf396b2ce33c6bf51df33b76958425b7430bd1c74fbef7b585106affddd1c938793610bbf87303361403b565b610bcb876007546126ed565b600755610bda846009546125a6565b600955610be982600a546126ed565b600a55610bf881600b546126ed565b600b5542600c55610c098533613908565b60095490600754928951968796339a88612b28565b0390a26001600080516020614aa88339815191525551908152f35b8451638199f5f360e01b8152fd5b5051638199f5f360e01b8152fd5b506009548411610b5f565b51635aabee0f60e11b8152fd5b5051631f2a200560e01b8152fd5b505163baf3f0f760e01b8152fd5b634e487b7160e01b825260218452602482fd5b5050346105a457816003193601126105a457602090516203f4808152f35b5050346105a457816003193601126105a457602090517f00000000000000000000000000000000000000000000000000000000000000008152f35b5050346105a457816003193601126105a457602090516753444835ec5800008152f35b5050346105a457816003193601126105a457602090600a549051908152f35b8383346105a45760203660031901126105a457610d5261249b565b916013549260ff8460081c16938415610dbf575b506020945083610da1575b83610d81575b5050519015158152f35b6001600160a01b03168152601784528190205460ff161591508380610d77565b6001600160a01b0381168252601585528282205460ff169350610d71565b90935060ff600654166005811015610e2157602095149081610df6575b81610dea575b509285610d66565b60ff9150161585610de2565b7f00000000000000000000000000000000000000000000000000000000000000004210159150610ddc565b634e487b7160e01b835260218652602483fd5b5050346105a457816003193601126105a457602090610ac8613e45565b5050346105a457816003193601126105a4576020905160468152f35b5050346105a457816003193601126105a45751908152602090f35b8284346106cd57806003193601126106cd5760ff60065416926005841015610f665782516001815261ffff7f0000000000000000000000000000000000000000000000000000000000000000811660208301527f00000000000000000000000000000000000000000000000000000000000000008116828601527f00000000000000000000000000000000000000000000000000000000000000001660608201526001600160a01b037f00000000000000000000000000000000000000000000000000000000000000001660808201526003851460a082015260c090f35b634e487b7160e01b825260219052602490fd5b5050346105a457816003193601126105a457517f00000000000000000000000000000000000000000000000000000000000000006001600160a01b03168152602090f35b61254c565b8383346105a457816003193601126105a45760ff600654169051916005821015610a9357602083838152f35b5050346105a457816003193601126105a45760209051601e8152f35b5050346105a457816003193601126105a457517f00000000000000000000000000000000000000000000000000000000000000006001600160a01b03168152602090f35b5050346105a457816003193601126105a45760209051600b8152f35b612530565b5050346105a457816003193601126105a45760209051600c8152f35b612568565b5050346105a457816003193601126105a4576020906110ad612ae6565b9051908152f35b8383346105a45760203660031901126105a4576110cf61249b565b9160ff6006541660058110156111f157841492836111a2575b6020945083611178575b8361115a575b8361113a575b50508161110e575b519015158152f35b600f547f0000000000000000000000000000000000000000000000000000000000000000119150611106565b6001600160a01b03168152601584528190205460ff1615915083806110fe565b6001600160a01b0381168252601485528282205460ff1693506110f8565b7f0000000000000000000000000000000000000000000000000000000000000000421093506110f2565b92506201518042018042116111de57602094507f00000000000000000000000000000000000000000000000000000000000000001115926110e8565b634e487b7160e01b825260118552602482fd5b634e487b7160e01b825260218552602482fd5b5050346105a457816003193601126105a457602090600b549051908152f35b905034610a255781600319360112610a255761123d61249b565b9260ff6006541690600582101561127c575060030361126e5750611267602092602435903361403b565b5160018152f35b90516377d87fb560e11b8152fd5b634e487b7160e01b815260218352602490fd5b6124fe565b5050346105a457816003193601126105a457516714adf4b7320334b9601d1b8152602090f35b5050346105a457816003193601126105a457600654905160089190911c6001600160a01b03168152602090f35b5050346105a457816003193601126105a4576020905160098152f35b5050346105a457816003193601126105a4576020906110ad612ac5565b5050346105a457816003193601126105a45760209060ff61133f612a2f565b915191168152f35b5050346105a457816003193601126105a4576020905160068152f35b5050346105a45760203660031901126105a45760209160ff9082906001600160a01b0361138e61249b565b1681526014855220541690519015158152f35b5050346105a457816003193601126105a45760209051676f05b59d3b2000008152f35b8383346105a457816003193601126105a45780519180938054916001908360011c926001851694851561149e575b602095868610811461148b57858952908115611467575060011461142c575b6106c98787611422828c0383612407565b519182918261242a565b9080949750528583205b82841061145457505050826106c99461142292820101948680611411565b8054868501880152928601928101611436565b60ff19168887015250505050151560051b8301019250611422826106c98680611411565b634e487b7160e01b845260228352602484fd5b93607f16936113f2565b5050346105a457816003193601126105a4576020905160508152f35b5050346105a457816003193601126105a45760209051600a8152f35b5050346105a457816003193601126105a4576020906009549051908152f35b5050346105a457816003193601126105a457602090610ac8613889565b5050346105a457816003193601126105a45751676765c793fa10079d601b1b8152602090f35b5050346105a457816003193601126105a4576020906007549051908152f35b5050346105a45760203660031901126105a45760209181906001600160a01b0361158961249b565b168152600e845220549081159182156115a6575b50519015158152f35b431191503861159d565b5050346105a457816003193601126105a45760209051673782dace9d9000008152f35b5050346105a45760203660031901126105a457906020916115f261249b565b9160ff60135416928361162f575b8361160f575050519015158152f35b6001600160a01b03168152601684528190205460ff161591503880610d77565b6001600160a01b0381168252601585528282205460ff169350611600565b5050346105a457816003193601126105a457602090600c549051908152f35b5050346105a45760203660031901126105a4576020906110ad61168d61249b565b612a14565b612473565b5050346105a457816003193601126105a4576020905160648152f35b905034610a25576020366003190112610a255735916001600160a01b03831683036106cd5750610a6d6020926116e76130ee565b61368a565b5050346105a457816003193601126105a4576020905160058152f35b5050346105a457816003193601126105a45760c090611725612892565b9495909381519660018060a01b03168752602087015260018060701b0380931690860152166060840152608083015260a0820152f35b905081600319360112610a255761177061249b565b906117796130ee565b6001600160a01b03937f0000000000000000000000000000000000000000000000000000000000000000851633036117ed576117b3613387565b60ff6006541690600582101561127c57506001036117df5750602092610a6d916024359181169061398b565b825163baf3f0f760e01b8152fd5b508251635b2fb5b360e11b8152fd5b5050346105a457816003193601126105a457517f00000000000000000000000000000000000000000000000000000000000000006001600160a01b03168152602090f35b905034610a25576020366003190112610a255735916001600160a01b03831683036106cd5750610a6d6020926118746130ee565b61311e565b5050346105a45760203660031901126105a4576020906110ad61189a61249b565b61281c565b5050346105a457816003193601126105a4576020905160078152f35b5050346105a457816003193601126105a4576020906110ad612779565b8383346105a457816003193601126105a4576118f26130ee565b6118fa613387565b60ff60135460081c161580156119cf575b80156119ba575b6119ab5760209250807f0000000000000000000000000000000000000000000000000000000000000000923381526017855220600160ff1982541617905561195c826011546125a6565b6011556119698233613908565b80518281527feda835ea67193b5de1fbd871950998f0537eec03a9e40592414ba19a24b4325d843392a26001600080516020614aa88339815191525551908152f35b516319e1016760e01b81529050fd5b50338252601760205260ff8183205416611912565b50338252601560205260ff81832054161561190b565b5050346105a457816003193601126105a4576020906110ad61274c565b5050346105a457816003193601126105a4576020906110ad611a35611a2c600954600a54906126ed565b600b54906126ed565b601154906126ed565b5050346105a457816003193601126105a45760209051620151808152f35b8383346105a457816003193601126105a457611a766130ee565b611a7e613889565b15611af557600b54918215611ae55760209350600b55611aa082600a546126ed565b600a5580518281527f6a0c33aa8c816cdfa77b389739210eadb9f9a653e441ee697d9a29d61a9884a1843392a26001600080516020614aa88339815191525551908152f35b81516312d37ee560e31b81528490fd5b51638a430e9f60e01b81529050fd5b5050346105a45760203660031901126105a45760209160ff9082906001600160a01b03611b2f61249b565b1681526015855220541690519015158152f35b5050346105a457816003193601126105a4576020905161dead8152f35b5050346105a457816003193601126105a457602090611b7c6130ee565b610a6d7f00000000000000000000000000000000000000000000000000000000000000006001600160a01b031661311e565b8284346106cd5760203660031901126106cd57506106bb6106c992356126fa565b5050346105a457816003193601126105a4576020905167016345785d8a00008152f35b83346106cd57806003193601126106cd57611c0b613387565b80f35b6124c7565b5050346105a457816003193601126105a457602090517f00000000000000000000000000000000000000000000000000000000000000008152f35b5050346105a457816003193601126105a4576020905160038152f35b5050346105a45760203660031901126105a45760209181906001600160a01b03611c9261249b565b168152600e845220549051908152f35b5050346105a457816003193601126105a4576020906008549051908152f35b5050346105a457816003193601126105a457602090611cde6130ee565b610a6d7f00000000000000000000000000000000000000000000000000000000000000006001600160a01b031661368a565b5050346105a457816003193601126105a457602090517f00000000000000000000000000000000000000000000000000000000000000008152f35b5050346105a457816003193601126105a4576020905160128152f35b5050346105a457816003193601126105a4576020906010549051908152f35b83806003193601126106cd57611d9a6130ee565b611da2613387565b610a0333613481565b5050346105a45760203660031901126105a45760209160ff9082906001600160a01b03611dd661249b565b1681526016855220541690519015158152f35b5050346105a457816003193601126105a45760209060ff6013541690519015158152f35b5050346105a457816003193601126105a45760209060ff60135460081c1690519015158152f35b905082346106cd5760603660031901126106cd57611e5061249b565b611e586124b1565b916044359360ff600654166005811015611f6d5760038103611f39575b506001600160a01b03831680835260016020908152878420338552905286832054916000198310611eaf575b60208861126789898961403b565b868310611f17578115611f00573315611ee95750825260016020908152868320338452815291869020908590039055829061126787611ea1565b8751634a1406b160e11b8152908101849052602490fd5b875163e602df0560e01b8152908101849052602490fd5b9050611f35868851938493637dc7a0d960e11b85523390850161424d565b0390fd5b60021480611f5b575b15611f4d5786611e75565b85516377d87fb560e11b8152fd5b506001600160a01b0383163014611f42565b634e487b7160e01b835260218252602483fd5b5050346105a457816003193601126105a4576020905162ed4e008152f35b8284346106cd57806003193601126106cd5750611fb9613224565b82519182526020820152f35b5050346105a45760203660031901126105a45760209160ff9082906001600160a01b03611ff061249b565b1681526017855220541690519015158152f35b5050346105a457816003193601126105a4576020906002549051908152f35b8383346105a457816003193601126105a457805191828201906001600160401b0382118483101761206e5750926106c9938252825263198ccc4d60e21b6020830152519182918261242a565b634e487b7160e01b815260418552602490fd5b5050346105a457816003193601126105a4576020905160088152f35b905034610a255781600319360112610a25576120b761249b565b602435903315612130576001600160a01b031691821561211957508083602095338152600187528181208582528752205582519081527f8c5be1e5ebec7d5bd14f71427d1e84f3dd0314c0f7b2291e5b200ac8c7c3b925843392a35160018152f35b8351634a1406b160e11b8152908101859052602490fd5b835163e602df0560e01b8152808401869052602490fd5b905034610a25576020366003190112610a25578035926001600160a01b039081851685036106cd57506121786130ee565b7f00000000000000000000000000000000000000000000000000000000000000001633036121ac5750610a6d60209261311e565b9051635b2fb5b360e11b8152fd5b5050346105a457816003193601126105a4576020906011549051908152f35b91905034610a255782600319360112610a255780519183600354906001908260011c926001811680156122a8575b602095868610821461229557508488529081156122735750600114612238575b6106c98686611422828b0383612407565b929550600383528583205b82841061226057505050826106c994611422928201019438612227565b8054868501880152928601928101612243565b60ff191687860152505050151560051b8301019250611422826106c938612227565b634e487b7160e01b845260229052602483fd5b93607f1693612207565b91905034610a255782600319360112610a255780519183600554906001908260011c9260018116801561234b575b602095868610821461229557508488529081156122735750600114612310576106c98686611422828b0383612407565b929550600583528583205b82841061233857505050826106c994611422928201019438612227565b805486850188015292860192810161231b565b93607f16936122e0565b5050346105a457816003193601126105a45760209051670de0b6b3a76400008152f35b5050346105a457816003193601126105a457517f00000000000000000000000000000000000000000000000000000000000000006001600160a01b03168152602090f35b8490346105a457816003193601126105a457806706f05b59d3b2000060209252f35b6001600160401b0381116123f157604052565b634e487b7160e01b600052604160045260246000fd5b601f909101601f19168101906001600160401b038211908210176123f157604052565b6020808252825181830181905290939260005b82811061245f57505060409293506000838284010152601f8019910116010190565b81810186015184820160400152850161243d565b3461249657600036600319011261249657602061248e6125fc565b604051908152f35b600080fd5b600435906001600160a01b038216820361249657565b602435906001600160a01b038216820361249657565b3461249657600036600319011261249657602061248e612673565b3461249657600036600319011261249657602060405160028152f35b3461249657600036600319011261249657602060405160048152f35b6040919493926060820195825260208201520152565b3461249657600036600319011261249657602060405160038152f35b3461249657600036600319011261249657602060405160018152f35b3461249657600036600319011261249657602060405160ff7f0000000000000000000000000000000000000000000000000000000000000000168152f35b919082039182116125b357565b634e487b7160e01b600052601160045260246000fd5b818102929181159184041417156125b357565b81156125e6570490565b634e487b7160e01b600052601260045260246000fd5b60ff60065416600581101561265d5760031461265757600954612710908181029181830414901517156125b357612654907f0000000000000000000000000000000000000000000000000000000000000000906125dc565b90565b61271090565b634e487b7160e01b600052602160045260246000fd5b60ff60065416600581101561265d576003146126b457612691613320565b670de0b6b3a7640000918281029281840414901517156125b357612654916125dc565b6126bc613224565b9080156126e657670de0b6b3a7640000918281029281840414901517156125b357612654916125dc565b5050600090565b919082018092116125b357565b60ff60065416600581101561265d576001036127405780156127405761273a9161265461273461272984613731565b91979293909761382b565b966126ed565b936125a6565b50600090600090600090565b612761611a35611a2c600954600a54906126ed565b804711156127735761265490476125a6565b50600090565b6006546001600160a01b039060081c811680156126e6576020906024604051809481936370a0823160e01b835260048301527f0000000000000000000000000000000000000000000000000000000000000000165afa908115612810576000916127e1575090565b90506020813d602011612808575b816127fc60209383612407565b81010312612496575190565b3d91506127ef565b6040513d6000823e3d90fd5b6001600160a01b03166000908152600e6020526040902054801561277357600181018091116125b35790565b51906001600160701b038216820361249657565b908160609103126124965761287081612848565b91604061287f60208401612848565b92015163ffffffff811681036124965790565b60065460081c6001600160a01b03908116918215612a0357818316916040928351926318160ddd60e01b84526020938481600481865afa9081156129f8576000916129cb575b5094805193630240bc6b60e21b8552606085600481875afa80156129c05760009560009161298a575b50949584600052600081528083600020549560248551809581936370a0823160e01b835260048301527f0000000000000000000000000000000000000000000000000000000000000000165afa928315612980575060009261296257505090565b90809250813d8311612979575b6127fc8183612407565b503d61296f565b513d6000823e3d90fd5b90506129af91955060603d6060116129b9575b6129a78183612407565b81019061285c565b5094909438612901565b503d61299d565b82513d6000823e3d90fd5b90508481813d83116129f1575b6129e28183612407565b810103126124965751386128d8565b503d6129d8565b86513d6000823e3d90fd5b600092508291508190819081908190565b6001600160a01b031660009081526020819052604090205490565b60135460ff8116612abf5760ff60065416600581101561265d57600414612a735760081c60ff168015612a6b575b612a6657600290565b600490565b506001612a5d565b506201518042018042116125b3577f0000000000000000000000000000000000000000000000000000000000000000809110612ab9574210612ab457600490565b600290565b50600190565b50600390565b60ff60065416600581101561265d57600303612ae157600b5490565b600090565b60ff60065416600581101561265d57600103612ae1576126546009547f00000000000000000000000000000000000000000000000000000000000000006125a6565b93909796959260c0959260e08601998652602086015260408501526060840152608083015260a08201520152565b60ff60065416600581101561265d5760010361274057801561274057612b9190610b4f610b49612b84613320565b919093610b4383866125c9565b90612b9b82614004565b5050612ba781846125a6565b91565b612bb2613387565b60069060ff82541691600583101561265d5760048093146130e057805460ff811660058110156130cb57600114612bf45760405163baf3f0f760e01b81528490fd5b33159081156130c1575b81156130a8575b5061309757341561308657612c1934613731565b9391908315801561307e575b61306d5760095492612c3783856126ed565b927f00000000000000000000000000000000000000000000000000000000000000009586612c648361382b565b9514613063575b84158015613058575b61304757612c84826000976126ed565b600955612c9384600a546126ed565b600a55612ca288600b546126ed565b600b5542600c55612cb5856007546125a6565b600755612cc385333061403b565b338652602094600e8652604098438a892055612cdf83346125a6565b9081613038575b60095496600754958c51958652898601528b8501526060840152608083015260a08201528360c08201528160e0820152600080516020614a888339815191526101003392a28583109081159161302f575b50612d47575b5050505050509050565b80549060ff821695600587101561301c5790899392916001880361300c578303612ffc57600260ff1980931617918282556002600080516020614a0883398151915298898980a3612d9661408f565b15612fec5760089081549960018060a01b039485807f00000000000000000000000000000000000000000000000000000000000000001691851c16808351996370a0823160e01b8b528a01528989602481855afa988915612fa957908d918c9a612fb3575b5090612e07913061403b565b803b15612f8b578d8a83518092630d0e30db60e41b8252818b865af18015612fa957908f91612f96575b5089906044888854881c16918d8651958694859363a9059cbb60e01b85528401528c60248401525af1908115612f43578a91612f5c575b5015612f4d578c8861dead6024888854881c16938d865195869485936335313c2160e11b85528401525af1988915612f43578a99612f13575b505088835588600955600384549260ff84169316178094556005821015612f0057600080516020614a488339815191529a9b9c50612ef197969594939291600391519a8a8c9ba31c1697856143e9565b0390a280388080808080612d3d565b634e487b7160e01b895260218d52602489fd5b9080929950813d8311612f3c575b612f2b8183612407565b810103126124965751963880612ea1565b503d612f21565b82513d8c823e3d90fd5b516314da028560e11b81528c90fd5b90508881813d8311612f8f575b612f738183612407565b81010312612f8b57518015158103612f8b5738612e68565b8980fd5b503d612f69565b9a612fa28b929c6123de565b9a90612e31565b83513d8d823e3d90fd5b8b80929b508193503d8311612fe5575b612fcd8183612407565b81010312612fe15751978c90612e07612dfb565b8a80fd5b503d612fc3565b8851633c1413fb60e01b81528590fd5b8751638199f5f360e01b81528490fd5b885163baf3f0f760e01b81528590fd5b634e487b7160e01b865260218a52602486fd5b90501538612d37565b6130428233613908565b612ce6565b604051638199f5f360e01b81528a90fd5b506007548511612c74565b6007549450612c6b565b604051631f2a200560e01b81528790fd5b508115612c25565b604051631f2a200560e01b81528390fd5b604051634e46966960e11b81528390fd5b3360089190911c6001600160a01b031614905038612c05565b3330149150612bfe565b602185634e487b7160e01b6000525260246000fd5b5090506130ec33613481565b565b600080516020614aa8833981519152600281541461310c5760029055565b604051633ee5aeb560e01b8152600490fd5b906001600160a01b03337f000000000000000000000000000000000000000000000000000000000000000082161415806131d9575b6131c857821680156131b657600a549283156131a45783613178916000600a55613908565b7f0f58cb6262d88971b87878468debb7bc81f1714be597710e16a9fb84c66ff7b56020604051858152a2565b6040516312d37ee560e31b8152600490fd5b60405163d92e233d60e01b8152600490fd5b6040516282b42960e81b8152600490fd5b50807f000000000000000000000000000000000000000000000000000000000000000016331415613153565b9081602091031261249657516001600160a01b03811681036124965790565b60065460081c6001600160a01b039081169190821561331757604051630240bc6b60e21b815290606082600481875afa938415612810576000926000956132e8575b5090602060049260405193848092630dfe168160e01b82525afa918215612810576000926132b7575b501630036132a7576001600160701b03908116921690565b6001600160701b03928316921690565b6132da91925060203d6020116132e1575b6132d28183612407565b810190613205565b903861328f565b503d6132c8565b6004929195506020935061330a9060603d6060116129b9576129a78183612407565b5093909395919250613266565b50600091508190565b61334d6009547f0000000000000000000000000000000000000000000000000000000000000000906126ed565b90612654613360600754600854906126ed565b7f0000000000000000000000000000000000000000000000000000000000000000906126ed565b60065460ff811690600582101561265d576004821480613457575b8061344a575b6133b0575050565b601054917f000000000000000000000000000000000000000000000000000000000000000083106133e6575050506130ec61426b565b7fd06618f00e4db5bc4d25734a5aefd22c95ef99b512f746c01022645e501b62a092600160409361010061ff0019601354161760135560ff1916176006556001835192600080516020614a08833981519152600080a3600f549082526020820152a1565b5060ff60135416156133a8565b507f00000000000000000000000000000000000000000000000000000000000000004210156133a2565b9060ff6006541691600583101561265d57600480930361365357620151804201804211613675577f000000000000000000000000000000000000000000000000000000000000000080911061366457421015613653576001600160a01b03166000818152601460205260408082205490919060ff1615613643577f0000000000000000000000000000000000000000000000000000000000000000340361363357828152601560205260ff828220541661362357600f547f00000000000000000000000000000000000000000000000000000000000000001115613613578281526015602052818120600160ff19825416179055600f54906001820180921161098f57506135e093945090817f2937d4b8ffdeea00fe58bc57f57d3010576fc9b39a784691fcc8054e15c60a4392600f556135be346010546126ed565b948592836010556135d1346011546126ed565b6011555192839234908461251a565b0390a27f00000000000000000000000000000000000000000000000000000000000000001461360b57565b6130ec61426b565b8151635c766e7560e01b81528590fd5b815163887daea160e01b81528590fd5b8151636ece8a1b60e01b81528590fd5b815163033bb9db60e21b81528590fd5b6040516302664e7160e11b81528390fd5b6040516302664e7160e11b81528490fd5b601184634e487b7160e01b6000525260246000fd5b906001600160a01b037f0000000000000000000000000000000000000000000000000000000000000000811633036131c85760ff60065416600581101561265d5760030361371f57821680156131b657600b549283156131a457836136f3916000600b55613908565b7fd046302bdc39599e60a5981e59227dcd1c643f512f56f2e984390c3ac6eadedb6020604051858152a2565b60405163baf3f0f760e01b8152600490fd5b9061375e6009547f00000000000000000000000000000000000000000000000000000000000000006125a6565b9182156138195761377961377182614004565b5050826125a6565b92808411613795575091905b61378e83614004565b9091509091565b9250506137b46137a483614480565b6126ac61271085091515906126ed565b91825b6137d7575b506137d16137c983614004565b5050836125a6565b90613785565b91826137e56137c983614004565b11156138135760001981019081116137fe5791826137b7565b60246000634e487b7160e01b81526011600452fd5b916137bc565b60405163c83ba27d60e01b8152600490fd5b613837816009546126ed565b7f0000000000000000000000000000000000000000000000000000000000000000146138825761387c610b4f6126549261386f613320565b939091610b4385846125c9565b906125dc565b5060075490565b60ff60065416600581101561265d57600114806138fd575b806138c6575b806138af5790565b50600c5462278d0081018091116125b35742101590565b507f000000000000000000000000000000000000000000000000000000000000000062ed4e0081018091116125b3574210156138a7565b50600b5415156138a1565b81471061396c57604051602081016001600160401b038111828210176123f157604052600080809481948280955260018060a01b03165af1156139485750565b3d1561395a57604051903d90823e3d90fd5b60405163d6bda27560e01b8152600490fd5b60405163cf47918160e01b815247600482015260248101839052604490fd5b92916001600160a01b038085169260009184158015613e3c575b8015613e2c575b613e1a573415613e00576139bf34613731565b97909192998a158015613e12575b613e00576009546139de85826126ed565b9b7f0000000000000000000000000000000000000000000000000000000000000000998a613a0b8861382b565b9e14613df6575b8d158015613deb575b613dd9578d10613dd957613a808d600080516020614a8883398151915294613a648e613a4a8b610100986126ed565b600955613a598a600a546126ed565b600a55600b546126ed565b600b5542600c55613a77826007546125a6565b6007553061403b565b838952602097600e895260409b8c9643888d2055613a9e84346125a6565b928380613dc9575b50506009549860075498519485528b8501528d840152606083015260808201528c60a08201528560c08201528460e0820152a285821090811591613dc0575b50613af3575b505050505050565b60069182549260ff8416966005881015613dac5760018803613d9b578303613d8a57600260ff1980951617938482556002600080516020614a0883398151915298898980a3613b4061408f565b15613d795760089081549984807f00000000000000000000000000000000000000000000000000000000000000001697841c168151976370a0823160e01b895260049180838b01528a8a602481855afa998a15613d3657908e918d9b613d40575b5090613bad913061403b565b803b15612fe1578251630d0e30db60e41b81528b8184818c865af18015613d3657613d25575b50898b916044898954891c168651948593849263a9059cbb60e01b8452888401528d60248401525af1908115612fa9578b91613cef575b5015613ce1578989878754871c1660248551809481936335313c2160e11b835261dead888401525af1998a15612fa9578b9a613cb1575b505089845589600955600385549360ff85169416178095556005831015613c9e5750916003600080516020614a488339815191529a9998969492613c90989694519a8a8c9ba31c1697856143e9565b0390a2388080808080613aeb565b634e487b7160e01b8a5260219052602489fd5b9080929a50813d8311613cda575b613cc98183612407565b810103126124965751973880613c41565b503d613cbf565b90516314da028560e11b8152fd5b90508981813d8311613d1e575b613d068183612407565b81010312612fe157518015158103612fe15738613c0a565b503d613cfc565b9a613d308b9c6123de565b9a613bd3565b84513d8e823e3d90fd5b8c80929c508193503d8311613d72575b613d5a8183612407565b81010312613d6e5751988d90613bad613ba1565b8b80fd5b503d613d50565b8851633c1413fb60e01b8152600490fd5b8751638199f5f360e01b8152600490fd5b885163baf3f0f760e01b8152600490fd5b634e487b7160e01b87526021600452602487fd5b90501538613ae5565b613dd291613908565b3883613aa6565b604051638199f5f360e01b8152600490fd5b508d60075410613a1b565b6007549d50613a12565b604051631f2a200560e01b8152600490fd5b5083156139cd565b604051634e46966960e11b8152600490fd5b508060065460081c1685146139ac565b503085146139a5565b60065460081c6001600160a01b039081169081156126e657604080516318160ddd60e01b815290926020918281600481855afa908115613f9a57600091613fa5575b50613f62578351630240bc6b60e21b8152606081600481855afa908115613f9a57600090600092613f77575b506001600160701b039081161580159290613f6b575b5050613f6257613ed881612a14565b613f6257819060248551809581936370a0823160e01b835260048301527f0000000000000000000000000000000000000000000000000000000000000000165afa9283156129805750600092613f34575b5050612ae157600190565b90809250813d8311613f5b575b613f4b8183612407565b8101031261249657513880613f29565b503d613f41565b50505050600090565b16151590503880613ec9565b9050613f92915060603d6060116129b9576129a78183612407565b509038613eb3565b85513d6000823e3d90fd5b90508281813d8311613fcb575b613fbc8183612407565b81010312612496575138613e87565b503d613fb2565b908015613ff157613fe960019160001984016125dc565b019015150290565b634e487b7160005260126020526024601cfd5b80156127405780612710606461401c614026946144ea565b92091515906126ed565b9061403082614405565b9061265482846125a6565b91906001600160a01b03808416156140765781161561405d576130ec92614553565b60405163ec442f0560e01b815260006004820152602490fd5b604051634b637e8f60e11b815260006004820152602490fd5b60065460081c6001600160a01b039081169081156126e6576040908151926318160ddd60e01b84526020938481600481855afa90811561421557600091614220575b50613f62576140df81612a14565b613f62578251630240bc6b60e21b815290606082600481845afa948515614215576000926000966141ed575b508451630dfe168160e01b8152908082600481865afa9182156129f8576000926141cb575b50806004929387519384809263d21220a760e01b82525afa95861561298057506000956141ac575b5050821630149081614199575b5061419157163014908161417e575b50612ae157600190565b6001600160701b03161515905038614174565b505050600090565b6001600160701b03161515905038614165565b6141c3929550803d106132e1576132d28183612407565b923880614158565b600492506141e68291823d84116132e1576132d28183612407565b9250614130565b90955061420a91925060603d6060116129b9576129a78183612407565b50919091943861410b565b84513d6000823e3d90fd5b90508481813d8311614246575b6142378183612407565b810103126124965751386140d1565b503d61422d565b604091949392606082019560018060a01b0316825260208201520152565b60135460ff811661371f57601054907f0000000000000000000000000000000000000000000000000000000000000000820361371f576142b9906142ae83614004565b9491829491946125a6565b908115613dd9576142c98261382b565b6142fe6142f77f000000000000000000000000000000000000000000000000000000000000000080936125dc565b91826125c9565b91811580156143e1575b80156143d6575b613dd957600160ff19809616176013558160125582600d556000601155614338846009546126ed565b60095561434786600a546126ed565b600a5561435687600b546126ed565b600b55614365836007546125a6565b60075542600c5560016006549560ff8716961617600655600585101561265d577f8020fdb0592775b626a997485c415e05a790703d920667e59222a260f0c3903a966001966143d195604051988998600080516020614a08833981519152600080a3600f549388612b28565b0390a1565b50600754831161430f565b508215614308565b9094939260609260808301968352602083015260408201520152565b600019601e8209601e820290818082109103908082039114614477578060641115614464576064601e7f5c28f5c28f5c28f5c28f5c28f5c28f5c28f5c28f5c28f5c28f5c28f5c28f5c29940990828211900360fe1b910360021c170290565b634e487b7160005260116020526024601cfd5b50606491500490565b612710600019818309818302918280831092039180830392146144df576126ac9082821115614464577fa902ffe58553adaa902ffe58553adaa902ffe58553adaa902ffe58553adaa903940990828211900360fe1b910360021c170290565b50506126ac91500490565b60001960648209606482029081808210910390808203911461454957612710818111156144645760647fbc01a36e2eb1c432ca57a786c226809d495182a9930be0ded288ce703afb7e91940990828211900360fc1b910360041c170290565b5061271091500490565b9190614560828285614813565b61456e575b6130ec92614877565b61ffff612710806145a17f00000000000000000000000000000000000000000000000000000000000000008416866125c9565b0491826145b057505050614565565b6145df909392937f000000000000000000000000000000000000000000000000000000000000000016846125c9565b046145ea81846125a6565b906145ff6145f885876125a6565b8488614877565b80614673575b8161463e91600080516020614a28833981519152959493614643575b6040516001600160a01b03948516989094169693948594856143e9565b0390a3565b61466e827f00000000000000000000000000000000000000000000000000000000000000008a614877565b614621565b60ff6006541660058110158061265d57600182148015614806575b156147c15750506001600160a01b03861680159081156147b8575b30149081156147ac575b1590816147a3575b50614791575b6001600160a01b03861680614732579181600080516020614a288339815191529594936146f361463e946002546126ed565b6002555b61dead908160005260006020526040600020838154019055600080516020614a688339815191526020604051858152a3915091929350614605565b6000818152806020526040812054838110614773579181604085600080516020614a28833981519152999897958461463e98965283602052039120556146f7565b88611f358560405193849363391434e360e21b85526004850161424d565b6040516377d87fb560e11b8152600490fd5b905015386146bb565b61dead301491506146b3565b600091506146a9565b61265d57600281036147e45750306001600160a01b0387160361371f575b6146c1565b6003036146c1573061dead036147df57604051634e46966960e11b8152600490fd5b505060006004821461468e565b9091156126e6576006549060ff8216600581101561265d57600303614191576001600160a01b03908116918215801561486d575b613f625760081c8116918214928315614861575b50505090565b1614905038808061485b565b5081841615614847565b9060ff6006541660058110158061265d576001821480156149fa575b156149ae57506001600160a01b03905082811680159081156149a3575b3014918215614997575b5015908161498e575b50614791575b6001600160a01b0382811692909190836149325750600080516020614a68833981519152916020916148fd866002546126ed565b6002555b16938461491a5780600254036002555b604051908152a3565b84600052600082526040600020818154019055614911565b600090848252816020526040822054908682106149715750918160408760209588600080516020614a6883398151915298965283875203912055614901565b611f358760405193849363391434e360e21b85526004850161424d565b905015386148c3565b831630149150386148ba565b8383161591506148b0565b61265d57600281036149d15750306001600160a01b0383160361371f575b6148c9565b6003036148c957306001600160a01b038216036149cc57604051634e46966960e11b8152600490fd5b505060006004821461489356fe3a779de46631dd65116ae538600f1bc3c338200c6aef638429b5de43301c28f7e7394f16cc22ae35fb752bb4c8624944eb198544034ab0a3590d0e139bf9267871aa8c3702dbbc54247a4e6446450e64a46250dd72707a247ddb01d72eaef445ddf252ad1be2c89b69c2b068fc378daa952ba7f163c4a11628f55a4df523b3ef6ff5f8cb3bbdee941e910591101be7dcb3bd64213bbc4ac9e994c9d7b0ef74cd9b779b17422d0df92223018b32b4d1fa46e071723d6817e2486d003becc55f00a2646970667358221220c5c567ad17508f60aaf179f28aed38d9fdc98bf89dcaecc3896c877a00136ef964736f6c63430008180033e7394f16cc22ae35fb752bb4c8624944eb198544034ab0a3590d0e139bf92678ddf252ad1be2c89b69c2b068fc378daa952ba7f163c4a11628f55a4df523b3ef",
  "linkReferences": {},
  "deployedLinkReferences": {}
}