{
  "_format": "hh-sol-artifact-1",
  "contractName": "LaunchTokenWhitelist",
  "sourceName": "contracts/LaunchTokenWhitelist.sol",
  "abi": [
    {
      "inputs": [
        {
          "components": [
            {
              "internalType": "string",
              "name": "name",
              "type": "string"
            },
            {
              "internalType": "string",
              "name": "symbol",
              "type": "string"
            },
            {
              "internalType": "string",
              "name": "metadataURI",
              "type": "string"
            },
            {
              "internalType": "address",
              "name": "creator",
              "type": "address"
            },
            {
              "internalType": "address",
              "name": "factory",
              "type": "address"
            },
            {
              "internalType": "address",
              "name": "protocolFeeRecipient",
              "type": "address"
            },
            {
              "internalType": "address",
              "name": "router",
              "type": "address"
            },
            {
              "internalType": "uint256",
              "name": "graduationQuoteReserve",
              "type": "uint256"
            },
            {
              "internalType": "uint256",
              "name": "whitelistThreshold",
              "type": "uint256"
            },
            {
              "internalType": "uint256",
              "name": "whitelistSlotSize",
              "type": "uint256"
            },
            {
              "internalType": "address[]",
              "name": "whitelistAddresses",
              "type": "address[]"
            }
          ],
          "internalType": "struct LaunchTokenWhitelist.ConstructorArgs",
          "name": "args",
          "type": "tuple"
        }
      ],
      "stateMutability": "nonpayable",
      "type": "constructor"
    },
    {
      "inputs": [],
      "name": "CreatorFeeSweepUnavailable",
      "type": "error"
    },
    {
      "inputs": [],
      "name": "DuplicateWhitelistAddress",
      "type": "error"
    },
    {
      "inputs": [
        {
          "internalType": "address",
          "name": "spender",
          "type": "address"
        },
        {
          "internalType": "uint256",
          "name": "allowance",
          "type": "uint256"
        },
        {
          "internalType": "uint256",
          "name": "needed",
          "type": "uint256"
        }
      ],
      "name": "ERC20InsufficientAllowance",
      "type": "error"
    },
    {
      "inputs": [
        {
          "internalType": "address",
          "name": "sender",
          "type": "address"
        },
        {
          "internalType": "uint256",
          "name": "balance",
          "type": "uint256"
        },
        {
          "internalType": "uint256",
          "name": "needed",
          "type": "uint256"
        }
      ],
      "name": "ERC20InsufficientBalance",
      "type": "error"
    },
    {
      "inputs": [
        {
          "internalType": "address",
          "name": "approver",
          "type": "address"
        }
      ],
      "name": "ERC20InvalidApprover",
      "type": "error"
    },
    {
      "inputs": [
        {
          "internalType": "address",
          "name": "receiver",
          "type": "address"
        }
      ],
      "name": "ERC20InvalidReceiver",
      "type": "error"
    },
    {
      "inputs": [
        {
          "internalType": "address",
          "name": "sender",
          "type": "address"
        }
      ],
      "name": "ERC20InvalidSender",
      "type": "error"
    },
    {
      "inputs": [
        {
          "internalType": "address",
          "name": "spender",
          "type": "address"
        }
      ],
      "name": "ERC20InvalidSpender",
      "type": "error"
    },
    {
      "inputs": [],
      "name": "FailedCall",
      "type": "error"
    },
    {
      "inputs": [],
      "name": "GraduationAlreadyTriggered",
      "type": "error"
    },
    {
      "inputs": [
        {
          "internalType": "uint256",
          "name": "balance",
          "type": "uint256"
        },
        {
          "internalType": "uint256",
          "name": "needed",
          "type": "uint256"
        }
      ],
      "name": "InsufficientBalance",
      "type": "error"
    },
    {
      "inputs": [],
      "name": "InvalidGraduationConfig",
      "type": "error"
    },
    {
      "inputs": [],
      "name": "InvalidRecipient",
      "type": "error"
    },
    {
      "inputs": [],
      "name": "InvalidState",
      "type": "error"
    },
    {
      "inputs": [],
      "name": "InvalidWhitelistAddressCount",
      "type": "error"
    },
    {
      "inputs": [],
      "name": "InvalidWhitelistCommitAmount",
      "type": "error"
    },
    {
      "inputs": [],
      "name": "InvalidWhitelistSeatCount",
      "type": "error"
    },
    {
      "inputs": [],
      "name": "InvalidWhitelistSlotSize",
      "type": "error"
    },
    {
      "inputs": [],
      "name": "InvalidWhitelistThreshold",
      "type": "error"
    },
    {
      "inputs": [],
      "name": "NothingToClaim",
      "type": "error"
    },
    {
      "inputs": [],
      "name": "PairPolluted",
      "type": "error"
    },
    {
      "inputs": [],
      "name": "ReentrancyGuardReentrantCall",
      "type": "error"
    },
    {
      "inputs": [],
      "name": "SellCooldownActive",
      "type": "error"
    },
    {
      "inputs": [],
      "name": "SlippageExceeded",
      "type": "error"
    },
    {
      "inputs": [],
      "name": "TransferDisabledPreGraduation",
      "type": "error"
    },
    {
      "inputs": [],
      "name": "Unauthorized",
      "type": "error"
    },
    {
      "inputs": [],
      "name": "UnauthorizedFactoryDeployment",
      "type": "error"
    },
    {
      "inputs": [],
      "name": "WhitelistAddressNotApproved",
      "type": "error"
    },
    {
      "inputs": [],
      "name": "WhitelistAllocationUnavailable",
      "type": "error"
    },
    {
      "inputs": [],
      "name": "WhitelistAlreadyCommitted",
      "type": "error"
    },
    {
      "inputs": [],
      "name": "WhitelistNotActive",
      "type": "error"
    },
    {
      "inputs": [],
      "name": "WhitelistRefundUnavailable",
      "type": "error"
    },
    {
      "inputs": [],
      "name": "WhitelistSeatUnavailable",
      "type": "error"
    },
    {
      "inputs": [],
      "name": "WrappedQuoteTransferFailed",
      "type": "error"
    },
    {
      "inputs": [],
      "name": "ZeroAddress",
      "type": "error"
    },
    {
      "inputs": [],
      "name": "ZeroAmount",
      "type": "error"
    },
    {
      "anonymous": false,
      "inputs": [
        {
          "indexed": true,
          "internalType": "address",
          "name": "owner",
          "type": "address"
        },
        {
          "indexed": true,
          "internalType": "address",
          "name": "spender",
          "type": "address"
        },
        {
          "indexed": false,
          "internalType": "uint256",
          "name": "value",
          "type": "uint256"
        }
      ],
      "name": "Approval",
      "type": "event"
    },
    {
      "anonymous": false,
      "inputs": [
        {
          "indexed": true,
          "internalType": "address",
          "name": "buyer",
          "type": "address"
        },
        {
          "indexed": false,
          "internalType": "uint256",
          "name": "grossQuoteIn",
          "type": "uint256"
        },
        {
          "indexed": false,
          "internalType": "uint256",
          "name": "netQuoteIn",
          "type": "uint256"
        },
        {
          "indexed": false,
          "internalType": "uint256",
          "name": "protocolFee",
          "type": "uint256"
        },
        {
          "indexed": false,
          "internalType": "uint256",
          "name": "creatorFee",
          "type": "uint256"
        },
        {
          "indexed": false,
          "internalType": "uint256",
          "name": "refundAmount",
          "type": "uint256"
        },
        {
          "indexed": false,
          "internalType": "uint256",
          "name": "tokenOut",
          "type": "uint256"
        },
        {
          "indexed": false,
          "internalType": "uint256",
          "name": "newCurveQuoteReserve",
          "type": "uint256"
        },
        {
          "indexed": false,
          "internalType": "uint256",
          "name": "newSaleTokenReserve",
          "type": "uint256"
        }
      ],
      "name": "BuyExecuted",
      "type": "event"
    },
    {
      "anonymous": false,
      "inputs": [
        {
          "indexed": true,
          "internalType": "address",
          "name": "recipient",
          "type": "address"
        },
        {
          "indexed": false,
          "internalType": "uint256",
          "name": "amount",
          "type": "uint256"
        }
      ],
      "name": "CreatorFeesClaimed",
      "type": "event"
    },
    {
      "anonymous": false,
      "inputs": [
        {
          "indexed": true,
          "internalType": "address",
          "name": "caller",
          "type": "address"
        },
        {
          "indexed": false,
          "internalType": "uint256",
          "name": "amount",
          "type": "uint256"
        }
      ],
      "name": "CreatorFeesSwept",
      "type": "event"
    },
    {
      "anonymous": false,
      "inputs": [
        {
          "indexed": true,
          "internalType": "address",
          "name": "pair",
          "type": "address"
        },
        {
          "indexed": false,
          "internalType": "uint256",
          "name": "tokenAmount",
          "type": "uint256"
        },
        {
          "indexed": false,
          "internalType": "uint256",
          "name": "quoteAmountContributed",
          "type": "uint256"
        },
        {
          "indexed": false,
          "internalType": "uint256",
          "name": "preloadedQuoteAmount",
          "type": "uint256"
        },
        {
          "indexed": false,
          "internalType": "uint256",
          "name": "liquidityBurned",
          "type": "uint256"
        }
      ],
      "name": "Graduated",
      "type": "event"
    },
    {
      "anonymous": false,
      "inputs": [
        {
          "indexed": true,
          "internalType": "address",
          "name": "recipient",
          "type": "address"
        },
        {
          "indexed": false,
          "internalType": "uint256",
          "name": "amount",
          "type": "uint256"
        }
      ],
      "name": "ProtocolFeesClaimed",
      "type": "event"
    },
    {
      "anonymous": false,
      "inputs": [
        {
          "indexed": true,
          "internalType": "address",
          "name": "seller",
          "type": "address"
        },
        {
          "indexed": false,
          "internalType": "uint256",
          "name": "tokenIn",
          "type": "uint256"
        },
        {
          "indexed": false,
          "internalType": "uint256",
          "name": "grossQuoteOut",
          "type": "uint256"
        },
        {
          "indexed": false,
          "internalType": "uint256",
          "name": "netQuoteOut",
          "type": "uint256"
        },
        {
          "indexed": false,
          "internalType": "uint256",
          "name": "protocolFee",
          "type": "uint256"
        },
        {
          "indexed": false,
          "internalType": "uint256",
          "name": "creatorFee",
          "type": "uint256"
        },
        {
          "indexed": false,
          "internalType": "uint256",
          "name": "newCurveQuoteReserve",
          "type": "uint256"
        },
        {
          "indexed": false,
          "internalType": "uint256",
          "name": "newSaleTokenReserve",
          "type": "uint256"
        }
      ],
      "name": "SellExecuted",
      "type": "event"
    },
    {
      "anonymous": false,
      "inputs": [
        {
          "indexed": true,
          "internalType": "enum LaunchTokenBase.LaunchState",
          "name": "previousState",
          "type": "uint8"
        },
        {
          "indexed": true,
          "internalType": "enum LaunchTokenBase.LaunchState",
          "name": "newState",
          "type": "uint8"
        }
      ],
      "name": "StateTransition",
      "type": "event"
    },
    {
      "anonymous": false,
      "inputs": [
        {
          "indexed": true,
          "internalType": "address",
          "name": "from",
          "type": "address"
        },
        {
          "indexed": true,
          "internalType": "address",
          "name": "to",
          "type": "address"
        },
        {
          "indexed": false,
          "internalType": "uint256",
          "name": "value",
          "type": "uint256"
        }
      ],
      "name": "Transfer",
      "type": "event"
    },
    {
      "anonymous": false,
      "inputs": [
        {
          "indexed": true,
          "internalType": "address",
          "name": "account",
          "type": "address"
        },
        {
          "indexed": false,
          "internalType": "uint256",
          "name": "tokenAmount",
          "type": "uint256"
        }
      ],
      "name": "WhitelistAllocationClaimed",
      "type": "event"
    },
    {
      "anonymous": false,
      "inputs": [
        {
          "indexed": false,
          "internalType": "uint256",
          "name": "threshold",
          "type": "uint256"
        },
        {
          "indexed": false,
          "internalType": "uint256",
          "name": "slotSize",
          "type": "uint256"
        },
        {
          "indexed": false,
          "internalType": "uint256",
          "name": "seatCount",
          "type": "uint256"
        },
        {
          "indexed": false,
          "internalType": "uint256",
          "name": "whitelistCount",
          "type": "uint256"
        },
        {
          "indexed": false,
          "internalType": "uint256",
          "name": "deadline",
          "type": "uint256"
        }
      ],
      "name": "WhitelistConfigured",
      "type": "event"
    },
    {
      "anonymous": false,
      "inputs": [
        {
          "indexed": false,
          "internalType": "uint256",
          "name": "committedTotal",
          "type": "uint256"
        },
        {
          "indexed": false,
          "internalType": "uint256",
          "name": "seatsFilled",
          "type": "uint256"
        }
      ],
      "name": "WhitelistExpired",
      "type": "event"
    },
    {
      "anonymous": false,
      "inputs": [
        {
          "indexed": false,
          "internalType": "uint256",
          "name": "grossCommitted",
          "type": "uint256"
        },
        {
          "indexed": false,
          "internalType": "uint256",
          "name": "netQuoteAdded",
          "type": "uint256"
        },
        {
          "indexed": false,
          "internalType": "uint256",
          "name": "protocolFee",
          "type": "uint256"
        },
        {
          "indexed": false,
          "internalType": "uint256",
          "name": "creatorFee",
          "type": "uint256"
        },
        {
          "indexed": false,
          "internalType": "uint256",
          "name": "seatsFilled",
          "type": "uint256"
        },
        {
          "indexed": false,
          "internalType": "uint256",
          "name": "tokensPerSeat",
          "type": "uint256"
        },
        {
          "indexed": false,
          "internalType": "uint256",
          "name": "reservedTokenAmount",
          "type": "uint256"
        }
      ],
      "name": "WhitelistFinalized",
      "type": "event"
    },
    {
      "anonymous": false,
      "inputs": [
        {
          "indexed": true,
          "internalType": "address",
          "name": "account",
          "type": "address"
        },
        {
          "indexed": false,
          "internalType": "uint256",
          "name": "amount",
          "type": "uint256"
        }
      ],
      "name": "WhitelistRefundClaimed",
      "type": "event"
    },
    {
      "anonymous": false,
      "inputs": [
        {
          "indexed": true,
          "internalType": "address",
          "name": "account",
          "type": "address"
        },
        {
          "indexed": false,
          "internalType": "uint256",
          "name": "seatNumber",
          "type": "uint256"
        },
        {
          "indexed": false,
          "internalType": "uint256",
          "name": "amount",
          "type": "uint256"
        },
        {
          "indexed": false,
          "internalType": "uint256",
          "name": "committedTotal",
          "type": "uint256"
        }
      ],
      "name": "WhitelistSeatCommitted",
      "type": "event"
    },
    {
      "inputs": [],
      "name": "BPS_DENOMINATOR",
      "outputs": [
        {
          "internalType": "uint256",
          "name": "",
          "type": "uint256"
        }
      ],
      "stateMutability": "view",
      "type": "function"
    },
    {
      "inputs": [],
      "name": "CREATOR_FEE_BPS",
      "outputs": [
        {
          "internalType": "uint256",
          "name": "",
          "type": "uint256"
        }
      ],
      "stateMutability": "view",
      "type": "function"
    },
    {
      "inputs": [],
      "name": "CREATOR_FEE_SWEEP_MIN_AGE",
      "outputs": [
        {
          "internalType": "uint256",
          "name": "",
          "type": "uint256"
        }
      ],
      "stateMutability": "view",
      "type": "function"
    },
    {
      "inputs": [],
      "name": "CREATOR_FEE_SWEEP_MIN_INACTIVITY",
      "outputs": [
        {
          "internalType": "uint256",
          "name": "",
          "type": "uint256"
        }
      ],
      "stateMutability": "view",
      "type": "function"
    },
    {
      "inputs": [],
      "name": "DEAD_ADDRESS",
      "outputs": [
        {
          "internalType": "address",
          "name": "",
          "type": "address"
        }
      ],
      "stateMutability": "view",
      "type": "function"
    },
    {
      "inputs": [],
      "name": "LP_TOKEN_RESERVE",
      "outputs": [
        {
          "internalType": "uint256",
          "name": "",
          "type": "uint256"
        }
      ],
      "stateMutability": "view",
      "type": "function"
    },
    {
      "inputs": [],
      "name": "MAX_SEATS",
      "outputs": [
        {
          "internalType": "uint256",
          "name": "",
          "type": "uint256"
        }
      ],
      "stateMutability": "view",
      "type": "function"
    },
    {
      "inputs": [],
      "name": "MODE_STANDARD_0314",
      "outputs": [
        {
          "internalType": "uint8",
          "name": "",
          "type": "uint8"
        }
      ],
      "stateMutability": "view",
      "type": "function"
    },
    {
      "inputs": [],
      "name": "MODE_WHITELIST_B314",
      "outputs": [
        {
          "internalType": "uint8",
          "name": "",
          "type": "uint8"
        }
      ],
      "stateMutability": "view",
      "type": "function"
    },
    {
      "inputs": [],
      "name": "PROTOCOL_FEE_BPS",
      "outputs": [
        {
          "internalType": "uint256",
          "name": "",
          "type": "uint256"
        }
      ],
      "stateMutability": "view",
      "type": "function"
    },
    {
      "inputs": [],
      "name": "SALE_TOKEN_RESERVE",
      "outputs": [
        {
          "internalType": "uint256",
          "name": "",
          "type": "uint256"
        }
      ],
      "stateMutability": "view",
      "type": "function"
    },
    {
      "inputs": [],
      "name": "SLOT_01_BNB",
      "outputs": [
        {
          "internalType": "uint256",
          "name": "",
          "type": "uint256"
        }
      ],
      "stateMutability": "view",
      "type": "function"
    },
    {
      "inputs": [],
      "name": "SLOT_02_BNB",
      "outputs": [
        {
          "internalType": "uint256",
          "name": "",
          "type": "uint256"
        }
      ],
      "stateMutability": "view",
      "type": "function"
    },
    {
      "inputs": [],
      "name": "SLOT_05_BNB",
      "outputs": [
        {
          "internalType": "uint256",
          "name": "",
          "type": "uint256"
        }
      ],
      "stateMutability": "view",
      "type": "function"
    },
    {
      "inputs": [],
      "name": "SLOT_1_BNB",
      "outputs": [
        {
          "internalType": "uint256",
          "name": "",
          "type": "uint256"
        }
      ],
      "stateMutability": "view",
      "type": "function"
    },
    {
      "inputs": [],
      "name": "THRESHOLD_4_BNB",
      "outputs": [
        {
          "internalType": "uint256",
          "name": "",
          "type": "uint256"
        }
      ],
      "stateMutability": "view",
      "type": "function"
    },
    {
      "inputs": [],
      "name": "THRESHOLD_6_BNB",
      "outputs": [
        {
          "internalType": "uint256",
          "name": "",
          "type": "uint256"
        }
      ],
      "stateMutability": "view",
      "type": "function"
    },
    {
      "inputs": [],
      "name": "THRESHOLD_8_BNB",
      "outputs": [
        {
          "internalType": "uint256",
          "name": "",
          "type": "uint256"
        }
      ],
      "stateMutability": "view",
      "type": "function"
    },
    {
      "inputs": [],
      "name": "TOTAL_FEE_BPS",
      "outputs": [
        {
          "internalType": "uint256",
          "name": "",
          "type": "uint256"
        }
      ],
      "stateMutability": "view",
      "type": "function"
    },
    {
      "inputs": [],
      "name": "TOTAL_SUPPLY",
      "outputs": [
        {
          "internalType": "uint256",
          "name": "",
          "type": "uint256"
        }
      ],
      "stateMutability": "view",
      "type": "function"
    },
    {
      "inputs": [],
      "name": "VIRTUAL_QUOTE_DIVISOR",
      "outputs": [
        {
          "internalType": "uint256",
          "name": "",
          "type": "uint256"
        }
      ],
      "stateMutability": "view",
      "type": "function"
    },
    {
      "inputs": [],
      "name": "WHITELIST_DURATION",
      "outputs": [
        {
          "internalType": "uint256",
          "name": "",
          "type": "uint256"
        }
      ],
      "stateMutability": "view",
      "type": "function"
    },
    {
      "inputs": [],
      "name": "WHITELIST_STATUS_ACTIVE",
      "outputs": [
        {
          "internalType": "uint8",
          "name": "",
          "type": "uint8"
        }
      ],
      "stateMutability": "view",
      "type": "function"
    },
    {
      "inputs": [],
      "name": "WHITELIST_STATUS_EXPIRED",
      "outputs": [
        {
          "internalType": "uint8",
          "name": "",
          "type": "uint8"
        }
      ],
      "stateMutability": "view",
      "type": "function"
    },
    {
      "inputs": [],
      "name": "WHITELIST_STATUS_FINALIZED",
      "outputs": [
        {
          "internalType": "uint8",
          "name": "",
          "type": "uint8"
        }
      ],
      "stateMutability": "view",
      "type": "function"
    },
    {
      "inputs": [],
      "name": "WHITELIST_STATUS_NONE",
      "outputs": [
        {
          "internalType": "uint8",
          "name": "",
          "type": "uint8"
        }
      ],
      "stateMutability": "view",
      "type": "function"
    },
    {
      "inputs": [],
      "name": "accountedNativeBalance",
      "outputs": [
        {
          "internalType": "uint256",
          "name": "",
          "type": "uint256"
        }
      ],
      "stateMutability": "view",
      "type": "function"
    },
    {
      "inputs": [],
      "name": "advanceWhitelistPhase",
      "outputs": [],
      "stateMutability": "nonpayable",
      "type": "function"
    },
    {
      "inputs": [
        {
          "internalType": "address",
          "name": "owner",
          "type": "address"
        },
        {
          "internalType": "address",
          "name": "spender",
          "type": "address"
        }
      ],
      "name": "allowance",
      "outputs": [
        {
          "internalType": "uint256",
          "name": "",
          "type": "uint256"
        }
      ],
      "stateMutability": "view",
      "type": "function"
    },
    {
      "inputs": [
        {
          "internalType": "address",
          "name": "spender",
          "type": "address"
        },
        {
          "internalType": "uint256",
          "name": "value",
          "type": "uint256"
        }
      ],
      "name": "approve",
      "outputs": [
        {
          "internalType": "bool",
          "name": "",
          "type": "bool"
        }
      ],
      "stateMutability": "nonpayable",
      "type": "function"
    },
    {
      "inputs": [
        {
          "internalType": "address",
          "name": "account",
          "type": "address"
        }
      ],
      "name": "balanceOf",
      "outputs": [
        {
          "internalType": "uint256",
          "name": "",
          "type": "uint256"
        }
      ],
      "stateMutability": "view",
      "type": "function"
    },
    {
      "inputs": [
        {
          "internalType": "uint256",
          "name": "minTokenOut",
          "type": "uint256"
        }
      ],
      "name": "buy",
      "outputs": [
        {
          "internalType": "uint256",
          "name": "tokenOut",
          "type": "uint256"
        }
      ],
      "stateMutability": "payable",
      "type": "function"
    },
    {
      "inputs": [
        {
          "internalType": "address",
          "name": "account",
          "type": "address"
        }
      ],
      "name": "canClaimWhitelistAllocation",
      "outputs": [
        {
          "internalType": "bool",
          "name": "",
          "type": "bool"
        }
      ],
      "stateMutability": "view",
      "type": "function"
    },
    {
      "inputs": [
        {
          "internalType": "address",
          "name": "account",
          "type": "address"
        }
      ],
      "name": "canClaimWhitelistRefund",
      "outputs": [
        {
          "internalType": "bool",
          "name": "",
          "type": "bool"
        }
      ],
      "stateMutability": "view",
      "type": "function"
    },
    {
      "inputs": [
        {
          "internalType": "address",
          "name": "account",
          "type": "address"
        }
      ],
      "name": "canCommitWhitelist",
      "outputs": [
        {
          "internalType": "bool",
          "name": "",
          "type": "bool"
        }
      ],
      "stateMutability": "view",
      "type": "function"
    },
    {
      "inputs": [
        {
          "internalType": "address",
          "name": "account",
          "type": "address"
        }
      ],
      "name": "canSell",
      "outputs": [
        {
          "internalType": "bool",
          "name": "",
          "type": "bool"
        }
      ],
      "stateMutability": "view",
      "type": "function"
    },
    {
      "inputs": [],
      "name": "claimCreatorFees",
      "outputs": [
        {
          "internalType": "uint256",
          "name": "amount",
          "type": "uint256"
        }
      ],
      "stateMutability": "nonpayable",
      "type": "function"
    },
    {
      "inputs": [
        {
          "internalType": "address payable",
          "name": "recipient",
          "type": "address"
        }
      ],
      "name": "claimCreatorFeesTo",
      "outputs": [
        {
          "internalType": "uint256",
          "name": "amount",
          "type": "uint256"
        }
      ],
      "stateMutability": "nonpayable",
      "type": "function"
    },
    {
      "inputs": [],
      "name": "claimProtocolFees",
      "outputs": [
        {
          "internalType": "uint256",
          "name": "amount",
          "type": "uint256"
        }
      ],
      "stateMutability": "nonpayable",
      "type": "function"
    },
    {
      "inputs": [
        {
          "internalType": "address payable",
          "name": "recipient",
          "type": "address"
        }
      ],
      "name": "claimProtocolFeesTo",
      "outputs": [
        {
          "internalType": "uint256",
          "name": "amount",
          "type": "uint256"
        }
      ],
      "stateMutability": "nonpayable",
      "type": "function"
    },
    {
      "inputs": [],
      "name": "claimWhitelistAllocation",
      "outputs": [
        {
          "internalType": "uint256",
          "name": "tokenAmount",
          "type": "uint256"
        }
      ],
      "stateMutability": "nonpayable",
      "type": "function"
    },
    {
      "inputs": [],
      "name": "claimWhitelistRefund",
      "outputs": [
        {
          "internalType": "uint256",
          "name": "refundAmount",
          "type": "uint256"
        }
      ],
      "stateMutability": "nonpayable",
      "type": "function"
    },
    {
      "inputs": [],
      "name": "commitWhitelistSeat",
      "outputs": [],
      "stateMutability": "payable",
      "type": "function"
    },
    {
      "inputs": [],
      "name": "createdAt",
      "outputs": [
        {
          "internalType": "uint256",
          "name": "",
          "type": "uint256"
        }
      ],
      "stateMutability": "view",
      "type": "function"
    },
    {
      "inputs": [],
      "name": "creator",
      "outputs": [
        {
          "internalType": "address",
          "name": "",
          "type": "address"
        }
      ],
      "stateMutability": "view",
      "type": "function"
    },
    {
      "inputs": [],
      "name": "creatorClaimable",
      "outputs": [
        {
          "internalType": "uint256",
          "name": "",
          "type": "uint256"
        }
      ],
      "stateMutability": "view",
      "type": "function"
    },
    {
      "inputs": [],
      "name": "creatorFeeSweepReady",
      "outputs": [
        {
          "internalType": "bool",
          "name": "",
          "type": "bool"
        }
      ],
      "stateMutability": "view",
      "type": "function"
    },
    {
      "inputs": [],
      "name": "creatorFeeVault",
      "outputs": [
        {
          "internalType": "uint256",
          "name": "",
          "type": "uint256"
        }
      ],
      "stateMutability": "view",
      "type": "function"
    },
    {
      "inputs": [],
      "name": "currentPriceQuotePerToken",
      "outputs": [
        {
          "internalType": "uint256",
          "name": "",
          "type": "uint256"
        }
      ],
      "stateMutability": "view",
      "type": "function"
    },
    {
      "inputs": [],
      "name": "curveQuoteReserve",
      "outputs": [
        {
          "internalType": "uint256",
          "name": "",
          "type": "uint256"
        }
      ],
      "stateMutability": "view",
      "type": "function"
    },
    {
      "inputs": [],
      "name": "decimals",
      "outputs": [
        {
          "internalType": "uint8",
          "name": "",
          "type": "uint8"
        }
      ],
      "stateMutability": "view",
      "type": "function"
    },
    {
      "inputs": [],
      "name": "dexFactory",
      "outputs": [
        {
          "internalType": "address",
          "name": "",
          "type": "address"
        }
      ],
      "stateMutability": "view",
      "type": "function"
    },
    {
      "inputs": [],
      "name": "dexReserves",
      "outputs": [
        {
          "internalType": "uint256",
          "name": "tokenReserve",
          "type": "uint256"
        },
        {
          "internalType": "uint256",
          "name": "quoteReserve",
          "type": "uint256"
        }
      ],
      "stateMutability": "view",
      "type": "function"
    },
    {
      "inputs": [],
      "name": "displayGraduationProgressBps",
      "outputs": [
        {
          "internalType": "uint256",
          "name": "",
          "type": "uint256"
        }
      ],
      "stateMutability": "view",
      "type": "function"
    },
    {
      "inputs": [],
      "name": "factory",
      "outputs": [
        {
          "internalType": "address",
          "name": "",
          "type": "address"
        }
      ],
      "stateMutability": "view",
      "type": "function"
    },
    {
      "inputs": [],
      "name": "graduationProgressBps",
      "outputs": [
        {
          "internalType": "uint256",
          "name": "",
          "type": "uint256"
        }
      ],
      "stateMutability": "view",
      "type": "function"
    },
    {
      "inputs": [],
      "name": "graduationQuoteReserve",
      "outputs": [
        {
          "internalType": "uint256",
          "name": "",
          "type": "uint256"
        }
      ],
      "stateMutability": "view",
      "type": "function"
    },
    {
      "inputs": [],
      "name": "isPairClean",
      "outputs": [
        {
          "internalType": "bool",
          "name": "",
          "type": "bool"
        }
      ],
      "stateMutability": "view",
      "type": "function"
    },
    {
      "inputs": [],
      "name": "isPairGraduationCompatible",
      "outputs": [
        {
          "internalType": "bool",
          "name": "",
          "type": "bool"
        }
      ],
      "stateMutability": "view",
      "type": "function"
    },
    {
      "inputs": [
        {
          "internalType": "address",
          "name": "account",
          "type": "address"
        }
      ],
      "name": "isWhitelisted",
      "outputs": [
        {
          "internalType": "bool",
          "name": "",
          "type": "bool"
        }
      ],
      "stateMutability": "view",
      "type": "function"
    },
    {
      "inputs": [
        {
          "internalType": "address",
          "name": "",
          "type": "address"
        }
      ],
      "name": "lastBuyBlock",
      "outputs": [
        {
          "internalType": "uint256",
          "name": "",
          "type": "uint256"
        }
      ],
      "stateMutability": "view",
      "type": "function"
    },
    {
      "inputs": [],
      "name": "lastTradeAt",
      "outputs": [
        {
          "internalType": "uint256",
          "name": "",
          "type": "uint256"
        }
      ],
      "stateMutability": "view",
      "type": "function"
    },
    {
      "inputs": [],
      "name": "launchMode",
      "outputs": [
        {
          "internalType": "uint8",
          "name": "",
          "type": "uint8"
        }
      ],
      "stateMutability": "view",
      "type": "function"
    },
    {
      "inputs": [],
      "name": "launchModeId",
      "outputs": [
        {
          "internalType": "uint8",
          "name": "",
          "type": "uint8"
        }
      ],
      "stateMutability": "view",
      "type": "function"
    },
    {
      "inputs": [],
      "name": "launchSuffix",
      "outputs": [
        {
          "internalType": "string",
          "name": "",
          "type": "string"
        }
      ],
      "stateMutability": "pure",
      "type": "function"
    },
    {
      "inputs": [],
      "name": "lpTokenReserve",
      "outputs": [
        {
          "internalType": "uint256",
          "name": "",
          "type": "uint256"
        }
      ],
      "stateMutability": "view",
      "type": "function"
    },
    {
      "inputs": [],
      "name": "metadataURI",
      "outputs": [
        {
          "internalType": "string",
          "name": "",
          "type": "string"
        }
      ],
      "stateMutability": "view",
      "type": "function"
    },
    {
      "inputs": [],
      "name": "name",
      "outputs": [
        {
          "internalType": "string",
          "name": "",
          "type": "string"
        }
      ],
      "stateMutability": "view",
      "type": "function"
    },
    {
      "inputs": [],
      "name": "pair",
      "outputs": [
        {
          "internalType": "address",
          "name": "",
          "type": "address"
        }
      ],
      "stateMutability": "view",
      "type": "function"
    },
    {
      "inputs": [],
      "name": "pairPreloadedQuote",
      "outputs": [
        {
          "internalType": "uint256",
          "name": "",
          "type": "uint256"
        }
      ],
      "stateMutability": "view",
      "type": "function"
    },
    {
      "inputs": [],
      "name": "pairSnapshot",
      "outputs": [
        {
          "internalType": "address",
          "name": "pairAddress",
          "type": "address"
        },
        {
          "internalType": "uint256",
          "name": "pairTotalSupply",
          "type": "uint256"
        },
        {
          "internalType": "uint112",
          "name": "reserve0",
          "type": "uint112"
        },
        {
          "internalType": "uint112",
          "name": "reserve1",
          "type": "uint112"
        },
        {
          "internalType": "uint256",
          "name": "tokenBalance",
          "type": "uint256"
        },
        {
          "internalType": "uint256",
          "name": "wrappedNativeBalance",
          "type": "uint256"
        }
      ],
      "stateMutability": "view",
      "type": "function"
    },
    {
      "inputs": [
        {
          "internalType": "uint256",
          "name": "grossQuoteIn",
          "type": "uint256"
        }
      ],
      "name": "previewBuy",
      "outputs": [
        {
          "internalType": "uint256",
          "name": "tokenOut",
          "type": "uint256"
        },
        {
          "internalType": "uint256",
          "name": "feeAmount",
          "type": "uint256"
        },
        {
          "internalType": "uint256",
          "name": "refundAmount",
          "type": "uint256"
        }
      ],
      "stateMutability": "view",
      "type": "function"
    },
    {
      "inputs": [
        {
          "internalType": "uint256",
          "name": "tokenAmount",
          "type": "uint256"
        }
      ],
      "name": "previewSell",
      "outputs": [
        {
          "internalType": "uint256",
          "name": "grossQuoteOut",
          "type": "uint256"
        },
        {
          "internalType": "uint256",
          "name": "netQuoteOut",
          "type": "uint256"
        },
        {
          "internalType": "uint256",
          "name": "totalFee",
          "type": "uint256"
        }
      ],
      "stateMutability": "view",
      "type": "function"
    },
    {
      "inputs": [],
      "name": "priceQuotePerToken",
      "outputs": [
        {
          "internalType": "uint256",
          "name": "",
          "type": "uint256"
        }
      ],
      "stateMutability": "view",
      "type": "function"
    },
    {
      "inputs": [],
      "name": "protocolClaimable",
      "outputs": [
        {
          "internalType": "uint256",
          "name": "",
          "type": "uint256"
        }
      ],
      "stateMutability": "view",
      "type": "function"
    },
    {
      "inputs": [],
      "name": "protocolFeeRecipient",
      "outputs": [
        {
          "internalType": "address",
          "name": "",
          "type": "address"
        }
      ],
      "stateMutability": "view",
      "type": "function"
    },
    {
      "inputs": [],
      "name": "protocolFeeVault",
      "outputs": [
        {
          "internalType": "uint256",
          "name": "",
          "type": "uint256"
        }
      ],
      "stateMutability": "view",
      "type": "function"
    },
    {
      "inputs": [],
      "name": "remainingQuoteCapacity",
      "outputs": [
        {
          "internalType": "uint256",
          "name": "",
          "type": "uint256"
        }
      ],
      "stateMutability": "view",
      "type": "function"
    },
    {
      "inputs": [],
      "name": "router",
      "outputs": [
        {
          "internalType": "address",
          "name": "",
          "type": "address"
        }
      ],
      "stateMutability": "view",
      "type": "function"
    },
    {
      "inputs": [],
      "name": "saleTokenReserve",
      "outputs": [
        {
          "internalType": "uint256",
          "name": "",
          "type": "uint256"
        }
      ],
      "stateMutability": "view",
      "type": "function"
    },
    {
      "inputs": [
        {
          "internalType": "uint256",
          "name": "tokenAmount",
          "type": "uint256"
        },
        {
          "internalType": "uint256",
          "name": "minQuoteOut",
          "type": "uint256"
        }
      ],
      "name": "sell",
      "outputs": [
        {
          "internalType": "uint256",
          "name": "netQuoteOut",
          "type": "uint256"
        }
      ],
      "stateMutability": "nonpayable",
      "type": "function"
    },
    {
      "inputs": [
        {
          "internalType": "address",
          "name": "account",
          "type": "address"
        }
      ],
      "name": "sellUnlockBlock",
      "outputs": [
        {
          "internalType": "uint256",
          "name": "",
          "type": "uint256"
        }
      ],
      "stateMutability": "view",
      "type": "function"
    },
    {
      "inputs": [],
      "name": "state",
      "outputs": [
        {
          "internalType": "enum LaunchTokenBase.LaunchState",
          "name": "",
          "type": "uint8"
        }
      ],
      "stateMutability": "view",
      "type": "function"
    },
    {
      "inputs": [],
      "name": "sweepAbandonedCreatorFees",
      "outputs": [
        {
          "internalType": "uint256",
          "name": "amount",
          "type": "uint256"
        }
      ],
      "stateMutability": "nonpayable",
      "type": "function"
    },
    {
      "inputs": [],
      "name": "symbol",
      "outputs": [
        {
          "internalType": "string",
          "name": "",
          "type": "string"
        }
      ],
      "stateMutability": "view",
      "type": "function"
    },
    {
      "inputs": [],
      "name": "taxConfig",
      "outputs": [
        {
          "internalType": "bool",
          "name": "enabled",
          "type": "bool"
        },
        {
          "internalType": "uint16",
          "name": "taxBps",
          "type": "uint16"
        },
        {
          "internalType": "uint16",
          "name": "burnShareBps",
          "type": "uint16"
        },
        {
          "internalType": "uint16",
          "name": "treasuryShareBps",
          "type": "uint16"
        },
        {
          "internalType": "address",
          "name": "treasuryWallet",
          "type": "address"
        },
        {
          "internalType": "bool",
          "name": "active",
          "type": "bool"
        }
      ],
      "stateMutability": "view",
      "type": "function"
    },
    {
      "inputs": [],
      "name": "totalSupply",
      "outputs": [
        {
          "internalType": "uint256",
          "name": "",
          "type": "uint256"
        }
      ],
      "stateMutability": "view",
      "type": "function"
    },
    {
      "inputs": [
        {
          "internalType": "address",
          "name": "to",
          "type": "address"
        },
        {
          "internalType": "uint256",
          "name": "value",
          "type": "uint256"
        }
      ],
      "name": "transfer",
      "outputs": [
        {
          "internalType": "bool",
          "name": "",
          "type": "bool"
        }
      ],
      "stateMutability": "nonpayable",
      "type": "function"
    },
    {
      "inputs": [
        {
          "internalType": "address",
          "name": "from",
          "type": "address"
        },
        {
          "internalType": "address",
          "name": "to",
          "type": "address"
        },
        {
          "internalType": "uint256",
          "name": "value",
          "type": "uint256"
        }
      ],
      "name": "transferFrom",
      "outputs": [
        {
          "internalType": "bool",
          "name": "",
          "type": "bool"
        }
      ],
      "stateMutability": "nonpayable",
      "type": "function"
    },
    {
      "inputs": [],
      "name": "unexpectedNativeBalance",
      "outputs": [
        {
          "internalType": "uint256",
          "name": "",
          "type": "uint256"
        }
      ],
      "stateMutability": "view",
      "type": "function"
    },
    {
      "inputs": [],
      "name": "virtualQuoteReserve",
      "outputs": [
        {
          "internalType": "uint256",
          "name": "",
          "type": "uint256"
        }
      ],
      "stateMutability": "view",
      "type": "function"
    },
    {
      "inputs": [],
      "name": "virtualTokenReserve",
      "outputs": [
        {
          "internalType": "uint256",
          "name": "",
          "type": "uint256"
        }
      ],
      "stateMutability": "view",
      "type": "function"
    },
    {
      "inputs": [
        {
          "internalType": "address",
          "name": "",
          "type": "address"
        }
      ],
      "name": "whitelist",
      "outputs": [
        {
          "internalType": "bool",
          "name": "",
          "type": "bool"
        }
      ],
      "stateMutability": "view",
      "type": "function"
    },
    {
      "inputs": [],
      "name": "whitelistAddressCount",
      "outputs": [
        {
          "internalType": "uint256",
          "name": "",
          "type": "uint256"
        }
      ],
      "stateMutability": "view",
      "type": "function"
    },
    {
      "inputs": [
        {
          "internalType": "address",
          "name": "",
          "type": "address"
        }
      ],
      "name": "whitelistAllocationClaimed",
      "outputs": [
        {
          "internalType": "bool",
          "name": "",
          "type": "bool"
        }
      ],
      "stateMutability": "view",
      "type": "function"
    },
    {
      "inputs": [],
      "name": "whitelistAllocationTokenReserve",
      "outputs": [
        {
          "internalType": "uint256",
          "name": "",
          "type": "uint256"
        }
      ],
      "stateMutability": "view",
      "type": "function"
    },
    {
      "inputs": [],
      "name": "whitelistCommitVault",
      "outputs": [
        {
          "internalType": "uint256",
          "name": "",
          "type": "uint256"
        }
      ],
      "stateMutability": "view",
      "type": "function"
    },
    {
      "inputs": [],
      "name": "whitelistCommittedTotal",
      "outputs": [
        {
          "internalType": "uint256",
          "name": "",
          "type": "uint256"
        }
      ],
      "stateMutability": "view",
      "type": "function"
    },
    {
      "inputs": [],
      "name": "whitelistDeadline",
      "outputs": [
        {
          "internalType": "uint256",
          "name": "",
          "type": "uint256"
        }
      ],
      "stateMutability": "view",
      "type": "function"
    },
    {
      "inputs": [],
      "name": "whitelistExpiredWithoutFinalization",
      "outputs": [
        {
          "internalType": "bool",
          "name": "",
          "type": "bool"
        }
      ],
      "stateMutability": "view",
      "type": "function"
    },
    {
      "inputs": [],
      "name": "whitelistFinalized",
      "outputs": [
        {
          "internalType": "bool",
          "name": "",
          "type": "bool"
        }
      ],
      "stateMutability": "view",
      "type": "function"
    },
    {
      "inputs": [
        {
          "internalType": "address",
          "name": "",
          "type": "address"
        }
      ],
      "name": "whitelistRefundClaimed",
      "outputs": [
        {
          "internalType": "bool",
          "name": "",
          "type": "bool"
        }
      ],
      "stateMutability": "view",
      "type": "function"
    },
    {
      "inputs": [
        {
          "internalType": "address",
          "name": "",
          "type": "address"
        }
      ],
      "name": "whitelistSeatCommitted",
      "outputs": [
        {
          "internalType": "bool",
          "name": "",
          "type": "bool"
        }
      ],
      "stateMutability": "view",
      "type": "function"
    },
    {
      "inputs": [],
      "name": "whitelistSeatCount",
      "outputs": [
        {
          "internalType": "uint256",
          "name": "",
          "type": "uint256"
        }
      ],
      "stateMutability": "view",
      "type": "function"
    },
    {
      "inputs": [],
      "name": "whitelistSeatsFilled",
      "outputs": [
        {
          "internalType": "uint256",
          "name": "",
          "type": "uint256"
        }
      ],
      "stateMutability": "view",
      "type": "function"
    },
    {
      "inputs": [],
      "name": "whitelistSlotSize",
      "outputs": [
        {
          "internalType": "uint256",
          "name": "",
          "type": "uint256"
        }
      ],
      "stateMutability": "view",
      "type": "function"
    },
    {
      "inputs": [],
      "name": "whitelistSnapshot",
      "outputs": [
        {
          "internalType": "uint8",
          "name": "status",
          "type": "uint8"
        },
        {
          "internalType": "uint256",
          "name": "deadline",
          "type": "uint256"
        },
        {
          "internalType": "uint256",
          "name": "threshold",
          "type": "uint256"
        },
        {
          "internalType": "uint256",
          "name": "slotSize",
          "type": "uint256"
        },
        {
          "internalType": "uint256",
          "name": "seatCount",
          "type": "uint256"
        },
        {
          "internalType": "uint256",
          "name": "seatsFilled",
          "type": "uint256"
        },
        {
          "internalType": "uint256",
          "name": "committedTotal",
          "type": "uint256"
        },
        {
          "internalType": "uint256",
          "name": "tokensPerSeat",
          "type": "uint256"
        },
        {
          "internalType": "uint256",
          "name": "configuredWhitelistCount",
          "type": "uint256"
        }
      ],
      "stateMutability": "view",
      "type": "function"
    },
    {
      "inputs": [],
      "name": "whitelistStatus",
      "outputs": [
        {
          "internalType": "uint8",
          "name": "",
          "type": "uint8"
        }
      ],
      "stateMutability": "view",
      "type": "function"
    },
    {
      "inputs": [],
      "name": "whitelistThreshold",
      "outputs": [
        {
          "internalType": "uint256",
          "name": "",
          "type": "uint256"
        }
      ],
      "stateMutability": "view",
      "type": "function"
    },
    {
      "inputs": [],
      "name": "whitelistTokensPerSeat",
      "outputs": [
        {
          "internalType": "uint256",
          "name": "",
          "type": "uint256"
        }
      ],
      "stateMutability": "view",
      "type": "function"
    },
    {
      "inputs": [],
      "name": "wrappedNative",
      "outputs": [
        {
          "internalType": "address",
          "name": "",
          "type": "address"
        }
      ],
      "stateMutability": "view",
      "type": "function"
    },
    {
      "stateMutability": "payable",
      "type": "receive"
    }
  ],
  "bytecode": "0x610280806040523462000b7257620054c99081380380926200002282846200108d565b8239602081838101031262000b72578051906001600160401b03821162000b7257610160828201848301031262000b72576040519261016084016001600160401b0381118582101762000d7157604052818301516001600160401b03811162000b725762000098908284019085850101620010b1565b8452818301602001516001600160401b03811162000b7257620000c3908284019085850101620010b1565b6020850152818301604001516001600160401b03811162000b7257620000f1908284019085850101620010b1565b60408501526200010660608484010162001127565b60608501526200011b60808484010162001127565b60808501526200013060a08484010162001127565b60a08501526200014560c08484010162001127565b60c085015281830160e08181015190860152610100808201519086015261012080820151908601526101400151926001600160401b03841162000b7257818301601f858386010101121562000b7257828101840151926001600160401b03841162000d715760405194620001c060208660051b01876200108d565b8486526020860193820160208660051b838686010101011162000b7257818301810160200193925b60208660051b8383860101010185106200106f578787610140820152805160208201519060408301519160018060a01b0360608501511660018060a01b0360808601511660018060a01b0360a0870151169160018060a01b0360c0880151169360e08801519580519060018060401b03821162000d715760035490600182811c9216801562001064575b602083101462000d505781601f84931162000ff2575b50602090601f831160011462000f635760009262000f57575b50508160011b916000199060031b1c1916176003555b8051906001600160401b03821162000d715760045490600182811c9216801562000f4c575b602083101462000d505781601f84931162000eda575b50602090601f831160011462000e4b5760009262000e3f575b50508160011b916000199060031b1c1916176004555b60017f9b779b17422d0df92223018b32b4d1fa46e071723d6817e2486d003becc55f0055841562000e2d57600385041562000e2d578015801562000e24575b801562000e1b575b801562000e12575b620007975760a05260c05260e05261010081905260405163c45a015560e01b8152602081600481855afa90811562000b805760009162000dc9575b50610120526040516315ab88c960e31b815290602090829060049082905afa90811562000b805760009162000d87575b506101405280610160526003810461018052600381046aa56fa5b99019a5c800000002906aa56fa5b99019a5c800000082046003820403620009f05762000422916200113c565b6101a052426101c0819052600c558051906001600160401b03821162000d715760055490600182811c9216801562000d66575b602083101462000d505781601f84931162000cfa575b50602090601f831160011462000c6b5760009262000c5f575b50508160011b916000199060031b1c1916176005555b6002608052301562000c465760ff6006541660058110158062000c225760018214801562000c38575b1562000be0575b50506002546b033b2e3c9fd0803ce800000081018111620009f0576b033b2e3c9fd0803ce80000000160025530600052600060205260406000206b033b2e3c9fd0803ce800000081540190556040516b033b2e3c9fd0803ce8000000815260007fddf252ad1be2c89b69c2b068fc378daa952ba7f163c4a11628f55a4df523b3ef60203093a36b0295be96e6406697200000006007556aa56fa5b99019a5c8000000600855610120516101405160405163e6a4390560e01b8152600092909160209183916001600160a01b039182169183918291620005af91163060048401620011e4565b03915afa91821562000bd457809262000b8c575b50506001600160a01b0381161562000add575b600680546001600160a81b03191660089290921b610100600160a81b03169190911760049081179091556040519060007f3a779de46631dd65116ae538600f1bc3c338200c6aef638429b5de43301c28f78180a3610100820151673782dace9d900000811490811562000aca575b811562000ab7575b501562000aa8575061010081015160e0820151111562000a965761012081015167016345785d8a0000811490811562000a83575b811562000a70575b811562000a5d575b501562000a4b5761010081015161012082015190811562000a35570662000a1857620006c8610100820151610120830151906200113c565b8015801562000a2a575b62000a185780610140830151511062000a06576201518042014211620009f0576201518042016101e05261010082015161020052610120820151610220528061024052610140820151516102605260005b6101408301518051821015620007a957600582901b01602001516001600160a01b031690811562000797578160005260148060205260ff60406000205416620007855760019260005260205260406000208260ff198254161790550162000723565b604051630fb0efa560e41b8152600490fd5b60405163d92e233d60e01b8152600490fd5b6200081b847fc32c90bcebb1b5638e92a2a57d7cfd39596fa72768c7c95f945d9ed03baffac560a086610100840151906101208501519061014086015151906101e051926040519485526020850152604084015260608301526080820152a1608001516001600160a01b031662001147565b15620009de576040516142ca9081620011ff8239608051816126b2015260a051818181611f510152818161253501526136a5015260c051816112d6015260e051818181611a7901528181611e0f01526138b50152610100518161067c0152610120518161136101526101405181818161079f01528181610b5c01528181610bab01528181610bef01528181610c60015281816128e301528181612a5601528181612ebe0152613add0152610160518181816109b501528181611eb60152818161277b01528181612c1401528181612d4b0152818161375b015261385a01526101805181818161070c015261332f01526101a051818181611f96015261336901526101c0518181816110e2015261396901526101e05181818161086d01528181611205015281816114bd0152818161185b01528181612ba00152818161349101526134d4015261020051818181610893015281816113ad015281816133ed015281816136080152613f590152610220518181816108b901528181611b5e01528181611dcc01526135200152610240518181816108df0152818161144f01528181611fd10152818161355d0152613fae01526102605181818161091401526119520152f35b604051635bb6e57160e11b8152600490fd5b634e487b7160e01b600052601160045260246000fd5b60405163529cc2c560e01b8152600490fd5b604051635ca83dcb60e11b8152600490fd5b5060508111620006d2565b634e487b7160e01b600052601260045260246000fd5b604051633d8f86f560e21b8152600490fd5b670de0b6b3a76400009150148262000690565b6706f05b59d3b200008114915062000688565b6702c68af0bb1400008114915062000680565b60405163230bad2760e11b8152600490fd5b63230bad2760e11b8152600490fd5b676f05b59d3b200000915014836200064c565b6753444835ec5800008114915062000644565b5061012051610140516040516364e329cb60e11b81529160209183916001600160a01b03908116918391600091839162000b1d91163060048401620011e4565b03925af1801562000b805760009062000b39575b9050620005d6565b506020813d60201162000b77575b8162000b56602093836200108d565b8101031262000b725762000b6c60049162001127565b62000b31565b600080fd5b3d915062000b47565b6040513d6000823e3d90fd5b9091506020823d60201162000bcb575b8162000bab602093836200108d565b8101031262000bc8575062000bc09062001127565b8280620005c3565b80fd5b3d915062000b9c565b604051903d90823e3d90fd5b62000c22576002810362000c005760405163baf3f0f760e01b8152600490fd5b60031462000c10578180620004ca565b604051634e46966960e11b8152600490fd5b634e487b7160e01b600052602160045260246000fd5b5050600060048214620004c3565b60405163ec442f0560e01b815260006004820152602490fd5b01519050838062000484565b6005600090815293507f036b6384b5eca791c62761152d0c79bb0604c104a5fb6f4eb0703f3154bb3db091905b601f198416851062000cde576001945083601f1981161062000cc4575b505050811b016005556200049a565b015160001960f88460031b161c1916905583808062000cb5565b8181015183556020948501946001909301929091019062000c98565b90915060056000526020600020601f840160051c81016020851062000d48575b90849392915b601f830160051c8201811062000d385750506200046b565b6000815585945060010162000d20565b508062000d1a565b634e487b7160e01b600052602260045260246000fd5b91607f169162000455565b634e487b7160e01b600052604160045260246000fd5b90506020813d60201162000dc0575b8162000da5602093836200108d565b8101031262000b725762000db99062001127565b84620003db565b3d915062000d96565b90506020813d60201162000e09575b8162000de7602093836200108d565b8101031262000b725760049162000e0060209262001127565b915091620003ab565b3d915062000dd8565b50831562000370565b50821562000368565b50811562000360565b604051630d956e1760e21b8152600490fd5b0151905089806200030b565b6004600090815293507f8a35acfbc15ff81a39ae7d344fd709f28e8600b4aa8c65c6b64bfe7fe36bd19b91905b601f198416851062000ebe576001945083601f1981161062000ea4575b505050811b0160045562000321565b015160001960f88460031b161c1916905589808062000e95565b8181015183556020948501946001909301929091019062000e78565b60046000529091507f8a35acfbc15ff81a39ae7d344fd709f28e8600b4aa8c65c6b64bfe7fe36bd19b601f840160051c81016020851062000f44575b90849392915b601f830160051c8201811062000f34575050620002f2565b6000815585945060010162000f1c565b508062000f16565b91607f1691620002dc565b015190508a80620002a1565b6003600090815293507fc2575a0e9e593c00f959f8c92f12db2869c3395a3b0502d05e2516446f71f85b91905b601f198416851062000fd6576001945083601f1981161062000fbc575b505050811b01600355620002b7565b015160001960f88460031b161c191690558a808062000fad565b8181015183556020948501946001909301929091019062000f90565b60036000529091507fc2575a0e9e593c00f959f8c92f12db2869c3395a3b0502d05e2516446f71f85b601f840160051c8101602085106200105c575b90849392915b601f830160051c820181106200104c57505062000288565b6000815585945060010162001034565b50806200102e565b91607f169162000272565b60208080956200107f8862001127565b8152019501949350620001e8565b601f909101601f19168101906001600160401b0382119082101762000d7157604052565b919080601f8401121562000b725782516001600160401b03811162000d715760209060405192620010ec83601f19601f85011601856200108d565b81845282828701011162000b725760005b8181106200111357508260009394955001015290565b8581018301518482018401528201620010fd565b51906001600160a01b038216820362000b7257565b811562000a35570490565b6001600160a01b039080821690338214620011dc573b15620011d5576020600491604051928380926337eb7e0160e01b82525afa90811562000b805760009162001193575b5016331490565b90506020813d602011620011cc575b81620011b1602093836200108d565b8101031262000b7257620011c59062001127565b386200118c565b3d9150620011a2565b5050600090565b505050600190565b6001600160a01b039182168152911660208201526040019056fe608080604052600436101561003f575b50361561001b57600080fd5b61002361338e565b61002b612cba565b600160008051602061427583398151915255005b60003560e01c9081630227591d146125645750806302d05d3f1461251f57806303dffb5a146124fc57806303ee438c1461245757806306b51d481461199857806306fdde03146123b25780630797900314612394578063095ea7b31461230e57806315a0aa08146122a9578063173d5e4214611e9957806318160ddd1461228b5780631c2945b21461224c5780631cd97db5146122255780631d924c771461220757806323b872dd146120db57806324e69d7c146120b557806325cacd0c1461209257806327bfa19614612053578063292e5b001461202e5780632a025a8614612010578063313ce56714611ff4578063335411a914611fb9578063343ee3b714611f7e578063351fee4614611f3157806337488a4214611f1357806337b28bfd14611ed957806338809be61461155d5780633993152714611e9e5780633af32abf1461160e578063403287a91461139057806340faa03c14611e99578063430437fb14611e7e57806345b2af8c14611e5b5780634815327914611e3c5780634a7d036914611def5780634b7384f314611db45780634e6fd6c414611d9757806352fb81bb14611d585780635386600614611ca9578063571b1f8a14611c8b578063581b51f314611c515780635878f8ce14611c3657806358ebc06e14611b1d5780635a85ffd714611b02578063644537cb14611adf57806364a5dc2b14611aa857806364df049e14611a635780636887c84814611a0a5780636a534fcb146119b95780636f28507c1461199d5780636f71f0171461199857806370a0823114611975578063740735c01461193a57806374452ec31461191c5780637531abe3146118a15780637b4126451461187e5780637fe354011461184357806385cac237146113d057806386d4ff1d146117f25780638925d36e146117d4578063902d55a5146117ad5780639111f13d1461179257806391e7cd341461177457806394c2c24f1461175857806395d89b411461167057806396f062411461164d5780639b19251a1461160e5780639ddf7ad3146115e85780639e5f358a146115cd578063a8aa1b31146115a0578063a8dccd0214611579578063a8ea44451461155d578063a9059cbb14611503578063aadade7a146114e5578063aecf6a7c146113f8578063af1af3b914611128578063b0cc792d146113d5578063b37dd690146113d0578063b5dadb1714611395578063b82020e814611390578063b8d8fbb41461134b578063be3782281461132f578063c19d93fb14611305578063c228987814610f17578063c45a0155146112c0578063c57da02914611281578063cac01cbc14611265578063cc3cbd2a14611249578063cc4501041461122e578063cc64aade14611146578063ce228ad214611128578063cedf7c1914611105578063cf09e0d0146110ca578063d79875eb14610f41578063d7f3ad6f14610f1c578063d81d946f14610f17578063d96a094a1461093b578063db9b54131461083c578063dd62ed3e146107eb578063e1a45218146107ce578063eb6d3a1114610789578063ed1cc3a81461076b578063f3bf10ed1461074d578063f48f6f1d1461072f578063f5596626146106f4578063f73aaf3c146106d1578063f7ce612a146106ab578063f887ea4014610666578063fb3dd95f14610634578063fb9a1d8d146105345763fd897e0b14610511573861000f565b3461052f57600036600319011261052f576020600d54604051908152f35b600080fd5b3461052f57600036600319011261052f5761054d61338e565b60ff6013541615801561061b575b8015610603575b6105f157602060125433600052601682526040600020600160ff1982541617905561058f81600d546126d6565b600d5533600052600e8252436040600020556105ac813330613c21565b6040518181527f648b77675d9290f9aa4f34a5cd8b6ff268de43a375ce9f853f027bb3699ea84e833392a2600160008051602061427583398151915255604051908152f35b604051630f6ff1d560e31b8152600490fd5b5033600052601660205260ff60406000205416610562565b5033600052601560205260ff604060002054161561055b565b3461052f57602036600319011261052f57610662610653600435612c66565b60409391935193849384612682565b0390f35b3461052f57600036600319011261052f576040517f00000000000000000000000000000000000000000000000000000000000000006001600160a01b03168152602090f35b3461052f57600036600319011261052f5760206040516aa56fa5b99019a5c80000008152f35b3461052f57600036600319011261052f5760206040516702c68af0bb1400008152f35b3461052f57600036600319011261052f5760206040517f00000000000000000000000000000000000000000000000000000000000000008152f35b3461052f57600036600319011261052f57602060405162278d008152f35b3461052f57600036600319011261052f576020601254604051908152f35b3461052f57600036600319011261052f576020600f54604051908152f35b3461052f57600036600319011261052f576040517f00000000000000000000000000000000000000000000000000000000000000006001600160a01b03168152602090f35b3461052f57600036600319011261052f5760206040516127108152f35b3461052f57604036600319011261052f5761080461261f565b61080c612635565b9060018060a01b038091166000526001602052604060002091166000526020526020604060002054604051908152f35b3461052f57600036600319011261052f57610120610858612b59565b600f546010546012549160ff604051941684527f000000000000000000000000000000000000000000000000000000000000000060208501527f000000000000000000000000000000000000000000000000000000000000000060408501527f000000000000000000000000000000000000000000000000000000000000000060608501527f0000000000000000000000000000000000000000000000000000000000000000608085015260a084015260c083015260e08201527f0000000000000000000000000000000000000000000000000000000000000000610100820152f35b602036600319011261052f5761094f61338e565b6109576133be565b60065460ff81166005811015610e8557600103610e73573315908115610f0d575b8115610ef4575b50610ee25760003415610ec85761099534613752565b929182158015610eda575b610ec857600954926109b28285612823565b947f000000000000000000000000000000000000000000000000000000000000000094856109df8561384c565b9714610ebe575b86158015610eb3575b610e61576004358710610e615783610a0691612823565b600955610a1584600a54612823565b600a55610a2481600b54612823565b600b5542600c55610a37866007546126d6565b600755610a45863330613c21565b33600052600e60205243604060002055610a5f82346126d6565b9081610ea4575b600954946007549460405194855260208501526040840152606083015260808201528460a08201528260c08201528160e08201526000805160206142558339815191526101003392a282821090811591610e9b575b50610ade575b602083600160008051602061427583398151915255604051908152f35b60065460ff8116926005841015610e855760018403610e73578203610e61576002809160ff1916179283600655600080516020614215833981519152600080a3610b26613d6c565b15610e4f57600854916040516370a0823160e01b815260018060a01b038260081c16600482015260208160248160018060a01b037f0000000000000000000000000000000000000000000000000000000000000000165afa908115610e0d578490600092610e19575b509091610ba9919060081c6001600160a01b031630613c21565b7f00000000000000000000000000000000000000000000000000000000000000006001600160a01b03163b1561052f57604051630d0e30db60e41b8152600081600481867f00000000000000000000000000000000000000000000000000000000000000006001600160a01b03165af18015610e0d57610df9575b5060065460405163a9059cbb60e01b815260089190911c6001600160a01b03908116600483015260248201849052602090829060449082908a907f0000000000000000000000000000000000000000000000000000000000000000165af1908115610d9d578691610dba575b5015610da8576006546040516335313c2160e11b815261dead60048201529290602090849060249082908a9060081c6001600160a01b03165af1928315610d9d578693610d69575b50856008558560095560065493600360ff86169560ff19161794856006556005811015610d5557926020979592600080516020614235833981519152959260036080966000805160206142158339815191526040519a80a38752888701526040860152606085015260081c6001600160a01b031692a28280610ac1565b634e487b7160e01b88526021600452602488fd5b9092506020813d602011610d95575b81610d8560209383612598565b8101031261052f57519186610cd8565b3d9150610d78565b6040513d88823e3d90fd5b6040516314da028560e11b8152600490fd5b90506020813d602011610df1575b81610dd560209383612598565b81010312610ded57518015158103610ded5786610c90565b8580fd5b3d9150610dc8565b610e04919550612585565b60009385610c24565b6040513d6000823e3d90fd5b9150506020813d602011610e47575b81610e3560209383612598565b8101031261052f575183610ba9610b8f565b3d9150610e28565b604051633c1413fb60e01b8152600490fd5b604051638199f5f360e01b8152600490fd5b60405163baf3f0f760e01b8152600490fd5b634e487b7160e01b600052602160045260246000fd5b90501585610abb565b610eae82336139a8565b610a66565b5060075487116109ef565b60075496506109e6565b604051631f2a200560e01b8152600490fd5b5080156109a0565b604051634e46966960e11b8152600490fd5b3360089190911c6001600160a01b03161490508161097f565b3330149150610978565b6126f9565b3461052f57600036600319011261052f576020610f37613d6c565b6040519015158152f35b3461052f57604036600319011261052f57600435610f5d61338e565b610f656133be565b60ff600654166005811015610e8557600103610e73578015610ec85733600052600e60205260406000205443146110b857610fc6610fc0610fa4613327565b610fba85610fb483859695612715565b92612823565b90613bb8565b906126d6565b90811580156110ad575b610e6157610feb90610fe183613bea565b91859491946126d6565b928315610e61576024358410610e615760209461109085927feebdf396b2ce33c6bf51df33b76958425b7430bd1c74fbef7b585106affddd1c94611030873033613c21565b61103c87600754612823565b60075561104b846009546126d6565b60095561105a82600a54612823565b600a5561106981600b54612823565b600b5542600c5561107a85336139a8565b6009549060075492604051968796339a88612c38565b0390a2600160008051602061427583398151915255604051908152f35b506009548211610fd0565b604051635aabee0f60e11b8152600490fd5b3461052f57600036600319011261052f5760206040517f00000000000000000000000000000000000000000000000000000000000000008152f35b3461052f57600036600319011261052f5760206040516753444835ec5800008152f35b3461052f57600036600319011261052f576020600a54604051908152f35b3461052f57602036600319011261052f5761115f61261f565b60135460ff8160081c169081156111cf575b50806111ad575b8061118b575b6020906040519015158152f35b5060018060a01b03166000526017602052602060ff604060002054161561117e565b506001600160a01b03811660009081526015602052604090205460ff16611178565b905060ff600654166005811015610e85576004149081611203575b816111f7575b5082611171565b60ff91501615826111f0565b7f000000000000000000000000000000000000000000000000000000000000000042101591506111ea565b3461052f57600036600319011261052f576020610f37613a2b565b3461052f57600036600319011261052f57602060405160468152f35b3461052f57600036600319011261052f57602060405160008152f35b3461052f57600036600319011261052f5760c06040516000815260006020820152600060408201526000606082015260006080820152600060a0820152f35b3461052f57600036600319011261052f576040517f00000000000000000000000000000000000000000000000000000000000000006001600160a01b03168152602090f35b3461052f57600036600319011261052f5760ff600654166040516005821015610e85576020918152f35b3461052f57600036600319011261052f576020604051601e8152f35b3461052f57600036600319011261052f576040517f00000000000000000000000000000000000000000000000000000000000000006001600160a01b03168152602090f35b612666565b3461052f57600036600319011261052f5760206040517f00000000000000000000000000000000000000000000000000000000000000008152f35b612698565b3461052f57600036600319011261052f5760206113f0612bf6565b604051908152f35b3461052f57602036600319011261052f5761141161261f565b60ff600654166005811015610e855760041490816114bb575b81611498575b81611474575b5080611449576020906040519015158152f35b50600f547f00000000000000000000000000000000000000000000000000000000000000001161117e565b6001600160a01b031660009081526015602052604090205460ff1615905081611436565b6001600160a01b03811660009081526014602052604090205460ff169150611430565b7f00000000000000000000000000000000000000000000000000000000000000004210915061142a565b3461052f57600036600319011261052f576020600b54604051908152f35b3461052f57604036600319011261052f5761151c61261f565b60ff600654166005811015610e855760030361154b57611540906024359033613c21565b602060405160018152f35b6040516377d87fb560e11b8152600490fd5b3461052f57600036600319011261052f57602060405160038152f35b3461052f57600036600319011261052f576040516714adf4b7320334b9601d1b8152602090f35b3461052f57600036600319011261052f5760065460405160089190911c6001600160a01b03168152602090f35b3461052f57600036600319011261052f5760206113f0612bd5565b3461052f57600036600319011261052f576020611603612b59565b60ff60405191168152f35b3461052f57602036600319011261052f576001600160a01b0361162f61261f565b166000526014602052602060ff604060002054166040519015158152f35b3461052f57600036600319011261052f576020604051676f05b59d3b2000008152f35b3461052f57600036600319011261052f5760405160009060045460018160011c906001831692831561174e575b60209384841081146117385783865290811561171857506001146116d8575b610662846116cc81880382612598565b604051918291826125bb565b919350600460005283600020916000925b8284106117055750505081610662936116cc92820101936116bc565b80548585018701529285019281016116e9565b60ff1916858501525050151560051b82010191506116cc816106626116bc565b634e487b7160e01b600052602260045260246000fd5b91607f169161169d565b3461052f57600036600319011261052f57602060405160508152f35b3461052f57600036600319011261052f576020600954604051908152f35b3461052f57600036600319011261052f576020610f37613929565b3461052f57600036600319011261052f57604051676765c793fa10079d601b1b8152602090f35b3461052f57600036600319011261052f576020600754604051908152f35b3461052f57602036600319011261052f576001600160a01b0361181361261f565b16600052600e60205260206040600020548015908115611839575b506040519015158152f35b905043118261182e565b3461052f57600036600319011261052f5760206040517f00000000000000000000000000000000000000000000000000000000000000008152f35b3461052f57600036600319011261052f576020604051673782dace9d9000008152f35b3461052f57602036600319011261052f576118ba61261f565b60ff60135416806118fa575b806118d8576020906040519015158152f35b5060018060a01b03166000526016602052602060ff604060002054161561117e565b506001600160a01b03811660009081526015602052604090205460ff166118c6565b3461052f57600036600319011261052f576020600c54604051908152f35b3461052f57600036600319011261052f5760206040517f00000000000000000000000000000000000000000000000000000000000000008152f35b3461052f57602036600319011261052f5760206113f061199361261f565b612b3e565b612604565b3461052f57600036600319011261052f57602060405160648152f35b3461052f57602036600319011261052f576004356001600160a01b038116810361052f576119f06020916119eb61338e565b61369a565b600160008051602061427583398151915255604051908152f35b3461052f57600036600319011261052f5760c0611a256129bc565b604080516001600160a01b03909716875260208701959095526001600160701b039384169486019490945291166060840152608083015260a0820152f35b3461052f57600036600319011261052f576040517f00000000000000000000000000000000000000000000000000000000000000006001600160a01b03168152602090f35b3461052f57602036600319011261052f576004356001600160a01b038116810361052f576119f0602091611ada61338e565b6138aa565b3461052f57602036600319011261052f5760206113f0611afd61261f565b612946565b3461052f57600036600319011261052f5760206113f06128af565b3461052f57600036600319011261052f57611b3661338e565b611b3e6133be565b60ff60135460081c16158015611c1d575b8015611c05575b611bf35760207f000000000000000000000000000000000000000000000000000000000000000033600052601782526040600020600160ff19825416179055611ba1816011546126d6565b601155611bae81336139a8565b6040518181527feda835ea67193b5de1fbd871950998f0537eec03a9e40592414ba19a24b4325d833392a2600160008051602061427583398151915255604051908152f35b6040516319e1016760e01b8152600490fd5b5033600052601760205260ff60406000205416611b56565b5033600052601560205260ff6040600020541615611b4f565b3461052f57600036600319011261052f5760206113f0612882565b3461052f57600036600319011261052f5760206113f0611c82611c79600954600a5490612823565b600b5490612823565b60115490612823565b3461052f57600036600319011261052f576020604051620151808152f35b3461052f57600036600319011261052f57611cc261338e565b611cca613929565b15611d4657600b548015611d34576020906000600b55611cec81600a54612823565b600a556040518181527f6a0c33aa8c816cdfa77b389739210eadb9f9a653e441ee697d9a29d61a9884a1833392a2600160008051602061427583398151915255604051908152f35b6040516312d37ee560e31b8152600490fd5b604051638a430e9f60e01b8152600490fd5b3461052f57602036600319011261052f576001600160a01b03611d7961261f565b166000526015602052602060ff604060002054166040519015158152f35b3461052f57600036600319011261052f57602060405161dead8152f35b3461052f57600036600319011261052f5760206040517f00000000000000000000000000000000000000000000000000000000000000008152f35b3461052f57600036600319011261052f57611e0861338e565b60206119f07f00000000000000000000000000000000000000000000000000000000000000006001600160a01b03166138aa565b3461052f57602036600319011261052f57610662610653600435612830565b3461052f57600036600319011261052f57602060405167016345785d8a00008152f35b3461052f57600036600319011261052f57611e976133be565b005b61264b565b3461052f57600036600319011261052f5760206040517f00000000000000000000000000000000000000000000000000000000000000008152f35b3461052f57602036600319011261052f576001600160a01b03611efa61261f565b16600052600e6020526020604060002054604051908152f35b3461052f57600036600319011261052f576020600854604051908152f35b3461052f57600036600319011261052f57611f4a61338e565b60206119f07f00000000000000000000000000000000000000000000000000000000000000006001600160a01b031661369a565b3461052f57600036600319011261052f5760206040517f00000000000000000000000000000000000000000000000000000000000000008152f35b3461052f57600036600319011261052f5760206040517f00000000000000000000000000000000000000000000000000000000000000008152f35b3461052f57600036600319011261052f57602060405160128152f35b3461052f57600036600319011261052f576020601054604051908152f35b600036600319011261052f5761204261338e565b61204a6133be565b61002b336134b8565b3461052f57602036600319011261052f576001600160a01b0361207461261f565b166000526016602052602060ff604060002054166040519015158152f35b3461052f57600036600319011261052f57602060ff601354166040519015158152f35b3461052f57600036600319011261052f57602060ff60135460081c166040519015158152f35b3461052f57606036600319011261052f576120f461261f565b6120fc612635565b6044359060ff600654166005811015610e8557600381036121e1575b506001600160a01b038316600081815260016020908152604080832033845290915290205493906000198510612154575b506115409350613c21565b8385106121c05780156121a757331561218e5761154094849160005260016020526040600020336000526020520360406000205584612149565b604051634a1406b160e11b815260006004820152602490fd5b60405163e602df0560e01b815260006004820152602490fd5b604051637dc7a0d960e11b8152806121dd86883360048501613f2a565b0390fd5b600214806121f5575b1561154b5783612118565b506001600160a01b03831630146121ea565b3461052f57600036600319011261052f57602060405162ed4e008152f35b3461052f57600036600319011261052f57604061224061322b565b82519182526020820152f35b3461052f57602036600319011261052f576001600160a01b0361226d61261f565b166000526017602052602060ff604060002054166040519015158152f35b3461052f57600036600319011261052f576020600254604051908152f35b3461052f57600036600319011261052f5760408051908101906001600160401b038211818310176122f857610662916040526004815263188ccc4d60e21b6020820152604051918291826125bb565b634e487b7160e01b600052604160045260246000fd5b3461052f57604036600319011261052f5761232761261f565b6024359033156121a7576001600160a01b031690811561218e57336000526001602052604060002082600052602052806040600020556040519081527f8c5be1e5ebec7d5bd14f71427d1e84f3dd0314c0f7b2291e5b200ac8c7c3b92560203392a3602060405160018152f35b3461052f57600036600319011261052f576020601154604051908152f35b3461052f57600036600319011261052f5760405160009060035460018160011c906001831692831561244d575b602093848410811461173857838652908115611718575060011461240d57610662846116cc81880382612598565b919350600360005283600020916000925b82841061243a5750505081610662936116cc92820101936116bc565b805485850187015292850192810161241e565b91607f16916123df565b3461052f57600036600319011261052f5760405160009060055460018160011c90600183169283156124f2575b60209384841081146117385783865290811561171857506001146124b257610662846116cc81880382612598565b919350600560005283600020916000925b8284106124df5750505081610662936116cc92820101936116bc565b80548585018701529285019281016124c3565b91607f1691612484565b3461052f57600036600319011261052f576020604051670de0b6b3a76400008152f35b3461052f57600036600319011261052f576040517f00000000000000000000000000000000000000000000000000000000000000006001600160a01b03168152602090f35b3461052f57600036600319011261052f57806706f05b59d3b2000060209252f35b6001600160401b0381116122f857604052565b601f909101601f19168101906001600160401b038211908210176122f857604052565b6020808252825181830181905290939260005b8281106125f057505060409293506000838284010152601f8019910116010190565b8181018601518482016040015285016125ce565b3461052f57600036600319011261052f5760206113f0612748565b600435906001600160a01b038216820361052f57565b602435906001600160a01b038216820361052f57565b3461052f57600036600319011261052f5760206113f06127a9565b3461052f57600036600319011261052f57602060405160028152f35b6040919493926060820195825260208201520152565b3461052f57600036600319011261052f57602060405160ff7f0000000000000000000000000000000000000000000000000000000000000000168152f35b919082039182116126e357565b634e487b7160e01b600052601160045260246000fd5b3461052f57600036600319011261052f57602060405160018152f35b818102929181159184041417156126e357565b8115612732570490565b634e487b7160e01b600052601260045260246000fd5b60ff600654166005811015610e85576003146127a357600954612710908181029181830414901517156126e3576127a0907f000000000000000000000000000000000000000000000000000000000000000090612728565b90565b61271090565b60ff600654166005811015610e85576003146127ea576127c7613327565b670de0b6b3a7640000918281029281840414901517156126e3576127a091612728565b6127f261322b565b90801561281c57670de0b6b3a7640000918281029281840414901517156126e3576127a091612728565b5050600090565b919082018092116126e357565b60ff600654166005811015610e855760010361287657801561287657612870916127a061286a61285f84613752565b91979293909761384c565b96612823565b936126d6565b50600090600090600090565b612897611c82611c79600954600a5490612823565b804711156128a9576127a090476126d6565b50600090565b6006546001600160a01b039060081c8116801561281c576020906024604051809481936370a0823160e01b835260048301527f0000000000000000000000000000000000000000000000000000000000000000165afa908115610e0d57600091612917575090565b90506020813d60201161293e575b8161293260209383612598565b8101031261052f575190565b3d9150612925565b6001600160a01b03166000908152600e602052604090205480156128a957600181018091116126e35790565b51906001600160701b038216820361052f57565b9081606091031261052f5761299a81612972565b9160406129a960208401612972565b92015163ffffffff8116810361052f5790565b60065460081c6001600160a01b03908116918215612b2d57818316916040928351926318160ddd60e01b84526020938481600481865afa908115612b2257600091612af5575b5094805193630240bc6b60e21b8552606085600481875afa8015612aea57600095600091612ab4575b50949584600052600081528083600020549560248551809581936370a0823160e01b835260048301527f0000000000000000000000000000000000000000000000000000000000000000165afa928315612aaa5750600092612a8c57505090565b90809250813d8311612aa3575b6129328183612598565b503d612a99565b513d6000823e3d90fd5b9050612ad991955060603d606011612ae3575b612ad18183612598565b810190612986565b5094909438612a2b565b503d612ac7565b82513d6000823e3d90fd5b90508481813d8311612b1b575b612b0c8183612598565b8101031261052f575138612a02565b503d612b02565b86513d6000823e3d90fd5b600092508291508190819081908190565b6001600160a01b031660009081526020819052604090205490565b60135460ff8116612bcf5760ff600654166005811015610e8557600414612b9d5760081c60ff168015612b95575b612b9057600190565b600390565b506001612b87565b507f00000000000000000000000000000000000000000000000000000000000000004210612bca57600390565b600190565b50600290565b60ff600654166005811015610e8557600303612bf157600b5490565b600090565b60ff600654166005811015610e8557600103612bf1576127a06009547f00000000000000000000000000000000000000000000000000000000000000006126d6565b93909796959260c0959260e08601998652602086015260408501526060840152608083015260a08201520152565b60ff600654166005811015610e855760010361287657801561287657612ca190610fc0610fba612c94613327565b919093610fb48386612715565b90612cab82613bea565b5050612cb781846126d6565b91565b612cc26133be565b60069060ff825416916005831015610e855760048093146131fe57805460ff811660058110156131e957600114612d045760405163baf3f0f760e01b81528490fd5b33159081156131df575b81156131c6575b506131b55734156131a457612d2934613752565b839492919415801561319c575b61318b5760095494612d488387612823565b927f00000000000000000000000000000000000000000000000000000000000000009586612d758361384c565b9514613181575b84158015613176575b61316557612d9582600099612823565b600955612da483600a54612823565b600a55612db384600b54612823565b600b5542600c55612dc6856007546126d6565b600755612dd4853330613c21565b338852602094600e865260409443868b2055612df083346126d6565b9081613156575b6009549560075495885195865289860152878501526060840152608083015260a08201528260c08201528160e08201526000805160206142558339815191526101003392a28582109081159161314d575b50612e58575b5050505050509050565b83549260ff841695600587101561313a5790899392916001880361312a57820361311b57600260ff198096161796878755600260008051602061421583398151915291828b80a3612ea7613d6c565b1561310b5760089586549160018060a01b03998a807f000000000000000000000000000000000000000000000000000000000000000016918a1c16808851996370a0823160e01b8b528a01528589602481855afa9889156130ce578d996130d8575b5084612f159130613c21565b803b156130a0578d8c88518092630d0e30db60e41b8252818a865af180156130ce57908f916130b5575b508c604487928e8d8f54901c16928b51958694859363a9059cbb60e01b85528401528b60248401525af19081156130ab578c91613071575b5015613061578a9b9c848b8b9c9d9a9b548c1c1660248951809c81936335313c2160e11b835261dead878401525af1988915613057578d99613028575b508c8a558c60095560038b549360ff8516941617809b55600583101561301557509160038694926000805160206142358339815191529c9a98969460809c9a98519e80a38b528a015288015260608701521c1692a280388080808080612e4e565b634e487b7160e01b8d526021905260248cfd5b9098508481813d8311613050575b6130408183612598565b8101031261052f57519738612fb4565b503d613036565b87513d8f823e3d90fd5b85516314da028560e11b81528d90fd5b90508481813d83116130a4575b6130888183612598565b810103126130a0575180151581036130a05738612f77565b8b80fd5b503d61307e565b87513d8e823e3d90fd5b8b87928e9f6130c48e94612585565b9f50925050612f3f565b88513d8f823e3d90fd5b9098508581813d8311613104575b6130f08183612598565b8101031261310057519784612f09565b8c80fd5b503d6130e6565b50505051633c1413fb60e01b8152fd5b505051638199f5f360e01b8152fd5b5050505163baf3f0f760e01b8152fd5b634e487b7160e01b885260218a52602488fd5b90501538612e48565b61316082336139a8565b612df7565b604051638199f5f360e01b81528a90fd5b506007548511612d85565b6007549450612d7c565b604051631f2a200560e01b81528790fd5b508115612d36565b604051631f2a200560e01b81528390fd5b604051634e46966960e11b81528390fd5b3360089190911c6001600160a01b031614905038612d15565b3330149150612d0e565b602185634e487b7160e01b6000525260246000fd5b50905061320a336134b8565b565b9081602091031261052f57516001600160a01b038116810361052f5790565b60065460081c6001600160a01b039081169190821561331e57604051630240bc6b60e21b815290606082600481875afa938415610e0d576000926000956132ef575b5090602060049260405193848092630dfe168160e01b82525afa918215610e0d576000926132be575b501630036132ae576001600160701b03908116921690565b6001600160701b03928316921690565b6132e191925060203d6020116132e8575b6132d98183612598565b81019061320c565b9038613296565b503d6132cf565b600492919550602093506133119060603d606011612ae357612ad18183612598565b509390939591925061326d565b50600091508190565b6133546009547f000000000000000000000000000000000000000000000000000000000000000090612823565b906127a061336760075460085490612823565b7f000000000000000000000000000000000000000000000000000000000000000090612823565b60008051602061427583398151915260028154146133ac5760029055565b604051633ee5aeb560e01b8152600490fd5b60065460ff8116906005821015610e8557600482148061348e575b80613481575b6133e7575050565b601054917f0000000000000000000000000000000000000000000000000000000000000000831061341d5750505061320a613f48565b7fd06618f00e4db5bc4d25734a5aefd22c95ef99b512f746c01022645e501b62a092600160409361010061ff0019601354161760135560ff1916176006556001835192600080516020614215833981519152600080a3600f549082526020820152a1565b5060ff60135416156133df565b507f00000000000000000000000000000000000000000000000000000000000000004210156133d9565b9060ff60065416916005831015610e85576004809303613689577f0000000000000000000000000000000000000000000000000000000000000000421015613689576001600160a01b03166000818152601460205260408082205490919060ff1615613679577f0000000000000000000000000000000000000000000000000000000000000000340361366957828152601560205260ff828220541661365957600f547f00000000000000000000000000000000000000000000000000000000000000001115613649578281526015602052818120600160ff19825416179055600f549060018201809211613636575061360393945090817f2937d4b8ffdeea00fe58bc57f57d3010576fc9b39a784691fcc8054e15c60a4392600f556135e134601054612823565b948592836010556135f434601154612823565b60115551928392349084612682565b0390a27f00000000000000000000000000000000000000000000000000000000000000001461362e57565b61320a613f48565b634e487b7160e01b815260118652602490fd5b8151635c766e7560e01b81528590fd5b815163887daea160e01b81528590fd5b8151636ece8a1b60e01b81528590fd5b815163033bb9db60e21b81528590fd5b6040516302664e7160e11b81528390fd5b906001600160a01b037f0000000000000000000000000000000000000000000000000000000000000000811633036137415760ff600654166005811015610e8557600303610e73578216801561372f57600b54928315611d345783613703916000600b556139a8565b7fd046302bdc39599e60a5981e59227dcd1c643f512f56f2e984390c3ac6eadedb6020604051858152a2565b60405163d92e233d60e01b8152600490fd5b6040516282b42960e81b8152600490fd5b9061377f6009547f00000000000000000000000000000000000000000000000000000000000000006126d6565b91821561383a5761379a61379282613bea565b5050826126d6565b928084116137b6575091905b6137af83613bea565b9091509091565b9250506137d56137c583614141565b6126ac6127108509151590612823565b91825b6137f8575b506137f26137ea83613bea565b5050836126d6565b906137a6565b91826138066137ea83613bea565b111561383457600019810190811161381f5791826137d8565b60246000634e487b7160e01b81526011600452fd5b916137dd565b60405163c83ba27d60e01b8152600490fd5b61385881600954612823565b7f0000000000000000000000000000000000000000000000000000000000000000146138a35761389d610fc06127a092613890613327565b939091610fb48584612715565b90612728565b5060075490565b906001600160a01b037f000000000000000000000000000000000000000000000000000000000000000081163303613741578216801561372f57600a54928315611d3457836138fd916000600a556139a8565b7f0f58cb6262d88971b87878468debb7bc81f1714be597710e16a9fb84c66ff7b56020604051858152a2565b60ff600654166005811015610e85576001148061399d575b80613966575b8061394f5790565b50600c5462278d0081018091116126e35742101590565b507f000000000000000000000000000000000000000000000000000000000000000062ed4e0081018091116126e357421015613947565b50600b541515613941565b814710613a0c57604051602081016001600160401b038111828210176122f857604052600080809481948280955260018060a01b03165af1156139e85750565b3d156139fa57604051903d90823e3d90fd5b60405163d6bda27560e01b8152600490fd5b60405163cf47918160e01b815247600482015260248101839052604490fd5b60065460081c6001600160a01b0390811690811561281c57604080516318160ddd60e01b815290926020918281600481855afa908115613b8057600091613b8b575b50613b48578351630240bc6b60e21b8152606081600481855afa908115613b8057600090600092613b5d575b506001600160701b039081161580159290613b51575b5050613b4857613abe81612b3e565b613b4857819060248551809581936370a0823160e01b835260048301527f0000000000000000000000000000000000000000000000000000000000000000165afa928315612aaa5750600092613b1a575b5050612bf157600190565b90809250813d8311613b41575b613b318183612598565b8101031261052f57513880613b0f565b503d613b27565b50505050600090565b16151590503880613aaf565b9050613b78915060603d606011612ae357612ad18183612598565b509038613a99565b85513d6000823e3d90fd5b90508281813d8311613bb1575b613ba28183612598565b8101031261052f575138613a6d565b503d613b98565b908015613bd757613bcf6001916000198401612728565b019015150290565b634e487b7160005260126020526024601cfd5b801561287657806127106064613c02613c0c946141ab565b9209151590612823565b90613c16826140c6565b906127a082846126d6565b916001600160a01b03808416928315613d535716928315613d3a5760ff60065416600581101580610e8557600182148015613d2d575b15613cf35750503083148015613cea575b1561154b575b60009083825281602052604082205490838210613ccd575091604082827fddf252ad1be2c89b69c2b068fc378daa952ba7f163c4a11628f55a4df523b3ef958760209652828652038282205586815220818154019055604051908152a3565b6121dd8460405193849363391434e360e21b855260048501613f2a565b50308414613c68565b610e855760028103613d0d5750308303610e73575b613c6e565b600303613c6e57308403613d0857604051634e46966960e11b8152600490fd5b5050600060048214613c57565b60405163ec442f0560e01b815260006004820152602490fd5b604051634b637e8f60e11b815260006004820152602490fd5b60065460081c6001600160a01b0390811690811561281c576040908151926318160ddd60e01b84526020938481600481855afa908115613ef257600091613efd575b50613b4857613dbc81612b3e565b613b48578251630240bc6b60e21b815290606082600481845afa948515613ef257600092600096613eca575b508451630dfe168160e01b8152908082600481865afa918215612b2257600092613ea8575b50806004929387519384809263d21220a760e01b82525afa958615612aaa5750600095613e89575b5050821630149081613e76575b50613e6e571630149081613e5b575b50612bf157600190565b6001600160701b03161515905038613e51565b505050600090565b6001600160701b03161515905038613e42565b613ea0929550803d106132e8576132d98183612598565b923880613e35565b60049250613ec38291823d84116132e8576132d98183612598565b9250613e0d565b909550613ee791925060603d606011612ae357612ad18183612598565b509190919438613de8565b84513d6000823e3d90fd5b90508481813d8311613f23575b613f148183612598565b8101031261052f575138613dae565b503d613f0a565b604091949392606082019560018060a01b0316825260208201520152565b60135460ff8116610e7357601054907f00000000000000000000000000000000000000000000000000000000000000008203610e7357613f9690613f8b83613bea565b9491829491946126d6565b908115610e6157613fa68261384c565b613fdb613fd47f00000000000000000000000000000000000000000000000000000000000000008093612728565b9182612715565b91811580156140be575b80156140b3575b610e6157600160ff19809616176013558160125582600d55600060115561401584600954612823565b60095561402486600a54612823565b600a5561403387600b54612823565b600b55614042836007546126d6565b60075542600c5560016006549560ff87169616176006556005851015610e85577f8020fdb0592775b626a997485c415e05a790703d920667e59222a260f0c3903a966001966140ae95604051988998600080516020614215833981519152600080a3600f549388612c38565b0390a1565b506007548311613fec565b508215613fe5565b600019601e8209601e820290818082109103908082039114614138578060641115614125576064601e7f5c28f5c28f5c28f5c28f5c28f5c28f5c28f5c28f5c28f5c28f5c28f5c28f5c29940990828211900360fe1b910360021c170290565b634e487b7160005260116020526024601cfd5b50606491500490565b612710600019818309818302918280831092039180830392146141a0576126ac9082821115614125577fa902ffe58553adaa902ffe58553adaa902ffe58553adaa902ffe58553adaa903940990828211900360fe1b910360021c170290565b50506126ac91500490565b60001960648209606482029081808210910390808203911461420a57612710818111156141255760647fbc01a36e2eb1c432ca57a786c226809d495182a9930be0ded288ce703afb7e91940990828211900360fc1b910360041c170290565b506127109150049056fe3a779de46631dd65116ae538600f1bc3c338200c6aef638429b5de43301c28f771aa8c3702dbbc54247a4e6446450e64a46250dd72707a247ddb01d72eaef4456ff5f8cb3bbdee941e910591101be7dcb3bd64213bbc4ac9e994c9d7b0ef74cd9b779b17422d0df92223018b32b4d1fa46e071723d6817e2486d003becc55f00a2646970667358221220565d95bba1598a522880b4ec2f263c2cd9cdb5a39b066b8b0b3e310c6c7a5b4864736f6c63430008180033",
  "linkReferences": {},
  "deployedLinkReferences": {}
}