{
  "_format": "hh-sol-artifact-1",
  "contractName": "LaunchFactory",
  "sourceName": "contracts/LaunchFactory.sol",
  "abi": [
    {
      "inputs": [
        {
          "internalType": "address",
          "name": "owner_",
          "type": "address"
        },
        {
          "internalType": "address",
          "name": "router_",
          "type": "address"
        },
        {
          "internalType": "address",
          "name": "protocolFeeRecipient_",
          "type": "address"
        },
        {
          "internalType": "address",
          "name": "standardDeployer_",
          "type": "address"
        },
        {
          "internalType": "address",
          "name": "whitelistDeployer_",
          "type": "address"
        },
        {
          "internalType": "address",
          "name": "taxedDeployer_",
          "type": "address"
        },
        {
          "internalType": "address",
          "name": "whitelistTaxedDeployer_",
          "type": "address"
        },
        {
          "internalType": "uint256",
          "name": "standardCreateFee_",
          "type": "uint256"
        },
        {
          "internalType": "uint256",
          "name": "whitelistCreateFee_",
          "type": "uint256"
        },
        {
          "internalType": "uint256",
          "name": "graduationQuoteReserve_",
          "type": "uint256"
        }
      ],
      "stateMutability": "nonpayable",
      "type": "constructor"
    },
    {
      "inputs": [],
      "name": "DelayedWhitelistAtomicCommitUnsupported",
      "type": "error"
    },
    {
      "inputs": [],
      "name": "FailedCall",
      "type": "error"
    },
    {
      "inputs": [
        {
          "internalType": "uint256",
          "name": "balance",
          "type": "uint256"
        },
        {
          "internalType": "uint256",
          "name": "needed",
          "type": "uint256"
        }
      ],
      "name": "InsufficientBalance",
      "type": "error"
    },
    {
      "inputs": [],
      "name": "InsufficientCreateFee",
      "type": "error"
    },
    {
      "inputs": [],
      "name": "InvalidGraduationConfig",
      "type": "error"
    },
    {
      "inputs": [],
      "name": "InvalidTaxConfig",
      "type": "error"
    },
    {
      "inputs": [],
      "name": "InvalidTaxMode",
      "type": "error"
    },
    {
      "inputs": [],
      "name": "InvalidWhitelistAtomicCommitAmount",
      "type": "error"
    },
    {
      "inputs": [],
      "name": "MissingAtomicBuyValue",
      "type": "error"
    },
    {
      "inputs": [],
      "name": "NothingToClaim",
      "type": "error"
    },
    {
      "inputs": [
        {
          "internalType": "address",
          "name": "owner",
          "type": "address"
        }
      ],
      "name": "OwnableInvalidOwner",
      "type": "error"
    },
    {
      "inputs": [
        {
          "internalType": "address",
          "name": "account",
          "type": "address"
        }
      ],
      "name": "OwnableUnauthorizedAccount",
      "type": "error"
    },
    {
      "inputs": [],
      "name": "PendingProtocolCreateFees",
      "type": "error"
    },
    {
      "inputs": [],
      "name": "ProtocolFeeRecipientMismatch",
      "type": "error"
    },
    {
      "inputs": [],
      "name": "Unauthorized",
      "type": "error"
    },
    {
      "inputs": [],
      "name": "UnknownLaunch",
      "type": "error"
    },
    {
      "inputs": [],
      "name": "ZeroAddress",
      "type": "error"
    },
    {
      "anonymous": false,
      "inputs": [
        {
          "indexed": true,
          "internalType": "address",
          "name": "creator",
          "type": "address"
        },
        {
          "indexed": true,
          "internalType": "address",
          "name": "token",
          "type": "address"
        },
        {
          "indexed": true,
          "internalType": "uint8",
          "name": "mode",
          "type": "uint8"
        },
        {
          "indexed": false,
          "internalType": "string",
          "name": "name",
          "type": "string"
        },
        {
          "indexed": false,
          "internalType": "string",
          "name": "symbol",
          "type": "string"
        },
        {
          "indexed": false,
          "internalType": "string",
          "name": "metadataURI",
          "type": "string"
        }
      ],
      "name": "LaunchCreated",
      "type": "event"
    },
    {
      "anonymous": false,
      "inputs": [
        {
          "indexed": true,
          "internalType": "address",
          "name": "previousOwner",
          "type": "address"
        },
        {
          "indexed": true,
          "internalType": "address",
          "name": "newOwner",
          "type": "address"
        }
      ],
      "name": "OwnershipTransferred",
      "type": "event"
    },
    {
      "anonymous": false,
      "inputs": [
        {
          "indexed": true,
          "internalType": "address",
          "name": "recipient",
          "type": "address"
        },
        {
          "indexed": false,
          "internalType": "uint256",
          "name": "amount",
          "type": "uint256"
        }
      ],
      "name": "ProtocolCreateFeesClaimed",
      "type": "event"
    },
    {
      "anonymous": false,
      "inputs": [
        {
          "indexed": true,
          "internalType": "address",
          "name": "previousRecipient",
          "type": "address"
        },
        {
          "indexed": true,
          "internalType": "address",
          "name": "newRecipient",
          "type": "address"
        }
      ],
      "name": "ProtocolFeeRecipientUpdated",
      "type": "event"
    },
    {
      "inputs": [],
      "name": "DEFAULT_PROTOCOL_FEE_RECIPIENT",
      "outputs": [
        {
          "internalType": "address",
          "name": "",
          "type": "address"
        }
      ],
      "stateMutability": "view",
      "type": "function"
    },
    {
      "inputs": [],
      "name": "accruedProtocolCreateFees",
      "outputs": [
        {
          "internalType": "uint256",
          "name": "",
          "type": "uint256"
        }
      ],
      "stateMutability": "view",
      "type": "function"
    },
    {
      "inputs": [
        {
          "internalType": "uint256",
          "name": "",
          "type": "uint256"
        }
      ],
      "name": "allLaunches",
      "outputs": [
        {
          "internalType": "address",
          "name": "",
          "type": "address"
        }
      ],
      "stateMutability": "view",
      "type": "function"
    },
    {
      "inputs": [
        {
          "internalType": "address[]",
          "name": "tokens",
          "type": "address[]"
        },
        {
          "internalType": "address payable",
          "name": "recipient",
          "type": "address"
        }
      ],
      "name": "batchClaimProtocolFees",
      "outputs": [
        {
          "internalType": "uint256",
          "name": "totalClaimed",
          "type": "uint256"
        },
        {
          "internalType": "uint256",
          "name": "claimedCount",
          "type": "uint256"
        }
      ],
      "stateMutability": "nonpayable",
      "type": "function"
    },
    {
      "inputs": [
        {
          "internalType": "address[]",
          "name": "tokens",
          "type": "address[]"
        }
      ],
      "name": "batchSweepAbandonedCreatorFees",
      "outputs": [
        {
          "internalType": "uint256",
          "name": "totalSwept",
          "type": "uint256"
        },
        {
          "internalType": "uint256",
          "name": "sweptCount",
          "type": "uint256"
        }
      ],
      "stateMutability": "nonpayable",
      "type": "function"
    },
    {
      "inputs": [],
      "name": "claimProtocolCreateFees",
      "outputs": [
        {
          "internalType": "uint256",
          "name": "amount",
          "type": "uint256"
        }
      ],
      "stateMutability": "nonpayable",
      "type": "function"
    },
    {
      "inputs": [
        {
          "internalType": "address payable",
          "name": "recipient",
          "type": "address"
        }
      ],
      "name": "claimProtocolCreateFeesTo",
      "outputs": [
        {
          "internalType": "uint256",
          "name": "amount",
          "type": "uint256"
        }
      ],
      "stateMutability": "nonpayable",
      "type": "function"
    },
    {
      "inputs": [],
      "name": "createFee",
      "outputs": [
        {
          "internalType": "uint256",
          "name": "",
          "type": "uint256"
        }
      ],
      "stateMutability": "view",
      "type": "function"
    },
    {
      "inputs": [
        {
          "internalType": "enum LaunchFactory.LaunchMode",
          "name": "mode",
          "type": "uint8"
        }
      ],
      "name": "createFeeForMode",
      "outputs": [
        {
          "internalType": "uint256",
          "name": "",
          "type": "uint256"
        }
      ],
      "stateMutability": "view",
      "type": "function"
    },
    {
      "inputs": [
        {
          "internalType": "string",
          "name": "name_",
          "type": "string"
        },
        {
          "internalType": "string",
          "name": "symbol_",
          "type": "string"
        },
        {
          "internalType": "string",
          "name": "metadataURI_",
          "type": "string"
        }
      ],
      "name": "createLaunch",
      "outputs": [
        {
          "internalType": "address",
          "name": "token",
          "type": "address"
        }
      ],
      "stateMutability": "payable",
      "type": "function"
    },
    {
      "inputs": [
        {
          "internalType": "string",
          "name": "name_",
          "type": "string"
        },
        {
          "internalType": "string",
          "name": "symbol_",
          "type": "string"
        },
        {
          "internalType": "string",
          "name": "metadataURI_",
          "type": "string"
        },
        {
          "internalType": "uint256",
          "name": "minTokenOut",
          "type": "uint256"
        }
      ],
      "name": "createLaunchAndBuy",
      "outputs": [
        {
          "internalType": "address",
          "name": "token",
          "type": "address"
        },
        {
          "internalType": "uint256",
          "name": "tokenOut",
          "type": "uint256"
        }
      ],
      "stateMutability": "payable",
      "type": "function"
    },
    {
      "inputs": [
        {
          "internalType": "string",
          "name": "name_",
          "type": "string"
        },
        {
          "internalType": "string",
          "name": "symbol_",
          "type": "string"
        },
        {
          "internalType": "string",
          "name": "metadataURI_",
          "type": "string"
        },
        {
          "internalType": "bytes32",
          "name": "salt",
          "type": "bytes32"
        },
        {
          "internalType": "uint256",
          "name": "minTokenOut",
          "type": "uint256"
        }
      ],
      "name": "createLaunchAndBuyWithSalt",
      "outputs": [
        {
          "internalType": "address",
          "name": "token",
          "type": "address"
        },
        {
          "internalType": "uint256",
          "name": "tokenOut",
          "type": "uint256"
        }
      ],
      "stateMutability": "payable",
      "type": "function"
    },
    {
      "inputs": [
        {
          "internalType": "string",
          "name": "name_",
          "type": "string"
        },
        {
          "internalType": "string",
          "name": "symbol_",
          "type": "string"
        },
        {
          "internalType": "string",
          "name": "metadataURI_",
          "type": "string"
        },
        {
          "internalType": "bytes32",
          "name": "salt",
          "type": "bytes32"
        }
      ],
      "name": "createLaunchWithSalt",
      "outputs": [
        {
          "internalType": "address",
          "name": "token",
          "type": "address"
        }
      ],
      "stateMutability": "payable",
      "type": "function"
    },
    {
      "inputs": [
        {
          "internalType": "string",
          "name": "name_",
          "type": "string"
        },
        {
          "internalType": "string",
          "name": "symbol_",
          "type": "string"
        },
        {
          "internalType": "string",
          "name": "metadataURI_",
          "type": "string"
        },
        {
          "internalType": "uint16",
          "name": "taxBps",
          "type": "uint16"
        },
        {
          "internalType": "uint16",
          "name": "burnShareBps",
          "type": "uint16"
        },
        {
          "internalType": "uint16",
          "name": "treasuryShareBps",
          "type": "uint16"
        },
        {
          "internalType": "address",
          "name": "treasuryWallet",
          "type": "address"
        }
      ],
      "name": "createTaxLaunch",
      "outputs": [
        {
          "internalType": "address",
          "name": "token",
          "type": "address"
        }
      ],
      "stateMutability": "payable",
      "type": "function"
    },
    {
      "inputs": [
        {
          "internalType": "string",
          "name": "name_",
          "type": "string"
        },
        {
          "internalType": "string",
          "name": "symbol_",
          "type": "string"
        },
        {
          "internalType": "string",
          "name": "metadataURI_",
          "type": "string"
        },
        {
          "internalType": "uint16",
          "name": "taxBps",
          "type": "uint16"
        },
        {
          "internalType": "uint16",
          "name": "burnShareBps",
          "type": "uint16"
        },
        {
          "internalType": "uint16",
          "name": "treasuryShareBps",
          "type": "uint16"
        },
        {
          "internalType": "address",
          "name": "treasuryWallet",
          "type": "address"
        },
        {
          "internalType": "uint256",
          "name": "minTokenOut",
          "type": "uint256"
        }
      ],
      "name": "createTaxLaunchAndBuy",
      "outputs": [
        {
          "internalType": "address",
          "name": "token",
          "type": "address"
        },
        {
          "internalType": "uint256",
          "name": "tokenOut",
          "type": "uint256"
        }
      ],
      "stateMutability": "payable",
      "type": "function"
    },
    {
      "inputs": [
        {
          "internalType": "string",
          "name": "name_",
          "type": "string"
        },
        {
          "internalType": "string",
          "name": "symbol_",
          "type": "string"
        },
        {
          "internalType": "string",
          "name": "metadataURI_",
          "type": "string"
        },
        {
          "internalType": "uint16",
          "name": "taxBps",
          "type": "uint16"
        },
        {
          "internalType": "uint16",
          "name": "burnShareBps",
          "type": "uint16"
        },
        {
          "internalType": "uint16",
          "name": "treasuryShareBps",
          "type": "uint16"
        },
        {
          "internalType": "address",
          "name": "treasuryWallet",
          "type": "address"
        },
        {
          "internalType": "bytes32",
          "name": "salt",
          "type": "bytes32"
        },
        {
          "internalType": "uint256",
          "name": "minTokenOut",
          "type": "uint256"
        }
      ],
      "name": "createTaxLaunchAndBuyWithSalt",
      "outputs": [
        {
          "internalType": "address",
          "name": "token",
          "type": "address"
        },
        {
          "internalType": "uint256",
          "name": "tokenOut",
          "type": "uint256"
        }
      ],
      "stateMutability": "payable",
      "type": "function"
    },
    {
      "inputs": [
        {
          "internalType": "string",
          "name": "name_",
          "type": "string"
        },
        {
          "internalType": "string",
          "name": "symbol_",
          "type": "string"
        },
        {
          "internalType": "string",
          "name": "metadataURI_",
          "type": "string"
        },
        {
          "internalType": "uint16",
          "name": "taxBps",
          "type": "uint16"
        },
        {
          "internalType": "uint16",
          "name": "burnShareBps",
          "type": "uint16"
        },
        {
          "internalType": "uint16",
          "name": "treasuryShareBps",
          "type": "uint16"
        },
        {
          "internalType": "address",
          "name": "treasuryWallet",
          "type": "address"
        },
        {
          "internalType": "bytes32",
          "name": "salt",
          "type": "bytes32"
        }
      ],
      "name": "createTaxLaunchWithSalt",
      "outputs": [
        {
          "internalType": "address",
          "name": "token",
          "type": "address"
        }
      ],
      "stateMutability": "payable",
      "type": "function"
    },
    {
      "inputs": [
        {
          "internalType": "string",
          "name": "name_",
          "type": "string"
        },
        {
          "internalType": "string",
          "name": "symbol_",
          "type": "string"
        },
        {
          "internalType": "string",
          "name": "metadataURI_",
          "type": "string"
        },
        {
          "internalType": "uint256",
          "name": "whitelistThreshold",
          "type": "uint256"
        },
        {
          "internalType": "uint256",
          "name": "whitelistSlotSize",
          "type": "uint256"
        },
        {
          "internalType": "uint256",
          "name": "whitelistOpensAt",
          "type": "uint256"
        },
        {
          "internalType": "address[]",
          "name": "whitelistAddresses",
          "type": "address[]"
        }
      ],
      "name": "createWhitelistLaunch",
      "outputs": [
        {
          "internalType": "address",
          "name": "token",
          "type": "address"
        }
      ],
      "stateMutability": "payable",
      "type": "function"
    },
    {
      "inputs": [
        {
          "internalType": "string",
          "name": "name_",
          "type": "string"
        },
        {
          "internalType": "string",
          "name": "symbol_",
          "type": "string"
        },
        {
          "internalType": "string",
          "name": "metadataURI_",
          "type": "string"
        },
        {
          "internalType": "uint256",
          "name": "whitelistThreshold",
          "type": "uint256"
        },
        {
          "internalType": "uint256",
          "name": "whitelistSlotSize",
          "type": "uint256"
        },
        {
          "internalType": "uint256",
          "name": "whitelistOpensAt",
          "type": "uint256"
        },
        {
          "internalType": "address[]",
          "name": "whitelistAddresses",
          "type": "address[]"
        }
      ],
      "name": "createWhitelistLaunchAndCommit",
      "outputs": [
        {
          "internalType": "address",
          "name": "token",
          "type": "address"
        }
      ],
      "stateMutability": "payable",
      "type": "function"
    },
    {
      "inputs": [
        {
          "internalType": "string",
          "name": "name_",
          "type": "string"
        },
        {
          "internalType": "string",
          "name": "symbol_",
          "type": "string"
        },
        {
          "internalType": "string",
          "name": "metadataURI_",
          "type": "string"
        },
        {
          "internalType": "uint256",
          "name": "whitelistThreshold",
          "type": "uint256"
        },
        {
          "internalType": "uint256",
          "name": "whitelistSlotSize",
          "type": "uint256"
        },
        {
          "internalType": "uint256",
          "name": "whitelistOpensAt",
          "type": "uint256"
        },
        {
          "internalType": "address[]",
          "name": "whitelistAddresses",
          "type": "address[]"
        },
        {
          "internalType": "bytes32",
          "name": "salt",
          "type": "bytes32"
        }
      ],
      "name": "createWhitelistLaunchAndCommitWithSalt",
      "outputs": [
        {
          "internalType": "address",
          "name": "token",
          "type": "address"
        }
      ],
      "stateMutability": "payable",
      "type": "function"
    },
    {
      "inputs": [
        {
          "internalType": "string",
          "name": "name_",
          "type": "string"
        },
        {
          "internalType": "string",
          "name": "symbol_",
          "type": "string"
        },
        {
          "internalType": "string",
          "name": "metadataURI_",
          "type": "string"
        },
        {
          "internalType": "uint256",
          "name": "whitelistThreshold",
          "type": "uint256"
        },
        {
          "internalType": "uint256",
          "name": "whitelistSlotSize",
          "type": "uint256"
        },
        {
          "internalType": "uint256",
          "name": "whitelistOpensAt",
          "type": "uint256"
        },
        {
          "internalType": "address[]",
          "name": "whitelistAddresses",
          "type": "address[]"
        },
        {
          "internalType": "bytes32",
          "name": "salt",
          "type": "bytes32"
        }
      ],
      "name": "createWhitelistLaunchWithSalt",
      "outputs": [
        {
          "internalType": "address",
          "name": "token",
          "type": "address"
        }
      ],
      "stateMutability": "payable",
      "type": "function"
    },
    {
      "inputs": [
        {
          "internalType": "string",
          "name": "name_",
          "type": "string"
        },
        {
          "internalType": "string",
          "name": "symbol_",
          "type": "string"
        },
        {
          "internalType": "string",
          "name": "metadataURI_",
          "type": "string"
        },
        {
          "components": [
            {
              "internalType": "uint256",
              "name": "whitelistThreshold",
              "type": "uint256"
            },
            {
              "internalType": "uint256",
              "name": "whitelistSlotSize",
              "type": "uint256"
            },
            {
              "internalType": "uint256",
              "name": "whitelistOpensAt",
              "type": "uint256"
            },
            {
              "internalType": "address[]",
              "name": "whitelistAddresses",
              "type": "address[]"
            }
          ],
          "internalType": "struct LaunchFactory.WhitelistConfigInput",
          "name": "whitelistConfig",
          "type": "tuple"
        },
        {
          "components": [
            {
              "internalType": "uint16",
              "name": "taxBps",
              "type": "uint16"
            },
            {
              "internalType": "uint16",
              "name": "burnShareBps",
              "type": "uint16"
            },
            {
              "internalType": "uint16",
              "name": "treasuryShareBps",
              "type": "uint16"
            },
            {
              "internalType": "address",
              "name": "treasuryWallet",
              "type": "address"
            }
          ],
          "internalType": "struct LaunchFactory.TaxConfigInput",
          "name": "taxConfig",
          "type": "tuple"
        },
        {
          "internalType": "bytes",
          "name": "initCode",
          "type": "bytes"
        }
      ],
      "name": "createWhitelistTaxLaunch",
      "outputs": [
        {
          "internalType": "address",
          "name": "token",
          "type": "address"
        }
      ],
      "stateMutability": "payable",
      "type": "function"
    },
    {
      "inputs": [
        {
          "internalType": "string",
          "name": "name_",
          "type": "string"
        },
        {
          "internalType": "string",
          "name": "symbol_",
          "type": "string"
        },
        {
          "internalType": "string",
          "name": "metadataURI_",
          "type": "string"
        },
        {
          "components": [
            {
              "internalType": "uint256",
              "name": "whitelistThreshold",
              "type": "uint256"
            },
            {
              "internalType": "uint256",
              "name": "whitelistSlotSize",
              "type": "uint256"
            },
            {
              "internalType": "uint256",
              "name": "whitelistOpensAt",
              "type": "uint256"
            },
            {
              "internalType": "address[]",
              "name": "whitelistAddresses",
              "type": "address[]"
            }
          ],
          "internalType": "struct LaunchFactory.WhitelistConfigInput",
          "name": "whitelistConfig",
          "type": "tuple"
        },
        {
          "components": [
            {
              "internalType": "uint16",
              "name": "taxBps",
              "type": "uint16"
            },
            {
              "internalType": "uint16",
              "name": "burnShareBps",
              "type": "uint16"
            },
            {
              "internalType": "uint16",
              "name": "treasuryShareBps",
              "type": "uint16"
            },
            {
              "internalType": "address",
              "name": "treasuryWallet",
              "type": "address"
            }
          ],
          "internalType": "struct LaunchFactory.TaxConfigInput",
          "name": "taxConfig",
          "type": "tuple"
        },
        {
          "internalType": "bytes",
          "name": "initCode",
          "type": "bytes"
        }
      ],
      "name": "createWhitelistTaxLaunchAndCommit",
      "outputs": [
        {
          "internalType": "address",
          "name": "token",
          "type": "address"
        }
      ],
      "stateMutability": "payable",
      "type": "function"
    },
    {
      "inputs": [
        {
          "internalType": "string",
          "name": "name_",
          "type": "string"
        },
        {
          "internalType": "string",
          "name": "symbol_",
          "type": "string"
        },
        {
          "internalType": "string",
          "name": "metadataURI_",
          "type": "string"
        },
        {
          "components": [
            {
              "internalType": "uint256",
              "name": "whitelistThreshold",
              "type": "uint256"
            },
            {
              "internalType": "uint256",
              "name": "whitelistSlotSize",
              "type": "uint256"
            },
            {
              "internalType": "uint256",
              "name": "whitelistOpensAt",
              "type": "uint256"
            },
            {
              "internalType": "address[]",
              "name": "whitelistAddresses",
              "type": "address[]"
            }
          ],
          "internalType": "struct LaunchFactory.WhitelistConfigInput",
          "name": "whitelistConfig",
          "type": "tuple"
        },
        {
          "components": [
            {
              "internalType": "uint16",
              "name": "taxBps",
              "type": "uint16"
            },
            {
              "internalType": "uint16",
              "name": "burnShareBps",
              "type": "uint16"
            },
            {
              "internalType": "uint16",
              "name": "treasuryShareBps",
              "type": "uint16"
            },
            {
              "internalType": "address",
              "name": "treasuryWallet",
              "type": "address"
            }
          ],
          "internalType": "struct LaunchFactory.TaxConfigInput",
          "name": "taxConfig",
          "type": "tuple"
        },
        {
          "internalType": "bytes",
          "name": "initCode",
          "type": "bytes"
        },
        {
          "internalType": "bytes32",
          "name": "salt",
          "type": "bytes32"
        }
      ],
      "name": "createWhitelistTaxLaunchAndCommitWithSalt",
      "outputs": [
        {
          "internalType": "address",
          "name": "token",
          "type": "address"
        }
      ],
      "stateMutability": "payable",
      "type": "function"
    },
    {
      "inputs": [
        {
          "internalType": "string",
          "name": "name_",
          "type": "string"
        },
        {
          "internalType": "string",
          "name": "symbol_",
          "type": "string"
        },
        {
          "internalType": "string",
          "name": "metadataURI_",
          "type": "string"
        },
        {
          "components": [
            {
              "internalType": "uint256",
              "name": "whitelistThreshold",
              "type": "uint256"
            },
            {
              "internalType": "uint256",
              "name": "whitelistSlotSize",
              "type": "uint256"
            },
            {
              "internalType": "uint256",
              "name": "whitelistOpensAt",
              "type": "uint256"
            },
            {
              "internalType": "address[]",
              "name": "whitelistAddresses",
              "type": "address[]"
            }
          ],
          "internalType": "struct LaunchFactory.WhitelistConfigInput",
          "name": "whitelistConfig",
          "type": "tuple"
        },
        {
          "components": [
            {
              "internalType": "uint16",
              "name": "taxBps",
              "type": "uint16"
            },
            {
              "internalType": "uint16",
              "name": "burnShareBps",
              "type": "uint16"
            },
            {
              "internalType": "uint16",
              "name": "treasuryShareBps",
              "type": "uint16"
            },
            {
              "internalType": "address",
              "name": "treasuryWallet",
              "type": "address"
            }
          ],
          "internalType": "struct LaunchFactory.TaxConfigInput",
          "name": "taxConfig",
          "type": "tuple"
        },
        {
          "internalType": "bytes",
          "name": "initCode",
          "type": "bytes"
        },
        {
          "internalType": "bytes32",
          "name": "salt",
          "type": "bytes32"
        }
      ],
      "name": "createWhitelistTaxLaunchWithSalt",
      "outputs": [
        {
          "internalType": "address",
          "name": "token",
          "type": "address"
        }
      ],
      "stateMutability": "payable",
      "type": "function"
    },
    {
      "inputs": [],
      "name": "graduationQuoteReserve",
      "outputs": [
        {
          "internalType": "uint256",
          "name": "",
          "type": "uint256"
        }
      ],
      "stateMutability": "view",
      "type": "function"
    },
    {
      "inputs": [
        {
          "internalType": "address",
          "name": "",
          "type": "address"
        },
        {
          "internalType": "uint256",
          "name": "",
          "type": "uint256"
        }
      ],
      "name": "launchesByCreator",
      "outputs": [
        {
          "internalType": "address",
          "name": "",
          "type": "address"
        }
      ],
      "stateMutability": "view",
      "type": "function"
    },
    {
      "inputs": [
        {
          "internalType": "address",
          "name": "creator_",
          "type": "address"
        }
      ],
      "name": "launchesOf",
      "outputs": [
        {
          "internalType": "address[]",
          "name": "",
          "type": "address[]"
        }
      ],
      "stateMutability": "view",
      "type": "function"
    },
    {
      "inputs": [
        {
          "internalType": "address",
          "name": "",
          "type": "address"
        }
      ],
      "name": "modeOf",
      "outputs": [
        {
          "internalType": "enum LaunchFactory.LaunchMode",
          "name": "",
          "type": "uint8"
        }
      ],
      "stateMutability": "view",
      "type": "function"
    },
    {
      "inputs": [],
      "name": "owner",
      "outputs": [
        {
          "internalType": "address",
          "name": "",
          "type": "address"
        }
      ],
      "stateMutability": "view",
      "type": "function"
    },
    {
      "inputs": [
        {
          "internalType": "address",
          "name": "",
          "type": "address"
        }
      ],
      "name": "pendingModeOf",
      "outputs": [
        {
          "internalType": "enum LaunchFactory.LaunchMode",
          "name": "",
          "type": "uint8"
        }
      ],
      "stateMutability": "view",
      "type": "function"
    },
    {
      "inputs": [],
      "name": "protocolFeeRecipient",
      "outputs": [
        {
          "internalType": "address",
          "name": "",
          "type": "address"
        }
      ],
      "stateMutability": "view",
      "type": "function"
    },
    {
      "inputs": [],
      "name": "renounceOwnership",
      "outputs": [],
      "stateMutability": "nonpayable",
      "type": "function"
    },
    {
      "inputs": [],
      "name": "router",
      "outputs": [
        {
          "internalType": "address",
          "name": "",
          "type": "address"
        }
      ],
      "stateMutability": "view",
      "type": "function"
    },
    {
      "inputs": [
        {
          "internalType": "address",
          "name": "newRecipient",
          "type": "address"
        }
      ],
      "name": "setProtocolFeeRecipient",
      "outputs": [],
      "stateMutability": "nonpayable",
      "type": "function"
    },
    {
      "inputs": [],
      "name": "standardCreateFee",
      "outputs": [
        {
          "internalType": "uint256",
          "name": "",
          "type": "uint256"
        }
      ],
      "stateMutability": "view",
      "type": "function"
    },
    {
      "inputs": [],
      "name": "standardDeployer",
      "outputs": [
        {
          "internalType": "address",
          "name": "",
          "type": "address"
        }
      ],
      "stateMutability": "view",
      "type": "function"
    },
    {
      "inputs": [],
      "name": "taxedDeployer",
      "outputs": [
        {
          "internalType": "address",
          "name": "",
          "type": "address"
        }
      ],
      "stateMutability": "view",
      "type": "function"
    },
    {
      "inputs": [],
      "name": "totalLaunches",
      "outputs": [
        {
          "internalType": "uint256",
          "name": "",
          "type": "uint256"
        }
      ],
      "stateMutability": "view",
      "type": "function"
    },
    {
      "inputs": [
        {
          "internalType": "address",
          "name": "newOwner",
          "type": "address"
        }
      ],
      "name": "transferOwnership",
      "outputs": [],
      "stateMutability": "nonpayable",
      "type": "function"
    },
    {
      "inputs": [],
      "name": "whitelistCreateFee",
      "outputs": [
        {
          "internalType": "uint256",
          "name": "",
          "type": "uint256"
        }
      ],
      "stateMutability": "view",
      "type": "function"
    },
    {
      "inputs": [],
      "name": "whitelistDeployer",
      "outputs": [
        {
          "internalType": "address",
          "name": "",
          "type": "address"
        }
      ],
      "stateMutability": "view",
      "type": "function"
    },
    {
      "inputs": [],
      "name": "whitelistTaxedDeployer",
      "outputs": [
        {
          "internalType": "address",
          "name": "",
          "type": "address"
        }
      ],
      "stateMutability": "view",
      "type": "function"
    }
  ],
  "bytecode": "0x610180346200031757620041f4601f38829003908101601f19168301906001600160401b038211848310176200031c5780849360409384528439610140938491810103126200031757620000538262000332565b92620000626020840162000332565b916200007081850162000332565b6200007e6060860162000332565b906200008d6080870162000332565b946200009c60a0880162000332565b97620000ab60c0890162000332565b9260e0890151936101009a8b8b015199610120809c01519760018060a01b03809616968715620002ff5760005460018060a01b031998808a831617600055888d5192167f8be0079c531659141344cd1fd0a4f28419497f9722a3daafe3b4186f6b6457e0600080a3878216158015620002f4575b8015620002e9575b8015620002de575b8015620002d3575b620002c457508915620002b35760805260a05260c05260e0528a52808216620002ad575073c4187be6b362df625696d4a9ec5e6fa461cc03145b16906001541617600155835261016093845284525192613eac9485620003488639608051858181610240015281816120770152818161236a0152818161256c0152818161298201528181612c6a01528181612f050152613b6c015260a051858181610b99015281816120f00152612f87015260c05185818161137901528181612409015261260d015260e0518581816112f901528181612a220152612d1701525184818161087901526134bb0152518381816113400152818161209e0152818161239101528181612593015281816129aa01528181612c9101528181612f2d0152613af10152518281816117fa01528181611e3101528181611fef015281816128e601528181612bcd0152612e7601525181818161084001528181611e00015281816122db015281816124da015281816127800152612b1f0152f35b62000171565b8a51630d956e1760e21b8152600490fd5b63d92e233d60e01b8152600490fd5b508786161562000137565b50878516156200012f565b508784161562000127565b50878316156200011f565b8a51631e4fbdf760e01b815260006004820152602490fd5b600080fd5b634e487b7160e01b600052604160045260246000fd5b51906001600160a01b0382168203620003175756fe60c0604052600436101561001257600080fd5b60003560e01c80630a0027131461171d5780630e883f8b146116ff578063100ed954146114a357806311344cac1461140d57806313668995146113cb578063151629c614610a5c5780632dc80bd6146113a857806337eb7e011461136357806339931527146113285780633edf108e146112e357806341d6e9d31461129a57806341fb44ac146110d55780634ad82e661461107c5780634f25d38e1461102f57806361f9aad114610f2457806364df049e14610efb5780636b1b953614610e8a578063715018a614610e435780637b90002314610d905780637dd8a35e14610cfc5780638da5cb5b14610cd357806391e234d914610bc85780639b57f42814610b83578063a84b46fc14610b36578063b119b57b14610af4578063b2d042e314610a61578063b2db919b14610a5c578063bd2f1c7a14610991578063c767a59514610973578063cca8fab514610950578063d1bde3c8146108a8578063dae335a814610863578063df407c4c14610828578063e00705fe1461074e578063e1ca4294146106c9578063e521cb921461062f578063e5d7abad14610600578063ec48449014610489578063ef08626e14610306578063ef1b7203146102e3578063f2fde38b1461026f578063f887ea401461022a5763faf7e3bd146101f557600080fd5b3461022557602036600319011261022557600435600d8110156102255761021d602091611dcb565b604051908152f35b600080fd5b34610225576000366003190112610225576040517f00000000000000000000000000000000000000000000000000000000000000006001600160a01b03168152602090f35b3461022557602036600319011261022557610288611776565b6102906127dd565b6001600160a01b039081169081156102ca576000548260018060a01b031982161760005516600080516020613e57833981519152600080a3005b604051631e4fbdf760e01b815260006004820152602490fd5b3461022557602036600319011261022557602061021d610301611776565b611e70565b61030f36611a64565b959298949798969193909633600052600460205260406000205460208201359061033887611c8b565b90604051809160208201936040870135868835463395610358968a611d87565b03601f198101825261036a9082611baa565b5190209961037b6060840184611c56565b94909561038789611c8b565b9761039460208b01611c8b565b9a6103a160408c01611c8b565b9a6060016103ae90611b19565b9f6040516080526080516103c190611b2d565b36906103cc92611cb5565b6080515236906103db92611cb5565b6080516020015236906103ed92611cb5565b60805160400152813560805160600152608051608001526040013560805160a00152369061041a92611cec565b60805160c0015261ffff928380921660805160e00152166080516101000152166080516101200152600160a01b600190038094166080516101400152369061046192611cb5565b6080516101600152608051610180015260805161047d90612adb565b60405191168152602090f35b61049236611a64565b95929894979896919390963360005260046020526040600020546020820135906104bb87611c8b565b906040518091602082019360408701358688354633956104db968a611d87565b03601f19810182526104ed9082611baa565b519020996104fe6060840184611c56565b94909561050a89611c8b565b9761051760208b01611c8b565b9a61052460408c01611c8b565b9a60600161053190611b19565b9f60405160a05260a05161054490611b2d565b369061054f92611cb5565b60a05152369061055e92611cb5565b60a05160200152369061057092611cb5565b60a05160400152813560a0516060015260a051608001526040013560a05160a00152369061059d92611cec565b60a05160c0015261ffff928380921660a05160e001521660a05161010001521660a0516101200152600160a01b6001900380941660a051610140015236906105e492611cb5565b60a051610160015260a051610180015260a05161047d90612747565b3461022557600036600319011261022557602060405173c4187be6b362df625696d4a9ec5e6fa461cc03148152f35b3461022557602036600319011261022557610648611776565b6106506127dd565b6001600160a01b039081169081156106b7576002546106a557816001549182167fd3890fc76afcfc31cba1dcf2c27b50e2541e4d75039c981855b5b5e03682aea0600080a36001600160a01b03191617600155005b604051631f462ad960e11b8152600490fd5b60405163d92e233d60e01b8152600490fd5b60a0366003190112610225576001600160401b03600435818111610225576106f590369060040161178c565b906024358381116102255761070e90369060040161178c565b906044359485116102255761072a61073a95369060040161178c565b9290916084359560643595612e68565b9061074a60405192839283611a49565b0390f35b60e0366003190112610225576001600160401b036004358181116102255761077a90369060040161178c565b91906024358281116102255761079490369060040161178c565b9390604435938411610225576020946107b461081695369060040161178c565b6107bc611a16565b916107c5611a27565b936107ce611a38565b956107d76117b9565b973360005260048c5260406000205460405161080d818f8a6107ff9183019546903388611d52565b03601f198101835282611baa565b519020996128be565b6040516001600160a01b039091168152f35b346102255760003660031901126102255760206040517f00000000000000000000000000000000000000000000000000000000000000008152f35b34610225576000366003190112610225576040517f00000000000000000000000000000000000000000000000000000000000000006001600160a01b03168152602090f35b6080366003190112610225576001600160401b03600435818111610225576108d490369060040161178c565b90602435838111610225576108ed90369060040161178c565b906044359485116102255761090961073a95369060040161178c565b929091336000526004602052604060002054956040519661094388610935602082019346903386611bee565b03601f1981018a5289611baa565b6064359751902095612e68565b602061081661095e3661181d565b9a9990999891989792979693969594956124c2565b34610225576000366003190112610225576020600254604051908152f35b610100366003190112610225576001600160401b03600435818111610225576109be90369060040161178c565b90602435838111610225576109d790369060040161178c565b604435948511610225576109f261073a95369060040161178c565b6109fa611a16565b90610a03611a27565b92610a0c611a38565b94610a156117b9565b96336000526004602052604060002054996040519a610a4f8c610a4089602083019446903387611d52565b038d601f19820190528d611baa565b60e4359b51902099612ba5565b6117e2565b610120366003190112610225576001600160401b0360043581811161022557610a8e90369060040161178c565b9060243583811161022557610aa790369060040161178c565b60443594851161022557610ac261073a95369060040161178c565b610aca611a16565b90610ad3611a27565b92610adc611a38565b94610ae56117b9565b96610104359960e43599612ba5565b34610225576020366003190112610225576001600160a01b03610b15611776565b16600052600660205261074a60ff60406000205416604051918291826117cf565b6020610816610b44366118dc565b989790979691969592959493943360005260048d52604060002054604051610b7a8f6107ff8c8c8c86948501974690338a611c1f565b5190209a6122c8565b34610225576000366003190112610225576040517f00000000000000000000000000000000000000000000000000000000000000006001600160a01b03168152602090f35b610bd136611968565b9792936060819b9a9b9896939897929701610bec9082611c56565b929093610bf887611c8b565b95610c0560208901611c8b565b98610c1260408a01611c8b565b98606001610c1f90611b19565b9e6040519e8f91610c2f83611b2d565b3690610c3a92611cb5565b90523690610c4792611cb5565b60208d01523690610c5792611cb5565b60408b0152803560608b0152602081013560808b01526040013560a08a01523690610c8192611cec565b60c088015261ffff90811660e0880152918216610100870152166101208501526001600160a01b03948516610140850152610cbe91369190611cb5565b61016083015261018082015261047d90612adb565b34610225576000366003190112610225576000546040516001600160a01b039091168152602090f35b610100366003190112610225576001600160401b0360043581811161022557610d2990369060040161178c565b919060243582811161022557610d4390369060040161178c565b939060443593841161022557602094610d6361081695369060040161178c565b610d6b611a16565b91610d74611a27565b93610d7d611a38565b95610d866117b9565b9760e435996128be565b3461022557602080600319360112610225576001600160a01b039081610db4611776565b1660005260048152604060002060405191828183549182815201908193600052826000209060005b818110610e2d5750505083610df2910384611baa565b60405192818401908285525180915260408401929160005b828110610e175785850386f35b8351871685529381019392810192600101610e0a565b8254881684529284019260019283019201610ddc565b3461022557600036600319011261022557610e5c6127dd565b600080546001600160a01b0319811682556001600160a01b0316600080516020613e578339815191528280a3005b6080366003190112610225576001600160401b0360043581811161022557610eb690369060040161178c565b919060243582811161022557610ed090369060040161178c565b9360443593841161022557602094610eef61081695369060040161178c565b93909260643595611fdc565b34610225576000366003190112610225576001546040516001600160a01b039091168152602090f35b610f2d36611968565b9792936060819b9a9b9896939897929701610f489082611c56565b929093610f5487611c8b565b95610f6160208901611c8b565b98610f6e60408a01611c8b565b98606001610f7b90611b19565b9e6040519e8f91610f8b83611b2d565b3690610f9692611cb5565b90523690610fa392611cb5565b60208d01523690610fb392611cb5565b60408b0152803560608b0152602081013560808b01526040013560a08a01523690610fdd92611cec565b60c088015261ffff90811660e0880152918216610100870152166101208501526001600160a01b0394851661014085015261101a91369190611cb5565b61016083015261018082015261047d90612747565b602061081661103d366118dc565b989790979691969592959493943360005260048d526040600020546040516110738f6107ff8c8c8c86948501974690338a611c1f565b5190209a6124c2565b3461022557604036600319011261022557611095611776565b6024359060018060a01b03809116600052600460205260406000208054831015610225576020926110c5916118ae565b9190546040519260031b1c168152f35b3461022557602080600319360112610225576004356001600160401b03811161022557611106903690600401611746565b60009283928392905b818610611126575050604080945051928352820152f35b9293919290916001600160a01b03611147611142888686611b09565b611b19565b16806000526005855260ff60406000205416600d811015611284571561127257604051639111f13d60e01b81528581600481855afa9081156112265760009161123d575b50156112325790846000926004604051809581936329c3300360e11b83525af1908115611226576000916111f5575b6111c49250611be1565b93600181018091116111df57600190955b019492919061110f565b634e487b7160e01b600052601160045260246000fd5b90508482813d831161121f575b61120c8183611baa565b81010312610225576111c49151906111ba565b503d611202565b6040513d6000823e3d90fd5b5093946001906111d5565b90508581813d831161126b575b6112548183611baa565b810103126102255761126590611c12565b8861118b565b503d61124a565b604051631ed00d7f60e31b8152600490fd5b634e487b7160e01b600052602160045260246000fd5b3461022557602036600319011261022557600435600354811015610225576003600052600080516020613e1783398151915201546040516001600160a01b039091168152602090f35b34610225576000366003190112610225576040517f00000000000000000000000000000000000000000000000000000000000000006001600160a01b03168152602090f35b346102255760003660031901126102255760206040517f00000000000000000000000000000000000000000000000000000000000000008152f35b34610225576000366003190112610225576040517f00000000000000000000000000000000000000000000000000000000000000006001600160a01b03168152602090f35b60206108166113b63661181d565b9a9990999891989792979693969594956122c8565b34610225576020366003190112610225576001600160a01b036113ec611776565b16600052600560205261074a60ff60406000205416604051918291826117cf565b6060366003190112610225576001600160401b036004358181116102255761143990369060040161178c565b91906024358281116102255761145390369060040161178c565b936044359384116102255760209461147261081695369060040161178c565b939092336000526004885260406000205460405161149a816107ff8c82019446903387611bee565b51902095611fdc565b34610225576040366003190112610225576004356001600160401b038111610225576114d3903690600401611746565b906001600160a01b036024803582811693919084900361022557600093600093600196816001541633036116ee5782156106b757939291906000945b808610611526576040888882519182526020820152f35b909192939495968261153c61114289858a611b09565b1690816000526020916005835260ff60406000205416600d8110156116d957156112725760405163326f824f60e11b81528381600481855afa908115611226576000916116a4575b5085808d541691160361169257604051636711456960e11b81528381600481855afa8015611226578c91600091611661575b501561165757509082600093928860405180968193624372e560e51b83528b60048401525af191821561122657600092611625575b506115f69250611be1565b96888101809111611610578890965b01949392919061150f565b84634e487b7160e01b60005260116004526000fd5b90915082813d8311611650575b61163c8183611baa565b81010312610225576115f69151908b6115eb565b503d611632565b9250509796611605565b809250858092503d831161168b575b61167a8183611baa565b81010312610225578b90518d6115b6565b503d611670565b60405163b015ea8b60e01b8152600490fd5b90508381813d83116116d2575b6116bb8183611baa565b81010312610225576116cc90611bcd565b8c611584565b503d6116b1565b87634e487b7160e01b60005260216004526000fd5b6040516282b42960e81b8152600490fd5b34610225576000366003190112610225576020600354604051908152f35b346102255760003660031901126102255760015460209061021d906001600160a01b0316611e70565b9181601f84011215610225578235916001600160401b038311610225576020808501948460051b01011161022557565b600435906001600160a01b038216820361022557565b9181601f84011215610225578235916001600160401b038311610225576020838186019501011161022557565b60c435906001600160a01b038216820361022557565b91906020830192600d8210156112845752565b346102255760003660031901126102255760206040517f00000000000000000000000000000000000000000000000000000000000000008152f35b610100600319820112610225576001600160401b0390600435828111610225578161184a9160040161178c565b9390939260243581811161022557836118659160040161178c565b9390939260443583811161022557826118809160040161178c565b93909392606435926084359260a4359260c435918211610225576118a691600401611746565b909160e43590565b80548210156118c65760005260206000200190600090565b634e487b7160e01b600052603260045260246000fd5b60e0600319820112610225576001600160401b039060043582811161022557816119089160040161178c565b9390939260243581811161022557836119239160040161178c565b93909392604435838111610225578261193e9160040161178c565b93909392606435926084359260a4359260c4359182116102255761196491600401611746565b9091565b6003199161014082840112610225576001600160401b039060048035838111610225578461199791830161178c565b9590959460243585811161022557816119b191850161178c565b9590959460443582811161022557836119cb91870161178c565b9590959460643590848211610225576080908287030112610225578101936080608319820112610225576084936101043590811161022557611a0d920161178c565b90916101243590565b6064359061ffff8216820361022557565b6084359061ffff8216820361022557565b60a4359061ffff8216820361022557565b6001600160a01b039091168152602081019190915260400190565b6003199161012082840112610225576001600160401b0390600480358381116102255784611a9391830161178c565b959095946024358581116102255781611aad91850161178c565b959095946044358281116102255783611ac791870161178c565b9590959460643590848211610225576080908287030112610225578101936080608319820112610225576084936101043590811161022557611964920161178c565b91908110156118c65760051b0190565b356001600160a01b03811681036102255790565b6101a081019081106001600160401b03821117611b4957604052565b634e487b7160e01b600052604160045260246000fd5b61014081019081106001600160401b03821117611b4957604052565b6101c081019081106001600160401b03821117611b4957604052565b6001600160401b038111611b4957604052565b601f909101601f19168101906001600160401b03821190821017611b4957604052565b51906001600160a01b038216820361022557565b919082018092116111df57565b60609194936001936080830196858060a01b03168352602083015260408201520152565b5190811515820361022557565b9260c094919796959260e085019860018060a01b031685526020850152604084015260026060840152608083015260a08201520152565b903590601e198136030182121561022557018035906001600160401b03821161022557602001918160051b3603831361022557565b3561ffff811681036102255790565b6001600160401b038111611b4957601f01601f191660200190565b929192611cc182611c9a565b91611ccf6040519384611baa565b829481845281830111610225578281602093846000960137010152565b9092916001600160401b038411611b49578360051b6020926020604051611d1582850182611baa565b809781520191810192831161022557905b828210611d335750505050565b81356001600160a01b0381168103610225578152908301908301611d26565b6001600160a01b039091168152602081019190915260408101919091526003606082015261ffff909116608082015260a00190565b95919360e0959198979361ffff9561010089019a60018060a01b031689526020890152604088015260046060880152608087015260a086015260c085015216910152565b600d8110158061128457600182148015611e53575b611e2d576112845760028114908115611e22575b50611dfe57600090565b7f000000000000000000000000000000000000000000000000000000000000000090565b600c91501438611df4565b50507f000000000000000000000000000000000000000000000000000000000000000090565b5050600060038210158015611de05750506000600b821115611de0565b6001549091906001600160a01b0390811633036116ee57821680156106b757600254928315611ed45783611ea89160006002556130b8565b7fe520b2225629f84907c5bd92fb58063336ec178dcdc13d436213de8a6b2b22156020604051858152a2565b6040516312d37ee560e31b8152600490fd5b60005b838110611ef95750506000910152565b8181015183820152602001611ee9565b90602091611f2281518092818552858086019101611ee6565b601f01601f1916010190565b602081528151611f80611f4f61014092836020860152610160850190611f09565b611f6b602086015191601f199283878303016040880152611f09565b90604086015190858303016060860152611f09565b92606081015160018060a01b0380911660808501528060808301511660a08501528060a08301511660c085015260c08201511660e084015260e081015161010090818501528101519060ff610120921682850152015191015290565b60206120ec6000969795949399986120137f000000000000000000000000000000000000000000000000000000000000000061313b565b806121a3575b506001546040516001600160a01b0392909183166120428e61203a85611b5f565b369089611cb5565b835261204f368a8a611cb5565b8387015261205e368b8e611cb5565b604084015233606084015230608084015260a0830152827f00000000000000000000000000000000000000000000000000000000000000001660c08301527f000000000000000000000000000000000000000000000000000000000000000060e0830152600161010083015261012082015260405198898094819363669e6d9d60e11b835260048301611f2e565b03927f0000000000000000000000000000000000000000000000000000000000000000165af194851561122657600095612154575b509461214261214a9261213a61215298889b3691611cb5565b943691611cb5565b933691611cb5565b923390613207565b565b959094506020863d60201161219b575b8161217160209383611baa565b810103126102255761214261214a9261213a61218f61215299611bcd565b97939850509250612121565b3d9150612164565b6121ad90336130b8565b38612019565b6020918282528051906121d36101c09283868601526101e0850190611f09565b6122056121f18684015192601f199384888303016040890152611f09565b604084015183878303016060880152611f09565b60608301519060018060a01b0380921660808701528160808501511660a08701528160a08501511660c08701528160c08501511660e087015260e08401516101009081880152840151610120908188015284015161014090818801528401516101609081880152840151966101809387830301848801528080895193848152019801926000905b8382106122af5750505050508101519060ff6101a0921682850152015191015290565b845181168a52988201989382019360019091019061228c565b9497819c9b9397859b92959a93976122ff7f000000000000000000000000000000000000000000000000000000000000000061313b565b806124b2575b506001546040519c6001600160a01b0398918916918e919061232683611b7b565b36612331918d611cb5565b825261233e368e8e611cb5565b60208301528d369061234f92611cb5565b90604001528c3390606001528c30906080015260a08d0152867f00000000000000000000000000000000000000000000000000000000000000001660c08d01527f000000000000000000000000000000000000000000000000000000000000000060e08d01526101008c01526101208b01526101408a015236906123d292611cec565b61016088015260026101808801526101a0870152604051631aeb298160e21b8152958690819061240590600483016121b3565b03917f00000000000000000000000000000000000000000000000000000000000000001691815a602094600091f194851561122657600095612463575b509461214261245b9261213a61215298889b3691611cb5565b92339061329e565b959094506020863d6020116124aa575b8161248060209383611baa565b810103126102255761214261245b9261213a61249e61215299611bcd565b97939850509250612442565b3d9150612473565b6124bc90336130b8565b38612305565b989b9a909b96959694939294428911612735576124fe7f000000000000000000000000000000000000000000000000000000000000000061313b565b9a878c03612723578a998e98600160a01b600190039a8b6001541660409e8f9081519d61252a8f611b7b565b369061253592611cb5565b8d528c612543368e8c611cb5565b906020015236612554908c8c611cb5565b908d01523360608d01523060808d015260a08c01528b7f00000000000000000000000000000000000000000000000000000000000000001660c08c01527f000000000000000000000000000000000000000000000000000000000000000060e08c01526101008b01526101208a015261014089015236906125d492611cec565b61016087015260026101808701526101a08601528751631aeb298160e21b815294859061260490600483016121b3565b039660009786887f00000000000000000000000000000000000000000000000000000000000000001691818b5a94602095f19586156127195788966126c2575b509161266761266f9261265f612677979695899f3691611cb5565b953691611cb5565b923691611cb5565b91338561329e565b16803b156126be578190602484518096819363d9d5a9f360e01b83523360048401525af19182156126b45750506126ab5750565b61215290611b97565b51903d90823e3d90fd5b5080fd5b9095506020813d602011612711575b816126de60209383611baa565b8101031261270d579161266761266f9261265f6126ff612677989796611bcd565b989395969750509250612644565b8780fd5b3d91506126d1565b89513d8a823e3d90fd5b604051636b3f890b60e11b8152600490fd5b604051630392b25960e31b8152600490fd5b9061277b61ffff8060e08501511690806101008601511690610120860151169060018060a01b0361014087015116926133a8565b6127a47f000000000000000000000000000000000000000000000000000000000000000061313b565b806127cd575b506121526127b7836134a1565b92805190604060208201519101519133866132e7565b6127d790336130b8565b386127aa565b6000546001600160a01b031633036127f157565b60405163118cdaa760e01b8152336004820152602490fd5b60208152815161282a611f4f6101c0928360208601526101e0850190611f09565b9260608101519060018060a01b0380921660808501528160808201511660a08501528160a08201511660c08501528160c08201511660e085015260e0810151610100908186015281015160ff61012091168186015281015161014061ffff809216818701528201518161016091168187015282015190610180911681860152810151916101a0921682850152015191015290565b929495969a99909a98979193986128d488613d7d565b986128e18185848c6133a8565b61290a7f000000000000000000000000000000000000000000000000000000000000000061313b565b80612acb575b506001546001600160a01b039490851690600d8c1015611284578c9a8f929487956040519d8e9561294087611b7b565b3661294b918d611cb5565b8652612958368e8e611cb5565b60208701528d369061296992611cb5565b604086015233606086015230608086015260a0850152857f00000000000000000000000000000000000000000000000000000000000000001660c08501528d7f000000000000000000000000000000000000000000000000000000000000000060e086015260ff1661010085015261ffff9384809316906101200152166101408c0152166101608a0152166101808801526101a087015260405180809763a2b998b760e01b82526004820190612a1e91612809565b03917f00000000000000000000000000000000000000000000000000000000000000001691815a602094600091f194851561122657600095612a7c575b5095612142612a749261213a61215299889c3691611cb5565b92339061330e565b969094506020873d602011612ac3575b81612a9960209383611baa565b8101031261022557612142612a749261213a612ab76121529a611bcd565b97939950509250612a5b565b3d9150612a8c565b612ad590336130b8565b38612910565b9061ffff612b0f8160e0850151168261010086015116926101208601511660018060a01b03938461014088015116926133a8565b60a0830151421061273557612b437f000000000000000000000000000000000000000000000000000000000000000061313b565b906080840151820361272357612b71612b5b856134a1565b94805190604060208201519101519133886132e7565b8316803b156102255760009060246040518094819363d9d5a9f360e01b83523360048401525af18015611226576126ab5750565b9986999c9b9798919c9695949396612bc881848c612bc28b613d7d565b9a6133a8565b612bf17f000000000000000000000000000000000000000000000000000000000000000061313b565b998a15612e56576001546001600160a01b031693600d891015611284578f949c612d089d8f612c2e9060405198612c278a611b7b565b3691611cb5565b8752612c3b368d8a611cb5565b6020880152612c4b368b8b611cb5565b604088015233606088015230608088015260a087015260018060a01b037f00000000000000000000000000000000000000000000000000000000000000001660c08701527f000000000000000000000000000000000000000000000000000000000000000060e087015260ff8a1661010087015261ffff9283809216610120880152166101408601521661016084015260018060a01b03166101808301526101a082015260405198899163a2b998b760e01b835260048301612809565b60009a916020918b919003818d7f00000000000000000000000000000000000000000000000000000000000000006001600160a01b03165af1988915612e4b578a99612e0b575b50889b3690612d5d92611cb5565b943690612d6992611cb5565b913690612d7592611cb5565b903393612d82948861330e565b604051633391832760e11b815292839182908190612da4903360048401611a49565b6001600160a01b03909316949203915a94602095f1918215612dff578092612dcb57505090565b9091506020823d602011612df7575b81612de760209383611baa565b81010312612df457505190565b80fd5b3d9150612dda565b604051903d90823e3d90fd5b9098506020813d602011612e43575b81612e2760209383611baa565b81010312612e3f57612e3890611bcd565b9738612d4f565b8980fd5b3d9150612e1a565b6040513d8c823e3d90fd5b6040516332a3e9bb60e01b8152600490fd5b979591929096939497612e9a7f000000000000000000000000000000000000000000000000000000000000000061313b565b948515612e5657600160a01b600190039283600154169a604098895197612ec089611b5f565b612ecb368e88611cb5565b8952612ed8368583611cb5565b9760209e8f998a8c015236612eee908686611cb5565b8b8e01523360608c01523060808c015260a08b01527f0000000000000000000000000000000000000000000000000000000000000000881660c08b01527f000000000000000000000000000000000000000000000000000000000000000060e08b015260016101008b01526101208a01528a5163669e6d9d60e11b81529d8e998a90612f7d9060048301611f2e565b039960009a818c8b7f0000000000000000000000000000000000000000000000000000000000000000165af19586156130ae578996613068575b88999a9b9c9d9e50869e3690612fcc92611cb5565b933690612fd892611cb5565b913690612fe492611cb5565b903392612ff19386613207565b8751633391832760e11b815296879384928390613012903360048401611a49565b0393165af193841561305d5750819361302c575b50505090565b9091809350813d8311613056575b6130448183611baa565b81010312612df4575051388080613026565b503d61303a565b51913d9150823e3d90fd5b9550878e813d83116130a7575b61307f8183611baa565b810103126130a35761309688999a9b9c9d9e611bcd565b958e9d9c9b9a9950612fb7565b8880fd5b503d613075565b8b513d8b823e3d90fd5b81471061311c57604051602081016001600160401b03811182821017611b4957604052600080809481948280955260018060a01b03165af1156130f85750565b3d1561310a57604051903d90823e3d90fd5b60405163d6bda27560e01b8152600490fd5b60405163cf47918160e01b815247600482015260248101839052604490fd5b8034106131685780613154575b34033481116111df5790565b61316081600254611be1565b600255613148565b604051638d466a2f60e01b8152600490fd5b600354600160401b811015611b495760018101806003558110156118c6576003600052600080516020613e178339815191520180546001600160a01b0319166001600160a01b03909216919091179055565b8054600160401b811015611b49576131e9916001820181556118ae565b60018060a09493941b038084549260031b9316831b921b1916179055565b9161327d9061329960019661328b600080516020613e378339815191529561322e8861317a565b898060a01b038091169788600052600460205261324f8160406000206131cc565b169788600052600560205260406000208a60ff19825416179055604051958695606087526060870190611f09565b908582036020870152611f09565b908382036040850152611f09565b0390a4565b9161327d9061329960029661328b600080516020613e37833981519152956132c58861317a565b60018060a01b038091169788600052600460205261324f8160406000206131cc565b9161327d90613299600c9661328b600080516020613e37833981519152956132c58861317a565b93909261331a8561317a565b60018060a01b0380941693600095858752600460205261333d81604089206131cc565b169485815260056020526040812090600d881015613394575061327d9261328b600080516020613e3783398151915295936132999360ff80198254169b16809b179055604051958695606087526060870190611f09565b634e487b7160e01b81526021600452602490fd5b6133b490929192613d7d565b5061ffff9081169181168201908082116111df576127109116036133ed571590811580613412575b6133ed57816133ff575b506133ed57565b60405163694f6dbf60e11b8152600490fd5b6001600160a01b031615159050386133e6565b506001600160a01b038116156133dc565b519060ff8216820361022557565b602081830312610225578051906001600160401b038211610225570181601f8201121561022557805161346381611c9a565b926134716040519485611baa565b818452602082840101116102255761348f9160208085019101611ee6565b90565b519061ffff8216820361022557565b90610160820191825151156133ed5760018060a01b0392837f000000000000000000000000000000000000000000000000000000000000000016916101808101805195835192835160208095012092604096875163a2e8bb1b60e01b815260049a8b820152602495868201528681604481855afa9081156139aa5791858a928994600091613d42575b501660005260068352816000209360ff1994600c868254161790555198519860008d61357385519c8d96879586946366e5bb0560e11b86528501528c8401526044830190611f09565b03925af1958615613d3757600096613d00575b5082861695866000526005916005875260ff896000205416600d811015613cec5715801590613cc9575b6138855787600052600687528860002090815416905587516302d05d3f60e01b815286818c818b5afa9081156139aa57600091613c94575b5084163314801590613c31575b8015613bc9575b8015613b44575b8015613acb575b8015613a61575b8015613a0c575b80156139b5575b801561394c575b61393c57875163db9b541360e01b815261012099908a818d818c5afa90811561393157600080809281946138e2575b5060a0880151806138dc575042925b606089015114938415946138cd575b5083156138c2575b508215613895575b50506138855760005b60c085015180518210156137285781851b018801518a51633af32abf60e01b81529087168d820152888189818d5afa90811561371d576000916136e8575b50156136d85760010161368c565b895163694f6dbf60e11b81528c90fd5b908982813d8311613716575b6136fe8183611baa565b81010312612df4575061371090611c12565b386136ca565b503d6136f4565b8b513d6000823e3d90fd5b505098945098969587915060c09087519283809263c57da02960e01b82525afa93841561387a57600095868091819482986137f5575b5050159687156137de575b5086156137c6575b5085156137b0575b5050831561379a575b50505061378d575050565b5163694f6dbf60e11b8152fd5b8192935061014001511691161415388080613782565b82015161ffff9182169116141593503880613779565b61010084015161ffff91821691161415955038613771565b60e085015161ffff91821691161415965038613769565b945097509195505060c0823d60c011613872575b8161381660c09383611baa565b81010312612df4575061383361382b82611c12565b958201613492565b9361383f878301613492565b9561384c60608401613492565b9061386560a061385e60808701611bcd565b9501611c12565b509596909295388061375e565b3d9150613809565b86513d6000823e3d90fd5b885163694f6dbf60e11b81528b90fd5b9091506201518082018092116138ae5714153880613683565b8760118e634e487b7160e01b600052526000fd5b82141592503861367b565b60808901511415935038613673565b92613664565b93509150508b82813d831161392a575b6138fc8183611baa565b81010312612df4575061390e81613423565b50808801518a8201516060830151608090930151929138613655565b503d6138f2565b8a513d6000823e3d90fd5b875163694f6dbf60e11b81528a90fd5b50875162fb90e360e21b81526000818c818b5afa9081156139aa57600091613987575b50868151910120888401518781519101201415613626565b6139a491503d806000833e61399c8183611baa565b810190613431565b3861396f565b89513d6000823e3d90fd5b5087516395d89b4160e01b81526000818c818b5afa9081156139aa576000916139f1575b5086815191012086840151878151910120141561361f565b613a0691503d806000833e61399c8183611baa565b386139d9565b5087516306fdde0360e01b81526000818c818b5afa9081156139aa57600091613a46575b5086815191012083518781519101201415613618565b613a5b91503d806000833e61399c8183611baa565b38613a30565b508751630b37dd6960e41b815286818c818b5afa9081156139aa57600091613a91575b5060ff16600c1415613611565b90508681813d8311613ac4575b613aa88183611baa565b810103126102255760ff613abd600c92613423565b9150613a84565b503d613a9e565b508751633993152760e01b815286818c818b5afa9081156139aa57600091613b17575b507f0000000000000000000000000000000000000000000000000000000000000000141561360a565b90508681813d8311613b3d575b613b2e8183611baa565b81010312610225575138613aee565b503d613b24565b5087516303e21fa960e61b815286818c818b5afa9081156139aa57600091613b94575b5084167f000000000000000000000000000000000000000000000000000000000000000085161415613603565b90508681813d8311613bc2575b613bab8183611baa565b8101031261022557613bbc90611bcd565b38613b67565b503d613ba1565b50875163326f824f60e11b815286818c818b5afa9081156139aa57600091613bfc575b50848060015416911614156135fc565b90508681813d8311613c2a575b613c138183611baa565b8101031261022557613c2490611bcd565b38613bec565b503d613c09565b50875163c45a015560e01b815286818c818b5afa9081156139aa57600091613c5f575b5084163014156135f5565b90508681813d8311613c8d575b613c768183611baa565b8101031261022557613c8790611bcd565b38613c54565b503d613c6c565b90508681813d8311613cc2575b613cab8183611baa565b8101031261022557613cbc90611bcd565b386135e8565b503d613ca1565b50876000526006875260ff896000205416600d811015613cec57600c14156135b0565b8660218d634e487b7160e01b600052526000fd5b9095508481813d8311613d30575b613d188183611baa565b8101031261022557613d2990611bcd565b9438613586565b503d613d0e565b87513d6000823e3d90fd5b935050509181813d8311613d76575b613d5b8183611baa565b8101031261022557869185613d708b93611bcd565b3861352a565b503d613d51565b61ffff1660648114613e105760c88114613e0a5761012c8114613e04576101908114613dfe576101f48114613df8576102588114613df2576102bc8114613dec576103208114613de65761038414613de1576040516328900fbf60e21b8152600490fd5b600b90565b50600a90565b50600990565b50600890565b50600790565b50600690565b50600590565b50600490565b5060039056fec2575a0e9e593c00f959f8c92f12db2869c3395a3b0502d05e2516446f71f85bb2a470af4bdbb3fda0e3ebc0d14bad66c79bef675ede7a82d1726ea951375eb78be0079c531659141344cd1fd0a4f28419497f9722a3daafe3b4186f6b6457e0a2646970667358221220b199aa5dbc3224fe22f1de8043a2255df4f5b759b66f1e17d19b4490b061a4d464736f6c63430008180033",
  "linkReferences": {},
  "deployedLinkReferences": {}
}