{
  "_format": "hh-sol-artifact-1",
  "contractName": "LaunchFactory",
  "sourceName": "contracts/LaunchFactory.sol",
  "abi": [
    {
      "inputs": [
        {
          "internalType": "address",
          "name": "owner_",
          "type": "address"
        },
        {
          "internalType": "address",
          "name": "router_",
          "type": "address"
        },
        {
          "internalType": "address",
          "name": "protocolFeeRecipient_",
          "type": "address"
        },
        {
          "internalType": "address",
          "name": "standardDeployer_",
          "type": "address"
        },
        {
          "internalType": "address",
          "name": "whitelistDeployer_",
          "type": "address"
        },
        {
          "internalType": "address",
          "name": "taxedDeployer_",
          "type": "address"
        },
        {
          "internalType": "address",
          "name": "whitelistTaxedDeployer_",
          "type": "address"
        },
        {
          "internalType": "uint256",
          "name": "standardCreateFee_",
          "type": "uint256"
        },
        {
          "internalType": "uint256",
          "name": "whitelistCreateFee_",
          "type": "uint256"
        },
        {
          "internalType": "uint256",
          "name": "graduationQuoteReserve_",
          "type": "uint256"
        }
      ],
      "stateMutability": "nonpayable",
      "type": "constructor"
    },
    {
      "inputs": [],
      "name": "DelayedWhitelistAtomicCommitUnsupported",
      "type": "error"
    },
    {
      "inputs": [],
      "name": "FailedCall",
      "type": "error"
    },
    {
      "inputs": [
        {
          "internalType": "uint256",
          "name": "balance",
          "type": "uint256"
        },
        {
          "internalType": "uint256",
          "name": "needed",
          "type": "uint256"
        }
      ],
      "name": "InsufficientBalance",
      "type": "error"
    },
    {
      "inputs": [],
      "name": "InsufficientCreateFee",
      "type": "error"
    },
    {
      "inputs": [],
      "name": "InvalidGraduationConfig",
      "type": "error"
    },
    {
      "inputs": [],
      "name": "InvalidTaxConfig",
      "type": "error"
    },
    {
      "inputs": [],
      "name": "InvalidTaxMode",
      "type": "error"
    },
    {
      "inputs": [],
      "name": "InvalidWhitelistAtomicCommitAmount",
      "type": "error"
    },
    {
      "inputs": [],
      "name": "MissingAtomicBuyValue",
      "type": "error"
    },
    {
      "inputs": [],
      "name": "NothingToClaim",
      "type": "error"
    },
    {
      "inputs": [
        {
          "internalType": "address",
          "name": "owner",
          "type": "address"
        }
      ],
      "name": "OwnableInvalidOwner",
      "type": "error"
    },
    {
      "inputs": [
        {
          "internalType": "address",
          "name": "account",
          "type": "address"
        }
      ],
      "name": "OwnableUnauthorizedAccount",
      "type": "error"
    },
    {
      "inputs": [],
      "name": "PendingProtocolCreateFees",
      "type": "error"
    },
    {
      "inputs": [],
      "name": "ProtocolFeeRecipientMismatch",
      "type": "error"
    },
    {
      "inputs": [],
      "name": "Unauthorized",
      "type": "error"
    },
    {
      "inputs": [],
      "name": "UnknownLaunch",
      "type": "error"
    },
    {
      "inputs": [],
      "name": "ZeroAddress",
      "type": "error"
    },
    {
      "anonymous": false,
      "inputs": [
        {
          "indexed": true,
          "internalType": "address",
          "name": "creator",
          "type": "address"
        },
        {
          "indexed": true,
          "internalType": "address",
          "name": "token",
          "type": "address"
        },
        {
          "indexed": true,
          "internalType": "uint8",
          "name": "mode",
          "type": "uint8"
        },
        {
          "indexed": false,
          "internalType": "string",
          "name": "name",
          "type": "string"
        },
        {
          "indexed": false,
          "internalType": "string",
          "name": "symbol",
          "type": "string"
        },
        {
          "indexed": false,
          "internalType": "string",
          "name": "metadataURI",
          "type": "string"
        }
      ],
      "name": "LaunchCreated",
      "type": "event"
    },
    {
      "anonymous": false,
      "inputs": [
        {
          "indexed": true,
          "internalType": "address",
          "name": "previousOwner",
          "type": "address"
        },
        {
          "indexed": true,
          "internalType": "address",
          "name": "newOwner",
          "type": "address"
        }
      ],
      "name": "OwnershipTransferred",
      "type": "event"
    },
    {
      "anonymous": false,
      "inputs": [
        {
          "indexed": true,
          "internalType": "address",
          "name": "recipient",
          "type": "address"
        },
        {
          "indexed": false,
          "internalType": "uint256",
          "name": "amount",
          "type": "uint256"
        }
      ],
      "name": "ProtocolCreateFeesClaimed",
      "type": "event"
    },
    {
      "anonymous": false,
      "inputs": [
        {
          "indexed": true,
          "internalType": "address",
          "name": "previousRecipient",
          "type": "address"
        },
        {
          "indexed": true,
          "internalType": "address",
          "name": "newRecipient",
          "type": "address"
        }
      ],
      "name": "ProtocolFeeRecipientUpdated",
      "type": "event"
    },
    {
      "anonymous": false,
      "inputs": [
        {
          "indexed": true,
          "internalType": "address",
          "name": "caller",
          "type": "address"
        },
        {
          "indexed": false,
          "internalType": "uint256",
          "name": "amount",
          "type": "uint256"
        }
      ],
      "name": "UnexpectedNativeReconciled",
      "type": "event"
    },
    {
      "inputs": [],
      "name": "DEFAULT_PROTOCOL_FEE_RECIPIENT",
      "outputs": [
        {
          "internalType": "address",
          "name": "",
          "type": "address"
        }
      ],
      "stateMutability": "view",
      "type": "function"
    },
    {
      "inputs": [],
      "name": "accruedProtocolCreateFees",
      "outputs": [
        {
          "internalType": "uint256",
          "name": "",
          "type": "uint256"
        }
      ],
      "stateMutability": "view",
      "type": "function"
    },
    {
      "inputs": [
        {
          "internalType": "uint256",
          "name": "",
          "type": "uint256"
        }
      ],
      "name": "allLaunches",
      "outputs": [
        {
          "internalType": "address",
          "name": "",
          "type": "address"
        }
      ],
      "stateMutability": "view",
      "type": "function"
    },
    {
      "inputs": [
        {
          "internalType": "address[]",
          "name": "tokens",
          "type": "address[]"
        },
        {
          "internalType": "address payable",
          "name": "recipient",
          "type": "address"
        }
      ],
      "name": "batchClaimProtocolFees",
      "outputs": [
        {
          "internalType": "uint256",
          "name": "totalClaimed",
          "type": "uint256"
        },
        {
          "internalType": "uint256",
          "name": "claimedCount",
          "type": "uint256"
        }
      ],
      "stateMutability": "nonpayable",
      "type": "function"
    },
    {
      "inputs": [
        {
          "internalType": "address[]",
          "name": "tokens",
          "type": "address[]"
        }
      ],
      "name": "batchSweepAbandonedCreatorFees",
      "outputs": [
        {
          "internalType": "uint256",
          "name": "totalSwept",
          "type": "uint256"
        },
        {
          "internalType": "uint256",
          "name": "sweptCount",
          "type": "uint256"
        }
      ],
      "stateMutability": "nonpayable",
      "type": "function"
    },
    {
      "inputs": [],
      "name": "claimProtocolCreateFees",
      "outputs": [
        {
          "internalType": "uint256",
          "name": "amount",
          "type": "uint256"
        }
      ],
      "stateMutability": "nonpayable",
      "type": "function"
    },
    {
      "inputs": [
        {
          "internalType": "address payable",
          "name": "recipient",
          "type": "address"
        }
      ],
      "name": "claimProtocolCreateFeesTo",
      "outputs": [
        {
          "internalType": "uint256",
          "name": "amount",
          "type": "uint256"
        }
      ],
      "stateMutability": "nonpayable",
      "type": "function"
    },
    {
      "inputs": [],
      "name": "createFee",
      "outputs": [
        {
          "internalType": "uint256",
          "name": "",
          "type": "uint256"
        }
      ],
      "stateMutability": "view",
      "type": "function"
    },
    {
      "inputs": [
        {
          "internalType": "enum LaunchFactory.LaunchMode",
          "name": "mode",
          "type": "uint8"
        }
      ],
      "name": "createFeeForMode",
      "outputs": [
        {
          "internalType": "uint256",
          "name": "",
          "type": "uint256"
        }
      ],
      "stateMutability": "view",
      "type": "function"
    },
    {
      "inputs": [
        {
          "internalType": "string",
          "name": "name_",
          "type": "string"
        },
        {
          "internalType": "string",
          "name": "symbol_",
          "type": "string"
        },
        {
          "internalType": "string",
          "name": "metadataURI_",
          "type": "string"
        }
      ],
      "name": "createLaunch",
      "outputs": [
        {
          "internalType": "address",
          "name": "token",
          "type": "address"
        }
      ],
      "stateMutability": "payable",
      "type": "function"
    },
    {
      "inputs": [
        {
          "internalType": "string",
          "name": "name_",
          "type": "string"
        },
        {
          "internalType": "string",
          "name": "symbol_",
          "type": "string"
        },
        {
          "internalType": "string",
          "name": "metadataURI_",
          "type": "string"
        },
        {
          "internalType": "uint256",
          "name": "minTokenOut",
          "type": "uint256"
        }
      ],
      "name": "createLaunchAndBuy",
      "outputs": [
        {
          "internalType": "address",
          "name": "token",
          "type": "address"
        },
        {
          "internalType": "uint256",
          "name": "tokenOut",
          "type": "uint256"
        }
      ],
      "stateMutability": "payable",
      "type": "function"
    },
    {
      "inputs": [
        {
          "internalType": "string",
          "name": "name_",
          "type": "string"
        },
        {
          "internalType": "string",
          "name": "symbol_",
          "type": "string"
        },
        {
          "internalType": "string",
          "name": "metadataURI_",
          "type": "string"
        },
        {
          "internalType": "bytes32",
          "name": "salt",
          "type": "bytes32"
        },
        {
          "internalType": "uint256",
          "name": "minTokenOut",
          "type": "uint256"
        }
      ],
      "name": "createLaunchAndBuyWithSalt",
      "outputs": [
        {
          "internalType": "address",
          "name": "token",
          "type": "address"
        },
        {
          "internalType": "uint256",
          "name": "tokenOut",
          "type": "uint256"
        }
      ],
      "stateMutability": "payable",
      "type": "function"
    },
    {
      "inputs": [
        {
          "internalType": "string",
          "name": "name_",
          "type": "string"
        },
        {
          "internalType": "string",
          "name": "symbol_",
          "type": "string"
        },
        {
          "internalType": "string",
          "name": "metadataURI_",
          "type": "string"
        },
        {
          "internalType": "bytes32",
          "name": "salt",
          "type": "bytes32"
        }
      ],
      "name": "createLaunchWithSalt",
      "outputs": [
        {
          "internalType": "address",
          "name": "token",
          "type": "address"
        }
      ],
      "stateMutability": "payable",
      "type": "function"
    },
    {
      "inputs": [
        {
          "internalType": "string",
          "name": "name_",
          "type": "string"
        },
        {
          "internalType": "string",
          "name": "symbol_",
          "type": "string"
        },
        {
          "internalType": "string",
          "name": "metadataURI_",
          "type": "string"
        },
        {
          "internalType": "uint16",
          "name": "taxBps",
          "type": "uint16"
        },
        {
          "internalType": "uint16",
          "name": "burnShareBps",
          "type": "uint16"
        },
        {
          "internalType": "uint16",
          "name": "treasuryShareBps",
          "type": "uint16"
        },
        {
          "internalType": "address",
          "name": "treasuryWallet",
          "type": "address"
        }
      ],
      "name": "createTaxLaunch",
      "outputs": [
        {
          "internalType": "address",
          "name": "token",
          "type": "address"
        }
      ],
      "stateMutability": "payable",
      "type": "function"
    },
    {
      "inputs": [
        {
          "internalType": "string",
          "name": "name_",
          "type": "string"
        },
        {
          "internalType": "string",
          "name": "symbol_",
          "type": "string"
        },
        {
          "internalType": "string",
          "name": "metadataURI_",
          "type": "string"
        },
        {
          "internalType": "uint16",
          "name": "taxBps",
          "type": "uint16"
        },
        {
          "internalType": "uint16",
          "name": "burnShareBps",
          "type": "uint16"
        },
        {
          "internalType": "uint16",
          "name": "treasuryShareBps",
          "type": "uint16"
        },
        {
          "internalType": "address",
          "name": "treasuryWallet",
          "type": "address"
        },
        {
          "internalType": "uint256",
          "name": "minTokenOut",
          "type": "uint256"
        }
      ],
      "name": "createTaxLaunchAndBuy",
      "outputs": [
        {
          "internalType": "address",
          "name": "token",
          "type": "address"
        },
        {
          "internalType": "uint256",
          "name": "tokenOut",
          "type": "uint256"
        }
      ],
      "stateMutability": "payable",
      "type": "function"
    },
    {
      "inputs": [
        {
          "internalType": "string",
          "name": "name_",
          "type": "string"
        },
        {
          "internalType": "string",
          "name": "symbol_",
          "type": "string"
        },
        {
          "internalType": "string",
          "name": "metadataURI_",
          "type": "string"
        },
        {
          "internalType": "uint16",
          "name": "taxBps",
          "type": "uint16"
        },
        {
          "internalType": "uint16",
          "name": "burnShareBps",
          "type": "uint16"
        },
        {
          "internalType": "uint16",
          "name": "treasuryShareBps",
          "type": "uint16"
        },
        {
          "internalType": "address",
          "name": "treasuryWallet",
          "type": "address"
        },
        {
          "internalType": "bytes32",
          "name": "salt",
          "type": "bytes32"
        },
        {
          "internalType": "uint256",
          "name": "minTokenOut",
          "type": "uint256"
        }
      ],
      "name": "createTaxLaunchAndBuyWithSalt",
      "outputs": [
        {
          "internalType": "address",
          "name": "token",
          "type": "address"
        },
        {
          "internalType": "uint256",
          "name": "tokenOut",
          "type": "uint256"
        }
      ],
      "stateMutability": "payable",
      "type": "function"
    },
    {
      "inputs": [
        {
          "internalType": "string",
          "name": "name_",
          "type": "string"
        },
        {
          "internalType": "string",
          "name": "symbol_",
          "type": "string"
        },
        {
          "internalType": "string",
          "name": "metadataURI_",
          "type": "string"
        },
        {
          "internalType": "uint16",
          "name": "taxBps",
          "type": "uint16"
        },
        {
          "internalType": "uint16",
          "name": "burnShareBps",
          "type": "uint16"
        },
        {
          "internalType": "uint16",
          "name": "treasuryShareBps",
          "type": "uint16"
        },
        {
          "internalType": "address",
          "name": "treasuryWallet",
          "type": "address"
        },
        {
          "internalType": "bytes32",
          "name": "salt",
          "type": "bytes32"
        }
      ],
      "name": "createTaxLaunchWithSalt",
      "outputs": [
        {
          "internalType": "address",
          "name": "token",
          "type": "address"
        }
      ],
      "stateMutability": "payable",
      "type": "function"
    },
    {
      "inputs": [
        {
          "internalType": "string",
          "name": "name_",
          "type": "string"
        },
        {
          "internalType": "string",
          "name": "symbol_",
          "type": "string"
        },
        {
          "internalType": "string",
          "name": "metadataURI_",
          "type": "string"
        },
        {
          "internalType": "uint256",
          "name": "whitelistThreshold",
          "type": "uint256"
        },
        {
          "internalType": "uint256",
          "name": "whitelistSlotSize",
          "type": "uint256"
        },
        {
          "internalType": "uint256",
          "name": "whitelistOpensAt",
          "type": "uint256"
        },
        {
          "internalType": "address[]",
          "name": "whitelistAddresses",
          "type": "address[]"
        }
      ],
      "name": "createWhitelistLaunch",
      "outputs": [
        {
          "internalType": "address",
          "name": "token",
          "type": "address"
        }
      ],
      "stateMutability": "payable",
      "type": "function"
    },
    {
      "inputs": [
        {
          "internalType": "string",
          "name": "name_",
          "type": "string"
        },
        {
          "internalType": "string",
          "name": "symbol_",
          "type": "string"
        },
        {
          "internalType": "string",
          "name": "metadataURI_",
          "type": "string"
        },
        {
          "internalType": "uint256",
          "name": "whitelistThreshold",
          "type": "uint256"
        },
        {
          "internalType": "uint256",
          "name": "whitelistSlotSize",
          "type": "uint256"
        },
        {
          "internalType": "uint256",
          "name": "whitelistOpensAt",
          "type": "uint256"
        },
        {
          "internalType": "address[]",
          "name": "whitelistAddresses",
          "type": "address[]"
        }
      ],
      "name": "createWhitelistLaunchAndCommit",
      "outputs": [
        {
          "internalType": "address",
          "name": "token",
          "type": "address"
        }
      ],
      "stateMutability": "payable",
      "type": "function"
    },
    {
      "inputs": [
        {
          "internalType": "string",
          "name": "name_",
          "type": "string"
        },
        {
          "internalType": "string",
          "name": "symbol_",
          "type": "string"
        },
        {
          "internalType": "string",
          "name": "metadataURI_",
          "type": "string"
        },
        {
          "internalType": "uint256",
          "name": "whitelistThreshold",
          "type": "uint256"
        },
        {
          "internalType": "uint256",
          "name": "whitelistSlotSize",
          "type": "uint256"
        },
        {
          "internalType": "uint256",
          "name": "whitelistOpensAt",
          "type": "uint256"
        },
        {
          "internalType": "address[]",
          "name": "whitelistAddresses",
          "type": "address[]"
        },
        {
          "internalType": "bytes32",
          "name": "salt",
          "type": "bytes32"
        }
      ],
      "name": "createWhitelistLaunchAndCommitWithSalt",
      "outputs": [
        {
          "internalType": "address",
          "name": "token",
          "type": "address"
        }
      ],
      "stateMutability": "payable",
      "type": "function"
    },
    {
      "inputs": [
        {
          "internalType": "string",
          "name": "name_",
          "type": "string"
        },
        {
          "internalType": "string",
          "name": "symbol_",
          "type": "string"
        },
        {
          "internalType": "string",
          "name": "metadataURI_",
          "type": "string"
        },
        {
          "internalType": "uint256",
          "name": "whitelistThreshold",
          "type": "uint256"
        },
        {
          "internalType": "uint256",
          "name": "whitelistSlotSize",
          "type": "uint256"
        },
        {
          "internalType": "uint256",
          "name": "whitelistOpensAt",
          "type": "uint256"
        },
        {
          "internalType": "address[]",
          "name": "whitelistAddresses",
          "type": "address[]"
        },
        {
          "internalType": "bytes32",
          "name": "salt",
          "type": "bytes32"
        }
      ],
      "name": "createWhitelistLaunchWithSalt",
      "outputs": [
        {
          "internalType": "address",
          "name": "token",
          "type": "address"
        }
      ],
      "stateMutability": "payable",
      "type": "function"
    },
    {
      "inputs": [
        {
          "internalType": "string",
          "name": "name_",
          "type": "string"
        },
        {
          "internalType": "string",
          "name": "symbol_",
          "type": "string"
        },
        {
          "internalType": "string",
          "name": "metadataURI_",
          "type": "string"
        },
        {
          "components": [
            {
              "internalType": "uint256",
              "name": "whitelistThreshold",
              "type": "uint256"
            },
            {
              "internalType": "uint256",
              "name": "whitelistSlotSize",
              "type": "uint256"
            },
            {
              "internalType": "uint256",
              "name": "whitelistOpensAt",
              "type": "uint256"
            },
            {
              "internalType": "address[]",
              "name": "whitelistAddresses",
              "type": "address[]"
            }
          ],
          "internalType": "struct LaunchFactory.WhitelistConfigInput",
          "name": "whitelistConfig",
          "type": "tuple"
        },
        {
          "components": [
            {
              "internalType": "uint16",
              "name": "taxBps",
              "type": "uint16"
            },
            {
              "internalType": "uint16",
              "name": "burnShareBps",
              "type": "uint16"
            },
            {
              "internalType": "uint16",
              "name": "treasuryShareBps",
              "type": "uint16"
            },
            {
              "internalType": "address",
              "name": "treasuryWallet",
              "type": "address"
            }
          ],
          "internalType": "struct LaunchFactory.TaxConfigInput",
          "name": "taxConfig",
          "type": "tuple"
        },
        {
          "internalType": "bytes",
          "name": "initCode",
          "type": "bytes"
        }
      ],
      "name": "createWhitelistTaxLaunch",
      "outputs": [
        {
          "internalType": "address",
          "name": "token",
          "type": "address"
        }
      ],
      "stateMutability": "payable",
      "type": "function"
    },
    {
      "inputs": [
        {
          "internalType": "string",
          "name": "name_",
          "type": "string"
        },
        {
          "internalType": "string",
          "name": "symbol_",
          "type": "string"
        },
        {
          "internalType": "string",
          "name": "metadataURI_",
          "type": "string"
        },
        {
          "components": [
            {
              "internalType": "uint256",
              "name": "whitelistThreshold",
              "type": "uint256"
            },
            {
              "internalType": "uint256",
              "name": "whitelistSlotSize",
              "type": "uint256"
            },
            {
              "internalType": "uint256",
              "name": "whitelistOpensAt",
              "type": "uint256"
            },
            {
              "internalType": "address[]",
              "name": "whitelistAddresses",
              "type": "address[]"
            }
          ],
          "internalType": "struct LaunchFactory.WhitelistConfigInput",
          "name": "whitelistConfig",
          "type": "tuple"
        },
        {
          "components": [
            {
              "internalType": "uint16",
              "name": "taxBps",
              "type": "uint16"
            },
            {
              "internalType": "uint16",
              "name": "burnShareBps",
              "type": "uint16"
            },
            {
              "internalType": "uint16",
              "name": "treasuryShareBps",
              "type": "uint16"
            },
            {
              "internalType": "address",
              "name": "treasuryWallet",
              "type": "address"
            }
          ],
          "internalType": "struct LaunchFactory.TaxConfigInput",
          "name": "taxConfig",
          "type": "tuple"
        },
        {
          "internalType": "bytes",
          "name": "initCode",
          "type": "bytes"
        }
      ],
      "name": "createWhitelistTaxLaunchAndCommit",
      "outputs": [
        {
          "internalType": "address",
          "name": "token",
          "type": "address"
        }
      ],
      "stateMutability": "payable",
      "type": "function"
    },
    {
      "inputs": [
        {
          "internalType": "string",
          "name": "name_",
          "type": "string"
        },
        {
          "internalType": "string",
          "name": "symbol_",
          "type": "string"
        },
        {
          "internalType": "string",
          "name": "metadataURI_",
          "type": "string"
        },
        {
          "components": [
            {
              "internalType": "uint256",
              "name": "whitelistThreshold",
              "type": "uint256"
            },
            {
              "internalType": "uint256",
              "name": "whitelistSlotSize",
              "type": "uint256"
            },
            {
              "internalType": "uint256",
              "name": "whitelistOpensAt",
              "type": "uint256"
            },
            {
              "internalType": "address[]",
              "name": "whitelistAddresses",
              "type": "address[]"
            }
          ],
          "internalType": "struct LaunchFactory.WhitelistConfigInput",
          "name": "whitelistConfig",
          "type": "tuple"
        },
        {
          "components": [
            {
              "internalType": "uint16",
              "name": "taxBps",
              "type": "uint16"
            },
            {
              "internalType": "uint16",
              "name": "burnShareBps",
              "type": "uint16"
            },
            {
              "internalType": "uint16",
              "name": "treasuryShareBps",
              "type": "uint16"
            },
            {
              "internalType": "address",
              "name": "treasuryWallet",
              "type": "address"
            }
          ],
          "internalType": "struct LaunchFactory.TaxConfigInput",
          "name": "taxConfig",
          "type": "tuple"
        },
        {
          "internalType": "bytes",
          "name": "initCode",
          "type": "bytes"
        },
        {
          "internalType": "bytes32",
          "name": "salt",
          "type": "bytes32"
        }
      ],
      "name": "createWhitelistTaxLaunchAndCommitWithSalt",
      "outputs": [
        {
          "internalType": "address",
          "name": "token",
          "type": "address"
        }
      ],
      "stateMutability": "payable",
      "type": "function"
    },
    {
      "inputs": [
        {
          "internalType": "string",
          "name": "name_",
          "type": "string"
        },
        {
          "internalType": "string",
          "name": "symbol_",
          "type": "string"
        },
        {
          "internalType": "string",
          "name": "metadataURI_",
          "type": "string"
        },
        {
          "components": [
            {
              "internalType": "uint256",
              "name": "whitelistThreshold",
              "type": "uint256"
            },
            {
              "internalType": "uint256",
              "name": "whitelistSlotSize",
              "type": "uint256"
            },
            {
              "internalType": "uint256",
              "name": "whitelistOpensAt",
              "type": "uint256"
            },
            {
              "internalType": "address[]",
              "name": "whitelistAddresses",
              "type": "address[]"
            }
          ],
          "internalType": "struct LaunchFactory.WhitelistConfigInput",
          "name": "whitelistConfig",
          "type": "tuple"
        },
        {
          "components": [
            {
              "internalType": "uint16",
              "name": "taxBps",
              "type": "uint16"
            },
            {
              "internalType": "uint16",
              "name": "burnShareBps",
              "type": "uint16"
            },
            {
              "internalType": "uint16",
              "name": "treasuryShareBps",
              "type": "uint16"
            },
            {
              "internalType": "address",
              "name": "treasuryWallet",
              "type": "address"
            }
          ],
          "internalType": "struct LaunchFactory.TaxConfigInput",
          "name": "taxConfig",
          "type": "tuple"
        },
        {
          "internalType": "bytes",
          "name": "initCode",
          "type": "bytes"
        },
        {
          "internalType": "bytes32",
          "name": "salt",
          "type": "bytes32"
        }
      ],
      "name": "createWhitelistTaxLaunchWithSalt",
      "outputs": [
        {
          "internalType": "address",
          "name": "token",
          "type": "address"
        }
      ],
      "stateMutability": "payable",
      "type": "function"
    },
    {
      "inputs": [],
      "name": "graduationQuoteReserve",
      "outputs": [
        {
          "internalType": "uint256",
          "name": "",
          "type": "uint256"
        }
      ],
      "stateMutability": "view",
      "type": "function"
    },
    {
      "inputs": [
        {
          "internalType": "address",
          "name": "",
          "type": "address"
        },
        {
          "internalType": "uint256",
          "name": "",
          "type": "uint256"
        }
      ],
      "name": "launchesByCreator",
      "outputs": [
        {
          "internalType": "address",
          "name": "",
          "type": "address"
        }
      ],
      "stateMutability": "view",
      "type": "function"
    },
    {
      "inputs": [
        {
          "internalType": "address",
          "name": "creator_",
          "type": "address"
        }
      ],
      "name": "launchesOf",
      "outputs": [
        {
          "internalType": "address[]",
          "name": "",
          "type": "address[]"
        }
      ],
      "stateMutability": "view",
      "type": "function"
    },
    {
      "inputs": [
        {
          "internalType": "address",
          "name": "",
          "type": "address"
        }
      ],
      "name": "modeOf",
      "outputs": [
        {
          "internalType": "enum LaunchFactory.LaunchMode",
          "name": "",
          "type": "uint8"
        }
      ],
      "stateMutability": "view",
      "type": "function"
    },
    {
      "inputs": [],
      "name": "owner",
      "outputs": [
        {
          "internalType": "address",
          "name": "",
          "type": "address"
        }
      ],
      "stateMutability": "view",
      "type": "function"
    },
    {
      "inputs": [
        {
          "internalType": "address",
          "name": "",
          "type": "address"
        }
      ],
      "name": "pendingModeOf",
      "outputs": [
        {
          "internalType": "enum LaunchFactory.LaunchMode",
          "name": "",
          "type": "uint8"
        }
      ],
      "stateMutability": "view",
      "type": "function"
    },
    {
      "inputs": [],
      "name": "protocolFeeRecipient",
      "outputs": [
        {
          "internalType": "address",
          "name": "",
          "type": "address"
        }
      ],
      "stateMutability": "view",
      "type": "function"
    },
    {
      "inputs": [],
      "name": "reconcileUnexpectedNative",
      "outputs": [
        {
          "internalType": "uint256",
          "name": "amount",
          "type": "uint256"
        }
      ],
      "stateMutability": "nonpayable",
      "type": "function"
    },
    {
      "inputs": [],
      "name": "renounceOwnership",
      "outputs": [],
      "stateMutability": "nonpayable",
      "type": "function"
    },
    {
      "inputs": [],
      "name": "router",
      "outputs": [
        {
          "internalType": "address",
          "name": "",
          "type": "address"
        }
      ],
      "stateMutability": "view",
      "type": "function"
    },
    {
      "inputs": [
        {
          "internalType": "address",
          "name": "newRecipient",
          "type": "address"
        }
      ],
      "name": "setProtocolFeeRecipient",
      "outputs": [],
      "stateMutability": "nonpayable",
      "type": "function"
    },
    {
      "inputs": [],
      "name": "standardCreateFee",
      "outputs": [
        {
          "internalType": "uint256",
          "name": "",
          "type": "uint256"
        }
      ],
      "stateMutability": "view",
      "type": "function"
    },
    {
      "inputs": [],
      "name": "standardDeployer",
      "outputs": [
        {
          "internalType": "address",
          "name": "",
          "type": "address"
        }
      ],
      "stateMutability": "view",
      "type": "function"
    },
    {
      "inputs": [],
      "name": "taxedDeployer",
      "outputs": [
        {
          "internalType": "address",
          "name": "",
          "type": "address"
        }
      ],
      "stateMutability": "view",
      "type": "function"
    },
    {
      "inputs": [],
      "name": "totalLaunches",
      "outputs": [
        {
          "internalType": "uint256",
          "name": "",
          "type": "uint256"
        }
      ],
      "stateMutability": "view",
      "type": "function"
    },
    {
      "inputs": [
        {
          "internalType": "address",
          "name": "newOwner",
          "type": "address"
        }
      ],
      "name": "transferOwnership",
      "outputs": [],
      "stateMutability": "nonpayable",
      "type": "function"
    },
    {
      "inputs": [],
      "name": "whitelistCreateFee",
      "outputs": [
        {
          "internalType": "uint256",
          "name": "",
          "type": "uint256"
        }
      ],
      "stateMutability": "view",
      "type": "function"
    },
    {
      "inputs": [],
      "name": "whitelistDeployer",
      "outputs": [
        {
          "internalType": "address",
          "name": "",
          "type": "address"
        }
      ],
      "stateMutability": "view",
      "type": "function"
    },
    {
      "inputs": [],
      "name": "whitelistTaxedDeployer",
      "outputs": [
        {
          "internalType": "address",
          "name": "",
          "type": "address"
        }
      ],
      "stateMutability": "view",
      "type": "function"
    }
  ],
  "bytecode": "0x6101803462000317576200428a601f38829003908101601f19168301906001600160401b038211848310176200031c5780849360409384528439610140938491810103126200031757620000538262000332565b92620000626020840162000332565b916200007081850162000332565b6200007e6060860162000332565b906200008d6080870162000332565b946200009c60a0880162000332565b97620000ab60c0890162000332565b9260e0890151936101009a8b8b015199610120809c01519760018060a01b03809616968715620002ff5760005460018060a01b031998808a831617600055888d5192167f8be0079c531659141344cd1fd0a4f28419497f9722a3daafe3b4186f6b6457e0600080a3878216158015620002f4575b8015620002e9575b8015620002de575b8015620002d3575b620002c457508915620002b35760805260a05260c05260e0528a52808216620002ad575073c4187be6b362df625696d4a9ec5e6fa461cc03145b16906001541617600155835261016093845284525192613f42948562000348863960805185818161024b015281816120e6015281816123d9015281816125db015281816129f101528181612d0501528181612fa00152613c02015260a051858181610c1a0152818161215f0152613022015260c0518581816113fa01528181612478015261267c015260e05185818161137a01528181612a910152612db201525184818161088401526135510152518381816113c10152818161210d015281816124000152818161260201528181612a1901528181612d2c01528181612fc80152613b8701525182818161187b01528181611eb20152818161205e0152818161295501528181612c680152612f1101525181818161084b01528181611e810152818161234a01528181612549015281816127ef0152612b8e0152f35b62000171565b8a51630d956e1760e21b8152600490fd5b63d92e233d60e01b8152600490fd5b508786161562000137565b50878516156200012f565b508784161562000127565b50878316156200011f565b8a51631e4fbdf760e01b815260006004820152602490fd5b600080fd5b634e487b7160e01b600052604160045260246000fd5b51906001600160a01b0382168203620003175756fe60c0604052600436101561001257600080fd5b60003560e01c80630a0027131461179e5780630e883f8b14611780578063100ed9541461152457806311344cac1461148e578063136689951461144c578063151629c614610a675780632dc80bd61461142957806337eb7e01146113e457806339931527146113a95780633edf108e1461136457806341d6e9d31461131b57806341fb44ac146111565780634ad82e66146110fd5780634f25d38e146110b057806361f9aad114610fa557806364df049e14610f7c5780636b1b953614610f0b578063715018a614610ec45780637b90002314610e115780637dd8a35e14610d7d5780638da5cb5b14610d5457806391e234d914610c495780639b57f42814610c04578063a36cdf9914610b8e578063a84b46fc14610b41578063b119b57b14610aff578063b2d042e314610a6c578063b2db919b14610a67578063bd2f1c7a1461099c578063c767a5951461097e578063cca8fab51461095b578063d1bde3c8146108b3578063dae335a81461086e578063df407c4c14610833578063e00705fe14610759578063e1ca4294146106d4578063e521cb921461063a578063e5d7abad1461060b578063ec48449014610494578063ef08626e14610311578063ef1b7203146102ee578063f2fde38b1461027a578063f887ea40146102355763faf7e3bd1461020057600080fd5b3461023057602036600319011261023057600435600d81101561023057610228602091611e4c565b604051908152f35b600080fd5b34610230576000366003190112610230576040517f00000000000000000000000000000000000000000000000000000000000000006001600160a01b03168152602090f35b34610230576020366003190112610230576102936117f7565b61029b61284c565b6001600160a01b039081169081156102d5576000548260018060a01b031982161760005516600080516020613eed833981519152600080a3005b604051631e4fbdf760e01b815260006004820152602490fd5b3461023057602036600319011261023057602061022861030c6117f7565b611ef1565b61031a36611ae5565b959298949798969193909633600052600460205260406000205460208201359061034387611d0c565b90604051809160208201936040870135868835463395610363968a611e08565b03601f19810182526103759082611c2b565b519020996103866060840184611cd7565b94909561039289611d0c565b9761039f60208b01611d0c565b9a6103ac60408c01611d0c565b9a6060016103b990611b9a565b9f6040516080526080516103cc90611bae565b36906103d792611d36565b6080515236906103e692611d36565b6080516020015236906103f892611d36565b60805160400152813560805160600152608051608001526040013560805160a00152369061042592611d6d565b60805160c0015261ffff928380921660805160e00152166080516101000152166080516101200152600160a01b600190038094166080516101400152369061046c92611d36565b6080516101600152608051610180015260805161048890612b4a565b60405191168152602090f35b61049d36611ae5565b95929894979896919390963360005260046020526040600020546020820135906104c687611d0c565b906040518091602082019360408701358688354633956104e6968a611e08565b03601f19810182526104f89082611c2b565b519020996105096060840184611cd7565b94909561051589611d0c565b9761052260208b01611d0c565b9a61052f60408c01611d0c565b9a60600161053c90611b9a565b9f60405160a05260a05161054f90611bae565b369061055a92611d36565b60a05152369061056992611d36565b60a05160200152369061057b92611d36565b60a05160400152813560a0516060015260a051608001526040013560a05160a0015236906105a892611d6d565b60a05160c0015261ffff928380921660a05160e001521660a05161010001521660a0516101200152600160a01b6001900380941660a051610140015236906105ef92611d36565b60a051610160015260a051610180015260a051610488906127b6565b3461023057600036600319011261023057602060405173c4187be6b362df625696d4a9ec5e6fa461cc03148152f35b34610230576020366003190112610230576106536117f7565b61065b61284c565b6001600160a01b039081169081156106c2576002546106b057816001549182167fd3890fc76afcfc31cba1dcf2c27b50e2541e4d75039c981855b5b5e03682aea0600080a36001600160a01b03191617600155005b604051631f462ad960e11b8152600490fd5b60405163d92e233d60e01b8152600490fd5b60a0366003190112610230576001600160401b036004358181116102305761070090369060040161180d565b906024358381116102305761071990369060040161180d565b906044359485116102305761073561074595369060040161180d565b9290916084359560643595612f03565b9061075560405192839283611aca565b0390f35b60e0366003190112610230576001600160401b036004358181116102305761078590369060040161180d565b91906024358281116102305761079f90369060040161180d565b9390604435938411610230576020946107bf61082195369060040161180d565b6107c7611a97565b916107d0611aa8565b936107d9611ab9565b956107e261183a565b973360005260048c52604060002054604051610818818f8a61080a9183019546903388611dd3565b03601f198101835282611c2b565b5190209961292d565b6040516001600160a01b039091168152f35b346102305760003660031901126102305760206040517f00000000000000000000000000000000000000000000000000000000000000008152f35b34610230576000366003190112610230576040517f00000000000000000000000000000000000000000000000000000000000000006001600160a01b03168152602090f35b6080366003190112610230576001600160401b03600435818111610230576108df90369060040161180d565b90602435838111610230576108f890369060040161180d565b906044359485116102305761091461074595369060040161180d565b929091336000526004602052604060002054956040519661094e88610940602082019346903386611c6f565b03601f1981018a5289611c2b565b6064359751902095612f03565b60206108216109693661189e565b9a999099989198979297969396959495612531565b34610230576000366003190112610230576020600254604051908152f35b610100366003190112610230576001600160401b03600435818111610230576109c990369060040161180d565b90602435838111610230576109e290369060040161180d565b604435948511610230576109fd61074595369060040161180d565b610a05611a97565b90610a0e611aa8565b92610a17611ab9565b94610a2061183a565b96336000526004602052604060002054996040519a610a5a8c610a4b89602083019446903387611dd3565b038d601f19820190528d611c2b565b60e4359b51902099612c40565b611863565b610120366003190112610230576001600160401b0360043581811161023057610a9990369060040161180d565b9060243583811161023057610ab290369060040161180d565b60443594851161023057610acd61074595369060040161180d565b610ad5611a97565b90610ade611aa8565b92610ae7611ab9565b94610af061183a565b96610104359960e43599612c40565b34610230576020366003190112610230576001600160a01b03610b206117f7565b16600052600660205261075560ff6040600020541660405191829182611850565b6020610821610b4f3661195d565b989790979691969592959493943360005260048d52604060002054604051610b858f61080a8c8c8c86948501974690338a611ca0565b5190209a612337565b3461023057600036600319011261023057610ba7612c21565b8015610bf25780610bbc602092600254611c62565b6002556040518181527fa1e4c790cc8a017f9b597b92150a8a880324350496397bbb8fd774f571e710df833392a2604051908152f35b6040516312d37ee560e31b8152600490fd5b34610230576000366003190112610230576040517f00000000000000000000000000000000000000000000000000000000000000006001600160a01b03168152602090f35b610c52366119e9565b9792936060819b9a9b9896939897929701610c6d9082611cd7565b929093610c7987611d0c565b95610c8660208901611d0c565b98610c9360408a01611d0c565b98606001610ca090611b9a565b9e6040519e8f91610cb083611bae565b3690610cbb92611d36565b90523690610cc892611d36565b60208d01523690610cd892611d36565b60408b0152803560608b0152602081013560808b01526040013560a08a01523690610d0292611d6d565b60c088015261ffff90811660e0880152918216610100870152166101208501526001600160a01b03948516610140850152610d3f91369190611d36565b61016083015261018082015261048890612b4a565b34610230576000366003190112610230576000546040516001600160a01b039091168152602090f35b610100366003190112610230576001600160401b0360043581811161023057610daa90369060040161180d565b919060243582811161023057610dc490369060040161180d565b939060443593841161023057602094610de461082195369060040161180d565b610dec611a97565b91610df5611aa8565b93610dfe611ab9565b95610e0761183a565b9760e4359961292d565b3461023057602080600319360112610230576001600160a01b039081610e356117f7565b1660005260048152604060002060405191828183549182815201908193600052826000209060005b818110610eae5750505083610e73910384611c2b565b60405192818401908285525180915260408401929160005b828110610e985785850386f35b8351871685529381019392810192600101610e8b565b8254881684529284019260019283019201610e5d565b3461023057600036600319011261023057610edd61284c565b600080546001600160a01b0319811682556001600160a01b0316600080516020613eed8339815191528280a3005b6080366003190112610230576001600160401b0360043581811161023057610f3790369060040161180d565b919060243582811161023057610f5190369060040161180d565b9360443593841161023057602094610f7061082195369060040161180d565b9390926064359561204b565b34610230576000366003190112610230576001546040516001600160a01b039091168152602090f35b610fae366119e9565b9792936060819b9a9b9896939897929701610fc99082611cd7565b929093610fd587611d0c565b95610fe260208901611d0c565b98610fef60408a01611d0c565b98606001610ffc90611b9a565b9e6040519e8f9161100c83611bae565b369061101792611d36565b9052369061102492611d36565b60208d0152369061103492611d36565b60408b0152803560608b0152602081013560808b01526040013560a08a0152369061105e92611d6d565b60c088015261ffff90811660e0880152918216610100870152166101208501526001600160a01b0394851661014085015261109b91369190611d36565b610160830152610180820152610488906127b6565b60206108216110be3661195d565b989790979691969592959493943360005260048d526040600020546040516110f48f61080a8c8c8c86948501974690338a611ca0565b5190209a612531565b34610230576040366003190112610230576111166117f7565b6024359060018060a01b03809116600052600460205260406000208054831015610230576020926111469161192f565b9190546040519260031b1c168152f35b3461023057602080600319360112610230576004356001600160401b038111610230576111879036906004016117c7565b60009283928392905b8186106111a7575050604080945051928352820152f35b9293919290916001600160a01b036111c86111c3888686611b8a565b611b9a565b16806000526005855260ff60406000205416600d81101561130557156112f357604051639111f13d60e01b81528581600481855afa9081156112a7576000916112be575b50156112b35790846000926004604051809581936329c3300360e11b83525af19081156112a757600091611276575b6112459250611c62565b936001810180911161126057600190955b0194929190611190565b634e487b7160e01b600052601160045260246000fd5b90508482813d83116112a0575b61128d8183611c2b565b810103126102305761124591519061123b565b503d611283565b6040513d6000823e3d90fd5b509394600190611256565b90508581813d83116112ec575b6112d58183611c2b565b81010312610230576112e690611c93565b8861120c565b503d6112cb565b604051631ed00d7f60e31b8152600490fd5b634e487b7160e01b600052602160045260246000fd5b3461023057602036600319011261023057600435600354811015610230576003600052600080516020613ead83398151915201546040516001600160a01b039091168152602090f35b34610230576000366003190112610230576040517f00000000000000000000000000000000000000000000000000000000000000006001600160a01b03168152602090f35b346102305760003660031901126102305760206040517f00000000000000000000000000000000000000000000000000000000000000008152f35b34610230576000366003190112610230576040517f00000000000000000000000000000000000000000000000000000000000000006001600160a01b03168152602090f35b60206108216114373661189e565b9a999099989198979297969396959495612337565b34610230576020366003190112610230576001600160a01b0361146d6117f7565b16600052600560205261075560ff6040600020541660405191829182611850565b6060366003190112610230576001600160401b03600435818111610230576114ba90369060040161180d565b9190602435828111610230576114d490369060040161180d565b93604435938411610230576020946114f361082195369060040161180d565b939092336000526004885260406000205460405161151b8161080a8c82019446903387611c6f565b5190209561204b565b34610230576040366003190112610230576004356001600160401b038111610230576115549036906004016117c7565b906001600160a01b0360248035828116939190849003610230576000936000936001968160015416330361176f5782156106c257939291906000945b8086106115a7576040888882519182526020820152f35b90919293949596826115bd6111c389858a611b8a565b1690816000526020916005835260ff60406000205416600d81101561175a57156112f35760405163326f824f60e11b81528381600481855afa9081156112a757600091611725575b5085808d541691160361171357604051636711456960e11b81528381600481855afa80156112a7578c916000916116e2575b50156116d857509082600093928860405180968193624372e560e51b83528b60048401525af19182156112a7576000926116a6575b506116779250611c62565b96888101809111611691578890965b019493929190611590565b84634e487b7160e01b60005260116004526000fd5b90915082813d83116116d1575b6116bd8183611c2b565b81010312610230576116779151908b61166c565b503d6116b3565b9250509796611686565b809250858092503d831161170c575b6116fb8183611c2b565b81010312610230578b90518d611637565b503d6116f1565b60405163b015ea8b60e01b8152600490fd5b90508381813d8311611753575b61173c8183611c2b565b810103126102305761174d90611c4e565b8c611605565b503d611732565b87634e487b7160e01b60005260216004526000fd5b6040516282b42960e81b8152600490fd5b34610230576000366003190112610230576020600354604051908152f35b3461023057600036600319011261023057600154602090610228906001600160a01b0316611ef1565b9181601f84011215610230578235916001600160401b038311610230576020808501948460051b01011161023057565b600435906001600160a01b038216820361023057565b9181601f84011215610230578235916001600160401b038311610230576020838186019501011161023057565b60c435906001600160a01b038216820361023057565b91906020830192600d8210156113055752565b346102305760003660031901126102305760206040517f00000000000000000000000000000000000000000000000000000000000000008152f35b610100600319820112610230576001600160401b039060043582811161023057816118cb9160040161180d565b9390939260243581811161023057836118e69160040161180d565b9390939260443583811161023057826119019160040161180d565b93909392606435926084359260a4359260c43591821161023057611927916004016117c7565b909160e43590565b80548210156119475760005260206000200190600090565b634e487b7160e01b600052603260045260246000fd5b60e0600319820112610230576001600160401b039060043582811161023057816119899160040161180d565b9390939260243581811161023057836119a49160040161180d565b9390939260443583811161023057826119bf9160040161180d565b93909392606435926084359260a4359260c435918211610230576119e5916004016117c7565b9091565b6003199161014082840112610230576001600160401b0390600480358381116102305784611a1891830161180d565b959095946024358581116102305781611a3291850161180d565b959095946044358281116102305783611a4c91870161180d565b9590959460643590848211610230576080908287030112610230578101936080608319820112610230576084936101043590811161023057611a8e920161180d565b90916101243590565b6064359061ffff8216820361023057565b6084359061ffff8216820361023057565b60a4359061ffff8216820361023057565b6001600160a01b039091168152602081019190915260400190565b6003199161012082840112610230576001600160401b0390600480358381116102305784611b1491830161180d565b959095946024358581116102305781611b2e91850161180d565b959095946044358281116102305783611b4891870161180d565b95909594606435908482116102305760809082870301126102305781019360806083198201126102305760849361010435908111610230576119e5920161180d565b91908110156119475760051b0190565b356001600160a01b03811681036102305790565b6101a081019081106001600160401b03821117611bca57604052565b634e487b7160e01b600052604160045260246000fd5b61014081019081106001600160401b03821117611bca57604052565b6101c081019081106001600160401b03821117611bca57604052565b6001600160401b038111611bca57604052565b601f909101601f19168101906001600160401b03821190821017611bca57604052565b51906001600160a01b038216820361023057565b9190820180921161126057565b60609194936001936080830196858060a01b03168352602083015260408201520152565b5190811515820361023057565b9260c094919796959260e085019860018060a01b031685526020850152604084015260026060840152608083015260a08201520152565b903590601e198136030182121561023057018035906001600160401b03821161023057602001918160051b3603831361023057565b3561ffff811681036102305790565b6001600160401b038111611bca57601f01601f191660200190565b929192611d4282611d1b565b91611d506040519384611c2b565b829481845281830111610230578281602093846000960137010152565b9092916001600160401b038411611bca578360051b6020926020604051611d9682850182611c2b565b809781520191810192831161023057905b828210611db45750505050565b81356001600160a01b0381168103610230578152908301908301611da7565b6001600160a01b039091168152602081019190915260408101919091526003606082015261ffff909116608082015260a00190565b95919360e0959198979361ffff9561010089019a60018060a01b031689526020890152604088015260046060880152608087015260a086015260c085015216910152565b600d8110158061130557600182148015611ed4575b611eae576113055760028114908115611ea3575b50611e7f57600090565b7f000000000000000000000000000000000000000000000000000000000000000090565b600c91501438611e75565b50507f000000000000000000000000000000000000000000000000000000000000000090565b5050600060038210158015611e615750506000600b821115611e61565b6001549091906001600160a01b03908116330361176f57821680156106c257600254928315610bf25783611f29916000600255613153565b7fe520b2225629f84907c5bd92fb58063336ec178dcdc13d436213de8a6b2b22156020604051858152a2565b60005b838110611f685750506000910152565b8181015183820152602001611f58565b90602091611f9181518092818552858086019101611f55565b601f01601f1916010190565b602081528151611fef611fbe61014092836020860152610160850190611f78565b611fda602086015191601f199283878303016040880152611f78565b90604086015190858303016060860152611f78565b92606081015160018060a01b0380911660808501528060808301511660a08501528060a08301511660c085015260c08201511660e084015260e081015161010090818501528101519060ff610120921682850152015191015290565b602061215b6000969795949399986120827f00000000000000000000000000000000000000000000000000000000000000006131d6565b80612212575b506001546040516001600160a01b0392909183166120b18e6120a985611be0565b369089611d36565b83526120be368a8a611d36565b838701526120cd368b8e611d36565b604084015233606084015230608084015260a0830152827f00000000000000000000000000000000000000000000000000000000000000001660c08301527f000000000000000000000000000000000000000000000000000000000000000060e0830152600161010083015261012082015260405198898094819363669e6d9d60e11b835260048301611f9d565b03927f0000000000000000000000000000000000000000000000000000000000000000165af19485156112a7576000956121c3575b50946121b16121b9926121a96121c198889b3691611d36565b943691611d36565b933691611d36565b9233906132a0565b565b959094506020863d60201161220a575b816121e060209383611c2b565b81010312610230576121b16121b9926121a96121fe6121c199611c4e565b97939850509250612190565b3d91506121d3565b61221c9033613153565b38612088565b6020918282528051906122426101c09283868601526101e0850190611f78565b6122746122608684015192601f199384888303016040890152611f78565b604084015183878303016060880152611f78565b60608301519060018060a01b0380921660808701528160808501511660a08701528160a08501511660c08701528160c08501511660e087015260e08401516101009081880152840151610120908188015284015161014090818801528401516101609081880152840151966101809387830301848801528080895193848152019801926000905b83821061231e5750505050508101519060ff6101a0921682850152015191015290565b845181168a5298820198938201936001909101906122fb565b9497819c9b9397859b92959a939761236e7f00000000000000000000000000000000000000000000000000000000000000006131d6565b80612521575b506001546040519c6001600160a01b0398918916918e919061239583611bfc565b366123a0918d611d36565b82526123ad368e8e611d36565b60208301528d36906123be92611d36565b90604001528c3390606001528c30906080015260a08d0152867f00000000000000000000000000000000000000000000000000000000000000001660c08d01527f000000000000000000000000000000000000000000000000000000000000000060e08d01526101008c01526101208b01526101408a0152369061244192611d6d565b61016088015260026101808801526101a0870152604051631aeb298160e21b815295869081906124749060048301612222565b03917f00000000000000000000000000000000000000000000000000000000000000001691815a602094600091f19485156112a7576000956124d2575b50946121b16124ca926121a96121c198889b3691611d36565b923390613337565b959094506020863d602011612519575b816124ef60209383611c2b565b81010312610230576121b16124ca926121a961250d6121c199611c4e565b979398505092506124b1565b3d91506124e2565b61252b9033613153565b38612374565b989b9a909b969596949392944289116127a45761256d7f00000000000000000000000000000000000000000000000000000000000000006131d6565b9a878c03612792578a998e98600160a01b600190039a8b6001541660409e8f9081519d6125998f611bfc565b36906125a492611d36565b8d528c6125b2368e8c611d36565b9060200152366125c3908c8c611d36565b908d01523360608d01523060808d015260a08c01528b7f00000000000000000000000000000000000000000000000000000000000000001660c08c01527f000000000000000000000000000000000000000000000000000000000000000060e08c01526101008b01526101208a0152610140890152369061264392611d6d565b61016087015260026101808701526101a08601528751631aeb298160e21b81529485906126739060048301612222565b039660009786887f00000000000000000000000000000000000000000000000000000000000000001691818b5a94602095f1958615612788578896612731575b50916126d66126de926126ce6126e6979695899f3691611d36565b953691611d36565b923691611d36565b913385613337565b16803b1561272d578190602484518096819363d9d5a9f360e01b83523360048401525af191821561272357505061271a5750565b6121c190611c18565b51903d90823e3d90fd5b5080fd5b9095506020813d602011612780575b8161274d60209383611c2b565b8101031261277c57916126d66126de926126ce61276e6126e6989796611c4e565b9893959697505092506126b3565b8780fd5b3d9150612740565b89513d8a823e3d90fd5b604051636b3f890b60e11b8152600490fd5b604051630392b25960e31b8152600490fd5b906127ea61ffff8060e08501511690806101008601511690610120860151169060018060a01b036101408701511692613441565b6128137f00000000000000000000000000000000000000000000000000000000000000006131d6565b8061283c575b506121c161282683613537565b9280519060406020820151910151913386613380565b6128469033613153565b38612819565b6000546001600160a01b0316330361286057565b60405163118cdaa760e01b8152336004820152602490fd5b602081528151612899611fbe6101c0928360208601526101e0850190611f78565b9260608101519060018060a01b0380921660808501528160808201511660a08501528160a08201511660c08501528160c08201511660e085015260e0810151610100908186015281015160ff61012091168186015281015161014061ffff809216818701528201518161016091168187015282015190610180911681860152810151916101a0921682850152015191015290565b929495969a99909a989791939861294388613e13565b986129508185848c613441565b6129797f00000000000000000000000000000000000000000000000000000000000000006131d6565b80612b3a575b506001546001600160a01b039490851690600d8c1015611305578c9a8f929487956040519d8e956129af87611bfc565b366129ba918d611d36565b86526129c7368e8e611d36565b60208701528d36906129d892611d36565b604086015233606086015230608086015260a0850152857f00000000000000000000000000000000000000000000000000000000000000001660c08501528d7f000000000000000000000000000000000000000000000000000000000000000060e086015260ff1661010085015261ffff9384809316906101200152166101408c0152166101608a0152166101808801526101a087015260405180809763a2b998b760e01b82526004820190612a8d91612878565b03917f00000000000000000000000000000000000000000000000000000000000000001691815a602094600091f19485156112a757600095612aeb575b50956121b1612ae3926121a96121c199889c3691611d36565b9233906133a7565b969094506020873d602011612b32575b81612b0860209383611c2b565b81010312610230576121b1612ae3926121a9612b266121c19a611c4e565b97939950509250612aca565b3d9150612afb565b612b449033613153565b3861297f565b9061ffff612b7e8160e0850151168261010086015116926101208601511660018060a01b0393846101408801511692613441565b60a083015142106127a457612bb27f00000000000000000000000000000000000000000000000000000000000000006131d6565b906080840151820361279257612be0612bca85613537565b9480519060406020820151910151913388613380565b8316803b156102305760009060246040518094819363d9d5a9f360e01b83523360048401525af180156112a75761271a5750565b9190820391821161126057565b4760025480821115612c3957612c3691612c14565b90565b5050600090565b9986999c9b9798919c9695949396612c6381848c612c5d8b613e13565b9a613441565b612c8c7f00000000000000000000000000000000000000000000000000000000000000006131d6565b998a15612ef1576001546001600160a01b031693600d891015611305578f949c612da39d8f612cc99060405198612cc28a611bfc565b3691611d36565b8752612cd6368d8a611d36565b6020880152612ce6368b8b611d36565b604088015233606088015230608088015260a087015260018060a01b037f00000000000000000000000000000000000000000000000000000000000000001660c08701527f000000000000000000000000000000000000000000000000000000000000000060e087015260ff8a1661010087015261ffff9283809216610120880152166101408601521661016084015260018060a01b03166101808301526101a082015260405198899163a2b998b760e01b835260048301612878565b60009a916020918b919003818d7f00000000000000000000000000000000000000000000000000000000000000006001600160a01b03165af1988915612ee6578a99612ea6575b50889b3690612df892611d36565b943690612e0492611d36565b913690612e1092611d36565b903393612e1d94886133a7565b604051633391832760e11b815292839182908190612e3f903360048401611aca565b6001600160a01b03909316949203915a94602095f1918215612e9a578092612e6657505090565b9091506020823d602011612e92575b81612e8260209383611c2b565b81010312612e8f57505190565b80fd5b3d9150612e75565b604051903d90823e3d90fd5b9098506020813d602011612ede575b81612ec260209383611c2b565b81010312612eda57612ed390611c4e565b9738612dea565b8980fd5b3d9150612eb5565b6040513d8c823e3d90fd5b6040516332a3e9bb60e01b8152600490fd5b979591929096939497612f357f00000000000000000000000000000000000000000000000000000000000000006131d6565b948515612ef157600160a01b600190039283600154169a604098895197612f5b89611be0565b612f66368e88611d36565b8952612f73368583611d36565b9760209e8f998a8c015236612f89908686611d36565b8b8e01523360608c01523060808c015260a08b01527f0000000000000000000000000000000000000000000000000000000000000000881660c08b01527f000000000000000000000000000000000000000000000000000000000000000060e08b015260016101008b01526101208a01528a5163669e6d9d60e11b81529d8e998a906130189060048301611f9d565b039960009a818c8b7f0000000000000000000000000000000000000000000000000000000000000000165af1958615613149578996613103575b88999a9b9c9d9e50869e369061306792611d36565b93369061307392611d36565b91369061307f92611d36565b90339261308c93866132a0565b8751633391832760e11b8152968793849283906130ad903360048401611aca565b0393165af19384156130f8575081936130c7575b50505090565b9091809350813d83116130f1575b6130df8183611c2b565b81010312612e8f5750513880806130c1565b503d6130d5565b51913d9150823e3d90fd5b9550878e813d8311613142575b61311a8183611c2b565b8101031261313e5761313188999a9b9c9d9e611c4e565b958e9d9c9b9a9950613052565b8880fd5b503d613110565b8b513d8b823e3d90fd5b8147106131b757604051602081016001600160401b03811182821017611bca57604052600080809481948280955260018060a01b03165af1156131935750565b3d156131a557604051903d90823e3d90fd5b60405163d6bda27560e01b8152600490fd5b60405163cf47918160e01b815247600482015260248101839052604490fd5b8034106132015780612c36916131ed575b34612c14565b6131f981600254611c62565b6002556131e7565b604051638d466a2f60e01b8152600490fd5b600354600160401b811015611bca576001810180600355811015611947576003600052600080516020613ead8339815191520180546001600160a01b0319166001600160a01b03909216919091179055565b8054600160401b811015611bca576132829160018201815561192f565b60018060a09493941b038084549260031b9316831b921b1916179055565b9161331690613332600196613324600080516020613ecd833981519152956132c788613213565b898060a01b03809116978860005260046020526132e8816040600020613265565b169788600052600560205260406000208a60ff19825416179055604051958695606087526060870190611f78565b908582036020870152611f78565b908382036040850152611f78565b0390a4565b9161331690613332600296613324600080516020613ecd8339815191529561335e88613213565b60018060a01b03809116978860005260046020526132e8816040600020613265565b9161331690613332600c96613324600080516020613ecd8339815191529561335e88613213565b9390926133b385613213565b60018060a01b038094169360009585875260046020526133d68160408920613265565b169485815260056020526040812090600d88101561342d575061331692613324600080516020613ecd83398151915295936133329360ff80198254169b16809b179055604051958695606087526060870190611f78565b634e487b7160e01b81526021600452602490fd5b61344d90929192613e13565b5061ffff908116918116820190808211611260576127109116036134865715908115806134ab575b6134865781613498575b5061348657565b60405163694f6dbf60e11b8152600490fd5b6001600160a01b0316151590503861347f565b506001600160a01b03811615613475565b519060ff8216820361023057565b602081830312610230578051906001600160401b038211610230570181601f820112156102305780516134fc81611d1b565b9261350a6040519485611c2b565b8184526020828401011161023057612c369160208085019101611f55565b519061ffff8216820361023057565b90610160820191825151156134865760018060a01b0392837f000000000000000000000000000000000000000000000000000000000000000016916101808101805195835192835160208095012092604096875163a2e8bb1b60e01b815260049a8b820152602495868201528681604481855afa908115613a405791858a928994600091613dd8575b501660005260068352816000209360ff1994600c868254161790555198519860008d61360985519c8d96879586946366e5bb0560e11b86528501528c8401526044830190611f78565b03925af1958615613dcd57600096613d96575b5082861695866000526005916005875260ff896000205416600d811015613d825715801590613d5f575b61391b5787600052600687528860002090815416905587516302d05d3f60e01b815286818c818b5afa908115613a4057600091613d2a575b5084163314801590613cc7575b8015613c5f575b8015613bda575b8015613b61575b8015613af7575b8015613aa2575b8015613a4b575b80156139e2575b6139d257875163db9b541360e01b815261012099908a818d818c5afa9081156139c75760008080928194613978575b5060a088015180613972575042925b60608901511493841594613963575b508315613958575b50821561392b575b505061391b5760005b60c085015180518210156137be5781851b018801518a51633af32abf60e01b81529087168d820152888189818d5afa9081156137b35760009161377e575b501561376e57600101613722565b895163694f6dbf60e11b81528c90fd5b908982813d83116137ac575b6137948183611c2b565b81010312612e8f57506137a690611c93565b38613760565b503d61378a565b8b513d6000823e3d90fd5b505098945098969587915060c09087519283809263c57da02960e01b82525afa938415613910576000958680918194829861388b575b505015968715613874575b50861561385c575b508515613846575b50508315613830575b505050613823575050565b5163694f6dbf60e11b8152fd5b8192935061014001511691161415388080613818565b82015161ffff918216911614159350388061380f565b61010084015161ffff91821691161415955038613807565b60e085015161ffff918216911614159650386137ff565b945097509195505060c0823d60c011613908575b816138ac60c09383611c2b565b81010312612e8f57506138c96138c182611c93565b958201613528565b936138d5878301613528565b956138e260608401613528565b906138fb60a06138f460808701611c4e565b9501611c93565b50959690929538806137f4565b3d915061389f565b86513d6000823e3d90fd5b885163694f6dbf60e11b81528b90fd5b9091506201518082018092116139445714153880613719565b8760118e634e487b7160e01b600052526000fd5b821415925038613711565b60808901511415935038613709565b926136fa565b93509150508b82813d83116139c0575b6139928183611c2b565b81010312612e8f57506139a4816134bc565b50808801518a82015160608301516080909301519291386136eb565b503d613988565b8a513d6000823e3d90fd5b875163694f6dbf60e11b81528a90fd5b50875162fb90e360e21b81526000818c818b5afa908115613a4057600091613a1d575b508681519101208884015187815191012014156136bc565b613a3a91503d806000833e613a328183611c2b565b8101906134ca565b38613a05565b89513d6000823e3d90fd5b5087516395d89b4160e01b81526000818c818b5afa908115613a4057600091613a87575b508681519101208684015187815191012014156136b5565b613a9c91503d806000833e613a328183611c2b565b38613a6f565b5087516306fdde0360e01b81526000818c818b5afa908115613a4057600091613adc575b50868151910120835187815191012014156136ae565b613af191503d806000833e613a328183611c2b565b38613ac6565b508751630b37dd6960e41b815286818c818b5afa908115613a4057600091613b27575b5060ff16600c14156136a7565b90508681813d8311613b5a575b613b3e8183611c2b565b810103126102305760ff613b53600c926134bc565b9150613b1a565b503d613b34565b508751633993152760e01b815286818c818b5afa908115613a4057600091613bad575b507f000000000000000000000000000000000000000000000000000000000000000014156136a0565b90508681813d8311613bd3575b613bc48183611c2b565b81010312610230575138613b84565b503d613bba565b5087516303e21fa960e61b815286818c818b5afa908115613a4057600091613c2a575b5084167f000000000000000000000000000000000000000000000000000000000000000085161415613699565b90508681813d8311613c58575b613c418183611c2b565b8101031261023057613c5290611c4e565b38613bfd565b503d613c37565b50875163326f824f60e11b815286818c818b5afa908115613a4057600091613c92575b5084806001541691161415613692565b90508681813d8311613cc0575b613ca98183611c2b565b8101031261023057613cba90611c4e565b38613c82565b503d613c9f565b50875163c45a015560e01b815286818c818b5afa908115613a4057600091613cf5575b50841630141561368b565b90508681813d8311613d23575b613d0c8183611c2b565b8101031261023057613d1d90611c4e565b38613cea565b503d613d02565b90508681813d8311613d58575b613d418183611c2b565b8101031261023057613d5290611c4e565b3861367e565b503d613d37565b50876000526006875260ff896000205416600d811015613d8257600c1415613646565b8660218d634e487b7160e01b600052526000fd5b9095508481813d8311613dc6575b613dae8183611c2b565b8101031261023057613dbf90611c4e565b943861361c565b503d613da4565b87513d6000823e3d90fd5b935050509181813d8311613e0c575b613df18183611c2b565b8101031261023057869185613e068b93611c4e565b386135c0565b503d613de7565b61ffff1660648114613ea65760c88114613ea05761012c8114613e9a576101908114613e94576101f48114613e8e576102588114613e88576102bc8114613e82576103208114613e7c5761038414613e77576040516328900fbf60e21b8152600490fd5b600b90565b50600a90565b50600990565b50600890565b50600790565b50600690565b50600590565b50600490565b5060039056fec2575a0e9e593c00f959f8c92f12db2869c3395a3b0502d05e2516446f71f85bb2a470af4bdbb3fda0e3ebc0d14bad66c79bef675ede7a82d1726ea951375eb78be0079c531659141344cd1fd0a4f28419497f9722a3daafe3b4186f6b6457e0a26469706673582212206dee2e7aa04a812f310b884d2689fab3efd8144ee41c489e6bc0880060f77bed64736f6c63430008180033",
  "linkReferences": {},
  "deployedLinkReferences": {}
}