{
  "_format": "hh-sol-artifact-1",
  "contractName": "LaunchTokenWhitelist",
  "sourceName": "contracts/LaunchTokenWhitelist.sol",
  "abi": [
    {
      "inputs": [
        {
          "components": [
            {
              "internalType": "string",
              "name": "name",
              "type": "string"
            },
            {
              "internalType": "string",
              "name": "symbol",
              "type": "string"
            },
            {
              "internalType": "string",
              "name": "metadataURI",
              "type": "string"
            },
            {
              "internalType": "address",
              "name": "creator",
              "type": "address"
            },
            {
              "internalType": "address",
              "name": "factory",
              "type": "address"
            },
            {
              "internalType": "address",
              "name": "protocolFeeRecipient",
              "type": "address"
            },
            {
              "internalType": "address",
              "name": "router",
              "type": "address"
            },
            {
              "internalType": "uint256",
              "name": "graduationQuoteReserve",
              "type": "uint256"
            },
            {
              "internalType": "uint256",
              "name": "whitelistThreshold",
              "type": "uint256"
            },
            {
              "internalType": "uint256",
              "name": "whitelistSlotSize",
              "type": "uint256"
            },
            {
              "internalType": "uint256",
              "name": "whitelistOpensAt",
              "type": "uint256"
            },
            {
              "internalType": "address[]",
              "name": "whitelistAddresses",
              "type": "address[]"
            },
            {
              "internalType": "uint8",
              "name": "launchModeId",
              "type": "uint8"
            }
          ],
          "internalType": "struct LaunchTokenWhitelist.ConstructorArgs",
          "name": "args",
          "type": "tuple"
        }
      ],
      "stateMutability": "nonpayable",
      "type": "constructor"
    },
    {
      "inputs": [],
      "name": "CreatorFeeSweepUnavailable",
      "type": "error"
    },
    {
      "inputs": [],
      "name": "DuplicateWhitelistAddress",
      "type": "error"
    },
    {
      "inputs": [
        {
          "internalType": "address",
          "name": "spender",
          "type": "address"
        },
        {
          "internalType": "uint256",
          "name": "allowance",
          "type": "uint256"
        },
        {
          "internalType": "uint256",
          "name": "needed",
          "type": "uint256"
        }
      ],
      "name": "ERC20InsufficientAllowance",
      "type": "error"
    },
    {
      "inputs": [
        {
          "internalType": "address",
          "name": "sender",
          "type": "address"
        },
        {
          "internalType": "uint256",
          "name": "balance",
          "type": "uint256"
        },
        {
          "internalType": "uint256",
          "name": "needed",
          "type": "uint256"
        }
      ],
      "name": "ERC20InsufficientBalance",
      "type": "error"
    },
    {
      "inputs": [
        {
          "internalType": "address",
          "name": "approver",
          "type": "address"
        }
      ],
      "name": "ERC20InvalidApprover",
      "type": "error"
    },
    {
      "inputs": [
        {
          "internalType": "address",
          "name": "receiver",
          "type": "address"
        }
      ],
      "name": "ERC20InvalidReceiver",
      "type": "error"
    },
    {
      "inputs": [
        {
          "internalType": "address",
          "name": "sender",
          "type": "address"
        }
      ],
      "name": "ERC20InvalidSender",
      "type": "error"
    },
    {
      "inputs": [
        {
          "internalType": "address",
          "name": "spender",
          "type": "address"
        }
      ],
      "name": "ERC20InvalidSpender",
      "type": "error"
    },
    {
      "inputs": [],
      "name": "FailedCall",
      "type": "error"
    },
    {
      "inputs": [],
      "name": "GraduationAlreadyTriggered",
      "type": "error"
    },
    {
      "inputs": [
        {
          "internalType": "uint256",
          "name": "balance",
          "type": "uint256"
        },
        {
          "internalType": "uint256",
          "name": "needed",
          "type": "uint256"
        }
      ],
      "name": "InsufficientBalance",
      "type": "error"
    },
    {
      "inputs": [],
      "name": "InvalidGraduationConfig",
      "type": "error"
    },
    {
      "inputs": [],
      "name": "InvalidRecipient",
      "type": "error"
    },
    {
      "inputs": [],
      "name": "InvalidState",
      "type": "error"
    },
    {
      "inputs": [],
      "name": "InvalidWhitelistAddressCount",
      "type": "error"
    },
    {
      "inputs": [],
      "name": "InvalidWhitelistCommitAmount",
      "type": "error"
    },
    {
      "inputs": [],
      "name": "InvalidWhitelistOpenTime",
      "type": "error"
    },
    {
      "inputs": [],
      "name": "InvalidWhitelistSeatCount",
      "type": "error"
    },
    {
      "inputs": [],
      "name": "InvalidWhitelistSlotSize",
      "type": "error"
    },
    {
      "inputs": [],
      "name": "InvalidWhitelistThreshold",
      "type": "error"
    },
    {
      "inputs": [],
      "name": "NothingToClaim",
      "type": "error"
    },
    {
      "inputs": [],
      "name": "PairPolluted",
      "type": "error"
    },
    {
      "inputs": [],
      "name": "ReentrancyGuardReentrantCall",
      "type": "error"
    },
    {
      "inputs": [],
      "name": "SellCooldownActive",
      "type": "error"
    },
    {
      "inputs": [],
      "name": "SlippageExceeded",
      "type": "error"
    },
    {
      "inputs": [],
      "name": "TransferDisabledPreGraduation",
      "type": "error"
    },
    {
      "inputs": [],
      "name": "Unauthorized",
      "type": "error"
    },
    {
      "inputs": [],
      "name": "UnauthorizedFactoryCaller",
      "type": "error"
    },
    {
      "inputs": [],
      "name": "UnauthorizedFactoryDeployment",
      "type": "error"
    },
    {
      "inputs": [],
      "name": "WhitelistAddressNotApproved",
      "type": "error"
    },
    {
      "inputs": [],
      "name": "WhitelistAllocationUnavailable",
      "type": "error"
    },
    {
      "inputs": [],
      "name": "WhitelistAlreadyCommitted",
      "type": "error"
    },
    {
      "inputs": [],
      "name": "WhitelistNotActive",
      "type": "error"
    },
    {
      "inputs": [],
      "name": "WhitelistRefundUnavailable",
      "type": "error"
    },
    {
      "inputs": [],
      "name": "WhitelistSeatUnavailable",
      "type": "error"
    },
    {
      "inputs": [],
      "name": "WrappedQuoteTransferFailed",
      "type": "error"
    },
    {
      "inputs": [],
      "name": "ZeroAddress",
      "type": "error"
    },
    {
      "inputs": [],
      "name": "ZeroAmount",
      "type": "error"
    },
    {
      "anonymous": false,
      "inputs": [
        {
          "indexed": true,
          "internalType": "address",
          "name": "owner",
          "type": "address"
        },
        {
          "indexed": true,
          "internalType": "address",
          "name": "spender",
          "type": "address"
        },
        {
          "indexed": false,
          "internalType": "uint256",
          "name": "value",
          "type": "uint256"
        }
      ],
      "name": "Approval",
      "type": "event"
    },
    {
      "anonymous": false,
      "inputs": [
        {
          "indexed": true,
          "internalType": "address",
          "name": "buyer",
          "type": "address"
        },
        {
          "indexed": false,
          "internalType": "uint256",
          "name": "grossQuoteIn",
          "type": "uint256"
        },
        {
          "indexed": false,
          "internalType": "uint256",
          "name": "netQuoteIn",
          "type": "uint256"
        },
        {
          "indexed": false,
          "internalType": "uint256",
          "name": "protocolFee",
          "type": "uint256"
        },
        {
          "indexed": false,
          "internalType": "uint256",
          "name": "creatorFee",
          "type": "uint256"
        },
        {
          "indexed": false,
          "internalType": "uint256",
          "name": "refundAmount",
          "type": "uint256"
        },
        {
          "indexed": false,
          "internalType": "uint256",
          "name": "tokenOut",
          "type": "uint256"
        },
        {
          "indexed": false,
          "internalType": "uint256",
          "name": "newCurveQuoteReserve",
          "type": "uint256"
        },
        {
          "indexed": false,
          "internalType": "uint256",
          "name": "newSaleTokenReserve",
          "type": "uint256"
        }
      ],
      "name": "BuyExecuted",
      "type": "event"
    },
    {
      "anonymous": false,
      "inputs": [
        {
          "indexed": true,
          "internalType": "address",
          "name": "recipient",
          "type": "address"
        },
        {
          "indexed": false,
          "internalType": "uint256",
          "name": "amount",
          "type": "uint256"
        }
      ],
      "name": "CreatorFeesClaimed",
      "type": "event"
    },
    {
      "anonymous": false,
      "inputs": [
        {
          "indexed": true,
          "internalType": "address",
          "name": "caller",
          "type": "address"
        },
        {
          "indexed": false,
          "internalType": "uint256",
          "name": "amount",
          "type": "uint256"
        }
      ],
      "name": "CreatorFeesSwept",
      "type": "event"
    },
    {
      "anonymous": false,
      "inputs": [
        {
          "indexed": true,
          "internalType": "address",
          "name": "pair",
          "type": "address"
        },
        {
          "indexed": false,
          "internalType": "uint256",
          "name": "tokenAmount",
          "type": "uint256"
        },
        {
          "indexed": false,
          "internalType": "uint256",
          "name": "quoteAmountContributed",
          "type": "uint256"
        },
        {
          "indexed": false,
          "internalType": "uint256",
          "name": "preloadedQuoteAmount",
          "type": "uint256"
        },
        {
          "indexed": false,
          "internalType": "uint256",
          "name": "liquidityBurned",
          "type": "uint256"
        }
      ],
      "name": "Graduated",
      "type": "event"
    },
    {
      "anonymous": false,
      "inputs": [
        {
          "indexed": true,
          "internalType": "address",
          "name": "recipient",
          "type": "address"
        },
        {
          "indexed": false,
          "internalType": "uint256",
          "name": "amount",
          "type": "uint256"
        }
      ],
      "name": "ProtocolFeesClaimed",
      "type": "event"
    },
    {
      "anonymous": false,
      "inputs": [
        {
          "indexed": true,
          "internalType": "address",
          "name": "seller",
          "type": "address"
        },
        {
          "indexed": false,
          "internalType": "uint256",
          "name": "tokenIn",
          "type": "uint256"
        },
        {
          "indexed": false,
          "internalType": "uint256",
          "name": "grossQuoteOut",
          "type": "uint256"
        },
        {
          "indexed": false,
          "internalType": "uint256",
          "name": "netQuoteOut",
          "type": "uint256"
        },
        {
          "indexed": false,
          "internalType": "uint256",
          "name": "protocolFee",
          "type": "uint256"
        },
        {
          "indexed": false,
          "internalType": "uint256",
          "name": "creatorFee",
          "type": "uint256"
        },
        {
          "indexed": false,
          "internalType": "uint256",
          "name": "newCurveQuoteReserve",
          "type": "uint256"
        },
        {
          "indexed": false,
          "internalType": "uint256",
          "name": "newSaleTokenReserve",
          "type": "uint256"
        }
      ],
      "name": "SellExecuted",
      "type": "event"
    },
    {
      "anonymous": false,
      "inputs": [
        {
          "indexed": true,
          "internalType": "enum LaunchTokenBase.LaunchState",
          "name": "previousState",
          "type": "uint8"
        },
        {
          "indexed": true,
          "internalType": "enum LaunchTokenBase.LaunchState",
          "name": "newState",
          "type": "uint8"
        }
      ],
      "name": "StateTransition",
      "type": "event"
    },
    {
      "anonymous": false,
      "inputs": [
        {
          "indexed": true,
          "internalType": "address",
          "name": "from",
          "type": "address"
        },
        {
          "indexed": true,
          "internalType": "address",
          "name": "to",
          "type": "address"
        },
        {
          "indexed": false,
          "internalType": "uint256",
          "name": "value",
          "type": "uint256"
        }
      ],
      "name": "Transfer",
      "type": "event"
    },
    {
      "anonymous": false,
      "inputs": [
        {
          "indexed": true,
          "internalType": "address",
          "name": "account",
          "type": "address"
        },
        {
          "indexed": false,
          "internalType": "uint256",
          "name": "tokenAmount",
          "type": "uint256"
        }
      ],
      "name": "WhitelistAllocationClaimed",
      "type": "event"
    },
    {
      "anonymous": false,
      "inputs": [
        {
          "indexed": false,
          "internalType": "uint256",
          "name": "threshold",
          "type": "uint256"
        },
        {
          "indexed": false,
          "internalType": "uint256",
          "name": "slotSize",
          "type": "uint256"
        },
        {
          "indexed": false,
          "internalType": "uint256",
          "name": "seatCount",
          "type": "uint256"
        },
        {
          "indexed": false,
          "internalType": "uint256",
          "name": "opensAt",
          "type": "uint256"
        },
        {
          "indexed": false,
          "internalType": "uint256",
          "name": "deadline",
          "type": "uint256"
        }
      ],
      "name": "WhitelistConfigured",
      "type": "event"
    },
    {
      "anonymous": false,
      "inputs": [
        {
          "indexed": false,
          "internalType": "uint256",
          "name": "committedTotal",
          "type": "uint256"
        },
        {
          "indexed": false,
          "internalType": "uint256",
          "name": "seatsFilled",
          "type": "uint256"
        }
      ],
      "name": "WhitelistExpired",
      "type": "event"
    },
    {
      "anonymous": false,
      "inputs": [
        {
          "indexed": false,
          "internalType": "uint256",
          "name": "grossCommitted",
          "type": "uint256"
        },
        {
          "indexed": false,
          "internalType": "uint256",
          "name": "netQuoteAdded",
          "type": "uint256"
        },
        {
          "indexed": false,
          "internalType": "uint256",
          "name": "protocolFee",
          "type": "uint256"
        },
        {
          "indexed": false,
          "internalType": "uint256",
          "name": "creatorFee",
          "type": "uint256"
        },
        {
          "indexed": false,
          "internalType": "uint256",
          "name": "seatsFilled",
          "type": "uint256"
        },
        {
          "indexed": false,
          "internalType": "uint256",
          "name": "tokensPerSeat",
          "type": "uint256"
        },
        {
          "indexed": false,
          "internalType": "uint256",
          "name": "reservedTokenAmount",
          "type": "uint256"
        }
      ],
      "name": "WhitelistFinalized",
      "type": "event"
    },
    {
      "anonymous": false,
      "inputs": [
        {
          "indexed": true,
          "internalType": "address",
          "name": "account",
          "type": "address"
        },
        {
          "indexed": false,
          "internalType": "uint256",
          "name": "amount",
          "type": "uint256"
        }
      ],
      "name": "WhitelistRefundClaimed",
      "type": "event"
    },
    {
      "anonymous": false,
      "inputs": [
        {
          "indexed": true,
          "internalType": "address",
          "name": "account",
          "type": "address"
        },
        {
          "indexed": false,
          "internalType": "uint256",
          "name": "seatNumber",
          "type": "uint256"
        },
        {
          "indexed": false,
          "internalType": "uint256",
          "name": "amount",
          "type": "uint256"
        },
        {
          "indexed": false,
          "internalType": "uint256",
          "name": "committedTotal",
          "type": "uint256"
        }
      ],
      "name": "WhitelistSeatCommitted",
      "type": "event"
    },
    {
      "inputs": [],
      "name": "BPS_DENOMINATOR",
      "outputs": [
        {
          "internalType": "uint256",
          "name": "",
          "type": "uint256"
        }
      ],
      "stateMutability": "view",
      "type": "function"
    },
    {
      "inputs": [],
      "name": "CREATOR_FEE_BPS",
      "outputs": [
        {
          "internalType": "uint256",
          "name": "",
          "type": "uint256"
        }
      ],
      "stateMutability": "view",
      "type": "function"
    },
    {
      "inputs": [],
      "name": "CREATOR_FEE_SWEEP_MIN_AGE",
      "outputs": [
        {
          "internalType": "uint256",
          "name": "",
          "type": "uint256"
        }
      ],
      "stateMutability": "view",
      "type": "function"
    },
    {
      "inputs": [],
      "name": "CREATOR_FEE_SWEEP_MIN_INACTIVITY",
      "outputs": [
        {
          "internalType": "uint256",
          "name": "",
          "type": "uint256"
        }
      ],
      "stateMutability": "view",
      "type": "function"
    },
    {
      "inputs": [],
      "name": "DEAD_ADDRESS",
      "outputs": [
        {
          "internalType": "address",
          "name": "",
          "type": "address"
        }
      ],
      "stateMutability": "view",
      "type": "function"
    },
    {
      "inputs": [],
      "name": "LP_TOKEN_RESERVE",
      "outputs": [
        {
          "internalType": "uint256",
          "name": "",
          "type": "uint256"
        }
      ],
      "stateMutability": "view",
      "type": "function"
    },
    {
      "inputs": [],
      "name": "MAX_SEATS",
      "outputs": [
        {
          "internalType": "uint256",
          "name": "",
          "type": "uint256"
        }
      ],
      "stateMutability": "view",
      "type": "function"
    },
    {
      "inputs": [],
      "name": "MAX_WHITELIST_DELAY",
      "outputs": [
        {
          "internalType": "uint256",
          "name": "",
          "type": "uint256"
        }
      ],
      "stateMutability": "view",
      "type": "function"
    },
    {
      "inputs": [],
      "name": "MODE_STANDARD_0314",
      "outputs": [
        {
          "internalType": "uint8",
          "name": "",
          "type": "uint8"
        }
      ],
      "stateMutability": "view",
      "type": "function"
    },
    {
      "inputs": [],
      "name": "MODE_TAXED_1314",
      "outputs": [
        {
          "internalType": "uint8",
          "name": "",
          "type": "uint8"
        }
      ],
      "stateMutability": "view",
      "type": "function"
    },
    {
      "inputs": [],
      "name": "MODE_TAXED_2314",
      "outputs": [
        {
          "internalType": "uint8",
          "name": "",
          "type": "uint8"
        }
      ],
      "stateMutability": "view",
      "type": "function"
    },
    {
      "inputs": [],
      "name": "MODE_TAXED_3314",
      "outputs": [
        {
          "internalType": "uint8",
          "name": "",
          "type": "uint8"
        }
      ],
      "stateMutability": "view",
      "type": "function"
    },
    {
      "inputs": [],
      "name": "MODE_TAXED_4314",
      "outputs": [
        {
          "internalType": "uint8",
          "name": "",
          "type": "uint8"
        }
      ],
      "stateMutability": "view",
      "type": "function"
    },
    {
      "inputs": [],
      "name": "MODE_TAXED_5314",
      "outputs": [
        {
          "internalType": "uint8",
          "name": "",
          "type": "uint8"
        }
      ],
      "stateMutability": "view",
      "type": "function"
    },
    {
      "inputs": [],
      "name": "MODE_TAXED_6314",
      "outputs": [
        {
          "internalType": "uint8",
          "name": "",
          "type": "uint8"
        }
      ],
      "stateMutability": "view",
      "type": "function"
    },
    {
      "inputs": [],
      "name": "MODE_TAXED_7314",
      "outputs": [
        {
          "internalType": "uint8",
          "name": "",
          "type": "uint8"
        }
      ],
      "stateMutability": "view",
      "type": "function"
    },
    {
      "inputs": [],
      "name": "MODE_TAXED_8314",
      "outputs": [
        {
          "internalType": "uint8",
          "name": "",
          "type": "uint8"
        }
      ],
      "stateMutability": "view",
      "type": "function"
    },
    {
      "inputs": [],
      "name": "MODE_TAXED_9314",
      "outputs": [
        {
          "internalType": "uint8",
          "name": "",
          "type": "uint8"
        }
      ],
      "stateMutability": "view",
      "type": "function"
    },
    {
      "inputs": [],
      "name": "MODE_WHITELIST_B314",
      "outputs": [
        {
          "internalType": "uint8",
          "name": "",
          "type": "uint8"
        }
      ],
      "stateMutability": "view",
      "type": "function"
    },
    {
      "inputs": [],
      "name": "MODE_WHITELIST_TAX_F314",
      "outputs": [
        {
          "internalType": "uint8",
          "name": "",
          "type": "uint8"
        }
      ],
      "stateMutability": "view",
      "type": "function"
    },
    {
      "inputs": [],
      "name": "PROTOCOL_FEE_BPS",
      "outputs": [
        {
          "internalType": "uint256",
          "name": "",
          "type": "uint256"
        }
      ],
      "stateMutability": "view",
      "type": "function"
    },
    {
      "inputs": [],
      "name": "SALE_TOKEN_RESERVE",
      "outputs": [
        {
          "internalType": "uint256",
          "name": "",
          "type": "uint256"
        }
      ],
      "stateMutability": "view",
      "type": "function"
    },
    {
      "inputs": [],
      "name": "SLOT_01_BNB",
      "outputs": [
        {
          "internalType": "uint256",
          "name": "",
          "type": "uint256"
        }
      ],
      "stateMutability": "view",
      "type": "function"
    },
    {
      "inputs": [],
      "name": "SLOT_02_BNB",
      "outputs": [
        {
          "internalType": "uint256",
          "name": "",
          "type": "uint256"
        }
      ],
      "stateMutability": "view",
      "type": "function"
    },
    {
      "inputs": [],
      "name": "SLOT_05_BNB",
      "outputs": [
        {
          "internalType": "uint256",
          "name": "",
          "type": "uint256"
        }
      ],
      "stateMutability": "view",
      "type": "function"
    },
    {
      "inputs": [],
      "name": "SLOT_1_BNB",
      "outputs": [
        {
          "internalType": "uint256",
          "name": "",
          "type": "uint256"
        }
      ],
      "stateMutability": "view",
      "type": "function"
    },
    {
      "inputs": [],
      "name": "THRESHOLD_4_BNB",
      "outputs": [
        {
          "internalType": "uint256",
          "name": "",
          "type": "uint256"
        }
      ],
      "stateMutability": "view",
      "type": "function"
    },
    {
      "inputs": [],
      "name": "THRESHOLD_6_BNB",
      "outputs": [
        {
          "internalType": "uint256",
          "name": "",
          "type": "uint256"
        }
      ],
      "stateMutability": "view",
      "type": "function"
    },
    {
      "inputs": [],
      "name": "THRESHOLD_8_BNB",
      "outputs": [
        {
          "internalType": "uint256",
          "name": "",
          "type": "uint256"
        }
      ],
      "stateMutability": "view",
      "type": "function"
    },
    {
      "inputs": [],
      "name": "TOTAL_FEE_BPS",
      "outputs": [
        {
          "internalType": "uint256",
          "name": "",
          "type": "uint256"
        }
      ],
      "stateMutability": "view",
      "type": "function"
    },
    {
      "inputs": [],
      "name": "TOTAL_SUPPLY",
      "outputs": [
        {
          "internalType": "uint256",
          "name": "",
          "type": "uint256"
        }
      ],
      "stateMutability": "view",
      "type": "function"
    },
    {
      "inputs": [],
      "name": "VIRTUAL_QUOTE_DIVISOR",
      "outputs": [
        {
          "internalType": "uint256",
          "name": "",
          "type": "uint256"
        }
      ],
      "stateMutability": "view",
      "type": "function"
    },
    {
      "inputs": [],
      "name": "WHITELIST_DURATION",
      "outputs": [
        {
          "internalType": "uint256",
          "name": "",
          "type": "uint256"
        }
      ],
      "stateMutability": "view",
      "type": "function"
    },
    {
      "inputs": [],
      "name": "WHITELIST_STATUS_ACTIVE",
      "outputs": [
        {
          "internalType": "uint8",
          "name": "",
          "type": "uint8"
        }
      ],
      "stateMutability": "view",
      "type": "function"
    },
    {
      "inputs": [],
      "name": "WHITELIST_STATUS_EXPIRED",
      "outputs": [
        {
          "internalType": "uint8",
          "name": "",
          "type": "uint8"
        }
      ],
      "stateMutability": "view",
      "type": "function"
    },
    {
      "inputs": [],
      "name": "WHITELIST_STATUS_FINALIZED",
      "outputs": [
        {
          "internalType": "uint8",
          "name": "",
          "type": "uint8"
        }
      ],
      "stateMutability": "view",
      "type": "function"
    },
    {
      "inputs": [],
      "name": "WHITELIST_STATUS_NONE",
      "outputs": [
        {
          "internalType": "uint8",
          "name": "",
          "type": "uint8"
        }
      ],
      "stateMutability": "view",
      "type": "function"
    },
    {
      "inputs": [],
      "name": "WHITELIST_STATUS_SCHEDULED",
      "outputs": [
        {
          "internalType": "uint8",
          "name": "",
          "type": "uint8"
        }
      ],
      "stateMutability": "view",
      "type": "function"
    },
    {
      "inputs": [],
      "name": "accountedNativeBalance",
      "outputs": [
        {
          "internalType": "uint256",
          "name": "",
          "type": "uint256"
        }
      ],
      "stateMutability": "view",
      "type": "function"
    },
    {
      "inputs": [],
      "name": "advanceWhitelistPhase",
      "outputs": [],
      "stateMutability": "nonpayable",
      "type": "function"
    },
    {
      "inputs": [
        {
          "internalType": "address",
          "name": "owner",
          "type": "address"
        },
        {
          "internalType": "address",
          "name": "spender",
          "type": "address"
        }
      ],
      "name": "allowance",
      "outputs": [
        {
          "internalType": "uint256",
          "name": "",
          "type": "uint256"
        }
      ],
      "stateMutability": "view",
      "type": "function"
    },
    {
      "inputs": [
        {
          "internalType": "address",
          "name": "spender",
          "type": "address"
        },
        {
          "internalType": "uint256",
          "name": "value",
          "type": "uint256"
        }
      ],
      "name": "approve",
      "outputs": [
        {
          "internalType": "bool",
          "name": "",
          "type": "bool"
        }
      ],
      "stateMutability": "nonpayable",
      "type": "function"
    },
    {
      "inputs": [
        {
          "internalType": "address",
          "name": "account",
          "type": "address"
        }
      ],
      "name": "balanceOf",
      "outputs": [
        {
          "internalType": "uint256",
          "name": "",
          "type": "uint256"
        }
      ],
      "stateMutability": "view",
      "type": "function"
    },
    {
      "inputs": [
        {
          "internalType": "uint256",
          "name": "minTokenOut",
          "type": "uint256"
        }
      ],
      "name": "buy",
      "outputs": [
        {
          "internalType": "uint256",
          "name": "tokenOut",
          "type": "uint256"
        }
      ],
      "stateMutability": "payable",
      "type": "function"
    },
    {
      "inputs": [
        {
          "internalType": "address",
          "name": "account",
          "type": "address"
        }
      ],
      "name": "canClaimWhitelistAllocation",
      "outputs": [
        {
          "internalType": "bool",
          "name": "",
          "type": "bool"
        }
      ],
      "stateMutability": "view",
      "type": "function"
    },
    {
      "inputs": [
        {
          "internalType": "address",
          "name": "account",
          "type": "address"
        }
      ],
      "name": "canClaimWhitelistRefund",
      "outputs": [
        {
          "internalType": "bool",
          "name": "",
          "type": "bool"
        }
      ],
      "stateMutability": "view",
      "type": "function"
    },
    {
      "inputs": [
        {
          "internalType": "address",
          "name": "account",
          "type": "address"
        }
      ],
      "name": "canCommitWhitelist",
      "outputs": [
        {
          "internalType": "bool",
          "name": "",
          "type": "bool"
        }
      ],
      "stateMutability": "view",
      "type": "function"
    },
    {
      "inputs": [
        {
          "internalType": "address",
          "name": "account",
          "type": "address"
        }
      ],
      "name": "canSell",
      "outputs": [
        {
          "internalType": "bool",
          "name": "",
          "type": "bool"
        }
      ],
      "stateMutability": "view",
      "type": "function"
    },
    {
      "inputs": [],
      "name": "claimCreatorFees",
      "outputs": [
        {
          "internalType": "uint256",
          "name": "amount",
          "type": "uint256"
        }
      ],
      "stateMutability": "nonpayable",
      "type": "function"
    },
    {
      "inputs": [
        {
          "internalType": "address payable",
          "name": "recipient",
          "type": "address"
        }
      ],
      "name": "claimCreatorFeesTo",
      "outputs": [
        {
          "internalType": "uint256",
          "name": "amount",
          "type": "uint256"
        }
      ],
      "stateMutability": "nonpayable",
      "type": "function"
    },
    {
      "inputs": [],
      "name": "claimProtocolFees",
      "outputs": [
        {
          "internalType": "uint256",
          "name": "amount",
          "type": "uint256"
        }
      ],
      "stateMutability": "nonpayable",
      "type": "function"
    },
    {
      "inputs": [
        {
          "internalType": "address payable",
          "name": "recipient",
          "type": "address"
        }
      ],
      "name": "claimProtocolFeesTo",
      "outputs": [
        {
          "internalType": "uint256",
          "name": "amount",
          "type": "uint256"
        }
      ],
      "stateMutability": "nonpayable",
      "type": "function"
    },
    {
      "inputs": [],
      "name": "claimWhitelistAllocation",
      "outputs": [
        {
          "internalType": "uint256",
          "name": "tokenAmount",
          "type": "uint256"
        }
      ],
      "stateMutability": "nonpayable",
      "type": "function"
    },
    {
      "inputs": [],
      "name": "claimWhitelistRefund",
      "outputs": [
        {
          "internalType": "uint256",
          "name": "refundAmount",
          "type": "uint256"
        }
      ],
      "stateMutability": "nonpayable",
      "type": "function"
    },
    {
      "inputs": [],
      "name": "commitWhitelistSeat",
      "outputs": [],
      "stateMutability": "payable",
      "type": "function"
    },
    {
      "inputs": [],
      "name": "createdAt",
      "outputs": [
        {
          "internalType": "uint256",
          "name": "",
          "type": "uint256"
        }
      ],
      "stateMutability": "view",
      "type": "function"
    },
    {
      "inputs": [],
      "name": "creator",
      "outputs": [
        {
          "internalType": "address",
          "name": "",
          "type": "address"
        }
      ],
      "stateMutability": "view",
      "type": "function"
    },
    {
      "inputs": [],
      "name": "creatorClaimable",
      "outputs": [
        {
          "internalType": "uint256",
          "name": "",
          "type": "uint256"
        }
      ],
      "stateMutability": "view",
      "type": "function"
    },
    {
      "inputs": [],
      "name": "creatorFeeSweepReady",
      "outputs": [
        {
          "internalType": "bool",
          "name": "",
          "type": "bool"
        }
      ],
      "stateMutability": "view",
      "type": "function"
    },
    {
      "inputs": [],
      "name": "creatorFeeVault",
      "outputs": [
        {
          "internalType": "uint256",
          "name": "",
          "type": "uint256"
        }
      ],
      "stateMutability": "view",
      "type": "function"
    },
    {
      "inputs": [],
      "name": "currentPriceQuotePerToken",
      "outputs": [
        {
          "internalType": "uint256",
          "name": "",
          "type": "uint256"
        }
      ],
      "stateMutability": "view",
      "type": "function"
    },
    {
      "inputs": [],
      "name": "curveQuoteReserve",
      "outputs": [
        {
          "internalType": "uint256",
          "name": "",
          "type": "uint256"
        }
      ],
      "stateMutability": "view",
      "type": "function"
    },
    {
      "inputs": [],
      "name": "decimals",
      "outputs": [
        {
          "internalType": "uint8",
          "name": "",
          "type": "uint8"
        }
      ],
      "stateMutability": "view",
      "type": "function"
    },
    {
      "inputs": [],
      "name": "dexFactory",
      "outputs": [
        {
          "internalType": "address",
          "name": "",
          "type": "address"
        }
      ],
      "stateMutability": "view",
      "type": "function"
    },
    {
      "inputs": [],
      "name": "dexReserves",
      "outputs": [
        {
          "internalType": "uint256",
          "name": "tokenReserve",
          "type": "uint256"
        },
        {
          "internalType": "uint256",
          "name": "quoteReserve",
          "type": "uint256"
        }
      ],
      "stateMutability": "view",
      "type": "function"
    },
    {
      "inputs": [],
      "name": "displayGraduationProgressBps",
      "outputs": [
        {
          "internalType": "uint256",
          "name": "",
          "type": "uint256"
        }
      ],
      "stateMutability": "view",
      "type": "function"
    },
    {
      "inputs": [],
      "name": "factory",
      "outputs": [
        {
          "internalType": "address",
          "name": "",
          "type": "address"
        }
      ],
      "stateMutability": "view",
      "type": "function"
    },
    {
      "inputs": [
        {
          "internalType": "address",
          "name": "recipient",
          "type": "address"
        },
        {
          "internalType": "uint256",
          "name": "minTokenOut",
          "type": "uint256"
        }
      ],
      "name": "factoryBuyFor",
      "outputs": [
        {
          "internalType": "uint256",
          "name": "tokenOut",
          "type": "uint256"
        }
      ],
      "stateMutability": "payable",
      "type": "function"
    },
    {
      "inputs": [
        {
          "internalType": "address payable",
          "name": "recipient",
          "type": "address"
        }
      ],
      "name": "factoryClaimProtocolFeesTo",
      "outputs": [
        {
          "internalType": "uint256",
          "name": "amount",
          "type": "uint256"
        }
      ],
      "stateMutability": "nonpayable",
      "type": "function"
    },
    {
      "inputs": [
        {
          "internalType": "address",
          "name": "account",
          "type": "address"
        }
      ],
      "name": "factoryCommitWhitelistSeat",
      "outputs": [],
      "stateMutability": "payable",
      "type": "function"
    },
    {
      "inputs": [],
      "name": "graduationProgressBps",
      "outputs": [
        {
          "internalType": "uint256",
          "name": "",
          "type": "uint256"
        }
      ],
      "stateMutability": "view",
      "type": "function"
    },
    {
      "inputs": [],
      "name": "graduationQuoteReserve",
      "outputs": [
        {
          "internalType": "uint256",
          "name": "",
          "type": "uint256"
        }
      ],
      "stateMutability": "view",
      "type": "function"
    },
    {
      "inputs": [],
      "name": "isPairClean",
      "outputs": [
        {
          "internalType": "bool",
          "name": "",
          "type": "bool"
        }
      ],
      "stateMutability": "view",
      "type": "function"
    },
    {
      "inputs": [],
      "name": "isPairGraduationCompatible",
      "outputs": [
        {
          "internalType": "bool",
          "name": "",
          "type": "bool"
        }
      ],
      "stateMutability": "view",
      "type": "function"
    },
    {
      "inputs": [
        {
          "internalType": "address",
          "name": "account",
          "type": "address"
        }
      ],
      "name": "isWhitelisted",
      "outputs": [
        {
          "internalType": "bool",
          "name": "",
          "type": "bool"
        }
      ],
      "stateMutability": "view",
      "type": "function"
    },
    {
      "inputs": [
        {
          "internalType": "address",
          "name": "",
          "type": "address"
        }
      ],
      "name": "lastBuyBlock",
      "outputs": [
        {
          "internalType": "uint256",
          "name": "",
          "type": "uint256"
        }
      ],
      "stateMutability": "view",
      "type": "function"
    },
    {
      "inputs": [],
      "name": "lastTradeAt",
      "outputs": [
        {
          "internalType": "uint256",
          "name": "",
          "type": "uint256"
        }
      ],
      "stateMutability": "view",
      "type": "function"
    },
    {
      "inputs": [],
      "name": "launchMode",
      "outputs": [
        {
          "internalType": "uint8",
          "name": "",
          "type": "uint8"
        }
      ],
      "stateMutability": "view",
      "type": "function"
    },
    {
      "inputs": [],
      "name": "launchModeId",
      "outputs": [
        {
          "internalType": "uint8",
          "name": "",
          "type": "uint8"
        }
      ],
      "stateMutability": "view",
      "type": "function"
    },
    {
      "inputs": [],
      "name": "launchSuffix",
      "outputs": [
        {
          "internalType": "string",
          "name": "",
          "type": "string"
        }
      ],
      "stateMutability": "view",
      "type": "function"
    },
    {
      "inputs": [],
      "name": "lpTokenReserve",
      "outputs": [
        {
          "internalType": "uint256",
          "name": "",
          "type": "uint256"
        }
      ],
      "stateMutability": "view",
      "type": "function"
    },
    {
      "inputs": [],
      "name": "metadataURI",
      "outputs": [
        {
          "internalType": "string",
          "name": "",
          "type": "string"
        }
      ],
      "stateMutability": "view",
      "type": "function"
    },
    {
      "inputs": [],
      "name": "name",
      "outputs": [
        {
          "internalType": "string",
          "name": "",
          "type": "string"
        }
      ],
      "stateMutability": "view",
      "type": "function"
    },
    {
      "inputs": [],
      "name": "pair",
      "outputs": [
        {
          "internalType": "address",
          "name": "",
          "type": "address"
        }
      ],
      "stateMutability": "view",
      "type": "function"
    },
    {
      "inputs": [],
      "name": "pairPreloadedQuote",
      "outputs": [
        {
          "internalType": "uint256",
          "name": "",
          "type": "uint256"
        }
      ],
      "stateMutability": "view",
      "type": "function"
    },
    {
      "inputs": [],
      "name": "pairSnapshot",
      "outputs": [
        {
          "internalType": "address",
          "name": "pairAddress",
          "type": "address"
        },
        {
          "internalType": "uint256",
          "name": "pairTotalSupply",
          "type": "uint256"
        },
        {
          "internalType": "uint112",
          "name": "reserve0",
          "type": "uint112"
        },
        {
          "internalType": "uint112",
          "name": "reserve1",
          "type": "uint112"
        },
        {
          "internalType": "uint256",
          "name": "tokenBalance",
          "type": "uint256"
        },
        {
          "internalType": "uint256",
          "name": "wrappedNativeBalance",
          "type": "uint256"
        }
      ],
      "stateMutability": "view",
      "type": "function"
    },
    {
      "inputs": [
        {
          "internalType": "uint256",
          "name": "grossQuoteIn",
          "type": "uint256"
        }
      ],
      "name": "previewBuy",
      "outputs": [
        {
          "internalType": "uint256",
          "name": "tokenOut",
          "type": "uint256"
        },
        {
          "internalType": "uint256",
          "name": "feeAmount",
          "type": "uint256"
        },
        {
          "internalType": "uint256",
          "name": "refundAmount",
          "type": "uint256"
        }
      ],
      "stateMutability": "view",
      "type": "function"
    },
    {
      "inputs": [
        {
          "internalType": "uint256",
          "name": "tokenAmount",
          "type": "uint256"
        }
      ],
      "name": "previewSell",
      "outputs": [
        {
          "internalType": "uint256",
          "name": "grossQuoteOut",
          "type": "uint256"
        },
        {
          "internalType": "uint256",
          "name": "netQuoteOut",
          "type": "uint256"
        },
        {
          "internalType": "uint256",
          "name": "totalFee",
          "type": "uint256"
        }
      ],
      "stateMutability": "view",
      "type": "function"
    },
    {
      "inputs": [],
      "name": "priceQuotePerToken",
      "outputs": [
        {
          "internalType": "uint256",
          "name": "",
          "type": "uint256"
        }
      ],
      "stateMutability": "view",
      "type": "function"
    },
    {
      "inputs": [],
      "name": "protocolClaimable",
      "outputs": [
        {
          "internalType": "uint256",
          "name": "",
          "type": "uint256"
        }
      ],
      "stateMutability": "view",
      "type": "function"
    },
    {
      "inputs": [],
      "name": "protocolFeeRecipient",
      "outputs": [
        {
          "internalType": "address",
          "name": "",
          "type": "address"
        }
      ],
      "stateMutability": "view",
      "type": "function"
    },
    {
      "inputs": [],
      "name": "protocolFeeVault",
      "outputs": [
        {
          "internalType": "uint256",
          "name": "",
          "type": "uint256"
        }
      ],
      "stateMutability": "view",
      "type": "function"
    },
    {
      "inputs": [],
      "name": "remainingQuoteCapacity",
      "outputs": [
        {
          "internalType": "uint256",
          "name": "",
          "type": "uint256"
        }
      ],
      "stateMutability": "view",
      "type": "function"
    },
    {
      "inputs": [],
      "name": "router",
      "outputs": [
        {
          "internalType": "address",
          "name": "",
          "type": "address"
        }
      ],
      "stateMutability": "view",
      "type": "function"
    },
    {
      "inputs": [],
      "name": "saleTokenReserve",
      "outputs": [
        {
          "internalType": "uint256",
          "name": "",
          "type": "uint256"
        }
      ],
      "stateMutability": "view",
      "type": "function"
    },
    {
      "inputs": [
        {
          "internalType": "uint256",
          "name": "tokenAmount",
          "type": "uint256"
        },
        {
          "internalType": "uint256",
          "name": "minQuoteOut",
          "type": "uint256"
        }
      ],
      "name": "sell",
      "outputs": [
        {
          "internalType": "uint256",
          "name": "netQuoteOut",
          "type": "uint256"
        }
      ],
      "stateMutability": "nonpayable",
      "type": "function"
    },
    {
      "inputs": [
        {
          "internalType": "address",
          "name": "account",
          "type": "address"
        }
      ],
      "name": "sellUnlockBlock",
      "outputs": [
        {
          "internalType": "uint256",
          "name": "",
          "type": "uint256"
        }
      ],
      "stateMutability": "view",
      "type": "function"
    },
    {
      "inputs": [],
      "name": "state",
      "outputs": [
        {
          "internalType": "enum LaunchTokenBase.LaunchState",
          "name": "",
          "type": "uint8"
        }
      ],
      "stateMutability": "view",
      "type": "function"
    },
    {
      "inputs": [],
      "name": "sweepAbandonedCreatorFees",
      "outputs": [
        {
          "internalType": "uint256",
          "name": "amount",
          "type": "uint256"
        }
      ],
      "stateMutability": "nonpayable",
      "type": "function"
    },
    {
      "inputs": [],
      "name": "symbol",
      "outputs": [
        {
          "internalType": "string",
          "name": "",
          "type": "string"
        }
      ],
      "stateMutability": "view",
      "type": "function"
    },
    {
      "inputs": [],
      "name": "taxConfig",
      "outputs": [
        {
          "internalType": "bool",
          "name": "enabled",
          "type": "bool"
        },
        {
          "internalType": "uint16",
          "name": "taxBps",
          "type": "uint16"
        },
        {
          "internalType": "uint16",
          "name": "burnShareBps",
          "type": "uint16"
        },
        {
          "internalType": "uint16",
          "name": "treasuryShareBps",
          "type": "uint16"
        },
        {
          "internalType": "address",
          "name": "treasuryWallet",
          "type": "address"
        },
        {
          "internalType": "bool",
          "name": "active",
          "type": "bool"
        }
      ],
      "stateMutability": "view",
      "type": "function"
    },
    {
      "inputs": [],
      "name": "totalSupply",
      "outputs": [
        {
          "internalType": "uint256",
          "name": "",
          "type": "uint256"
        }
      ],
      "stateMutability": "view",
      "type": "function"
    },
    {
      "inputs": [
        {
          "internalType": "address",
          "name": "to",
          "type": "address"
        },
        {
          "internalType": "uint256",
          "name": "value",
          "type": "uint256"
        }
      ],
      "name": "transfer",
      "outputs": [
        {
          "internalType": "bool",
          "name": "",
          "type": "bool"
        }
      ],
      "stateMutability": "nonpayable",
      "type": "function"
    },
    {
      "inputs": [
        {
          "internalType": "address",
          "name": "from",
          "type": "address"
        },
        {
          "internalType": "address",
          "name": "to",
          "type": "address"
        },
        {
          "internalType": "uint256",
          "name": "value",
          "type": "uint256"
        }
      ],
      "name": "transferFrom",
      "outputs": [
        {
          "internalType": "bool",
          "name": "",
          "type": "bool"
        }
      ],
      "stateMutability": "nonpayable",
      "type": "function"
    },
    {
      "inputs": [],
      "name": "unexpectedNativeBalance",
      "outputs": [
        {
          "internalType": "uint256",
          "name": "",
          "type": "uint256"
        }
      ],
      "stateMutability": "view",
      "type": "function"
    },
    {
      "inputs": [],
      "name": "virtualQuoteReserve",
      "outputs": [
        {
          "internalType": "uint256",
          "name": "",
          "type": "uint256"
        }
      ],
      "stateMutability": "view",
      "type": "function"
    },
    {
      "inputs": [],
      "name": "virtualTokenReserve",
      "outputs": [
        {
          "internalType": "uint256",
          "name": "",
          "type": "uint256"
        }
      ],
      "stateMutability": "view",
      "type": "function"
    },
    {
      "inputs": [
        {
          "internalType": "address",
          "name": "",
          "type": "address"
        }
      ],
      "name": "whitelist",
      "outputs": [
        {
          "internalType": "bool",
          "name": "",
          "type": "bool"
        }
      ],
      "stateMutability": "view",
      "type": "function"
    },
    {
      "inputs": [
        {
          "internalType": "address",
          "name": "",
          "type": "address"
        }
      ],
      "name": "whitelistAllocationClaimed",
      "outputs": [
        {
          "internalType": "bool",
          "name": "",
          "type": "bool"
        }
      ],
      "stateMutability": "view",
      "type": "function"
    },
    {
      "inputs": [],
      "name": "whitelistAllocationTokenReserve",
      "outputs": [
        {
          "internalType": "uint256",
          "name": "",
          "type": "uint256"
        }
      ],
      "stateMutability": "view",
      "type": "function"
    },
    {
      "inputs": [],
      "name": "whitelistCommitVault",
      "outputs": [
        {
          "internalType": "uint256",
          "name": "",
          "type": "uint256"
        }
      ],
      "stateMutability": "view",
      "type": "function"
    },
    {
      "inputs": [],
      "name": "whitelistCommittedTotal",
      "outputs": [
        {
          "internalType": "uint256",
          "name": "",
          "type": "uint256"
        }
      ],
      "stateMutability": "view",
      "type": "function"
    },
    {
      "inputs": [],
      "name": "whitelistExpiredWithoutFinalization",
      "outputs": [
        {
          "internalType": "bool",
          "name": "",
          "type": "bool"
        }
      ],
      "stateMutability": "view",
      "type": "function"
    },
    {
      "inputs": [],
      "name": "whitelistFinalized",
      "outputs": [
        {
          "internalType": "bool",
          "name": "",
          "type": "bool"
        }
      ],
      "stateMutability": "view",
      "type": "function"
    },
    {
      "inputs": [
        {
          "internalType": "address",
          "name": "",
          "type": "address"
        }
      ],
      "name": "whitelistRefundClaimed",
      "outputs": [
        {
          "internalType": "bool",
          "name": "",
          "type": "bool"
        }
      ],
      "stateMutability": "view",
      "type": "function"
    },
    {
      "inputs": [
        {
          "internalType": "address",
          "name": "",
          "type": "address"
        }
      ],
      "name": "whitelistSeatCommitted",
      "outputs": [
        {
          "internalType": "bool",
          "name": "",
          "type": "bool"
        }
      ],
      "stateMutability": "view",
      "type": "function"
    },
    {
      "inputs": [],
      "name": "whitelistSeatsFilled",
      "outputs": [
        {
          "internalType": "uint256",
          "name": "",
          "type": "uint256"
        }
      ],
      "stateMutability": "view",
      "type": "function"
    },
    {
      "inputs": [],
      "name": "whitelistSnapshot",
      "outputs": [
        {
          "internalType": "uint8",
          "name": "status",
          "type": "uint8"
        },
        {
          "internalType": "uint256",
          "name": "opensAt",
          "type": "uint256"
        },
        {
          "internalType": "uint256",
          "name": "deadline",
          "type": "uint256"
        },
        {
          "internalType": "uint256",
          "name": "threshold",
          "type": "uint256"
        },
        {
          "internalType": "uint256",
          "name": "slotSize",
          "type": "uint256"
        },
        {
          "internalType": "uint256",
          "name": "seatCount",
          "type": "uint256"
        },
        {
          "internalType": "uint256",
          "name": "seatsFilled",
          "type": "uint256"
        },
        {
          "internalType": "uint256",
          "name": "committedTotal",
          "type": "uint256"
        },
        {
          "internalType": "uint256",
          "name": "tokensPerSeat",
          "type": "uint256"
        }
      ],
      "stateMutability": "view",
      "type": "function"
    },
    {
      "inputs": [],
      "name": "whitelistStatus",
      "outputs": [
        {
          "internalType": "uint8",
          "name": "",
          "type": "uint8"
        }
      ],
      "stateMutability": "view",
      "type": "function"
    },
    {
      "inputs": [],
      "name": "whitelistTokensPerSeat",
      "outputs": [
        {
          "internalType": "uint256",
          "name": "",
          "type": "uint256"
        }
      ],
      "stateMutability": "view",
      "type": "function"
    },
    {
      "inputs": [],
      "name": "wrappedNative",
      "outputs": [
        {
          "internalType": "address",
          "name": "",
          "type": "address"
        }
      ],
      "stateMutability": "view",
      "type": "function"
    },
    {
      "stateMutability": "payable",
      "type": "receive"
    }
  ],
  "bytecode": "0x610260806040523462000bc35762005984908138038092620000228284620010b9565b8239602081838101031262000bc35780516001600160401b03811162000bc3576101a0818301848401031262000bc357604051916101a083016001600160401b0381118482101762000d9b57604052808201516001600160401b03811162000bc35762000097908583019084840101620010dd565b8352808201602001516001600160401b03811162000bc357620000c2908583019084840101620010dd565b6020840152808201604001516001600160401b03811162000bc357620000f0908583019084840101620010dd565b60408401526200010560608383010162001153565b60608401526200011a60808383010162001153565b60808401526200012f60a08383010162001153565b60a08401526200014460c08383010162001153565b60c084015280820160e0818101519085015261010080820151908501526101208082015190850152610140808201519085015261016001516001600160401b03811162000bc357848201601f828585010101121562000bc3578183018101516001600160401b03811162000d9b5760405191620001c860208360051b0184620010b9565b8183526020830196840160208360051b838888010101011162000bc3576020818686010101965b60208360051b83888801010101881062001099578661018087878761016085015201015160ff8116810362000bc35761018082018190528151602083015160408401516060850151608086015160a087015160c088015160e08901518751959790966001600160a01b0392831696938316959483169490921692906001600160401b03821162000d9b5760035490600182811c921680156200108e575b602083101462000d7a5781601f8493116200101c575b50602090601f831160011462000f8d5760009262000f81575b50508160011b916000199060031b1c1916176003555b8051906001600160401b03821162000d9b5760045490600182811c9216801562000f76575b602083101462000d7a5781601f84931162000f04575b50602090601f831160011462000e755760009262000e69575b50508160011b916000199060031b1c1916176004555b60017f9b779b17422d0df92223018b32b4d1fa46e071723d6817e2486d003becc55f0055841562000e5757600385041562000e57578015801562000e4e575b801562000e45575b801562000e3c575b620007c95760a05260c05260e05261010081905260405163c45a015560e01b8152602081600481855afa90811562000bd15760009162000df3575b50610120526040516315ab88c960e31b815290602090829060049082905afa90811562000bd15760009162000db1575b5061014052610160819052600381046101808190526aa56fa5b99019a5c800000080820204900362000a11578060036200043d92046aa56fa5b99019a5c80000000262001168565b6101a052426101c0819052600c558051906001600160401b03821162000d9b57600554600181811c9116801562000d90575b602082101462000d7a57601f811162000d30575b50602090601f831160011462000cbc5760ff9392916000918362000cb0575b50508160011b916000199060031b1c1916176005555b16608052301562000c975760ff6006541660058110158062000c735760018214801562000c89575b1562000c31575b50506002546b033b2e3c9fd0803ce80000008101811162000a11576b033b2e3c9fd0803ce80000000160025530600052600060205260406000206b033b2e3c9fd0803ce800000081540190556040516b033b2e3c9fd0803ce8000000815260007fddf252ad1be2c89b69c2b068fc378daa952ba7f163c4a11628f55a4df523b3ef60203093a36b0295be96e6406697200000006007556aa56fa5b99019a5c8000000600855610120516101405160405163e6a4390560e01b8152600092909160209183916001600160a01b039182169183918291620005cc9116306004840162001262565b03915afa91821562000c2557809262000bdd575b50506001600160a01b0381161562000b2e575b600680546001600160a81b03191660089290921b610100600160a81b03169190911760049081179091556040519060007f3a779de46631dd65116ae538600f1bc3c338200c6aef638429b5de43301c28f78180a3610100820151673782dace9d900000811490811562000b1b575b811562000b08575b501562000af9575061010081015160e0820151111562000ae75761012081015167016345785d8a0000811490811562000ad4575b811562000ac1575b811562000aae575b501562000a9c5761010081015161012082015190811562000a86570662000a6957620006e56101008201516101208301519062001168565b8015801562000a7b575b62000a695780610160830151511062000a57576101408201518062000a50575042915b428310801562000a39575b62000a2757620151808301831162000a11576201518083016101e0526101008101516102005261012081015161022052816102405260005b6101608201518051821015620007db57600582901b01602001516001600160a01b0316908115620007c9578160005260148060205260ff60406000205416620007b75760019260005260205260406000208260ff198254161790550162000755565b604051630fb0efa560e41b8152600490fd5b60405163d92e233d60e01b8152600490fd5b62000846837fc32c90bcebb1b5638e92a2a57d7cfd39596fa72768c7c95f945d9ed03baffac560a0888861010085015191610120860151916101e051926040519485526020850152604084015260608301526080820152a1608001516001600160a01b031662001173565b15620009ff5760405161470790816200127d8239608051816124c9015260a051818181611c2a015281816122d401526135ea015260c0518181816109c301528181610ed5015281816116cb015281816120c10152613132015260e05181818161175801528181611ac8015261307f015261010051816106e501526101205181610f66015261014051818181610809015281816126f40152818161287301528181612cf501528181613ac301528181613b1101528181613b5401528181613bc50152613f08015261016051818181611b720152818161257601528181612a4b01528181612b820152818161368f0152818161378e015261393a015261018051818181610775015261327d01526101a051818181611c6f01526132b701526101c051818181610cd2015261381e01526101e0518181816108bb01528181610df8015281816110c1015281816110fe015281816129ca015281816133af01526133ff01526102005181818161090d0152818161330b0152818161353a01526143960152610220518181816109330152818161186401526134520152610240518181816109590152818161105a0152818161348f01526143eb0152f35b604051635bb6e57160e11b8152600490fd5b634e487b7160e01b600052601160045260246000fd5b6040516305c742e960e11b8152600490fd5b506203f480420180421162000a115783116200071d565b9162000712565b60405163529cc2c560e01b8152600490fd5b604051635ca83dcb60e11b8152600490fd5b5060508111620006ef565b634e487b7160e01b600052601260045260246000fd5b604051633d8f86f560e21b8152600490fd5b670de0b6b3a764000091501482620006ad565b6706f05b59d3b2000081149150620006a5565b6702c68af0bb140000811491506200069d565b60405163230bad2760e11b8152600490fd5b63230bad2760e11b8152600490fd5b676f05b59d3b2000009150148362000669565b6753444835ec5800008114915062000661565b5061012051610140516040516364e329cb60e11b81529160209183916001600160a01b03908116918391600091839162000b6e9116306004840162001262565b03925af1801562000bd15760009062000b8a575b9050620005f3565b506020813d60201162000bc8575b8162000ba760209383620010b9565b8101031262000bc35762000bbd60049162001153565b62000b82565b600080fd5b3d915062000b98565b6040513d6000823e3d90fd5b9091506020823d60201162000c1c575b8162000bfc60209383620010b9565b8101031262000c19575062000c119062001153565b8280620005e0565b80fd5b3d915062000bed565b604051903d90823e3d90fd5b62000c73576002810362000c515760405163baf3f0f760e01b8152600490fd5b60031462000c61578180620004e7565b604051634e46966960e11b8152600490fd5b634e487b7160e01b600052602160045260246000fd5b5050600060048214620004e0565b60405163ec442f0560e01b815260006004820152602490fd5b015190508580620004a2565b90600560005260206000209160005b601f198516811062000d17575091839160019360ff9695601f1981161062000cfd575b505050811b01600555620004b8565b015160001960f88460031b161c1916905585808062000cee565b9192602060018192868501518155019401920162000ccb565b60056000526020600020601f840160051c81016020851062000d72575b601f830160051c8201811062000d6557505062000483565b6000815560010162000d4d565b508062000d4d565b634e487b7160e01b600052602260045260246000fd5b90607f16906200046f565b634e487b7160e01b600052604160045260246000fd5b90506020813d60201162000dea575b8162000dcf60209383620010b9565b8101031262000bc35762000de39062001153565b85620003f5565b3d915062000dc0565b90506020813d60201162000e33575b8162000e1160209383620010b9565b8101031262000bc35760049162000e2a60209262001153565b915091620003c5565b3d915062000e02565b5083156200038a565b50821562000382565b5081156200037a565b604051630d956e1760e21b8152600490fd5b015190508a8062000325565b6004600090815293507f8a35acfbc15ff81a39ae7d344fd709f28e8600b4aa8c65c6b64bfe7fe36bd19b91905b601f198416851062000ee8576001945083601f1981161062000ece575b505050811b016004556200033b565b015160001960f88460031b161c191690558a808062000ebf565b8181015183556020948501946001909301929091019062000ea2565b60046000529091507f8a35acfbc15ff81a39ae7d344fd709f28e8600b4aa8c65c6b64bfe7fe36bd19b601f840160051c81016020851062000f6e575b90849392915b601f830160051c8201811062000f5e5750506200030c565b6000815585945060010162000f46565b508062000f40565b91607f1691620002f6565b015190508b80620002bb565b6003600090815293507fc2575a0e9e593c00f959f8c92f12db2869c3395a3b0502d05e2516446f71f85b91905b601f198416851062001000576001945083601f1981161062000fe6575b505050811b01600355620002d1565b015160001960f88460031b161c191690558b808062000fd7565b8181015183556020948501946001909301929091019062000fba565b60036000529091507fc2575a0e9e593c00f959f8c92f12db2869c3395a3b0502d05e2516446f71f85b601f840160051c81016020851062001086575b90849392915b601f830160051c8201811062001076575050620002a2565b600081558594506001016200105e565b508062001058565b91607f16916200028c565b906020808093620010aa8b62001153565b815201980197909150620001ef565b601f909101601f19168101906001600160401b0382119082101762000d9b57604052565b919080601f8401121562000bc35782516001600160401b03811162000d9b57602090604051926200111883601f19601f8501160185620010b9565b81845282828701011162000bc35760005b8181106200113f57508260009394955001015290565b858101830151848201840152820162001129565b51906001600160a01b038216820362000bc357565b811562000a86570490565b6001600160a01b0390808216903382146200125a573b156200125357600260ff60805116146200122457600c60ff6080511614620011b2575050600090565b602060049160405192838092631b5c66b560e31b82525afa90811562000bd157600091620011e2575b5016331490565b90506020813d6020116200121b575b816200120060209383620010b9565b8101031262000bc357620012149062001153565b38620011db565b3d9150620011f1565b6020600491604051928380926337eb7e0160e01b82525afa90811562000bd157600091620011e2575016331490565b5050600090565b505050600190565b6001600160a01b039182168152911660208201526040019056fe6080604081815260049182361015610044575b505050361561002057600080fd5b610028613043565b610030612af1565b60016000805160206146b283398151915255005b600092833560e01c9182630227591d146123035750816302d05d3f146122bf57816303dffb5a1461229c57816303ee438c146121f957816306b51d48146115d957816306fdde03146121205781630797900314612101578163086e5ca01461208e578163095ea7b314611fe45781630b42aae014611fc857816315a0aa0814611f69578163173d5e4214611b5557816318160ddd14611f4a5781631c2945b214611f0c5781631cd97db514611ee55781631d924c7714611ec757816323b872dd14611d7b57816324e69d7c14611d5457816325cacd0c14611d3057816327bfa19614611cf2578163292e5b0014611ccd5781632a025a8614611cae578163313ce56714611c92578163343ee3b714611c57578163351fee4614611c0857816337488a4214611be957816337b28bfd14611bb157816338809be614611b955781633993152714611b5a5781633af32abf146112aa578163403287a914610aa657816340faa03c14611b55578163430437fb14611b3957816345b2af8c14611b16578163463bb800146111d65781634815327914611af55781634a7d036914611aa65781634e6fd6c414611a8957816352fb81bb14611a4b57816353866006146119a3578163571b1f8a14611985578163581b51f3146119495781635878f8ce1461192c57816358ebc06e1461181f5781635a85ffd7146118025781636095a620146117e6578163644537cb146117c057816364a5dc2b1461178757816364df049e146117435781636723064e146116a25781636887c8481461164f57816368bc13f5146116335781636a534fcb146115fa5781636a740d3114610fb15781636f28507c146115de5781636f71f017146115d957816370a08231146115b357816374452ec3146115945781637531abe31461151a57816379e4698714610f045781637b412645146114f757816385cac23714610fd257816386d4ff1d146114a85781638925d36e14611489578163902d55a5146114635781639111f13d1461144657816391e7cd34146114275781639454d7201461140b57816394c2c24f146113ef57816395d89b411461130b57816396f06241146112e85781639b19251a146112aa5781639d0ee65b1461128e5781639ddf7ad3146112675781639e5f358a1461124a578163a202c86d1461122e578163a8aa1b3114611201578163a8dccd02146111db578163a8ea4445146111d6578163a9059cbb1461116a578163aadade7a1461114b578163aecf6a7c14610ffb578163af1af3b914610d18578163b0cc792d14610fd7578163b37dd69014610fd2578163b5f1c1ff14610fb6578163b82020e814610fb1578163b88202a914610f95578163b8d8fbb414610f51578163be37822814610f35578163c19d93fb14610f09578163c228987814610f04578163c45a015514610ec0578163c57da02914610e88578163cac01cbc14610e6d578163cc3cbd2a14610e51578163cc45010414610e34578163cc64aade14610d37578163ce228ad214610d18578163cedf7c1914610cf5578163cf09e0d014610cba578163d119e96514610c9c578163d79875eb14610ad1578163d7f3ad6f14610aab578163d81d946f14610aa6578163d96a094a14610a29578163d9d5a9f3146109a2578163db9b54131461089e578163dd62ed3e14610855578163e1a4521814610838578163eb6d3a11146107f4578163ed1cc3a8146107d5578163f3bf10ed146107b6578163f48f6f1d14610798578163f55966261461075d578163f73aaf3c1461073a578163f7ce612a14610714578163f887ea40146106d0578163fb3dd95f1461069a578163fb9a1d8d146105a8575063fd897e0b146105875780610012565b346105a457816003193601126105a457602090600d549051908152f35b5080fd5b8383346105a457816003193601126105a4576105c2613043565b60ff60135416158015610684575b801561066f575b61066057602092506012549133815260168452818120600160ff1982541617905561060483600d546124ed565b600d55338152600e8452814391205561061e82333061404c565b80518281527f648b77675d9290f9aa4f34a5cd8b6ff268de43a375ce9f853f027bb3699ea84e843392a260016000805160206146b28339815191525551908152f35b51630f6ff1d560e31b81529050fd5b50338252601660205260ff81832054166105d7565b50338252601560205260ff8183205416156105d0565b8284346106cd5760203660031901126106cd57506106bb6106c99235612a9d565b909391925193849384612461565b0390f35b80fd5b5050346105a457816003193601126105a457517f00000000000000000000000000000000000000000000000000000000000000006001600160a01b03168152602090f35b5050346105a457816003193601126105a457602090516aa56fa5b99019a5c80000008152f35b5050346105a457816003193601126105a457602090516702c68af0bb1400008152f35b5050346105a457816003193601126105a457602090517f00000000000000000000000000000000000000000000000000000000000000008152f35b5050346105a457816003193601126105a4576020905162278d008152f35b5050346105a457816003193601126105a4576020906012549051908152f35b5050346105a457816003193601126105a457602090600f549051908152f35b5050346105a457816003193601126105a457517f00000000000000000000000000000000000000000000000000000000000000006001600160a01b03168152602090f35b5050346105a457816003193601126105a457602090516127108152f35b5050346105a457806003193601126105a457806020926108736123e2565b61087b6123f8565b6001600160a01b0391821683526001865283832091168252845220549051908152f35b8284346106cd57806003193601126106cd576108b8612976565b917f00000000000000000000000000000000000000000000000000000000000000006201517f1981019281841161098f57506101209450600f5490601054926012549460ff82519716875260208701528501527f000000000000000000000000000000000000000000000000000000000000000060608501527f000000000000000000000000000000000000000000000000000000000000000060808501527f000000000000000000000000000000000000000000000000000000000000000060a085015260c084015260e0830152610100820152f35b634e487b7160e01b815260118652602490fd5b90506020366003190112610a25576109b86123e2565b916109c1613043565b7f00000000000000000000000000000000000000000000000000000000000000006001600160a01b03163303610a185783610a03846109fe6132dc565b6133d6565b60016000805160206146b28339815191525580f35b51635b2fb5b360e11b8152fd5b8280fd5b828460203660031901126106cd57610a3f613043565b610a476132dc565b60ff60065416906005821015610a935750600103610a8657610a6d6020923533336138e0565b9060016000805160206146b28339815191525551908152f35b5163baf3f0f760e01b8152fd5b634e487b7160e01b815260218452602490fd5b612429565b5050346105a457816003193601126105a457602090610ac86141a9565b90519015158152f35b91905034610a255780600319360112610a2557813592610aef613043565b610af76132dc565b60ff600654166005811015610c8957600103610c7b578315610c6d578190338152600e60205220544314610c6057610b55610b4f610b33613275565b610b4987610b4383859695612510565b92612634565b90613fe3565b906124ed565b9283158015610c55575b610c4757610b79610b6f85614015565b91879391936124ed565b948515610c39576024358610610c395750602095610c1e7feebdf396b2ce33c6bf51df33b76958425b7430bd1c74fbef7b585106affddd1c938793610bbf87303361404c565b610bcb87600754612634565b600755610bda846009546124ed565b600955610be982600a54612634565b600a55610bf881600b54612634565b600b5542600c55610c09853361385d565b60095490600754928951968796339a88612a6f565b0390a260016000805160206146b28339815191525551908152f35b8451638199f5f360e01b8152fd5b5051638199f5f360e01b8152fd5b506009548411610b5f565b51635aabee0f60e11b8152fd5b5051631f2a200560e01b8152fd5b505163baf3f0f760e01b8152fd5b634e487b7160e01b825260218452602482fd5b5050346105a457816003193601126105a457602090516203f4808152f35b5050346105a457816003193601126105a457602090517f00000000000000000000000000000000000000000000000000000000000000008152f35b5050346105a457816003193601126105a457602090516753444835ec5800008152f35b5050346105a457816003193601126105a457602090600a549051908152f35b8383346105a45760203660031901126105a457610d526123e2565b916013549260ff8460081c16938415610dbf575b506020945083610da1575b83610d81575b5050519015158152f35b6001600160a01b03168152601784528190205460ff161591508380610d77565b6001600160a01b0381168252601585528282205460ff169350610d71565b90935060ff600654166005811015610e2157602095149081610df6575b81610dea575b509285610d66565b60ff9150161585610de2565b7f00000000000000000000000000000000000000000000000000000000000000004210159150610ddc565b634e487b7160e01b835260218652602483fd5b5050346105a457816003193601126105a457602090610ac8613e56565b5050346105a457816003193601126105a4576020905160468152f35b5050346105a457816003193601126105a45751908152602090f35b5050346105a457816003193601126105a4578160c09282519281845281602085015283015280606083015280608083015260a0820152f35b5050346105a457816003193601126105a457517f00000000000000000000000000000000000000000000000000000000000000006001600160a01b03168152602090f35b612493565b8383346105a457816003193601126105a45760ff600654169051916005821015610a9357602083838152f35b5050346105a457816003193601126105a45760209051601e8152f35b5050346105a457816003193601126105a457517f00000000000000000000000000000000000000000000000000000000000000006001600160a01b03168152602090f35b5050346105a457816003193601126105a45760209051600b8152f35b612477565b5050346105a457816003193601126105a45760209051600c8152f35b6124af565b5050346105a457816003193601126105a457602090610ff4612a2d565b9051908152f35b8383346105a45760203660031901126105a4576110166123e2565b9160ff60065416600581101561113857841492836110e9575b60209450836110bf575b836110a1575b83611081575b505081611055575b519015158152f35b600f547f000000000000000000000000000000000000000000000000000000000000000011915061104d565b6001600160a01b03168152601584528190205460ff161591508380611045565b6001600160a01b0381168252601485528282205460ff16935061103f565b7f000000000000000000000000000000000000000000000000000000000000000042109350611039565b925062015180420180421161112557602094507f000000000000000000000000000000000000000000000000000000000000000011159261102f565b634e487b7160e01b825260118552602482fd5b634e487b7160e01b825260218552602482fd5b5050346105a457816003193601126105a457602090600b549051908152f35b905034610a255781600319360112610a25576111846123e2565b9260ff600654169060058210156111c357506003036111b557506111ae602092602435903361404c565b5160018152f35b90516377d87fb560e11b8152fd5b634e487b7160e01b815260218352602490fd5b612445565b5050346105a457816003193601126105a457516714adf4b7320334b9601d1b8152602090f35b5050346105a457816003193601126105a457600654905160089190911c6001600160a01b03168152602090f35b5050346105a457816003193601126105a4576020905160098152f35b5050346105a457816003193601126105a457602090610ff4612a0c565b5050346105a457816003193601126105a45760209060ff611286612976565b915191168152f35b5050346105a457816003193601126105a4576020905160068152f35b5050346105a45760203660031901126105a45760209160ff9082906001600160a01b036112d56123e2565b1681526014855220541690519015158152f35b5050346105a457816003193601126105a45760209051676f05b59d3b2000008152f35b8383346105a457816003193601126105a45780519180938054916001908360011c92600185169485156113e5575b60209586861081146113d2578589529081156113ae5750600114611373575b6106c98787611369828c038361234e565b5191829182612371565b9080949750528583205b82841061139b57505050826106c99461136992820101948680611358565b805486850188015292860192810161137d565b60ff19168887015250505050151560051b8301019250611369826106c98680611358565b634e487b7160e01b845260228352602484fd5b93607f1693611339565b5050346105a457816003193601126105a4576020905160508152f35b5050346105a457816003193601126105a45760209051600a8152f35b5050346105a457816003193601126105a4576020906009549051908152f35b5050346105a457816003193601126105a457602090610ac86137de565b5050346105a457816003193601126105a45751676765c793fa10079d601b1b8152602090f35b5050346105a457816003193601126105a4576020906007549051908152f35b5050346105a45760203660031901126105a45760209181906001600160a01b036114d06123e2565b168152600e845220549081159182156114ed575b50519015158152f35b43119150386114e4565b5050346105a457816003193601126105a45760209051673782dace9d9000008152f35b5050346105a45760203660031901126105a457906020916115396123e2565b9160ff601354169283611576575b83611556575050519015158152f35b6001600160a01b03168152601684528190205460ff161591503880610d77565b6001600160a01b0381168252601585528282205460ff169350611547565b5050346105a457816003193601126105a457602090600c549051908152f35b5050346105a45760203660031901126105a457602090610ff46115d46123e2565b61295b565b6123ba565b5050346105a457816003193601126105a4576020905160648152f35b905034610a25576020366003190112610a255735916001600160a01b03831683036106cd5750610a6d60209261162e613043565b6135df565b5050346105a457816003193601126105a4576020905160058152f35b5050346105a457816003193601126105a45760c09061166c6127d9565b9495909381519660018060a01b03168752602087015260018060701b0380931690860152166060840152608083015260a0820152f35b905081600319360112610a25576116b76123e2565b906116c0613043565b6001600160a01b03937f000000000000000000000000000000000000000000000000000000000000000085163303611734576116fa6132dc565b60ff600654169060058210156111c357506001036117265750602092610a6d91602435918116906138e0565b825163baf3f0f760e01b8152fd5b508251635b2fb5b360e11b8152fd5b5050346105a457816003193601126105a457517f00000000000000000000000000000000000000000000000000000000000000006001600160a01b03168152602090f35b905034610a25576020366003190112610a255735916001600160a01b03831683036106cd5750610a6d6020926117bb613043565b613073565b5050346105a45760203660031901126105a457602090610ff46117e16123e2565b612763565b5050346105a457816003193601126105a4576020905160078152f35b5050346105a457816003193601126105a457602090610ff46126c0565b8383346105a457816003193601126105a457611839613043565b6118416132dc565b60ff60135460081c16158015611916575b8015611901575b6118f25760209250807f0000000000000000000000000000000000000000000000000000000000000000923381526017855220600160ff198254161790556118a3826011546124ed565b6011556118b0823361385d565b80518281527feda835ea67193b5de1fbd871950998f0537eec03a9e40592414ba19a24b4325d843392a260016000805160206146b28339815191525551908152f35b516319e1016760e01b81529050fd5b50338252601760205260ff8183205416611859565b50338252601560205260ff818320541615611852565b5050346105a457816003193601126105a457602090610ff4612693565b5050346105a457816003193601126105a457602090610ff461197c611973600954600a5490612634565b600b5490612634565b60115490612634565b5050346105a457816003193601126105a45760209051620151808152f35b8383346105a457816003193601126105a4576119bd613043565b6119c56137de565b15611a3c57600b54918215611a2c5760209350600b556119e782600a54612634565b600a5580518281527f6a0c33aa8c816cdfa77b389739210eadb9f9a653e441ee697d9a29d61a9884a1843392a260016000805160206146b28339815191525551908152f35b81516312d37ee560e31b81528490fd5b51638a430e9f60e01b81529050fd5b5050346105a45760203660031901126105a45760209160ff9082906001600160a01b03611a766123e2565b1681526015855220541690519015158152f35b5050346105a457816003193601126105a4576020905161dead8152f35b5050346105a457816003193601126105a457602090611ac3613043565b610a6d7f00000000000000000000000000000000000000000000000000000000000000006001600160a01b0316613073565b8284346106cd5760203660031901126106cd57506106bb6106c99235612641565b5050346105a457816003193601126105a4576020905167016345785d8a00008152f35b83346106cd57806003193601126106cd57611b526132dc565b80f35b61240e565b5050346105a457816003193601126105a457602090517f00000000000000000000000000000000000000000000000000000000000000008152f35b5050346105a457816003193601126105a4576020905160038152f35b5050346105a45760203660031901126105a45760209181906001600160a01b03611bd96123e2565b168152600e845220549051908152f35b5050346105a457816003193601126105a4576020906008549051908152f35b5050346105a457816003193601126105a457602090611c25613043565b610a6d7f00000000000000000000000000000000000000000000000000000000000000006001600160a01b03166135df565b5050346105a457816003193601126105a457602090517f00000000000000000000000000000000000000000000000000000000000000008152f35b5050346105a457816003193601126105a4576020905160128152f35b5050346105a457816003193601126105a4576020906010549051908152f35b83806003193601126106cd57611ce1613043565b611ce96132dc565b610a03336133d6565b5050346105a45760203660031901126105a45760209160ff9082906001600160a01b03611d1d6123e2565b1681526016855220541690519015158152f35b5050346105a457816003193601126105a45760209060ff6013541690519015158152f35b5050346105a457816003193601126105a45760209060ff60135460081c1690519015158152f35b905082346106cd5760603660031901126106cd57611d976123e2565b611d9f6123f8565b916044359360ff600654166005811015611eb45760038103611e80575b506001600160a01b03831680835260016020908152878420338552905286832054916000198310611df6575b6020886111ae89898961404c565b868310611e5e578115611e47573315611e30575082526001602090815286832033845281529186902090859003905582906111ae87611de8565b8751634a1406b160e11b8152908101849052602490fd5b875163e602df0560e01b8152908101849052602490fd5b9050611e7c868851938493637dc7a0d960e11b855233908501614367565b0390fd5b60021480611ea2575b15611e945786611dbc565b85516377d87fb560e11b8152fd5b506001600160a01b0383163014611e89565b634e487b7160e01b835260218252602483fd5b5050346105a457816003193601126105a4576020905162ed4e008152f35b8284346106cd57806003193601126106cd5750611f00613179565b82519182526020820152f35b5050346105a45760203660031901126105a45760209160ff9082906001600160a01b03611f376123e2565b1681526017855220541690519015158152f35b5050346105a457816003193601126105a4576020906002549051908152f35b8383346105a457816003193601126105a457805191828201906001600160401b03821184831017611fb55750926106c9938252825263188ccc4d60e21b60208301525191829182612371565b634e487b7160e01b815260418552602490fd5b5050346105a457816003193601126105a4576020905160088152f35b905034610a255781600319360112610a2557611ffe6123e2565b602435903315612077576001600160a01b031691821561206057508083602095338152600187528181208582528752205582519081527f8c5be1e5ebec7d5bd14f71427d1e84f3dd0314c0f7b2291e5b200ac8c7c3b925843392a35160018152f35b8351634a1406b160e11b8152908101859052602490fd5b835163e602df0560e01b8152808401869052602490fd5b905034610a25576020366003190112610a25578035926001600160a01b039081851685036106cd57506120bf613043565b7f00000000000000000000000000000000000000000000000000000000000000001633036120f35750610a6d602092613073565b9051635b2fb5b360e11b8152fd5b5050346105a457816003193601126105a4576020906011549051908152f35b91905034610a255782600319360112610a255780519183600354906001908260011c926001811680156121ef575b60209586861082146121dc57508488529081156121ba575060011461217f575b6106c98686611369828b038361234e565b929550600383528583205b8284106121a757505050826106c99461136992820101943861216e565b805486850188015292860192810161218a565b60ff191687860152505050151560051b8301019250611369826106c93861216e565b634e487b7160e01b845260229052602483fd5b93607f169361214e565b91905034610a255782600319360112610a255780519183600554906001908260011c92600181168015612292575b60209586861082146121dc57508488529081156121ba5750600114612257576106c98686611369828b038361234e565b929550600583528583205b82841061227f57505050826106c99461136992820101943861216e565b8054868501880152928601928101612262565b93607f1693612227565b5050346105a457816003193601126105a45760209051670de0b6b3a76400008152f35b5050346105a457816003193601126105a457517f00000000000000000000000000000000000000000000000000000000000000006001600160a01b03168152602090f35b8490346105a457816003193601126105a457806706f05b59d3b2000060209252f35b6001600160401b03811161233857604052565b634e487b7160e01b600052604160045260246000fd5b601f909101601f19168101906001600160401b0382119082101761233857604052565b6020808252825181830181905290939260005b8281106123a657505060409293506000838284010152601f8019910116010190565b818101860151848201604001528501612384565b346123dd5760003660031901126123dd5760206123d5612543565b604051908152f35b600080fd5b600435906001600160a01b03821682036123dd57565b602435906001600160a01b03821682036123dd57565b346123dd5760003660031901126123dd5760206123d56125ba565b346123dd5760003660031901126123dd57602060405160028152f35b346123dd5760003660031901126123dd57602060405160048152f35b6040919493926060820195825260208201520152565b346123dd5760003660031901126123dd57602060405160038152f35b346123dd5760003660031901126123dd57602060405160018152f35b346123dd5760003660031901126123dd57602060405160ff7f0000000000000000000000000000000000000000000000000000000000000000168152f35b919082039182116124fa57565b634e487b7160e01b600052601160045260246000fd5b818102929181159184041417156124fa57565b811561252d570490565b634e487b7160e01b600052601260045260246000fd5b60ff6006541660058110156125a45760031461259e57600954612710908181029181830414901517156124fa5761259b907f000000000000000000000000000000000000000000000000000000000000000090612523565b90565b61271090565b634e487b7160e01b600052602160045260246000fd5b60ff6006541660058110156125a4576003146125fb576125d8613275565b670de0b6b3a7640000918281029281840414901517156124fa5761259b91612523565b612603613179565b90801561262d57670de0b6b3a7640000918281029281840414901517156124fa5761259b91612523565b5050600090565b919082018092116124fa57565b60ff6006541660058110156125a457600103612687578015612687576126819161259b61267b61267084613686565b919792939097613780565b96612634565b936124ed565b50600090600090600090565b6126a861197c611973600954600a5490612634565b804711156126ba5761259b90476124ed565b50600090565b6006546001600160a01b039060081c8116801561262d576020906024604051809481936370a0823160e01b835260048301527f0000000000000000000000000000000000000000000000000000000000000000165afa90811561275757600091612728575090565b90506020813d60201161274f575b816127436020938361234e565b810103126123dd575190565b3d9150612736565b6040513d6000823e3d90fd5b6001600160a01b03166000908152600e602052604090205480156126ba57600181018091116124fa5790565b51906001600160701b03821682036123dd57565b908160609103126123dd576127b78161278f565b9160406127c66020840161278f565b92015163ffffffff811681036123dd5790565b60065460081c6001600160a01b0390811691821561294a57818316916040928351926318160ddd60e01b84526020938481600481865afa90811561293f57600091612912575b5094805193630240bc6b60e21b8552606085600481875afa8015612907576000956000916128d1575b50949584600052600081528083600020549560248551809581936370a0823160e01b835260048301527f0000000000000000000000000000000000000000000000000000000000000000165afa9283156128c757506000926128a957505090565b90809250813d83116128c0575b612743818361234e565b503d6128b6565b513d6000823e3d90fd5b90506128f691955060603d606011612900575b6128ee818361234e565b8101906127a3565b5094909438612848565b503d6128e4565b82513d6000823e3d90fd5b90508481813d8311612938575b612929818361234e565b810103126123dd57513861281f565b503d61291f565b86513d6000823e3d90fd5b600092508291508190819081908190565b6001600160a01b031660009081526020819052604090205490565b60135460ff8116612a065760ff6006541660058110156125a4576004146129ba5760081c60ff1680156129b2575b6129ad57600290565b600490565b5060016129a4565b506201518042018042116124fa577f0000000000000000000000000000000000000000000000000000000000000000809110612a005742106129fb57600490565b600290565b50600190565b50600390565b60ff6006541660058110156125a457600303612a2857600b5490565b600090565b60ff6006541660058110156125a457600103612a285761259b6009547f00000000000000000000000000000000000000000000000000000000000000006124ed565b93909796959260c0959260e08601998652602086015260408501526060840152608083015260a08201520152565b60ff6006541660058110156125a45760010361268757801561268757612ad890610b4f610b49612acb613275565b919093610b438386612510565b90612ae282614015565b5050612aee81846124ed565b91565b612af96132dc565b60069060ff8254169160058310156125a457600480931461303557805460ff8116600581101561302057600114612b3b5760405163baf3f0f760e01b81528490fd5b3315908115613016575b8115612ffd575b50612fec573415612fdb57612b6034613686565b8394929194158015612fd3575b612fc25760095494612b7f8387612634565b927f00000000000000000000000000000000000000000000000000000000000000009586612bac83613780565b9514612fb8575b84158015612fad575b612f9c57612bcc82600099612634565b600955612bdb83600a54612634565b600a55612bea84600b54612634565b600b5542600c55612bfd856007546124ed565b600755612c0b85333061404c565b338852602094600e865260409443868b2055612c2783346124ed565b9081612f8d575b6009549560075495885195865289860152878501526060840152608083015260a08201528260c08201528160e08201526000805160206146928339815191526101003392a285821090811591612f84575b50612c8f575b5050505050509050565b83549260ff8416956005871015612f7157908993929160018803612f61578203612f5257600260ff198096161796878755600260008051602061465283398151915291828b80a3612cde6141a9565b15612f425760089586549160018060a01b03998a807f000000000000000000000000000000000000000000000000000000000000000016918a1c16808851996370a0823160e01b8b528a01528589602481855afa988915612f05578d99612f0f575b5084612d4c913061404c565b803b15612ed7578d8c88518092630d0e30db60e41b8252818a865af18015612f0557908f91612eec575b508c604487928e8d8f54901c16928b51958694859363a9059cbb60e01b85528401528b60248401525af1908115612ee2578c91612ea8575b5015612e98578a9b9c848b8b9c9d9a9b548c1c1660248951809c81936335313c2160e11b835261dead878401525af1988915612e8e578d99612e5f575b508c8a558c60095560038b549360ff8516941617809b556005831015612e4c57509160038694926000805160206146728339815191529c9a98969460809c9a98519e80a38b528a015288015260608701521c1692a280388080808080612c85565b634e487b7160e01b8d526021905260248cfd5b9098508481813d8311612e87575b612e77818361234e565b810103126123dd57519738612deb565b503d612e6d565b87513d8f823e3d90fd5b85516314da028560e11b81528d90fd5b90508481813d8311612edb575b612ebf818361234e565b81010312612ed757518015158103612ed75738612dae565b8b80fd5b503d612eb5565b87513d8e823e3d90fd5b8b87928e9f612efb8e94612325565b9f50925050612d76565b88513d8f823e3d90fd5b9098508581813d8311612f3b575b612f27818361234e565b81010312612f3757519784612d40565b8c80fd5b503d612f1d565b50505051633c1413fb60e01b8152fd5b505051638199f5f360e01b8152fd5b5050505163baf3f0f760e01b8152fd5b634e487b7160e01b885260218a52602488fd5b90501538612c7f565b612f97823361385d565b612c2e565b604051638199f5f360e01b81528a90fd5b506007548511612bbc565b6007549450612bb3565b604051631f2a200560e01b81528790fd5b508115612b6d565b604051631f2a200560e01b81528390fd5b604051634e46966960e11b81528390fd5b3360089190911c6001600160a01b031614905038612b4c565b3330149150612b45565b602185634e487b7160e01b6000525260246000fd5b509050613041336133d6565b565b6000805160206146b283398151915260028154146130615760029055565b604051633ee5aeb560e01b8152600490fd5b906001600160a01b03337f0000000000000000000000000000000000000000000000000000000000000000821614158061312e575b61311d578216801561310b57600a549283156130f957836130cd916000600a5561385d565b7f0f58cb6262d88971b87878468debb7bc81f1714be597710e16a9fb84c66ff7b56020604051858152a2565b6040516312d37ee560e31b8152600490fd5b60405163d92e233d60e01b8152600490fd5b6040516282b42960e81b8152600490fd5b50807f0000000000000000000000000000000000000000000000000000000000000000163314156130a8565b908160209103126123dd57516001600160a01b03811681036123dd5790565b60065460081c6001600160a01b039081169190821561326c57604051630240bc6b60e21b815290606082600481875afa9384156127575760009260009561323d575b5090602060049260405193848092630dfe168160e01b82525afa9182156127575760009261320c575b501630036131fc576001600160701b03908116921690565b6001600160701b03928316921690565b61322f91925060203d602011613236575b613227818361234e565b81019061315a565b90386131e4565b503d61321d565b6004929195506020935061325f9060603d606011612900576128ee818361234e565b50939093959192506131bb565b50600091508190565b6132a26009547f000000000000000000000000000000000000000000000000000000000000000090612634565b9061259b6132b560075460085490612634565b7f000000000000000000000000000000000000000000000000000000000000000090612634565b60065460ff81169060058210156125a45760048214806133ac575b8061339f575b613305575050565b601054917f0000000000000000000000000000000000000000000000000000000000000000831061333b57505050613041614385565b7fd06618f00e4db5bc4d25734a5aefd22c95ef99b512f746c01022645e501b62a092600160409361010061ff0019601354161760135560ff1916176006556001835192600080516020614652833981519152600080a3600f549082526020820152a1565b5060ff60135416156132fd565b507f00000000000000000000000000000000000000000000000000000000000000004210156132f7565b9060ff600654169160058310156125a45760048093036135a8576201518042018042116135ca577f00000000000000000000000000000000000000000000000000000000000000008091106135b9574210156135a8576001600160a01b03166000818152601460205260408082205490919060ff1615613598577f0000000000000000000000000000000000000000000000000000000000000000340361358857828152601560205260ff828220541661357857600f547f00000000000000000000000000000000000000000000000000000000000000001115613568578281526015602052818120600160ff19825416179055600f54906001820180921161098f575061353593945090817f2937d4b8ffdeea00fe58bc57f57d3010576fc9b39a784691fcc8054e15c60a4392600f5561351334601054612634565b9485928360105561352634601154612634565b60115551928392349084612461565b0390a27f00000000000000000000000000000000000000000000000000000000000000001461356057565b613041614385565b8151635c766e7560e01b81528590fd5b815163887daea160e01b81528590fd5b8151636ece8a1b60e01b81528590fd5b815163033bb9db60e21b81528590fd5b6040516302664e7160e11b81528390fd5b6040516302664e7160e11b81528490fd5b601184634e487b7160e01b6000525260246000fd5b906001600160a01b037f00000000000000000000000000000000000000000000000000000000000000008116330361311d5760ff6006541660058110156125a457600303613674578216801561310b57600b549283156130f95783613648916000600b5561385d565b7fd046302bdc39599e60a5981e59227dcd1c643f512f56f2e984390c3ac6eadedb6020604051858152a2565b60405163baf3f0f760e01b8152600490fd5b906136b36009547f00000000000000000000000000000000000000000000000000000000000000006124ed565b91821561376e576136ce6136c682614015565b5050826124ed565b928084116136ea575091905b6136e383614015565b9091509091565b9250506137096136f98361457e565b6126ac6127108509151590612634565b91825b61372c575b5061372661371e83614015565b5050836124ed565b906136da565b918261373a61371e83614015565b111561376857600019810190811161375357918261370c565b60246000634e487b7160e01b81526011600452fd5b91613711565b60405163c83ba27d60e01b8152600490fd5b61378c81600954612634565b7f0000000000000000000000000000000000000000000000000000000000000000146137d7576137d1610b4f61259b926137c4613275565b939091610b438584612510565b90612523565b5060075490565b60ff6006541660058110156125a45760011480613852575b8061381b575b806138045790565b50600c5462278d0081018091116124fa5742101590565b507f000000000000000000000000000000000000000000000000000000000000000062ed4e0081018091116124fa574210156137fc565b50600b5415156137f6565b8147106138c157604051602081016001600160401b0381118282101761233857604052600080809481948280955260018060a01b03165af11561389d5750565b3d156138af57604051903d90823e3d90fd5b60405163d6bda27560e01b8152600490fd5b60405163cf47918160e01b815247600482015260248101839052604490fd5b6001600160a01b038116939260009290919085158015613e4d575b8015613e36575b613e24573415613e0a5761391534613686565b9892809592949195158015613e1c575b613e0a57600954916139378684612634565b9a7f0000000000000000000000000000000000000000000000000000000000000000988961396489613780565b9d14613e00575b8c158015613df5575b613db6578c10613db6576139d98c6000805160206146928339815191529661399f8a61010098612634565b6009556139ae8b600a54612634565b600a556139bd84600b54612634565b600b5542600c556139d0826007546124ed565b6007553061404c565b858a52600e6020524360408b20556139f183346124ed565b918280613de5575b5050600954976007549760405194855260208501526040840152606083015260808201528960a08201528560c08201528460e0820152a282821090811591613ddc575b50613a4657505050565b60065460ff8116926005841015613dc85760018403613674578203613db6576002809160ff19161792836006556000805160206146528339815191528580a3613a8d6141a9565b15613da457600854916040516370a0823160e01b815260018060a01b038260081c16600482015260208160248160018060a01b037f0000000000000000000000000000000000000000000000000000000000000000165afa908115613cfb5784908692613d6e575b509091613b0f919060081c6001600160a01b03163061404c565b7f00000000000000000000000000000000000000000000000000000000000000006001600160a01b03163b15613d6a57604051630d0e30db60e41b81528481600481867f00000000000000000000000000000000000000000000000000000000000000006001600160a01b03165af18015613cfb57613d57575b5060065460405163a9059cbb60e01b815260089190911c6001600160a01b039081166004830152602482018490526020908290604490829089907f0000000000000000000000000000000000000000000000000000000000000000165af1908115613cfb578591613d18575b5015613d06576006546040516335313c2160e11b815261dead6004820152929060209084906024908290899060081c6001600160a01b03165af1928315613cfb578593613cc7575b50846008558460095560065493600360ff86169560ff19161794856006556005811015613cb357916000805160206146728339815191529593916003608096946000805160206146528339815191526040519a80a3875260208701526040860152606085015260081c6001600160a01b031692a2565b634e487b7160e01b87526021600452602487fd5b9092506020813d602011613cf3575b81613ce36020938361234e565b810103126123dd57519138613c3d565b3d9150613cd6565b6040513d87823e3d90fd5b6040516314da028560e11b8152600490fd5b90506020813d602011613d4f575b81613d336020938361234e565b81010312613d4b57518015158103613d4b5738613bf5565b8480fd5b3d9150613d26565b613d6390949194612325565b9238613b89565b8380fd5b9150506020813d602011613d9c575b81613d8a6020938361234e565b81010312613d4b575183613b0f613af5565b3d9150613d7d565b604051633c1413fb60e01b8152600490fd5b604051638199f5f360e01b8152600490fd5b634e487b7160e01b85526021600452602485fd5b90501538613a3c565b613dee9161385d565b38826139f9565b506007548d11613974565b6007549c5061396b565b604051631f2a200560e01b8152600490fd5b508415613925565b604051634e46966960e11b8152600490fd5b5060065460081c6001600160a01b03168614613902565b503086146138fb565b60065460081c6001600160a01b0390811690811561262d57604080516318160ddd60e01b815290926020918281600481855afa908115613fab57600091613fb6575b50613f73578351630240bc6b60e21b8152606081600481855afa908115613fab57600090600092613f88575b506001600160701b039081161580159290613f7c575b5050613f7357613ee98161295b565b613f7357819060248551809581936370a0823160e01b835260048301527f0000000000000000000000000000000000000000000000000000000000000000165afa9283156128c75750600092613f45575b5050612a2857600190565b90809250813d8311613f6c575b613f5c818361234e565b810103126123dd57513880613f3a565b503d613f52565b50505050600090565b16151590503880613eda565b9050613fa3915060603d606011612900576128ee818361234e565b509038613ec4565b85513d6000823e3d90fd5b90508281813d8311613fdc575b613fcd818361234e565b810103126123dd575138613e98565b503d613fc3565b90801561400257613ffa6001916000198401612523565b019015150290565b634e487b7160005260126020526024601cfd5b80156126875780612710606461402d614037946145e8565b9209151590612634565b9061404182614503565b9061259b82846124ed565b916001600160a01b0380841692831561419057169283156141775760ff600654166005811015806125a45760018214801561416a575b156141305750503083148015614127575b15614115575b600090838252816020526040822054908382106140f8575091604082827fddf252ad1be2c89b69c2b068fc378daa952ba7f163c4a11628f55a4df523b3ef958760209652828652038282205586815220818154019055604051908152a3565b611e7c8460405193849363391434e360e21b855260048501614367565b6040516377d87fb560e11b8152600490fd5b50308414614093565b6125a4576002810361414a5750308303613674575b614099565b6003036140995730840361414557604051634e46966960e11b8152600490fd5b5050600060048214614082565b60405163ec442f0560e01b815260006004820152602490fd5b604051634b637e8f60e11b815260006004820152602490fd5b60065460081c6001600160a01b0390811690811561262d576040908151926318160ddd60e01b84526020938481600481855afa90811561432f5760009161433a575b50613f73576141f98161295b565b613f73578251630240bc6b60e21b815290606082600481845afa94851561432f57600092600096614307575b508451630dfe168160e01b8152908082600481865afa91821561293f576000926142e5575b50806004929387519384809263d21220a760e01b82525afa9586156128c757506000956142c6575b50508216301490816142b3575b506142ab571630149081614298575b50612a2857600190565b6001600160701b0316151590503861428e565b505050600090565b6001600160701b0316151590503861427f565b6142dd929550803d1061323657613227818361234e565b923880614272565b600492506143008291823d841161323657613227818361234e565b925061424a565b90955061432491925060603d606011612900576128ee818361234e565b509190919438614225565b84513d6000823e3d90fd5b90508481813d8311614360575b614351818361234e565b810103126123dd5751386141eb565b503d614347565b604091949392606082019560018060a01b0316825260208201520152565b60135460ff811661367457601054907f00000000000000000000000000000000000000000000000000000000000000008203613674576143d3906143c883614015565b9491829491946124ed565b908115613db6576143e382613780565b6144186144117f00000000000000000000000000000000000000000000000000000000000000008093612523565b9182612510565b91811580156144fb575b80156144f0575b613db657600160ff19809616176013558160125582600d55600060115561445284600954612634565b60095561446186600a54612634565b600a5561447087600b54612634565b600b5561447f836007546124ed565b60075542600c5560016006549560ff871696161760065560058510156125a4577f8020fdb0592775b626a997485c415e05a790703d920667e59222a260f0c3903a966001966144eb95604051988998600080516020614652833981519152600080a3600f549388612a6f565b0390a1565b506007548311614429565b508215614422565b600019601e8209601e820290818082109103908082039114614575578060641115614562576064601e7f5c28f5c28f5c28f5c28f5c28f5c28f5c28f5c28f5c28f5c28f5c28f5c28f5c29940990828211900360fe1b910360021c170290565b634e487b7160005260116020526024601cfd5b50606491500490565b612710600019818309818302918280831092039180830392146145dd576126ac9082821115614562577fa902ffe58553adaa902ffe58553adaa902ffe58553adaa902ffe58553adaa903940990828211900360fe1b910360021c170290565b50506126ac91500490565b60001960648209606482029081808210910390808203911461464757612710818111156145625760647fbc01a36e2eb1c432ca57a786c226809d495182a9930be0ded288ce703afb7e91940990828211900360fc1b910360041c170290565b506127109150049056fe3a779de46631dd65116ae538600f1bc3c338200c6aef638429b5de43301c28f771aa8c3702dbbc54247a4e6446450e64a46250dd72707a247ddb01d72eaef4456ff5f8cb3bbdee941e910591101be7dcb3bd64213bbc4ac9e994c9d7b0ef74cd9b779b17422d0df92223018b32b4d1fa46e071723d6817e2486d003becc55f00a2646970667358221220218d7e834949a5b7e01c1267132b80bf13a2527bb7d4de2e7a9aac22a83fbdbb64736f6c63430008180033",
  "linkReferences": {},
  "deployedLinkReferences": {}
}