{
  "_format": "hh-sol-artifact-1",
  "contractName": "LaunchTokenTaxed",
  "sourceName": "contracts/LaunchTokenTaxed.sol",
  "abi": [
    {
      "inputs": [
        {
          "components": [
            {
              "internalType": "string",
              "name": "name",
              "type": "string"
            },
            {
              "internalType": "string",
              "name": "symbol",
              "type": "string"
            },
            {
              "internalType": "string",
              "name": "metadataURI",
              "type": "string"
            },
            {
              "internalType": "address",
              "name": "creator",
              "type": "address"
            },
            {
              "internalType": "address",
              "name": "factory",
              "type": "address"
            },
            {
              "internalType": "address",
              "name": "protocolFeeRecipient",
              "type": "address"
            },
            {
              "internalType": "address",
              "name": "router",
              "type": "address"
            },
            {
              "internalType": "uint256",
              "name": "graduationQuoteReserve",
              "type": "uint256"
            },
            {
              "internalType": "uint8",
              "name": "launchModeId",
              "type": "uint8"
            },
            {
              "internalType": "uint16",
              "name": "taxBps",
              "type": "uint16"
            },
            {
              "internalType": "uint16",
              "name": "burnShareBps",
              "type": "uint16"
            },
            {
              "internalType": "uint16",
              "name": "treasuryShareBps",
              "type": "uint16"
            },
            {
              "internalType": "address",
              "name": "treasuryWallet",
              "type": "address"
            }
          ],
          "internalType": "struct LaunchTokenTaxed.TaxedConstructorArgs",
          "name": "args",
          "type": "tuple"
        }
      ],
      "stateMutability": "nonpayable",
      "type": "constructor"
    },
    {
      "inputs": [],
      "name": "CreatorFeeSweepUnavailable",
      "type": "error"
    },
    {
      "inputs": [
        {
          "internalType": "address",
          "name": "spender",
          "type": "address"
        },
        {
          "internalType": "uint256",
          "name": "allowance",
          "type": "uint256"
        },
        {
          "internalType": "uint256",
          "name": "needed",
          "type": "uint256"
        }
      ],
      "name": "ERC20InsufficientAllowance",
      "type": "error"
    },
    {
      "inputs": [
        {
          "internalType": "address",
          "name": "sender",
          "type": "address"
        },
        {
          "internalType": "uint256",
          "name": "balance",
          "type": "uint256"
        },
        {
          "internalType": "uint256",
          "name": "needed",
          "type": "uint256"
        }
      ],
      "name": "ERC20InsufficientBalance",
      "type": "error"
    },
    {
      "inputs": [
        {
          "internalType": "address",
          "name": "approver",
          "type": "address"
        }
      ],
      "name": "ERC20InvalidApprover",
      "type": "error"
    },
    {
      "inputs": [
        {
          "internalType": "address",
          "name": "receiver",
          "type": "address"
        }
      ],
      "name": "ERC20InvalidReceiver",
      "type": "error"
    },
    {
      "inputs": [
        {
          "internalType": "address",
          "name": "sender",
          "type": "address"
        }
      ],
      "name": "ERC20InvalidSender",
      "type": "error"
    },
    {
      "inputs": [
        {
          "internalType": "address",
          "name": "spender",
          "type": "address"
        }
      ],
      "name": "ERC20InvalidSpender",
      "type": "error"
    },
    {
      "inputs": [],
      "name": "FailedCall",
      "type": "error"
    },
    {
      "inputs": [],
      "name": "GraduationAlreadyTriggered",
      "type": "error"
    },
    {
      "inputs": [
        {
          "internalType": "uint256",
          "name": "balance",
          "type": "uint256"
        },
        {
          "internalType": "uint256",
          "name": "needed",
          "type": "uint256"
        }
      ],
      "name": "InsufficientBalance",
      "type": "error"
    },
    {
      "inputs": [],
      "name": "InvalidGraduationConfig",
      "type": "error"
    },
    {
      "inputs": [],
      "name": "InvalidRecipient",
      "type": "error"
    },
    {
      "inputs": [],
      "name": "InvalidState",
      "type": "error"
    },
    {
      "inputs": [],
      "name": "InvalidTaxConfig",
      "type": "error"
    },
    {
      "inputs": [],
      "name": "NothingToClaim",
      "type": "error"
    },
    {
      "inputs": [],
      "name": "PairPolluted",
      "type": "error"
    },
    {
      "inputs": [],
      "name": "ReentrancyGuardReentrantCall",
      "type": "error"
    },
    {
      "inputs": [],
      "name": "SellCooldownActive",
      "type": "error"
    },
    {
      "inputs": [],
      "name": "SlippageExceeded",
      "type": "error"
    },
    {
      "inputs": [],
      "name": "TransferDisabledPreGraduation",
      "type": "error"
    },
    {
      "inputs": [],
      "name": "Unauthorized",
      "type": "error"
    },
    {
      "inputs": [],
      "name": "UnauthorizedFactoryCaller",
      "type": "error"
    },
    {
      "inputs": [],
      "name": "UnauthorizedFactoryDeployment",
      "type": "error"
    },
    {
      "inputs": [],
      "name": "UnauthorizedTaxedFactoryDeployment",
      "type": "error"
    },
    {
      "inputs": [],
      "name": "WrappedQuoteTransferFailed",
      "type": "error"
    },
    {
      "inputs": [],
      "name": "ZeroAddress",
      "type": "error"
    },
    {
      "inputs": [],
      "name": "ZeroAmount",
      "type": "error"
    },
    {
      "anonymous": false,
      "inputs": [
        {
          "indexed": true,
          "internalType": "address",
          "name": "owner",
          "type": "address"
        },
        {
          "indexed": true,
          "internalType": "address",
          "name": "spender",
          "type": "address"
        },
        {
          "indexed": false,
          "internalType": "uint256",
          "name": "value",
          "type": "uint256"
        }
      ],
      "name": "Approval",
      "type": "event"
    },
    {
      "anonymous": false,
      "inputs": [
        {
          "indexed": true,
          "internalType": "address",
          "name": "buyer",
          "type": "address"
        },
        {
          "indexed": false,
          "internalType": "uint256",
          "name": "grossQuoteIn",
          "type": "uint256"
        },
        {
          "indexed": false,
          "internalType": "uint256",
          "name": "netQuoteIn",
          "type": "uint256"
        },
        {
          "indexed": false,
          "internalType": "uint256",
          "name": "protocolFee",
          "type": "uint256"
        },
        {
          "indexed": false,
          "internalType": "uint256",
          "name": "creatorFee",
          "type": "uint256"
        },
        {
          "indexed": false,
          "internalType": "uint256",
          "name": "refundAmount",
          "type": "uint256"
        },
        {
          "indexed": false,
          "internalType": "uint256",
          "name": "tokenOut",
          "type": "uint256"
        },
        {
          "indexed": false,
          "internalType": "uint256",
          "name": "newCurveQuoteReserve",
          "type": "uint256"
        },
        {
          "indexed": false,
          "internalType": "uint256",
          "name": "newSaleTokenReserve",
          "type": "uint256"
        }
      ],
      "name": "BuyExecuted",
      "type": "event"
    },
    {
      "anonymous": false,
      "inputs": [
        {
          "indexed": true,
          "internalType": "address",
          "name": "recipient",
          "type": "address"
        },
        {
          "indexed": false,
          "internalType": "uint256",
          "name": "amount",
          "type": "uint256"
        }
      ],
      "name": "CreatorFeesClaimed",
      "type": "event"
    },
    {
      "anonymous": false,
      "inputs": [
        {
          "indexed": true,
          "internalType": "address",
          "name": "caller",
          "type": "address"
        },
        {
          "indexed": false,
          "internalType": "uint256",
          "name": "amount",
          "type": "uint256"
        }
      ],
      "name": "CreatorFeesSwept",
      "type": "event"
    },
    {
      "anonymous": false,
      "inputs": [
        {
          "indexed": true,
          "internalType": "address",
          "name": "pair",
          "type": "address"
        },
        {
          "indexed": false,
          "internalType": "uint256",
          "name": "tokenAmount",
          "type": "uint256"
        },
        {
          "indexed": false,
          "internalType": "uint256",
          "name": "quoteAmountContributed",
          "type": "uint256"
        },
        {
          "indexed": false,
          "internalType": "uint256",
          "name": "preloadedQuoteAmount",
          "type": "uint256"
        },
        {
          "indexed": false,
          "internalType": "uint256",
          "name": "liquidityBurned",
          "type": "uint256"
        }
      ],
      "name": "Graduated",
      "type": "event"
    },
    {
      "anonymous": false,
      "inputs": [
        {
          "indexed": true,
          "internalType": "address",
          "name": "recipient",
          "type": "address"
        },
        {
          "indexed": false,
          "internalType": "uint256",
          "name": "amount",
          "type": "uint256"
        }
      ],
      "name": "ProtocolFeesClaimed",
      "type": "event"
    },
    {
      "anonymous": false,
      "inputs": [
        {
          "indexed": true,
          "internalType": "address",
          "name": "seller",
          "type": "address"
        },
        {
          "indexed": false,
          "internalType": "uint256",
          "name": "tokenIn",
          "type": "uint256"
        },
        {
          "indexed": false,
          "internalType": "uint256",
          "name": "grossQuoteOut",
          "type": "uint256"
        },
        {
          "indexed": false,
          "internalType": "uint256",
          "name": "netQuoteOut",
          "type": "uint256"
        },
        {
          "indexed": false,
          "internalType": "uint256",
          "name": "protocolFee",
          "type": "uint256"
        },
        {
          "indexed": false,
          "internalType": "uint256",
          "name": "creatorFee",
          "type": "uint256"
        },
        {
          "indexed": false,
          "internalType": "uint256",
          "name": "newCurveQuoteReserve",
          "type": "uint256"
        },
        {
          "indexed": false,
          "internalType": "uint256",
          "name": "newSaleTokenReserve",
          "type": "uint256"
        }
      ],
      "name": "SellExecuted",
      "type": "event"
    },
    {
      "anonymous": false,
      "inputs": [
        {
          "indexed": true,
          "internalType": "enum LaunchTokenBase.LaunchState",
          "name": "previousState",
          "type": "uint8"
        },
        {
          "indexed": true,
          "internalType": "enum LaunchTokenBase.LaunchState",
          "name": "newState",
          "type": "uint8"
        }
      ],
      "name": "StateTransition",
      "type": "event"
    },
    {
      "anonymous": false,
      "inputs": [
        {
          "indexed": true,
          "internalType": "address",
          "name": "from",
          "type": "address"
        },
        {
          "indexed": true,
          "internalType": "address",
          "name": "to",
          "type": "address"
        },
        {
          "indexed": false,
          "internalType": "uint256",
          "name": "grossAmount",
          "type": "uint256"
        },
        {
          "indexed": false,
          "internalType": "uint256",
          "name": "taxAmount",
          "type": "uint256"
        },
        {
          "indexed": false,
          "internalType": "uint256",
          "name": "burnAmount",
          "type": "uint256"
        },
        {
          "indexed": false,
          "internalType": "uint256",
          "name": "treasuryAmount",
          "type": "uint256"
        }
      ],
      "name": "TaxApplied",
      "type": "event"
    },
    {
      "anonymous": false,
      "inputs": [
        {
          "indexed": true,
          "internalType": "address",
          "name": "from",
          "type": "address"
        },
        {
          "indexed": true,
          "internalType": "address",
          "name": "to",
          "type": "address"
        },
        {
          "indexed": false,
          "internalType": "uint256",
          "name": "value",
          "type": "uint256"
        }
      ],
      "name": "Transfer",
      "type": "event"
    },
    {
      "inputs": [],
      "name": "BPS_DENOMINATOR",
      "outputs": [
        {
          "internalType": "uint256",
          "name": "",
          "type": "uint256"
        }
      ],
      "stateMutability": "view",
      "type": "function"
    },
    {
      "inputs": [],
      "name": "CREATOR_FEE_BPS",
      "outputs": [
        {
          "internalType": "uint256",
          "name": "",
          "type": "uint256"
        }
      ],
      "stateMutability": "view",
      "type": "function"
    },
    {
      "inputs": [],
      "name": "CREATOR_FEE_SWEEP_MIN_AGE",
      "outputs": [
        {
          "internalType": "uint256",
          "name": "",
          "type": "uint256"
        }
      ],
      "stateMutability": "view",
      "type": "function"
    },
    {
      "inputs": [],
      "name": "CREATOR_FEE_SWEEP_MIN_INACTIVITY",
      "outputs": [
        {
          "internalType": "uint256",
          "name": "",
          "type": "uint256"
        }
      ],
      "stateMutability": "view",
      "type": "function"
    },
    {
      "inputs": [],
      "name": "DEAD_ADDRESS",
      "outputs": [
        {
          "internalType": "address",
          "name": "",
          "type": "address"
        }
      ],
      "stateMutability": "view",
      "type": "function"
    },
    {
      "inputs": [],
      "name": "LP_TOKEN_RESERVE",
      "outputs": [
        {
          "internalType": "uint256",
          "name": "",
          "type": "uint256"
        }
      ],
      "stateMutability": "view",
      "type": "function"
    },
    {
      "inputs": [],
      "name": "MODE_STANDARD_0314",
      "outputs": [
        {
          "internalType": "uint8",
          "name": "",
          "type": "uint8"
        }
      ],
      "stateMutability": "view",
      "type": "function"
    },
    {
      "inputs": [],
      "name": "MODE_TAXED_1314",
      "outputs": [
        {
          "internalType": "uint8",
          "name": "",
          "type": "uint8"
        }
      ],
      "stateMutability": "view",
      "type": "function"
    },
    {
      "inputs": [],
      "name": "MODE_TAXED_2314",
      "outputs": [
        {
          "internalType": "uint8",
          "name": "",
          "type": "uint8"
        }
      ],
      "stateMutability": "view",
      "type": "function"
    },
    {
      "inputs": [],
      "name": "MODE_TAXED_3314",
      "outputs": [
        {
          "internalType": "uint8",
          "name": "",
          "type": "uint8"
        }
      ],
      "stateMutability": "view",
      "type": "function"
    },
    {
      "inputs": [],
      "name": "MODE_TAXED_4314",
      "outputs": [
        {
          "internalType": "uint8",
          "name": "",
          "type": "uint8"
        }
      ],
      "stateMutability": "view",
      "type": "function"
    },
    {
      "inputs": [],
      "name": "MODE_TAXED_5314",
      "outputs": [
        {
          "internalType": "uint8",
          "name": "",
          "type": "uint8"
        }
      ],
      "stateMutability": "view",
      "type": "function"
    },
    {
      "inputs": [],
      "name": "MODE_TAXED_6314",
      "outputs": [
        {
          "internalType": "uint8",
          "name": "",
          "type": "uint8"
        }
      ],
      "stateMutability": "view",
      "type": "function"
    },
    {
      "inputs": [],
      "name": "MODE_TAXED_7314",
      "outputs": [
        {
          "internalType": "uint8",
          "name": "",
          "type": "uint8"
        }
      ],
      "stateMutability": "view",
      "type": "function"
    },
    {
      "inputs": [],
      "name": "MODE_TAXED_8314",
      "outputs": [
        {
          "internalType": "uint8",
          "name": "",
          "type": "uint8"
        }
      ],
      "stateMutability": "view",
      "type": "function"
    },
    {
      "inputs": [],
      "name": "MODE_TAXED_9314",
      "outputs": [
        {
          "internalType": "uint8",
          "name": "",
          "type": "uint8"
        }
      ],
      "stateMutability": "view",
      "type": "function"
    },
    {
      "inputs": [],
      "name": "MODE_WHITELIST_B314",
      "outputs": [
        {
          "internalType": "uint8",
          "name": "",
          "type": "uint8"
        }
      ],
      "stateMutability": "view",
      "type": "function"
    },
    {
      "inputs": [],
      "name": "MODE_WHITELIST_TAX_F314",
      "outputs": [
        {
          "internalType": "uint8",
          "name": "",
          "type": "uint8"
        }
      ],
      "stateMutability": "view",
      "type": "function"
    },
    {
      "inputs": [],
      "name": "PROTOCOL_FEE_BPS",
      "outputs": [
        {
          "internalType": "uint256",
          "name": "",
          "type": "uint256"
        }
      ],
      "stateMutability": "view",
      "type": "function"
    },
    {
      "inputs": [],
      "name": "SALE_TOKEN_RESERVE",
      "outputs": [
        {
          "internalType": "uint256",
          "name": "",
          "type": "uint256"
        }
      ],
      "stateMutability": "view",
      "type": "function"
    },
    {
      "inputs": [],
      "name": "TOTAL_FEE_BPS",
      "outputs": [
        {
          "internalType": "uint256",
          "name": "",
          "type": "uint256"
        }
      ],
      "stateMutability": "view",
      "type": "function"
    },
    {
      "inputs": [],
      "name": "TOTAL_SUPPLY",
      "outputs": [
        {
          "internalType": "uint256",
          "name": "",
          "type": "uint256"
        }
      ],
      "stateMutability": "view",
      "type": "function"
    },
    {
      "inputs": [],
      "name": "VIRTUAL_QUOTE_DIVISOR",
      "outputs": [
        {
          "internalType": "uint256",
          "name": "",
          "type": "uint256"
        }
      ],
      "stateMutability": "view",
      "type": "function"
    },
    {
      "inputs": [],
      "name": "WHITELIST_STATUS_ACTIVE",
      "outputs": [
        {
          "internalType": "uint8",
          "name": "",
          "type": "uint8"
        }
      ],
      "stateMutability": "view",
      "type": "function"
    },
    {
      "inputs": [],
      "name": "WHITELIST_STATUS_EXPIRED",
      "outputs": [
        {
          "internalType": "uint8",
          "name": "",
          "type": "uint8"
        }
      ],
      "stateMutability": "view",
      "type": "function"
    },
    {
      "inputs": [],
      "name": "WHITELIST_STATUS_FINALIZED",
      "outputs": [
        {
          "internalType": "uint8",
          "name": "",
          "type": "uint8"
        }
      ],
      "stateMutability": "view",
      "type": "function"
    },
    {
      "inputs": [],
      "name": "WHITELIST_STATUS_NONE",
      "outputs": [
        {
          "internalType": "uint8",
          "name": "",
          "type": "uint8"
        }
      ],
      "stateMutability": "view",
      "type": "function"
    },
    {
      "inputs": [],
      "name": "WHITELIST_STATUS_SCHEDULED",
      "outputs": [
        {
          "internalType": "uint8",
          "name": "",
          "type": "uint8"
        }
      ],
      "stateMutability": "view",
      "type": "function"
    },
    {
      "inputs": [],
      "name": "accountedNativeBalance",
      "outputs": [
        {
          "internalType": "uint256",
          "name": "",
          "type": "uint256"
        }
      ],
      "stateMutability": "view",
      "type": "function"
    },
    {
      "inputs": [
        {
          "internalType": "address",
          "name": "owner",
          "type": "address"
        },
        {
          "internalType": "address",
          "name": "spender",
          "type": "address"
        }
      ],
      "name": "allowance",
      "outputs": [
        {
          "internalType": "uint256",
          "name": "",
          "type": "uint256"
        }
      ],
      "stateMutability": "view",
      "type": "function"
    },
    {
      "inputs": [
        {
          "internalType": "address",
          "name": "spender",
          "type": "address"
        },
        {
          "internalType": "uint256",
          "name": "value",
          "type": "uint256"
        }
      ],
      "name": "approve",
      "outputs": [
        {
          "internalType": "bool",
          "name": "",
          "type": "bool"
        }
      ],
      "stateMutability": "nonpayable",
      "type": "function"
    },
    {
      "inputs": [
        {
          "internalType": "address",
          "name": "account",
          "type": "address"
        }
      ],
      "name": "balanceOf",
      "outputs": [
        {
          "internalType": "uint256",
          "name": "",
          "type": "uint256"
        }
      ],
      "stateMutability": "view",
      "type": "function"
    },
    {
      "inputs": [
        {
          "internalType": "uint256",
          "name": "minTokenOut",
          "type": "uint256"
        }
      ],
      "name": "buy",
      "outputs": [
        {
          "internalType": "uint256",
          "name": "tokenOut",
          "type": "uint256"
        }
      ],
      "stateMutability": "payable",
      "type": "function"
    },
    {
      "inputs": [
        {
          "internalType": "address",
          "name": "",
          "type": "address"
        }
      ],
      "name": "canClaimWhitelistAllocation",
      "outputs": [
        {
          "internalType": "bool",
          "name": "",
          "type": "bool"
        }
      ],
      "stateMutability": "view",
      "type": "function"
    },
    {
      "inputs": [
        {
          "internalType": "address",
          "name": "",
          "type": "address"
        }
      ],
      "name": "canClaimWhitelistRefund",
      "outputs": [
        {
          "internalType": "bool",
          "name": "",
          "type": "bool"
        }
      ],
      "stateMutability": "view",
      "type": "function"
    },
    {
      "inputs": [
        {
          "internalType": "address",
          "name": "",
          "type": "address"
        }
      ],
      "name": "canCommitWhitelist",
      "outputs": [
        {
          "internalType": "bool",
          "name": "",
          "type": "bool"
        }
      ],
      "stateMutability": "view",
      "type": "function"
    },
    {
      "inputs": [
        {
          "internalType": "address",
          "name": "account",
          "type": "address"
        }
      ],
      "name": "canSell",
      "outputs": [
        {
          "internalType": "bool",
          "name": "",
          "type": "bool"
        }
      ],
      "stateMutability": "view",
      "type": "function"
    },
    {
      "inputs": [],
      "name": "claimCreatorFees",
      "outputs": [
        {
          "internalType": "uint256",
          "name": "amount",
          "type": "uint256"
        }
      ],
      "stateMutability": "nonpayable",
      "type": "function"
    },
    {
      "inputs": [
        {
          "internalType": "address payable",
          "name": "recipient",
          "type": "address"
        }
      ],
      "name": "claimCreatorFeesTo",
      "outputs": [
        {
          "internalType": "uint256",
          "name": "amount",
          "type": "uint256"
        }
      ],
      "stateMutability": "nonpayable",
      "type": "function"
    },
    {
      "inputs": [],
      "name": "claimProtocolFees",
      "outputs": [
        {
          "internalType": "uint256",
          "name": "amount",
          "type": "uint256"
        }
      ],
      "stateMutability": "nonpayable",
      "type": "function"
    },
    {
      "inputs": [
        {
          "internalType": "address payable",
          "name": "recipient",
          "type": "address"
        }
      ],
      "name": "claimProtocolFeesTo",
      "outputs": [
        {
          "internalType": "uint256",
          "name": "amount",
          "type": "uint256"
        }
      ],
      "stateMutability": "nonpayable",
      "type": "function"
    },
    {
      "inputs": [],
      "name": "createdAt",
      "outputs": [
        {
          "internalType": "uint256",
          "name": "",
          "type": "uint256"
        }
      ],
      "stateMutability": "view",
      "type": "function"
    },
    {
      "inputs": [],
      "name": "creator",
      "outputs": [
        {
          "internalType": "address",
          "name": "",
          "type": "address"
        }
      ],
      "stateMutability": "view",
      "type": "function"
    },
    {
      "inputs": [],
      "name": "creatorClaimable",
      "outputs": [
        {
          "internalType": "uint256",
          "name": "",
          "type": "uint256"
        }
      ],
      "stateMutability": "view",
      "type": "function"
    },
    {
      "inputs": [],
      "name": "creatorFeeSweepReady",
      "outputs": [
        {
          "internalType": "bool",
          "name": "",
          "type": "bool"
        }
      ],
      "stateMutability": "view",
      "type": "function"
    },
    {
      "inputs": [],
      "name": "creatorFeeVault",
      "outputs": [
        {
          "internalType": "uint256",
          "name": "",
          "type": "uint256"
        }
      ],
      "stateMutability": "view",
      "type": "function"
    },
    {
      "inputs": [],
      "name": "currentPriceQuotePerToken",
      "outputs": [
        {
          "internalType": "uint256",
          "name": "",
          "type": "uint256"
        }
      ],
      "stateMutability": "view",
      "type": "function"
    },
    {
      "inputs": [],
      "name": "curveQuoteReserve",
      "outputs": [
        {
          "internalType": "uint256",
          "name": "",
          "type": "uint256"
        }
      ],
      "stateMutability": "view",
      "type": "function"
    },
    {
      "inputs": [],
      "name": "decimals",
      "outputs": [
        {
          "internalType": "uint8",
          "name": "",
          "type": "uint8"
        }
      ],
      "stateMutability": "view",
      "type": "function"
    },
    {
      "inputs": [],
      "name": "dexFactory",
      "outputs": [
        {
          "internalType": "address",
          "name": "",
          "type": "address"
        }
      ],
      "stateMutability": "view",
      "type": "function"
    },
    {
      "inputs": [],
      "name": "dexReserves",
      "outputs": [
        {
          "internalType": "uint256",
          "name": "tokenReserve",
          "type": "uint256"
        },
        {
          "internalType": "uint256",
          "name": "quoteReserve",
          "type": "uint256"
        }
      ],
      "stateMutability": "view",
      "type": "function"
    },
    {
      "inputs": [],
      "name": "displayGraduationProgressBps",
      "outputs": [
        {
          "internalType": "uint256",
          "name": "",
          "type": "uint256"
        }
      ],
      "stateMutability": "view",
      "type": "function"
    },
    {
      "inputs": [],
      "name": "factory",
      "outputs": [
        {
          "internalType": "address",
          "name": "",
          "type": "address"
        }
      ],
      "stateMutability": "view",
      "type": "function"
    },
    {
      "inputs": [
        {
          "internalType": "address",
          "name": "recipient",
          "type": "address"
        },
        {
          "internalType": "uint256",
          "name": "minTokenOut",
          "type": "uint256"
        }
      ],
      "name": "factoryBuyFor",
      "outputs": [
        {
          "internalType": "uint256",
          "name": "tokenOut",
          "type": "uint256"
        }
      ],
      "stateMutability": "payable",
      "type": "function"
    },
    {
      "inputs": [
        {
          "internalType": "address payable",
          "name": "recipient",
          "type": "address"
        }
      ],
      "name": "factoryClaimProtocolFeesTo",
      "outputs": [
        {
          "internalType": "uint256",
          "name": "amount",
          "type": "uint256"
        }
      ],
      "stateMutability": "nonpayable",
      "type": "function"
    },
    {
      "inputs": [],
      "name": "graduationProgressBps",
      "outputs": [
        {
          "internalType": "uint256",
          "name": "",
          "type": "uint256"
        }
      ],
      "stateMutability": "view",
      "type": "function"
    },
    {
      "inputs": [],
      "name": "graduationQuoteReserve",
      "outputs": [
        {
          "internalType": "uint256",
          "name": "",
          "type": "uint256"
        }
      ],
      "stateMutability": "view",
      "type": "function"
    },
    {
      "inputs": [],
      "name": "isPairClean",
      "outputs": [
        {
          "internalType": "bool",
          "name": "",
          "type": "bool"
        }
      ],
      "stateMutability": "view",
      "type": "function"
    },
    {
      "inputs": [],
      "name": "isPairGraduationCompatible",
      "outputs": [
        {
          "internalType": "bool",
          "name": "",
          "type": "bool"
        }
      ],
      "stateMutability": "view",
      "type": "function"
    },
    {
      "inputs": [
        {
          "internalType": "address",
          "name": "",
          "type": "address"
        }
      ],
      "name": "isWhitelisted",
      "outputs": [
        {
          "internalType": "bool",
          "name": "",
          "type": "bool"
        }
      ],
      "stateMutability": "view",
      "type": "function"
    },
    {
      "inputs": [
        {
          "internalType": "address",
          "name": "",
          "type": "address"
        }
      ],
      "name": "lastBuyBlock",
      "outputs": [
        {
          "internalType": "uint256",
          "name": "",
          "type": "uint256"
        }
      ],
      "stateMutability": "view",
      "type": "function"
    },
    {
      "inputs": [],
      "name": "lastTradeAt",
      "outputs": [
        {
          "internalType": "uint256",
          "name": "",
          "type": "uint256"
        }
      ],
      "stateMutability": "view",
      "type": "function"
    },
    {
      "inputs": [],
      "name": "launchMode",
      "outputs": [
        {
          "internalType": "uint8",
          "name": "",
          "type": "uint8"
        }
      ],
      "stateMutability": "view",
      "type": "function"
    },
    {
      "inputs": [],
      "name": "launchModeId",
      "outputs": [
        {
          "internalType": "uint8",
          "name": "",
          "type": "uint8"
        }
      ],
      "stateMutability": "view",
      "type": "function"
    },
    {
      "inputs": [],
      "name": "launchSuffix",
      "outputs": [
        {
          "internalType": "string",
          "name": "",
          "type": "string"
        }
      ],
      "stateMutability": "view",
      "type": "function"
    },
    {
      "inputs": [],
      "name": "lpTokenReserve",
      "outputs": [
        {
          "internalType": "uint256",
          "name": "",
          "type": "uint256"
        }
      ],
      "stateMutability": "view",
      "type": "function"
    },
    {
      "inputs": [],
      "name": "metadataURI",
      "outputs": [
        {
          "internalType": "string",
          "name": "",
          "type": "string"
        }
      ],
      "stateMutability": "view",
      "type": "function"
    },
    {
      "inputs": [],
      "name": "name",
      "outputs": [
        {
          "internalType": "string",
          "name": "",
          "type": "string"
        }
      ],
      "stateMutability": "view",
      "type": "function"
    },
    {
      "inputs": [],
      "name": "pair",
      "outputs": [
        {
          "internalType": "address",
          "name": "",
          "type": "address"
        }
      ],
      "stateMutability": "view",
      "type": "function"
    },
    {
      "inputs": [],
      "name": "pairPreloadedQuote",
      "outputs": [
        {
          "internalType": "uint256",
          "name": "",
          "type": "uint256"
        }
      ],
      "stateMutability": "view",
      "type": "function"
    },
    {
      "inputs": [],
      "name": "pairSnapshot",
      "outputs": [
        {
          "internalType": "address",
          "name": "pairAddress",
          "type": "address"
        },
        {
          "internalType": "uint256",
          "name": "pairTotalSupply",
          "type": "uint256"
        },
        {
          "internalType": "uint112",
          "name": "reserve0",
          "type": "uint112"
        },
        {
          "internalType": "uint112",
          "name": "reserve1",
          "type": "uint112"
        },
        {
          "internalType": "uint256",
          "name": "tokenBalance",
          "type": "uint256"
        },
        {
          "internalType": "uint256",
          "name": "wrappedNativeBalance",
          "type": "uint256"
        }
      ],
      "stateMutability": "view",
      "type": "function"
    },
    {
      "inputs": [
        {
          "internalType": "uint256",
          "name": "grossQuoteIn",
          "type": "uint256"
        }
      ],
      "name": "previewBuy",
      "outputs": [
        {
          "internalType": "uint256",
          "name": "tokenOut",
          "type": "uint256"
        },
        {
          "internalType": "uint256",
          "name": "feeAmount",
          "type": "uint256"
        },
        {
          "internalType": "uint256",
          "name": "refundAmount",
          "type": "uint256"
        }
      ],
      "stateMutability": "view",
      "type": "function"
    },
    {
      "inputs": [
        {
          "internalType": "uint256",
          "name": "tokenAmount",
          "type": "uint256"
        }
      ],
      "name": "previewSell",
      "outputs": [
        {
          "internalType": "uint256",
          "name": "grossQuoteOut",
          "type": "uint256"
        },
        {
          "internalType": "uint256",
          "name": "netQuoteOut",
          "type": "uint256"
        },
        {
          "internalType": "uint256",
          "name": "totalFee",
          "type": "uint256"
        }
      ],
      "stateMutability": "view",
      "type": "function"
    },
    {
      "inputs": [],
      "name": "priceQuotePerToken",
      "outputs": [
        {
          "internalType": "uint256",
          "name": "",
          "type": "uint256"
        }
      ],
      "stateMutability": "view",
      "type": "function"
    },
    {
      "inputs": [],
      "name": "protocolClaimable",
      "outputs": [
        {
          "internalType": "uint256",
          "name": "",
          "type": "uint256"
        }
      ],
      "stateMutability": "view",
      "type": "function"
    },
    {
      "inputs": [],
      "name": "protocolFeeRecipient",
      "outputs": [
        {
          "internalType": "address",
          "name": "",
          "type": "address"
        }
      ],
      "stateMutability": "view",
      "type": "function"
    },
    {
      "inputs": [],
      "name": "protocolFeeVault",
      "outputs": [
        {
          "internalType": "uint256",
          "name": "",
          "type": "uint256"
        }
      ],
      "stateMutability": "view",
      "type": "function"
    },
    {
      "inputs": [],
      "name": "remainingQuoteCapacity",
      "outputs": [
        {
          "internalType": "uint256",
          "name": "",
          "type": "uint256"
        }
      ],
      "stateMutability": "view",
      "type": "function"
    },
    {
      "inputs": [],
      "name": "router",
      "outputs": [
        {
          "internalType": "address",
          "name": "",
          "type": "address"
        }
      ],
      "stateMutability": "view",
      "type": "function"
    },
    {
      "inputs": [],
      "name": "saleTokenReserve",
      "outputs": [
        {
          "internalType": "uint256",
          "name": "",
          "type": "uint256"
        }
      ],
      "stateMutability": "view",
      "type": "function"
    },
    {
      "inputs": [
        {
          "internalType": "uint256",
          "name": "tokenAmount",
          "type": "uint256"
        },
        {
          "internalType": "uint256",
          "name": "minQuoteOut",
          "type": "uint256"
        }
      ],
      "name": "sell",
      "outputs": [
        {
          "internalType": "uint256",
          "name": "netQuoteOut",
          "type": "uint256"
        }
      ],
      "stateMutability": "nonpayable",
      "type": "function"
    },
    {
      "inputs": [
        {
          "internalType": "address",
          "name": "account",
          "type": "address"
        }
      ],
      "name": "sellUnlockBlock",
      "outputs": [
        {
          "internalType": "uint256",
          "name": "",
          "type": "uint256"
        }
      ],
      "stateMutability": "view",
      "type": "function"
    },
    {
      "inputs": [],
      "name": "state",
      "outputs": [
        {
          "internalType": "enum LaunchTokenBase.LaunchState",
          "name": "",
          "type": "uint8"
        }
      ],
      "stateMutability": "view",
      "type": "function"
    },
    {
      "inputs": [],
      "name": "sweepAbandonedCreatorFees",
      "outputs": [
        {
          "internalType": "uint256",
          "name": "amount",
          "type": "uint256"
        }
      ],
      "stateMutability": "nonpayable",
      "type": "function"
    },
    {
      "inputs": [],
      "name": "symbol",
      "outputs": [
        {
          "internalType": "string",
          "name": "",
          "type": "string"
        }
      ],
      "stateMutability": "view",
      "type": "function"
    },
    {
      "inputs": [],
      "name": "taxConfig",
      "outputs": [
        {
          "internalType": "bool",
          "name": "enabled",
          "type": "bool"
        },
        {
          "internalType": "uint16",
          "name": "configuredTaxBps",
          "type": "uint16"
        },
        {
          "internalType": "uint16",
          "name": "burnBps",
          "type": "uint16"
        },
        {
          "internalType": "uint16",
          "name": "treasuryBps",
          "type": "uint16"
        },
        {
          "internalType": "address",
          "name": "wallet",
          "type": "address"
        },
        {
          "internalType": "bool",
          "name": "active",
          "type": "bool"
        }
      ],
      "stateMutability": "view",
      "type": "function"
    },
    {
      "inputs": [],
      "name": "totalSupply",
      "outputs": [
        {
          "internalType": "uint256",
          "name": "",
          "type": "uint256"
        }
      ],
      "stateMutability": "view",
      "type": "function"
    },
    {
      "inputs": [
        {
          "internalType": "address",
          "name": "to",
          "type": "address"
        },
        {
          "internalType": "uint256",
          "name": "value",
          "type": "uint256"
        }
      ],
      "name": "transfer",
      "outputs": [
        {
          "internalType": "bool",
          "name": "",
          "type": "bool"
        }
      ],
      "stateMutability": "nonpayable",
      "type": "function"
    },
    {
      "inputs": [
        {
          "internalType": "address",
          "name": "from",
          "type": "address"
        },
        {
          "internalType": "address",
          "name": "to",
          "type": "address"
        },
        {
          "internalType": "uint256",
          "name": "value",
          "type": "uint256"
        }
      ],
      "name": "transferFrom",
      "outputs": [
        {
          "internalType": "bool",
          "name": "",
          "type": "bool"
        }
      ],
      "stateMutability": "nonpayable",
      "type": "function"
    },
    {
      "inputs": [],
      "name": "unexpectedNativeBalance",
      "outputs": [
        {
          "internalType": "uint256",
          "name": "",
          "type": "uint256"
        }
      ],
      "stateMutability": "view",
      "type": "function"
    },
    {
      "inputs": [],
      "name": "virtualQuoteReserve",
      "outputs": [
        {
          "internalType": "uint256",
          "name": "",
          "type": "uint256"
        }
      ],
      "stateMutability": "view",
      "type": "function"
    },
    {
      "inputs": [],
      "name": "virtualTokenReserve",
      "outputs": [
        {
          "internalType": "uint256",
          "name": "",
          "type": "uint256"
        }
      ],
      "stateMutability": "view",
      "type": "function"
    },
    {
      "inputs": [],
      "name": "whitelistAllocationTokenReserve",
      "outputs": [
        {
          "internalType": "uint256",
          "name": "",
          "type": "uint256"
        }
      ],
      "stateMutability": "view",
      "type": "function"
    },
    {
      "inputs": [],
      "name": "whitelistSnapshot",
      "outputs": [
        {
          "internalType": "uint8",
          "name": "status",
          "type": "uint8"
        },
        {
          "internalType": "uint256",
          "name": "opensAt",
          "type": "uint256"
        },
        {
          "internalType": "uint256",
          "name": "deadline",
          "type": "uint256"
        },
        {
          "internalType": "uint256",
          "name": "threshold",
          "type": "uint256"
        },
        {
          "internalType": "uint256",
          "name": "slotSize",
          "type": "uint256"
        },
        {
          "internalType": "uint256",
          "name": "seatCount",
          "type": "uint256"
        },
        {
          "internalType": "uint256",
          "name": "seatsFilled",
          "type": "uint256"
        },
        {
          "internalType": "uint256",
          "name": "committedTotal",
          "type": "uint256"
        },
        {
          "internalType": "uint256",
          "name": "tokensPerSeat",
          "type": "uint256"
        }
      ],
      "stateMutability": "view",
      "type": "function"
    },
    {
      "inputs": [],
      "name": "whitelistStatus",
      "outputs": [
        {
          "internalType": "uint8",
          "name": "",
          "type": "uint8"
        }
      ],
      "stateMutability": "view",
      "type": "function"
    },
    {
      "inputs": [],
      "name": "wrappedNative",
      "outputs": [
        {
          "internalType": "address",
          "name": "",
          "type": "address"
        }
      ],
      "stateMutability": "view",
      "type": "function"
    },
    {
      "stateMutability": "payable",
      "type": "receive"
    }
  ],
  "bytecode": "0x61026080604052346200091057620050fa803803809162000021828562000dab565b833981019060208183031262000910578051906001600160401b03821162000910576101a08282018403126200091057604051926101a084016001600160401b0381118582101762000a8057604052818301516001600160401b03811162000910578162000093918585010162000dcf565b8452818301602001516001600160401b038111620009105781620000bb918585010162000dcf565b602085015281830160400151906001600160401b0382116200091057620000e6918484010162000dcf565b806040850152620000fc60608484010162000e45565b928360608601526200011360808285010162000e45565b8060808701526200012960a08386010162000e45565b8060a08801526200013f60c08487010162000e45565b918260c089015260e08487010151938460e08a015261010081880101519660ff881688036200091057620001c59161018091896101008d0152620001896101208383010162000e5a565b6101208d0152620001a06101408383010162000e5a565b6101408d0152620001b76101608383010162000e5a565b6101608d0152010162000e45565b6101808901528751602089015160405198916101208a016001600160401b0381118b82101762000a80576040908152818b5260208b018390528a018890526001600160a01b0383811660608c015284811660808c015285811660a08c0152861660c08b015260e08a0187905260ff89166101008b01528051906001600160401b03821162000a805760035490600182811c9216801562000da0575b602083101462000a5f5781601f84931162000d2e575b50602090601f831160011462000c9f5760009262000c93575b50508160011b916000199060031b1c1916176003555b8051906001600160401b03821162000a805760045490600182811c9216801562000c88575b602083101462000a5f5781601f84931162000c16575b50602090601f831160011462000b875760009262000b7b575b50508160011b916000199060031b1c1916176004555b60017f9b779b17422d0df92223018b32b4d1fa46e071723d6817e2486d003becc55f0055841562000b6957600385041562000b69576001600160a01b03811615801562000b57575b801562000b45575b801562000b33575b62000b21576001600160a01b0390811660a05290811660c05290811660e052811661010081905260405163c45a015560e01b815290602090829060049082905afa9081156200091e5760009162000ad8575b50610120526040516315ab88c960e31b815290602090829060049082906001600160a01b03165afa9081156200091e5760009162000a96575b5061014052610160819052600381046101808190526aa56fa5b99019a5c80000008082020490036200084c576aa56fa5b99019a5c80000006003820402046101a052426101c0819052600c5580516001600160401b03811162000a80576005918254600181811c9116801562000a75575b602082101462000a5f57601f811162000a14575b50602090601f8311600114620009a35760ff949392916000918362000997575b50508160011b916000199060031b1c19161790555b1660805230156200097e57620004c23062001078565b6b0295be96e6406697200000006007556aa56fa5b99019a5c8000000600855610120516101405160405163e6a4390560e01b8152600092909160209183916001600160a01b039182169183918291620005219116306004840162000fbc565b03915afa918215620009725780926200092a575b50506001600160a01b0381161562000874575b600680546001600160a81b03191660089290921b610100600160a81b0316919091176001908117918290559091620005b39160007f3a779de46631dd65116ae538600f1bc3c338200c6aef638429b5de43301c28f78180a3608001516001600160a01b031662000f07565b15620008625760ff610100830151169061ffff91826101208501511690836101408601511684610160870151169160ff620005fc60018060a01b036101808a0151169562000fd6565b1603620008035781018481116200084c578461271091160362000803571580158062000843575b62000803578062000839575b620008035730811491821562000822575b50811562000815575b50620008035761012082015181166101e090815261014083015182166102009081526101608401519092166102209081526101808401516001600160a01b03908116610240908152608090950151929492620006a6911662000e6a565b15620007f15760405192613c5c94856200145e863960805185611fda015260a0518581816118bd01528181611de20152612970015260c051858181610fb20152818161151b01528181611c1201526127bb015260e0518581816115a00152818161179b0152612708015261010051856109da015261012051856110430152610140518581816101fe01528181610a9d015281816123930152818161251201528181612da7015261314f015261016051858181608401528181611805015281816120870152818161265401528181612a1501528181612b140152612c39015261018051858181610a47015261290601526101a051858181611902015261294001526101c051858181610e120152612ba4015251848181610ed9015281816120d001526136d9015251838181610f01015261371801525182610f28015251818181610f5701526137a80152f35b604051634ed3775760e01b8152600490fd5b60405163694f6dbf60e11b8152600490fd5b61dead9150143862000649565b60081c6001600160a01b0316811491503862000640565b508015156200062f565b50811562000623565b634e487b7160e01b600052601160045260246000fd5b604051635bb6e57160e11b8152600490fd5b5061012051610140516040516364e329cb60e11b81529160209183916001600160a01b039081169183916000918391620008b49116306004840162000fbc565b03925af19081156200091e57600091620008d0575b5062000548565b90506020813d60201162000915575b81620008ee6020938362000dab565b810103126200091057600162000908620005b39262000e45565b9150620008c9565b600080fd5b3d9150620008df565b6040513d6000823e3d90fd5b9091506020823d60201162000969575b81620009496020938362000dab565b810103126200096657506200095e9062000e45565b388062000535565b80fd5b3d91506200093a565b604051903d90823e3d90fd5b60405163ec442f0560e01b815260006004820152602490fd5b01519050388062000497565b90601f198316918460005260206000209260005b818110620009fb575091600193918560ff9897969410620009e1575b505050811b019055620004ac565b015160001960f88460031b161c19169055388080620009d3565b92936020600181928786015181550195019301620009b7565b836000526020600020601f8401851c8101916020851062000a54575b601f01851c01905b81811062000a47575062000477565b6000815560010162000a38565b909150819062000a30565b634e487b7160e01b600052602260045260246000fd5b90607f169062000463565b634e487b7160e01b600052604160045260246000fd5b90506020813d60201162000acf575b8162000ab46020938362000dab565b81010312620009105762000ac89062000e45565b38620003f2565b3d915062000aa5565b90506020813d60201162000b18575b8162000af66020938362000dab565b81010312620009105760049162000b0f60209262000e45565b915091620003b9565b3d915062000ae7565b60405163d92e233d60e01b8152600490fd5b506001600160a01b0384161562000367565b506001600160a01b038316156200035f565b506001600160a01b0382161562000357565b604051630d956e1760e21b8152600490fd5b015190503880620002f9565b6004600090815293507f8a35acfbc15ff81a39ae7d344fd709f28e8600b4aa8c65c6b64bfe7fe36bd19b91905b601f198416851062000bfa576001945083601f1981161062000be0575b505050811b016004556200030f565b015160001960f88460031b161c1916905538808062000bd1565b8181015183556020948501946001909301929091019062000bb4565b60046000529091507f8a35acfbc15ff81a39ae7d344fd709f28e8600b4aa8c65c6b64bfe7fe36bd19b601f840160051c81016020851062000c80575b90849392915b601f830160051c8201811062000c70575050620002e0565b6000815585945060010162000c58565b508062000c52565b91607f1691620002ca565b0151905038806200028f565b6003600090815293507fc2575a0e9e593c00f959f8c92f12db2869c3395a3b0502d05e2516446f71f85b91905b601f198416851062000d12576001945083601f1981161062000cf8575b505050811b01600355620002a5565b015160001960f88460031b161c1916905538808062000ce9565b8181015183556020948501946001909301929091019062000ccc565b60036000529091507fc2575a0e9e593c00f959f8c92f12db2869c3395a3b0502d05e2516446f71f85b601f840160051c81016020851062000d98575b90849392915b601f830160051c8201811062000d8857505062000276565b6000815585945060010162000d70565b508062000d6a565b91607f169162000260565b601f909101601f19168101906001600160401b0382119082101762000a8057604052565b919080601f84011215620009105782516001600160401b03811162000a80576020906040519262000e0a83601f19601f850116018562000dab565b818452828287010111620009105760005b81811062000e3157508260009394955001015290565b858101830151848201840152820162000e1b565b51906001600160a01b03821682036200091057565b519061ffff821682036200091057565b6001600160a01b03908082169033821462000eff573b1562000ef857602060049160405192838092631f6f884760e11b82525afa9081156200091e5760009162000eb6575b5016331490565b90506020813d60201162000eef575b8162000ed46020938362000dab565b81010312620009105762000ee89062000e45565b3862000eaf565b3d915062000ec5565b5050600090565b505050600190565b6001600160a01b03908082169033821462000eff573b1562000ef857600160ff608051161462000f8d5760ff608051166003811015908162000f80575b5062000f51575050600090565b602060049160405192838092631f6f884760e11b82525afa9081156200091e5760009162000eb6575016331490565b600b915011153862000f44565b60206004916040519283809263136afe8560e31b82525afa9081156200091e5760009162000eb6575016331490565b6001600160a01b0391821681529116602082015260400190565b61ffff1660648114620010725760c881146200106c5761012c81146200106657610190811462001060576101f481146200105a57610258811462001054576102bc81146200104e576103208114620010485761038414620010435760405163694f6dbf60e11b8152600490fd5b600b90565b50600a90565b50600990565b50600890565b50600790565b50600690565b50600590565b50600490565b50600390565b6200108262001371565b620011ab575b60ff6006541660058110158062001187576001821480156200119d575b156200112c575b50506002546b033b2e3c9fd0803ce8000000918282018092116200084c576002919091556001600160a01b031690600090600080516020620050da833981519152906020908462001116576b033b2e3c9fd0803ce7ffffff19600254016002555b604051908152a3565b848452838252604084208181540190556200110d565b6200118757600281036200115c5750306200114a575b3880620010ac565b60405163baf3f0f760e01b8152600490fd5b6003036200114257306001600160a01b038216036200114257604051634e46966960e11b8152600490fd5b634e487b7160e01b600052602160045260246000fd5b5050600060048214620010a5565b61ffff806101e05116906b033b2e3c9fd0803ce80000009180830290838204036200084c57612710809104918215908115620011ec57505050505062001088565b61020095939495511690818502918583041417156200084c570491828103908082116200084c578085038581116200084c576200122a908462001393565b8362001296575b916080918484600096600080516020620050ba833981519152960362001276575b60408051988952602089019190915287015260608601526001600160a01b031693a3565b61024051620012909084906001600160a01b031662001393565b62001252565b9160ff60065416600581101580620011875760018214801562001363575b1562001321575b5050600254918483018093116200084c57600094600080516020620050ba8339815191529460809460025561dead808852876020526040882083815401905587600080516020620050da8339815191526020604051868152a39294509450915062001231565b6200118757600281036200133f5750306200114a575b3880620012bb565b60030362001337573061dead036200133757604051634e46966960e11b8152600490fd5b5050600060048214620012b4565b60ff60065416600581101562001187576003036200138e57600090565b600090565b60ff6006541660058110158062001187576001821480156200144f575b1562001406575b5050600254908282018092116200084c576002919091556001600160a01b031690600090600080516020620050da833981519152906020908462001116578060025403600255604051908152a3565b620011875760028103620014245750306200114a575b3880620013b7565b6003036200141c57306001600160a01b038216036200141c57604051634e46966960e11b8152600490fd5b5050600060048214620013b056fe6080604081815260049182361015610537575b50361561001e57600080fd5b6100266126cc565b6006805460ff8116600581101561052257600103610513573315908115610509575b81156104f0575b506104e25734156104d45761006334612a0c565b919293841580156104cc575b6104bc576009549361008181866122d6565b957f000000000000000000000000000000000000000000000000000000000000000096876100ae84612b06565b91146104b3575b801580156104a8575b610498576100ce836000986122d6565b6009556100dd85600a546122d6565b600a556100ec86600b546122d6565b600b5542600c556100ff81600754611ffe565b60075561010d813330613293565b338752602095600e8752438a8920556101268334611ffe565b9081610489575b60095496600754958c51958652898601528b8501526060840152608083015260a08201528360c08201528160e0820152600080516020613be78339815191526101003392a285831090811591610480575b50610198575b6001600080516020613c0783398151915255005b80549060ff821695600587101561046d5790889392916001880361045d57830361044d57600260ff1980931617918282556002600080516020613b6783398151915298898980a36101e761336c565b1561043d5760089081549960018060a01b039485807f00000000000000000000000000000000000000000000000000000000000000001691851c16808351996370a0823160e01b8b528a01528989602481855afa9889156103fa57908d918c9a610404575b50906102589130613293565b803b156103dc578151630d0e30db60e41b81528a818f818b865af180156103fa576103e7575b50888d6044888854881c16918d8651958694859363a9059cbb60e01b85528401528c60248401525af1908115610394578a916103ad575b501561039e578b8861dead6024888854881c16938d865195869485936335313c2160e11b85528401525af1988915610394578a9961035f575b505088835588600955600384549260ff8416931617809455600582101561034c57600080516020613ba78339815191529a9b5061033d97969594939291600391519a8a8c9ba31c169785613548565b0390a238808080808080610184565b634e487b7160e01b895260218c52602489fd5b9080929950813d831161038d575b6103778183611e55565b8101031261038857519638806102ee565b600080fd5b503d61036d565b82513d8c823e3d90fd5b516314da028560e11b81528b90fd5b90508881813d83116103e0575b6103c48183611e55565b810103126103dc575180151581036103dc57386102b5565b8980fd5b503d6103ba565b6103f3909a919a611e11565b983861027e565b83513d8d823e3d90fd5b8b80929b508193503d8311610436575b61041e8183611e55565b810103126104325751978c9061025861024c565b8a80fd5b503d610414565b8851633c1413fb60e01b81528590fd5b8751638199f5f360e01b81528490fd5b885163baf3f0f760e01b81528590fd5b634e487b7160e01b865260218952602486fd5b9050153861017e565b61049382336132e9565b61012d565b8851638199f5f360e01b81528a90fd5b5060075481116100be565b506007546100b5565b8551631f2a200560e01b81528790fd5b50831561006f565b5051631f2a200560e01b8152fd5b5051634e46966960e11b8152fd5b3360089190911c6001600160a01b03161490503861004f565b3330149150610048565b50505163baf3f0f760e01b8152fd5b602185634e487b7160e01b6000525260246000fd5b600090813560e01c90816302d05d3f14611dce5750806303ee438c14611d2b57806306b51d481461142957806306fdde0314611c52578063086e5ca014611bdf578063095ea7b314611b355780630b42aae014611b1957806315a0aa0814611af0578063173d5e42146117e857806318160ddd14611ad15780631cd97db514611aab5780631d924c7714611a8d57806323b872dd14611941578063313ce56714611925578063343ee3b7146118ea578063351fee461461189b57806337488a421461187c57806337b28bfd1461184457806338809be61461182857806339931527146117ed5780633af32abf14610e54578063403287a914610bf257806340faa03c146117e8578063463bb8001461116757806348153279146117c85780634a7d0369146117795780634e6fd6c41461175c57806353866006146116b4578063581b51f3146116845780635878f8ce146116675780635a85ffd71461164a5780636095a6201461162e578063644537cb1461160857806364a5dc2b146115cf57806364df049e1461158b5780636723064e146114f25780636887c8481461149f57806368bc13f5146114835780636a534fcb1461144a5780636a740d311461108e5780636f28507c1461142e5780636f71f0171461142957806370a082311461140357806374452ec3146113e45780637531abe314610e5457806379e4698714610fe157806385cac237146110af57806386d4ff1d146113955780638925d36e14611376578063902d55a5146113505780639111f13d1461133357806391e7cd34146113145780639454d720146112f857806395d89b41146112145780639d0ee65b146111f85780639ddf7ad314610e925780639e5f358a146111db578063a202c86d146111bf578063a8aa1b3114611192578063a8dccd021461116c578063a8ea444514611167578063a9059cbb146110f7578063aadade7a146110d8578063aecf6a7c14610e54578063af1af3b914610e35578063b0cc792d146110b4578063b37dd690146110af578063b5f1c1ff14611093578063b82020e81461108e578063b88202a914611072578063b8d8fbb41461102e578063be37822814611012578063c19d93fb14610fe6578063c228987814610fe1578063c45a015514610f9d578063c57da02914610ead578063cac01cbc14610e92578063cc3cbd2a14610e76578063cc45010414610e59578063cc64aade14610e54578063ce228ad214610e35578063cf09e0d014610dfa578063d79875eb14610c1d578063d7f3ad6f14610bf7578063d81d946f14610bf2578063d96a094a14610b7e578063db9b541314610b32578063dd62ed3e14610ae9578063e1a4521814610acc578063eb6d3a1114610a88578063f48f6f1d14610a6a578063f559662614610a2f578063f7ce612a14610a09578063f887ea40146109c5578063fb3dd95f146109825763fd897e0b0361001257903461097e578160031936011261097e57602090600d549051908152f35b5080fd5b50346109c25760203660031901126109c257506109a26109be9235612678565b9251918252602082015260408101919091529081906060820190565b0390f35b80fd5b50903461097e578160031936011261097e57517f00000000000000000000000000000000000000000000000000000000000000006001600160a01b03168152602090f35b50903461097e578160031936011261097e57602090516aa56fa5b99019a5c80000008152f35b50903461097e578160031936011261097e57602090517f00000000000000000000000000000000000000000000000000000000000000008152f35b50903461097e578160031936011261097e576020905162278d008152f35b50903461097e578160031936011261097e57517f00000000000000000000000000000000000000000000000000000000000000006001600160a01b03168152602090f35b50903461097e578160031936011261097e57602090516127108152f35b50903461097e578060031936011261097e5780602092610b07611ee4565b610b0f611efa565b6001600160a01b0391821683526001865283832091168252845220549051908152f35b50903461097e578160031936011261097e5781610120928251928184528160208501528301528060608301528060808301528060a08301528060c08301528060e0830152610100820152f35b5060203660031901126109c257610b936126cc565b60ff60065416906005821015610bdf5750600103610bd257610bb9602092353333612be3565b906001600080516020613c078339815191525551908152f35b5163baf3f0f760e01b8152fd5b634e487b7160e01b815260218452602490fd5b611f50565b50903461097e578160031936011261097e57602090610c1461336c565b90519015158152f35b50903461097e578060031936011261097e57823591610c3a6126cc565b60ff600654166005811015610de757600103610dd7578215610dc7578190338152600e60205220544314610db857610c98610c92610c766128fe565b610c8c86610c8683859695612021565b926122d6565b9061322a565b90611ffe565b9182158015610dad575b610d9d5782610cb3610cbc9461325c565b95909183611ffe565b948515610d8d576024358610610d8d5760209650610cdb843033613293565b610ce7846007546122d6565b600755610cf683600954611ffe565b600955610d0582600a546122d6565b600a55610d1481600b546122d6565b600b5542600c55610d2586336132e9565b600954916007549386519586528886015286868601526060850152608084015260a083015260c08201527feebdf396b2ce33c6bf51df33b76958425b7430bd1c74fbef7b585106affddd1c60e03392a26001600080516020613c078339815191525551908152f35b8451638199f5f360e01b81528790fd5b8151638199f5f360e01b81528490fd5b506009548311610ca2565b51635aabee0f60e11b81529050fd5b8151631f2a200560e01b81528490fd5b815163baf3f0f760e01b81528490fd5b634e487b7160e01b825260218552602482fd5b50903461097e578160031936011261097e57602090517f00000000000000000000000000000000000000000000000000000000000000008152f35b50903461097e578160031936011261097e57602090600a549051908152f35b611f2b565b50903461097e578160031936011261097e57602090610c1461309d565b50903461097e578160031936011261097e576020905160468152f35b50903461097e578160031936011261097e5751908152602090f35b50346109c257806003193601126109c25760ff60065416926005841015610f8a5782516001815261ffff7f0000000000000000000000000000000000000000000000000000000000000000811660208301527f00000000000000000000000000000000000000000000000000000000000000008116828601527f00000000000000000000000000000000000000000000000000000000000000001660608201526001600160a01b037f00000000000000000000000000000000000000000000000000000000000000001660808201526003851460a082015260c090f35b634e487b7160e01b825260219052602490fd5b50903461097e578160031936011261097e57517f00000000000000000000000000000000000000000000000000000000000000006001600160a01b03168152602090f35b611fa4565b50903461097e578160031936011261097e5760ff600654169051916005821015610bdf57602083838152f35b50903461097e578160031936011261097e5760209051601e8152f35b50903461097e578160031936011261097e57517f00000000000000000000000000000000000000000000000000000000000000006001600160a01b03168152602090f35b50903461097e578160031936011261097e5760209051600b8152f35b611f88565b50903461097e578160031936011261097e5760209051600c8152f35b611fc0565b50903461097e578160031936011261097e576020906110d1612636565b9051908152f35b50903461097e578160031936011261097e57602090600b549051908152f35b509134611163578160031936011261116357611111611ee4565b9260ff600654169060058210156111505750600303611142575061113b6020926024359033613293565b5160018152f35b90516377d87fb560e11b8152fd5b634e487b7160e01b815260218352602490fd5b8280fd5b611f6c565b50903461097e578160031936011261097e57516714adf4b7320334b9601d1b8152602090f35b50903461097e578160031936011261097e57600654905160089190911c6001600160a01b03168152602090f35b50903461097e578160031936011261097e576020905160098152f35b50903461097e578160031936011261097e576020906110d1612615565b50903461097e578160031936011261097e576020905160068152f35b50903461097e578160031936011261097e5780519180938054916001908360011c92600185169485156112ee575b60209586861081146112db578589529081156112b7575060011461127c575b6109be8787611272828c0383611e55565b5191829182611e78565b9080949750528583205b8284106112a457505050826109be9461127292820101943880611261565b8054868501880152928601928101611286565b60ff19168887015250505050151560051b8301019250611272826109be3880611261565b634e487b7160e01b845260228352602484fd5b93607f1693611242565b50903461097e578160031936011261097e5760209051600a8152f35b50903461097e578160031936011261097e576020906009549051908152f35b50903461097e578160031936011261097e57602090610c14612b64565b50903461097e578160031936011261097e5751676765c793fa10079d601b1b8152602090f35b50903461097e578160031936011261097e576020906007549051908152f35b50903461097e57602036600319011261097e5760209181906001600160a01b036113bd611ee4565b168152600e845220549081159182156113da575b50519015158152f35b43119150836113d1565b50903461097e578160031936011261097e57602090600c549051908152f35b50903461097e57602036600319011261097e576020906110d1611424611ee4565b6125fa565b611ec1565b50903461097e578160031936011261097e576020905160648152f35b5091346111635760203660031901126111635735916001600160a01b03831683036109c25750610bb960209261147e6126cc565b612965565b50903461097e578160031936011261097e576020905160058152f35b50903461097e578160031936011261097e5760c0906114bc612478565b9495909381519660018060a01b03168752602087015260018060701b0380931690860152166060840152608083015260a0820152f35b50918160031936011261116357611507611ee4565b906115106126cc565b6001600160a01b03937f00000000000000000000000000000000000000000000000000000000000000008516330361157c5760ff60065416906005821015611150575060010361156e5750602092610bb99160243591811690612be3565b825163baf3f0f760e01b8152fd5b508251635b2fb5b360e11b8152fd5b50903461097e578160031936011261097e57517f00000000000000000000000000000000000000000000000000000000000000006001600160a01b03168152602090f35b5091346111635760203660031901126111635735916001600160a01b03831683036109c25750610bb96020926116036126cc565b6126fc565b50903461097e57602036600319011261097e576020906110d1611629611ee4565b612402565b50903461097e578160031936011261097e576020905160078152f35b50903461097e578160031936011261097e576020906110d161235f565b50903461097e578160031936011261097e576020906110d1612335565b50903461097e578160031936011261097e576020906110d16116ab600954600a54906122d6565b600b54906122d6565b50903461097e578160031936011261097e576116ce6126cc565b6116d6612b64565b1561174d57600b5491821561173d5760209350600b556116f882600a546122d6565b600a5580518281527f6a0c33aa8c816cdfa77b389739210eadb9f9a653e441ee697d9a29d61a9884a1843392a26001600080516020613c078339815191525551908152f35b81516312d37ee560e31b81528490fd5b51638a430e9f60e01b81529050fd5b50903461097e578160031936011261097e576020905161dead8152f35b50903461097e578160031936011261097e576020906117966126cc565b610bb97f00000000000000000000000000000000000000000000000000000000000000006001600160a01b03166126fc565b50346109c25760203660031901126109c257506109a26109be92356122e3565b611f10565b50903461097e578160031936011261097e57602090517f00000000000000000000000000000000000000000000000000000000000000008152f35b50903461097e578160031936011261097e576020905160038152f35b50903461097e57602036600319011261097e5760209181906001600160a01b0361186c611ee4565b168152600e845220549051908152f35b50903461097e578160031936011261097e576020906008549051908152f35b50903461097e578160031936011261097e576020906118b86126cc565b610bb97f00000000000000000000000000000000000000000000000000000000000000006001600160a01b0316612965565b50903461097e578160031936011261097e57602090517f00000000000000000000000000000000000000000000000000000000000000008152f35b50903461097e578160031936011261097e576020905160128152f35b508290346109c25760603660031901126109c25761195d611ee4565b611965611efa565b916044359360ff600654166005811015611a7a5760038103611a46575b506001600160a01b038316808352600160209081528784203385529052868320549160001983106119bc575b60208861113b898989613293565b868310611a24578115611a0d5733156119f65750825260016020908152868320338452815291869020908590039055829061113b876119ae565b8751634a1406b160e11b8152908101849052602490fd5b875163e602df0560e01b8152908101849052602490fd5b9050611a42868851938493637dc7a0d960e11b85523390850161352a565b0390fd5b60021480611a68575b15611a5a5786611982565b85516377d87fb560e11b8152fd5b506001600160a01b0383163014611a4f565b634e487b7160e01b835260218252602483fd5b50903461097e578160031936011261097e576020905162ed4e008152f35b50346109c257806003193601126109c25750611ac5612802565b82519182526020820152f35b50903461097e578160031936011261097e576020906002549051908152f35b50903461097e578160031936011261097e576109be90611b0e6120cb565b905191829182611e78565b50903461097e578160031936011261097e576020905160088152f35b509134611163578160031936011261116357611b4f611ee4565b602435903315611bc8576001600160a01b0316918215611bb157508083602095338152600187528181208582528752205582519081527f8c5be1e5ebec7d5bd14f71427d1e84f3dd0314c0f7b2291e5b200ac8c7c3b925843392a35160018152f35b8351634a1406b160e11b8152908101859052602490fd5b835163e602df0560e01b8152808401869052602490fd5b509134611163576020366003190112611163578035926001600160a01b039081851685036109c25750611c106126cc565b7f0000000000000000000000000000000000000000000000000000000000000000163303611c445750610bb96020926126fc565b9051635b2fb5b360e11b8152fd5b5091903461116357826003193601126111635780519183600354906001908260011c92600181168015611d21575b6020958686108214611d0e5750848852908115611cec5750600114611cb1575b6109be8686611272828b0383611e55565b929550600383528583205b828410611cd957505050826109be94611272928201019438611ca0565b8054868501880152928601928101611cbc565b60ff191687860152505050151560051b8301019250611272826109be38611ca0565b634e487b7160e01b845260229052602483fd5b93607f1693611c80565b5091903461116357826003193601126111635780519183600554906001908260011c92600181168015611dc4575b6020958686108214611d0e5750848852908115611cec5750600114611d89576109be8686611272828b0383611e55565b929550600583528583205b828410611db157505050826109be94611272928201019438611ca0565b8054868501880152928601928101611d94565b93607f1693611d59565b90503461097e578160031936011261097e577f00000000000000000000000000000000000000000000000000000000000000006001600160a01b03168152602090f35b6001600160401b038111611e2457604052565b634e487b7160e01b600052604160045260246000fd5b604081019081106001600160401b03821117611e2457604052565b601f909101601f19168101906001600160401b03821190821017611e2457604052565b6020808252825181830181905290939260005b828110611ead57505060409293506000838284010152601f8019910116010190565b818101860151848201604001528501611e8b565b34610388576000366003190112610388576020611edc612054565b604051908152f35b600435906001600160a01b038216820361038857565b602435906001600160a01b038216820361038857565b34610388576000366003190112610388576020611edc61225c565b3461038857602036600319011261038857611f44611ee4565b50602060405160008152f35b3461038857600036600319011261038857602060405160028152f35b3461038857600036600319011261038857602060405160048152f35b3461038857600036600319011261038857602060405160038152f35b3461038857600036600319011261038857602060405160018152f35b3461038857600036600319011261038857602060405160ff7f0000000000000000000000000000000000000000000000000000000000000000168152f35b9190820391821161200b57565b634e487b7160e01b600052601160045260246000fd5b8181029291811591840414171561200b57565b811561203e570490565b634e487b7160e01b600052601260045260246000fd5b60ff6006541660058110156120b5576003146120af576009546127109081810291818304149015171561200b576120ac907f000000000000000000000000000000000000000000000000000000000000000090612034565b90565b61271090565b634e487b7160e01b600052602160045260246000fd5b61ffff7f0000000000000000000000000000000000000000000000000000000000000000166064811461223b5760c8811461221a5761012c81146121f95761019081146121d8576101f481146121b7576102588114612196576102bc811461217557610320146121555760405161214181611e3a565b60048152630e4ccc4d60e21b602082015290565b60405161216181611e3a565b60048152630e0ccc4d60e21b602082015290565b5060405161218281611e3a565b60048152630dcccc4d60e21b602082015290565b506040516121a381611e3a565b60048152630d8ccc4d60e21b602082015290565b506040516121c481611e3a565b60048152630d4ccc4d60e21b602082015290565b506040516121e581611e3a565b60048152630d0ccc4d60e21b602082015290565b5060405161220681611e3a565b60048152630ccccc4d60e21b602082015290565b5060405161222781611e3a565b60048152630c8ccc4d60e21b602082015290565b5060405161224881611e3a565b60048152630c4ccc4d60e21b602082015290565b60ff6006541660058110156120b55760031461229d5761227a6128fe565b670de0b6b3a76400009182810292818404149015171561200b576120ac91612034565b6122a5612802565b9080156122cf57670de0b6b3a76400009182810292818404149015171561200b576120ac91612034565b5050600090565b9190820180921161200b57565b60ff6006541660058110156120b55760010361232957801561232957612323916120ac61231d61231284612a0c565b919792939097612b06565b966122d6565b93611ffe565b50600090600090600090565b6123476116ab600954600a54906122d6565b80471115612359576120ac9047611ffe565b50600090565b6006546001600160a01b039060081c811680156122cf576020906024604051809481936370a0823160e01b835260048301527f0000000000000000000000000000000000000000000000000000000000000000165afa9081156123f6576000916123c7575090565b90506020813d6020116123ee575b816123e260209383611e55565b81010312610388575190565b3d91506123d5565b6040513d6000823e3d90fd5b6001600160a01b03166000908152600e60205260409020548015612359576001810180911161200b5790565b51906001600160701b038216820361038857565b90816060910312610388576124568161242e565b9160406124656020840161242e565b92015163ffffffff811681036103885790565b60065460081c6001600160a01b039081169182156125e957818316916040928351926318160ddd60e01b84526020938481600481865afa9081156125de576000916125b1575b5094805193630240bc6b60e21b8552606085600481875afa80156125a657600095600091612570575b50949584600052600081528083600020549560248551809581936370a0823160e01b835260048301527f0000000000000000000000000000000000000000000000000000000000000000165afa928315612566575060009261254857505090565b90809250813d831161255f575b6123e28183611e55565b503d612555565b513d6000823e3d90fd5b905061259591955060603d60601161259f575b61258d8183611e55565b810190612442565b50949094386124e7565b503d612583565b82513d6000823e3d90fd5b90508481813d83116125d7575b6125c88183611e55565b810103126103885751386124be565b503d6125be565b86513d6000823e3d90fd5b600092508291508190819081908190565b6001600160a01b031660009081526020819052604090205490565b60ff6006541660058110156120b55760030361263157600b5490565b600090565b60ff6006541660058110156120b557600103612631576120ac6009547f0000000000000000000000000000000000000000000000000000000000000000611ffe565b60ff6006541660058110156120b557600103612329578015612329576126b390610c92610c8c6126a66128fe565b919093610c868386612021565b906126bd8261325c565b50506126c98184611ffe565b91565b600080516020613c0783398151915260028154146126ea5760029055565b604051633ee5aeb560e01b8152600490fd5b906001600160a01b03337f000000000000000000000000000000000000000000000000000000000000000082161415806127b7575b6127a6578216801561279457600a549283156127825783612756916000600a556132e9565b7f0f58cb6262d88971b87878468debb7bc81f1714be597710e16a9fb84c66ff7b56020604051858152a2565b6040516312d37ee560e31b8152600490fd5b60405163d92e233d60e01b8152600490fd5b6040516282b42960e81b8152600490fd5b50807f000000000000000000000000000000000000000000000000000000000000000016331415612731565b9081602091031261038857516001600160a01b03811681036103885790565b60065460081c6001600160a01b03908116919082156128f557604051630240bc6b60e21b815290606082600481875afa9384156123f6576000926000956128c6575b5090602060049260405193848092630dfe168160e01b82525afa9182156123f657600092612895575b50163003612885576001600160701b03908116921690565b6001600160701b03928316921690565b6128b891925060203d6020116128bf575b6128b08183611e55565b8101906127e3565b903861286d565b503d6128a6565b600492919550602093506128e89060603d60601161259f5761258d8183611e55565b5093909395919250612844565b50600091508190565b61292b6009547f0000000000000000000000000000000000000000000000000000000000000000906122d6565b906120ac61293e600754600854906122d6565b7f0000000000000000000000000000000000000000000000000000000000000000906122d6565b906001600160a01b037f0000000000000000000000000000000000000000000000000000000000000000811633036127a65760ff6006541660058110156120b5576003036129fa578216801561279457600b5492831561278257836129ce916000600b556132e9565b7fd046302bdc39599e60a5981e59227dcd1c643f512f56f2e984390c3ac6eadedb6020604051858152a2565b60405163baf3f0f760e01b8152600490fd5b90612a396009547f0000000000000000000000000000000000000000000000000000000000000000611ffe565b918215612af457612a54612a4c8261325c565b505082611ffe565b92808411612a70575091905b612a698361325c565b9091509091565b925050612a8f612a7f836135df565b6126ac61271085091515906122d6565b91825b612ab2575b50612aac612aa48361325c565b505083611ffe565b90612a60565b9182612ac0612aa48361325c565b1115612aee576000198101908111612ad9579182612a92565b60246000634e487b7160e01b81526011600452fd5b91612a97565b60405163c83ba27d60e01b8152600490fd5b612b12816009546122d6565b7f000000000000000000000000000000000000000000000000000000000000000014612b5d57612b57610c926120ac92612b4a6128fe565b939091610c868584612021565b90612034565b5060075490565b60ff6006541660058110156120b55760011480612bd8575b80612ba1575b80612b8a5790565b50600c5462278d00810180911161200b5742101590565b507f000000000000000000000000000000000000000000000000000000000000000062ed4e00810180911161200b57421015612b82565b50600b541515612b7c565b92916001600160a01b038085169260009184158015613094575b8015613084575b61307257341561305857612c1734612a0c565b97909192998a15801561306a575b61305857600954612c3685826122d6565b9b7f0000000000000000000000000000000000000000000000000000000000000000998a612c6388612b06565b9e1461304e575b8d158015613043575b613031578d1061303157612cd88d600080516020613be783398151915294612cbc8e612ca28b610100986122d6565b600955612cb18a600a546122d6565b600a55600b546122d6565b600b5542600c55612ccf82600754611ffe565b60075530613293565b838952602097600e895260409b8c9643888d2055612cf68434611ffe565b928380613021575b50506009549860075498519485528b8501528d840152606083015260808201528c60a08201528560c08201528460e0820152a285821090811591613018575b50612d4b575b505050505050565b60069182549260ff84169660058810156130045760018803612ff3578303612fe257600260ff1980951617938482556002600080516020613b6783398151915298898980a3612d9861336c565b15612fd15760089081549984807f00000000000000000000000000000000000000000000000000000000000000001697841c168151976370a0823160e01b895260049180838b01528a8a602481855afa998a15612f8e57908e918d9b612f98575b5090612e059130613293565b803b15610432578251630d0e30db60e41b81528b8184818c865af18015612f8e57612f7d575b50898b916044898954891c168651948593849263a9059cbb60e01b8452888401528d60248401525af19081156103fa578b91612f47575b5015612f39578989878754871c1660248551809481936335313c2160e11b835261dead888401525af1998a156103fa578b9a612f09575b505089845589600955600385549360ff85169416178095556005831015612ef65750916003600080516020613ba78339815191529a9998969492612ee8989694519a8a8c9ba31c169785613548565b0390a2388080808080612d43565b634e487b7160e01b8a5260219052602489fd5b9080929a50813d8311612f32575b612f218183611e55565b810103126103885751973880612e99565b503d612f17565b90516314da028560e11b8152fd5b90508981813d8311612f76575b612f5e8183611e55565b81010312610432575180151581036104325738612e62565b503d612f54565b9a612f888b9c611e11565b9a612e2b565b84513d8e823e3d90fd5b8c80929c508193503d8311612fca575b612fb28183611e55565b81010312612fc65751988d90612e05612df9565b8b80fd5b503d612fa8565b8851633c1413fb60e01b8152600490fd5b8751638199f5f360e01b8152600490fd5b885163baf3f0f760e01b8152600490fd5b634e487b7160e01b87526021600452602487fd5b90501538612d3d565b61302a916132e9565b3883612cfe565b604051638199f5f360e01b8152600490fd5b508d60075410612c73565b6007549d50612c6a565b604051631f2a200560e01b8152600490fd5b508315612c25565b604051634e46966960e11b8152600490fd5b508060065460081c168514612c04565b50308514612bfd565b60065460081c6001600160a01b039081169081156122cf57604080516318160ddd60e01b815290926020918281600481855afa9081156131f2576000916131fd575b506131ba578351630240bc6b60e21b8152606081600481855afa9081156131f2576000906000926131cf575b506001600160701b0390811615801592906131c3575b50506131ba57613130816125fa565b6131ba57819060248551809581936370a0823160e01b835260048301527f0000000000000000000000000000000000000000000000000000000000000000165afa928315612566575060009261318c575b505061263157600190565b90809250813d83116131b3575b6131a38183611e55565b8101031261038857513880613181565b503d613199565b50505050600090565b16151590503880613121565b90506131ea915060603d60601161259f5761258d8183611e55565b50903861310b565b85513d6000823e3d90fd5b90508281813d8311613223575b6132148183611e55565b810103126103885751386130df565b503d61320a565b908015613249576132416001916000198401612034565b019015150290565b634e487b7160005260126020526024601cfd5b80156123295780612710606461327461327e94613649565b92091515906122d6565b9061328882613564565b906120ac8284611ffe565b91906001600160a01b03808416156132d0578116156132b7576132b5926136b2565b565b60405163ec442f0560e01b815260006004820152602490fd5b604051634b637e8f60e11b815260006004820152602490fd5b81471061334d57604051602081016001600160401b03811182821017611e2457604052600080809481948280955260018060a01b03165af1156133295750565b3d1561333b57604051903d90823e3d90fd5b60405163d6bda27560e01b8152600490fd5b60405163cf47918160e01b815247600482015260248101839052604490fd5b60065460081c6001600160a01b039081169081156122cf576040908151926318160ddd60e01b84526020938481600481855afa9081156134f2576000916134fd575b506131ba576133bc816125fa565b6131ba578251630240bc6b60e21b815290606082600481845afa9485156134f2576000926000966134ca575b508451630dfe168160e01b8152908082600481865afa9182156125de576000926134a8575b50806004929387519384809263d21220a760e01b82525afa9586156125665750600095613489575b5050821630149081613476575b5061346e57163014908161345b575b5061263157600190565b6001600160701b03161515905038613451565b505050600090565b6001600160701b03161515905038613442565b6134a0929550803d106128bf576128b08183611e55565b923880613435565b600492506134c38291823d84116128bf576128b08183611e55565b925061340d565b9095506134e791925060603d60601161259f5761258d8183611e55565b5091909194386133e8565b84513d6000823e3d90fd5b90508481813d8311613523575b6135148183611e55565b810103126103885751386133ae565b503d61350a565b604091949392606082019560018060a01b0316825260208201520152565b9094939260609260808301968352602083015260408201520152565b600019601e8209601e8202908180821091039080820391146135d65780606411156135c3576064601e7f5c28f5c28f5c28f5c28f5c28f5c28f5c28f5c28f5c28f5c28f5c28f5c28f5c29940990828211900360fe1b910360021c170290565b634e487b7160005260116020526024601cfd5b50606491500490565b6127106000198183098183029182808310920391808303921461363e576126ac90828211156135c3577fa902ffe58553adaa902ffe58553adaa902ffe58553adaa902ffe58553adaa903940990828211900360fe1b910360021c170290565b50506126ac91500490565b6000196064820960648202908180821091039080820391146136a857612710818111156135c35760647fbc01a36e2eb1c432ca57a786c226809d495182a9930be0ded288ce703afb7e91940990828211900360fc1b910360041c170290565b5061271091500490565b91906136bf828285613972565b6136cd575b6132b5926139d6565b61ffff612710806137007f0000000000000000000000000000000000000000000000000000000000000000841686612021565b04918261370f575050506136c4565b61373e909392937f00000000000000000000000000000000000000000000000000000000000000001684612021565b046137498184611ffe565b9061375e6137578587611ffe565b84886139d6565b806137d2575b8161379d91600080516020613b878339815191529594936137a2575b6040516001600160a01b0394851698909416969394859485613548565b0390a3565b6137cd827f00000000000000000000000000000000000000000000000000000000000000008a6139d6565b613780565b60ff600654166005811015806120b557600182148015613965575b156139205750506001600160a01b0386168015908115613917575b301490811561390b575b159081613902575b506138f0575b6001600160a01b03861680613891579181600080516020613b8783398151915295949361385261379d946002546122d6565b6002555b61dead908160005260006020526040600020838154019055600080516020613bc78339815191526020604051858152a3915091929350613764565b60008181528060205260408120548381106138d2579181604085600080516020613b87833981519152999897958461379d9896528360205203912055613856565b88611a428560405193849363391434e360e21b85526004850161352a565b6040516377d87fb560e11b8152600490fd5b9050153861381a565b61dead30149150613812565b60009150613808565b6120b557600281036139435750306001600160a01b038716036129fa575b613820565b600303613820573061dead0361393e57604051634e46966960e11b8152600490fd5b50506000600482146137ed565b9091156122cf576006549060ff821660058110156120b55760030361346e576001600160a01b0390811691821580156139cc575b6131ba5760081c81169182149283156139c0575b50505090565b161490503880806139ba565b50818416156139a6565b9060ff600654166005811015806120b557600182148015613b59575b15613b0d57506001600160a01b0390508281168015908115613b02575b3014918215613af6575b50159081613aed575b506138f0575b6001600160a01b038281169290919083613a915750600080516020613bc783398151915291602091613a5c866002546122d6565b6002555b169384613a795780600254036002555b604051908152a3565b84600052600082526040600020818154019055613a70565b60009084825281602052604082205490868210613ad05750918160408760209588600080516020613bc783398151915298965283875203912055613a60565b611a428760405193849363391434e360e21b85526004850161352a565b90501538613a22565b83163014915038613a19565b838316159150613a0f565b6120b55760028103613b305750306001600160a01b038316036129fa575b613a28565b600303613a2857306001600160a01b03821603613b2b57604051634e46966960e11b8152600490fd5b50506000600482146139f256fe3a779de46631dd65116ae538600f1bc3c338200c6aef638429b5de43301c28f7e7394f16cc22ae35fb752bb4c8624944eb198544034ab0a3590d0e139bf9267871aa8c3702dbbc54247a4e6446450e64a46250dd72707a247ddb01d72eaef445ddf252ad1be2c89b69c2b068fc378daa952ba7f163c4a11628f55a4df523b3ef6ff5f8cb3bbdee941e910591101be7dcb3bd64213bbc4ac9e994c9d7b0ef74cd9b779b17422d0df92223018b32b4d1fa46e071723d6817e2486d003becc55f00a26469706673582212207f9e2cd33018522ec59825a9f86328058ad8bdd15f665739017d52983aad9d7764736f6c63430008180033e7394f16cc22ae35fb752bb4c8624944eb198544034ab0a3590d0e139bf92678ddf252ad1be2c89b69c2b068fc378daa952ba7f163c4a11628f55a4df523b3ef",
  "linkReferences": {},
  "deployedLinkReferences": {}
}