{
  "_format": "hh-sol-artifact-1",
  "contractName": "LaunchToken",
  "sourceName": "contracts/LaunchToken.sol",
  "abi": [
    {
      "inputs": [
        {
          "components": [
            {
              "internalType": "string",
              "name": "name",
              "type": "string"
            },
            {
              "internalType": "string",
              "name": "symbol",
              "type": "string"
            },
            {
              "internalType": "string",
              "name": "metadataURI",
              "type": "string"
            },
            {
              "internalType": "address",
              "name": "creator",
              "type": "address"
            },
            {
              "internalType": "address",
              "name": "factory",
              "type": "address"
            },
            {
              "internalType": "address",
              "name": "protocolFeeRecipient",
              "type": "address"
            },
            {
              "internalType": "address",
              "name": "router",
              "type": "address"
            },
            {
              "internalType": "uint256",
              "name": "graduationQuoteReserve",
              "type": "uint256"
            },
            {
              "internalType": "uint8",
              "name": "launchModeId",
              "type": "uint8"
            }
          ],
          "internalType": "struct LaunchToken.ConstructorArgs",
          "name": "args",
          "type": "tuple"
        }
      ],
      "stateMutability": "nonpayable",
      "type": "constructor"
    },
    {
      "inputs": [],
      "name": "CreatorFeeSweepUnavailable",
      "type": "error"
    },
    {
      "inputs": [
        {
          "internalType": "address",
          "name": "spender",
          "type": "address"
        },
        {
          "internalType": "uint256",
          "name": "allowance",
          "type": "uint256"
        },
        {
          "internalType": "uint256",
          "name": "needed",
          "type": "uint256"
        }
      ],
      "name": "ERC20InsufficientAllowance",
      "type": "error"
    },
    {
      "inputs": [
        {
          "internalType": "address",
          "name": "sender",
          "type": "address"
        },
        {
          "internalType": "uint256",
          "name": "balance",
          "type": "uint256"
        },
        {
          "internalType": "uint256",
          "name": "needed",
          "type": "uint256"
        }
      ],
      "name": "ERC20InsufficientBalance",
      "type": "error"
    },
    {
      "inputs": [
        {
          "internalType": "address",
          "name": "approver",
          "type": "address"
        }
      ],
      "name": "ERC20InvalidApprover",
      "type": "error"
    },
    {
      "inputs": [
        {
          "internalType": "address",
          "name": "receiver",
          "type": "address"
        }
      ],
      "name": "ERC20InvalidReceiver",
      "type": "error"
    },
    {
      "inputs": [
        {
          "internalType": "address",
          "name": "sender",
          "type": "address"
        }
      ],
      "name": "ERC20InvalidSender",
      "type": "error"
    },
    {
      "inputs": [
        {
          "internalType": "address",
          "name": "spender",
          "type": "address"
        }
      ],
      "name": "ERC20InvalidSpender",
      "type": "error"
    },
    {
      "inputs": [],
      "name": "FailedCall",
      "type": "error"
    },
    {
      "inputs": [],
      "name": "GraduationAlreadyTriggered",
      "type": "error"
    },
    {
      "inputs": [
        {
          "internalType": "uint256",
          "name": "balance",
          "type": "uint256"
        },
        {
          "internalType": "uint256",
          "name": "needed",
          "type": "uint256"
        }
      ],
      "name": "InsufficientBalance",
      "type": "error"
    },
    {
      "inputs": [],
      "name": "InvalidGraduationConfig",
      "type": "error"
    },
    {
      "inputs": [],
      "name": "InvalidRecipient",
      "type": "error"
    },
    {
      "inputs": [],
      "name": "InvalidState",
      "type": "error"
    },
    {
      "inputs": [],
      "name": "NothingToClaim",
      "type": "error"
    },
    {
      "inputs": [],
      "name": "PairPolluted",
      "type": "error"
    },
    {
      "inputs": [],
      "name": "ReentrancyGuardReentrantCall",
      "type": "error"
    },
    {
      "inputs": [],
      "name": "SellCooldownActive",
      "type": "error"
    },
    {
      "inputs": [],
      "name": "SlippageExceeded",
      "type": "error"
    },
    {
      "inputs": [],
      "name": "TransferDisabledPreGraduation",
      "type": "error"
    },
    {
      "inputs": [],
      "name": "Unauthorized",
      "type": "error"
    },
    {
      "inputs": [],
      "name": "UnauthorizedFactoryCaller",
      "type": "error"
    },
    {
      "inputs": [],
      "name": "UnauthorizedFactoryDeployment",
      "type": "error"
    },
    {
      "inputs": [],
      "name": "WrappedQuoteTransferFailed",
      "type": "error"
    },
    {
      "inputs": [],
      "name": "ZeroAddress",
      "type": "error"
    },
    {
      "inputs": [],
      "name": "ZeroAmount",
      "type": "error"
    },
    {
      "anonymous": false,
      "inputs": [
        {
          "indexed": true,
          "internalType": "address",
          "name": "owner",
          "type": "address"
        },
        {
          "indexed": true,
          "internalType": "address",
          "name": "spender",
          "type": "address"
        },
        {
          "indexed": false,
          "internalType": "uint256",
          "name": "value",
          "type": "uint256"
        }
      ],
      "name": "Approval",
      "type": "event"
    },
    {
      "anonymous": false,
      "inputs": [
        {
          "indexed": true,
          "internalType": "address",
          "name": "buyer",
          "type": "address"
        },
        {
          "indexed": false,
          "internalType": "uint256",
          "name": "grossQuoteIn",
          "type": "uint256"
        },
        {
          "indexed": false,
          "internalType": "uint256",
          "name": "netQuoteIn",
          "type": "uint256"
        },
        {
          "indexed": false,
          "internalType": "uint256",
          "name": "protocolFee",
          "type": "uint256"
        },
        {
          "indexed": false,
          "internalType": "uint256",
          "name": "creatorFee",
          "type": "uint256"
        },
        {
          "indexed": false,
          "internalType": "uint256",
          "name": "refundAmount",
          "type": "uint256"
        },
        {
          "indexed": false,
          "internalType": "uint256",
          "name": "tokenOut",
          "type": "uint256"
        },
        {
          "indexed": false,
          "internalType": "uint256",
          "name": "newCurveQuoteReserve",
          "type": "uint256"
        },
        {
          "indexed": false,
          "internalType": "uint256",
          "name": "newSaleTokenReserve",
          "type": "uint256"
        }
      ],
      "name": "BuyExecuted",
      "type": "event"
    },
    {
      "anonymous": false,
      "inputs": [
        {
          "indexed": true,
          "internalType": "address",
          "name": "recipient",
          "type": "address"
        },
        {
          "indexed": false,
          "internalType": "uint256",
          "name": "amount",
          "type": "uint256"
        }
      ],
      "name": "CreatorFeesClaimed",
      "type": "event"
    },
    {
      "anonymous": false,
      "inputs": [
        {
          "indexed": true,
          "internalType": "address",
          "name": "caller",
          "type": "address"
        },
        {
          "indexed": false,
          "internalType": "uint256",
          "name": "amount",
          "type": "uint256"
        }
      ],
      "name": "CreatorFeesSwept",
      "type": "event"
    },
    {
      "anonymous": false,
      "inputs": [
        {
          "indexed": true,
          "internalType": "address",
          "name": "pair",
          "type": "address"
        },
        {
          "indexed": false,
          "internalType": "uint256",
          "name": "tokenAmount",
          "type": "uint256"
        },
        {
          "indexed": false,
          "internalType": "uint256",
          "name": "quoteAmountContributed",
          "type": "uint256"
        },
        {
          "indexed": false,
          "internalType": "uint256",
          "name": "preloadedQuoteAmount",
          "type": "uint256"
        },
        {
          "indexed": false,
          "internalType": "uint256",
          "name": "liquidityBurned",
          "type": "uint256"
        }
      ],
      "name": "Graduated",
      "type": "event"
    },
    {
      "anonymous": false,
      "inputs": [
        {
          "indexed": true,
          "internalType": "address",
          "name": "recipient",
          "type": "address"
        },
        {
          "indexed": false,
          "internalType": "uint256",
          "name": "amount",
          "type": "uint256"
        }
      ],
      "name": "ProtocolFeesClaimed",
      "type": "event"
    },
    {
      "anonymous": false,
      "inputs": [
        {
          "indexed": true,
          "internalType": "address",
          "name": "seller",
          "type": "address"
        },
        {
          "indexed": false,
          "internalType": "uint256",
          "name": "tokenIn",
          "type": "uint256"
        },
        {
          "indexed": false,
          "internalType": "uint256",
          "name": "grossQuoteOut",
          "type": "uint256"
        },
        {
          "indexed": false,
          "internalType": "uint256",
          "name": "netQuoteOut",
          "type": "uint256"
        },
        {
          "indexed": false,
          "internalType": "uint256",
          "name": "protocolFee",
          "type": "uint256"
        },
        {
          "indexed": false,
          "internalType": "uint256",
          "name": "creatorFee",
          "type": "uint256"
        },
        {
          "indexed": false,
          "internalType": "uint256",
          "name": "newCurveQuoteReserve",
          "type": "uint256"
        },
        {
          "indexed": false,
          "internalType": "uint256",
          "name": "newSaleTokenReserve",
          "type": "uint256"
        }
      ],
      "name": "SellExecuted",
      "type": "event"
    },
    {
      "anonymous": false,
      "inputs": [
        {
          "indexed": true,
          "internalType": "enum LaunchTokenBase.LaunchState",
          "name": "previousState",
          "type": "uint8"
        },
        {
          "indexed": true,
          "internalType": "enum LaunchTokenBase.LaunchState",
          "name": "newState",
          "type": "uint8"
        }
      ],
      "name": "StateTransition",
      "type": "event"
    },
    {
      "anonymous": false,
      "inputs": [
        {
          "indexed": true,
          "internalType": "address",
          "name": "from",
          "type": "address"
        },
        {
          "indexed": true,
          "internalType": "address",
          "name": "to",
          "type": "address"
        },
        {
          "indexed": false,
          "internalType": "uint256",
          "name": "value",
          "type": "uint256"
        }
      ],
      "name": "Transfer",
      "type": "event"
    },
    {
      "inputs": [],
      "name": "BPS_DENOMINATOR",
      "outputs": [
        {
          "internalType": "uint256",
          "name": "",
          "type": "uint256"
        }
      ],
      "stateMutability": "view",
      "type": "function"
    },
    {
      "inputs": [],
      "name": "CREATOR_FEE_BPS",
      "outputs": [
        {
          "internalType": "uint256",
          "name": "",
          "type": "uint256"
        }
      ],
      "stateMutability": "view",
      "type": "function"
    },
    {
      "inputs": [],
      "name": "CREATOR_FEE_SWEEP_MIN_AGE",
      "outputs": [
        {
          "internalType": "uint256",
          "name": "",
          "type": "uint256"
        }
      ],
      "stateMutability": "view",
      "type": "function"
    },
    {
      "inputs": [],
      "name": "CREATOR_FEE_SWEEP_MIN_INACTIVITY",
      "outputs": [
        {
          "internalType": "uint256",
          "name": "",
          "type": "uint256"
        }
      ],
      "stateMutability": "view",
      "type": "function"
    },
    {
      "inputs": [],
      "name": "DEAD_ADDRESS",
      "outputs": [
        {
          "internalType": "address",
          "name": "",
          "type": "address"
        }
      ],
      "stateMutability": "view",
      "type": "function"
    },
    {
      "inputs": [],
      "name": "LP_TOKEN_RESERVE",
      "outputs": [
        {
          "internalType": "uint256",
          "name": "",
          "type": "uint256"
        }
      ],
      "stateMutability": "view",
      "type": "function"
    },
    {
      "inputs": [],
      "name": "MODE_STANDARD_0314",
      "outputs": [
        {
          "internalType": "uint8",
          "name": "",
          "type": "uint8"
        }
      ],
      "stateMutability": "view",
      "type": "function"
    },
    {
      "inputs": [],
      "name": "MODE_TAXED_1314",
      "outputs": [
        {
          "internalType": "uint8",
          "name": "",
          "type": "uint8"
        }
      ],
      "stateMutability": "view",
      "type": "function"
    },
    {
      "inputs": [],
      "name": "MODE_TAXED_2314",
      "outputs": [
        {
          "internalType": "uint8",
          "name": "",
          "type": "uint8"
        }
      ],
      "stateMutability": "view",
      "type": "function"
    },
    {
      "inputs": [],
      "name": "MODE_TAXED_3314",
      "outputs": [
        {
          "internalType": "uint8",
          "name": "",
          "type": "uint8"
        }
      ],
      "stateMutability": "view",
      "type": "function"
    },
    {
      "inputs": [],
      "name": "MODE_TAXED_4314",
      "outputs": [
        {
          "internalType": "uint8",
          "name": "",
          "type": "uint8"
        }
      ],
      "stateMutability": "view",
      "type": "function"
    },
    {
      "inputs": [],
      "name": "MODE_TAXED_5314",
      "outputs": [
        {
          "internalType": "uint8",
          "name": "",
          "type": "uint8"
        }
      ],
      "stateMutability": "view",
      "type": "function"
    },
    {
      "inputs": [],
      "name": "MODE_TAXED_6314",
      "outputs": [
        {
          "internalType": "uint8",
          "name": "",
          "type": "uint8"
        }
      ],
      "stateMutability": "view",
      "type": "function"
    },
    {
      "inputs": [],
      "name": "MODE_TAXED_7314",
      "outputs": [
        {
          "internalType": "uint8",
          "name": "",
          "type": "uint8"
        }
      ],
      "stateMutability": "view",
      "type": "function"
    },
    {
      "inputs": [],
      "name": "MODE_TAXED_8314",
      "outputs": [
        {
          "internalType": "uint8",
          "name": "",
          "type": "uint8"
        }
      ],
      "stateMutability": "view",
      "type": "function"
    },
    {
      "inputs": [],
      "name": "MODE_TAXED_9314",
      "outputs": [
        {
          "internalType": "uint8",
          "name": "",
          "type": "uint8"
        }
      ],
      "stateMutability": "view",
      "type": "function"
    },
    {
      "inputs": [],
      "name": "MODE_WHITELIST_B314",
      "outputs": [
        {
          "internalType": "uint8",
          "name": "",
          "type": "uint8"
        }
      ],
      "stateMutability": "view",
      "type": "function"
    },
    {
      "inputs": [],
      "name": "MODE_WHITELIST_TAX_F314",
      "outputs": [
        {
          "internalType": "uint8",
          "name": "",
          "type": "uint8"
        }
      ],
      "stateMutability": "view",
      "type": "function"
    },
    {
      "inputs": [],
      "name": "PROTOCOL_FEE_BPS",
      "outputs": [
        {
          "internalType": "uint256",
          "name": "",
          "type": "uint256"
        }
      ],
      "stateMutability": "view",
      "type": "function"
    },
    {
      "inputs": [],
      "name": "SALE_TOKEN_RESERVE",
      "outputs": [
        {
          "internalType": "uint256",
          "name": "",
          "type": "uint256"
        }
      ],
      "stateMutability": "view",
      "type": "function"
    },
    {
      "inputs": [],
      "name": "TOTAL_FEE_BPS",
      "outputs": [
        {
          "internalType": "uint256",
          "name": "",
          "type": "uint256"
        }
      ],
      "stateMutability": "view",
      "type": "function"
    },
    {
      "inputs": [],
      "name": "TOTAL_SUPPLY",
      "outputs": [
        {
          "internalType": "uint256",
          "name": "",
          "type": "uint256"
        }
      ],
      "stateMutability": "view",
      "type": "function"
    },
    {
      "inputs": [],
      "name": "VIRTUAL_QUOTE_DIVISOR",
      "outputs": [
        {
          "internalType": "uint256",
          "name": "",
          "type": "uint256"
        }
      ],
      "stateMutability": "view",
      "type": "function"
    },
    {
      "inputs": [],
      "name": "WHITELIST_STATUS_ACTIVE",
      "outputs": [
        {
          "internalType": "uint8",
          "name": "",
          "type": "uint8"
        }
      ],
      "stateMutability": "view",
      "type": "function"
    },
    {
      "inputs": [],
      "name": "WHITELIST_STATUS_EXPIRED",
      "outputs": [
        {
          "internalType": "uint8",
          "name": "",
          "type": "uint8"
        }
      ],
      "stateMutability": "view",
      "type": "function"
    },
    {
      "inputs": [],
      "name": "WHITELIST_STATUS_FINALIZED",
      "outputs": [
        {
          "internalType": "uint8",
          "name": "",
          "type": "uint8"
        }
      ],
      "stateMutability": "view",
      "type": "function"
    },
    {
      "inputs": [],
      "name": "WHITELIST_STATUS_NONE",
      "outputs": [
        {
          "internalType": "uint8",
          "name": "",
          "type": "uint8"
        }
      ],
      "stateMutability": "view",
      "type": "function"
    },
    {
      "inputs": [],
      "name": "WHITELIST_STATUS_SCHEDULED",
      "outputs": [
        {
          "internalType": "uint8",
          "name": "",
          "type": "uint8"
        }
      ],
      "stateMutability": "view",
      "type": "function"
    },
    {
      "inputs": [],
      "name": "accountedNativeBalance",
      "outputs": [
        {
          "internalType": "uint256",
          "name": "",
          "type": "uint256"
        }
      ],
      "stateMutability": "view",
      "type": "function"
    },
    {
      "inputs": [
        {
          "internalType": "address",
          "name": "owner",
          "type": "address"
        },
        {
          "internalType": "address",
          "name": "spender",
          "type": "address"
        }
      ],
      "name": "allowance",
      "outputs": [
        {
          "internalType": "uint256",
          "name": "",
          "type": "uint256"
        }
      ],
      "stateMutability": "view",
      "type": "function"
    },
    {
      "inputs": [
        {
          "internalType": "address",
          "name": "spender",
          "type": "address"
        },
        {
          "internalType": "uint256",
          "name": "value",
          "type": "uint256"
        }
      ],
      "name": "approve",
      "outputs": [
        {
          "internalType": "bool",
          "name": "",
          "type": "bool"
        }
      ],
      "stateMutability": "nonpayable",
      "type": "function"
    },
    {
      "inputs": [
        {
          "internalType": "address",
          "name": "account",
          "type": "address"
        }
      ],
      "name": "balanceOf",
      "outputs": [
        {
          "internalType": "uint256",
          "name": "",
          "type": "uint256"
        }
      ],
      "stateMutability": "view",
      "type": "function"
    },
    {
      "inputs": [
        {
          "internalType": "uint256",
          "name": "minTokenOut",
          "type": "uint256"
        }
      ],
      "name": "buy",
      "outputs": [
        {
          "internalType": "uint256",
          "name": "tokenOut",
          "type": "uint256"
        }
      ],
      "stateMutability": "payable",
      "type": "function"
    },
    {
      "inputs": [
        {
          "internalType": "address",
          "name": "",
          "type": "address"
        }
      ],
      "name": "canClaimWhitelistAllocation",
      "outputs": [
        {
          "internalType": "bool",
          "name": "",
          "type": "bool"
        }
      ],
      "stateMutability": "view",
      "type": "function"
    },
    {
      "inputs": [
        {
          "internalType": "address",
          "name": "",
          "type": "address"
        }
      ],
      "name": "canClaimWhitelistRefund",
      "outputs": [
        {
          "internalType": "bool",
          "name": "",
          "type": "bool"
        }
      ],
      "stateMutability": "view",
      "type": "function"
    },
    {
      "inputs": [
        {
          "internalType": "address",
          "name": "",
          "type": "address"
        }
      ],
      "name": "canCommitWhitelist",
      "outputs": [
        {
          "internalType": "bool",
          "name": "",
          "type": "bool"
        }
      ],
      "stateMutability": "view",
      "type": "function"
    },
    {
      "inputs": [
        {
          "internalType": "address",
          "name": "account",
          "type": "address"
        }
      ],
      "name": "canSell",
      "outputs": [
        {
          "internalType": "bool",
          "name": "",
          "type": "bool"
        }
      ],
      "stateMutability": "view",
      "type": "function"
    },
    {
      "inputs": [],
      "name": "claimCreatorFees",
      "outputs": [
        {
          "internalType": "uint256",
          "name": "amount",
          "type": "uint256"
        }
      ],
      "stateMutability": "nonpayable",
      "type": "function"
    },
    {
      "inputs": [
        {
          "internalType": "address payable",
          "name": "recipient",
          "type": "address"
        }
      ],
      "name": "claimCreatorFeesTo",
      "outputs": [
        {
          "internalType": "uint256",
          "name": "amount",
          "type": "uint256"
        }
      ],
      "stateMutability": "nonpayable",
      "type": "function"
    },
    {
      "inputs": [],
      "name": "claimProtocolFees",
      "outputs": [
        {
          "internalType": "uint256",
          "name": "amount",
          "type": "uint256"
        }
      ],
      "stateMutability": "nonpayable",
      "type": "function"
    },
    {
      "inputs": [
        {
          "internalType": "address payable",
          "name": "recipient",
          "type": "address"
        }
      ],
      "name": "claimProtocolFeesTo",
      "outputs": [
        {
          "internalType": "uint256",
          "name": "amount",
          "type": "uint256"
        }
      ],
      "stateMutability": "nonpayable",
      "type": "function"
    },
    {
      "inputs": [],
      "name": "createdAt",
      "outputs": [
        {
          "internalType": "uint256",
          "name": "",
          "type": "uint256"
        }
      ],
      "stateMutability": "view",
      "type": "function"
    },
    {
      "inputs": [],
      "name": "creator",
      "outputs": [
        {
          "internalType": "address",
          "name": "",
          "type": "address"
        }
      ],
      "stateMutability": "view",
      "type": "function"
    },
    {
      "inputs": [],
      "name": "creatorClaimable",
      "outputs": [
        {
          "internalType": "uint256",
          "name": "",
          "type": "uint256"
        }
      ],
      "stateMutability": "view",
      "type": "function"
    },
    {
      "inputs": [],
      "name": "creatorFeeSweepReady",
      "outputs": [
        {
          "internalType": "bool",
          "name": "",
          "type": "bool"
        }
      ],
      "stateMutability": "view",
      "type": "function"
    },
    {
      "inputs": [],
      "name": "creatorFeeVault",
      "outputs": [
        {
          "internalType": "uint256",
          "name": "",
          "type": "uint256"
        }
      ],
      "stateMutability": "view",
      "type": "function"
    },
    {
      "inputs": [],
      "name": "currentPriceQuotePerToken",
      "outputs": [
        {
          "internalType": "uint256",
          "name": "",
          "type": "uint256"
        }
      ],
      "stateMutability": "view",
      "type": "function"
    },
    {
      "inputs": [],
      "name": "curveQuoteReserve",
      "outputs": [
        {
          "internalType": "uint256",
          "name": "",
          "type": "uint256"
        }
      ],
      "stateMutability": "view",
      "type": "function"
    },
    {
      "inputs": [],
      "name": "decimals",
      "outputs": [
        {
          "internalType": "uint8",
          "name": "",
          "type": "uint8"
        }
      ],
      "stateMutability": "view",
      "type": "function"
    },
    {
      "inputs": [],
      "name": "dexFactory",
      "outputs": [
        {
          "internalType": "address",
          "name": "",
          "type": "address"
        }
      ],
      "stateMutability": "view",
      "type": "function"
    },
    {
      "inputs": [],
      "name": "dexReserves",
      "outputs": [
        {
          "internalType": "uint256",
          "name": "tokenReserve",
          "type": "uint256"
        },
        {
          "internalType": "uint256",
          "name": "quoteReserve",
          "type": "uint256"
        }
      ],
      "stateMutability": "view",
      "type": "function"
    },
    {
      "inputs": [],
      "name": "displayGraduationProgressBps",
      "outputs": [
        {
          "internalType": "uint256",
          "name": "",
          "type": "uint256"
        }
      ],
      "stateMutability": "view",
      "type": "function"
    },
    {
      "inputs": [],
      "name": "factory",
      "outputs": [
        {
          "internalType": "address",
          "name": "",
          "type": "address"
        }
      ],
      "stateMutability": "view",
      "type": "function"
    },
    {
      "inputs": [
        {
          "internalType": "address",
          "name": "recipient",
          "type": "address"
        },
        {
          "internalType": "uint256",
          "name": "minTokenOut",
          "type": "uint256"
        }
      ],
      "name": "factoryBuyFor",
      "outputs": [
        {
          "internalType": "uint256",
          "name": "tokenOut",
          "type": "uint256"
        }
      ],
      "stateMutability": "payable",
      "type": "function"
    },
    {
      "inputs": [
        {
          "internalType": "address payable",
          "name": "recipient",
          "type": "address"
        }
      ],
      "name": "factoryClaimProtocolFeesTo",
      "outputs": [
        {
          "internalType": "uint256",
          "name": "amount",
          "type": "uint256"
        }
      ],
      "stateMutability": "nonpayable",
      "type": "function"
    },
    {
      "inputs": [],
      "name": "graduationProgressBps",
      "outputs": [
        {
          "internalType": "uint256",
          "name": "",
          "type": "uint256"
        }
      ],
      "stateMutability": "view",
      "type": "function"
    },
    {
      "inputs": [],
      "name": "graduationQuoteReserve",
      "outputs": [
        {
          "internalType": "uint256",
          "name": "",
          "type": "uint256"
        }
      ],
      "stateMutability": "view",
      "type": "function"
    },
    {
      "inputs": [],
      "name": "isPairClean",
      "outputs": [
        {
          "internalType": "bool",
          "name": "",
          "type": "bool"
        }
      ],
      "stateMutability": "view",
      "type": "function"
    },
    {
      "inputs": [],
      "name": "isPairGraduationCompatible",
      "outputs": [
        {
          "internalType": "bool",
          "name": "",
          "type": "bool"
        }
      ],
      "stateMutability": "view",
      "type": "function"
    },
    {
      "inputs": [
        {
          "internalType": "address",
          "name": "",
          "type": "address"
        }
      ],
      "name": "isWhitelisted",
      "outputs": [
        {
          "internalType": "bool",
          "name": "",
          "type": "bool"
        }
      ],
      "stateMutability": "view",
      "type": "function"
    },
    {
      "inputs": [
        {
          "internalType": "address",
          "name": "",
          "type": "address"
        }
      ],
      "name": "lastBuyBlock",
      "outputs": [
        {
          "internalType": "uint256",
          "name": "",
          "type": "uint256"
        }
      ],
      "stateMutability": "view",
      "type": "function"
    },
    {
      "inputs": [],
      "name": "lastTradeAt",
      "outputs": [
        {
          "internalType": "uint256",
          "name": "",
          "type": "uint256"
        }
      ],
      "stateMutability": "view",
      "type": "function"
    },
    {
      "inputs": [],
      "name": "launchMode",
      "outputs": [
        {
          "internalType": "uint8",
          "name": "",
          "type": "uint8"
        }
      ],
      "stateMutability": "view",
      "type": "function"
    },
    {
      "inputs": [],
      "name": "launchModeId",
      "outputs": [
        {
          "internalType": "uint8",
          "name": "",
          "type": "uint8"
        }
      ],
      "stateMutability": "view",
      "type": "function"
    },
    {
      "inputs": [],
      "name": "launchSuffix",
      "outputs": [
        {
          "internalType": "string",
          "name": "",
          "type": "string"
        }
      ],
      "stateMutability": "view",
      "type": "function"
    },
    {
      "inputs": [],
      "name": "lpTokenReserve",
      "outputs": [
        {
          "internalType": "uint256",
          "name": "",
          "type": "uint256"
        }
      ],
      "stateMutability": "view",
      "type": "function"
    },
    {
      "inputs": [],
      "name": "metadataURI",
      "outputs": [
        {
          "internalType": "string",
          "name": "",
          "type": "string"
        }
      ],
      "stateMutability": "view",
      "type": "function"
    },
    {
      "inputs": [],
      "name": "name",
      "outputs": [
        {
          "internalType": "string",
          "name": "",
          "type": "string"
        }
      ],
      "stateMutability": "view",
      "type": "function"
    },
    {
      "inputs": [],
      "name": "pair",
      "outputs": [
        {
          "internalType": "address",
          "name": "",
          "type": "address"
        }
      ],
      "stateMutability": "view",
      "type": "function"
    },
    {
      "inputs": [],
      "name": "pairPreloadedQuote",
      "outputs": [
        {
          "internalType": "uint256",
          "name": "",
          "type": "uint256"
        }
      ],
      "stateMutability": "view",
      "type": "function"
    },
    {
      "inputs": [],
      "name": "pairSnapshot",
      "outputs": [
        {
          "internalType": "address",
          "name": "pairAddress",
          "type": "address"
        },
        {
          "internalType": "uint256",
          "name": "pairTotalSupply",
          "type": "uint256"
        },
        {
          "internalType": "uint112",
          "name": "reserve0",
          "type": "uint112"
        },
        {
          "internalType": "uint112",
          "name": "reserve1",
          "type": "uint112"
        },
        {
          "internalType": "uint256",
          "name": "tokenBalance",
          "type": "uint256"
        },
        {
          "internalType": "uint256",
          "name": "wrappedNativeBalance",
          "type": "uint256"
        }
      ],
      "stateMutability": "view",
      "type": "function"
    },
    {
      "inputs": [
        {
          "internalType": "uint256",
          "name": "grossQuoteIn",
          "type": "uint256"
        }
      ],
      "name": "previewBuy",
      "outputs": [
        {
          "internalType": "uint256",
          "name": "tokenOut",
          "type": "uint256"
        },
        {
          "internalType": "uint256",
          "name": "feeAmount",
          "type": "uint256"
        },
        {
          "internalType": "uint256",
          "name": "refundAmount",
          "type": "uint256"
        }
      ],
      "stateMutability": "view",
      "type": "function"
    },
    {
      "inputs": [
        {
          "internalType": "uint256",
          "name": "tokenAmount",
          "type": "uint256"
        }
      ],
      "name": "previewSell",
      "outputs": [
        {
          "internalType": "uint256",
          "name": "grossQuoteOut",
          "type": "uint256"
        },
        {
          "internalType": "uint256",
          "name": "netQuoteOut",
          "type": "uint256"
        },
        {
          "internalType": "uint256",
          "name": "totalFee",
          "type": "uint256"
        }
      ],
      "stateMutability": "view",
      "type": "function"
    },
    {
      "inputs": [],
      "name": "priceQuotePerToken",
      "outputs": [
        {
          "internalType": "uint256",
          "name": "",
          "type": "uint256"
        }
      ],
      "stateMutability": "view",
      "type": "function"
    },
    {
      "inputs": [],
      "name": "protocolClaimable",
      "outputs": [
        {
          "internalType": "uint256",
          "name": "",
          "type": "uint256"
        }
      ],
      "stateMutability": "view",
      "type": "function"
    },
    {
      "inputs": [],
      "name": "protocolFeeRecipient",
      "outputs": [
        {
          "internalType": "address",
          "name": "",
          "type": "address"
        }
      ],
      "stateMutability": "view",
      "type": "function"
    },
    {
      "inputs": [],
      "name": "protocolFeeVault",
      "outputs": [
        {
          "internalType": "uint256",
          "name": "",
          "type": "uint256"
        }
      ],
      "stateMutability": "view",
      "type": "function"
    },
    {
      "inputs": [],
      "name": "remainingQuoteCapacity",
      "outputs": [
        {
          "internalType": "uint256",
          "name": "",
          "type": "uint256"
        }
      ],
      "stateMutability": "view",
      "type": "function"
    },
    {
      "inputs": [],
      "name": "router",
      "outputs": [
        {
          "internalType": "address",
          "name": "",
          "type": "address"
        }
      ],
      "stateMutability": "view",
      "type": "function"
    },
    {
      "inputs": [],
      "name": "saleTokenReserve",
      "outputs": [
        {
          "internalType": "uint256",
          "name": "",
          "type": "uint256"
        }
      ],
      "stateMutability": "view",
      "type": "function"
    },
    {
      "inputs": [
        {
          "internalType": "uint256",
          "name": "tokenAmount",
          "type": "uint256"
        },
        {
          "internalType": "uint256",
          "name": "minQuoteOut",
          "type": "uint256"
        }
      ],
      "name": "sell",
      "outputs": [
        {
          "internalType": "uint256",
          "name": "netQuoteOut",
          "type": "uint256"
        }
      ],
      "stateMutability": "nonpayable",
      "type": "function"
    },
    {
      "inputs": [
        {
          "internalType": "address",
          "name": "account",
          "type": "address"
        }
      ],
      "name": "sellUnlockBlock",
      "outputs": [
        {
          "internalType": "uint256",
          "name": "",
          "type": "uint256"
        }
      ],
      "stateMutability": "view",
      "type": "function"
    },
    {
      "inputs": [],
      "name": "state",
      "outputs": [
        {
          "internalType": "enum LaunchTokenBase.LaunchState",
          "name": "",
          "type": "uint8"
        }
      ],
      "stateMutability": "view",
      "type": "function"
    },
    {
      "inputs": [],
      "name": "sweepAbandonedCreatorFees",
      "outputs": [
        {
          "internalType": "uint256",
          "name": "amount",
          "type": "uint256"
        }
      ],
      "stateMutability": "nonpayable",
      "type": "function"
    },
    {
      "inputs": [],
      "name": "symbol",
      "outputs": [
        {
          "internalType": "string",
          "name": "",
          "type": "string"
        }
      ],
      "stateMutability": "view",
      "type": "function"
    },
    {
      "inputs": [],
      "name": "taxConfig",
      "outputs": [
        {
          "internalType": "bool",
          "name": "enabled",
          "type": "bool"
        },
        {
          "internalType": "uint16",
          "name": "taxBps",
          "type": "uint16"
        },
        {
          "internalType": "uint16",
          "name": "burnShareBps",
          "type": "uint16"
        },
        {
          "internalType": "uint16",
          "name": "treasuryShareBps",
          "type": "uint16"
        },
        {
          "internalType": "address",
          "name": "treasuryWallet",
          "type": "address"
        },
        {
          "internalType": "bool",
          "name": "active",
          "type": "bool"
        }
      ],
      "stateMutability": "view",
      "type": "function"
    },
    {
      "inputs": [],
      "name": "totalSupply",
      "outputs": [
        {
          "internalType": "uint256",
          "name": "",
          "type": "uint256"
        }
      ],
      "stateMutability": "view",
      "type": "function"
    },
    {
      "inputs": [
        {
          "internalType": "address",
          "name": "to",
          "type": "address"
        },
        {
          "internalType": "uint256",
          "name": "value",
          "type": "uint256"
        }
      ],
      "name": "transfer",
      "outputs": [
        {
          "internalType": "bool",
          "name": "",
          "type": "bool"
        }
      ],
      "stateMutability": "nonpayable",
      "type": "function"
    },
    {
      "inputs": [
        {
          "internalType": "address",
          "name": "from",
          "type": "address"
        },
        {
          "internalType": "address",
          "name": "to",
          "type": "address"
        },
        {
          "internalType": "uint256",
          "name": "value",
          "type": "uint256"
        }
      ],
      "name": "transferFrom",
      "outputs": [
        {
          "internalType": "bool",
          "name": "",
          "type": "bool"
        }
      ],
      "stateMutability": "nonpayable",
      "type": "function"
    },
    {
      "inputs": [],
      "name": "unexpectedNativeBalance",
      "outputs": [
        {
          "internalType": "uint256",
          "name": "",
          "type": "uint256"
        }
      ],
      "stateMutability": "view",
      "type": "function"
    },
    {
      "inputs": [],
      "name": "virtualQuoteReserve",
      "outputs": [
        {
          "internalType": "uint256",
          "name": "",
          "type": "uint256"
        }
      ],
      "stateMutability": "view",
      "type": "function"
    },
    {
      "inputs": [],
      "name": "virtualTokenReserve",
      "outputs": [
        {
          "internalType": "uint256",
          "name": "",
          "type": "uint256"
        }
      ],
      "stateMutability": "view",
      "type": "function"
    },
    {
      "inputs": [],
      "name": "whitelistAllocationTokenReserve",
      "outputs": [
        {
          "internalType": "uint256",
          "name": "",
          "type": "uint256"
        }
      ],
      "stateMutability": "view",
      "type": "function"
    },
    {
      "inputs": [],
      "name": "whitelistSnapshot",
      "outputs": [
        {
          "internalType": "uint8",
          "name": "status",
          "type": "uint8"
        },
        {
          "internalType": "uint256",
          "name": "opensAt",
          "type": "uint256"
        },
        {
          "internalType": "uint256",
          "name": "deadline",
          "type": "uint256"
        },
        {
          "internalType": "uint256",
          "name": "threshold",
          "type": "uint256"
        },
        {
          "internalType": "uint256",
          "name": "slotSize",
          "type": "uint256"
        },
        {
          "internalType": "uint256",
          "name": "seatCount",
          "type": "uint256"
        },
        {
          "internalType": "uint256",
          "name": "seatsFilled",
          "type": "uint256"
        },
        {
          "internalType": "uint256",
          "name": "committedTotal",
          "type": "uint256"
        },
        {
          "internalType": "uint256",
          "name": "tokensPerSeat",
          "type": "uint256"
        }
      ],
      "stateMutability": "view",
      "type": "function"
    },
    {
      "inputs": [],
      "name": "whitelistStatus",
      "outputs": [
        {
          "internalType": "uint8",
          "name": "",
          "type": "uint8"
        }
      ],
      "stateMutability": "view",
      "type": "function"
    },
    {
      "inputs": [],
      "name": "wrappedNative",
      "outputs": [
        {
          "internalType": "address",
          "name": "",
          "type": "address"
        }
      ],
      "stateMutability": "view",
      "type": "function"
    },
    {
      "stateMutability": "payable",
      "type": "receive"
    }
  ],
  "bytecode": "0x6101e080604052346200073b57620043fb803803809162000021828562000c4f565b83398101906020818303126200073b578051906001600160401b0382116200073b570190610120828203126200073b576040519061012082016001600160401b03811183821017620009285760405282516001600160401b0381116200073b57816200008f91850162000c73565b825260208301516001600160401b0381116200073b5781620000b391850162000c73565b60208301908152604084015190916001600160401b0382116200073b57620000dd91850162000c73565b92836040840152620000f26060820162000ce9565b806060850152620001066080830162000ce9565b8060808601526200011a60a0840162000ce9565b908160a08701526200012f60c0850162000ce9565b928360c088015261010060e0860151958660e08a015201519560ff871687036200073b57610100880187905287519051815190916001600160401b038211620009285760035490600182811c9216801562000c44575b6020831014620009075781601f84931162000bd2575b50602090601f831160011462000b475760009262000b3b575b50508160011b916000199060031b1c1916176003555b8051906001600160401b038211620009285760045490600182811c9216801562000b30575b6020831014620009075781601f84931162000abe575b50602090601f831160011462000a2f5760009262000a23575b50508160011b916000199060031b1c1916176004555b60017f9b779b17422d0df92223018b32b4d1fa46e071723d6817e2486d003becc55f0055841562000a1157600385041562000a11576001600160a01b038116158015620009ff575b8015620009ed575b8015620009db575b620009c9576001600160a01b0390811660a05290811660c05290811660e052811661010081905260405163c45a015560e01b815290602090829060049082905afa908115620007495760009162000980575b50610120526040516315ab88c960e31b815290602090829060049082906001600160a01b03165afa90811562000749576000916200093e575b5061014052610160819052600381046101808190526aa56fa5b99019a5c8000000808202049003620007ab576aa56fa5b99019a5c80000006003820402046101a052426101c0819052600c558251906001600160401b03821162000928576005918254600181811c911680156200091d575b60208210146200090757601f8111620008bc575b506020601f82116001146200084c57819060ff94959660009262000840575b50508160011b916000199060031b1c19161783555b166080523015620008275760ff600654169081101580620008035760018214801562000819575b15620007c1575b50506002546b033b2e3c9fd0803ce800000090818101809111620007ab57600255306000526000602052604060002081815401905560405190815260007fddf252ad1be2c89b69c2b068fc378daa952ba7f163c4a11628f55a4df523b3ef60203093a36b0295be96e6406697200000006007556aa56fa5b99019a5c8000000600855610120516101405160405163e6a4390560e01b815260009392909160209183916001600160a01b039182169183918291620004c29116306004840162000e05565b03915afa9283156200079f57809362000755575b50506001600160a01b038216156200069f575b600680546001600160a81b03191660089390931b610100600160a81b0316929092176001908117909255620005519160007f3a779de46631dd65116ae538600f1bc3c338200c6aef638429b5de43301c28f78180a3608001516001600160a01b031662000cfe565b156200068d576040516135db908162000e20823960805181611f18015260a05181818161184801528181611d3f01526126f5015260c051818181610f51015281816114b801528181611bbc0152612540015260e05181818161153201528181611728015261249f01526101005181610a6b01526101205181610ff701526101405181818161021101528181610251015281816102940152818161030501528181610b2f0152818161212a015281816122a901528181612b3901528181612b8701528181612bca01528181612c3b0152612ee9015261016051818181607d0152818161179201528181611fc5015281816123eb015281816127880152818161288701526129b0015261018051818181610ad8015261268b01526101a05181818161188d01526126c501526101c051818181610e6801526129170152f35b604051635bb6e57160e11b8152600490fd5b61012051610140516040516364e329cb60e11b8152935060209184916001600160a01b039182169183916000918391620006df9116306004840162000e05565b03925af19182156200074957600092620006fb575b50620004e9565b91506020823d60201162000740575b81620007196020938362000c4f565b810103126200073b57600162000733620005519362000ce9565b9250620006f4565b600080fd5b3d91506200070a565b6040513d6000823e3d90fd5b909192506020823d60201162000796575b81620007756020938362000c4f565b810103126200079357506200078a9062000ce9565b903880620004d6565b80fd5b3d915062000766565b604051903d90823e3d90fd5b634e487b7160e01b600052601160045260246000fd5b620008035760028103620007e15760405163baf3f0f760e01b8152600490fd5b600314620007f1573880620003ff565b604051634e46966960e11b8152600490fd5b634e487b7160e01b600052602160045260246000fd5b5050600060048214620003f8565b60405163ec442f0560e01b815260006004820152602490fd5b015190503880620003bc565b601f198216958460005260206000209660005b818110620008a357509160ff9596979184600195941062000889575b505050811b018355620003d1565b015160001960f88460031b161c191690553880806200087b565b838301518955600190980197602093840193016200085f565b836000526020600020601f8301851c81019160208410620008fc575b601f01851c01905b818110620008ef57506200039d565b60008155600101620008e0565b9091508190620008d8565b634e487b7160e01b600052602260045260246000fd5b90607f169062000389565b634e487b7160e01b600052604160045260246000fd5b90506020813d60201162000977575b816200095c6020938362000c4f565b810103126200073b57620009709062000ce9565b3862000317565b3d91506200094d565b90506020813d602011620009c0575b816200099e6020938362000c4f565b810103126200073b57600491620009b760209262000ce9565b915091620002de565b3d91506200098f565b60405163d92e233d60e01b8152600490fd5b506001600160a01b038416156200028c565b506001600160a01b0383161562000284565b506001600160a01b038216156200027c565b604051630d956e1760e21b8152600490fd5b0151905038806200021e565b6004600090815293507f8a35acfbc15ff81a39ae7d344fd709f28e8600b4aa8c65c6b64bfe7fe36bd19b91905b601f198416851062000aa2576001945083601f1981161062000a88575b505050811b0160045562000234565b015160001960f88460031b161c1916905538808062000a79565b8181015183556020948501946001909301929091019062000a5c565b60046000529091507f8a35acfbc15ff81a39ae7d344fd709f28e8600b4aa8c65c6b64bfe7fe36bd19b601f840160051c81016020851062000b28575b90849392915b601f830160051c8201811062000b1857505062000205565b6000815585945060010162000b00565b508062000afa565b91607f1691620001ef565b015190503880620001b4565b600360009081527fc2575a0e9e593c00f959f8c92f12db2869c3395a3b0502d05e2516446f71f85b9350601f198516905b81811062000bb9575090846001959493921062000b9f575b505050811b01600355620001ca565b015160001960f88460031b161c1916905538808062000b90565b9293602060018192878601518155019501930162000b78565b60036000529091507fc2575a0e9e593c00f959f8c92f12db2869c3395a3b0502d05e2516446f71f85b601f840160051c81016020851062000c3c575b90849392915b601f830160051c8201811062000c2c5750506200019b565b6000815585945060010162000c14565b508062000c0e565b91607f169162000185565b601f909101601f19168101906001600160401b038211908210176200092857604052565b919080601f840112156200073b5782516001600160401b03811162000928576020906040519262000cae83601f19601f850116018562000c4f565b8184528282870101116200073b5760005b81811062000cd557508260009394955001015290565b858101830151848201840152820162000cbf565b51906001600160a01b03821682036200073b57565b6001600160a01b03908082169033821462000dfd573b1562000df657600160ff608051161462000dc75760ff608051166003811015908162000dba575b5062000d48575050600090565b602060049160405192838092631f6f884760e11b82525afa908115620007495760009162000d78575b5016331490565b90506020813d60201162000db1575b8162000d966020938362000c4f565b810103126200073b5762000daa9062000ce9565b3862000d71565b3d915062000d87565b600b915011153862000d3b565b60206004916040519283809263136afe8560e31b82525afa908115620007495760009162000d78575016331490565b5050600090565b505050600190565b6001600160a01b039182168152911660208201526040019056fe60808060405260043610156105cb575b50361561001b57600080fd5b610023612463565b60065460ff811660058110156105b5576001036105135733159081156105ab575b8115610592575b506105805734156105665761005f3461277f565b9183158015610578575b610566576009549361007b828661206d565b7f000000000000000000000000000000000000000000000000000000000000000094856100a785612879565b921461055c575b81158015610551575b610501576100c78460009861206d565b6009556100d685600a5461206d565b600a556100e581600b5461206d565b600b5542600c556100f882600754611f3c565b60075561010682333061302d565b338752600e60205243604088205561011e8334611f3c565b9081610542575b6009549560075495604051958652602086015260408501526060840152608083015260a08201528260c08201528160e08201526000805160206135668339815191526101003392a282821090811591610539575b50610193575b600160008051602061358683398151915255005b60065460ff81169260058410156105255760018403610513578203610501576002809160ff19161792836006556000805160206135268339815191528580a36101da6131fb565b156104ef576008549160018060a01b039060081c166040516370a0823160e01b815281600482015260208160248160018060a01b037f0000000000000000000000000000000000000000000000000000000000000000165afa90811561044657849086926104b9575b5061024f91923061302d565b7f00000000000000000000000000000000000000000000000000000000000000006001600160a01b03163b156104b557604051630d0e30db60e41b81528481600481867f00000000000000000000000000000000000000000000000000000000000000006001600160a01b03165af18015610446576104a2575b5060065460405163a9059cbb60e01b815260089190911c6001600160a01b039081166004830152602482018490526020908290604490829089907f0000000000000000000000000000000000000000000000000000000000000000165af1908115610446578591610463575b5015610451576006546040516335313c2160e11b815261dead6004820152929060209084906024908290899060081c6001600160a01b03165af192831561044657859361040d575b50846008558460095560065493600360ff86169560ff191617948560065560058110156103f957916000805160206135468339815191529593916003608096946000805160206135268339815191526040519a80a3875260208701526040860152606085015260081c6001600160a01b031692a238808061017f565b634e487b7160e01b87526021600452602487fd5b9092506020813d60201161043e575b8161042960209383611d9b565b810103126104395751913861037d565b600080fd5b3d915061041c565b6040513d87823e3d90fd5b6040516314da028560e11b8152600490fd5b90506020813d60201161049a575b8161047e60209383611d9b565b81010312610496575180151581036104965738610335565b8480fd5b3d9150610471565b6104ae90949194611d72565b92386102c9565b8380fd5b9150506020813d6020116104e7575b816104d560209383611d9b565b8101031261049657518361024f610243565b3d91506104c8565b604051633c1413fb60e01b8152600490fd5b604051638199f5f360e01b8152600490fd5b60405163baf3f0f760e01b8152600490fd5b634e487b7160e01b85526021600452602485fd5b90501538610179565b61054c8233613178565b610125565b5060075482116100b7565b60075491506100ae565b604051631f2a200560e01b8152600490fd5b508015610069565b604051634e46966960e11b8152600490fd5b3360089190911c6001600160a01b03161490503861004b565b3330149150610044565b634e487b7160e01b600052602160045260246000fd5b600090813560e01c90816302d05d3f14611d2b5750806303ee438c14611c8c57806306b51d48146113c157806306fdde0314611bed578063086e5ca014611b89578063095ea7b314611ad65780630b42aae014611aba57806315a0aa0814611a57578063173d5e421461177557806318160ddd14611a395780631cd97db514611a125780631d924c77146119f457806323b872dd146118cc578063313ce567146118b0578063343ee3b714611875578063351fee461461182857806337488a421461180a57806337b28bfd146117d157806338809be6146117b5578063399315271461177a5780633af32abf14610ea9578063403287a914610c7e57806340faa03c14611775578063463bb8001461110757806348153279146117555780634a7d0369146117085780634e6fd6c4146116eb578063538660061461163e578063581b51f3146116105780635878f8ce146115f55780635a85ffd7146115da5780636095a620146115be578063644537cb1461159a57806364a5dc2b1461156157806364df049e1461151c5780636723064e146114905780636887c8481461143757806368bc13f51461141b5780636a534fcb146113e25780636a740d31146110425780636f28507c146113c65780636f71f017146113c157806370a082311461139d57806374452ec31461137f5780637531abe314610ea957806379e4698714610f8057806385cac2371461106357806386d4ff1d1461132f5780638925d36e14611311578063902d55a5146112ea5780639111f13d146112cf57806391e7cd34146112b15780639454d7201461129557806395d89b41146111b35780639d0ee65b146111975780639ddf7ad314610ee55780639e5f358a1461117c578063a202c86d14611160578063a8aa1b3114611133578063a8dccd021461110c578063a8ea444514611107578063a9059cbb146110a9578063aadade7a1461108b578063aecf6a7c14610ea9578063af1af3b914610e8b578063b0cc792d14611068578063b37dd69014611063578063b5f1c1ff14611047578063b82020e814611042578063b88202a914611026578063b8d8fbb414610fe1578063be37822814610fc5578063c19d93fb14610f85578063c228987814610f80578063c45a015514610f3b578063c57da02914610f01578063cac01cbc14610ee5578063cc3cbd2a14610ec9578063cc45010414610eae578063cc64aade14610ea9578063ce228ad214610e8b578063cf09e0d014610e50578063d79875eb14610ca8578063d7f3ad6f14610c83578063d81d946f14610c7e578063d96a094a14610c14578063db9b541314610bc6578063dd62ed3e14610b7b578063e1a4521814610b5e578063eb6d3a1114610b19578063f48f6f1d14610afb578063f559662614610ac0578063f7ce612a14610a9a578063f887ea4014610a55578063fb3dd95f14610a145763fd897e0b0361000f5734610a115780600319360112610a11576020600d54604051908152f35b80fd5b5034610a11576020366003190112610a1157610a51610a3460043561240f565b604080519384526020840192909252908201529081906060820190565b0390f35b5034610a115780600319360112610a11576040517f00000000000000000000000000000000000000000000000000000000000000006001600160a01b03168152602090f35b5034610a115780600319360112610a115760206040516aa56fa5b99019a5c80000008152f35b5034610a115780600319360112610a115760206040517f00000000000000000000000000000000000000000000000000000000000000008152f35b5034610a115780600319360112610a1157602060405162278d008152f35b5034610a115780600319360112610a11576040517f00000000000000000000000000000000000000000000000000000000000000006001600160a01b03168152602090f35b5034610a115780600319360112610a115760206040516127108152f35b5034610a11576040366003190112610a11576040602091610b9a611e22565b610ba2611e38565b6001600160a01b039182168352600185528383209116825283522054604051908152f35b5034610a115780600319360112610a115761012090604051908082528060208301528060408301528060608301528060808301528060a08301528060c08301528060e0830152610100820152f35b506020366003190112610a1157610c29612463565b60ff60065416906005821015610c6a5760018203610513576020610c506004353333612956565b600160008051602061358683398151915255604051908152f35b634e487b7160e01b81526021600452602490fd5b611e8e565b5034610a115780600319360112610a11576020610c9e6131fb565b6040519015158152f35b5034610a11576040366003190112610a115760043590610cc6612463565b60ff600654166005811015610e3c5760010361051357811561056657604090338152600e60205220544314610e2a57610d25610d1f610d03612683565b610d1985610d1383859695611f5f565b9261206d565b90612fc4565b90611f3c565b9081158015610e1f575b61050157610d4b90610d4083612ff6565b949182949194611f3c565b92831561050157602435841061050157602094610d6984303361302d565b610d758460075461206d565b600755610d8483600954611f3c565b600955610d9382600a5461206d565b600a55610da281600b5461206d565b600b5542600c55610db38533613178565b6009549160075493604051958652878601528560408601526060850152608084015260a083015260c08201527feebdf396b2ce33c6bf51df33b76958425b7430bd1c74fbef7b585106affddd1c60e03392a2600160008051602061358683398151915255604051908152f35b506009548211610d2f565b604051635aabee0f60e11b8152600490fd5b634e487b7160e01b82526021600452602482fd5b5034610a115780600319360112610a115760206040517f00000000000000000000000000000000000000000000000000000000000000008152f35b5034610a115780600319360112610a11576020600a54604051908152f35b611e69565b5034610a115780600319360112610a11576020610c9e612e37565b5034610a115780600319360112610a1157602060405160468152f35b5034610a115780600319360112610a1157602090604051908152f35b5034610a115780600319360112610a115760c0906040519080825280602083015280604083015280606083015280608083015260a0820152f35b5034610a115780600319360112610a11576040517f00000000000000000000000000000000000000000000000000000000000000006001600160a01b03168152602090f35b611ee2565b5034610a115780600319360112610a115760ff60065416604051906005811015610fb157602092508152f35b634e487b7160e01b83526021600452602483fd5b5034610a115780600319360112610a11576020604051601e8152f35b5034610a115780600319360112610a11576040517f00000000000000000000000000000000000000000000000000000000000000006001600160a01b03168152602090f35b5034610a115780600319360112610a11576020604051600b8152f35b611ec6565b5034610a115780600319360112610a11576020604051600c8152f35b611efe565b5034610a115780600319360112610a115760206110836123cd565b604051908152f35b5034610a115780600319360112610a11576020600b54604051908152f35b5034610a11576040366003190112610a11576110c3611e22565b9060ff60065416906005821015610c6a57506003036110f5576110ea90602435903361302d565b602060405160018152f35b6040516377d87fb560e11b8152600490fd5b611eaa565b5034610a115780600319360112610a11576040516714adf4b7320334b9601d1b8152602090f35b5034610a115780600319360112610a115760065460405160089190911c6001600160a01b03168152602090f35b5034610a115780600319360112610a1157602060405160098152f35b5034610a115780600319360112610a115760206110836123ac565b5034610a115780600319360112610a1157602060405160068152f35b5034610a115780600319360112610a1157604051816004549060018260011c916001841693841561128b575b602094858510811461127757848752908115611255575060011461121a575b610a518561120e81890382611d9b565b60405191829182611dbe565b929450600483528483205b8284106112425750505081610a519361120e9282010193386111fe565b8054858501870152928501928101611225565b60ff191686860152505050151560051b820101915061120e81610a51386111fe565b634e487b7160e01b83526022600452602483fd5b92607f16926111df565b5034610a115780600319360112610a11576020604051600a8152f35b5034610a115780600319360112610a11576020600954604051908152f35b5034610a115780600319360112610a11576020610c9e6128d7565b5034610a115780600319360112610a1157604051676765c793fa10079d601b1b8152602090f35b5034610a115780600319360112610a11576020600754604051908152f35b5034610a11576020366003190112610a11576020906040906001600160a01b03611357611e22565b168152600e835220548015908115611375575b506040519015158152f35b905043113861136a565b5034610a115780600319360112610a11576020600c54604051908152f35b5034610a11576020366003190112610a115760206110836113bc611e22565b612391565b611e07565b5034610a115780600319360112610a1157602060405160648152f35b5034610a11576020366003190112610a1157600435906001600160a01b0382168203610a11576020610c5083611416612463565b6126ea565b5034610a115780600319360112610a1157602060405160058152f35b5034610a115780600319360112610a115760c061145261220f565b604080516001600160a01b03909716875260208701959095526001600160701b039384169486019490945291166060840152608083015260a0820152f35b506040366003190112610a11576114a5611e22565b6114ad612463565b6001600160a01b03917f00000000000000000000000000000000000000000000000000000000000000008316330361150a5760ff60065416906005821015610c6a575060010361051357602091610c509160243591811690612956565b604051635b2fb5b360e11b8152600490fd5b5034610a115780600319360112610a11576040517f00000000000000000000000000000000000000000000000000000000000000006001600160a01b03168152602090f35b5034610a11576020366003190112610a1157600435906001600160a01b0382168203610a11576020610c5083611595612463565b612493565b5034610a11576020366003190112610a115760206110836115b9611e22565b612199565b5034610a115780600319360112610a1157602060405160078152f35b5034610a115780600319360112610a115760206110836120f6565b5034610a115780600319360112610a115760206110836120cc565b5034610a115780600319360112610a11576020611083611635600954600a549061206d565b600b549061206d565b5034610a115780600319360112610a1157611657612463565b61165f6128d7565b156116d957600b5480156116c757602091600b5561167f81600a5461206d565b600a556040518181527f6a0c33aa8c816cdfa77b389739210eadb9f9a653e441ee697d9a29d61a9884a1833392a2600160008051602061358683398151915255604051908152f35b6040516312d37ee560e31b8152600490fd5b604051638a430e9f60e01b8152600490fd5b5034610a115780600319360112610a1157602060405161dead8152f35b5034610a115780600319360112610a1157611721612463565b6020610c507f00000000000000000000000000000000000000000000000000000000000000006001600160a01b0316612493565b5034610a11576020366003190112610a1157610a51610a3460043561207a565b611e4e565b5034610a115780600319360112610a115760206040517f00000000000000000000000000000000000000000000000000000000000000008152f35b5034610a115780600319360112610a1157602060405160038152f35b5034610a11576020366003190112610a11576020906040906001600160a01b036117f9611e22565b168152600e83522054604051908152f35b5034610a115780600319360112610a11576020600854604051908152f35b5034610a115780600319360112610a1157611841612463565b6020610c507f00000000000000000000000000000000000000000000000000000000000000006001600160a01b03166126ea565b5034610a115780600319360112610a115760206040517f00000000000000000000000000000000000000000000000000000000000000008152f35b5034610a115780600319360112610a1157602060405160128152f35b5034610a11576060366003190112610a11576118e6611e22565b6118ee611e38565b6044359160ff60065416600581101561052557600381036119ce575b506001600160a01b038116808552600160209081526040808720338852909152852054906000198210611944575b50506110ea935061302d565b8482106119ad57801561199457331561197b578486926040926110ea98526001602052828420338552602052039120553880611938565b604051634a1406b160e11b815260048101879052602490fd5b60405163e602df0560e01b815260048101879052602490fd5b604051637dc7a0d960e11b8152806119ca878533600485016133b9565b0390fd5b600214806119e2575b156110f5573861190a565b506001600160a01b03811630146119d7565b5034610a115780600319360112610a1157602060405162ed4e008152f35b5034610a115780600319360112610a11576040611a2d612587565b82519182526020820152f35b5034610a115780600319360112610a11576020600254604051908152f35b5034610a115780600319360112610a1157604080519081016001600160401b03811182821017611aa657610a51925060405260048152630c0ccc4d60e21b602082015260405191829182611dbe565b634e487b7160e01b83526041600452602483fd5b5034610a115780600319360112610a1157602060405160088152f35b5034610a11576040366003190112610a1157611af0611e22565b602435903315611b70576001600160a01b0316918215611b585760408291338152600160205281812085825260205220556040519081527f8c5be1e5ebec7d5bd14f71427d1e84f3dd0314c0f7b2291e5b200ac8c7c3b92560203392a3602060405160018152f35b60249060405190634a1406b160e11b82526004820152fd5b60405163e602df0560e01b815260048101849052602490fd5b5034610a11576020366003190112610a1157600435906001600160a01b03908183168303610a115750611bba612463565b7f000000000000000000000000000000000000000000000000000000000000000016330361150a57610c50602091612493565b5034610a115780600319360112610a1157604051816003549060018260011c9160018416938415611c82575b6020948585108114611277578487529081156112555750600114611c4757610a518561120e81890382611d9b565b929450600383528483205b828410611c6f5750505081610a519361120e9282010193386111fe565b8054858501870152928501928101611c52565b92607f1692611c19565b5034610a115780600319360112610a1157604051816005549060018260011c9160018416938415611d21575b6020948585108114611277578487529081156112555750600114611ce657610a518561120e81890382611d9b565b929450600583528483205b828410611d0e5750505081610a519361120e9282010193386111fe565b8054858501870152928501928101611cf1565b92607f1692611cb8565b905034611d6e5781600319360112611d6e577f00000000000000000000000000000000000000000000000000000000000000006001600160a01b03168152602090f35b5080fd5b6001600160401b038111611d8557604052565b634e487b7160e01b600052604160045260246000fd5b601f909101601f19168101906001600160401b03821190821017611d8557604052565b6020808252825181830181905290939260005b828110611df357505060409293506000838284010152601f8019910116010190565b818101860151848201604001528501611dd1565b34610439576000366003190112610439576020611083611f92565b600435906001600160a01b038216820361043957565b602435906001600160a01b038216820361043957565b34610439576000366003190112610439576020611083611ff3565b3461043957602036600319011261043957611e82611e22565b50602060405160008152f35b3461043957600036600319011261043957602060405160028152f35b3461043957600036600319011261043957602060405160048152f35b3461043957600036600319011261043957602060405160038152f35b3461043957600036600319011261043957602060405160018152f35b3461043957600036600319011261043957602060405160ff7f0000000000000000000000000000000000000000000000000000000000000000168152f35b91908203918211611f4957565b634e487b7160e01b600052601160045260246000fd5b81810292918115918404141715611f4957565b8115611f7c570490565b634e487b7160e01b600052601260045260246000fd5b60ff6006541660058110156105b557600314611fed5760095461271090818102918183041490151715611f4957611fea907f000000000000000000000000000000000000000000000000000000000000000090611f72565b90565b61271090565b60ff6006541660058110156105b55760031461203457612011612683565b670de0b6b3a764000091828102928184041490151715611f4957611fea91611f72565b61203c612587565b90801561206657670de0b6b3a764000091828102928184041490151715611f4957611fea91611f72565b5050600090565b91908201809211611f4957565b60ff6006541660058110156105b5576001036120c05780156120c0576120ba91611fea6120b46120a98461277f565b919792939097612879565b9661206d565b93611f3c565b50600090600090600090565b6120de611635600954600a549061206d565b804711156120f057611fea9047611f3c565b50600090565b6006546001600160a01b039060081c81168015612066576020906024604051809481936370a0823160e01b835260048301527f0000000000000000000000000000000000000000000000000000000000000000165afa90811561218d5760009161215e575090565b90506020813d602011612185575b8161217960209383611d9b565b81010312610439575190565b3d915061216c565b6040513d6000823e3d90fd5b6001600160a01b03166000908152600e602052604090205480156120f05760018101809111611f495790565b51906001600160701b038216820361043957565b90816060910312610439576121ed816121c5565b9160406121fc602084016121c5565b92015163ffffffff811681036104395790565b60065460081c6001600160a01b0390811691821561238057818316916040928351926318160ddd60e01b84526020938481600481865afa90811561237557600091612348575b5094805193630240bc6b60e21b8552606085600481875afa801561233d57600095600091612307575b50949584600052600081528083600020549560248551809581936370a0823160e01b835260048301527f0000000000000000000000000000000000000000000000000000000000000000165afa9283156122fd57506000926122df57505090565b90809250813d83116122f6575b6121798183611d9b565b503d6122ec565b513d6000823e3d90fd5b905061232c91955060603d606011612336575b6123248183611d9b565b8101906121d9565b509490943861227e565b503d61231a565b82513d6000823e3d90fd5b90508481813d831161236e575b61235f8183611d9b565b81010312610439575138612255565b503d612355565b86513d6000823e3d90fd5b600092508291508190819081908190565b6001600160a01b031660009081526020819052604090205490565b60ff6006541660058110156105b5576003036123c857600b5490565b600090565b60ff6006541660058110156105b5576001036123c857611fea6009547f0000000000000000000000000000000000000000000000000000000000000000611f3c565b60ff6006541660058110156105b5576001036120c05780156120c05761244a90610d1f610d1961243d612683565b919093610d138386611f5f565b9061245482612ff6565b50506124608184611f3c565b91565b60008051602061358683398151915260028154146124815760029055565b604051633ee5aeb560e01b8152600490fd5b906001600160a01b03337f0000000000000000000000000000000000000000000000000000000000000000821614158061253c575b61252b578216801561251957600a549283156116c757836124ed916000600a55613178565b7f0f58cb6262d88971b87878468debb7bc81f1714be597710e16a9fb84c66ff7b56020604051858152a2565b60405163d92e233d60e01b8152600490fd5b6040516282b42960e81b8152600490fd5b50807f0000000000000000000000000000000000000000000000000000000000000000163314156124c8565b9081602091031261043957516001600160a01b03811681036104395790565b60065460081c6001600160a01b039081169190821561267a57604051630240bc6b60e21b815290606082600481875afa93841561218d5760009260009561264b575b5090602060049260405193848092630dfe168160e01b82525afa91821561218d5760009261261a575b5016300361260a576001600160701b03908116921690565b6001600160701b03928316921690565b61263d91925060203d602011612644575b6126358183611d9b565b810190612568565b90386125f2565b503d61262b565b6004929195506020935061266d9060603d606011612336576123248183611d9b565b50939093959192506125c9565b50600091508190565b6126b06009547f00000000000000000000000000000000000000000000000000000000000000009061206d565b90611fea6126c36007546008549061206d565b7f00000000000000000000000000000000000000000000000000000000000000009061206d565b906001600160a01b037f00000000000000000000000000000000000000000000000000000000000000008116330361252b5760ff6006541660058110156105b557600303610513578216801561251957600b549283156116c75783612753916000600b55613178565b7fd046302bdc39599e60a5981e59227dcd1c643f512f56f2e984390c3ac6eadedb6020604051858152a2565b906127ac6009547f0000000000000000000000000000000000000000000000000000000000000000611f3c565b918215612867576127c76127bf82612ff6565b505082611f3c565b928084116127e3575091905b6127dc83612ff6565b9091509091565b9250506128026127f283613452565b6126ac612710850915159061206d565b91825b612825575b5061281f61281783612ff6565b505083611f3c565b906127d3565b918261283361281783612ff6565b111561286157600019810190811161284c579182612805565b60246000634e487b7160e01b81526011600452fd5b9161280a565b60405163c83ba27d60e01b8152600490fd5b6128858160095461206d565b7f0000000000000000000000000000000000000000000000000000000000000000146128d0576128ca610d1f611fea926128bd612683565b939091610d138584611f5f565b90611f72565b5060075490565b60ff6006541660058110156105b5576001148061294b575b80612914575b806128fd5790565b50600c5462278d008101809111611f495742101590565b507f000000000000000000000000000000000000000000000000000000000000000062ed4e008101809111611f49574210156128f5565b50600b5415156128ef565b6001600160a01b038116939260009290919085158015612e2e575b8015612e17575b6105805734156105665761298b3461277f565b9892809592949195158015612e0f575b61056657600954916129ad868461206d565b9a7f000000000000000000000000000000000000000000000000000000000000000098896129da89612879565b9d14612e05575b8c158015612dfa575b610501578c1061050157612a4f8c60008051602061356683398151915296612a158a6101009861206d565b600955612a248b600a5461206d565b600a55612a3384600b5461206d565b600b5542600c55612a4682600754611f3c565b6007553061302d565b858a52600e6020524360408b2055612a678334611f3c565b918280612dea575b5050600954976007549760405194855260208501526040840152606083015260808201528960a08201528560c08201528460e0820152a282821090811591612de1575b50612abc57505050565b60065460ff81169260058410156105255760018403610513578203610501576002809160ff19161792836006556000805160206135268339815191528580a3612b036131fb565b156104ef57600854916040516370a0823160e01b815260018060a01b038260081c16600482015260208160248160018060a01b037f0000000000000000000000000000000000000000000000000000000000000000165afa9081156104465784908692612dab575b509091612b85919060081c6001600160a01b03163061302d565b7f00000000000000000000000000000000000000000000000000000000000000006001600160a01b03163b156104b557604051630d0e30db60e41b81528481600481867f00000000000000000000000000000000000000000000000000000000000000006001600160a01b03165af1801561044657612d98575b5060065460405163a9059cbb60e01b815260089190911c6001600160a01b039081166004830152602482018490526020908290604490829089907f0000000000000000000000000000000000000000000000000000000000000000165af1908115610446578591612d5d575b5015610451576006546040516335313c2160e11b815261dead6004820152929060209084906024908290899060081c6001600160a01b03165af1928315610446578593612d29575b50846008558460095560065493600360ff86169560ff191617948560065560058110156103f957916000805160206135468339815191529593916003608096946000805160206135268339815191526040519a80a3875260208701526040860152606085015260081c6001600160a01b031692a2565b9092506020813d602011612d55575b81612d4560209383611d9b565b8101031261043957519138612cb3565b3d9150612d38565b90506020813d602011612d90575b81612d7860209383611d9b565b81010312610496575180151581036104965738612c6b565b3d9150612d6b565b612da490949194611d72565b9238612bff565b9150506020813d602011612dd9575b81612dc760209383611d9b565b81010312610496575183612b85612b6b565b3d9150612dba565b90501538612ab2565b612df391613178565b3882612a6f565b506007548d116129ea565b6007549c506129e1565b50841561299b565b5060065460081c6001600160a01b03168614612978565b50308614612971565b60065460081c6001600160a01b0390811690811561206657604080516318160ddd60e01b815290926020918281600481855afa908115612f8c57600091612f97575b50612f54578351630240bc6b60e21b8152606081600481855afa908115612f8c57600090600092612f69575b506001600160701b039081161580159290612f5d575b5050612f5457612eca81612391565b612f5457819060248551809581936370a0823160e01b835260048301527f0000000000000000000000000000000000000000000000000000000000000000165afa9283156122fd5750600092612f26575b50506123c857600190565b90809250813d8311612f4d575b612f3d8183611d9b565b8101031261043957513880612f1b565b503d612f33565b50505050600090565b16151590503880612ebb565b9050612f84915060603d606011612336576123248183611d9b565b509038612ea5565b85513d6000823e3d90fd5b90508281813d8311612fbd575b612fae8183611d9b565b81010312610439575138612e79565b503d612fa4565b908015612fe357612fdb6001916000198401611f72565b019015150290565b634e487b7160005260126020526024601cfd5b80156120c05780612710606461300e613018946134bc565b920915159061206d565b90613022826133d7565b90611fea8284611f3c565b916001600160a01b0380841692831561315f57169283156131465760ff600654166005811015806105b557600182148015613139575b156130ff57505030831480156130f6575b156110f5575b600090838252816020526040822054908382106130d9575091604082827fddf252ad1be2c89b69c2b068fc378daa952ba7f163c4a11628f55a4df523b3ef958760209652828652038282205586815220818154019055604051908152a3565b6119ca8460405193849363391434e360e21b8552600485016133b9565b50308414613074565b6105b557600281036131195750308303610513575b61307a565b60030361307a5730840361311457604051634e46966960e11b8152600490fd5b5050600060048214613063565b60405163ec442f0560e01b815260006004820152602490fd5b604051634b637e8f60e11b815260006004820152602490fd5b8147106131dc57604051602081016001600160401b03811182821017611d8557604052600080809481948280955260018060a01b03165af1156131b85750565b3d156131ca57604051903d90823e3d90fd5b60405163d6bda27560e01b8152600490fd5b60405163cf47918160e01b815247600482015260248101839052604490fd5b60065460081c6001600160a01b03908116908115612066576040908151926318160ddd60e01b84526020938481600481855afa9081156133815760009161338c575b50612f545761324b81612391565b612f54578251630240bc6b60e21b815290606082600481845afa94851561338157600092600096613359575b508451630dfe168160e01b8152908082600481865afa91821561237557600092613337575b50806004929387519384809263d21220a760e01b82525afa9586156122fd5750600095613318575b5050821630149081613305575b506132fd5716301490816132ea575b506123c857600190565b6001600160701b031615159050386132e0565b505050600090565b6001600160701b031615159050386132d1565b61332f929550803d10612644576126358183611d9b565b9238806132c4565b600492506133528291823d8411612644576126358183611d9b565b925061329c565b90955061337691925060603d606011612336576123248183611d9b565b509190919438613277565b84513d6000823e3d90fd5b90508481813d83116133b2575b6133a38183611d9b565b8101031261043957513861323d565b503d613399565b604091949392606082019560018060a01b0316825260208201520152565b600019601e8209601e820290818082109103908082039114613449578060641115613436576064601e7f5c28f5c28f5c28f5c28f5c28f5c28f5c28f5c28f5c28f5c28f5c28f5c28f5c29940990828211900360fe1b910360021c170290565b634e487b7160005260116020526024601cfd5b50606491500490565b612710600019818309818302918280831092039180830392146134b1576126ac9082821115613436577fa902ffe58553adaa902ffe58553adaa902ffe58553adaa902ffe58553adaa903940990828211900360fe1b910360021c170290565b50506126ac91500490565b60001960648209606482029081808210910390808203911461351b57612710818111156134365760647fbc01a36e2eb1c432ca57a786c226809d495182a9930be0ded288ce703afb7e91940990828211900360fc1b910360041c170290565b506127109150049056fe3a779de46631dd65116ae538600f1bc3c338200c6aef638429b5de43301c28f771aa8c3702dbbc54247a4e6446450e64a46250dd72707a247ddb01d72eaef4456ff5f8cb3bbdee941e910591101be7dcb3bd64213bbc4ac9e994c9d7b0ef74cd9b779b17422d0df92223018b32b4d1fa46e071723d6817e2486d003becc55f00a26469706673582212202fb7b0c0197a338555cd2e4d173ffafaf35e254a83d5df4b86607803a2d5371864736f6c63430008180033",
  "linkReferences": {},
  "deployedLinkReferences": {}
}