{
  "_format": "hh-sol-artifact-1",
  "contractName": "LaunchTokenWhitelistDeployer",
  "sourceName": "contracts/LaunchTokenWhitelistDeployer.sol",
  "abi": [
    {
      "inputs": [],
      "stateMutability": "nonpayable",
      "type": "constructor"
    },
    {
      "inputs": [],
      "name": "Unauthorized",
      "type": "error"
    },
    {
      "inputs": [
        {
          "components": [
            {
              "internalType": "string",
              "name": "name",
              "type": "string"
            },
            {
              "internalType": "string",
              "name": "symbol",
              "type": "string"
            },
            {
              "internalType": "string",
              "name": "metadataURI",
              "type": "string"
            },
            {
              "internalType": "address",
              "name": "creator",
              "type": "address"
            },
            {
              "internalType": "address",
              "name": "factory",
              "type": "address"
            },
            {
              "internalType": "address",
              "name": "protocolFeeRecipient",
              "type": "address"
            },
            {
              "internalType": "address",
              "name": "router",
              "type": "address"
            },
            {
              "internalType": "uint256",
              "name": "graduationQuoteReserve",
              "type": "uint256"
            },
            {
              "internalType": "uint256",
              "name": "whitelistThreshold",
              "type": "uint256"
            },
            {
              "internalType": "uint256",
              "name": "whitelistSlotSize",
              "type": "uint256"
            },
            {
              "internalType": "uint256",
              "name": "whitelistOpensAt",
              "type": "uint256"
            },
            {
              "internalType": "address[]",
              "name": "whitelistAddresses",
              "type": "address[]"
            },
            {
              "internalType": "uint8",
              "name": "launchModeId",
              "type": "uint8"
            },
            {
              "internalType": "bytes32",
              "name": "salt",
              "type": "bytes32"
            }
          ],
          "internalType": "struct LaunchTokenWhitelistDeployer.DeployConfig",
          "name": "config",
          "type": "tuple"
        }
      ],
      "name": "deploy",
      "outputs": [
        {
          "internalType": "address",
          "name": "token",
          "type": "address"
        }
      ],
      "stateMutability": "nonpayable",
      "type": "function"
    },
    {
      "inputs": [],
      "name": "recoverUnexpectedNative",
      "outputs": [],
      "stateMutability": "nonpayable",
      "type": "function"
    }
  ],
  "bytecode": "0x6080806040523461002857600080546001600160a01b03191633179055615fed908161002e8239f35b600080fdfe608060405260043610156200001357600080fd5b60003560e01c806301569779146200047c57636baca604146200003557600080fd5b34620004665760031960203682011262000466576001600160401b036004351162000466576004356004016101c06004353603928301126200046657600435608401906001600160a01b036200008b83620004a9565b1633036200046b57620000c891620000a48280620004be565b620000b860246004949394350185620004be565b95909460446004350190620004be565b929091620000e6620000df606460043501620004a9565b92620004a9565b92620000f760a460043501620004a9565b946200010860c460043501620004a9565b9661016460043501359a602219018b121562000466576001600160401b03600480358d01013511620004665760048b813501013560051b360360248c600435010113620004665761018460043501359860ff8a168a0362000466576040519a6001600160401b036101a08d01908111908d11176200042c576200019e620001a893620001b5976101a08f01604052369162000519565b8c52369162000519565b60208a0152369162000519565b60408701526001600160a01b039081166060870152908116608086015290811660a08501521660c08301526004803560e481013560e08501526101048101356101008501526101248101356101208501526101448101356101408501526200022891908501013560051b602001620004f3565b600480358501908101358083526020830195913660059290921b016024011162000466576024816004350101945b6004803583019081013560051b0160240186106200044257610160850183905260ff841661018086015260405185906001600160401b03615a178201908111908211176200042c57615a17620005a182396020615a1782015262000313620002f6620002d984516101a06020615a17870101526101c0615a17860101906200055e565b6020850151615a178501808303601f19016040909101526200055e565b6040840151615a178401808303601f19016060909101526200055e565b60608301516001600160a01b039081166080615a17850181810192909252850151821660a080830191909152850151821660c08083019190915285015190911660e08083019190915284015161010080830191909152840151610120808301919091528401516101408083019190915284015161016080830191909152840151818303601f1901610180909201919091528051808352602092830194929091019060005b8181106200040c5750505061018060ff910151166101a0615a1783010152806101a460043501359203906000f5801562000400576040516001600160a01b039091168152602090f35b6040513d6000823e3d90fd5b82516001600160a01b0316865260209586019590920191600101620003b7565b634e487b7160e01b600052604160045260246000fd5b85356001600160a01b03811690036200046657853581526020958601950162000256565b600080fd5b6040516282b42960e81b8152600490fd5b3462000466576000366003190112620004665760008080804760018060a01b038254165af1156200046b57005b356001600160a01b0381168103620004665790565b903590601e19813603018212156200046657018035906001600160401b03821162000466576020019181360383136200046657565b6040519190601f01601f191682016001600160401b038111838210176200042c57604052565b9192916001600160401b0382116200042c5762000540601f8301601f1916602001620004f3565b93828552828201116200046657816000926020928387013784010152565b919082519283825260005b8481106200058b575050826000602080949584010152601f8019910116010190565b6020818301810151848301820152016200056956fe610260806040523462000bc95762005a17908138038092620000228284620010bf565b8239602081838101031262000bc95780516001600160401b03811162000bc9576101a0818301848401031262000bc957604051916101a083016001600160401b0381118482101762000da157604052808201516001600160401b03811162000bc95762000097908583019084840101620010e3565b8352808201602001516001600160401b03811162000bc957620000c2908583019084840101620010e3565b6020840152808201604001516001600160401b03811162000bc957620000f0908583019084840101620010e3565b60408401526200010560608383010162001159565b60608401526200011a60808383010162001159565b60808401526200012f60a08383010162001159565b60a08401526200014460c08383010162001159565b60c084015280820160e0818101519085015261010080820151908501526101208082015190850152610140808201519085015261016001516001600160401b03811162000bc957848201601f828585010101121562000bc9578183018101516001600160401b03811162000da15760405191620001c860208360051b0184620010bf565b8183526020830196840160208360051b838888010101011162000bc9576020818686010101965b60208360051b8388880101010188106200109f578661018087878761016085015201015160ff8116810362000bc95761018082018190528151602083015160408401516060850151608086015160a087015160c088015160e0890151875195976001600160a01b039586169791969286169593841694909316929091906001600160401b03821162000da15760035490600182811c9216801562001094575b602083101462000d805781601f84931162001022575b50602090601f831160011462000f935760009262000f87575b50508160011b916000199060031b1c1916176003555b8051906001600160401b03821162000da15760045490600182811c9216801562000f7c575b602083101462000d805781601f84931162000f0a575b50602090601f831160011462000e7b5760009262000e6f575b50508160011b916000199060031b1c1916176004555b60017f9b779b17422d0df92223018b32b4d1fa46e071723d6817e2486d003becc55f0055831562000e5d5762000373846200125d565b94851562000e5d578015801562000e54575b801562000e4b575b801562000e42575b620007b75760a05260c05260e05261010081905260405163c45a015560e01b8152602081600481855afa90811562000bd75760009162000df9575b50610120526040516315ab88c960e31b815290602090829060049082905afa90811562000bd75760009162000db7575b506101405261016052610180526a5889e9f3e4c6e14f4000006101a052426101c0819052600c558051906001600160401b03821162000da157600554600181811c9116801562000d96575b602082101462000d8057601f811162000d36575b50602090601f831160011462000cc25760ff9392916000918362000cb6575b50508160011b916000199060031b1c1916176005555b16608052301562000c9d5760ff6006541660058110158062000c795760018214801562000c8f575b1562000c37575b50506002546b033b2e3c9fd0803ce800000081018111620009f3576b033b2e3c9fd0803ce80000000160025530600052600060205260406000206b033b2e3c9fd0803ce800000081540190556040516b033b2e3c9fd0803ce8000000815260007fddf252ad1be2c89b69c2b068fc378daa952ba7f163c4a11628f55a4df523b3ef60203093a36b0295be96e6406697200000006007556aa56fa5b99019a5c8000000600855610120516101405160405163e6a4390560e01b8152600092909160209183916001600160a01b039182169183918291620005a891163060048401620012f9565b03915afa91821562000c2b57809262000be3575b50506001600160a01b0381161562000b34575b600680546001600160a81b03191660089290921b610100600160a81b03169190911760049081179091556040519060007f3a779de46631dd65116ae538600f1bc3c338200c6aef638429b5de43301c28f78180a3610100820151673782dace9d900000811490811562000b21575b811562000b0e575b501562000aff575061010081015160e0820151111562000aed5761012081015167016345785d8a0000811490811562000ada575b811562000ac7575b811562000ab4575b501562000aa25761010081015161012082015190811562000a8c570662000a6d576101008101519061012081015190811562000a8c578183041580801562000a7f575b62000a6d576101608201515190838504821091821562000a4b575b505062000a39576101408101518062000a32575042915b428310801562000a1b575b62000a09576201518083018311620009f3576201518083016101e05261010082015161020052610120820151610220528084046102405260005b6101608301518051821015620007c957600582901b01602001516001600160a01b0316908115620007b7578160005260148060205260ff60406000205416620007a55760019260005260205260406000208260ff198254161790550162000743565b604051630fb0efa560e41b8152600490fd5b60405163d92e233d60e01b8152600490fd5b62000836847fc32c90bcebb1b5638e92a2a57d7cfd39596fa72768c7c95f945d9ed03baffac560a0868a8a61010086015192610120870151926101e05193604051958652602086015204604084015260608301526080820152a1608001516001600160a01b03166200116e565b15620009e1576040516147039081620013148239608051816124e2015260a051818181611c43015281816122ed01526136c2015260c0518181816109b801528181610e8701528181611716015281816120da015261320e015260e0518181816117a301528181611ad70152818161315b01526145da015261010051816106da01526101205181610f180152610140518181816107fe015281816127c201528181612e2d01528181613dd501528181613e180152613e85015261016051818181611ba70152818161258f015281816129a601528181612add01528181613767015281816138660152613a5101526101805181818161076a015261335501526101a051818181611c88015261338f01526101c051818181610ca101526138f601526101e0518181816108b001528181610dc701528181611073015281816110b0015281816129250152818161348701526134d7015261020051818181610902015281816133e30152818161361201526142bb01526102205181818161092801528181611892015261352a01526102405181818161094e0152818161100c0152818161356701526143100152f35b604051635bb6e57160e11b8152600490fd5b634e487b7160e01b600052601160045260246000fd5b6040516305c742e960e11b8152600490fd5b506203f4804201804211620009f357831162000709565b91620006fe565b60405163529cc2c560e01b8152600490fd5b9091506003848604029184860483046003141715620009f357118480620006e7565b604051635ca83dcb60e11b8152600490fd5b50605083850411620006cc565b634e487b7160e01b600052601260045260246000fd5b604051633d8f86f560e21b8152600490fd5b670de0b6b3a76400009150148262000689565b6706f05b59d3b200008114915062000681565b6702c68af0bb1400008114915062000679565b60405163230bad2760e11b8152600490fd5b63230bad2760e11b8152600490fd5b676f05b59d3b2000009150148362000645565b6753444835ec580000811491506200063d565b5061012051610140516040516364e329cb60e11b81529160209183916001600160a01b03908116918391600091839162000b7491163060048401620012f9565b03925af1801562000bd75760009062000b90575b9050620005cf565b506020813d60201162000bce575b8162000bad60209383620010bf565b8101031262000bc95762000bc360049162001159565b62000b88565b600080fd5b3d915062000b9e565b6040513d6000823e3d90fd5b9091506020823d60201162000c22575b8162000c0260209383620010bf565b8101031262000c1f575062000c179062001159565b8280620005bc565b80fd5b3d915062000bf3565b604051903d90823e3d90fd5b62000c79576002810362000c575760405163baf3f0f760e01b8152600490fd5b60031462000c67578180620004c3565b604051634e46966960e11b8152600490fd5b634e487b7160e01b600052602160045260246000fd5b5050600060048214620004bc565b60405163ec442f0560e01b815260006004820152602490fd5b0151905085806200047e565b90600560005260206000209160005b601f198516811062000d1d575091839160019360ff9695601f1981161062000d03575b505050811b0160055562000494565b015160001960f88460031b161c1916905585808062000cf4565b9192602060018192868501518155019401920162000cd1565b60056000526020600020601f840160051c81016020851062000d78575b601f830160051c8201811062000d6b5750506200045f565b6000815560010162000d53565b508062000d53565b634e487b7160e01b600052602260045260246000fd5b90607f16906200044b565b634e487b7160e01b600052604160045260246000fd5b90506020813d60201162000df0575b8162000dd560209383620010bf565b8101031262000bc95762000de99062001159565b8662000400565b3d915062000dc6565b90506020813d60201162000e39575b8162000e1760209383620010bf565b8101031262000bc95760049162000e3060209262001159565b915091620003d0565b3d915062000e08565b50831562000395565b5082156200038d565b50811562000385565b604051630d956e1760e21b8152600490fd5b015190508a8062000327565b6004600090815293507f8a35acfbc15ff81a39ae7d344fd709f28e8600b4aa8c65c6b64bfe7fe36bd19b91905b601f198416851062000eee576001945083601f1981161062000ed4575b505050811b016004556200033d565b015160001960f88460031b161c191690558a808062000ec5565b8181015183556020948501946001909301929091019062000ea8565b60046000529091507f8a35acfbc15ff81a39ae7d344fd709f28e8600b4aa8c65c6b64bfe7fe36bd19b601f840160051c81016020851062000f74575b90849392915b601f830160051c8201811062000f645750506200030e565b6000815585945060010162000f4c565b508062000f46565b91607f1691620002f8565b015190508b80620002bd565b6003600090815293507fc2575a0e9e593c00f959f8c92f12db2869c3395a3b0502d05e2516446f71f85b91905b601f198416851062001006576001945083601f1981161062000fec575b505050811b01600355620002d3565b015160001960f88460031b161c191690558b808062000fdd565b8181015183556020948501946001909301929091019062000fc0565b60036000529091507fc2575a0e9e593c00f959f8c92f12db2869c3395a3b0502d05e2516446f71f85b601f840160051c8101602085106200108c575b90849392915b601f830160051c820181106200107c575050620002a4565b6000815585945060010162001064565b50806200105e565b91607f16916200028e565b906020808093620010b08b62001159565b815201980197909150620001ef565b601f909101601f19168101906001600160401b0382119082101762000da157604052565b919080601f8401121562000bc95782516001600160401b03811162000da157602090604051926200111e83601f19601f8501160185620010bf565b81845282828701011162000bc95760005b8181106200114557508260009394955001015290565b85810183015184820184015282016200112f565b51906001600160a01b038216820362000bc957565b6001600160a01b03908082169033821462001255573b156200124e57600260ff60805116146200121f57600c60ff6080511614620011ad575050600090565b602060049160405192838092631b5c66b560e31b82525afa90811562000bd757600091620011dd575b5016331490565b90506020813d60201162001216575b81620011fb60209383620010bf565b8101031262000bc9576200120f9062001159565b38620011d6565b3d9150620011ec565b6020600491604051928380926337eb7e0160e01b82525afa90811562000bd757600091620011dd575016331490565b5050600090565b505050600190565b6afdf98fad74e0871740000060001981830981830291828083109203918083039214620012e4576b0295be96e6406697200000009082821115620012d1577fab5d02869c14ad85338e6a157058d28e658611776aff168d01c445d3a8cc9189940990828211900360e31b9103601d1c170290565b634e487b7160005260116020526024601cfd5b50506b0295be96e64066972000000091500490565b6001600160a01b039182168152911660208201526040019056fe6080604081815260049182361015610044575b505050361561002057600080fd5b61002861311f565b610030612a4c565b60016000805160206146ae83398151915255005b600092833560e01c9182630227591d1461231c5750816302d05d3f146122d857816303dffb5a146122b557816303ee438c1461221257816306b51d481461162457816306fdde0314612139578163079790031461211a578163086e5ca0146120a7578163095ea7b314611ffd5781630b42aae014611fe157816315a0aa0814611f82578163173d5e4214611b6457816318160ddd14611f635781631c2945b214611f255781631cd97db514611efe5781631d924c7714611ee057816323b872dd14611d9457816324e69d7c14611d6d57816325cacd0c14611d4957816327bfa19614611d0b578163292e5b0014611ce65781632a025a8614611cc7578163313ce56714611cab578163343ee3b714611c70578163351fee4614611c2157816337488a4214611c0257816337b28bfd14611bca5781633993152714611b8f5781633af32abf146112d05781633cfe0ade14611b69578163403287a914610a9b57816340faa03c14611b64578163430437fb14611b4857816345b2af8c14611b25578163463bb800146111885781634815327914611b045781634a7d036914611ab55781634e6fd6c414611a9857816352fb81bb14611a5a57816353866006146119b2578163571b1f8a14611994578163581b51f3146119775781635878f8ce1461195a57816358ebc06e1461184d5781636095a62014611831578163644537cb1461180b57816364a5dc2b146117d257816364df049e1461178e5781636723064e146116ed5781636887c8481461169a57816368bc13f51461167e5781636a534fcb146116455781636a740d3114610f635781636f28507c146116295781636f71f0171461162457816370a08231146115fe578163722eb97a146115e257816374452ec3146115c35781637531abe31461154957816379e4698714610eb65781637b4126451461152657816385cac23714610f8457816386d4ff1d146114d75781638925d36e146114b8578163902d55a5146114925781639111f13d1461146c57816391e7cd341461144d5781639454d7201461143157816394c2c24f1461141557816395d89b411461133157816396f062411461130e5781639b19251a146112d05781639d0ee65b146112b45781639ddf7ad31461128d5781639e5f358a14611270578163a202c86d14611254578163a36cdf99146111e0578163a8aa1b31146111b3578163a8dccd021461118d578163a8ea444514611188578163a9059cbb1461111c578163aadade7a146110fd578163aecf6a7c14610fad578163af1af3b914610ce7578163b0cc792d14610f89578163b37dd69014610f84578163b5f1c1ff14610f68578163b82020e814610f63578163b88202a914610f47578163b8d8fbb414610f03578163be37822814610ee7578163c19d93fb14610ebb578163c228987814610eb6578163c45a015514610e72578163c57da02914610e3a578163cac01cbc14610e1f578163cc3cbd2a14610e03578163cc64aade14610d06578163ce228ad214610ce7578163cedf7c1914610cc4578163cf09e0d014610c89578163d119e96514610c6b578163d79875eb14610aa0578163d81d946f14610a9b578163d96a094a14610a1e578163d9d5a9f314610997578163db9b541314610893578163dd62ed3e1461084a578163e1a452181461082d578163eb6d3a11146107e9578163ed1cc3a8146107ca578163f3bf10ed146107ab578163f48f6f1d1461078d578163f559662614610752578163f73aaf3c1461072f578163f7ce612a14610709578163f887ea40146106c5578163fb3dd95f1461068f578163fb9a1d8d1461059d575063fd897e0b1461057c5780610012565b34610599578160031936011261059957602090600d549051908152f35b5080fd5b8383346105995781600319360112610599576105b761311f565b60ff60135416158015610679575b8015610664575b61065557602092506012549133815260168452818120600160ff198254161790556105f983600d54612506565b600d55338152600e8452814391205561061382333061412f565b80518281527f648b77675d9290f9aa4f34a5cd8b6ff268de43a375ce9f853f027bb3699ea84e843392a260016000805160206146ae8339815191525551908152f35b51630f6ff1d560e31b81529050fd5b50338252601660205260ff81832054166105cc565b50338252601560205260ff8183205416156105c5565b8284346106c25760203660031901126106c257506106b06106be92356129f8565b90939192519384938461247a565b0390f35b80fd5b505034610599578160031936011261059957517f00000000000000000000000000000000000000000000000000000000000000006001600160a01b03168152602090f35b505034610599578160031936011261059957602090516aa56fa5b99019a5c80000008152f35b505034610599578160031936011261059957602090516702c68af0bb1400008152f35b505034610599578160031936011261059957602090517f00000000000000000000000000000000000000000000000000000000000000008152f35b5050346105995781600319360112610599576020905162278d008152f35b5050346105995781600319360112610599576020906012549051908152f35b505034610599578160031936011261059957602090600f549051908152f35b505034610599578160031936011261059957517f00000000000000000000000000000000000000000000000000000000000000006001600160a01b03168152602090f35b505034610599578160031936011261059957602090516127108152f35b505034610599578060031936011261059957806020926108686123fb565b610870612411565b6001600160a01b0391821683526001865283832091168252845220549051908152f35b8284346106c257806003193601126106c2576108ad6128d1565b917f00000000000000000000000000000000000000000000000000000000000000006201517f1981019281841161098457506101209450600f5490601054926012549460ff82519716875260208701528501527f000000000000000000000000000000000000000000000000000000000000000060608501527f000000000000000000000000000000000000000000000000000000000000000060808501527f000000000000000000000000000000000000000000000000000000000000000060a085015260c084015260e0830152610100820152f35b634e487b7160e01b815260118652602490fd5b90506020366003190112610a1a576109ad6123fb565b916109b661311f565b7f00000000000000000000000000000000000000000000000000000000000000006001600160a01b03163303610a0d57836109f8846109f36133b4565b6134ae565b60016000805160206146ae8339815191525580f35b51635b2fb5b360e11b8152fd5b8280fd5b828460203660031901126106c257610a3461311f565b610a3c6133b4565b60ff60065416906005821015610a885750600103610a7b57610a626020923533336139fa565b9060016000805160206146ae8339815191525551908152f35b5163baf3f0f760e01b8152fd5b634e487b7160e01b815260218452602490fd5b612442565b91905034610a1a5780600319360112610a1a57813592610abe61311f565b610ac66133b4565b60ff600654166005811015610c5857600103610c4a578315610c3c578190338152600e60205220544314610c2f57610b24610b1e610b0261334d565b610b1887610b1283859695612529565b9261264d565b906140c6565b90612506565b9283158015610c24575b610c1657610b48610b3e856140f8565b9187939193612506565b948515610c08576024358610610c085750602095610bed7feebdf396b2ce33c6bf51df33b76958425b7430bd1c74fbef7b585106affddd1c938793610b8e87303361412f565b610b9a8760075461264d565b600755610ba984600954612506565b600955610bb882600a5461264d565b600a55610bc781600b5461264d565b600b5542600c55610bd88533613977565b60095490600754928951968796339a886129ca565b0390a260016000805160206146ae8339815191525551908152f35b8451638199f5f360e01b8152fd5b5051638199f5f360e01b8152fd5b506009548411610b2e565b51635aabee0f60e11b8152fd5b5051631f2a200560e01b8152fd5b505163baf3f0f760e01b8152fd5b634e487b7160e01b825260218452602482fd5b505034610599578160031936011261059957602090516203f4808152f35b505034610599578160031936011261059957602090517f00000000000000000000000000000000000000000000000000000000000000008152f35b505034610599578160031936011261059957602090516753444835ec5800008152f35b505034610599578160031936011261059957602090600a549051908152f35b83833461059957602036600319011261059957610d216123fb565b916013549260ff8460081c16938415610d8e575b506020945083610d70575b83610d50575b5050519015158152f35b6001600160a01b03168152601784528190205460ff161591508380610d46565b6001600160a01b0381168252601585528282205460ff169350610d40565b90935060ff600654166005811015610df057602095149081610dc5575b81610db9575b509285610d35565b60ff9150161585610db1565b7f00000000000000000000000000000000000000000000000000000000000000004210159150610dab565b634e487b7160e01b835260218652602483fd5b5050346105995781600319360112610599576020905160468152f35b50503461059957816003193601126105995751908152602090f35b5050346105995781600319360112610599578160c09282519281845281602085015283015280606083015280608083015260a0820152f35b505034610599578160031936011261059957517f00000000000000000000000000000000000000000000000000000000000000006001600160a01b03168152602090f35b6124ac565b83833461059957816003193601126105995760ff600654169051916005821015610a8857602083838152f35b50503461059957816003193601126105995760209051601e8152f35b505034610599578160031936011261059957517f00000000000000000000000000000000000000000000000000000000000000006001600160a01b03168152602090f35b50503461059957816003193601126105995760209051600b8152f35b612490565b50503461059957816003193601126105995760209051600c8152f35b6124c8565b505034610599578160031936011261059957602090610fa6612988565b9051908152f35b83833461059957602036600319011261059957610fc86123fb565b9160ff6006541660058110156110ea578414928361109b575b6020945083611071575b83611053575b83611033575b505081611007575b519015158152f35b600f547f0000000000000000000000000000000000000000000000000000000000000000119150610fff565b6001600160a01b03168152601584528190205460ff161591508380610ff7565b6001600160a01b0381168252601485528282205460ff169350610ff1565b7f000000000000000000000000000000000000000000000000000000000000000042109350610feb565b92506201518042018042116110d757602094507f0000000000000000000000000000000000000000000000000000000000000000111592610fe1565b634e487b7160e01b825260118552602482fd5b634e487b7160e01b825260218552602482fd5b505034610599578160031936011261059957602090600b549051908152f35b905034610a1a5781600319360112610a1a576111366123fb565b9260ff6006541690600582101561117557506003036111675750611160602092602435903361412f565b5160018152f35b90516377d87fb560e11b8152fd5b634e487b7160e01b815260218352602490fd5b61245e565b505034610599578160031936011261059957516714adf4b7320334b9601d1b8152602090f35b505034610599578160031936011261059957600654905160089190911c6001600160a01b03168152602090f35b8284346106c257806003193601126106c257506111fb61395c565b908115611245576020925061121282600a5461264d565b600a5580518281527fa1e4c790cc8a017f9b597b92150a8a880324350496397bbb8fd774f571e710df843392a251908152f35b516312d37ee560e31b81529050fd5b5050346105995781600319360112610599576020905160098152f35b505034610599578160031936011261059957602090610fa6612967565b50503461059957816003193601126105995760209060ff6112ac6128d1565b915191168152f35b5050346105995781600319360112610599576020905160068152f35b5050346105995760203660031901126105995760209160ff9082906001600160a01b036112fb6123fb565b1681526014855220541690519015158152f35b50503461059957816003193601126105995760209051676f05b59d3b2000008152f35b83833461059957816003193601126105995780519180938054916001908360011c926001851694851561140b575b60209586861081146113f8578589529081156113d45750600114611399575b6106be878761138f828c0383612367565b519182918261238a565b9080949750528583205b8284106113c157505050826106be9461138f9282010194868061137e565b80548685018801529286019281016113a3565b60ff19168887015250505050151560051b830101925061138f826106be868061137e565b634e487b7160e01b845260228352602484fd5b93607f169361135f565b5050346105995781600319360112610599576020905160508152f35b50503461059957816003193601126105995760209051600a8152f35b5050346105995781600319360112610599576020906009549051908152f35b5050346105995781600319360112610599576020906114896138b6565b90519015158152f35b50503461059957816003193601126105995751676765c793fa10079d601b1b8152602090f35b5050346105995781600319360112610599576020906007549051908152f35b5050346105995760203660031901126105995760209181906001600160a01b036114ff6123fb565b168152600e8452205490811591821561151c575b50519015158152f35b4311915038611513565b50503461059957816003193601126105995760209051673782dace9d9000008152f35b50503461059957602036600319011261059957906020916115686123fb565b9160ff6013541692836115a5575b83611585575050519015158152f35b6001600160a01b03168152601684528190205460ff161591503880610d46565b6001600160a01b0381168252601585528282205460ff169350611576565b505034610599578160031936011261059957602090600c549051908152f35b5050346105995781600319360112610599576020905160038152f35b50503461059957602036600319011261059957602090610fa661161f6123fb565b6128b6565b6123d3565b5050346105995781600319360112610599576020905160648152f35b905034610a1a576020366003190112610a1a5735916001600160a01b03831683036106c25750610a6260209261167961311f565b6136b7565b5050346105995781600319360112610599576020905160058152f35b50503461059957816003193601126105995760c0906116b7612728565b9495909381519660018060a01b03168752602087015260018060701b0380931690860152166060840152608083015260a0820152f35b905081600319360112610a1a576117026123fb565b9061170b61311f565b6001600160a01b03937f00000000000000000000000000000000000000000000000000000000000000008516330361177f576117456133b4565b60ff6006541690600582101561117557506001036117715750602092610a6291602435918116906139fa565b825163baf3f0f760e01b8152fd5b508251635b2fb5b360e11b8152fd5b505034610599578160031936011261059957517f00000000000000000000000000000000000000000000000000000000000000006001600160a01b03168152602090f35b905034610a1a576020366003190112610a1a5735916001600160a01b03831683036106c25750610a6260209261180661311f565b61314f565b50503461059957602036600319011261059957602090610fa661182c6123fb565b6126ac565b5050346105995781600319360112610599576020905160078152f35b83833461059957816003193601126105995761186761311f565b61186f6133b4565b60ff60135460081c16158015611944575b801561192f575b6119205760209250807f0000000000000000000000000000000000000000000000000000000000000000923381526017855220600160ff198254161790556118d182601154612506565b6011556118de8233613977565b80518281527feda835ea67193b5de1fbd871950998f0537eec03a9e40592414ba19a24b4325d843392a260016000805160206146ae8339815191525551908152f35b516319e1016760e01b81529050fd5b50338252601760205260ff8183205416611887565b50338252601560205260ff818320541615611880565b505034610599578160031936011261059957602090610fa661395c565b505034610599578160031936011261059957602090610fa6613935565b50503461059957816003193601126105995760209051620151808152f35b8383346105995781600319360112610599576119cc61311f565b6119d46138b6565b15611a4b57600b54918215611a3b5760209350600b556119f682600a5461264d565b600a5580518281527f6a0c33aa8c816cdfa77b389739210eadb9f9a653e441ee697d9a29d61a9884a1843392a260016000805160206146ae8339815191525551908152f35b81516312d37ee560e31b81528490fd5b51638a430e9f60e01b81529050fd5b5050346105995760203660031901126105995760209160ff9082906001600160a01b03611a856123fb565b1681526015855220541690519015158152f35b5050346105995781600319360112610599576020905161dead8152f35b505034610599578160031936011261059957602090611ad261311f565b610a627f00000000000000000000000000000000000000000000000000000000000000006001600160a01b031661314f565b8284346106c25760203660031901126106c257506106b06106be923561265a565b5050346105995781600319360112610599576020905167016345785d8a00008152f35b83346106c257806003193601126106c257611b616133b4565b80f35b612427565b505034610599578160031936011261059957602090516a5889e9f3e4c6e14f4000008152f35b505034610599578160031936011261059957602090517f00000000000000000000000000000000000000000000000000000000000000008152f35b5050346105995760203660031901126105995760209181906001600160a01b03611bf26123fb565b168152600e845220549051908152f35b5050346105995781600319360112610599576020906008549051908152f35b505034610599578160031936011261059957602090611c3e61311f565b610a627f00000000000000000000000000000000000000000000000000000000000000006001600160a01b03166136b7565b505034610599578160031936011261059957602090517f00000000000000000000000000000000000000000000000000000000000000008152f35b5050346105995781600319360112610599576020905160128152f35b5050346105995781600319360112610599576020906010549051908152f35b83806003193601126106c257611cfa61311f565b611d026133b4565b6109f8336134ae565b5050346105995760203660031901126105995760209160ff9082906001600160a01b03611d366123fb565b1681526016855220541690519015158152f35b50503461059957816003193601126105995760209060ff6013541690519015158152f35b50503461059957816003193601126105995760209060ff60135460081c1690519015158152f35b905082346106c25760603660031901126106c257611db06123fb565b611db8612411565b916044359360ff600654166005811015611ecd5760038103611e99575b506001600160a01b03831680835260016020908152878420338552905286832054916000198310611e0f575b60208861116089898961412f565b868310611e77578115611e60573315611e495750825260016020908152868320338452815291869020908590039055829061116087611e01565b8751634a1406b160e11b8152908101849052602490fd5b875163e602df0560e01b8152908101849052602490fd5b9050611e95868851938493637dc7a0d960e11b85523390850161428c565b0390fd5b60021480611ebb575b15611ead5786611dd5565b85516377d87fb560e11b8152fd5b506001600160a01b0383163014611ea2565b634e487b7160e01b835260218252602483fd5b5050346105995781600319360112610599576020905162ed4e008152f35b8284346106c257806003193601126106c25750611f19613255565b82519182526020820152f35b5050346105995760203660031901126105995760209160ff9082906001600160a01b03611f506123fb565b1681526017855220541690519015158152f35b5050346105995781600319360112610599576020906002549051908152f35b838334610599578160031936011261059957805191828201906001600160401b03821184831017611fce5750926106be938252825263188ccc4d60e21b6020830152519182918261238a565b634e487b7160e01b815260418552602490fd5b5050346105995781600319360112610599576020905160088152f35b905034610a1a5781600319360112610a1a576120176123fb565b602435903315612090576001600160a01b031691821561207957508083602095338152600187528181208582528752205582519081527f8c5be1e5ebec7d5bd14f71427d1e84f3dd0314c0f7b2291e5b200ac8c7c3b925843392a35160018152f35b8351634a1406b160e11b8152908101859052602490fd5b835163e602df0560e01b8152808401869052602490fd5b905034610a1a576020366003190112610a1a578035926001600160a01b039081851685036106c257506120d861311f565b7f000000000000000000000000000000000000000000000000000000000000000016330361210c5750610a6260209261314f565b9051635b2fb5b360e11b8152fd5b5050346105995781600319360112610599576020906011549051908152f35b91905034610a1a5782600319360112610a1a5780519183600354906001908260011c92600181168015612208575b60209586861082146121f557508488529081156121d35750600114612198575b6106be868661138f828b0383612367565b929550600383528583205b8284106121c057505050826106be9461138f928201019438612187565b80548685018801529286019281016121a3565b60ff191687860152505050151560051b830101925061138f826106be38612187565b634e487b7160e01b845260229052602483fd5b93607f1693612167565b91905034610a1a5782600319360112610a1a5780519183600554906001908260011c926001811680156122ab575b60209586861082146121f557508488529081156121d35750600114612270576106be868661138f828b0383612367565b929550600583528583205b82841061229857505050826106be9461138f928201019438612187565b805486850188015292860192810161227b565b93607f1693612240565b50503461059957816003193601126105995760209051670de0b6b3a76400008152f35b505034610599578160031936011261059957517f00000000000000000000000000000000000000000000000000000000000000006001600160a01b03168152602090f35b849034610599578160031936011261059957806706f05b59d3b2000060209252f35b6001600160401b03811161235157604052565b634e487b7160e01b600052604160045260246000fd5b601f909101601f19168101906001600160401b0382119082101761235157604052565b6020808252825181830181905290939260005b8281106123bf57505060409293506000838284010152601f8019910116010190565b81810186015184820160400152850161239d565b346123f65760003660031901126123f65760206123ee61255c565b604051908152f35b600080fd5b600435906001600160a01b03821682036123f657565b602435906001600160a01b03821682036123f657565b346123f65760003660031901126123f65760206123ee6125d3565b346123f65760003660031901126123f657602060405160028152f35b346123f65760003660031901126123f657602060405160048152f35b6040919493926060820195825260208201520152565b346123f65760003660031901126123f657602060405160038152f35b346123f65760003660031901126123f657602060405160018152f35b346123f65760003660031901126123f657602060405160ff7f0000000000000000000000000000000000000000000000000000000000000000168152f35b9190820391821161251357565b634e487b7160e01b600052601160045260246000fd5b8181029291811591840414171561251357565b8115612546570490565b634e487b7160e01b600052601260045260246000fd5b60ff6006541660058110156125bd576003146125b75760095461271090818102918183041490151715612513576125b4907f00000000000000000000000000000000000000000000000000000000000000009061253c565b90565b61271090565b634e487b7160e01b600052602160045260246000fd5b60ff6006541660058110156125bd57600314612614576125f161334d565b670de0b6b3a764000091828102928184041490151715612513576125b49161253c565b61261c613255565b90801561264657670de0b6b3a764000091828102928184041490151715612513576125b49161253c565b5050600090565b9190820180921161251357565b60ff6006541660058110156125bd576001036126a05780156126a05761269a916125b46126946126898461375e565b919792939097613858565b9661264d565b93612506565b50600090600090600090565b6001600160a01b03166000908152600e602052604090205480156126d857600181018091116125135790565b50600090565b51906001600160701b03821682036123f657565b908160609103126123f657612706816126de565b916040612715602084016126de565b92015163ffffffff811681036123f65790565b60065460081c6001600160a01b039081169182156128a557818316916040928351926318160ddd60e01b84526020938481600481865afa90811561289a5760009161286d575b5094805193630240bc6b60e21b8552606085600481875afa80156128625760009560009161282c575b50949584600052600081528083600020549560248551809581936370a0823160e01b835260048301527f0000000000000000000000000000000000000000000000000000000000000000165afa92831561282257506000926127f857505090565b90809250813d831161281b575b61280f8183612367565b810103126123f6575190565b503d612805565b513d6000823e3d90fd5b905061285191955060603d60601161285b575b6128498183612367565b8101906126f2565b5094909438612797565b503d61283f565b82513d6000823e3d90fd5b90508481813d8311612893575b6128848183612367565b810103126123f657513861276e565b503d61287a565b86513d6000823e3d90fd5b600092508291508190819081908190565b6001600160a01b031660009081526020819052604090205490565b60135460ff81166129615760ff6006541660058110156125bd576004146129155760081c60ff16801561290d575b61290857600290565b600490565b5060016128ff565b50620151804201804211612513577f000000000000000000000000000000000000000000000000000000000000000080911061295b57421061295657600490565b600290565b50600190565b50600390565b60ff6006541660058110156125bd5760030361298357600b5490565b600090565b60ff6006541660058110156125bd57600103612983576125b46009547f0000000000000000000000000000000000000000000000000000000000000000612506565b93909796959260c0959260e08601998652602086015260408501526060840152608083015260a08201520152565b60ff6006541660058110156125bd576001036126a05780156126a057612a3390610b1e610b18612a2661334d565b919093610b128386612529565b90612a3d826140f8565b5050612a498184612506565b91565b612a546133b4565b60069060ff8254169160058310156125bd57600480931461311157805460ff811660058110156130fc57600114612a965760405163baf3f0f760e01b81528490fd5b33159081156130f2575b81156130d9575b506130c85734156130b757612abb3461375e565b93919092801580156130af575b61309e5760095494612ada838761264d565b927f00000000000000000000000000000000000000000000000000000000000000009283612b0783613858565b9514613094575b84158015613089575b61307857612b278260009961264d565b600955612b3687600a5461264d565b600a55612b4583600b5461264d565b600b5542600c55612b5885600754612506565b600755612b6685333061412f565b338852602094600e865260409343858b2055612b828334612506565b9081613069575b6009549960075495875195865289860152868501526060840152608083015260a08201528660c08201528160e082015260008051602061468e8339815191526101003392a282861090811591613060575b50612bea575b5050505050509050565b835460ff811695600587101561304d576001870361303d57830361302d57600260ff198092161793848655825196600260008051602061464e83398151915291828b80a36001600160a01b0397600896871c89161561301f5750612c4c614576565b865484516318160ddd60e01b815290871c8916939083818e81885afa908115612fe4578b91612fee575b50612f2b57612c84846128b6565b612f2b578451630240bc6b60e21b81526060818e81885afa908115612fe4578b908c92612fc1575b508d8588518092630dfe168160e01b8252818a5afa908115612f2157908f918e91612fa4575b50868951809363d21220a760e01b8252818b5afa918215612f98578e92612f69575b508c163003612f4b57506001600160701b0391908216612f3b5716955b8611612f2b57865491612d3183612d2a89600954612506565b963061412f565b84612e2a575b8a9b9c848b8b9c9d9a9b548c1c1660248951809c81936335313c2160e11b835261dead878401525af1988915612e20578d99612df1575b508c8a55612d7e88600a5461264d565b600a558c60095560038b549360ff8516941617809b556005831015612dde575091600386949260008051602061466e8339815191529c9a98969460809c9a98519e80a38b528a015288015260608701521c1692a280388080808080612be0565b634e487b7160e01b8d526021905260248cfd5b9098508481813d8311612e19575b612e098183612367565b810103126123f657519738612d6e565b503d612dff565b87513d8f823e3d90fd5b897f000000000000000000000000000000000000000000000000000000000000000016803b15612ef3578d8c88518092630d0e30db60e41b8252818a865af18015612f2157908f91612f08575b508c604487928e8d8f54901c16928b51958694859363a9059cbb60e01b85528401528b60248401525af1908115612efe578c91612ec4575b50612d375785516314da028560e11b81528d90fd5b90508481813d8311612ef7575b612edb8183612367565b81010312612ef357518015158103612ef35738612eaf565b8b80fd5b503d612ed1565b87513d8e823e3d90fd5b8b87928e9f612f178e9461233e565b9f50925050612e77565b88513d8f823e3d90fd5b8451633c1413fb60e01b81528c90fd5b8651633c1413fb60e01b81528e90fd5b8b163003612f3b576001600160701b03918216612f3b571695612d11565b612f8a919250873d8911612f91575b612f828183612367565b810190613236565b9038612cf4565b503d612f78565b8e8a51903d90823e3d90fd5b612fbb9150873d8911612f9157612f828183612367565b38612cd2565b9050612fdc915060603d60601161285b576128498183612367565b509038612cac565b86513d8d823e3d90fd5b90508381813d8311613018575b6130058183612367565b81010312613014575138612c76565b8a80fd5b503d612ffb565b633c1413fb60e01b81528b90fd5b8151638199f5f360e01b81528990fd5b825163baf3f0f760e01b81528a90fd5b634e487b7160e01b885260218a52602488fd5b90501538612bda565b6130738233613977565b612b89565b604051638199f5f360e01b81528a90fd5b506007548511612b17565b6007549450612b0e565b604051631f2a200560e01b81528790fd5b508115612ac8565b604051631f2a200560e01b81528390fd5b604051634e46966960e11b81528390fd5b3360089190911c6001600160a01b031614905038612aa7565b3330149150612aa0565b602185634e487b7160e01b6000525260246000fd5b50905061311d336134ae565b565b6000805160206146ae833981519152600281541461313d5760029055565b604051633ee5aeb560e01b8152600490fd5b906001600160a01b03337f0000000000000000000000000000000000000000000000000000000000000000821614158061320a575b6131f957821680156131e757600a549283156131d557836131a9916000600a55613977565b7f0f58cb6262d88971b87878468debb7bc81f1714be597710e16a9fb84c66ff7b56020604051858152a2565b6040516312d37ee560e31b8152600490fd5b60405163d92e233d60e01b8152600490fd5b6040516282b42960e81b8152600490fd5b50807f000000000000000000000000000000000000000000000000000000000000000016331415613184565b908160209103126123f657516001600160a01b03811681036123f65790565b60065460081c6001600160a01b039081169190821561334457604051630240bc6b60e21b815290606082600481875afa93841561330957600092600095613315575b5090602060049260405193848092630dfe168160e01b82525afa918215613309576000926132e8575b501630036132d8576001600160701b03908116921690565b6001600160701b03928316921690565b61330291925060203d602011612f9157612f828183612367565b90386132c0565b6040513d6000823e3d90fd5b600492919550602093506133379060603d60601161285b576128498183612367565b5093909395919250613297565b50600091508190565b61337a6009547f00000000000000000000000000000000000000000000000000000000000000009061264d565b906125b461338d6007546008549061264d565b7f00000000000000000000000000000000000000000000000000000000000000009061264d565b60065460ff81169060058210156125bd576004821480613484575b80613477575b6133dd575050565b601054917f000000000000000000000000000000000000000000000000000000000000000083106134135750505061311d6142aa565b7fd06618f00e4db5bc4d25734a5aefd22c95ef99b512f746c01022645e501b62a092600160409361010061ff0019601354161760135560ff191617600655600183519260008051602061464e833981519152600080a3600f549082526020820152a1565b5060ff60135416156133d5565b507f00000000000000000000000000000000000000000000000000000000000000004210156133cf565b9060ff600654169160058310156125bd576004809303613680576201518042018042116136a2577f000000000000000000000000000000000000000000000000000000000000000080911061369157421015613680576001600160a01b03166000818152601460205260408082205490919060ff1615613670577f0000000000000000000000000000000000000000000000000000000000000000340361366057828152601560205260ff828220541661365057600f547f00000000000000000000000000000000000000000000000000000000000000001115613640578281526015602052818120600160ff19825416179055600f549060018201809211610984575061360d93945090817f2937d4b8ffdeea00fe58bc57f57d3010576fc9b39a784691fcc8054e15c60a4392600f556135eb3460105461264d565b948592836010556135fe3460115461264d565b6011555192839234908461247a565b0390a27f00000000000000000000000000000000000000000000000000000000000000001461363857565b61311d6142aa565b8151635c766e7560e01b81528590fd5b815163887daea160e01b81528590fd5b8151636ece8a1b60e01b81528590fd5b815163033bb9db60e21b81528590fd5b6040516302664e7160e11b81528390fd5b6040516302664e7160e11b81528490fd5b601184634e487b7160e01b6000525260246000fd5b906001600160a01b037f0000000000000000000000000000000000000000000000000000000000000000811633036131f95760ff6006541660058110156125bd5760030361374c57821680156131e757600b549283156131d55783613720916000600b55613977565b7fd046302bdc39599e60a5981e59227dcd1c643f512f56f2e984390c3ac6eadedb6020604051858152a2565b60405163baf3f0f760e01b8152600490fd5b9061378b6009547f0000000000000000000000000000000000000000000000000000000000000000612506565b918215613846576137a661379e826140f8565b505082612506565b928084116137c2575091905b6137bb836140f8565b9091509091565b9250506137e16137d1836144a3565b6126ac612710850915159061264d565b91825b613804575b506137fe6137f6836140f8565b505083612506565b906137b2565b91826138126137f6836140f8565b111561384057600019810190811161382b5791826137e4565b60246000634e487b7160e01b81526011600452fd5b916137e9565b60405163c83ba27d60e01b8152600490fd5b6138648160095461264d565b7f0000000000000000000000000000000000000000000000000000000000000000146138af576138a9610b1e6125b49261389c61334d565b939091610b128584612529565b9061253c565b5060075490565b60ff6006541660058110156125bd576001148061392a575b806138f3575b806138dc5790565b50600c5462278d0081018091116125135742101590565b507f000000000000000000000000000000000000000000000000000000000000000062ed4e008101809111612513574210156138d4565b50600b5415156138ce565b6125b461395361394a600954600a549061264d565b600b549061264d565b6011549061264d565b613964613935565b479080821115612646576125b491612506565b8147106139db57604051602081016001600160401b0381118282101761235157604052600080809481948280955260018060a01b03165af1156139b75750565b3d156139c957604051903d90823e3d90fd5b60405163d6bda27560e01b8152600490fd5b60405163cf47918160e01b815247600482015260248101839052604490fd5b6001600160a01b0381169392600092851580156140bd575b80156140a6575b61409457341561407a57613a2c3461375e565b989280969294919615801561408c575b61407a5760095491613a4e868461264d565b9a7f00000000000000000000000000000000000000000000000000000000000000009788613a7b89613858565b9d14614070575b8c158015614065575b614026578c1061402657613af08c60008051602061468e83398151915296613ab68a6101009861264d565b600955613ac58c600a5461264d565b600a55613ad484600b5461264d565b600b5542600c55613ae782600754612506565b6007553061412f565b858a52600e6020524360408b2055613b088334612506565b918280614055575b5050600954986007549760405194855260208501526040840152606083015260808201528960a08201528660c08201528460e0820152a28183109081159161404c575b50613b5d57505050565b600690815460ff8116936005851015614038576001850361374c5782036140265760029060ff1916179283835560026040519160008051602061464e8339815191528780a3600893841c6001600160a01b0316156140175750613bbe614576565b81546040516318160ddd60e01b815290841c6001600160a01b03169190602081600481865afa908115613fda578691613fe5575b50613f2a57613c00826128b6565b613f2a57604051630240bc6b60e21b8152606081600481865afa908115613fda5786908792613fb7575b50604051630dfe168160e01b8152602081600481885afa908115613fac578891613f8d575b5060405163d21220a760e01b815290602082600481895afa918215613f82578992613f61575b506001600160a01b03163003613f3c57506001600160701b0391908216613f2a5716905b8111613f2a5784918454613cba81613cb385600954612506565b933061412f565b81613dd1575b84546040516335313c2160e11b815261dead60048201529460209186916024918391908b1c6001600160a01b03165af1938415613dc6578794613d92575b50868655613d0e83600a5461264d565b600a55866009558454600360ff82169160ff1916178096556005811015613d7e57916080959391600360008051602061466e83398151915298969460008051602061464e8339815191526040519b80a38852602088015260408701526060860152901c6001600160a01b031692a2565b634e487b7160e01b88526021600452602488fd5b9093506020813d602011613dbe575b81613dae60209383612367565b810103126123f657519238613cfe565b3d9150613da1565b6040513d89823e3d90fd5b92507f00000000000000000000000000000000000000000000000000000000000000006001600160a01b03163b15613f2657604051630d0e30db60e41b81528681600481857f00000000000000000000000000000000000000000000000000000000000000006001600160a01b03165af18015613dc657613f13575b50835460405163a9059cbb60e01b815290861c6001600160a01b03908116600483015260248201839052602090829060449082908b907f0000000000000000000000000000000000000000000000000000000000000000165af1908115613dc6578791613ed4575b5015613ec2578592613cc0565b6040516314da028560e11b8152600490fd5b90506020813d602011613f0b575b81613eef60209383612367565b81010312613f0757518015158103613f075738613eb5565b8680fd5b3d9150613ee2565b613f1f9096919661233e565b9438613e4d565b8580fd5b604051633c1413fb60e01b8152600490fd5b6001600160a01b03163003613f2a576001600160701b03918216613f2a571690613c99565b613f7b91925060203d602011612f9157612f828183612367565b9038613c75565b6040513d8b823e3d90fd5b613fa6915060203d602011612f9157612f828183612367565b38613c4f565b6040513d8a823e3d90fd5b9050613fd2915060603d60601161285b576128498183612367565b509038613c2a565b6040513d88823e3d90fd5b90506020813d60201161400f575b8161400060209383612367565b81010312613f26575138613bf2565b3d9150613ff3565b633c1413fb60e01b8152600490fd5b604051638199f5f360e01b8152600490fd5b634e487b7160e01b86526021600452602486fd5b90501538613b53565b61405e91613977565b3882613b10565b506007548d11613a8b565b6007549c50613a82565b604051631f2a200560e01b8152600490fd5b508415613a3c565b604051634e46966960e11b8152600490fd5b5060065460081c6001600160a01b03168614613a19565b50308614613a12565b9080156140e5576140dd600191600019840161253c565b019015150290565b634e487b7160005260126020526024601cfd5b80156126a05780612710606461411061411a9461450d565b920915159061264d565b9061412482614428565b906125b48284612506565b916001600160a01b03808416928315614273571692831561425a5760ff600654166005811015806125bd5760018214801561424d575b15614213575050308314801561420a575b156141f8575b600090838252816020526040822054908382106141db575091604082827fddf252ad1be2c89b69c2b068fc378daa952ba7f163c4a11628f55a4df523b3ef958760209652828652038282205586815220818154019055604051908152a3565b611e958460405193849363391434e360e21b85526004850161428c565b6040516377d87fb560e11b8152600490fd5b50308414614176565b6125bd576002810361422d575030830361374c575b61417c565b60030361417c5730840361422857604051634e46966960e11b8152600490fd5b5050600060048214614165565b60405163ec442f0560e01b815260006004820152602490fd5b604051634b637e8f60e11b815260006004820152602490fd5b604091949392606082019560018060a01b0316825260208201520152565b60135460ff811661374c57601054907f0000000000000000000000000000000000000000000000000000000000000000820361374c576142f8906142ed836140f8565b949182949194612506565b9081156140265761430882613858565b61433d6143367f0000000000000000000000000000000000000000000000000000000000000000809361253c565b9182612529565b9181158015614420575b8015614415575b61402657600160ff19809616176013558160125582600d5560006011556143778460095461264d565b60095561438686600a5461264d565b600a5561439587600b5461264d565b600b556143a483600754612506565b60075542600c5560016006549560ff871696161760065560058510156125bd577f8020fdb0592775b626a997485c415e05a790703d920667e59222a260f0c3903a966001966144109560405198899860008051602061464e833981519152600080a3600f5493886129ca565b0390a1565b50600754831161434e565b508215614347565b600019601e8209601e82029081808210910390808203911461449a578060641115614487576064601e7f5c28f5c28f5c28f5c28f5c28f5c28f5c28f5c28f5c28f5c28f5c28f5c28f5c29940990828211900360fe1b910360021c170290565b634e487b7160005260116020526024601cfd5b50606491500490565b61271060001981830981830291828083109203918083039214614502576126ac9082821115614487577fa902ffe58553adaa902ffe58553adaa902ffe58553adaa902ffe58553adaa903940990828211900360fe1b910360021c170290565b50506126ac91500490565b60001960648209606482029081808210910390808203911461456c57612710818111156144875760647fbc01a36e2eb1c432ca57a786c226809d495182a9930be0ded288ce703afb7e91940990828211900360fc1b910360041c170290565b5061271091500490565b60065460081c6001600160a01b03908116908115614617576040516318160ddd60e01b8152602081600481865afa9081156133095760009161461b575b5061461757813b156123f65760009160248392604051948593849263bc25cf7760e01b84527f00000000000000000000000000000000000000000000000000000000000000001660048401525af180156133095761460e5750565b61311d9061233e565b5050565b90506020813d602011614645575b8161463660209383612367565b810103126123f65751386145b3565b3d915061462956fe3a779de46631dd65116ae538600f1bc3c338200c6aef638429b5de43301c28f771aa8c3702dbbc54247a4e6446450e64a46250dd72707a247ddb01d72eaef4456ff5f8cb3bbdee941e910591101be7dcb3bd64213bbc4ac9e994c9d7b0ef74cd9b779b17422d0df92223018b32b4d1fa46e071723d6817e2486d003becc55f00a2646970667358221220aae1dfd59c31f1b8bd9544f07ef48b24f685971c60c31271a7ecc4e122a7391e64736f6c63430008180033a26469706673582212202367c3d37a094cefe7108b2d10bf2d6141085d1d4d866f6b906a6f2ff9d959e064736f6c63430008180033",
  "linkReferences": {},
  "deployedLinkReferences": {}
}