{
  "_format": "hh-sol-artifact-1",
  "contractName": "LaunchCreate2Deployer",
  "sourceName": "contracts/LaunchCreate2Deployer.sol",
  "abi": [
    {
      "inputs": [],
      "stateMutability": "nonpayable",
      "type": "constructor"
    },
    {
      "inputs": [],
      "name": "AlreadyConfigured",
      "type": "error"
    },
    {
      "inputs": [],
      "name": "Create2DeploymentFailed",
      "type": "error"
    },
    {
      "inputs": [],
      "name": "Unauthorized",
      "type": "error"
    },
    {
      "inputs": [
        {
          "internalType": "bytes32",
          "name": "salt",
          "type": "bytes32"
        },
        {
          "internalType": "bytes",
          "name": "initCode",
          "type": "bytes"
        }
      ],
      "name": "deploy",
      "outputs": [
        {
          "internalType": "address",
          "name": "deployed",
          "type": "address"
        }
      ],
      "stateMutability": "nonpayable",
      "type": "function"
    },
    {
      "inputs": [],
      "name": "factory",
      "outputs": [
        {
          "internalType": "address",
          "name": "",
          "type": "address"
        }
      ],
      "stateMutability": "view",
      "type": "function"
    },
    {
      "inputs": [],
      "name": "owner",
      "outputs": [
        {
          "internalType": "address payable",
          "name": "",
          "type": "address"
        }
      ],
      "stateMutability": "view",
      "type": "function"
    },
    {
      "inputs": [
        {
          "internalType": "bytes32",
          "name": "salt",
          "type": "bytes32"
        },
        {
          "internalType": "bytes32",
          "name": "initCodeHash",
          "type": "bytes32"
        }
      ],
      "name": "predict",
      "outputs": [
        {
          "internalType": "address",
          "name": "predicted",
          "type": "address"
        }
      ],
      "stateMutability": "view",
      "type": "function"
    },
    {
      "inputs": [],
      "name": "recoverUnexpectedNative",
      "outputs": [],
      "stateMutability": "nonpayable",
      "type": "function"
    },
    {
      "inputs": [
        {
          "internalType": "address",
          "name": "factory_",
          "type": "address"
        }
      ],
      "name": "setFactory",
      "outputs": [],
      "stateMutability": "nonpayable",
      "type": "function"
    }
  ],
  "bytecode": "0x60a0806040523461003057336080526103c090816100368239608051818181609101528181610101015261018b0152f35b600080fdfe6080604052600436101561001257600080fd5b6000803560e01c908163015697791461007a575080635bb47808146100755780638da5cb5b14610070578063a2e8bb1b1461006b578063c45a0155146100665763cdcb760a1461006157600080fd5b61025c565b610233565b6101ba565b610175565b6100d7565b346100d457806003193601126100d45780808080477f00000000000000000000000000000000000000000000000000000000000000006001600160a01b03165af1156100c35780f35b6040516282b42960e81b8152600490fd5b80fd5b34610170576020366003190112610170576004356001600160a01b038082169081830361017057807f00000000000000000000000000000000000000000000000000000000000000001633036100c3576000546001600160a01b03161661015e57156100c357600080546001600160a01b0319166001600160a01b03909216919091179055005b6040516308db0db560e11b8152600490fd5b600080fd5b34610170576000366003190112610170576040517f00000000000000000000000000000000000000000000000000000000000000006001600160a01b03168152602090f35b34610170576040366003190112610170576040516001600160f81b0319602082019081523060601b6021830152600435603583015260243560558084019190915282529060808101906001600160401b0382118183101761022e576040829052519091206001600160a01b03168152602090f35b6102d3565b34610170576000366003190112610170576000546040516001600160a01b039091168152602090f35b34610170576040366003190112610170576001600160401b036024358181116101705736602382011215610170578060040135918211610170573660248383010111610170576102cf9160246102b5920160043561030c565b6040516001600160a01b0390911681529081906020820190565b0390f35b634e487b7160e01b600052604160045260246000fd5b601f909101601f19168101906001600160401b0382119082101761022e57604052565b6000546001600160a01b03949391929190851633036100c3576001600160401b03811161022e576040519061034b601f8201601f1916602001836102e9565b80825260208201923682820111610170578160009260209286378301015251906000f59182161561037857565b6040516334bf455960e01b8152600490fdfea264697066735822122069693523cd1816bcaea914775c5910332225a22d62a419b06d0017594933882b64736f6c63430008180033",
  "linkReferences": {},
  "deployedLinkReferences": {}
}