{
  "_format": "hh-sol-artifact-1",
  "contractName": "LaunchFactory",
  "sourceName": "contracts/LaunchFactory.sol",
  "abi": [
    {
      "inputs": [
        {
          "internalType": "address",
          "name": "owner_",
          "type": "address"
        },
        {
          "internalType": "address",
          "name": "router_",
          "type": "address"
        },
        {
          "internalType": "address",
          "name": "protocolFeeRecipient_",
          "type": "address"
        },
        {
          "internalType": "address",
          "name": "standardDeployer_",
          "type": "address"
        },
        {
          "internalType": "address",
          "name": "whitelistDeployer_",
          "type": "address"
        },
        {
          "internalType": "address",
          "name": "taxedDeployer_",
          "type": "address"
        },
        {
          "internalType": "address",
          "name": "whitelistTaxedDeployer_",
          "type": "address"
        },
        {
          "internalType": "uint256",
          "name": "standardCreateFee_",
          "type": "uint256"
        },
        {
          "internalType": "uint256",
          "name": "whitelistCreateFee_",
          "type": "uint256"
        },
        {
          "internalType": "uint256",
          "name": "graduationQuoteReserve_",
          "type": "uint256"
        },
        {
          "internalType": "uint256[]",
          "name": "whitelistThresholdPresets_",
          "type": "uint256[]"
        },
        {
          "internalType": "uint256[]",
          "name": "whitelistSlotSizePresets_",
          "type": "uint256[]"
        }
      ],
      "stateMutability": "nonpayable",
      "type": "constructor"
    },
    {
      "inputs": [],
      "name": "DelayedWhitelistAtomicCommitUnsupported",
      "type": "error"
    },
    {
      "inputs": [],
      "name": "FailedCall",
      "type": "error"
    },
    {
      "inputs": [
        {
          "internalType": "uint256",
          "name": "balance",
          "type": "uint256"
        },
        {
          "internalType": "uint256",
          "name": "needed",
          "type": "uint256"
        }
      ],
      "name": "InsufficientBalance",
      "type": "error"
    },
    {
      "inputs": [],
      "name": "InsufficientCreateFee",
      "type": "error"
    },
    {
      "inputs": [],
      "name": "InvalidGraduationConfig",
      "type": "error"
    },
    {
      "inputs": [],
      "name": "InvalidTaxConfig",
      "type": "error"
    },
    {
      "inputs": [],
      "name": "InvalidTaxMode",
      "type": "error"
    },
    {
      "inputs": [],
      "name": "InvalidWhitelistAtomicCommitAmount",
      "type": "error"
    },
    {
      "inputs": [],
      "name": "InvalidWhitelistPreset",
      "type": "error"
    },
    {
      "inputs": [],
      "name": "MissingAtomicBuyValue",
      "type": "error"
    },
    {
      "inputs": [],
      "name": "NothingToClaim",
      "type": "error"
    },
    {
      "inputs": [
        {
          "internalType": "address",
          "name": "owner",
          "type": "address"
        }
      ],
      "name": "OwnableInvalidOwner",
      "type": "error"
    },
    {
      "inputs": [
        {
          "internalType": "address",
          "name": "account",
          "type": "address"
        }
      ],
      "name": "OwnableUnauthorizedAccount",
      "type": "error"
    },
    {
      "inputs": [],
      "name": "PendingProtocolCreateFees",
      "type": "error"
    },
    {
      "inputs": [],
      "name": "ProtocolFeeRecipientMismatch",
      "type": "error"
    },
    {
      "inputs": [],
      "name": "Unauthorized",
      "type": "error"
    },
    {
      "inputs": [],
      "name": "UnknownLaunch",
      "type": "error"
    },
    {
      "inputs": [],
      "name": "ZeroAddress",
      "type": "error"
    },
    {
      "anonymous": false,
      "inputs": [
        {
          "indexed": true,
          "internalType": "address",
          "name": "creator",
          "type": "address"
        },
        {
          "indexed": true,
          "internalType": "address",
          "name": "token",
          "type": "address"
        },
        {
          "indexed": true,
          "internalType": "uint8",
          "name": "mode",
          "type": "uint8"
        },
        {
          "indexed": false,
          "internalType": "string",
          "name": "name",
          "type": "string"
        },
        {
          "indexed": false,
          "internalType": "string",
          "name": "symbol",
          "type": "string"
        },
        {
          "indexed": false,
          "internalType": "string",
          "name": "metadataURI",
          "type": "string"
        }
      ],
      "name": "LaunchCreated",
      "type": "event"
    },
    {
      "anonymous": false,
      "inputs": [
        {
          "indexed": true,
          "internalType": "address",
          "name": "previousOwner",
          "type": "address"
        },
        {
          "indexed": true,
          "internalType": "address",
          "name": "newOwner",
          "type": "address"
        }
      ],
      "name": "OwnershipTransferred",
      "type": "event"
    },
    {
      "anonymous": false,
      "inputs": [
        {
          "indexed": true,
          "internalType": "address",
          "name": "recipient",
          "type": "address"
        },
        {
          "indexed": false,
          "internalType": "uint256",
          "name": "amount",
          "type": "uint256"
        }
      ],
      "name": "ProtocolCreateFeesClaimed",
      "type": "event"
    },
    {
      "anonymous": false,
      "inputs": [
        {
          "indexed": true,
          "internalType": "address",
          "name": "previousRecipient",
          "type": "address"
        },
        {
          "indexed": true,
          "internalType": "address",
          "name": "newRecipient",
          "type": "address"
        }
      ],
      "name": "ProtocolFeeRecipientUpdated",
      "type": "event"
    },
    {
      "anonymous": false,
      "inputs": [
        {
          "indexed": true,
          "internalType": "address",
          "name": "caller",
          "type": "address"
        },
        {
          "indexed": false,
          "internalType": "uint256",
          "name": "amount",
          "type": "uint256"
        }
      ],
      "name": "UnexpectedNativeReconciled",
      "type": "event"
    },
    {
      "inputs": [],
      "name": "DEFAULT_PROTOCOL_FEE_RECIPIENT",
      "outputs": [
        {
          "internalType": "address",
          "name": "",
          "type": "address"
        }
      ],
      "stateMutability": "view",
      "type": "function"
    },
    {
      "inputs": [],
      "name": "accruedProtocolCreateFees",
      "outputs": [
        {
          "internalType": "uint256",
          "name": "",
          "type": "uint256"
        }
      ],
      "stateMutability": "view",
      "type": "function"
    },
    {
      "inputs": [
        {
          "internalType": "uint256",
          "name": "",
          "type": "uint256"
        }
      ],
      "name": "allLaunches",
      "outputs": [
        {
          "internalType": "address",
          "name": "",
          "type": "address"
        }
      ],
      "stateMutability": "view",
      "type": "function"
    },
    {
      "inputs": [
        {
          "internalType": "address[]",
          "name": "tokens",
          "type": "address[]"
        },
        {
          "internalType": "address payable",
          "name": "recipient",
          "type": "address"
        }
      ],
      "name": "batchClaimProtocolFees",
      "outputs": [
        {
          "internalType": "uint256",
          "name": "totalClaimed",
          "type": "uint256"
        },
        {
          "internalType": "uint256",
          "name": "claimedCount",
          "type": "uint256"
        }
      ],
      "stateMutability": "nonpayable",
      "type": "function"
    },
    {
      "inputs": [
        {
          "internalType": "address[]",
          "name": "tokens",
          "type": "address[]"
        }
      ],
      "name": "batchSweepAbandonedCreatorFees",
      "outputs": [
        {
          "internalType": "uint256",
          "name": "totalSwept",
          "type": "uint256"
        },
        {
          "internalType": "uint256",
          "name": "sweptCount",
          "type": "uint256"
        }
      ],
      "stateMutability": "nonpayable",
      "type": "function"
    },
    {
      "inputs": [],
      "name": "claimProtocolCreateFees",
      "outputs": [
        {
          "internalType": "uint256",
          "name": "amount",
          "type": "uint256"
        }
      ],
      "stateMutability": "nonpayable",
      "type": "function"
    },
    {
      "inputs": [
        {
          "internalType": "address payable",
          "name": "recipient",
          "type": "address"
        }
      ],
      "name": "claimProtocolCreateFeesTo",
      "outputs": [
        {
          "internalType": "uint256",
          "name": "amount",
          "type": "uint256"
        }
      ],
      "stateMutability": "nonpayable",
      "type": "function"
    },
    {
      "inputs": [],
      "name": "createFee",
      "outputs": [
        {
          "internalType": "uint256",
          "name": "",
          "type": "uint256"
        }
      ],
      "stateMutability": "view",
      "type": "function"
    },
    {
      "inputs": [
        {
          "internalType": "enum LaunchFactory.LaunchMode",
          "name": "mode",
          "type": "uint8"
        }
      ],
      "name": "createFeeForMode",
      "outputs": [
        {
          "internalType": "uint256",
          "name": "",
          "type": "uint256"
        }
      ],
      "stateMutability": "view",
      "type": "function"
    },
    {
      "inputs": [
        {
          "internalType": "string",
          "name": "name_",
          "type": "string"
        },
        {
          "internalType": "string",
          "name": "symbol_",
          "type": "string"
        },
        {
          "internalType": "string",
          "name": "metadataURI_",
          "type": "string"
        }
      ],
      "name": "createLaunch",
      "outputs": [
        {
          "internalType": "address",
          "name": "token",
          "type": "address"
        }
      ],
      "stateMutability": "payable",
      "type": "function"
    },
    {
      "inputs": [
        {
          "internalType": "string",
          "name": "name_",
          "type": "string"
        },
        {
          "internalType": "string",
          "name": "symbol_",
          "type": "string"
        },
        {
          "internalType": "string",
          "name": "metadataURI_",
          "type": "string"
        },
        {
          "internalType": "uint256",
          "name": "minTokenOut",
          "type": "uint256"
        }
      ],
      "name": "createLaunchAndBuy",
      "outputs": [
        {
          "internalType": "address",
          "name": "token",
          "type": "address"
        },
        {
          "internalType": "uint256",
          "name": "tokenOut",
          "type": "uint256"
        }
      ],
      "stateMutability": "payable",
      "type": "function"
    },
    {
      "inputs": [
        {
          "internalType": "string",
          "name": "name_",
          "type": "string"
        },
        {
          "internalType": "string",
          "name": "symbol_",
          "type": "string"
        },
        {
          "internalType": "string",
          "name": "metadataURI_",
          "type": "string"
        },
        {
          "internalType": "bytes32",
          "name": "salt",
          "type": "bytes32"
        },
        {
          "internalType": "uint256",
          "name": "minTokenOut",
          "type": "uint256"
        }
      ],
      "name": "createLaunchAndBuyWithSalt",
      "outputs": [
        {
          "internalType": "address",
          "name": "token",
          "type": "address"
        },
        {
          "internalType": "uint256",
          "name": "tokenOut",
          "type": "uint256"
        }
      ],
      "stateMutability": "payable",
      "type": "function"
    },
    {
      "inputs": [
        {
          "internalType": "string",
          "name": "name_",
          "type": "string"
        },
        {
          "internalType": "string",
          "name": "symbol_",
          "type": "string"
        },
        {
          "internalType": "string",
          "name": "metadataURI_",
          "type": "string"
        },
        {
          "internalType": "bytes32",
          "name": "salt",
          "type": "bytes32"
        }
      ],
      "name": "createLaunchWithSalt",
      "outputs": [
        {
          "internalType": "address",
          "name": "token",
          "type": "address"
        }
      ],
      "stateMutability": "payable",
      "type": "function"
    },
    {
      "inputs": [
        {
          "internalType": "string",
          "name": "name_",
          "type": "string"
        },
        {
          "internalType": "string",
          "name": "symbol_",
          "type": "string"
        },
        {
          "internalType": "string",
          "name": "metadataURI_",
          "type": "string"
        },
        {
          "internalType": "uint16",
          "name": "taxBps",
          "type": "uint16"
        },
        {
          "internalType": "uint16",
          "name": "burnShareBps",
          "type": "uint16"
        },
        {
          "internalType": "uint16",
          "name": "treasuryShareBps",
          "type": "uint16"
        },
        {
          "internalType": "address",
          "name": "treasuryWallet",
          "type": "address"
        }
      ],
      "name": "createTaxLaunch",
      "outputs": [
        {
          "internalType": "address",
          "name": "token",
          "type": "address"
        }
      ],
      "stateMutability": "payable",
      "type": "function"
    },
    {
      "inputs": [
        {
          "internalType": "string",
          "name": "name_",
          "type": "string"
        },
        {
          "internalType": "string",
          "name": "symbol_",
          "type": "string"
        },
        {
          "internalType": "string",
          "name": "metadataURI_",
          "type": "string"
        },
        {
          "internalType": "uint16",
          "name": "taxBps",
          "type": "uint16"
        },
        {
          "internalType": "uint16",
          "name": "burnShareBps",
          "type": "uint16"
        },
        {
          "internalType": "uint16",
          "name": "treasuryShareBps",
          "type": "uint16"
        },
        {
          "internalType": "address",
          "name": "treasuryWallet",
          "type": "address"
        },
        {
          "internalType": "uint256",
          "name": "minTokenOut",
          "type": "uint256"
        }
      ],
      "name": "createTaxLaunchAndBuy",
      "outputs": [
        {
          "internalType": "address",
          "name": "token",
          "type": "address"
        },
        {
          "internalType": "uint256",
          "name": "tokenOut",
          "type": "uint256"
        }
      ],
      "stateMutability": "payable",
      "type": "function"
    },
    {
      "inputs": [
        {
          "internalType": "string",
          "name": "name_",
          "type": "string"
        },
        {
          "internalType": "string",
          "name": "symbol_",
          "type": "string"
        },
        {
          "internalType": "string",
          "name": "metadataURI_",
          "type": "string"
        },
        {
          "internalType": "uint16",
          "name": "taxBps",
          "type": "uint16"
        },
        {
          "internalType": "uint16",
          "name": "burnShareBps",
          "type": "uint16"
        },
        {
          "internalType": "uint16",
          "name": "treasuryShareBps",
          "type": "uint16"
        },
        {
          "internalType": "address",
          "name": "treasuryWallet",
          "type": "address"
        },
        {
          "internalType": "bytes32",
          "name": "salt",
          "type": "bytes32"
        },
        {
          "internalType": "uint256",
          "name": "minTokenOut",
          "type": "uint256"
        }
      ],
      "name": "createTaxLaunchAndBuyWithSalt",
      "outputs": [
        {
          "internalType": "address",
          "name": "token",
          "type": "address"
        },
        {
          "internalType": "uint256",
          "name": "tokenOut",
          "type": "uint256"
        }
      ],
      "stateMutability": "payable",
      "type": "function"
    },
    {
      "inputs": [
        {
          "internalType": "string",
          "name": "name_",
          "type": "string"
        },
        {
          "internalType": "string",
          "name": "symbol_",
          "type": "string"
        },
        {
          "internalType": "string",
          "name": "metadataURI_",
          "type": "string"
        },
        {
          "internalType": "uint16",
          "name": "taxBps",
          "type": "uint16"
        },
        {
          "internalType": "uint16",
          "name": "burnShareBps",
          "type": "uint16"
        },
        {
          "internalType": "uint16",
          "name": "treasuryShareBps",
          "type": "uint16"
        },
        {
          "internalType": "address",
          "name": "treasuryWallet",
          "type": "address"
        },
        {
          "internalType": "bytes32",
          "name": "salt",
          "type": "bytes32"
        }
      ],
      "name": "createTaxLaunchWithSalt",
      "outputs": [
        {
          "internalType": "address",
          "name": "token",
          "type": "address"
        }
      ],
      "stateMutability": "payable",
      "type": "function"
    },
    {
      "inputs": [
        {
          "internalType": "string",
          "name": "name_",
          "type": "string"
        },
        {
          "internalType": "string",
          "name": "symbol_",
          "type": "string"
        },
        {
          "internalType": "string",
          "name": "metadataURI_",
          "type": "string"
        },
        {
          "internalType": "uint256",
          "name": "whitelistThreshold",
          "type": "uint256"
        },
        {
          "internalType": "uint256",
          "name": "whitelistSlotSize",
          "type": "uint256"
        },
        {
          "internalType": "uint256",
          "name": "whitelistOpensAt",
          "type": "uint256"
        },
        {
          "internalType": "address[]",
          "name": "whitelistAddresses",
          "type": "address[]"
        }
      ],
      "name": "createWhitelistLaunch",
      "outputs": [
        {
          "internalType": "address",
          "name": "token",
          "type": "address"
        }
      ],
      "stateMutability": "payable",
      "type": "function"
    },
    {
      "inputs": [
        {
          "internalType": "string",
          "name": "name_",
          "type": "string"
        },
        {
          "internalType": "string",
          "name": "symbol_",
          "type": "string"
        },
        {
          "internalType": "string",
          "name": "metadataURI_",
          "type": "string"
        },
        {
          "internalType": "uint256",
          "name": "whitelistThreshold",
          "type": "uint256"
        },
        {
          "internalType": "uint256",
          "name": "whitelistSlotSize",
          "type": "uint256"
        },
        {
          "internalType": "uint256",
          "name": "whitelistOpensAt",
          "type": "uint256"
        },
        {
          "internalType": "address[]",
          "name": "whitelistAddresses",
          "type": "address[]"
        }
      ],
      "name": "createWhitelistLaunchAndCommit",
      "outputs": [
        {
          "internalType": "address",
          "name": "token",
          "type": "address"
        }
      ],
      "stateMutability": "payable",
      "type": "function"
    },
    {
      "inputs": [
        {
          "internalType": "string",
          "name": "name_",
          "type": "string"
        },
        {
          "internalType": "string",
          "name": "symbol_",
          "type": "string"
        },
        {
          "internalType": "string",
          "name": "metadataURI_",
          "type": "string"
        },
        {
          "internalType": "uint256",
          "name": "whitelistThreshold",
          "type": "uint256"
        },
        {
          "internalType": "uint256",
          "name": "whitelistSlotSize",
          "type": "uint256"
        },
        {
          "internalType": "uint256",
          "name": "whitelistOpensAt",
          "type": "uint256"
        },
        {
          "internalType": "address[]",
          "name": "whitelistAddresses",
          "type": "address[]"
        },
        {
          "internalType": "bytes32",
          "name": "salt",
          "type": "bytes32"
        }
      ],
      "name": "createWhitelistLaunchAndCommitWithSalt",
      "outputs": [
        {
          "internalType": "address",
          "name": "token",
          "type": "address"
        }
      ],
      "stateMutability": "payable",
      "type": "function"
    },
    {
      "inputs": [
        {
          "internalType": "string",
          "name": "name_",
          "type": "string"
        },
        {
          "internalType": "string",
          "name": "symbol_",
          "type": "string"
        },
        {
          "internalType": "string",
          "name": "metadataURI_",
          "type": "string"
        },
        {
          "internalType": "uint256",
          "name": "whitelistThreshold",
          "type": "uint256"
        },
        {
          "internalType": "uint256",
          "name": "whitelistSlotSize",
          "type": "uint256"
        },
        {
          "internalType": "uint256",
          "name": "whitelistOpensAt",
          "type": "uint256"
        },
        {
          "internalType": "address[]",
          "name": "whitelistAddresses",
          "type": "address[]"
        },
        {
          "internalType": "bytes32",
          "name": "salt",
          "type": "bytes32"
        }
      ],
      "name": "createWhitelistLaunchWithSalt",
      "outputs": [
        {
          "internalType": "address",
          "name": "token",
          "type": "address"
        }
      ],
      "stateMutability": "payable",
      "type": "function"
    },
    {
      "inputs": [
        {
          "internalType": "string",
          "name": "name_",
          "type": "string"
        },
        {
          "internalType": "string",
          "name": "symbol_",
          "type": "string"
        },
        {
          "internalType": "string",
          "name": "metadataURI_",
          "type": "string"
        },
        {
          "components": [
            {
              "internalType": "uint256",
              "name": "whitelistThreshold",
              "type": "uint256"
            },
            {
              "internalType": "uint256",
              "name": "whitelistSlotSize",
              "type": "uint256"
            },
            {
              "internalType": "uint256",
              "name": "whitelistOpensAt",
              "type": "uint256"
            },
            {
              "internalType": "address[]",
              "name": "whitelistAddresses",
              "type": "address[]"
            }
          ],
          "internalType": "struct LaunchFactory.WhitelistConfigInput",
          "name": "whitelistConfig",
          "type": "tuple"
        },
        {
          "components": [
            {
              "internalType": "uint16",
              "name": "taxBps",
              "type": "uint16"
            },
            {
              "internalType": "uint16",
              "name": "burnShareBps",
              "type": "uint16"
            },
            {
              "internalType": "uint16",
              "name": "treasuryShareBps",
              "type": "uint16"
            },
            {
              "internalType": "address",
              "name": "treasuryWallet",
              "type": "address"
            }
          ],
          "internalType": "struct LaunchFactory.TaxConfigInput",
          "name": "taxConfig",
          "type": "tuple"
        },
        {
          "internalType": "bytes",
          "name": "initCode",
          "type": "bytes"
        }
      ],
      "name": "createWhitelistTaxLaunch",
      "outputs": [
        {
          "internalType": "address",
          "name": "token",
          "type": "address"
        }
      ],
      "stateMutability": "payable",
      "type": "function"
    },
    {
      "inputs": [
        {
          "internalType": "string",
          "name": "name_",
          "type": "string"
        },
        {
          "internalType": "string",
          "name": "symbol_",
          "type": "string"
        },
        {
          "internalType": "string",
          "name": "metadataURI_",
          "type": "string"
        },
        {
          "components": [
            {
              "internalType": "uint256",
              "name": "whitelistThreshold",
              "type": "uint256"
            },
            {
              "internalType": "uint256",
              "name": "whitelistSlotSize",
              "type": "uint256"
            },
            {
              "internalType": "uint256",
              "name": "whitelistOpensAt",
              "type": "uint256"
            },
            {
              "internalType": "address[]",
              "name": "whitelistAddresses",
              "type": "address[]"
            }
          ],
          "internalType": "struct LaunchFactory.WhitelistConfigInput",
          "name": "whitelistConfig",
          "type": "tuple"
        },
        {
          "components": [
            {
              "internalType": "uint16",
              "name": "taxBps",
              "type": "uint16"
            },
            {
              "internalType": "uint16",
              "name": "burnShareBps",
              "type": "uint16"
            },
            {
              "internalType": "uint16",
              "name": "treasuryShareBps",
              "type": "uint16"
            },
            {
              "internalType": "address",
              "name": "treasuryWallet",
              "type": "address"
            }
          ],
          "internalType": "struct LaunchFactory.TaxConfigInput",
          "name": "taxConfig",
          "type": "tuple"
        },
        {
          "internalType": "bytes",
          "name": "initCode",
          "type": "bytes"
        }
      ],
      "name": "createWhitelistTaxLaunchAndCommit",
      "outputs": [
        {
          "internalType": "address",
          "name": "token",
          "type": "address"
        }
      ],
      "stateMutability": "payable",
      "type": "function"
    },
    {
      "inputs": [
        {
          "internalType": "string",
          "name": "name_",
          "type": "string"
        },
        {
          "internalType": "string",
          "name": "symbol_",
          "type": "string"
        },
        {
          "internalType": "string",
          "name": "metadataURI_",
          "type": "string"
        },
        {
          "components": [
            {
              "internalType": "uint256",
              "name": "whitelistThreshold",
              "type": "uint256"
            },
            {
              "internalType": "uint256",
              "name": "whitelistSlotSize",
              "type": "uint256"
            },
            {
              "internalType": "uint256",
              "name": "whitelistOpensAt",
              "type": "uint256"
            },
            {
              "internalType": "address[]",
              "name": "whitelistAddresses",
              "type": "address[]"
            }
          ],
          "internalType": "struct LaunchFactory.WhitelistConfigInput",
          "name": "whitelistConfig",
          "type": "tuple"
        },
        {
          "components": [
            {
              "internalType": "uint16",
              "name": "taxBps",
              "type": "uint16"
            },
            {
              "internalType": "uint16",
              "name": "burnShareBps",
              "type": "uint16"
            },
            {
              "internalType": "uint16",
              "name": "treasuryShareBps",
              "type": "uint16"
            },
            {
              "internalType": "address",
              "name": "treasuryWallet",
              "type": "address"
            }
          ],
          "internalType": "struct LaunchFactory.TaxConfigInput",
          "name": "taxConfig",
          "type": "tuple"
        },
        {
          "internalType": "bytes",
          "name": "initCode",
          "type": "bytes"
        },
        {
          "internalType": "bytes32",
          "name": "salt",
          "type": "bytes32"
        }
      ],
      "name": "createWhitelistTaxLaunchAndCommitWithSalt",
      "outputs": [
        {
          "internalType": "address",
          "name": "token",
          "type": "address"
        }
      ],
      "stateMutability": "payable",
      "type": "function"
    },
    {
      "inputs": [
        {
          "internalType": "string",
          "name": "name_",
          "type": "string"
        },
        {
          "internalType": "string",
          "name": "symbol_",
          "type": "string"
        },
        {
          "internalType": "string",
          "name": "metadataURI_",
          "type": "string"
        },
        {
          "components": [
            {
              "internalType": "uint256",
              "name": "whitelistThreshold",
              "type": "uint256"
            },
            {
              "internalType": "uint256",
              "name": "whitelistSlotSize",
              "type": "uint256"
            },
            {
              "internalType": "uint256",
              "name": "whitelistOpensAt",
              "type": "uint256"
            },
            {
              "internalType": "address[]",
              "name": "whitelistAddresses",
              "type": "address[]"
            }
          ],
          "internalType": "struct LaunchFactory.WhitelistConfigInput",
          "name": "whitelistConfig",
          "type": "tuple"
        },
        {
          "components": [
            {
              "internalType": "uint16",
              "name": "taxBps",
              "type": "uint16"
            },
            {
              "internalType": "uint16",
              "name": "burnShareBps",
              "type": "uint16"
            },
            {
              "internalType": "uint16",
              "name": "treasuryShareBps",
              "type": "uint16"
            },
            {
              "internalType": "address",
              "name": "treasuryWallet",
              "type": "address"
            }
          ],
          "internalType": "struct LaunchFactory.TaxConfigInput",
          "name": "taxConfig",
          "type": "tuple"
        },
        {
          "internalType": "bytes",
          "name": "initCode",
          "type": "bytes"
        },
        {
          "internalType": "bytes32",
          "name": "salt",
          "type": "bytes32"
        }
      ],
      "name": "createWhitelistTaxLaunchWithSalt",
      "outputs": [
        {
          "internalType": "address",
          "name": "token",
          "type": "address"
        }
      ],
      "stateMutability": "payable",
      "type": "function"
    },
    {
      "inputs": [],
      "name": "graduationQuoteReserve",
      "outputs": [
        {
          "internalType": "uint256",
          "name": "",
          "type": "uint256"
        }
      ],
      "stateMutability": "view",
      "type": "function"
    },
    {
      "inputs": [
        {
          "internalType": "uint256",
          "name": "slotSize",
          "type": "uint256"
        }
      ],
      "name": "isAllowedWhitelistSlotSize",
      "outputs": [
        {
          "internalType": "bool",
          "name": "",
          "type": "bool"
        }
      ],
      "stateMutability": "view",
      "type": "function"
    },
    {
      "inputs": [
        {
          "internalType": "uint256",
          "name": "threshold",
          "type": "uint256"
        }
      ],
      "name": "isAllowedWhitelistThreshold",
      "outputs": [
        {
          "internalType": "bool",
          "name": "",
          "type": "bool"
        }
      ],
      "stateMutability": "view",
      "type": "function"
    },
    {
      "inputs": [
        {
          "internalType": "address",
          "name": "",
          "type": "address"
        },
        {
          "internalType": "uint256",
          "name": "",
          "type": "uint256"
        }
      ],
      "name": "launchesByCreator",
      "outputs": [
        {
          "internalType": "address",
          "name": "",
          "type": "address"
        }
      ],
      "stateMutability": "view",
      "type": "function"
    },
    {
      "inputs": [
        {
          "internalType": "address",
          "name": "creator_",
          "type": "address"
        }
      ],
      "name": "launchesOf",
      "outputs": [
        {
          "internalType": "address[]",
          "name": "",
          "type": "address[]"
        }
      ],
      "stateMutability": "view",
      "type": "function"
    },
    {
      "inputs": [
        {
          "internalType": "address",
          "name": "",
          "type": "address"
        }
      ],
      "name": "modeOf",
      "outputs": [
        {
          "internalType": "enum LaunchFactory.LaunchMode",
          "name": "",
          "type": "uint8"
        }
      ],
      "stateMutability": "view",
      "type": "function"
    },
    {
      "inputs": [],
      "name": "owner",
      "outputs": [
        {
          "internalType": "address",
          "name": "",
          "type": "address"
        }
      ],
      "stateMutability": "view",
      "type": "function"
    },
    {
      "inputs": [
        {
          "internalType": "address",
          "name": "",
          "type": "address"
        }
      ],
      "name": "pendingModeOf",
      "outputs": [
        {
          "internalType": "enum LaunchFactory.LaunchMode",
          "name": "",
          "type": "uint8"
        }
      ],
      "stateMutability": "view",
      "type": "function"
    },
    {
      "inputs": [],
      "name": "protocolFeeRecipient",
      "outputs": [
        {
          "internalType": "address",
          "name": "",
          "type": "address"
        }
      ],
      "stateMutability": "view",
      "type": "function"
    },
    {
      "inputs": [],
      "name": "reconcileUnexpectedNative",
      "outputs": [
        {
          "internalType": "uint256",
          "name": "amount",
          "type": "uint256"
        }
      ],
      "stateMutability": "nonpayable",
      "type": "function"
    },
    {
      "inputs": [],
      "name": "renounceOwnership",
      "outputs": [],
      "stateMutability": "nonpayable",
      "type": "function"
    },
    {
      "inputs": [],
      "name": "router",
      "outputs": [
        {
          "internalType": "address",
          "name": "",
          "type": "address"
        }
      ],
      "stateMutability": "view",
      "type": "function"
    },
    {
      "inputs": [
        {
          "internalType": "address",
          "name": "newRecipient",
          "type": "address"
        }
      ],
      "name": "setProtocolFeeRecipient",
      "outputs": [],
      "stateMutability": "nonpayable",
      "type": "function"
    },
    {
      "inputs": [],
      "name": "standardCreateFee",
      "outputs": [
        {
          "internalType": "uint256",
          "name": "",
          "type": "uint256"
        }
      ],
      "stateMutability": "view",
      "type": "function"
    },
    {
      "inputs": [],
      "name": "standardDeployer",
      "outputs": [
        {
          "internalType": "address",
          "name": "",
          "type": "address"
        }
      ],
      "stateMutability": "view",
      "type": "function"
    },
    {
      "inputs": [],
      "name": "taxedDeployer",
      "outputs": [
        {
          "internalType": "address",
          "name": "",
          "type": "address"
        }
      ],
      "stateMutability": "view",
      "type": "function"
    },
    {
      "inputs": [],
      "name": "totalLaunches",
      "outputs": [
        {
          "internalType": "uint256",
          "name": "",
          "type": "uint256"
        }
      ],
      "stateMutability": "view",
      "type": "function"
    },
    {
      "inputs": [
        {
          "internalType": "address",
          "name": "newOwner",
          "type": "address"
        }
      ],
      "name": "transferOwnership",
      "outputs": [],
      "stateMutability": "nonpayable",
      "type": "function"
    },
    {
      "inputs": [],
      "name": "whitelistCreateFee",
      "outputs": [
        {
          "internalType": "uint256",
          "name": "",
          "type": "uint256"
        }
      ],
      "stateMutability": "view",
      "type": "function"
    },
    {
      "inputs": [],
      "name": "whitelistDeployer",
      "outputs": [
        {
          "internalType": "address",
          "name": "",
          "type": "address"
        }
      ],
      "stateMutability": "view",
      "type": "function"
    },
    {
      "inputs": [],
      "name": "whitelistTaxedDeployer",
      "outputs": [
        {
          "internalType": "address",
          "name": "",
          "type": "address"
        }
      ],
      "stateMutability": "view",
      "type": "function"
    }
  ],
  "bytecode": "0x610180604052346200045e57620045c280380390816200001f8162000463565b9182396101808183810103126200045e576200003b816200049f565b62000049602083016200049f565b9062000058604084016200049f565b9362000067606085016200049f565b9462000076608086016200049f565b906200008560a087016200049f565b906200009460c088016200049f565b60e088015192610100890151946101208a0151966101408b015160018060401b0381116200045e57620000cd90828d01908d01620004b4565b6101608c0151909b906001600160401b0381116200045e57620000f49282019101620004b4565b976001600160a01b038116156200044557600080546001600160a01b039283166001600160a01b03198216811783556040519390929116907f8be0079c531659141344cd1fd0a4f28419497f9722a3daafe3b4186f6b6457e09080a36001600160a01b038a1615801562000433575b801562000421575b80156200040f575b8015620003fd575b620003ee57508615620003dc578951158015620003d2575b620001db5760005b8a51811015620001ed57620001b1818c6200051d565b51908115620001db57600191600052818060205260406000209060ff19825416179055016200019b565b60405163353d2ee360e11b8152600490fd5b508a60005b8951811015620002325762000208818b6200051d565b51908115620001db57600191600052600260205260406000208260ff1982541617905501620001f2565b5060808a905260a05260c05260e052610100526001600160a01b038116620003cc575073c4187be6b362df625696d4a9ec5e6fa461cc03145b600380546001600160a01b0319166001600160a01b039290921691909117905561014052610160526101205260405161407990816200054982396080518181816102600152818161219c01528181612499015281816126a501528181612ace01528181612df40152818161308f0152613d3b015260a051818181610c49015281816122150152613111015260c051818181611448015281816125380152612746015260e0518181816113c801528181612b6e0152612ea101526101005181818161088b015261368d01526101205181818161140f015281816121c3015281816124c0015281816126cc01528181612af601528181612e1b015281816130b70152613cc00152610140518181816118e601528181611f330152818161211401528181612a3201528181612d57015261300001526101605181818161085201528181611f020152818161240a01528181612613015281816128cc0152612c810152f35b6200026b565b5087511562000193565b604051630d956e1760e21b8152600490fd5b63d92e233d60e01b8152600490fd5b506001600160a01b038416156200017b565b506001600160a01b0383161562000173565b506001600160a01b038216156200016b565b506001600160a01b038c161562000163565b604051631e4fbdf760e01b815260006004820152602490fd5b600080fd5b6040519190601f01601f191682016001600160401b038111838210176200048957604052565b634e487b7160e01b600052604160045260246000fd5b51906001600160a01b03821682036200045e57565b81601f820112156200045e578051916020916001600160401b03841162000489578360051b908380620004e981850162000463565b8097815201928201019283116200045e578301905b8282106200050d575050505090565b81518152908301908301620004fe565b8051821015620005325760209160051b010190565b634e487b7160e01b600052603260045260246000fdfe60c060405260048036101561001357600080fd5b60003560e01c80630a002713146117f35780630e883f8b146117d5578063100ed9541461156f57806311344cac146114dc578063136689951461149a578063151629c614610a9a5780632dc80bd61461147757806337eb7e011461143257806339931527146113f75780633edf108e146113b257806341d6e9d31461136a57806341fb44ac146111ab5780634ad82e66146111525780634f25d38e1461110557806361f9aad114610ffa57806364df049e14610fd15780636b1b953614610f63578063715018a614610f1c5780637b90002314610e695780637dd8a35e14610ddc5780638d1ad6e014610dac5780638da5cb5b14610d8357806391e234d914610c785780639b57f42814610c33578063a36cdf9914610bc0578063a84b46fc14610b73578063b119b57b14610b31578063b2d042e314610a9f578063b2db919b14610a9a578063bd2f1c7a146109d0578063c767a595146109b2578063cca8fab51461098f578063d1bde3c8146108ea578063d201207c146108ba578063dae335a814610875578063df407c4c1461083a578063e00705fe14610767578063e1ca4294146106e5578063e521cb9214610650578063e5d7abad14610621578063ec484490146104aa578063ef08626e14610327578063ef1b720314610304578063f2fde38b1461028f578063f887ea401461024a5763faf7e3bd1461021757600080fd5b346102455760203660031901126102455735600d8110156102455761023d602091611ecd565b604051908152f35b600080fd5b34610245576000366003190112610245576040517f00000000000000000000000000000000000000000000000000000000000000006001600160a01b03168152602090f35b5034610245576020366003190112610245576102a961184c565b6102b1612929565b6001600160a01b039081169182156102ec57506000548260018060a01b031982161760005516600080516020614024833981519152600080a3005b602490600060405191631e4fbdf760e01b8352820152fd5b3461024557602036600319011261024557602061023d61032261184c565b611f72565b61033036611b50565b959298949798969193909633600052600660205260406000205460208201359061035987611d8d565b90604051809160208201936040870135868835463395610379968a611e89565b03601f198101825261038b9082611c96565b5190209961039c6060840184611d58565b9490956103a889611d8d565b976103b560208b01611d8d565b9a6103c260408c01611d8d565b9a6060016103cf90611c05565b9f6040516080526080516103e290611c19565b36906103ed92611db7565b6080515236906103fc92611db7565b60805160200152369061040e92611db7565b60805160400152813560805160600152608051608001526040013560805160a00152369061043b92611dee565b60805160c0015261ffff928380921660805160e00152166080516101000152166080516101200152600160a01b600190038094166080516101400152369061048292611db7565b6080516101600152608051610180015260805161049e90612c27565b60405191168152602090f35b6104b336611b50565b95929894979896919390963360005260066020526040600020546020820135906104dc87611d8d565b906040518091602082019360408701358688354633956104fc968a611e89565b03601f198101825261050e9082611c96565b5190209961051f6060840184611d58565b94909561052b89611d8d565b9761053860208b01611d8d565b9a61054560408c01611d8d565b9a60600161055290611c05565b9f60405160a05260a05161056590611c19565b369061057092611db7565b60a05152369061057f92611db7565b60a05160200152369061059192611db7565b60a05160400152813560a0516060015260a051608001526040013560a05160a0015236906105be92611dee565b60a05160c0015261ffff928380921660a05160e001521660a05161010001521660a0516101200152600160a01b6001900380941660a0516101400152369061060592611db7565b60a051610160015260a051610180015260a05161049e90612880565b3461024557600036600319011261024557602060405173c4187be6b362df625696d4a9ec5e6fa461cc03148152f35b50346102455760203660031901126102455761066a61184c565b610672612929565b6001600160a01b039081169182156106d65780546106c75750816003549182167fd3890fc76afcfc31cba1dcf2c27b50e2541e4d75039c981855b5b5e03682aea0600080a36001600160a01b03191617600355005b604051631f462ad960e11b8152fd5b60405163d92e233d60e01b8152fd5b5060a0366003190112610245576001600160401b038135818111610245576107109036908401611862565b91602435818111610245576107289036908601611862565b91604435908111610245576107539561074391369101611862565b9290916084359560643595612ff2565b9061076360405192839283611b35565b0390f35b5060e0366003190112610245576001600160401b03908035828111610245576107939036908301611862565b602435848111610245576107aa9036908501611862565b604435958611610245576107c661082895602097369101611862565b6107ce611b02565b916107d7611b13565b936107e0611b24565b956107e961188f565b973360005260068c5260406000205460405161081f818f8a6108119183019546903388611e54565b03601f198101835282611c96565b51902099612a0a565b6040516001600160a01b039091168152f35b346102455760003660031901126102455760206040517f00000000000000000000000000000000000000000000000000000000000000008152f35b34610245576000366003190112610245576040517f00000000000000000000000000000000000000000000000000000000000000006001600160a01b03168152602090f35b503461024557602036600319011261024557356000526002602052602060ff604060002054166040519015158152f35b506080366003190112610245576001600160401b038135818111610245576109159036908401611862565b916024358181116102455761092d9036908601611862565b91604435908111610245576107539561094891369101611862565b929091336000526006602052604060002054956040519661098288610974602082019346903386611cf0565b03601f1981018a5289611c96565b6064359751902095612ff2565b602061082861099d36611909565b9a9990999891989792979693969594956125f1565b50346102455760003660031901126102455760209054604051908152f35b50610100366003190112610245576001600160401b038135818111610245576109fc9036908401611862565b9160243581811161024557610a149036908601611862565b90916044359081116102455761075395610a3091369101611862565b610a38611b02565b90610a41611b13565b92610a4a611b24565b94610a5361188f565b96336000526006602052604060002054996040519a610a8d8c610a7e89602083019446903387611e54565b038d601f19820190528d611c96565b60e4359b51902099612d2f565b6118ce565b50610120366003190112610245576001600160401b03813581811161024557610acb9036908401611862565b9160243581811161024557610ae39036908601611862565b90916044359081116102455761075395610aff91369101611862565b610b07611b02565b90610b10611b13565b92610b19611b24565b94610b2261188f565b96610104359960e43599612d2f565b34610245576020366003190112610245576001600160a01b03610b5261184c565b16600052600860205261076360ff60406000205416604051918291826118a5565b6020610828610b81366119c8565b989790979691969592959493943360005260068d52604060002054604051610bb78f6108118c8c8c86948501974690338a611d21565b5190209a6123ed565b503461024557600036600319011261024557610bda612d10565b8015610c235781610bee8260209454611ccd565b90556040518181527fa1e4c790cc8a017f9b597b92150a8a880324350496397bbb8fd774f571e710df833392a2604051908152f35b506040516312d37ee560e31b8152fd5b34610245576000366003190112610245576040517f00000000000000000000000000000000000000000000000000000000000000006001600160a01b03168152602090f35b610c8136611a54565b9792936060819b9a9b9896939897929701610c9c9082611d58565b929093610ca887611d8d565b95610cb560208901611d8d565b98610cc260408a01611d8d565b98606001610ccf90611c05565b9e6040519e8f91610cdf83611c19565b3690610cea92611db7565b90523690610cf792611db7565b60208d01523690610d0792611db7565b60408b0152803560608b0152602081013560808b01526040013560a08a01523690610d3192611dee565b60c088015261ffff90811660e0880152918216610100870152166101208501526001600160a01b03948516610140850152610d6e91369190611db7565b61016083015261018082015261049e90612c27565b34610245576000366003190112610245576000546040516001600160a01b039091168152602090f35b503461024557602036600319011261024557356000526001602052602060ff604060002054166040519015158152f35b50610100366003190112610245576001600160401b0390803582811161024557610e099036908301611862565b60243584811161024557610e209036908501611862565b60443595861161024557610e3c61082895602097369101611862565b610e44611b02565b91610e4d611b13565b93610e56611b24565b95610e5f61188f565b9760e43599612a0a565b3461024557602080600319360112610245576001600160a01b039081610e8d61184c565b1660005260068152604060002060405191828183549182815201908193600052826000209060005b818110610f065750505083610ecb910384611c96565b60405192818401908285525180915260408401929160005b828110610ef05785850386f35b8351871685529381019392810192600101610ee3565b8254881684529284019260019283019201610eb5565b3461024557600036600319011261024557610f35612929565b600080546001600160a01b0319811682556001600160a01b03166000805160206140248339815191528280a3005b506080366003190112610245576001600160401b0390803582811161024557610f8f9036908301611862565b60243584811161024557610fa69036908501611862565b60449291923595861161024557610fc561082895602097369101611862565b93909260643595612101565b34610245576000366003190112610245576003546040516001600160a01b039091168152602090f35b61100336611a54565b9792936060819b9a9b989693989792970161101e9082611d58565b92909361102a87611d8d565b9561103760208901611d8d565b9861104460408a01611d8d565b9860600161105190611c05565b9e6040519e8f9161106183611c19565b369061106c92611db7565b9052369061107992611db7565b60208d0152369061108992611db7565b60408b0152803560608b0152602081013560808b01526040013560a08a015236906110b392611dee565b60c088015261ffff90811660e0880152918216610100870152166101208501526001600160a01b039485166101408501526110f091369190611db7565b61016083015261018082015261049e90612880565b6020610828611113366119c8565b989790979691969592959493943360005260068d526040600020546040516111498f6108118c8c8c86948501974690338a611d21565b5190209a6125f1565b346102455760403660031901126102455761116b61184c565b6024359060018060a01b038091166000526006602052604060002080548310156102455760209261119b9161199a565b9190546040519260031b1c168152f35b5034610245576020806003193601126102455781356001600160401b038111610245576111db903690840161181c565b90916000926000926000915b8183106111fd5760408686868351928352820152f35b9394919390916001600160a01b0361121e611219878686611bf5565b611c05565b16806000526007855260ff60406000205416600d811015611355571561134457604051639111f13d60e01b815285818a81855afa9081156112f85760009161130f575b501561130457908460009289604051809581936329c3300360e11b83525af19081156112f8576000916112c7575b6112999250611ccd565b94600181018091116112b257600190945b0191906111e7565b601187634e487b7160e01b6000525260246000fd5b90508482813d83116112f1575b6112de8183611c96565b810103126102455761129991519061128f565b503d6112d4565b6040513d6000823e3d90fd5b5094936001906112aa565b90508581813d831161133d575b6113268183611c96565b810103126102455761133790611d14565b38611261565b503d61131c565b604051631ed00d7f60e31b81528890fd5b602189634e487b7160e01b6000525260246000fd5b50346102455760203660031901126102455735600554811015610245576005600052600080516020613fe483398151915201546040516001600160a01b039091168152602090f35b34610245576000366003190112610245576040517f00000000000000000000000000000000000000000000000000000000000000006001600160a01b03168152602090f35b346102455760003660031901126102455760206040517f00000000000000000000000000000000000000000000000000000000000000008152f35b34610245576000366003190112610245576040517f00000000000000000000000000000000000000000000000000000000000000006001600160a01b03168152602090f35b602061082861148536611909565b9a9990999891989792979693969594956123ed565b34610245576020366003190112610245576001600160a01b036114bb61184c565b16600052600760205261076360ff60406000205416604051918291826118a5565b506060366003190112610245576001600160401b03908035828111610245576115089036908301611862565b6024358481116102455761151f9036908501611862565b6044929192359586116102455761153e61082895602097369101611862565b9390923360005260068852604060002054604051611566816108118c82019446903387611cf0565b51902095612101565b50346102455760403660031901126102455780356001600160401b0381116102455761159e903690830161181c565b602492909183356001600160a01b03818116939184900361024557600094600094600391836003541633036117c55781156117b45794939291906000955b8087106115f3576040898982519182526020820152f35b90919293949596978461160a6112198a858b611bf5565b1690816000526020906007825260ff60406000205416600d8110156117a057156113445760405163326f824f60e11b815282818a81875afa9081156112f85760009161176b575b50878088541691160361175a57604051636711456960e11b815282818a81875afa9081156112f85760009161172d575b50156117205781858d8a60006040519788948593624372e560e51b85528401525af19182156112f8576000926116ee575b506116bd9250611ccd565b97600181018091116116da57600190975b019594939291906115dc565b89601187634e487b7160e01b600052526000fd5b90915082813d8311611719575b6117058183611c96565b81010312610245576116bd915190386116b2565b503d6116fb565b99989050600191506116ce565b90508281813d8311611753575b6117448183611c96565b81010312610245575138611681565b503d61173a565b60405163b015ea8b60e01b81528890fd5b90508281813d8311611799575b6117828183611c96565b810103126102455761179390611cb9565b38611651565b503d611778565b8c60218a634e487b7160e01b600052526000fd5b60405163d92e233d60e01b81528590fd5b6040516282b42960e81b81528590fd5b34610245576000366003190112610245576020600554604051908152f35b346102455760003660031901126102455760035460209061023d906001600160a01b0316611f72565b9181601f84011215610245578235916001600160401b038311610245576020808501948460051b01011161024557565b600435906001600160a01b038216820361024557565b9181601f84011215610245578235916001600160401b038311610245576020838186019501011161024557565b60c435906001600160a01b038216820361024557565b91906020830192600d8210156118b85752565b634e487b7160e01b600052602160045260246000fd5b346102455760003660031901126102455760206040517f00000000000000000000000000000000000000000000000000000000000000008152f35b610100600319820112610245576001600160401b0390600435828111610245578161193691600401611862565b93909392602435818111610245578361195191600401611862565b93909392604435838111610245578261196c91600401611862565b93909392606435926084359260a4359260c435918211610245576119929160040161181c565b909160e43590565b80548210156119b25760005260206000200190600090565b634e487b7160e01b600052603260045260246000fd5b60e0600319820112610245576001600160401b039060043582811161024557816119f491600401611862565b939093926024358181116102455783611a0f91600401611862565b939093926044358381116102455782611a2a91600401611862565b93909392606435926084359260a4359260c43591821161024557611a509160040161181c565b9091565b6003199161014082840112610245576001600160401b0390600480358381116102455784611a83918301611862565b959095946024358581116102455781611a9d918501611862565b959095946044358281116102455783611ab7918701611862565b9590959460643590848211610245576080908287030112610245578101936080608319820112610245576084936101043590811161024557611af99201611862565b90916101243590565b6064359061ffff8216820361024557565b6084359061ffff8216820361024557565b60a4359061ffff8216820361024557565b6001600160a01b039091168152602081019190915260400190565b6003199161012082840112610245576001600160401b0390600480358381116102455784611b7f918301611862565b959095946024358581116102455781611b99918501611862565b959095946044358281116102455783611bb3918701611862565b9590959460643590848211610245576080908287030112610245578101936080608319820112610245576084936101043590811161024557611a509201611862565b91908110156119b25760051b0190565b356001600160a01b03811681036102455790565b6101a081019081106001600160401b03821117611c3557604052565b634e487b7160e01b600052604160045260246000fd5b61014081019081106001600160401b03821117611c3557604052565b6101c081019081106001600160401b03821117611c3557604052565b6001600160401b038111611c3557604052565b601f909101601f19168101906001600160401b03821190821017611c3557604052565b51906001600160a01b038216820361024557565b91908201809211611cda57565b634e487b7160e01b600052601160045260246000fd5b60609194936001936080830196858060a01b03168352602083015260408201520152565b5190811515820361024557565b9260c094919796959260e085019860018060a01b031685526020850152604084015260026060840152608083015260a08201520152565b903590601e198136030182121561024557018035906001600160401b03821161024557602001918160051b3603831361024557565b3561ffff811681036102455790565b6001600160401b038111611c3557601f01601f191660200190565b929192611dc382611d9c565b91611dd16040519384611c96565b829481845281830111610245578281602093846000960137010152565b9092916001600160401b038411611c35578360051b6020926020604051611e1782850182611c96565b809781520191810192831161024557905b828210611e355750505050565b81356001600160a01b0381168103610245578152908301908301611e28565b6001600160a01b039091168152602081019190915260408101919091526003606082015261ffff909116608082015260a00190565b95919360e0959198979361ffff9561010089019a60018060a01b031689526020890152604088015260046060880152608087015260a086015260c085015216910152565b600d811015806118b857600182148015611f55575b611f2f576118b85760028114908115611f24575b50611f0057600090565b7f000000000000000000000000000000000000000000000000000000000000000090565b600c91501438611ef6565b50507f000000000000000000000000000000000000000000000000000000000000000090565b5050600060038210158015611ee25750506000600b821115611ee2565b6003549091906001600160a01b039081163303611ffa5782168015611fe857600454928315611fd65783611faa916000600455613242565b7fe520b2225629f84907c5bd92fb58063336ec178dcdc13d436213de8a6b2b22156020604051858152a2565b6040516312d37ee560e31b8152600490fd5b60405163d92e233d60e01b8152600490fd5b6040516282b42960e81b8152600490fd5b60005b83811061201e5750506000910152565b818101518382015260200161200e565b906020916120478151809281855285808601910161200b565b601f01601f1916010190565b6020815281516120a56120746101409283602086015261016085019061202e565b612090602086015191601f19928387830301604088015261202e565b9060408601519085830301606086015261202e565b92606081015160018060a01b0380911660808501528060808301511660a08501528060a08301511660c085015260c08201511660e084015260e081015161010090818501528101519060ff610120921682850152015191015290565b60206122116000969795949399986121387f00000000000000000000000000000000000000000000000000000000000000006132c5565b806122c8575b506003546040516001600160a01b0392909183166121678e61215f85611c4b565b369089611db7565b8352612174368a8a611db7565b83870152612183368b8e611db7565b604084015233606084015230608084015260a0830152827f00000000000000000000000000000000000000000000000000000000000000001660c08301527f000000000000000000000000000000000000000000000000000000000000000060e0830152600161010083015261012082015260405198898094819363669e6d9d60e11b835260048301612053565b03927f0000000000000000000000000000000000000000000000000000000000000000165af19485156112f857600095612279575b509461226761226f9261225f61227798889b3691611db7565b943691611db7565b933691611db7565b92339061338f565b565b959094506020863d6020116122c0575b8161229660209383611c96565b810103126102455761226761226f9261225f6122b461227799611cb9565b97939850509250612246565b3d9150612289565b6122d29033613242565b3861213e565b6020918282528051906122f86101c09283868601526101e085019061202e565b61232a6123168684015192601f19938488830301604089015261202e565b60408401518387830301606088015261202e565b60608301519060018060a01b0380921660808701528160808501511660a08701528160a08501511660c08701528160c08501511660e087015260e08401516101009081880152840151610120908188015284015161014090818801528401516101609081880152840151966101809387830301848801528080895193848152019801926000905b8382106123d45750505050508101519060ff6101a0921682850152015191015290565b845181168a5298820198938201936001909101906123b1565b9497819c9b9397859b92959a93976124058282613530565b61242e7f00000000000000000000000000000000000000000000000000000000000000006132c5565b806125e1575b506003546040519c6001600160a01b0398918916918e919061245583611c67565b36612460918d611db7565b825261246d368e8e611db7565b60208301528d369061247e92611db7565b90604001528c3390606001528c30906080015260a08d0152867f00000000000000000000000000000000000000000000000000000000000000001660c08d01527f000000000000000000000000000000000000000000000000000000000000000060e08d01526101008c01526101208b01526101408a0152369061250192611dee565b61016088015260026101808801526101a0870152604051631aeb298160e21b8152958690819061253490600483016122d8565b03917f00000000000000000000000000000000000000000000000000000000000000001691815a602094600091f19485156112f857600095612592575b509461226761258a9261225f61227798889b3691611db7565b923390613426565b959094506020863d6020116125d9575b816125af60209383611c96565b810103126102455761226761258a9261225f6125cd61227799611cb9565b97939850509250612571565b3d91506125a2565b6125eb9033613242565b38612434565b989b9a909b9695969493929442891161286e5761260e8789613530565b6126377f00000000000000000000000000000000000000000000000000000000000000006132c5565b9a878c0361285c578a998e98600160a01b600190039a8b6003541660409e8f9081519d6126638f611c67565b369061266e92611db7565b8d528c61267c368e8c611db7565b90602001523661268d908c8c611db7565b908d01523360608d01523060808d015260a08c01528b7f00000000000000000000000000000000000000000000000000000000000000001660c08c01527f000000000000000000000000000000000000000000000000000000000000000060e08c01526101008b01526101208a0152610140890152369061270d92611dee565b61016087015260026101808701526101a08601528751631aeb298160e21b815294859061273d90600483016122d8565b039660009786887f00000000000000000000000000000000000000000000000000000000000000001691818b5a94602095f19586156128525788966127fb575b50916127a06127a8926127986127b0979695899f3691611db7565b953691611db7565b923691611db7565b913385613426565b16803b156127f7578190602484518096819363d9d5a9f360e01b83523360048401525af19182156127ed5750506127e45750565b61227790611c83565b51903d90823e3d90fd5b5080fd5b9095506020813d60201161284a575b8161281760209383611c96565b8101031261284657916127a06127a8926127986128386127b0989796611cb9565b98939596975050925061277d565b8780fd5b3d915061280a565b89513d8a823e3d90fd5b604051636b3f890b60e11b8152600490fd5b604051630392b25960e31b8152600490fd5b906128b461ffff8060e08501511690806101008601511690610120860151169060018060a01b03610140870151169261357d565b6128c76060830151608084015190613530565b6128f07f00000000000000000000000000000000000000000000000000000000000000006132c5565b80612919575b5061227761290383613673565b928051906040602082015191015191338661346f565b6129239033613242565b386128f6565b6000546001600160a01b0316330361293d57565b60405163118cdaa760e01b8152336004820152602490fd5b6020815281516129766120746101c0928360208601526101e085019061202e565b9260608101519060018060a01b0380921660808501528160808201511660a08501528160a08201511660c08501528160c08201511660e085015260e0810151610100908186015281015160ff61012091168186015281015161014061ffff809216818701528201518161016091168187015282015190610180911681860152810151916101a0921682850152015191015290565b929495969a99909a9897919398612a2088613f4a565b98612a2d8185848c61357d565b612a567f00000000000000000000000000000000000000000000000000000000000000006132c5565b80612c17575b506003546001600160a01b039490851690600d8c10156118b8578c9a8f929487956040519d8e95612a8c87611c67565b36612a97918d611db7565b8652612aa4368e8e611db7565b60208701528d3690612ab592611db7565b604086015233606086015230608086015260a0850152857f00000000000000000000000000000000000000000000000000000000000000001660c08501528d7f000000000000000000000000000000000000000000000000000000000000000060e086015260ff1661010085015261ffff9384809316906101200152166101408c0152166101608a0152166101808801526101a087015260405180809763a2b998b760e01b82526004820190612b6a91612955565b03917f00000000000000000000000000000000000000000000000000000000000000001691815a602094600091f19485156112f857600095612bc8575b5095612267612bc09261225f61227799889c3691611db7565b923390613496565b969094506020873d602011612c0f575b81612be560209383611c96565b8101031261024557612267612bc09261225f612c036122779a611cb9565b97939950509250612ba7565b3d9150612bd8565b612c219033613242565b38612a5c565b9061ffff612c5b8160e0850151168261010086015116926101208601511660018060a01b039384610140880151169261357d565b606083015190612c716080850192835190613530565b60a0840151421061286e57612ca57f00000000000000000000000000000000000000000000000000000000000000006132c5565b9151820361285c57612ccf612cb985613673565b948051906040602082015191015191338861346f565b8316803b156102455760009060246040518094819363d9d5a9f360e01b83523360048401525af180156112f8576127e45750565b91908203918211611cda57565b4760045480821115612d2857612d2591612d03565b90565b5050600090565b9986999c9b9798919c9695949396612d5281848c612d4c8b613f4a565b9a61357d565b612d7b7f00000000000000000000000000000000000000000000000000000000000000006132c5565b998a15612fe0576003546001600160a01b031693600d8910156118b8578f949c612e929d8f612db89060405198612db18a611c67565b3691611db7565b8752612dc5368d8a611db7565b6020880152612dd5368b8b611db7565b604088015233606088015230608088015260a087015260018060a01b037f00000000000000000000000000000000000000000000000000000000000000001660c08701527f000000000000000000000000000000000000000000000000000000000000000060e087015260ff8a1661010087015261ffff9283809216610120880152166101408601521661016084015260018060a01b03166101808301526101a082015260405198899163a2b998b760e01b835260048301612955565b60009a916020918b919003818d7f00000000000000000000000000000000000000000000000000000000000000006001600160a01b03165af1988915612fd5578a99612f95575b50889b3690612ee792611db7565b943690612ef392611db7565b913690612eff92611db7565b903393612f0c9488613496565b604051633391832760e11b815292839182908190612f2e903360048401611b35565b6001600160a01b03909316949203915a94602095f1918215612f89578092612f5557505090565b9091506020823d602011612f81575b81612f7160209383611c96565b81010312612f7e57505190565b80fd5b3d9150612f64565b604051903d90823e3d90fd5b9098506020813d602011612fcd575b81612fb160209383611c96565b81010312612fc957612fc290611cb9565b9738612ed9565b8980fd5b3d9150612fa4565b6040513d8c823e3d90fd5b6040516332a3e9bb60e01b8152600490fd5b9795919290969394976130247f00000000000000000000000000000000000000000000000000000000000000006132c5565b948515612fe057600160a01b600190039283600354169a60409889519761304a89611c4b565b613055368e88611db7565b8952613062368583611db7565b9760209e8f998a8c015236613078908686611db7565b8b8e01523360608c01523060808c015260a08b01527f0000000000000000000000000000000000000000000000000000000000000000881660c08b01527f000000000000000000000000000000000000000000000000000000000000000060e08b015260016101008b01526101208a01528a5163669e6d9d60e11b81529d8e998a906131079060048301612053565b039960009a818c8b7f0000000000000000000000000000000000000000000000000000000000000000165af19586156132385789966131f2575b88999a9b9c9d9e50869e369061315692611db7565b93369061316292611db7565b91369061316e92611db7565b90339261317b938661338f565b8751633391832760e11b81529687938492839061319c903360048401611b35565b0393165af19384156131e7575081936131b6575b50505090565b9091809350813d83116131e0575b6131ce8183611c96565b81010312612f7e5750513880806131b0565b503d6131c4565b51913d9150823e3d90fd5b9550878e813d8311613231575b6132098183611c96565b8101031261322d5761322088999a9b9c9d9e611cb9565b958e9d9c9b9a9950613141565b8880fd5b503d6131ff565b8b513d8b823e3d90fd5b8147106132a657604051602081016001600160401b03811182821017611c3557604052600080809481948280955260018060a01b03165af1156132825750565b3d1561329457604051903d90823e3d90fd5b60405163d6bda27560e01b8152600490fd5b60405163cf47918160e01b815247600482015260248101839052604490fd5b8034106132f05780612d25916132dc575b34612d03565b6132e881600454611ccd565b6004556132d6565b604051638d466a2f60e01b8152600490fd5b600554600160401b811015611c355760018101806005558110156119b2576005600052600080516020613fe48339815191520180546001600160a01b0319166001600160a01b03909216919091179055565b8054600160401b811015611c35576133719160018201815561199a565b60018060a09493941b038084549260031b9316831b921b1916179055565b9161340590613421600196613413600080516020614004833981519152956133b688613302565b898060a01b03809116978860005260066020526133d7816040600020613354565b169788600052600760205260406000208a60ff1982541617905560405195869560608752606087019061202e565b90858203602087015261202e565b90838203604085015261202e565b0390a4565b91613405906134216002966134136000805160206140048339815191529561344d88613302565b60018060a01b03809116978860005260066020526133d7816040600020613354565b9161340590613421600c966134136000805160206140048339815191529561344d88613302565b9390926134a285613302565b60018060a01b038094169360009585875260066020526134c58160408920613354565b169485815260076020526040812090600d88101561351c57506134059261341360008051602061400483398151915295936134219360ff80198254169b16809b17905560405195869560608752606087019061202e565b634e487b7160e01b81526021600452602490fd5b600052600160205260ff6040600020541615908115613563575b5061355157565b60405163353d2ee360e11b8152600490fd5b9050600052600260205260ff60406000205416153861354a565b61358990929192613f4a565b5061ffff908116918116820190808211611cda576127109116036135c25715908115806135e7575b6135c257816135d4575b506135c257565b60405163694f6dbf60e11b8152600490fd5b6001600160a01b031615159050386135bb565b506001600160a01b038116156135b1565b519060ff8216820361024557565b602081830312610245578051906001600160401b038211610245570181601f8201121561024557805161363881611d9c565b926136466040519485611c96565b8184526020828401011161024557612d25916020808501910161200b565b519061ffff8216820361024557565b90610160820191825151156135c25760018060a01b0392837f00000000000000000000000000000000000000000000000000000000000000001691610180810191825195815192835160208095012092604096875163a2e8bb1b60e01b815260049a8b820152602495868201528681604481855afa908115613b005791858a928994600091613f0f575b501660005260088352816000209860ff1999600c8b8254161790555193519360008d6137468551978896879586946366e5bb0560e11b86528501528c840152604483019061202e565b03925af1908115613f0457600091613ecf575b5082811695866000526007865260ff886000205416600d811015613ebb5715801590613e98575b613a545786600052600886528760002090815416905586516302d05d3f60e01b815285818b818a5afa908115613b7957600091613e63575b5083163314801590613e00575b8015613d98575b8015613d13575b8015613c9a575b8015613c30575b8015613bdb575b8015613b84575b8015613b1b575b613b0b57865163db9b541360e01b8152610120989089818c818b5afa908115613b005760008080928194613ab1575b5060a087015180613aab575042925b60608801511493841594613a9c575b508315613a91575b508215613a64575b5050613a545760005b60c084015180518210156138fa57600582901b018701518951633af32abf60e01b81529086168c820152878188818c5afa9081156138ef576000916138ba575b50156138aa5760010161385c565b885163694f6dbf60e11b81528b90fd5b908882813d83116138e8575b6138d08183611c96565b81010312612f7e57506138e290611d14565b3861389c565b503d6138c6565b8a513d6000823e3d90fd5b50509793509760c081979687519283809263c57da02960e01b82525afa938415613a4957600095868091819482986139c4575b5050159687156139ad575b508615613995575b50851561397f575b50508315613969575b50505061395c575050565b5163694f6dbf60e11b8152fd5b8192935061014001511691161415388080613951565b82015161ffff9182169116141593503880613948565b61010084015161ffff91821691161415955038613940565b60e085015161ffff91821691161415965038613938565b945097509195505060c0823d60c011613a41575b816139e560c09383611c96565b81010312612f7e5750613a026139fa82611d14565b958201613664565b93613a0e878301613664565b95613a1b60608401613664565b90613a3460a0613a2d60808701611cb9565b9501611d14565b509596909295388061392d565b3d91506139d8565b86513d6000823e3d90fd5b875163694f6dbf60e11b81528a90fd5b909150620151808201809211613a7d5714153880613853565b8660118d634e487b7160e01b600052526000fd5b82141592503861384b565b60808801511415935038613843565b92613834565b93509150508a82813d8311613af9575b613acb8183611c96565b81010312612f7e5750613add816135f8565b5080870151898201516060830151608090930151929138613825565b503d613ac1565b89513d6000823e3d90fd5b865163694f6dbf60e11b81528990fd5b50865162fb90e360e21b81526000818b818a5afa908115613b7957600091613b56575b508581519101208783015186815191012014156137f6565b613b7391503d806000833e613b6b8183611c96565b810190613606565b38613b3e565b88513d6000823e3d90fd5b5086516395d89b4160e01b81526000818b818a5afa908115613b7957600091613bc0575b508581519101208583015186815191012014156137ef565b613bd591503d806000833e613b6b8183611c96565b38613ba8565b5086516306fdde0360e01b81526000818b818a5afa908115613b7957600091613c15575b50858151910120825186815191012014156137e8565b613c2a91503d806000833e613b6b8183611c96565b38613bff565b508651630b37dd6960e41b815285818b818a5afa908115613b7957600091613c60575b5060ff16600c14156137e1565b90508581813d8311613c93575b613c778183611c96565b810103126102455760ff613c8c600c926135f8565b9150613c53565b503d613c6d565b508651633993152760e01b815285818b818a5afa908115613b7957600091613ce6575b507f000000000000000000000000000000000000000000000000000000000000000014156137da565b90508581813d8311613d0c575b613cfd8183611c96565b81010312610245575138613cbd565b503d613cf3565b5086516303e21fa960e61b815285818b818a5afa908115613b7957600091613d63575b5083167f0000000000000000000000000000000000000000000000000000000000000000841614156137d3565b90508581813d8311613d91575b613d7a8183611c96565b8101031261024557613d8b90611cb9565b38613d36565b503d613d70565b50865163326f824f60e11b815285818b818a5afa908115613b7957600091613dcb575b50838060035416911614156137cc565b90508581813d8311613df9575b613de28183611c96565b8101031261024557613df390611cb9565b38613dbb565b503d613dd8565b50865163c45a015560e01b815285818b818a5afa908115613b7957600091613e2e575b5083163014156137c5565b90508581813d8311613e5c575b613e458183611c96565b8101031261024557613e5690611cb9565b38613e23565b503d613e3b565b90508581813d8311613e91575b613e7a8183611c96565b8101031261024557613e8b90611cb9565b386137b8565b503d613e70565b50866000526008865260ff886000205416600d811015613ebb57600c1415613780565b8560218c634e487b7160e01b600052526000fd5b90508481813d8311613efd575b613ee68183611c96565b8101031261024557613ef790611cb9565b38613759565b503d613edc565b87513d6000823e3d90fd5b935050509181813d8311613f43575b613f288183611c96565b8101031261024557869185613f3d8b93611cb9565b386136fd565b503d613f1e565b61ffff1660648114613fdd5760c88114613fd75761012c8114613fd1576101908114613fcb576101f48114613fc5576102588114613fbf576102bc8114613fb9576103208114613fb35761038414613fae576040516328900fbf60e21b8152600490fd5b600b90565b50600a90565b50600990565b50600890565b50600790565b50600690565b50600590565b50600490565b5060039056fe036b6384b5eca791c62761152d0c79bb0604c104a5fb6f4eb0703f3154bb3db0b2a470af4bdbb3fda0e3ebc0d14bad66c79bef675ede7a82d1726ea951375eb78be0079c531659141344cd1fd0a4f28419497f9722a3daafe3b4186f6b6457e0a264697066735822122090df5aa66dd55244adcfad50d1e0c846738ea8fc23f492a81bc891d52a8e5f9964736f6c63430008180033",
  "linkReferences": {},
  "deployedLinkReferences": {}
}