{
  "_format": "hh-sol-artifact-1",
  "contractName": "LaunchTokenWhitelistTaxed",
  "sourceName": "contracts/LaunchTokenWhitelistTaxed.sol",
  "abi": [
    {
      "inputs": [
        {
          "components": [
            {
              "internalType": "string",
              "name": "name",
              "type": "string"
            },
            {
              "internalType": "string",
              "name": "symbol",
              "type": "string"
            },
            {
              "internalType": "string",
              "name": "metadataURI",
              "type": "string"
            },
            {
              "internalType": "address",
              "name": "creator",
              "type": "address"
            },
            {
              "internalType": "address",
              "name": "factory",
              "type": "address"
            },
            {
              "internalType": "address",
              "name": "protocolFeeRecipient",
              "type": "address"
            },
            {
              "internalType": "address",
              "name": "router",
              "type": "address"
            },
            {
              "internalType": "uint256",
              "name": "graduationQuoteReserve",
              "type": "uint256"
            },
            {
              "internalType": "uint256",
              "name": "whitelistThreshold",
              "type": "uint256"
            },
            {
              "internalType": "uint256",
              "name": "whitelistSlotSize",
              "type": "uint256"
            },
            {
              "internalType": "uint256",
              "name": "whitelistOpensAt",
              "type": "uint256"
            },
            {
              "internalType": "address[]",
              "name": "whitelistAddresses",
              "type": "address[]"
            },
            {
              "internalType": "uint8",
              "name": "launchModeId",
              "type": "uint8"
            },
            {
              "internalType": "uint16",
              "name": "taxBps",
              "type": "uint16"
            },
            {
              "internalType": "uint16",
              "name": "burnShareBps",
              "type": "uint16"
            },
            {
              "internalType": "uint16",
              "name": "treasuryShareBps",
              "type": "uint16"
            },
            {
              "internalType": "address",
              "name": "treasuryWallet",
              "type": "address"
            }
          ],
          "internalType": "struct LaunchTokenWhitelistTaxed.TaxedConstructorArgs",
          "name": "args",
          "type": "tuple"
        }
      ],
      "stateMutability": "nonpayable",
      "type": "constructor"
    },
    {
      "inputs": [],
      "name": "CanonicalTaxablePoolRequired",
      "type": "error"
    },
    {
      "inputs": [],
      "name": "CreatorFeeSweepUnavailable",
      "type": "error"
    },
    {
      "inputs": [],
      "name": "DuplicateWhitelistAddress",
      "type": "error"
    },
    {
      "inputs": [
        {
          "internalType": "address",
          "name": "spender",
          "type": "address"
        },
        {
          "internalType": "uint256",
          "name": "allowance",
          "type": "uint256"
        },
        {
          "internalType": "uint256",
          "name": "needed",
          "type": "uint256"
        }
      ],
      "name": "ERC20InsufficientAllowance",
      "type": "error"
    },
    {
      "inputs": [
        {
          "internalType": "address",
          "name": "sender",
          "type": "address"
        },
        {
          "internalType": "uint256",
          "name": "balance",
          "type": "uint256"
        },
        {
          "internalType": "uint256",
          "name": "needed",
          "type": "uint256"
        }
      ],
      "name": "ERC20InsufficientBalance",
      "type": "error"
    },
    {
      "inputs": [
        {
          "internalType": "address",
          "name": "approver",
          "type": "address"
        }
      ],
      "name": "ERC20InvalidApprover",
      "type": "error"
    },
    {
      "inputs": [
        {
          "internalType": "address",
          "name": "receiver",
          "type": "address"
        }
      ],
      "name": "ERC20InvalidReceiver",
      "type": "error"
    },
    {
      "inputs": [
        {
          "internalType": "address",
          "name": "sender",
          "type": "address"
        }
      ],
      "name": "ERC20InvalidSender",
      "type": "error"
    },
    {
      "inputs": [
        {
          "internalType": "address",
          "name": "spender",
          "type": "address"
        }
      ],
      "name": "ERC20InvalidSpender",
      "type": "error"
    },
    {
      "inputs": [],
      "name": "FailedCall",
      "type": "error"
    },
    {
      "inputs": [],
      "name": "GraduationAlreadyTriggered",
      "type": "error"
    },
    {
      "inputs": [
        {
          "internalType": "uint256",
          "name": "balance",
          "type": "uint256"
        },
        {
          "internalType": "uint256",
          "name": "needed",
          "type": "uint256"
        }
      ],
      "name": "InsufficientBalance",
      "type": "error"
    },
    {
      "inputs": [],
      "name": "InvalidGraduationConfig",
      "type": "error"
    },
    {
      "inputs": [],
      "name": "InvalidRecipient",
      "type": "error"
    },
    {
      "inputs": [],
      "name": "InvalidState",
      "type": "error"
    },
    {
      "inputs": [],
      "name": "InvalidTaxConfig",
      "type": "error"
    },
    {
      "inputs": [],
      "name": "InvalidTaxablePool",
      "type": "error"
    },
    {
      "inputs": [],
      "name": "InvalidWhitelistAddressCount",
      "type": "error"
    },
    {
      "inputs": [],
      "name": "InvalidWhitelistCommitAmount",
      "type": "error"
    },
    {
      "inputs": [],
      "name": "InvalidWhitelistOpenTime",
      "type": "error"
    },
    {
      "inputs": [],
      "name": "InvalidWhitelistSeatCount",
      "type": "error"
    },
    {
      "inputs": [],
      "name": "InvalidWhitelistSlotSize",
      "type": "error"
    },
    {
      "inputs": [],
      "name": "InvalidWhitelistThreshold",
      "type": "error"
    },
    {
      "inputs": [],
      "name": "NothingToClaim",
      "type": "error"
    },
    {
      "inputs": [],
      "name": "PairPolluted",
      "type": "error"
    },
    {
      "inputs": [],
      "name": "ReentrancyGuardReentrantCall",
      "type": "error"
    },
    {
      "inputs": [],
      "name": "SellCooldownActive",
      "type": "error"
    },
    {
      "inputs": [],
      "name": "SlippageExceeded",
      "type": "error"
    },
    {
      "inputs": [],
      "name": "TransferDisabledPreGraduation",
      "type": "error"
    },
    {
      "inputs": [],
      "name": "Unauthorized",
      "type": "error"
    },
    {
      "inputs": [],
      "name": "UnauthorizedFactoryCaller",
      "type": "error"
    },
    {
      "inputs": [],
      "name": "UnauthorizedFactoryDeployment",
      "type": "error"
    },
    {
      "inputs": [],
      "name": "UnauthorizedTaxablePoolManager",
      "type": "error"
    },
    {
      "inputs": [],
      "name": "UnauthorizedWhitelistTaxedFactoryDeployment",
      "type": "error"
    },
    {
      "inputs": [],
      "name": "WhitelistAddressNotApproved",
      "type": "error"
    },
    {
      "inputs": [],
      "name": "WhitelistAllocationUnavailable",
      "type": "error"
    },
    {
      "inputs": [],
      "name": "WhitelistAlreadyCommitted",
      "type": "error"
    },
    {
      "inputs": [],
      "name": "WhitelistNotActive",
      "type": "error"
    },
    {
      "inputs": [],
      "name": "WhitelistRefundUnavailable",
      "type": "error"
    },
    {
      "inputs": [],
      "name": "WhitelistSeatUnavailable",
      "type": "error"
    },
    {
      "inputs": [],
      "name": "WrappedQuoteTransferFailed",
      "type": "error"
    },
    {
      "inputs": [],
      "name": "ZeroAddress",
      "type": "error"
    },
    {
      "inputs": [],
      "name": "ZeroAmount",
      "type": "error"
    },
    {
      "anonymous": false,
      "inputs": [
        {
          "indexed": true,
          "internalType": "address",
          "name": "owner",
          "type": "address"
        },
        {
          "indexed": true,
          "internalType": "address",
          "name": "spender",
          "type": "address"
        },
        {
          "indexed": false,
          "internalType": "uint256",
          "name": "value",
          "type": "uint256"
        }
      ],
      "name": "Approval",
      "type": "event"
    },
    {
      "anonymous": false,
      "inputs": [
        {
          "indexed": true,
          "internalType": "address",
          "name": "buyer",
          "type": "address"
        },
        {
          "indexed": false,
          "internalType": "uint256",
          "name": "grossQuoteIn",
          "type": "uint256"
        },
        {
          "indexed": false,
          "internalType": "uint256",
          "name": "netQuoteIn",
          "type": "uint256"
        },
        {
          "indexed": false,
          "internalType": "uint256",
          "name": "protocolFee",
          "type": "uint256"
        },
        {
          "indexed": false,
          "internalType": "uint256",
          "name": "creatorFee",
          "type": "uint256"
        },
        {
          "indexed": false,
          "internalType": "uint256",
          "name": "refundAmount",
          "type": "uint256"
        },
        {
          "indexed": false,
          "internalType": "uint256",
          "name": "tokenOut",
          "type": "uint256"
        },
        {
          "indexed": false,
          "internalType": "uint256",
          "name": "newCurveQuoteReserve",
          "type": "uint256"
        },
        {
          "indexed": false,
          "internalType": "uint256",
          "name": "newSaleTokenReserve",
          "type": "uint256"
        }
      ],
      "name": "BuyExecuted",
      "type": "event"
    },
    {
      "anonymous": false,
      "inputs": [
        {
          "indexed": true,
          "internalType": "address",
          "name": "recipient",
          "type": "address"
        },
        {
          "indexed": false,
          "internalType": "uint256",
          "name": "amount",
          "type": "uint256"
        }
      ],
      "name": "CreatorFeesClaimed",
      "type": "event"
    },
    {
      "anonymous": false,
      "inputs": [
        {
          "indexed": true,
          "internalType": "address",
          "name": "caller",
          "type": "address"
        },
        {
          "indexed": false,
          "internalType": "uint256",
          "name": "amount",
          "type": "uint256"
        }
      ],
      "name": "CreatorFeesSwept",
      "type": "event"
    },
    {
      "anonymous": false,
      "inputs": [
        {
          "indexed": true,
          "internalType": "address",
          "name": "pair",
          "type": "address"
        },
        {
          "indexed": false,
          "internalType": "uint256",
          "name": "tokenAmount",
          "type": "uint256"
        },
        {
          "indexed": false,
          "internalType": "uint256",
          "name": "quoteAmountContributed",
          "type": "uint256"
        },
        {
          "indexed": false,
          "internalType": "uint256",
          "name": "preloadedQuoteAmount",
          "type": "uint256"
        },
        {
          "indexed": false,
          "internalType": "uint256",
          "name": "liquidityBurned",
          "type": "uint256"
        }
      ],
      "name": "Graduated",
      "type": "event"
    },
    {
      "anonymous": false,
      "inputs": [
        {
          "indexed": true,
          "internalType": "address",
          "name": "recipient",
          "type": "address"
        },
        {
          "indexed": false,
          "internalType": "uint256",
          "name": "amount",
          "type": "uint256"
        }
      ],
      "name": "ProtocolFeesClaimed",
      "type": "event"
    },
    {
      "anonymous": false,
      "inputs": [
        {
          "indexed": true,
          "internalType": "address",
          "name": "seller",
          "type": "address"
        },
        {
          "indexed": false,
          "internalType": "uint256",
          "name": "tokenIn",
          "type": "uint256"
        },
        {
          "indexed": false,
          "internalType": "uint256",
          "name": "grossQuoteOut",
          "type": "uint256"
        },
        {
          "indexed": false,
          "internalType": "uint256",
          "name": "netQuoteOut",
          "type": "uint256"
        },
        {
          "indexed": false,
          "internalType": "uint256",
          "name": "protocolFee",
          "type": "uint256"
        },
        {
          "indexed": false,
          "internalType": "uint256",
          "name": "creatorFee",
          "type": "uint256"
        },
        {
          "indexed": false,
          "internalType": "uint256",
          "name": "newCurveQuoteReserve",
          "type": "uint256"
        },
        {
          "indexed": false,
          "internalType": "uint256",
          "name": "newSaleTokenReserve",
          "type": "uint256"
        }
      ],
      "name": "SellExecuted",
      "type": "event"
    },
    {
      "anonymous": false,
      "inputs": [
        {
          "indexed": true,
          "internalType": "enum LaunchTokenBase.LaunchState",
          "name": "previousState",
          "type": "uint8"
        },
        {
          "indexed": true,
          "internalType": "enum LaunchTokenBase.LaunchState",
          "name": "newState",
          "type": "uint8"
        }
      ],
      "name": "StateTransition",
      "type": "event"
    },
    {
      "anonymous": false,
      "inputs": [
        {
          "indexed": true,
          "internalType": "address",
          "name": "from",
          "type": "address"
        },
        {
          "indexed": true,
          "internalType": "address",
          "name": "to",
          "type": "address"
        },
        {
          "indexed": false,
          "internalType": "uint256",
          "name": "grossAmount",
          "type": "uint256"
        },
        {
          "indexed": false,
          "internalType": "uint256",
          "name": "taxAmount",
          "type": "uint256"
        },
        {
          "indexed": false,
          "internalType": "uint256",
          "name": "burnAmount",
          "type": "uint256"
        },
        {
          "indexed": false,
          "internalType": "uint256",
          "name": "treasuryAmount",
          "type": "uint256"
        }
      ],
      "name": "TaxApplied",
      "type": "event"
    },
    {
      "anonymous": false,
      "inputs": [
        {
          "indexed": true,
          "internalType": "address",
          "name": "pool",
          "type": "address"
        },
        {
          "indexed": false,
          "internalType": "bool",
          "name": "enabled",
          "type": "bool"
        },
        {
          "indexed": false,
          "internalType": "bool",
          "name": "canonicalPair",
          "type": "bool"
        }
      ],
      "name": "TaxablePoolUpdated",
      "type": "event"
    },
    {
      "anonymous": false,
      "inputs": [
        {
          "indexed": true,
          "internalType": "address",
          "name": "from",
          "type": "address"
        },
        {
          "indexed": true,
          "internalType": "address",
          "name": "to",
          "type": "address"
        },
        {
          "indexed": false,
          "internalType": "uint256",
          "name": "value",
          "type": "uint256"
        }
      ],
      "name": "Transfer",
      "type": "event"
    },
    {
      "anonymous": false,
      "inputs": [
        {
          "indexed": true,
          "internalType": "address",
          "name": "caller",
          "type": "address"
        },
        {
          "indexed": false,
          "internalType": "uint256",
          "name": "amount",
          "type": "uint256"
        }
      ],
      "name": "UnexpectedNativeReconciled",
      "type": "event"
    },
    {
      "anonymous": false,
      "inputs": [
        {
          "indexed": true,
          "internalType": "address",
          "name": "account",
          "type": "address"
        },
        {
          "indexed": false,
          "internalType": "uint256",
          "name": "tokenAmount",
          "type": "uint256"
        }
      ],
      "name": "WhitelistAllocationClaimed",
      "type": "event"
    },
    {
      "anonymous": false,
      "inputs": [
        {
          "indexed": false,
          "internalType": "uint256",
          "name": "threshold",
          "type": "uint256"
        },
        {
          "indexed": false,
          "internalType": "uint256",
          "name": "slotSize",
          "type": "uint256"
        },
        {
          "indexed": false,
          "internalType": "uint256",
          "name": "seatCount",
          "type": "uint256"
        },
        {
          "indexed": false,
          "internalType": "uint256",
          "name": "opensAt",
          "type": "uint256"
        },
        {
          "indexed": false,
          "internalType": "uint256",
          "name": "deadline",
          "type": "uint256"
        }
      ],
      "name": "WhitelistConfigured",
      "type": "event"
    },
    {
      "anonymous": false,
      "inputs": [
        {
          "indexed": false,
          "internalType": "uint256",
          "name": "committedTotal",
          "type": "uint256"
        },
        {
          "indexed": false,
          "internalType": "uint256",
          "name": "seatsFilled",
          "type": "uint256"
        }
      ],
      "name": "WhitelistExpired",
      "type": "event"
    },
    {
      "anonymous": false,
      "inputs": [
        {
          "indexed": false,
          "internalType": "uint256",
          "name": "grossCommitted",
          "type": "uint256"
        },
        {
          "indexed": false,
          "internalType": "uint256",
          "name": "netQuoteAdded",
          "type": "uint256"
        },
        {
          "indexed": false,
          "internalType": "uint256",
          "name": "protocolFee",
          "type": "uint256"
        },
        {
          "indexed": false,
          "internalType": "uint256",
          "name": "creatorFee",
          "type": "uint256"
        },
        {
          "indexed": false,
          "internalType": "uint256",
          "name": "seatsFilled",
          "type": "uint256"
        },
        {
          "indexed": false,
          "internalType": "uint256",
          "name": "tokensPerSeat",
          "type": "uint256"
        },
        {
          "indexed": false,
          "internalType": "uint256",
          "name": "reservedTokenAmount",
          "type": "uint256"
        }
      ],
      "name": "WhitelistFinalized",
      "type": "event"
    },
    {
      "anonymous": false,
      "inputs": [
        {
          "indexed": true,
          "internalType": "address",
          "name": "account",
          "type": "address"
        },
        {
          "indexed": false,
          "internalType": "uint256",
          "name": "amount",
          "type": "uint256"
        }
      ],
      "name": "WhitelistRefundClaimed",
      "type": "event"
    },
    {
      "anonymous": false,
      "inputs": [
        {
          "indexed": true,
          "internalType": "address",
          "name": "account",
          "type": "address"
        },
        {
          "indexed": false,
          "internalType": "uint256",
          "name": "seatNumber",
          "type": "uint256"
        },
        {
          "indexed": false,
          "internalType": "uint256",
          "name": "amount",
          "type": "uint256"
        },
        {
          "indexed": false,
          "internalType": "uint256",
          "name": "committedTotal",
          "type": "uint256"
        }
      ],
      "name": "WhitelistSeatCommitted",
      "type": "event"
    },
    {
      "inputs": [],
      "name": "BPS_DENOMINATOR",
      "outputs": [
        {
          "internalType": "uint256",
          "name": "",
          "type": "uint256"
        }
      ],
      "stateMutability": "view",
      "type": "function"
    },
    {
      "inputs": [],
      "name": "CREATOR_FEE_BPS",
      "outputs": [
        {
          "internalType": "uint256",
          "name": "",
          "type": "uint256"
        }
      ],
      "stateMutability": "view",
      "type": "function"
    },
    {
      "inputs": [],
      "name": "CREATOR_FEE_SWEEP_MIN_AGE",
      "outputs": [
        {
          "internalType": "uint256",
          "name": "",
          "type": "uint256"
        }
      ],
      "stateMutability": "view",
      "type": "function"
    },
    {
      "inputs": [],
      "name": "CREATOR_FEE_SWEEP_MIN_INACTIVITY",
      "outputs": [
        {
          "internalType": "uint256",
          "name": "",
          "type": "uint256"
        }
      ],
      "stateMutability": "view",
      "type": "function"
    },
    {
      "inputs": [],
      "name": "CURVE_VIRTUAL_TOKEN_RESERVE",
      "outputs": [
        {
          "internalType": "uint256",
          "name": "",
          "type": "uint256"
        }
      ],
      "stateMutability": "view",
      "type": "function"
    },
    {
      "inputs": [],
      "name": "DEAD_ADDRESS",
      "outputs": [
        {
          "internalType": "address",
          "name": "",
          "type": "address"
        }
      ],
      "stateMutability": "view",
      "type": "function"
    },
    {
      "inputs": [],
      "name": "LP_TOKEN_RESERVE",
      "outputs": [
        {
          "internalType": "uint256",
          "name": "",
          "type": "uint256"
        }
      ],
      "stateMutability": "view",
      "type": "function"
    },
    {
      "inputs": [],
      "name": "MAX_SEATS",
      "outputs": [
        {
          "internalType": "uint256",
          "name": "",
          "type": "uint256"
        }
      ],
      "stateMutability": "view",
      "type": "function"
    },
    {
      "inputs": [],
      "name": "MAX_WHITELIST_DELAY",
      "outputs": [
        {
          "internalType": "uint256",
          "name": "",
          "type": "uint256"
        }
      ],
      "stateMutability": "view",
      "type": "function"
    },
    {
      "inputs": [],
      "name": "MAX_WHITELIST_MULTIPLE",
      "outputs": [
        {
          "internalType": "uint256",
          "name": "",
          "type": "uint256"
        }
      ],
      "stateMutability": "view",
      "type": "function"
    },
    {
      "inputs": [],
      "name": "MODE_STANDARD_0314",
      "outputs": [
        {
          "internalType": "uint8",
          "name": "",
          "type": "uint8"
        }
      ],
      "stateMutability": "view",
      "type": "function"
    },
    {
      "inputs": [],
      "name": "MODE_TAXED_1314",
      "outputs": [
        {
          "internalType": "uint8",
          "name": "",
          "type": "uint8"
        }
      ],
      "stateMutability": "view",
      "type": "function"
    },
    {
      "inputs": [],
      "name": "MODE_TAXED_2314",
      "outputs": [
        {
          "internalType": "uint8",
          "name": "",
          "type": "uint8"
        }
      ],
      "stateMutability": "view",
      "type": "function"
    },
    {
      "inputs": [],
      "name": "MODE_TAXED_3314",
      "outputs": [
        {
          "internalType": "uint8",
          "name": "",
          "type": "uint8"
        }
      ],
      "stateMutability": "view",
      "type": "function"
    },
    {
      "inputs": [],
      "name": "MODE_TAXED_4314",
      "outputs": [
        {
          "internalType": "uint8",
          "name": "",
          "type": "uint8"
        }
      ],
      "stateMutability": "view",
      "type": "function"
    },
    {
      "inputs": [],
      "name": "MODE_TAXED_5314",
      "outputs": [
        {
          "internalType": "uint8",
          "name": "",
          "type": "uint8"
        }
      ],
      "stateMutability": "view",
      "type": "function"
    },
    {
      "inputs": [],
      "name": "MODE_TAXED_6314",
      "outputs": [
        {
          "internalType": "uint8",
          "name": "",
          "type": "uint8"
        }
      ],
      "stateMutability": "view",
      "type": "function"
    },
    {
      "inputs": [],
      "name": "MODE_TAXED_7314",
      "outputs": [
        {
          "internalType": "uint8",
          "name": "",
          "type": "uint8"
        }
      ],
      "stateMutability": "view",
      "type": "function"
    },
    {
      "inputs": [],
      "name": "MODE_TAXED_8314",
      "outputs": [
        {
          "internalType": "uint8",
          "name": "",
          "type": "uint8"
        }
      ],
      "stateMutability": "view",
      "type": "function"
    },
    {
      "inputs": [],
      "name": "MODE_TAXED_9314",
      "outputs": [
        {
          "internalType": "uint8",
          "name": "",
          "type": "uint8"
        }
      ],
      "stateMutability": "view",
      "type": "function"
    },
    {
      "inputs": [],
      "name": "MODE_WHITELIST_B314",
      "outputs": [
        {
          "internalType": "uint8",
          "name": "",
          "type": "uint8"
        }
      ],
      "stateMutability": "view",
      "type": "function"
    },
    {
      "inputs": [],
      "name": "MODE_WHITELIST_TAX_F314",
      "outputs": [
        {
          "internalType": "uint8",
          "name": "",
          "type": "uint8"
        }
      ],
      "stateMutability": "view",
      "type": "function"
    },
    {
      "inputs": [],
      "name": "PROTOCOL_FEE_BPS",
      "outputs": [
        {
          "internalType": "uint256",
          "name": "",
          "type": "uint256"
        }
      ],
      "stateMutability": "view",
      "type": "function"
    },
    {
      "inputs": [],
      "name": "SALE_TOKEN_RESERVE",
      "outputs": [
        {
          "internalType": "uint256",
          "name": "",
          "type": "uint256"
        }
      ],
      "stateMutability": "view",
      "type": "function"
    },
    {
      "inputs": [],
      "name": "TOTAL_FEE_BPS",
      "outputs": [
        {
          "internalType": "uint256",
          "name": "",
          "type": "uint256"
        }
      ],
      "stateMutability": "view",
      "type": "function"
    },
    {
      "inputs": [],
      "name": "TOTAL_SUPPLY",
      "outputs": [
        {
          "internalType": "uint256",
          "name": "",
          "type": "uint256"
        }
      ],
      "stateMutability": "view",
      "type": "function"
    },
    {
      "inputs": [],
      "name": "WHITELIST_DURATION",
      "outputs": [
        {
          "internalType": "uint256",
          "name": "",
          "type": "uint256"
        }
      ],
      "stateMutability": "view",
      "type": "function"
    },
    {
      "inputs": [],
      "name": "WHITELIST_STATUS_ACTIVE",
      "outputs": [
        {
          "internalType": "uint8",
          "name": "",
          "type": "uint8"
        }
      ],
      "stateMutability": "view",
      "type": "function"
    },
    {
      "inputs": [],
      "name": "WHITELIST_STATUS_EXPIRED",
      "outputs": [
        {
          "internalType": "uint8",
          "name": "",
          "type": "uint8"
        }
      ],
      "stateMutability": "view",
      "type": "function"
    },
    {
      "inputs": [],
      "name": "WHITELIST_STATUS_FINALIZED",
      "outputs": [
        {
          "internalType": "uint8",
          "name": "",
          "type": "uint8"
        }
      ],
      "stateMutability": "view",
      "type": "function"
    },
    {
      "inputs": [],
      "name": "WHITELIST_STATUS_NONE",
      "outputs": [
        {
          "internalType": "uint8",
          "name": "",
          "type": "uint8"
        }
      ],
      "stateMutability": "view",
      "type": "function"
    },
    {
      "inputs": [],
      "name": "WHITELIST_STATUS_SCHEDULED",
      "outputs": [
        {
          "internalType": "uint8",
          "name": "",
          "type": "uint8"
        }
      ],
      "stateMutability": "view",
      "type": "function"
    },
    {
      "inputs": [],
      "name": "accountedNativeBalance",
      "outputs": [
        {
          "internalType": "uint256",
          "name": "",
          "type": "uint256"
        }
      ],
      "stateMutability": "view",
      "type": "function"
    },
    {
      "inputs": [],
      "name": "advanceWhitelistPhase",
      "outputs": [],
      "stateMutability": "nonpayable",
      "type": "function"
    },
    {
      "inputs": [
        {
          "internalType": "address",
          "name": "owner",
          "type": "address"
        },
        {
          "internalType": "address",
          "name": "spender",
          "type": "address"
        }
      ],
      "name": "allowance",
      "outputs": [
        {
          "internalType": "uint256",
          "name": "",
          "type": "uint256"
        }
      ],
      "stateMutability": "view",
      "type": "function"
    },
    {
      "inputs": [
        {
          "internalType": "address",
          "name": "spender",
          "type": "address"
        },
        {
          "internalType": "uint256",
          "name": "value",
          "type": "uint256"
        }
      ],
      "name": "approve",
      "outputs": [
        {
          "internalType": "bool",
          "name": "",
          "type": "bool"
        }
      ],
      "stateMutability": "nonpayable",
      "type": "function"
    },
    {
      "inputs": [
        {
          "internalType": "address",
          "name": "account",
          "type": "address"
        }
      ],
      "name": "balanceOf",
      "outputs": [
        {
          "internalType": "uint256",
          "name": "",
          "type": "uint256"
        }
      ],
      "stateMutability": "view",
      "type": "function"
    },
    {
      "inputs": [
        {
          "internalType": "uint256",
          "name": "minTokenOut",
          "type": "uint256"
        }
      ],
      "name": "buy",
      "outputs": [
        {
          "internalType": "uint256",
          "name": "tokenOut",
          "type": "uint256"
        }
      ],
      "stateMutability": "payable",
      "type": "function"
    },
    {
      "inputs": [
        {
          "internalType": "address",
          "name": "account",
          "type": "address"
        }
      ],
      "name": "canClaimWhitelistAllocation",
      "outputs": [
        {
          "internalType": "bool",
          "name": "",
          "type": "bool"
        }
      ],
      "stateMutability": "view",
      "type": "function"
    },
    {
      "inputs": [
        {
          "internalType": "address",
          "name": "account",
          "type": "address"
        }
      ],
      "name": "canClaimWhitelistRefund",
      "outputs": [
        {
          "internalType": "bool",
          "name": "",
          "type": "bool"
        }
      ],
      "stateMutability": "view",
      "type": "function"
    },
    {
      "inputs": [
        {
          "internalType": "address",
          "name": "account",
          "type": "address"
        }
      ],
      "name": "canCommitWhitelist",
      "outputs": [
        {
          "internalType": "bool",
          "name": "",
          "type": "bool"
        }
      ],
      "stateMutability": "view",
      "type": "function"
    },
    {
      "inputs": [
        {
          "internalType": "address",
          "name": "account",
          "type": "address"
        }
      ],
      "name": "canSell",
      "outputs": [
        {
          "internalType": "bool",
          "name": "",
          "type": "bool"
        }
      ],
      "stateMutability": "view",
      "type": "function"
    },
    {
      "inputs": [],
      "name": "claimCreatorFees",
      "outputs": [
        {
          "internalType": "uint256",
          "name": "amount",
          "type": "uint256"
        }
      ],
      "stateMutability": "nonpayable",
      "type": "function"
    },
    {
      "inputs": [
        {
          "internalType": "address payable",
          "name": "recipient",
          "type": "address"
        }
      ],
      "name": "claimCreatorFeesTo",
      "outputs": [
        {
          "internalType": "uint256",
          "name": "amount",
          "type": "uint256"
        }
      ],
      "stateMutability": "nonpayable",
      "type": "function"
    },
    {
      "inputs": [],
      "name": "claimProtocolFees",
      "outputs": [
        {
          "internalType": "uint256",
          "name": "amount",
          "type": "uint256"
        }
      ],
      "stateMutability": "nonpayable",
      "type": "function"
    },
    {
      "inputs": [
        {
          "internalType": "address payable",
          "name": "recipient",
          "type": "address"
        }
      ],
      "name": "claimProtocolFeesTo",
      "outputs": [
        {
          "internalType": "uint256",
          "name": "amount",
          "type": "uint256"
        }
      ],
      "stateMutability": "nonpayable",
      "type": "function"
    },
    {
      "inputs": [],
      "name": "claimWhitelistAllocation",
      "outputs": [
        {
          "internalType": "uint256",
          "name": "tokenAmount",
          "type": "uint256"
        }
      ],
      "stateMutability": "nonpayable",
      "type": "function"
    },
    {
      "inputs": [],
      "name": "claimWhitelistRefund",
      "outputs": [
        {
          "internalType": "uint256",
          "name": "refundAmount",
          "type": "uint256"
        }
      ],
      "stateMutability": "nonpayable",
      "type": "function"
    },
    {
      "inputs": [],
      "name": "commitWhitelistSeat",
      "outputs": [],
      "stateMutability": "payable",
      "type": "function"
    },
    {
      "inputs": [],
      "name": "createdAt",
      "outputs": [
        {
          "internalType": "uint256",
          "name": "",
          "type": "uint256"
        }
      ],
      "stateMutability": "view",
      "type": "function"
    },
    {
      "inputs": [],
      "name": "creator",
      "outputs": [
        {
          "internalType": "address",
          "name": "",
          "type": "address"
        }
      ],
      "stateMutability": "view",
      "type": "function"
    },
    {
      "inputs": [],
      "name": "creatorClaimable",
      "outputs": [
        {
          "internalType": "uint256",
          "name": "",
          "type": "uint256"
        }
      ],
      "stateMutability": "view",
      "type": "function"
    },
    {
      "inputs": [],
      "name": "creatorFeeSweepReady",
      "outputs": [
        {
          "internalType": "bool",
          "name": "",
          "type": "bool"
        }
      ],
      "stateMutability": "view",
      "type": "function"
    },
    {
      "inputs": [],
      "name": "creatorFeeVault",
      "outputs": [
        {
          "internalType": "uint256",
          "name": "",
          "type": "uint256"
        }
      ],
      "stateMutability": "view",
      "type": "function"
    },
    {
      "inputs": [],
      "name": "currentPriceQuotePerToken",
      "outputs": [
        {
          "internalType": "uint256",
          "name": "",
          "type": "uint256"
        }
      ],
      "stateMutability": "view",
      "type": "function"
    },
    {
      "inputs": [],
      "name": "curveQuoteReserve",
      "outputs": [
        {
          "internalType": "uint256",
          "name": "",
          "type": "uint256"
        }
      ],
      "stateMutability": "view",
      "type": "function"
    },
    {
      "inputs": [],
      "name": "decimals",
      "outputs": [
        {
          "internalType": "uint8",
          "name": "",
          "type": "uint8"
        }
      ],
      "stateMutability": "view",
      "type": "function"
    },
    {
      "inputs": [],
      "name": "dexFactory",
      "outputs": [
        {
          "internalType": "address",
          "name": "",
          "type": "address"
        }
      ],
      "stateMutability": "view",
      "type": "function"
    },
    {
      "inputs": [],
      "name": "dexReserves",
      "outputs": [
        {
          "internalType": "uint256",
          "name": "tokenReserve",
          "type": "uint256"
        },
        {
          "internalType": "uint256",
          "name": "quoteReserve",
          "type": "uint256"
        }
      ],
      "stateMutability": "view",
      "type": "function"
    },
    {
      "inputs": [],
      "name": "displayGraduationProgressBps",
      "outputs": [
        {
          "internalType": "uint256",
          "name": "",
          "type": "uint256"
        }
      ],
      "stateMutability": "view",
      "type": "function"
    },
    {
      "inputs": [],
      "name": "factory",
      "outputs": [
        {
          "internalType": "address",
          "name": "",
          "type": "address"
        }
      ],
      "stateMutability": "view",
      "type": "function"
    },
    {
      "inputs": [
        {
          "internalType": "address",
          "name": "recipient",
          "type": "address"
        },
        {
          "internalType": "uint256",
          "name": "minTokenOut",
          "type": "uint256"
        }
      ],
      "name": "factoryBuyFor",
      "outputs": [
        {
          "internalType": "uint256",
          "name": "tokenOut",
          "type": "uint256"
        }
      ],
      "stateMutability": "payable",
      "type": "function"
    },
    {
      "inputs": [
        {
          "internalType": "address payable",
          "name": "recipient",
          "type": "address"
        }
      ],
      "name": "factoryClaimProtocolFeesTo",
      "outputs": [
        {
          "internalType": "uint256",
          "name": "amount",
          "type": "uint256"
        }
      ],
      "stateMutability": "nonpayable",
      "type": "function"
    },
    {
      "inputs": [
        {
          "internalType": "address",
          "name": "account",
          "type": "address"
        }
      ],
      "name": "factoryCommitWhitelistSeat",
      "outputs": [],
      "stateMutability": "payable",
      "type": "function"
    },
    {
      "inputs": [],
      "name": "graduationProgressBps",
      "outputs": [
        {
          "internalType": "uint256",
          "name": "",
          "type": "uint256"
        }
      ],
      "stateMutability": "view",
      "type": "function"
    },
    {
      "inputs": [],
      "name": "graduationQuoteReserve",
      "outputs": [
        {
          "internalType": "uint256",
          "name": "",
          "type": "uint256"
        }
      ],
      "stateMutability": "view",
      "type": "function"
    },
    {
      "inputs": [
        {
          "internalType": "address",
          "name": "",
          "type": "address"
        }
      ],
      "name": "isTaxablePool",
      "outputs": [
        {
          "internalType": "bool",
          "name": "",
          "type": "bool"
        }
      ],
      "stateMutability": "view",
      "type": "function"
    },
    {
      "inputs": [
        {
          "internalType": "address",
          "name": "account",
          "type": "address"
        }
      ],
      "name": "isWhitelisted",
      "outputs": [
        {
          "internalType": "bool",
          "name": "",
          "type": "bool"
        }
      ],
      "stateMutability": "view",
      "type": "function"
    },
    {
      "inputs": [
        {
          "internalType": "address",
          "name": "",
          "type": "address"
        }
      ],
      "name": "lastBuyBlock",
      "outputs": [
        {
          "internalType": "uint256",
          "name": "",
          "type": "uint256"
        }
      ],
      "stateMutability": "view",
      "type": "function"
    },
    {
      "inputs": [],
      "name": "lastTradeAt",
      "outputs": [
        {
          "internalType": "uint256",
          "name": "",
          "type": "uint256"
        }
      ],
      "stateMutability": "view",
      "type": "function"
    },
    {
      "inputs": [],
      "name": "launchMode",
      "outputs": [
        {
          "internalType": "uint8",
          "name": "",
          "type": "uint8"
        }
      ],
      "stateMutability": "view",
      "type": "function"
    },
    {
      "inputs": [],
      "name": "launchModeId",
      "outputs": [
        {
          "internalType": "uint8",
          "name": "",
          "type": "uint8"
        }
      ],
      "stateMutability": "view",
      "type": "function"
    },
    {
      "inputs": [],
      "name": "launchSuffix",
      "outputs": [
        {
          "internalType": "string",
          "name": "",
          "type": "string"
        }
      ],
      "stateMutability": "pure",
      "type": "function"
    },
    {
      "inputs": [],
      "name": "lpTokenReserve",
      "outputs": [
        {
          "internalType": "uint256",
          "name": "",
          "type": "uint256"
        }
      ],
      "stateMutability": "view",
      "type": "function"
    },
    {
      "inputs": [],
      "name": "metadataURI",
      "outputs": [
        {
          "internalType": "string",
          "name": "",
          "type": "string"
        }
      ],
      "stateMutability": "view",
      "type": "function"
    },
    {
      "inputs": [],
      "name": "name",
      "outputs": [
        {
          "internalType": "string",
          "name": "",
          "type": "string"
        }
      ],
      "stateMutability": "view",
      "type": "function"
    },
    {
      "inputs": [],
      "name": "pair",
      "outputs": [
        {
          "internalType": "address",
          "name": "",
          "type": "address"
        }
      ],
      "stateMutability": "view",
      "type": "function"
    },
    {
      "inputs": [],
      "name": "pairSnapshot",
      "outputs": [
        {
          "internalType": "address",
          "name": "pairAddress",
          "type": "address"
        },
        {
          "internalType": "uint256",
          "name": "pairTotalSupply",
          "type": "uint256"
        },
        {
          "internalType": "uint112",
          "name": "reserve0",
          "type": "uint112"
        },
        {
          "internalType": "uint112",
          "name": "reserve1",
          "type": "uint112"
        },
        {
          "internalType": "uint256",
          "name": "tokenBalance",
          "type": "uint256"
        },
        {
          "internalType": "uint256",
          "name": "wrappedNativeBalance",
          "type": "uint256"
        }
      ],
      "stateMutability": "view",
      "type": "function"
    },
    {
      "inputs": [
        {
          "internalType": "uint256",
          "name": "grossQuoteIn",
          "type": "uint256"
        }
      ],
      "name": "previewBuy",
      "outputs": [
        {
          "internalType": "uint256",
          "name": "tokenOut",
          "type": "uint256"
        },
        {
          "internalType": "uint256",
          "name": "feeAmount",
          "type": "uint256"
        },
        {
          "internalType": "uint256",
          "name": "refundAmount",
          "type": "uint256"
        }
      ],
      "stateMutability": "view",
      "type": "function"
    },
    {
      "inputs": [
        {
          "internalType": "uint256",
          "name": "tokenAmount",
          "type": "uint256"
        }
      ],
      "name": "previewSell",
      "outputs": [
        {
          "internalType": "uint256",
          "name": "grossQuoteOut",
          "type": "uint256"
        },
        {
          "internalType": "uint256",
          "name": "netQuoteOut",
          "type": "uint256"
        },
        {
          "internalType": "uint256",
          "name": "totalFee",
          "type": "uint256"
        }
      ],
      "stateMutability": "view",
      "type": "function"
    },
    {
      "inputs": [],
      "name": "priceQuotePerToken",
      "outputs": [
        {
          "internalType": "uint256",
          "name": "",
          "type": "uint256"
        }
      ],
      "stateMutability": "view",
      "type": "function"
    },
    {
      "inputs": [],
      "name": "protocolClaimable",
      "outputs": [
        {
          "internalType": "uint256",
          "name": "",
          "type": "uint256"
        }
      ],
      "stateMutability": "view",
      "type": "function"
    },
    {
      "inputs": [],
      "name": "protocolFeeRecipient",
      "outputs": [
        {
          "internalType": "address",
          "name": "",
          "type": "address"
        }
      ],
      "stateMutability": "view",
      "type": "function"
    },
    {
      "inputs": [],
      "name": "protocolFeeVault",
      "outputs": [
        {
          "internalType": "uint256",
          "name": "",
          "type": "uint256"
        }
      ],
      "stateMutability": "view",
      "type": "function"
    },
    {
      "inputs": [],
      "name": "reconcileUnexpectedNative",
      "outputs": [
        {
          "internalType": "uint256",
          "name": "amount",
          "type": "uint256"
        }
      ],
      "stateMutability": "nonpayable",
      "type": "function"
    },
    {
      "inputs": [],
      "name": "remainingQuoteCapacity",
      "outputs": [
        {
          "internalType": "uint256",
          "name": "",
          "type": "uint256"
        }
      ],
      "stateMutability": "view",
      "type": "function"
    },
    {
      "inputs": [],
      "name": "router",
      "outputs": [
        {
          "internalType": "address",
          "name": "",
          "type": "address"
        }
      ],
      "stateMutability": "view",
      "type": "function"
    },
    {
      "inputs": [],
      "name": "saleTokenReserve",
      "outputs": [
        {
          "internalType": "uint256",
          "name": "",
          "type": "uint256"
        }
      ],
      "stateMutability": "view",
      "type": "function"
    },
    {
      "inputs": [
        {
          "internalType": "uint256",
          "name": "tokenAmount",
          "type": "uint256"
        },
        {
          "internalType": "uint256",
          "name": "minQuoteOut",
          "type": "uint256"
        }
      ],
      "name": "sell",
      "outputs": [
        {
          "internalType": "uint256",
          "name": "netQuoteOut",
          "type": "uint256"
        }
      ],
      "stateMutability": "nonpayable",
      "type": "function"
    },
    {
      "inputs": [
        {
          "internalType": "address",
          "name": "account",
          "type": "address"
        }
      ],
      "name": "sellUnlockBlock",
      "outputs": [
        {
          "internalType": "uint256",
          "name": "",
          "type": "uint256"
        }
      ],
      "stateMutability": "view",
      "type": "function"
    },
    {
      "inputs": [
        {
          "internalType": "address",
          "name": "pool",
          "type": "address"
        },
        {
          "internalType": "bool",
          "name": "enabled",
          "type": "bool"
        }
      ],
      "name": "setTaxablePool",
      "outputs": [],
      "stateMutability": "nonpayable",
      "type": "function"
    },
    {
      "inputs": [],
      "name": "state",
      "outputs": [
        {
          "internalType": "enum LaunchTokenBase.LaunchState",
          "name": "",
          "type": "uint8"
        }
      ],
      "stateMutability": "view",
      "type": "function"
    },
    {
      "inputs": [],
      "name": "sweepAbandonedCreatorFees",
      "outputs": [
        {
          "internalType": "uint256",
          "name": "amount",
          "type": "uint256"
        }
      ],
      "stateMutability": "nonpayable",
      "type": "function"
    },
    {
      "inputs": [],
      "name": "symbol",
      "outputs": [
        {
          "internalType": "string",
          "name": "",
          "type": "string"
        }
      ],
      "stateMutability": "view",
      "type": "function"
    },
    {
      "inputs": [],
      "name": "taxConfig",
      "outputs": [
        {
          "internalType": "bool",
          "name": "enabled",
          "type": "bool"
        },
        {
          "internalType": "uint16",
          "name": "configuredTaxBps",
          "type": "uint16"
        },
        {
          "internalType": "uint16",
          "name": "burnBps",
          "type": "uint16"
        },
        {
          "internalType": "uint16",
          "name": "treasuryBps",
          "type": "uint16"
        },
        {
          "internalType": "address",
          "name": "wallet",
          "type": "address"
        },
        {
          "internalType": "bool",
          "name": "active",
          "type": "bool"
        }
      ],
      "stateMutability": "view",
      "type": "function"
    },
    {
      "inputs": [],
      "name": "totalSupply",
      "outputs": [
        {
          "internalType": "uint256",
          "name": "",
          "type": "uint256"
        }
      ],
      "stateMutability": "view",
      "type": "function"
    },
    {
      "inputs": [
        {
          "internalType": "address",
          "name": "to",
          "type": "address"
        },
        {
          "internalType": "uint256",
          "name": "value",
          "type": "uint256"
        }
      ],
      "name": "transfer",
      "outputs": [
        {
          "internalType": "bool",
          "name": "",
          "type": "bool"
        }
      ],
      "stateMutability": "nonpayable",
      "type": "function"
    },
    {
      "inputs": [
        {
          "internalType": "address",
          "name": "from",
          "type": "address"
        },
        {
          "internalType": "address",
          "name": "to",
          "type": "address"
        },
        {
          "internalType": "uint256",
          "name": "value",
          "type": "uint256"
        }
      ],
      "name": "transferFrom",
      "outputs": [
        {
          "internalType": "bool",
          "name": "",
          "type": "bool"
        }
      ],
      "stateMutability": "nonpayable",
      "type": "function"
    },
    {
      "inputs": [],
      "name": "unexpectedNativeBalance",
      "outputs": [
        {
          "internalType": "uint256",
          "name": "",
          "type": "uint256"
        }
      ],
      "stateMutability": "view",
      "type": "function"
    },
    {
      "inputs": [],
      "name": "virtualQuoteReserve",
      "outputs": [
        {
          "internalType": "uint256",
          "name": "",
          "type": "uint256"
        }
      ],
      "stateMutability": "view",
      "type": "function"
    },
    {
      "inputs": [],
      "name": "virtualTokenReserve",
      "outputs": [
        {
          "internalType": "uint256",
          "name": "",
          "type": "uint256"
        }
      ],
      "stateMutability": "view",
      "type": "function"
    },
    {
      "inputs": [
        {
          "internalType": "address",
          "name": "",
          "type": "address"
        }
      ],
      "name": "whitelist",
      "outputs": [
        {
          "internalType": "bool",
          "name": "",
          "type": "bool"
        }
      ],
      "stateMutability": "view",
      "type": "function"
    },
    {
      "inputs": [
        {
          "internalType": "address",
          "name": "",
          "type": "address"
        }
      ],
      "name": "whitelistAllocationClaimed",
      "outputs": [
        {
          "internalType": "bool",
          "name": "",
          "type": "bool"
        }
      ],
      "stateMutability": "view",
      "type": "function"
    },
    {
      "inputs": [],
      "name": "whitelistAllocationTokenReserve",
      "outputs": [
        {
          "internalType": "uint256",
          "name": "",
          "type": "uint256"
        }
      ],
      "stateMutability": "view",
      "type": "function"
    },
    {
      "inputs": [],
      "name": "whitelistCommitVault",
      "outputs": [
        {
          "internalType": "uint256",
          "name": "",
          "type": "uint256"
        }
      ],
      "stateMutability": "view",
      "type": "function"
    },
    {
      "inputs": [],
      "name": "whitelistCommittedTotal",
      "outputs": [
        {
          "internalType": "uint256",
          "name": "",
          "type": "uint256"
        }
      ],
      "stateMutability": "view",
      "type": "function"
    },
    {
      "inputs": [],
      "name": "whitelistExpiredWithoutFinalization",
      "outputs": [
        {
          "internalType": "bool",
          "name": "",
          "type": "bool"
        }
      ],
      "stateMutability": "view",
      "type": "function"
    },
    {
      "inputs": [],
      "name": "whitelistFinalized",
      "outputs": [
        {
          "internalType": "bool",
          "name": "",
          "type": "bool"
        }
      ],
      "stateMutability": "view",
      "type": "function"
    },
    {
      "inputs": [
        {
          "internalType": "address",
          "name": "",
          "type": "address"
        }
      ],
      "name": "whitelistRefundClaimed",
      "outputs": [
        {
          "internalType": "bool",
          "name": "",
          "type": "bool"
        }
      ],
      "stateMutability": "view",
      "type": "function"
    },
    {
      "inputs": [
        {
          "internalType": "address",
          "name": "",
          "type": "address"
        }
      ],
      "name": "whitelistSeatCommitted",
      "outputs": [
        {
          "internalType": "bool",
          "name": "",
          "type": "bool"
        }
      ],
      "stateMutability": "view",
      "type": "function"
    },
    {
      "inputs": [],
      "name": "whitelistSeatsFilled",
      "outputs": [
        {
          "internalType": "uint256",
          "name": "",
          "type": "uint256"
        }
      ],
      "stateMutability": "view",
      "type": "function"
    },
    {
      "inputs": [],
      "name": "whitelistSnapshot",
      "outputs": [
        {
          "internalType": "uint8",
          "name": "status",
          "type": "uint8"
        },
        {
          "internalType": "uint256",
          "name": "opensAt",
          "type": "uint256"
        },
        {
          "internalType": "uint256",
          "name": "deadline",
          "type": "uint256"
        },
        {
          "internalType": "uint256",
          "name": "threshold",
          "type": "uint256"
        },
        {
          "internalType": "uint256",
          "name": "slotSize",
          "type": "uint256"
        },
        {
          "internalType": "uint256",
          "name": "seatCount",
          "type": "uint256"
        },
        {
          "internalType": "uint256",
          "name": "seatsFilled",
          "type": "uint256"
        },
        {
          "internalType": "uint256",
          "name": "committedTotal",
          "type": "uint256"
        },
        {
          "internalType": "uint256",
          "name": "tokensPerSeat",
          "type": "uint256"
        }
      ],
      "stateMutability": "view",
      "type": "function"
    },
    {
      "inputs": [],
      "name": "whitelistStatus",
      "outputs": [
        {
          "internalType": "uint8",
          "name": "",
          "type": "uint8"
        }
      ],
      "stateMutability": "view",
      "type": "function"
    },
    {
      "inputs": [],
      "name": "whitelistTokensPerSeat",
      "outputs": [
        {
          "internalType": "uint256",
          "name": "",
          "type": "uint256"
        }
      ],
      "stateMutability": "view",
      "type": "function"
    },
    {
      "inputs": [],
      "name": "wrappedNative",
      "outputs": [
        {
          "internalType": "address",
          "name": "",
          "type": "address"
        }
      ],
      "stateMutability": "view",
      "type": "function"
    },
    {
      "stateMutability": "payable",
      "type": "receive"
    }
  ],
  "bytecode": "0x6102e0806040523462000d4857620069908038038091620000218285620011ef565b8339602082828101031262000d48578151906001600160401b03821162000d4857610220828401828501031262000d48576040519161022083016001600160401b0381118482101762000eba57604052838101516001600160401b03811162000d4857620000979083860190838701016200122f565b8352838101602001516001600160401b03811162000d4857620000c29083860190838701016200122f565b6020840152838101604001516001600160401b03811162000d4857620000f09083860190838701016200122f565b6040840152620001056060828601016200129a565b60608401526200011a6080828601016200129a565b60808401526200012f60a0828601016200129a565b60a08401526200014460c0828601016200129a565b60c084015283810160e0818101519085015261010080820151908501526101208082015190850152610140808201519085015261016001516001600160401b03811162000d48578185010191808501601f8401121562000d48578251926001600160401b03841162000eba578360051b9060405194620001c86020840187620011ef565b8552602080860192820101928701831162000d4857602001905b828210620011b8575050506102006200026291836101608601526200020d61018082880101620012af565b9586610180870152620002266101a083830101620012be565b6101a08701526200023d6101c083830101620012be565b6101c0870152620002546101e083830101620012be565b6101e087015201016200129a565b610200830152815160208301516040808501516060860151608087015160a088015160c089015160e08a01516101008b01516101208c01516101408d01519851979d979b979a6001600160a01b039788169a939994881698958816979096169592949293916101a08d01808e116001600160401b039091111762000eba57898f8e60e0916101a0820160405288825289602083015260408201528d60608201528960808201528a60a08201528b60c082015201526101008d01526101208c01526101408b01526101608a015260ff88166101808a015280519060018060401b03821162000eba5760035490600182811c92168015620011ad575b602083101462000e995781601f8493116200113b575b50602090601f8311600114620010ac57600092620010a0575b50508160011b916000199060031b1c1916176003555b8051906001600160401b03821162000eba5760045490600182811c9216801562001095575b602083101462000e995781601f84931162001023575b50602090601f831160011462000f945760009262000f88575b50508160011b916000199060031b1c1916176004555b60017f9b779b17422d0df92223018b32b4d1fa46e071723d6817e2486d003becc55f0055831562000f7657620004418462001651565b94851562000f76578015801562000f6d575b801562000f64575b801562000f5b575b620007d15760a05260c05260e05261010081905260405163c45a015560e01b8152602081600481855afa90811562000d565760009162000f12575b50610120526040516315ab88c960e31b815290602090829060049082905afa90811562000d565760009162000ed0575b506101405261016052610180526a5889e9f3e4c6e14f4000006101a052426101c0819052600c5583516001600160401b03811162000eba57600554600181811c9116801562000eaf575b602082101462000e9957601f811162000e4f575b506020601f821160011462000ddb57819060ff94959660009262000dcf575b50508160011b916000199060031b1c1916176005555b16608052301562000db657620005773062001707565b6b0295be96e6406697200000006007556aa56fa5b99019a5c8000000600855610120516101405160405163e6a4390560e01b8152600092909160209183916001600160a01b039182169183918291620005d691163060048401620016ed565b03915afa91821562000daa57809262000d62575b50506001600160a01b0381161562000cb3575b600680546001600160a81b03191660089290921b610100600160a81b031691909117600490811790915560007f3a779de46631dd65116ae538600f1bc3c338200c6aef638429b5de43301c28f78180a360808101516101008201516200066c916001600160a01b0316620014b3565b1562000ca15761010081015160e0820151111562000ca1576080810151610120820151620006a3916001600160a01b031662001535565b1562000c8f5761010081015161012082015190811562000c79570662000c5a576101008101519161012082015191821562000c79578284041580801562000c6c575b62000c5a576101608201515190848604821091821562000c38575b505062000c26576101408101518062000c1f575042925b428410801562000c08575b62000bf657620151808401841162000bae576201518084016101e05261010082015161020052610120820151610220528085046102405260005b6101608301518051821015620007e357600582901b01602001516001600160a01b0316908115620007d15781600052601460205260ff60406000205416620007bf57600191600052601460205260406000208260ff19825416179055016200075c565b604051630fb0efa560e41b8152600490fd5b60405163d92e233d60e01b8152600490fd5b8462000851857fc32c90bcebb1b5638e92a2a57d7cfd39596fa72768c7c95f945d9ed03baffac560a0878c8c61010086015192610120870151926101e05193604051958652602086015204604084015260608301526080820152a1608001516001600160a01b031662001569565b1562000be45760ff6101808201511661ffff6101a08301511661ffff6101c08401511661ffff6101e08501511691600c60018060a01b0361020087015116940362000b63576064811090811562000bd7575b811562000bc4575b5062000b6357810161ffff811162000bae5761ffff61271091160362000b63571580158062000ba5575b62000b63578062000b9b575b62000b635730811490811562000b82575b811562000b75575b5062000b63576101a081015161ffff908116610260526101c08201518116610280526101e0820151166102a0526102008101516001600160a01b039081166102c052600654620009679291620009549160081c16620012dc565b608001516001600160a01b031662001356565b1562000b5157604051614e0162001b4f82396080518161255c015260a051818181611d0a0152818161236e015281816137320152614189015260c051818181610a1701528181610f7c015281816117c50152818161217f0152818161327e01526141b2015260e05181818161185201528181611bc4015281816131cb0152614c98015261010051816106a30152610120518161100d0152610140518181816107a40152818161283c01528181612ea50152613dfe015261016051818181611c6e0152818161260901528181612a2001528181612b57015281816137d7015281816138d60152613ac201526101805181818161071001526133c501526101a051818181611d4f01526133ff01526101c051818181610d00015261396601526101e05181818161090f01528181610e0301528181611168015281816111a50152818161299f015281816134f701526135470152610200518181816109610152818161345301528181613682015261449e0152610220518181816109870152818161197f015261359a0152610240518181816109ad01528181611101015281816135d701526144f3015261026051818181610ea3015261479c015261028051818181610ecb01526147db01526102a05181610ef201526102c051818181610f21015261486b0152614e0190f35b604051635493503b60e11b8152600490fd5b60405163694f6dbf60e11b8152600490fd5b61dead91501482620008fa565b60065460081c6001600160a01b031681149150620008f2565b50801515620008e1565b508115620008d5565b634e487b7160e01b600052601160045260246000fd5b61ffff91506064900616151585620008ab565b61038481119150620008a3565b604051635bb6e57160e11b8152600490fd5b6040516305c742e960e11b8152600490fd5b506203f480420180421162000bae57841162000722565b9262000717565b60405163529cc2c560e01b8152600490fd5b909150600385870402918587048304600314171562000bae5711388062000700565b604051635ca83dcb60e11b8152600490fd5b50605084860411620006e5565b634e487b7160e01b600052601260045260246000fd5b604051633d8f86f560e21b8152600490fd5b60405163230bad2760e11b8152600490fd5b5061012051610140516040516364e329cb60e11b81529160209183916001600160a01b03908116918391600091839162000cf391163060048401620016ed565b03925af1801562000d565760009062000d0f575b9050620005fd565b506020813d60201162000d4d575b8162000d2c60209383620011ef565b8101031262000d485762000d426004916200129a565b62000d07565b600080fd5b3d915062000d1d565b6040513d6000823e3d90fd5b9091506020823d60201162000da1575b8162000d8160209383620011ef565b8101031262000d9e575062000d96906200129a565b3880620005ea565b80fd5b3d915062000d72565b604051903d90823e3d90fd5b60405163ec442f0560e01b815260006004820152602490fd5b0151905038806200054b565b600560005260206000209560005b601f198416811062000e36575095829160ff959697600194601f1981161062000e1c575b505050811b0160055562000561565b015160001960f88460031b161c1916905538808062000e0d565b8282015188556001909701966020928301920162000de9565b60056000526020600020601f830160051c81016020841062000e91575b601f830160051c8201811062000e845750506200052c565b6000815560010162000e6c565b508062000e6c565b634e487b7160e01b600052602260045260246000fd5b90607f169062000518565b634e487b7160e01b600052604160045260246000fd5b90506020813d60201162000f09575b8162000eee60209383620011ef565b8101031262000d485762000f02906200129a565b38620004ce565b3d915062000edf565b90506020813d60201162000f52575b8162000f3060209383620011ef565b8101031262000d485760049162000f496020926200129a565b9150916200049e565b3d915062000f21565b50831562000463565b5082156200045b565b50811562000453565b604051630d956e1760e21b8152600490fd5b015190503880620003f5565b6004600090815293507f8a35acfbc15ff81a39ae7d344fd709f28e8600b4aa8c65c6b64bfe7fe36bd19b91905b601f198416851062001007576001945083601f1981161062000fed575b505050811b016004556200040b565b015160001960f88460031b161c1916905538808062000fde565b8181015183556020948501946001909301929091019062000fc1565b60046000529091507f8a35acfbc15ff81a39ae7d344fd709f28e8600b4aa8c65c6b64bfe7fe36bd19b601f840160051c8101602085106200108d575b90849392915b601f830160051c820181106200107d575050620003dc565b6000815585945060010162001065565b50806200105f565b91607f1691620003c6565b0151905038806200038b565b6003600090815293507fc2575a0e9e593c00f959f8c92f12db2869c3395a3b0502d05e2516446f71f85b91905b601f19841685106200111f576001945083601f1981161062001105575b505050811b01600355620003a1565b015160001960f88460031b161c19169055388080620010f6565b81810151835560209485019460019093019290910190620010d9565b60036000529091507fc2575a0e9e593c00f959f8c92f12db2869c3395a3b0502d05e2516446f71f85b601f840160051c810160208510620011a5575b90849392915b601f830160051c820181106200119557505062000372565b600081558594506001016200117d565b508062001177565b91607f16916200035c565b60208091620011c7846200129a565b815201910190620001e2565b606081019081106001600160401b0382111762000eba57604052565b601f909101601f19168101906001600160401b0382119082101762000eba57604052565b6001600160401b03811162000eba57601f01601f191660200190565b9080601f8301121562000d48578151906200124a8262001213565b926200125a6040519485620011ef565b8284526020916020848301011162000d485760005b838110620012865750505060206000918301015290565b81810183015185820184015282016200126f565b51906001600160a01b038216820362000d4857565b519060ff8216820362000d4857565b519061ffff8216820362000d4857565b9190820180921162000bae57565b6001600160a01b0390811660008181526018602052604090208054919290919060ff8216151560011462001350577ff1d8d554547fde8a73173802e84a46a02e1c0211606173662897eae8bd39d04292600160409360ff191617905560065460081c168314815190600182526020820152a2565b50505050565b803b156200145e57604051631b5c66b560e31b81526001600160a01b03918216916020918281600481875afa90811562000d565760009162001421575b501633149182620013a357505090565b60405163b119b57b60e01b81523060048201529192508290829060249082905afa91821562000d5657600092620013e0575b505060ff16600c1490565b90809250813d831162001419575b620013fa8183620011ef565b8101031262000d485760ff62001412600c92620012af565b91620013d5565b503d620013ee565b90508281813d831162001456575b6200143b8183620011ef565b8101031262000d48576200144f906200129a565b3862001393565b503d6200142f565b50600090565b3d1562001494573d90620014788262001213565b91620014886040519384620011ef565b82523d6000602084013e565b606090565b9081602091031262000d485751801515810362000d485790565b90813b156200152e5760009182916040516020810191630468d6b760e51b8352602482015260248152620014e781620011d3565b51915afa620014f562001464565b816200151f575b8162001506575090565b6200151c91506020808251830101910162001499565b90565b905060208151101590620014fc565b5050600090565b90813b156200152e5760009182916040516020810191633480481f60e21b8352602482015260248152620014e781620011d3565b6001600160a01b03908082169033821462001649573b156200152e57600260ff60805116146200161a57600c60ff6080511614620015a8575050600090565b602060049160405192838092631b5c66b560e31b82525afa90811562000d5657600091620015d8575b5016331490565b90506020813d60201162001611575b81620015f660209383620011ef565b8101031262000d48576200160a906200129a565b38620015d1565b3d9150620015e7565b6020600491604051928380926337eb7e0160e01b82525afa90811562000d5657600091620015d8575016331490565b505050600190565b6afdf98fad74e0871740000060001981830981830291828083109203918083039214620016d8576b0295be96e6406697200000009082821115620016c5577fab5d02869c14ad85338e6a157058d28e658611776aff168d01c445d3a8cc9189940990828211900360e31b9103601d1c170290565b634e487b7160005260116020526024601cfd5b50506b0295be96e64066972000000091500490565b6001600160a01b0391821681529116602082015260400190565b6200171162001a34565b6200183b575b60ff6006541660058110158062001817576001821480156200182d575b15620017bb575b50506002546b033b2e3c9fd0803ce80000009182820180921162000bae576002919091556001600160a01b031690600090600080516020620069708339815191529060209084620017a5576b033b2e3c9fd0803ce7ffffff19600254016002555b604051908152a3565b848452838252604084208181540190556200179c565b620018175760028103620017eb575030620017d9575b38806200173b565b60405163baf3f0f760e01b8152600490fd5b600303620017d157306001600160a01b03821603620017d1575b604051634e46966960e11b8152600490fd5b634e487b7160e01b600052602160045260246000fd5b505060006004821462001734565b61ffff806102605116906b033b2e3c9fd0803ce800000091808302908382040362000bae576127108091049182159081156200187c57505050505062001717565b610280959394955116908185029185830414171562000bae57048083039280841162000bae5780850385811162000bae57620018b9908462001a56565b8162001925575b91600093828460809460008051602062006950833981519152960362001905575b60408051988952602089019190915287015260608601526001600160a01b031693a3565b6102c0516200191f9084906001600160a01b031662001a56565b620018e1565b60ff60065416600581101580620018175760018214801562001a26575b15620019af575b50509160009382600080516020620069508339815191529462001971608095600254620012ce565b60025561dead808852876020526040882083815401905587600080516020620069708339815191526020604051868152a392945092509350620018c0565b620018175760028103620019eb5750909130620017d95760009360008051602062006950833981519152936080935b9294509281955062001949565b60031462001a12575b916000936080926000805160206200695083398151915294620019de565b90913061dead1462001805579190620019f4565b505060006004821462001942565b60ff600654166005811015620018175760030362001a5157600090565b600090565b60ff60065416600581101580620018175760018214801562001b40575b1562001ac6575b505060008051602062006970833981519152602060009262001a9f85600254620012ce565b6002556001600160a01b03169384158414620017a5578060025403600255604051908152a3565b62001817576002810362001af9575030620017d9576000805160206200697083398151915260206000925b925062001a7a565b60031462001b1d575b60008051602062006970833981519152602060009262001af1565b306001600160a01b0382160362001b0257604051634e46966960e11b8152600490fd5b505060006004821462001a7356fe6080604081815260049182361015610044575b505050361561002057600080fd5b61002861318f565b610030612ac6565b6001600080516020614dac83398151915255005b600092833560e01c91826302d05d3f1461235a5750816303ee438c146122b757816306b51d48146116d357816306fdde03146121de57816307979003146121bf578163086e5ca01461214c578163095ea7b3146120a25781630b42aae01461208657816315a0aa0814612049578163173d5e4214611c2b57816318160ddd1461202a5781631c2945b214611fec5781631cd97db514611fc55781631d924c7714611fa757816323b872dd14611e5b57816324e69d7c14611e3457816325cacd0c14611e1057816327bfa19614611dd2578163292e5b0014611dad5781632a025a8614611d8e578163313ce56714611d72578163343ee3b714611d37578163351fee4614611ce857816337488a4214611cc957816337b28bfd14611c915781633993152714611c565781633af32abf146113c55781633cfe0ade14611c30578163403287a914610afa57816340faa03c14611c2b578163430437fb14611c12578163463bb8001461127d5781634815327914611bf15781634a7d036914611ba25781634e6fd6c414611b8557816352fb81bb14611b475781635386600614611a9f578163571b1f8a14611a81578163581b51f314611a645781635878f8ce14611a4757816358ebc06e1461193a5781636095a6201461191e57816362081d51146118e0578163644537cb146118ba57816364a5dc2b1461188157816364df049e1461183d5781636723064e1461179c5781636887c8481461174957816368bc13f51461172d5781636a534fcb146116f45781636a740d31146110585781636f28507c146116d85781636f71f017146116d357816370a08231146116ad578163722eb97a1461169157816374452ec3146116725781637531abe3146115f857816379e4698714610fab57816385cac2371461107957816386d4ff1d146115a95781638925d36e1461158a578163902d55a5146115645781639111f13d1461153e57816391e7cd341461151f5781639454d7201461150357816394c2c24f146114e757816395d89b41146114035781639b19251a146113c55781639d0ee65b146113a95781639ddf7ad3146113825781639e5f358a14611365578163a202c86d14611349578163a36cdf99146112d5578163a8aa1b31146112a8578163a8dccd0214611282578163a8ea44451461127d578163a9059cbb14611211578163aadade7a146111f2578163aecf6a7c146110a2578163af1af3b914610d23578163b0cc792d1461107e578163b37dd69014611079578163b5f1c1ff1461105d578163b82020e814611058578163b88202a91461103c578163b8d8fbb414610ff8578163be37822814610fdc578163c19d93fb14610fb0578163c228987814610fab578163c45a015514610f67578163c57da02914610e76578163cac01cbc14610e5b578163cc3cbd2a14610e3f578163cc64aade14610d42578163ce228ad214610d23578163cf09e0d014610ce8578163d119e96514610cca578163d79875eb14610aff578163d81d946f14610afa578163d96a094a14610a7d578163d9d5a9f3146109f6578163db9b5413146108f2578163dd62ed3e146108a9578163e1a452181461088c578163e8326626146107d3578163eb6d3a111461078f578163ed1cc3a814610770578163f3bf10ed14610751578163f48f6f1d14610733578163f5596626146106f8578163f7ce612a146106d2578163f887ea401461068e578163fb3dd95f14610658578163fb9a1d8d14610566575063fd897e0b146105455780610012565b34610562578160031936011261056257602090600d549051908152f35b5080fd5b83833461056257816003193601126105625761058061318f565b60ff60135416158015610642575b801561062d575b61061e57602092506012549133815260168452818120600160ff198254161790556105c283600d54612580565b600d55338152600e845281439120556105dc8233306140e9565b80518281527f648b77675d9290f9aa4f34a5cd8b6ff268de43a375ce9f853f027bb3699ea84e843392a26001600080516020614dac8339815191525551908152f35b51630f6ff1d560e31b81529050fd5b50338252601660205260ff8183205416610595565b50338252601560205260ff81832054161561058e565b82843461068b57602036600319011261068b57506106796106879235612a72565b9093919251938493846124f4565b0390f35b80fd5b505034610562578160031936011261056257517f00000000000000000000000000000000000000000000000000000000000000006001600160a01b03168152602090f35b505034610562578160031936011261056257602090516aa56fa5b99019a5c80000008152f35b505034610562578160031936011261056257602090517f00000000000000000000000000000000000000000000000000000000000000008152f35b5050346105625781600319360112610562576020905162278d008152f35b5050346105625781600319360112610562576020906012549051908152f35b505034610562578160031936011261056257602090600f549051908152f35b505034610562578160031936011261056257517f00000000000000000000000000000000000000000000000000000000000000006001600160a01b03168152602090f35b8383346105625780600319360112610562576107ed612475565b60243591821580158403610888576108043361417c565b156108795760065460081c6001600160a01b03908116908416149081610871575b50610862578280610852575b610843575090610840916143f2565b80f35b5163579e643f60e01b81528490fd5b5061085c82614257565b15610831565b5163275118ef60e01b81528490fd5b905086610825565b8151628989cb60e61b81528690fd5b8480fd5b505034610562578160031936011261056257602090516127108152f35b505034610562578060031936011261056257806020926108c7612475565b6108cf61248b565b6001600160a01b0391821683526001865283832091168252845220549051908152f35b82843461068b578060031936011261068b5761090c61294b565b917f00000000000000000000000000000000000000000000000000000000000000006201517f198101928184116109e357506101209450600f5490601054926012549460ff82519716875260208701528501527f000000000000000000000000000000000000000000000000000000000000000060608501527f000000000000000000000000000000000000000000000000000000000000000060808501527f000000000000000000000000000000000000000000000000000000000000000060a085015260c084015260e0830152610100820152f35b634e487b7160e01b815260118652602490fd5b90506020366003190112610a7957610a0c612475565b91610a1561318f565b7f00000000000000000000000000000000000000000000000000000000000000006001600160a01b03163303610a6c5783610a5784610a52613424565b61351e565b6001600080516020614dac8339815191525580f35b51635b2fb5b360e11b8152fd5b8280fd5b8284602036600319011261068b57610a9361318f565b610a9b613424565b60ff60065416906005821015610ae75750600103610ada57610ac1602092353333613a6a565b906001600080516020614dac8339815191525551908152f35b5163baf3f0f760e01b8152fd5b634e487b7160e01b815260218452602490fd5b6124bc565b91905034610a795780600319360112610a7957813592610b1d61318f565b610b25613424565b60ff600654166005811015610cb757600103610ca9578315610c9b578190338152600e60205220544314610c8e57610b83610b7d610b616133bd565b610b7787610b71838596956125a3565b926126c7565b90614080565b90612580565b9283158015610c83575b610c7557610ba7610b9d856140b2565b9187939193612580565b948515610c67576024358610610c675750602095610c4c7feebdf396b2ce33c6bf51df33b76958425b7430bd1c74fbef7b585106affddd1c938793610bed8730336140e9565b610bf9876007546126c7565b600755610c0884600954612580565b600955610c1782600a546126c7565b600a55610c2681600b546126c7565b600b5542600c55610c3785336139e7565b60095490600754928951968796339a88612a44565b0390a26001600080516020614dac8339815191525551908152f35b8451638199f5f360e01b8152fd5b5051638199f5f360e01b8152fd5b506009548411610b8d565b51635aabee0f60e11b8152fd5b5051631f2a200560e01b8152fd5b505163baf3f0f760e01b8152fd5b634e487b7160e01b825260218452602482fd5b505034610562578160031936011261056257602090516203f4808152f35b505034610562578160031936011261056257602090517f00000000000000000000000000000000000000000000000000000000000000008152f35b505034610562578160031936011261056257602090600a549051908152f35b83833461056257602036600319011261056257610d5d612475565b916013549260ff8460081c16938415610dca575b506020945083610dac575b83610d8c575b5050519015158152f35b6001600160a01b03168152601784528190205460ff161591508380610d82565b6001600160a01b0381168252601585528282205460ff169350610d7c565b90935060ff600654166005811015610e2c57602095149081610e01575b81610df5575b509285610d71565b60ff9150161585610ded565b7f00000000000000000000000000000000000000000000000000000000000000004210159150610de7565b634e487b7160e01b835260218652602483fd5b5050346105625781600319360112610562576020905160468152f35b50503461056257816003193601126105625751908152602090f35b82843461068b578060031936011261068b5760ff60065416926005841015610f545782516001815261ffff7f0000000000000000000000000000000000000000000000000000000000000000811660208301527f00000000000000000000000000000000000000000000000000000000000000008116828601527f00000000000000000000000000000000000000000000000000000000000000001660608201526001600160a01b037f00000000000000000000000000000000000000000000000000000000000000001660808201526003851460a082015260c090f35b634e487b7160e01b825260219052602490fd5b505034610562578160031936011261056257517f00000000000000000000000000000000000000000000000000000000000000006001600160a01b03168152602090f35b612526565b83833461056257816003193601126105625760ff600654169051916005821015610ae757602083838152f35b50503461056257816003193601126105625760209051601e8152f35b505034610562578160031936011261056257517f00000000000000000000000000000000000000000000000000000000000000006001600160a01b03168152602090f35b50503461056257816003193601126105625760209051600b8152f35b61250a565b50503461056257816003193601126105625760209051600c8152f35b612542565b50503461056257816003193601126105625760209061109b612a02565b9051908152f35b838334610562576020366003190112610562576110bd612475565b9160ff6006541660058110156111df5784149283611190575b6020945083611166575b83611148575b83611128575b5050816110fc575b519015158152f35b600f547f00000000000000000000000000000000000000000000000000000000000000001191506110f4565b6001600160a01b03168152601584528190205460ff1615915083806110ec565b6001600160a01b0381168252601485528282205460ff1693506110e6565b7f0000000000000000000000000000000000000000000000000000000000000000421093506110e0565b92506201518042018042116111cc57602094507f00000000000000000000000000000000000000000000000000000000000000001115926110d6565b634e487b7160e01b825260118552602482fd5b634e487b7160e01b825260218552602482fd5b505034610562578160031936011261056257602090600b549051908152f35b905034610a795781600319360112610a795761122b612475565b9260ff6006541690600582101561126a575060030361125c575061125560209260243590336140e9565b5160018152f35b90516377d87fb560e11b8152fd5b634e487b7160e01b815260218352602490fd5b6124d8565b505034610562578160031936011261056257516714adf4b7320334b9601d1b8152602090f35b505034610562578160031936011261056257600654905160089190911c6001600160a01b03168152602090f35b82843461068b578060031936011261068b57506112f06139cc565b90811561133a576020925061130782600a546126c7565b600a5580518281527fa1e4c790cc8a017f9b597b92150a8a880324350496397bbb8fd774f571e710df843392a251908152f35b516312d37ee560e31b81529050fd5b5050346105625781600319360112610562576020905160098152f35b50503461056257816003193601126105625760209061109b6129e1565b50503461056257816003193601126105625760209060ff6113a161294b565b915191168152f35b5050346105625781600319360112610562576020905160068152f35b5050346105625760203660031901126105625760209160ff9082906001600160a01b036113f0612475565b1681526014855220541690519015158152f35b83833461056257816003193601126105625780519180938054916001908360011c92600185169485156114dd575b60209586861081146114ca578589529081156114a6575060011461146b575b6106878787611461828c03836123e1565b5191829182612404565b9080949750528583205b82841061149357505050826106879461146192820101948680611450565b8054868501880152928601928101611475565b60ff19168887015250505050151560051b8301019250611461826106878680611450565b634e487b7160e01b845260228352602484fd5b93607f1693611431565b5050346105625781600319360112610562576020905160508152f35b50503461056257816003193601126105625760209051600a8152f35b5050346105625781600319360112610562576020906009549051908152f35b50503461056257816003193601126105625760209061155b613926565b90519015158152f35b50503461056257816003193601126105625751676765c793fa10079d601b1b8152602090f35b5050346105625781600319360112610562576020906007549051908152f35b5050346105625760203660031901126105625760209181906001600160a01b036115d1612475565b168152600e845220549081159182156115ee575b50519015158152f35b43119150386115e5565b5050346105625760203660031901126105625790602091611617612475565b9160ff601354169283611654575b83611634575050519015158152f35b6001600160a01b03168152601684528190205460ff161591503880610d82565b6001600160a01b0381168252601585528282205460ff169350611625565b505034610562578160031936011261056257602090600c549051908152f35b5050346105625781600319360112610562576020905160038152f35b5050346105625760203660031901126105625760209061109b6116ce612475565b612930565b61244d565b5050346105625781600319360112610562576020905160648152f35b905034610a79576020366003190112610a795735916001600160a01b038316830361068b5750610ac160209261172861318f565b613727565b5050346105625781600319360112610562576020905160058152f35b50503461056257816003193601126105625760c0906117666127a2565b9495909381519660018060a01b03168752602087015260018060701b0380931690860152166060840152608083015260a0820152f35b905081600319360112610a79576117b1612475565b906117ba61318f565b6001600160a01b03937f00000000000000000000000000000000000000000000000000000000000000008516330361182e576117f4613424565b60ff6006541690600582101561126a57506001036118205750602092610ac19160243591811690613a6a565b825163baf3f0f760e01b8152fd5b508251635b2fb5b360e11b8152fd5b505034610562578160031936011261056257517f00000000000000000000000000000000000000000000000000000000000000006001600160a01b03168152602090f35b905034610a79576020366003190112610a795735916001600160a01b038316830361068b5750610ac16020926118b561318f565b6131bf565b5050346105625760203660031901126105625760209061109b6118db612475565b612726565b5050346105625760203660031901126105625760209160ff9082906001600160a01b0361190b612475565b1681526018855220541690519015158152f35b5050346105625781600319360112610562576020905160078152f35b83833461056257816003193601126105625761195461318f565b61195c613424565b60ff60135460081c16158015611a31575b8015611a1c575b611a0d5760209250807f0000000000000000000000000000000000000000000000000000000000000000923381526017855220600160ff198254161790556119be82601154612580565b6011556119cb82336139e7565b80518281527feda835ea67193b5de1fbd871950998f0537eec03a9e40592414ba19a24b4325d843392a26001600080516020614dac8339815191525551908152f35b516319e1016760e01b81529050fd5b50338252601760205260ff8183205416611974565b50338252601560205260ff81832054161561196d565b50503461056257816003193601126105625760209061109b6139cc565b50503461056257816003193601126105625760209061109b6139a5565b50503461056257816003193601126105625760209051620151808152f35b838334610562578160031936011261056257611ab961318f565b611ac1613926565b15611b3857600b54918215611b285760209350600b55611ae382600a546126c7565b600a5580518281527f6a0c33aa8c816cdfa77b389739210eadb9f9a653e441ee697d9a29d61a9884a1843392a26001600080516020614dac8339815191525551908152f35b81516312d37ee560e31b81528490fd5b51638a430e9f60e01b81529050fd5b5050346105625760203660031901126105625760209160ff9082906001600160a01b03611b72612475565b1681526015855220541690519015158152f35b5050346105625781600319360112610562576020905161dead8152f35b505034610562578160031936011261056257602090611bbf61318f565b610ac17f00000000000000000000000000000000000000000000000000000000000000006001600160a01b03166131bf565b82843461068b57602036600319011261068b575061067961068792356126d4565b833461068b578060031936011261068b57610840613424565b6124a1565b505034610562578160031936011261056257602090516a5889e9f3e4c6e14f4000008152f35b505034610562578160031936011261056257602090517f00000000000000000000000000000000000000000000000000000000000000008152f35b5050346105625760203660031901126105625760209181906001600160a01b03611cb9612475565b168152600e845220549051908152f35b5050346105625781600319360112610562576020906008549051908152f35b505034610562578160031936011261056257602090611d0561318f565b610ac17f00000000000000000000000000000000000000000000000000000000000000006001600160a01b0316613727565b505034610562578160031936011261056257602090517f00000000000000000000000000000000000000000000000000000000000000008152f35b5050346105625781600319360112610562576020905160128152f35b5050346105625781600319360112610562576020906010549051908152f35b838060031936011261068b57611dc161318f565b611dc9613424565b610a573361351e565b5050346105625760203660031901126105625760209160ff9082906001600160a01b03611dfd612475565b1681526016855220541690519015158152f35b50503461056257816003193601126105625760209060ff6013541690519015158152f35b50503461056257816003193601126105625760209060ff60135460081c1690519015158152f35b9050823461068b57606036600319011261068b57611e77612475565b611e7f61248b565b916044359360ff600654166005811015611f945760038103611f60575b506001600160a01b03831680835260016020908152878420338552905286832054916000198310611ed6575b6020886112558989896140e9565b868310611f3e578115611f27573315611f105750825260016020908152868320338452815291869020908590039055829061125587611ec8565b8751634a1406b160e11b8152908101849052602490fd5b875163e602df0560e01b8152908101849052602490fd5b9050611f5c868851938493637dc7a0d960e11b85523390850161446f565b0390fd5b60021480611f82575b15611f745786611e9c565b85516377d87fb560e11b8152fd5b506001600160a01b0383163014611f69565b634e487b7160e01b835260218252602483fd5b5050346105625781600319360112610562576020905162ed4e008152f35b82843461068b578060031936011261068b5750611fe06132c5565b82519182526020820152f35b5050346105625760203660031901126105625760209160ff9082906001600160a01b03612017612475565b1681526017855220541690519015158152f35b5050346105625781600319360112610562576020906002549051908152f35b91905034610a795782600319360112610a7957610687925080519161206d836123c6565b825263198ccc4d60e21b60208301525191829182612404565b5050346105625781600319360112610562576020905160088152f35b905034610a795781600319360112610a79576120bc612475565b602435903315612135576001600160a01b031691821561211e57508083602095338152600187528181208582528752205582519081527f8c5be1e5ebec7d5bd14f71427d1e84f3dd0314c0f7b2291e5b200ac8c7c3b925843392a35160018152f35b8351634a1406b160e11b8152908101859052602490fd5b835163e602df0560e01b8152808401869052602490fd5b905034610a79576020366003190112610a79578035926001600160a01b0390818516850361068b575061217d61318f565b7f00000000000000000000000000000000000000000000000000000000000000001633036121b15750610ac16020926131bf565b9051635b2fb5b360e11b8152fd5b5050346105625781600319360112610562576020906011549051908152f35b91905034610a795782600319360112610a795780519183600354906001908260011c926001811680156122ad575b602095868610821461229a5750848852908115612278575060011461223d575b6106878686611461828b03836123e1565b929550600383528583205b82841061226557505050826106879461146192820101943861222c565b8054868501880152928601928101612248565b60ff191687860152505050151560051b8301019250611461826106873861222c565b634e487b7160e01b845260229052602483fd5b93607f169361220c565b91905034610a795782600319360112610a795780519183600554906001908260011c92600181168015612350575b602095868610821461229a57508488529081156122785750600114612315576106878686611461828b03836123e1565b929550600583528583205b82841061233d57505050826106879461146192820101943861222c565b8054868501880152928601928101612320565b93607f16936122e5565b8490346105625781600319360112610562577f00000000000000000000000000000000000000000000000000000000000000006001600160a01b03168152602090f35b6001600160401b0381116123b057604052565b634e487b7160e01b600052604160045260246000fd5b604081019081106001600160401b038211176123b057604052565b601f909101601f19168101906001600160401b038211908210176123b057604052565b6020808252825181830181905290939260005b82811061243957505060409293506000838284010152601f8019910116010190565b818101860151848201604001528501612417565b346124705760003660031901126124705760206124686125d6565b604051908152f35b600080fd5b600435906001600160a01b038216820361247057565b602435906001600160a01b038216820361247057565b3461247057600036600319011261247057602061246861264d565b3461247057600036600319011261247057602060405160028152f35b3461247057600036600319011261247057602060405160048152f35b6040919493926060820195825260208201520152565b3461247057600036600319011261247057602060405160038152f35b3461247057600036600319011261247057602060405160018152f35b3461247057600036600319011261247057602060405160ff7f0000000000000000000000000000000000000000000000000000000000000000168152f35b9190820391821161258d57565b634e487b7160e01b600052601160045260246000fd5b8181029291811591840414171561258d57565b81156125c0570490565b634e487b7160e01b600052601260045260246000fd5b60ff60065416600581101561263757600314612631576009546127109081810291818304149015171561258d5761262e907f0000000000000000000000000000000000000000000000000000000000000000906125b6565b90565b61271090565b634e487b7160e01b600052602160045260246000fd5b60ff6006541660058110156126375760031461268e5761266b6133bd565b670de0b6b3a76400009182810292818404149015171561258d5761262e916125b6565b6126966132c5565b9080156126c057670de0b6b3a76400009182810292818404149015171561258d5761262e916125b6565b5050600090565b9190820180921161258d57565b60ff6006541660058110156126375760010361271a57801561271a576127149161262e61270e612703846137ce565b9197929390976138c8565b966126c7565b93612580565b50600090600090600090565b6001600160a01b03166000908152600e60205260409020548015612752576001810180911161258d5790565b50600090565b51906001600160701b038216820361247057565b908160609103126124705761278081612758565b91604061278f60208401612758565b92015163ffffffff811681036124705790565b60065460081c6001600160a01b0390811691821561291f57818316916040928351926318160ddd60e01b84526020938481600481865afa908115612914576000916128e7575b5094805193630240bc6b60e21b8552606085600481875afa80156128dc576000956000916128a6575b50949584600052600081528083600020549560248551809581936370a0823160e01b835260048301527f0000000000000000000000000000000000000000000000000000000000000000165afa92831561289c575060009261287257505090565b90809250813d8311612895575b61288981836123e1565b81010312612470575190565b503d61287f565b513d6000823e3d90fd5b90506128cb91955060603d6060116128d5575b6128c381836123e1565b81019061276c565b5094909438612811565b503d6128b9565b82513d6000823e3d90fd5b90508481813d831161290d575b6128fe81836123e1565b810103126124705751386127e8565b503d6128f4565b86513d6000823e3d90fd5b600092508291508190819081908190565b6001600160a01b031660009081526020819052604090205490565b60135460ff81166129db5760ff6006541660058110156126375760041461298f5760081c60ff168015612987575b61298257600290565b600490565b506001612979565b5062015180420180421161258d577f00000000000000000000000000000000000000000000000000000000000000008091106129d55742106129d057600490565b600290565b50600190565b50600390565b60ff600654166005811015612637576003036129fd57600b5490565b600090565b60ff600654166005811015612637576001036129fd5761262e6009547f0000000000000000000000000000000000000000000000000000000000000000612580565b93909796959260c0959260e08601998652602086015260408501526060840152608083015260a08201520152565b60ff6006541660058110156126375760010361271a57801561271a57612aad90610b7d610b77612aa06133bd565b919093610b7183866125a3565b90612ab7826140b2565b5050612ac38184612580565b91565b612ace613424565b60069060ff82541691600583101561263757600480931461318157805460ff8116600581101561316c57600114612b105760405163baf3f0f760e01b81528490fd5b3315908115613162575b8115613149575b5061313857341561312757612b35346137ce565b939190928015801561311f575b61310e5760095492612b5483856126c7565b927f00000000000000000000000000000000000000000000000000000000000000009283612b81836138c8565b9514613104575b841580156130f9575b6130e857612ba1826000976126c7565b600955612bb087600a546126c7565b600a55612bbf88600b546126c7565b600b5542600c55612bd285600754612580565b600755612be08533306140e9565b338652602094600e8652604098438a892055612bfc8334612580565b90816130d9575b60095499600754958c51958652898601528b8501526060840152608083015260a08201528660c08201528160e0820152600080516020614d8c8339815191526101003392a2828610908115916130d0575b50612c64575b5050505050509050565b80549060ff82169560058710156130bd57600187036130ad57830361309d57600260ff1980931617908181558751916002600080516020614d0c83398151915298898980a36001600160a01b0392600891821c84161561308f5750612cc7614c34565b815489516318160ddd60e01b815290821c8416949087818e81895afa90811561305457899161305e575b50612f9157612cff85612930565b612f91578951630240bc6b60e21b81526060818e81895afa9081156130545789908a92613031575b508d898d518092630dfe168160e01b8252818b5afa90811561302757908f918e8c918e93613008575b505163d21220a760e01b8152928390818c5afa918215612ffe578c92612fcf575b5087163003612fb157506001600160701b0391908216612fa15716955b8611612f9157815499612dae8b612da789600954612580565b97306140e9565b85612ea2575b8c8861dead6024888854881c16938d865195869485936335313c2160e11b85528401525af1988915612e98578a99612e68575b5050888355612df887600a546126c7565b600a5588600955600384549260ff84169316178094556005821015612e5557600080516020614d4c8339815191529a9b9c50612e4697969594939291600391519a8a8c9ba31c16978561460b565b0390a280388080808080612c5a565b634e487b7160e01b895260218d52602489fd5b9080929950813d8311612e91575b612e8081836123e1565b810103126124705751963880612de7565b503d612e76565b82513d8c823e3d90fd5b847f000000000000000000000000000000000000000000000000000000000000000016803b15612f69578d8a83518092630d0e30db60e41b8252818b865af18015612f8757908f91612f74575b5089906044888854881c16918d8651958694859363a9059cbb60e01b85528401528c60248401525af1908115612e98578a91612f3a575b50612db457516314da028560e11b81528c90fd5b90508881813d8311612f6d575b612f5181836123e1565b81010312612f6957518015158103612f695738612f26565b8980fd5b503d612f47565b9a612f808b929c61239d565b9a90612eef565b83513d8d823e3d90fd5b8951633c1413fb60e01b81528c90fd5b8b51633c1413fb60e01b81528e90fd5b86163003612fa1576001600160701b03918216612fa1571695612d8e565b612ff09192508b3d8d11612ff7575b612fe881836123e1565b8101906132a6565b9038612d71565b503d612fde565b8e513d8e823e3d90fd5b613020919350823d8411612ff757612fe881836123e1565b9138612d50565b8d513d8d823e3d90fd5b905061304c915060603d6060116128d5576128c381836123e1565b509038612d27565b8b513d8b823e3d90fd5b90508781813d8311613088575b61307581836123e1565b81010312613084575138612cf1565b8880fd5b503d61306b565b633c1413fb60e01b81528b90fd5b8651638199f5f360e01b81528990fd5b875163baf3f0f760e01b81528a90fd5b634e487b7160e01b865260218a52602486fd5b90501538612c54565b6130e382336139e7565b612c03565b604051638199f5f360e01b81528a90fd5b506007548511612b91565b6007549450612b88565b604051631f2a200560e01b81528790fd5b508115612b42565b604051631f2a200560e01b81528390fd5b604051634e46966960e11b81528390fd5b3360089190911c6001600160a01b031614905038612b21565b3330149150612b1a565b602185634e487b7160e01b6000525260246000fd5b50905061318d3361351e565b565b600080516020614dac83398151915260028154146131ad5760029055565b604051633ee5aeb560e01b8152600490fd5b906001600160a01b03337f0000000000000000000000000000000000000000000000000000000000000000821614158061327a575b613269578216801561325757600a549283156132455783613219916000600a556139e7565b7f0f58cb6262d88971b87878468debb7bc81f1714be597710e16a9fb84c66ff7b56020604051858152a2565b6040516312d37ee560e31b8152600490fd5b60405163d92e233d60e01b8152600490fd5b6040516282b42960e81b8152600490fd5b50807f0000000000000000000000000000000000000000000000000000000000000000163314156131f4565b9081602091031261247057516001600160a01b03811681036124705790565b60065460081c6001600160a01b03908116919082156133b457604051630240bc6b60e21b815290606082600481875afa93841561337957600092600095613385575b5090602060049260405193848092630dfe168160e01b82525afa91821561337957600092613358575b50163003613348576001600160701b03908116921690565b6001600160701b03928316921690565b61337291925060203d602011612ff757612fe881836123e1565b9038613330565b6040513d6000823e3d90fd5b600492919550602093506133a79060603d6060116128d5576128c381836123e1565b5093909395919250613307565b50600091508190565b6133ea6009547f0000000000000000000000000000000000000000000000000000000000000000906126c7565b9061262e6133fd600754600854906126c7565b7f0000000000000000000000000000000000000000000000000000000000000000906126c7565b60065460ff81169060058210156126375760048214806134f4575b806134e7575b61344d575050565b601054917f000000000000000000000000000000000000000000000000000000000000000083106134835750505061318d61448d565b7fd06618f00e4db5bc4d25734a5aefd22c95ef99b512f746c01022645e501b62a092600160409361010061ff0019601354161760135560ff1916176006556001835192600080516020614d0c833981519152600080a3600f549082526020820152a1565b5060ff6013541615613445565b507f000000000000000000000000000000000000000000000000000000000000000042101561343f565b9060ff600654169160058310156126375760048093036136f057620151804201804211613712577f0000000000000000000000000000000000000000000000000000000000000000809110613701574210156136f0576001600160a01b03166000818152601460205260408082205490919060ff16156136e0577f000000000000000000000000000000000000000000000000000000000000000034036136d057828152601560205260ff82822054166136c057600f547f000000000000000000000000000000000000000000000000000000000000000011156136b0578281526015602052818120600160ff19825416179055600f5490600182018092116109e3575061367d93945090817f2937d4b8ffdeea00fe58bc57f57d3010576fc9b39a784691fcc8054e15c60a4392600f5561365b346010546126c7565b9485928360105561366e346011546126c7565b601155519283923490846124f4565b0390a27f0000000000000000000000000000000000000000000000000000000000000000146136a857565b61318d61448d565b8151635c766e7560e01b81528590fd5b815163887daea160e01b81528590fd5b8151636ece8a1b60e01b81528590fd5b815163033bb9db60e21b81528590fd5b6040516302664e7160e11b81528390fd5b6040516302664e7160e11b81528490fd5b601184634e487b7160e01b6000525260246000fd5b906001600160a01b037f0000000000000000000000000000000000000000000000000000000000000000811633036132695760ff600654166005811015612637576003036137bc578216801561325757600b549283156132455783613790916000600b556139e7565b7fd046302bdc39599e60a5981e59227dcd1c643f512f56f2e984390c3ac6eadedb6020604051858152a2565b60405163baf3f0f760e01b8152600490fd5b906137fb6009547f0000000000000000000000000000000000000000000000000000000000000000612580565b9182156138b65761381661380e826140b2565b505082612580565b92808411613832575091905b61382b836140b2565b9091509091565b925050613851613841836146a2565b6126ac61271085091515906126c7565b91825b613874575b5061386e613866836140b2565b505083612580565b90613822565b9182613882613866836140b2565b11156138b057600019810190811161389b579182613854565b60246000634e487b7160e01b81526011600452fd5b91613859565b60405163c83ba27d60e01b8152600490fd5b6138d4816009546126c7565b7f00000000000000000000000000000000000000000000000000000000000000001461391f57613919610b7d61262e9261390c6133bd565b939091610b7185846125a3565b906125b6565b5060075490565b60ff600654166005811015612637576001148061399a575b80613963575b8061394c5790565b50600c5462278d00810180911161258d5742101590565b507f000000000000000000000000000000000000000000000000000000000000000062ed4e00810180911161258d57421015613944565b50600b54151561393e565b61262e6139c36139ba600954600a54906126c7565b600b54906126c7565b601154906126c7565b6139d46139a5565b4790808211156126c05761262e91612580565b814710613a4b57604051602081016001600160401b038111828210176123b057604052600080809481948280955260018060a01b03165af115613a275750565b3d15613a3957604051903d90823e3d90fd5b60405163d6bda27560e01b8152600490fd5b60405163cf47918160e01b815247600482015260248101839052604490fd5b6001600160a01b038082169493909260009186158015614077575b8015614067575b61405557341561403b57613a9f346137ce565b9792999091968a15801561404d575b61403b57600954613abf89826126c7565b9b7f00000000000000000000000000000000000000000000000000000000000000009687613aec8c6138c8565b9e14614031575b8d158015614026575b614014578d1061401457613b618d600080516020614d8c83398151915294613b458e613b2b8f610100986126c7565b600955613b3a8a600a546126c7565b600a55600b546126c7565b600b5542600c55613b5882600754612580565b600755306140e9565b838952602097600e895260409b8c9643888d2055613b7f8434612580565b928380614004575b50506009549c60075498519485528b8501528d840152606083015260808201528c60a08201528960c08201528460e0820152a282861090811591613ffb575b50613bd4575b505050505050565b60069081549160ff8316966005881015613fe75760018803613fd6578403613fc557600260ff198094161780825588516002600080516020614d0c833981519152998a8a80a383600892831c1615613fb65750613c2f614c34565b828254821c16938951996318160ddd60e01b8b5260049a88818d818a5afa908115612e98578a91613f89575b50613ee357613c6986612930565b613ee3578051630240bc6b60e21b81526060818d818a5afa908115612e98578a908b92613f66575b508251630dfe168160e01b81528a818f818c5afa908115613ed957908e918d91613f49575b508b8551809363d21220a760e01b8252818d5afa918215613f3f578d92613f20575b5088163003613f0257506001600160701b0391908216613ef25716965b8711613ee35782549a613d158c613d0e8a600954612580565b98306140e9565b86613dfb575b8989878754871c1660248551809481936335313c2160e11b835261dead888401525af1998a15612f87578b9a613dcb575b5050898455613d5d88600a546126c7565b600a5589600955600385549360ff85169416178095556005831015613db85750916003600080516020614d4c8339815191529a9998969492613daa989694519a8a8c9ba31c16978561460b565b0390a2388080808080613bcc565b634e487b7160e01b8a5260219052602489fd5b9080929a50813d8311613df4575b613de381836123e1565b810103126124705751973880613d4c565b503d613dd9565b857f000000000000000000000000000000000000000000000000000000000000000016803b15613ebd578251630d0e30db60e41b81528b8184818c865af18015613ed957613ec8575b50898b916044898954891c168651948593849263a9059cbb60e01b8452888401528d60248401525af1908115612f87578b91613e8e575b50613d1b5790516314da028560e11b8152fd5b90508981813d8311613ec1575b613ea581836123e1565b81010312613ebd57518015158103613ebd5738613e7b565b8a80fd5b503d613e9b565b9a613ed38b9c61239d565b9a613e44565b84513d8e823e3d90fd5b51633c1413fb60e01b81528a90fd5b8251633c1413fb60e01b81528d90fd5b87163003613ef2576001600160701b03918216613ef2571696613cf5565b613f389192508c8d3d10612ff757612fe881836123e1565b9038613cd8565b85513d8f823e3d90fd5b613f6091508c8d3d10612ff757612fe881836123e1565b38613cb6565b9050613f81915060603d6060116128d5576128c381836123e1565b509038613c91565b90508881813d8311613faf575b613fa081836123e1565b81010312612f69575138613c5b565b503d613f96565b633c1413fb60e01b8152600490fd5b8751638199f5f360e01b8152600490fd5b885163baf3f0f760e01b8152600490fd5b634e487b7160e01b87526021600452602487fd5b90501538613bc6565b61400d916139e7565b3883613b87565b604051638199f5f360e01b8152600490fd5b508d60075410613afc565b6007549d50613af3565b604051631f2a200560e01b8152600490fd5b508715613aae565b604051634e46966960e11b8152600490fd5b508460065460081c168714613a8c565b50308714613a85565b90801561409f5761409760019160001984016125b6565b019015150290565b634e487b7160005260126020526024601cfd5b801561271a578061271060646140ca6140d49461470c565b92091515906126c7565b906140de82614627565b9061262e8284612580565b91906001600160a01b03808416156141245781161561410b5761318d92614775565b60405163ec442f0560e01b815260006004820152602490fd5b604051634b637e8f60e11b815260006004820152602490fd5b3d15614177573d906001600160401b0382116123b0576040519161416b601f8201601f1916602001846123e1565b82523d6000602084013e565b606090565b6001600160a01b039081167f000000000000000000000000000000000000000000000000000000000000000082168114614250577f0000000000000000000000000000000000000000000000000000000000000000803b1561424857600080916040516020810190638da5cb5b60e01b8252600481526141fb816123c6565b51915afa9161420861413d565b8361423a575b8361421a575b50505090565b61423091929350602080825183010191016132a6565b1614388080614214565b92506020835110159261420e565b505050600090565b5050600190565b6001600160a01b039080821680159081156143e8575b5080156143df575b6126c05760405160209283820191630dfe168160e01b83526004815261429a816123c6565b6000809381925190865afa6142ad61413d565b83806040518881019063d21220a760e01b8252600481526142cd816123c6565b5190885afa84806142dc61413d565b976040518a81019063c45a015560e01b8252600481526142fb816123c6565b51915afa61430761413d565b93159182156143d3575b82156143ca575b5081156143be575b81156143b5575b5080156143ab575b6143a257908261435e8161434e858a8061436d985183010191016132a6565b16968880825183010191016132a6565b169580825183010191016132a6565b168015908115614398575b506143925750301490811561438b575090565b9050301490565b91505090565b90503b1538614378565b50505091505090565b508582511061432f565b90501538614327565b90508686511090614320565b15915038614318565b91508783511091614311565b50803b15614275565b905030143861426d565b6001600160a01b0390811660008181526018602052604090208054919390929015159060ff831615158214614468577ff1d8d554547fde8a73173802e84a46a02e1c0211606173662897eae8bd39d0429360409360ff84169060ff191617905560065460081c16841482519182526020820152a2565b5050505050565b604091949392606082019560018060a01b0316825260208201520152565b60135460ff81166137bc57601054907f000000000000000000000000000000000000000000000000000000000000000082036137bc576144db906144d0836140b2565b949182949194612580565b908115614014576144eb826138c8565b6145206145197f000000000000000000000000000000000000000000000000000000000000000080936125b6565b91826125a3565b9181158015614603575b80156145f8575b61401457600160ff19809616176013558160125582600d55600060115561455a846009546126c7565b60095561456986600a546126c7565b600a5561457887600b546126c7565b600b5561458783600754612580565b60075542600c5560016006549560ff87169616176006556005851015612637577f8020fdb0592775b626a997485c415e05a790703d920667e59222a260f0c3903a966001966145f395604051988998600080516020614d0c833981519152600080a3600f549388612a44565b0390a1565b506007548311614531565b50821561452a565b9094939260609260808301968352602083015260408201520152565b600019601e8209601e820290818082109103908082039114614699578060641115614686576064601e7f5c28f5c28f5c28f5c28f5c28f5c28f5c28f5c28f5c28f5c28f5c28f5c28f5c29940990828211900360fe1b910360021c170290565b634e487b7160005260116020526024601cfd5b50606491500490565b61271060001981830981830291828083109203918083039214614701576126ac9082821115614686577fa902ffe58553adaa902ffe58553adaa902ffe58553adaa902ffe58553adaa903940990828211900360fe1b910360021c170290565b50506126ac91500490565b60001960648209606482029081808210910390808203911461476b57612710818111156146865760647fbc01a36e2eb1c432ca57a786c226809d495182a9930be0ded288ce703afb7e91940990828211900360fc1b910360041c170290565b5061271091500490565b9190614782828285614a35565b614790575b61318d92614aa4565b61ffff612710806147c37f00000000000000000000000000000000000000000000000000000000000000008416866125a3565b0491826147d257505050614787565b614801909392937f000000000000000000000000000000000000000000000000000000000000000016846125a3565b0461480c8184612580565b9061482161481a8587612580565b8488614aa4565b80614895575b8161486091600080516020614d2c833981519152959493614865575b6040516001600160a01b039485169890941696939485948561460b565b0390a3565b614890827f00000000000000000000000000000000000000000000000000000000000000008a614aa4565b614843565b60ff6006541660058110158061263757600182148015614a28575b156149e35750506001600160a01b03861680159081156149da575b30149081156149ce575b1590816149c5575b506149b3575b6001600160a01b03861680614954579181600080516020614d2c833981519152959493614915614860946002546126c7565b6002555b61dead908160005260006020526040600020838154019055600080516020614d6c8339815191526020604051858152a3915091929350614827565b6000818152806020526040812054838110614995579181604085600080516020614d2c83398151915299989795846148609896528360205203912055614919565b88611f5c8560405193849363391434e360e21b85526004850161446f565b6040516377d87fb560e11b8152600490fd5b905015386148dd565b61dead301491506148d5565b600091506148cb565b6126375760028103614a065750306001600160a01b038716036137bc575b6148e3565b6003036148e3573061dead03614a0157604051634e46966960e11b8152600490fd5b50506000600482146148b0565b9091156126c05760ff600654166005811015612637576003036126c0576001600160a01b0390811680158015614a9a575b61424857600052601860205260ff60406000205416918215614a8757505090565b9091501660005260ff6040600020541690565b5081831615614a66565b9060ff6006541660058110158061263757600182148015614c27575b15614bdb57506001600160a01b0390508281168015908115614bd0575b3014918215614bc4575b50159081614bbb575b506149b3575b6001600160a01b038281169290919083614b5f5750600080516020614d6c83398151915291602091614b2a866002546126c7565b6002555b169384614b475780600254036002555b604051908152a3565b84600052600082526040600020818154019055614b3e565b60009084825281602052604082205490868210614b9e5750918160408760209588600080516020614d6c83398151915298965283875203912055614b2e565b611f5c8760405193849363391434e360e21b85526004850161446f565b90501538614af0565b83163014915038614ae7565b838316159150614add565b6126375760028103614bfe5750306001600160a01b038316036137bc575b614af6565b600303614af657306001600160a01b03821603614bf957604051634e46966960e11b8152600490fd5b5050600060048214614ac0565b60065460081c6001600160a01b03908116908115614cd5576040516318160ddd60e01b8152602081600481865afa90811561337957600091614cd9575b50614cd557813b156124705760009160248392604051948593849263bc25cf7760e01b84527f00000000000000000000000000000000000000000000000000000000000000001660048401525af1801561337957614ccc5750565b61318d9061239d565b5050565b90506020813d602011614d03575b81614cf4602093836123e1565b81010312612470575138614c71565b3d9150614ce756fe3a779de46631dd65116ae538600f1bc3c338200c6aef638429b5de43301c28f7e7394f16cc22ae35fb752bb4c8624944eb198544034ab0a3590d0e139bf9267871aa8c3702dbbc54247a4e6446450e64a46250dd72707a247ddb01d72eaef445ddf252ad1be2c89b69c2b068fc378daa952ba7f163c4a11628f55a4df523b3ef6ff5f8cb3bbdee941e910591101be7dcb3bd64213bbc4ac9e994c9d7b0ef74cd9b779b17422d0df92223018b32b4d1fa46e071723d6817e2486d003becc55f00a2646970667358221220db74685744a31769e4a46ff75223d9100ba3ca9888b50e4b596e5b2440e4ae1664736f6c63430008180033e7394f16cc22ae35fb752bb4c8624944eb198544034ab0a3590d0e139bf92678ddf252ad1be2c89b69c2b068fc378daa952ba7f163c4a11628f55a4df523b3ef",
  "linkReferences": {},
  "deployedLinkReferences": {}
}