{
  "_format": "hh-sol-artifact-1",
  "contractName": "LaunchTokenTaxedDeployer",
  "sourceName": "contracts/LaunchTokenTaxedDeployer.sol",
  "abi": [
    {
      "inputs": [],
      "stateMutability": "nonpayable",
      "type": "constructor"
    },
    {
      "inputs": [],
      "name": "Unauthorized",
      "type": "error"
    },
    {
      "inputs": [
        {
          "components": [
            {
              "internalType": "string",
              "name": "name",
              "type": "string"
            },
            {
              "internalType": "string",
              "name": "symbol",
              "type": "string"
            },
            {
              "internalType": "string",
              "name": "metadataURI",
              "type": "string"
            },
            {
              "internalType": "address",
              "name": "creator",
              "type": "address"
            },
            {
              "internalType": "address",
              "name": "factory",
              "type": "address"
            },
            {
              "internalType": "address",
              "name": "protocolFeeRecipient",
              "type": "address"
            },
            {
              "internalType": "address",
              "name": "router",
              "type": "address"
            },
            {
              "internalType": "uint256",
              "name": "graduationQuoteReserve",
              "type": "uint256"
            },
            {
              "internalType": "uint8",
              "name": "launchModeId",
              "type": "uint8"
            },
            {
              "internalType": "uint16",
              "name": "taxBps",
              "type": "uint16"
            },
            {
              "internalType": "uint16",
              "name": "burnShareBps",
              "type": "uint16"
            },
            {
              "internalType": "uint16",
              "name": "treasuryShareBps",
              "type": "uint16"
            },
            {
              "internalType": "address",
              "name": "treasuryWallet",
              "type": "address"
            },
            {
              "internalType": "bytes32",
              "name": "salt",
              "type": "bytes32"
            }
          ],
          "internalType": "struct LaunchTokenTaxedDeployer.DeployConfig",
          "name": "config",
          "type": "tuple"
        }
      ],
      "name": "deploy",
      "outputs": [
        {
          "internalType": "address",
          "name": "token",
          "type": "address"
        }
      ],
      "stateMutability": "nonpayable",
      "type": "function"
    },
    {
      "inputs": [],
      "name": "recoverUnexpectedNative",
      "outputs": [],
      "stateMutability": "nonpayable",
      "type": "function"
    }
  ],
  "bytecode": "0x6080806040523461002857600080546001600160a01b03191633179055615c17908161002e8239f35b600080fdfe608060405260043610156200001357600080fd5b60003560e01c80630156977914620003d75763a2b998b7146200003557600080fd5b34620003c157600319602036820112620003c1576001600160401b0360043511620003c1576101c06004356004019160043536030112620003c157600435608401906001600160a01b036200008a8362000404565b163303620003c65780620000a381620000c59362000419565b91620000b56024600435018262000419565b9490916044600435019062000419565b919092620000e3620000dc60646004350162000404565b9762000404565b91620000f460a46004350162000404565b906200010560c46004350162000404565b61010460043501359060ff82168203620003c1576200012a610124600435016200044e565b936200013c610144600435016200044e565b966200014e610164600435016200044e565b99620001606101846004350162000404565b9c6040519e8f806101a0810110906101a060018060401b0391011117620003ab578f92620001ca9061ffff9f9d61ffff9e8f9d9b606096620001b360ff9e620001bd946101a08c0160405236916200045e565b895236916200045e565b602087015236916200045e565b604084015260018060a01b031691015260018060a01b031660808d015260018060a01b031660a08c015260018060a01b031660c08b015260e4600435013560e08b01521661010089015216610120870152166101408501521661016083015260018060a01b0316610180820152604051806156ec81011060018060401b036156ec83011117620003ab576156ec620004f6823960206156ec820152620002cf6200028b83516101a060206156ec860101526101c06156ec85010190620004b3565b620002b1602085015191601f1992836156ec870183030160406156ec88010152620004b3565b906040850151906156ec850183030160606156ec86010152620004b3565b60608301516001600160a01b0390811660806156ec850181810192909252850151821660a080830191909152850151821660c080830191909152850151821660e0808301919091528501516101008083019190915285015160ff166101208083019190915285015161ffff90811661014080840191909152860151811661016080840191909152860151166101808083019190915290940151166101a0909301929092526101a4600435013591819003906000f580156200039f576040516001600160a01b039091168152602090f35b6040513d6000823e3d90fd5b634e487b7160e01b600052604160045260246000fd5b600080fd5b6040516282b42960e81b8152600490fd5b34620003c1576000366003190112620003c15760008080804760018060a01b038254165af115620003c657005b356001600160a01b0381168103620003c15790565b903590601e1981360301821215620003c157018035906001600160401b038211620003c157602001918136038313620003c157565b3561ffff81168103620003c15790565b9192916001600160401b0391828111620003ab5760405192601f8201601f19908116603f0116840190811184821017620003ab57604052829481845281830111620003c1578281602093846000960137010152565b919082519283825260005b848110620004e0575050826000602080949584010152601f8019910116010190565b602081830181015184830182015201620004be56fe61026080604052346200095057620056ec803803809162000021828562000def565b8339810160208282031262000950578151906001600160401b03821162000950576101a08284018203126200095057604051906101a082016001600160401b0381118382101762000ac457604052838301516001600160401b03811162000950578162000092918587010162000e13565b8252838301602001516001600160401b038111620009505781620000ba918587010162000e13565b602083015283830160400151906001600160401b0382116200095057620000e5918486010162000e13565b92836040830152620000fc60608483010162000e89565b8060608401526200011260808584010162000e89565b938460808501526200012960a08285010162000e89565b8060a08601526200013f60c08386010162000e89565b908160c087015260e08386010151928360e088015261010081870101519560ff871687036200095057620001c59161018091886101008b0152620001896101208383010162000e9e565b6101208b0152620001a06101408383010162000e9e565b6101408b0152620001b76101608383010162000e9e565b6101608b0152010162000e89565b6101808701528551602087015160405198916101208a016001600160401b0381118b82101762000ac4576040908152818b5260208b018390528a018b90526001600160a01b0387811660608c015283811660808c015284811660a08c0152851660c08b015260e08a0186905260ff88166101008b01528051906001600160401b03821162000ac45760035490600182811c9216801562000de4575b602083101462000aa35781601f84931162000d72575b50602090601f831160011462000ce35760009262000cd7575b50508160011b916000199060031b1c1916176003555b8051906001600160401b03821162000ac45760045490600182811c9216801562000ccc575b602083101462000aa35781601f84931162000c5a575b50602090601f831160011462000bcb5760009262000bbf575b50508160011b916000199060031b1c1916176004555b60017f9b779b17422d0df92223018b32b4d1fa46e071723d6817e2486d003becc55f0055831562000bad57620003458462001088565b94851562000bad576001600160a01b03811615801562000b9b575b801562000b89575b801562000b77575b62000b65576001600160a01b0390811660a05290811660c05290811660e052811661010081905260405163c45a015560e01b815290602090829060049082905afa9081156200095e5760009162000b1c575b50610120526040516315ab88c960e31b815290602090829060049082906001600160a01b03165afa9081156200095e5760009162000ada575b506101405261016052610180526a5889e9f3e4c6e14f4000006101a052426101c0819052600c5583516001600160401b03811162000ac457600554600181811c9116801562000ab9575b602082101462000aa357601f811162000a59575b506020601f8211600114620009e557819060ff949596600092620009d9575b50508160011b916000199060031b1c1916176005555b166080523015620009c057620004a430620011e0565b6b0295be96e6406697200000006007556aa56fa5b99019a5c8000000600855610120516101405160405163e6a4390560e01b815260009492909160209183916001600160a01b039182169183918291620005049116306004840162001124565b03915afa938415620009b45780946200096a575b50506001600160a01b03831615620008b9575b600680546001610100600160a81b03600887901b166001600160a81b0319831617811790925591620005909160007f3a779de46631dd65116ae538600f1bc3c338200c6aef638429b5de43301c28f78180a3608001516001600160a01b031662000fd3565b15620008a75760ff6101008301511661ffff610120840151169061ffff6101408501511661ffff610160860151169160ff620005da60018060a01b0361018089015116956200113e565b16036200082957810161ffff8111620008915761ffff61271091160362000829571580158062000888575b6200082957806200087e575b620008295730811490811562000848575b81156200083b575b50620008295761012082015161ffff9081166101e090815261014084015182166102009081526101608501519092166102209081526101808501516001600160a01b039081166102409081529296939592949193620006c59392620006b2926001600160a81b0319909116600892831b610100600160a81b03161760011790911c1662000ebc565b608001516001600160a01b031662000f36565b15620008175760405192614084948562001628863960805185612276015260a051858181611b590152818161207e01528181612b3d015261358a015260c0518581816111ba0152818161179f01528181611eae0152818161298c01526135b3015260e05185818161182401528181611a2d015281816128d90152613f1b01526101005185610b6c0152610120518561124b0152610140518581816103db01528181610c2f015281816126e7015261317a015261016051858181608501528181611abd015281816123230152818161282501528181612be201528181612ce10152612e3e015261018051858181610bd90152612ad301526101a051858181611b9e0152612b0d01526101c0518581816110370152612d710152518481816110e10152818161236c0152613a1f0152518381816111090152613a5e0152518261113001525181818161115f0152613aee0152f35b604051634ed3775760e01b8152600490fd5b60405163694f6dbf60e11b8152600490fd5b61dead915014386200062a565b6001600160a81b03198316600886811b610100600160a81b031691909117600117901c6001600160a01b03168114915062000622565b5080151562000611565b50811562000605565b634e487b7160e01b600052601160045260246000fd5b604051635bb6e57160e11b8152600490fd5b61012051610140516040516364e329cb60e11b815292945060209183916001600160a01b039182169183916000918391620008fa9116306004840162001124565b03925af19081156200095e5760009162000917575b50916200052b565b90506020813d60201162000955575b81620009356020938362000def565b810103126200095057620009499062000e89565b386200090f565b600080fd5b3d915062000926565b6040513d6000823e3d90fd5b909193506020823d602011620009ab575b816200098a6020938362000def565b81010312620009a857506200099f9062000e89565b91388062000518565b80fd5b3d91506200097b565b604051903d90823e3d90fd5b60405163ec442f0560e01b815260006004820152602490fd5b01519050388062000478565b600560005260206000209560005b601f198416811062000a40575095829160ff959697600194601f1981161062000a26575b505050811b016005556200048e565b015160001960f88460031b161c1916905538808062000a17565b82820151885560019097019660209283019201620009f3565b60056000526020600020601f830160051c81016020841062000a9b575b601f830160051c8201811062000a8e57505062000459565b6000815560010162000a76565b508062000a76565b634e487b7160e01b600052602260045260246000fd5b90607f169062000445565b634e487b7160e01b600052604160045260246000fd5b90506020813d60201162000b13575b8162000af86020938362000def565b81010312620009505762000b0c9062000e89565b38620003fb565b3d915062000ae9565b90506020813d60201162000b5c575b8162000b3a6020938362000def565b81010312620009505760049162000b5360209262000e89565b915091620003c2565b3d915062000b2b565b60405163d92e233d60e01b8152600490fd5b506001600160a01b0384161562000370565b506001600160a01b0383161562000368565b506001600160a01b0382161562000360565b604051630d956e1760e21b8152600490fd5b015190503880620002f9565b6004600090815293507f8a35acfbc15ff81a39ae7d344fd709f28e8600b4aa8c65c6b64bfe7fe36bd19b91905b601f198416851062000c3e576001945083601f1981161062000c24575b505050811b016004556200030f565b015160001960f88460031b161c1916905538808062000c15565b8181015183556020948501946001909301929091019062000bf8565b60046000529091507f8a35acfbc15ff81a39ae7d344fd709f28e8600b4aa8c65c6b64bfe7fe36bd19b601f840160051c81016020851062000cc4575b90849392915b601f830160051c8201811062000cb4575050620002e0565b6000815585945060010162000c9c565b508062000c96565b91607f1691620002ca565b0151905038806200028f565b6003600090815293507fc2575a0e9e593c00f959f8c92f12db2869c3395a3b0502d05e2516446f71f85b91905b601f198416851062000d56576001945083601f1981161062000d3c575b505050811b01600355620002a5565b015160001960f88460031b161c1916905538808062000d2d565b8181015183556020948501946001909301929091019062000d10565b60036000529091507fc2575a0e9e593c00f959f8c92f12db2869c3395a3b0502d05e2516446f71f85b601f840160051c81016020851062000ddc575b90849392915b601f830160051c8201811062000dcc57505062000276565b6000815585945060010162000db4565b508062000dae565b91607f169162000260565b601f909101601f19168101906001600160401b0382119082101762000ac457604052565b919080601f84011215620009505782516001600160401b03811162000ac4576020906040519262000e4e83601f19601f850116018562000def565b818452828287010111620009505760005b81811062000e7557508260009394955001015290565b858101830151848201840152820162000e5f565b51906001600160a01b03821682036200095057565b519061ffff821682036200095057565b919082018092116200089157565b6001600160a01b039081166000818152600f602052604090208054919290919060ff8216151560011462000f30577ff1d8d554547fde8a73173802e84a46a02e1c0211606173662897eae8bd39d04292600160409360ff191617905560065460081c168314815190600182526020820152a2565b50505050565b6001600160a01b03908082169033821462000fcb573b1562000fc457602060049160405192838092631f6f884760e11b82525afa9081156200095e5760009162000f82575b5016331490565b90506020813d60201162000fbb575b8162000fa06020938362000def565b81010312620009505762000fb49062000e89565b3862000f7b565b3d915062000f91565b5050600090565b505050600190565b6001600160a01b03908082169033821462000fcb573b1562000fc457600160ff6080511614620010595760ff60805116600381101590816200104c575b506200101d575050600090565b602060049160405192838092631f6f884760e11b82525afa9081156200095e5760009162000f82575016331490565b600b915011153862001010565b60206004916040519283809263136afe8560e31b82525afa9081156200095e5760009162000f82575016331490565b6afdf98fad74e08717400000600019818309818302918280831092039180830392146200110f576b0295be96e6406697200000009082821115620010fc577fab5d02869c14ad85338e6a157058d28e658611776aff168d01c445d3a8cc9189940990828211900360e31b9103601d1c170290565b634e487b7160005260116020526024601cfd5b50506b0295be96e64066972000000091500490565b6001600160a01b0391821681529116602082015260400190565b61ffff1660648114620011da5760c88114620011d45761012c8114620011ce576101908114620011c8576101f48114620011c2576102588114620011bc576102bc8114620011b6576103208114620011b05761038414620011ab5760405163694f6dbf60e11b8152600490fd5b600b90565b50600a90565b50600990565b50600890565b50600790565b50600690565b50600590565b50600490565b50600390565b620011ea6200150d565b62001314575b60ff60065416600581101580620012f05760018214801562001306575b1562001294575b50506002546b033b2e3c9fd0803ce80000009182820180921162000891576002919091556001600160a01b031690600090600080516020620056cc83398151915290602090846200127e576b033b2e3c9fd0803ce7ffffff19600254016002555b604051908152a3565b8484528382526040842081815401905562001275565b620012f05760028103620012c4575030620012b2575b388062001214565b60405163baf3f0f760e01b8152600490fd5b600303620012aa57306001600160a01b03821603620012aa575b604051634e46966960e11b8152600490fd5b634e487b7160e01b600052602160045260246000fd5b50506000600482146200120d565b61ffff806101e05116906b033b2e3c9fd0803ce8000000918083029083820403620008915761271080910491821590811562001355575050505050620011f0565b610200959394955116908185029185830414171562000891570480830392808411620008915780850385811162000891576200139290846200152f565b81620013fe575b916000938284608094600080516020620056ac8339815191529603620013de575b60408051988952602089019190915287015260608601526001600160a01b031693a3565b61024051620013f89084906001600160a01b03166200152f565b620013ba565b60ff60065416600581101580620012f057600182148015620014ff575b1562001488575b50509160009382600080516020620056ac833981519152946200144a60809560025462000eae565b60025561dead808852876020526040882083815401905587600080516020620056cc8339815191526020604051868152a39294509250935062001399565b620012f05760028103620014c45750909130620012b257600093600080516020620056ac833981519152936080935b9294509281955062001422565b600314620014eb575b91600093608092600080516020620056ac83398151915294620014b7565b90913061dead14620012de579190620014cd565b50506000600482146200141b565b60ff600654166005811015620012f0576003036200152a57600090565b600090565b60ff60065416600581101580620012f05760018214801562001619575b156200159f575b5050600080516020620056cc8339815191526020600092620015788560025462000eae565b6002556001600160a01b031693841584146200127e578060025403600255604051908152a3565b620012f05760028103620015d2575030620012b257600080516020620056cc83398151915260206000925b925062001553565b600314620015f6575b600080516020620056cc8339815191526020600092620015ca565b306001600160a01b03821603620015db57604051634e46966960e11b8152600490fd5b50506000600482146200154c56fe60806040818152600491823610156106c9575b50361561001e57600080fd5b61002661289d565b6006805460ff811660058110156106b4576001036106a557331590811561069b575b8115610682575b506106745734156106665761006334612bd9565b919290938115801561065e575b61064e57600954936100828186612572565b927f000000000000000000000000000000000000000000000000000000000000000093846100af84612cd3565b9114610645575b8015801561063a575b61062a576100cf83600098612572565b6009556100de88600a54612572565b600a556100ed86600b54612572565b600b5542600c556101008160075461229a565b60075561010e813330613465565b338752602095600e8752438a892055610127833461229a565b908161061b575b60095499600754958c51958652898601528b8501526060840152608083015260a08201528660c08201528160e082015260008051602061400f8339815191526101003392a282861090811591610612575b50610199575b600160008051602061402f83398151915255005b80549060ff82169560058710156105ff57600187036105ef5783036105df57600260ff1980931617908181558751916002600080516020613f8f83398151915298898980a36001600160a01b0392600891821c8416156105d157506101fc613eb7565b828254821c169389516318160ddd60e01b815287818d81895afa9081156105965789916105a0575b506104c357610232856127cb565b6104c3578951630240bc6b60e21b81526060818d81895afa9081156105965789908a92610563575b508b51630dfe168160e01b815289818f818b5afa90811561055957908a8f928f908e9361053a575b505163d21220a760e01b8152928390818c5afa918215610530578c92610501575b50871630036104e357506001600160701b03919082166104d35716955b86116104c3578154996102e08b6102d98960095461229a565b9730613465565b856103d8575b8b8861dead6024888854881c16938d865195869485936335313c2160e11b85528401525af19889156103ce578a99610399575b505088835561032a87600a54612572565b600a5588600955600384549260ff8416931617809455600582101561038657600080516020613fcf8339815191529a9b5061037797969594939291600391519a8a8c9ba31c16978561388e565b0390a238808080808080610185565b634e487b7160e01b895260218c52602489fd5b9080929950813d83116103c7575b6103b181836120f1565b810103126103c25751963880610319565b600080fd5b503d6103a7565b82513d8c823e3d90fd5b847f000000000000000000000000000000000000000000000000000000000000000016803b1561049b578151630d0e30db60e41b81528a818f818b865af180156104b9576104a6575b50888d6044888854881c16918d8651958694859363a9059cbb60e01b85528401528c60248401525af19081156103ce578a9161046c575b506102e657516314da028560e11b81528b90fd5b90508881813d831161049f575b61048381836120f1565b8101031261049b5751801515810361049b5738610458565b8980fd5b503d610479565b6104b2909a919a6120ad565b9838610421565b83513d8d823e3d90fd5b8951633c1413fb60e01b81528b90fd5b8b51633c1413fb60e01b81528d90fd5b861630036104d3576001600160701b039182166104d35716956102c0565b6105229192508b3d8d11610529575b61051a81836120f1565b8101906129b4565b90386102a3565b503d610510565b8e513d8e823e3d90fd5b610552919350823d84116105295761051a81836120f1565b9138610282565b8d513d8d823e3d90fd5b9050610587915060603d60601161058f575b61057f81836120f1565b810190612617565b50903861025a565b503d610575565b8b513d8b823e3d90fd5b90508781813d83116105ca575b6105b781836120f1565b810103126105c6575138610224565b8880fd5b503d6105ad565b633c1413fb60e01b81528a90fd5b8651638199f5f360e01b81528890fd5b875163baf3f0f760e01b81528990fd5b634e487b7160e01b865260218952602486fd5b9050153861017f565b61062582336134bb565b61012e565b8851638199f5f360e01b81528a90fd5b5060075481116100bf565b506007546100b6565b8551631f2a200560e01b81528790fd5b508315610070565b5051631f2a200560e01b8152fd5b5051634e46966960e11b8152fd5b3360089190911c6001600160a01b03161490503861004f565b3330149150610048565b50505163baf3f0f760e01b8152fd5b602185634e487b7160e01b6000525260246000fd5b600090813560e01c90816302d05d3f1461206a5750806303ee438c14611fc757806306b51d48146116ad57806306fdde0314611eee578063086e5ca014611e7b578063095ea7b314611dd15780630b42aae014611db557806315a0aa0814611d8c578063173d5e4214611a7a57806318160ddd14611d6d5780631cd97db514611d475780631d924c7714611d2957806323b872dd14611bdd578063313ce56714611bc1578063343ee3b714611b86578063351fee4614611b3757806337488a4214611b1857806337b28bfd14611ae05780633993152714611aa55780633af32abf146110795780633cfe0ade14611a7f578063403287a914610e3d57806340faa03c14611a7a578063463bb8001461136f5780634815327914611a5a5780634a7d036914611a0b5780634e6fd6c4146119ee5780635386600614611946578063581b51f3146119295780635878f8ce1461190c5780636095a620146118f057806362081d51146118b2578063644537cb1461188c57806364a5dc2b1461185357806364df049e1461180f5780636723064e146117765780636887c8481461172357806368bc13f5146117075780636a534fcb146116ce5780636a740d31146112965780636f28507c146116b25780636f71f017146116ad57806370a082311461168757806374452ec3146116685780637531abe31461107957806379e46987146111e957806385cac237146112b757806386d4ff1d146116195780638925d36e146115fa578063902d55a5146115d45780639111f13d146115ae57806391e7cd341461158f5780639454d7201461157357806395d89b411461148f5780639d0ee65b146114735780639ddf7ad31461109a5780639e5f358a14611456578063a202c86d1461143a578063a36cdf99146113c7578063a8aa1b311461139a578063a8dccd0214611374578063a8ea44451461136f578063a9059cbb146112ff578063aadade7a146112e0578063aecf6a7c14611079578063af1af3b91461105a578063b0cc792d146112bc578063b37dd690146112b7578063b5f1c1ff1461129b578063b82020e814611296578063b88202a91461127a578063b8d8fbb414611236578063be3782281461121a578063c19d93fb146111ee578063c2289878146111e9578063c45a0155146111a5578063c57da029146110b5578063cac01cbc1461109a578063cc3cbd2a1461107e578063cc64aade14611079578063ce228ad21461105a578063cf09e0d01461101f578063d79875eb14610e42578063d81d946f14610e3d578063d96a094a14610dc9578063db9b541314610d7d578063dd62ed3e14610d34578063e1a4521814610d17578063e832662614610c5e578063eb6d3a1114610c1a578063f48f6f1d14610bfc578063f559662614610bc1578063f7ce612a14610b9b578063f887ea4014610b57578063fb3dd95f14610b145763fd897e0b03610012579034610b105781600319360112610b1057602090600d549051908152f35b5080fd5b5034610b54576020366003190112610b545750610b34610b509235612849565b9251918252602082015260408101919091529081906060820190565b0390f35b80fd5b509034610b105781600319360112610b1057517f00000000000000000000000000000000000000000000000000000000000000006001600160a01b03168152602090f35b509034610b105781600319360112610b1057602090516aa56fa5b99019a5c80000008152f35b509034610b105781600319360112610b1057602090517f00000000000000000000000000000000000000000000000000000000000000008152f35b509034610b105781600319360112610b10576020905162278d008152f35b509034610b105781600319360112610b1057517f00000000000000000000000000000000000000000000000000000000000000006001600160a01b03168152602090f35b509034610b105780600319360112610b1057610c78612180565b60243591821580158403610d1357610c8f3361357d565b15610d045760065460081c6001600160a01b03908116908416149081610cfc575b50610ced578280610cdd575b610cce575090610ccb916137f3565b80f35b5163579e643f60e01b81528490fd5b50610ce782613658565b15610cbc565b5163275118ef60e01b81528490fd5b905038610cb0565b8151628989cb60e61b81528690fd5b8480fd5b509034610b105781600319360112610b1057602090516127108152f35b509034610b105780600319360112610b105780602092610d52612180565b610d5a612196565b6001600160a01b0391821683526001865283832091168252845220549051908152f35b509034610b105781600319360112610b105781610120928251928184528160208501528301528060608301528060808301528060a08301528060c08301528060e0830152610100820152f35b506020366003190112610b5457610dde61289d565b60ff60065416906005821015610e2a5750600103610e1d57610e04602092353333612de6565b90600160008051602061402f8339815191525551908152f35b5163baf3f0f760e01b8152fd5b634e487b7160e01b815260218452602490fd5b6121ec565b509034610b105780600319360112610b1057823591610e5f61289d565b60ff60065416600581101561100c57600103610ffc578215610fec578190338152600e60205220544314610fdd57610ebd610eb7610e9b612acb565b610eb186610eab838596956122bd565b92612572565b906133fc565b9061229a565b9182158015610fd2575b610fc25782610ed8610ee19461342e565b9590918361229a565b948515610fb2576024358610610fb25760209650610f00843033613465565b610f0c84600754612572565b600755610f1b8360095461229a565b600955610f2a82600a54612572565b600a55610f3981600b54612572565b600b5542600c55610f4a86336134bb565b600954916007549386519586528886015286868601526060850152608084015260a083015260c08201527feebdf396b2ce33c6bf51df33b76958425b7430bd1c74fbef7b585106affddd1c60e03392a2600160008051602061402f8339815191525551908152f35b8451638199f5f360e01b81528790fd5b8151638199f5f360e01b81528490fd5b506009548311610ec7565b51635aabee0f60e11b81529050fd5b8151631f2a200560e01b81528490fd5b815163baf3f0f760e01b81528490fd5b634e487b7160e01b825260218552602482fd5b509034610b105781600319360112610b1057602090517f00000000000000000000000000000000000000000000000000000000000000008152f35b509034610b105781600319360112610b1057602090600a549051908152f35b6121c7565b509034610b105781600319360112610b10576020905160468152f35b509034610b105781600319360112610b105751908152602090f35b5034610b545780600319360112610b545760ff600654169260058410156111925782516001815261ffff7f0000000000000000000000000000000000000000000000000000000000000000811660208301527f00000000000000000000000000000000000000000000000000000000000000008116828601527f00000000000000000000000000000000000000000000000000000000000000001660608201526001600160a01b037f00000000000000000000000000000000000000000000000000000000000000001660808201526003851460a082015260c090f35b634e487b7160e01b825260219052602490fd5b509034610b105781600319360112610b1057517f00000000000000000000000000000000000000000000000000000000000000006001600160a01b03168152602090f35b612240565b509034610b105781600319360112610b105760ff600654169051916005821015610e2a57602083838152f35b509034610b105781600319360112610b105760209051601e8152f35b509034610b105781600319360112610b1057517f00000000000000000000000000000000000000000000000000000000000000006001600160a01b03168152602090f35b509034610b105781600319360112610b105760209051600b8152f35b612224565b509034610b105781600319360112610b105760209051600c8152f35b61225c565b509034610b105781600319360112610b10576020906112d9612807565b9051908152f35b509034610b105781600319360112610b1057602090600b549051908152f35b50913461136b578160031936011261136b57611319612180565b9260ff60065416906005821015611358575060030361134a57506113436020926024359033613465565b5160018152f35b90516377d87fb560e11b8152fd5b634e487b7160e01b815260218352602490fd5b8280fd5b612208565b509034610b105781600319360112610b1057516714adf4b7320334b9601d1b8152602090f35b509034610b105781600319360112610b1057600654905160089190911c6001600160a01b03168152602090f35b5034610b545780600319360112610b5457506113e1612dcb565b90811561142b57602092506113f882600a54612572565b600a5580518281527fa1e4c790cc8a017f9b597b92150a8a880324350496397bbb8fd774f571e710df843392a251908152f35b516312d37ee560e31b81529050fd5b509034610b105781600319360112610b10576020905160098152f35b509034610b105781600319360112610b10576020906112d96127e6565b509034610b105781600319360112610b10576020905160068152f35b509034610b105781600319360112610b105780519180938054916001908360011c9260018516948515611569575b60209586861081146115565785895290811561153257506001146114f7575b610b5087876114ed828c03836120f1565b5191829182612114565b9080949750528583205b82841061151f5750505082610b50946114ed928201019438806114dc565b8054868501880152928601928101611501565b60ff19168887015250505050151560051b83010192506114ed82610b5038806114dc565b634e487b7160e01b845260228352602484fd5b93607f16936114bd565b509034610b105781600319360112610b105760209051600a8152f35b509034610b105781600319360112610b10576020906009549051908152f35b509034610b105781600319360112610b10576020906115cb612d31565b90519015158152f35b509034610b105781600319360112610b105751676765c793fa10079d601b1b8152602090f35b509034610b105781600319360112610b10576020906007549051908152f35b509034610b10576020366003190112610b105760209181906001600160a01b03611641612180565b168152600e8452205490811591821561165e575b50519015158152f35b4311915083611655565b509034610b105781600319360112610b1057602090600c549051908152f35b509034610b10576020366003190112610b10576020906112d96116a8612180565b6127cb565b61215d565b509034610b105781600319360112610b10576020905160648152f35b50913461136b57602036600319011261136b5735916001600160a01b0383168303610b545750610e0460209261170261289d565b612b32565b509034610b105781600319360112610b10576020905160058152f35b509034610b105781600319360112610b105760c09061174061264d565b9495909381519660018060a01b03168752602087015260018060701b0380931690860152166060840152608083015260a0820152f35b50918160031936011261136b5761178b612180565b9061179461289d565b6001600160a01b03937f0000000000000000000000000000000000000000000000000000000000000000851633036118005760ff6006541690600582101561135857506001036117f25750602092610e049160243591811690612de6565b825163baf3f0f760e01b8152fd5b508251635b2fb5b360e11b8152fd5b509034610b105781600319360112610b1057517f00000000000000000000000000000000000000000000000000000000000000006001600160a01b03168152602090f35b50913461136b57602036600319011261136b5735916001600160a01b0383168303610b545750610e0460209261188761289d565b6128cd565b509034610b10576020366003190112610b10576020906112d96118ad612180565b6125d1565b509034610b10576020366003190112610b105760209160ff9082906001600160a01b036118dd612180565b168152600f855220541690519015158152f35b509034610b105781600319360112610b10576020905160078152f35b509034610b105781600319360112610b10576020906112d9612dcb565b509034610b105781600319360112610b10576020906112d9612db0565b509034610b105781600319360112610b105761196061289d565b611968612d31565b156119df57600b549182156119cf5760209350600b5561198a82600a54612572565b600a5580518281527f6a0c33aa8c816cdfa77b389739210eadb9f9a653e441ee697d9a29d61a9884a1843392a2600160008051602061402f8339815191525551908152f35b81516312d37ee560e31b81528490fd5b51638a430e9f60e01b81529050fd5b509034610b105781600319360112610b10576020905161dead8152f35b509034610b105781600319360112610b1057602090611a2861289d565b610e047f00000000000000000000000000000000000000000000000000000000000000006001600160a01b03166128cd565b5034610b54576020366003190112610b545750610b34610b50923561257f565b6121ac565b509034610b105781600319360112610b1057602090516a5889e9f3e4c6e14f4000008152f35b509034610b105781600319360112610b1057602090517f00000000000000000000000000000000000000000000000000000000000000008152f35b509034610b10576020366003190112610b105760209181906001600160a01b03611b08612180565b168152600e845220549051908152f35b509034610b105781600319360112610b10576020906008549051908152f35b509034610b105781600319360112610b1057602090611b5461289d565b610e047f00000000000000000000000000000000000000000000000000000000000000006001600160a01b0316612b32565b509034610b105781600319360112610b1057602090517f00000000000000000000000000000000000000000000000000000000000000008152f35b509034610b105781600319360112610b10576020905160128152f35b50829034610b54576060366003190112610b5457611bf9612180565b611c01612196565b916044359360ff600654166005811015611d165760038103611ce2575b506001600160a01b03831680835260016020908152878420338552905286832054916000198310611c58575b602088611343898989613465565b868310611cc0578115611ca9573315611c925750825260016020908152868320338452815291869020908590039055829061134387611c4a565b8751634a1406b160e11b8152908101849052602490fd5b875163e602df0560e01b8152908101849052602490fd5b9050611cde868851938493637dc7a0d960e11b855233908501613870565b0390fd5b60021480611d04575b15611cf65786611c1e565b85516377d87fb560e11b8152fd5b506001600160a01b0383163014611ceb565b634e487b7160e01b835260218252602483fd5b509034610b105781600319360112610b10576020905162ed4e008152f35b5034610b545780600319360112610b545750611d616129d3565b82519182526020820152f35b509034610b105781600319360112610b10576020906002549051908152f35b509034610b105781600319360112610b1057610b5090611daa612367565b905191829182612114565b509034610b105781600319360112610b10576020905160088152f35b50913461136b578160031936011261136b57611deb612180565b602435903315611e64576001600160a01b0316918215611e4d57508083602095338152600187528181208582528752205582519081527f8c5be1e5ebec7d5bd14f71427d1e84f3dd0314c0f7b2291e5b200ac8c7c3b925843392a35160018152f35b8351634a1406b160e11b8152908101859052602490fd5b835163e602df0560e01b8152808401869052602490fd5b50913461136b57602036600319011261136b578035926001600160a01b03908185168503610b545750611eac61289d565b7f0000000000000000000000000000000000000000000000000000000000000000163303611ee05750610e046020926128cd565b9051635b2fb5b360e11b8152fd5b5091903461136b578260031936011261136b5780519183600354906001908260011c92600181168015611fbd575b6020958686108214611faa5750848852908115611f885750600114611f4d575b610b5086866114ed828b03836120f1565b929550600383528583205b828410611f755750505082610b50946114ed928201019438611f3c565b8054868501880152928601928101611f58565b60ff191687860152505050151560051b83010192506114ed82610b5038611f3c565b634e487b7160e01b845260229052602483fd5b93607f1693611f1c565b5091903461136b578260031936011261136b5780519183600554906001908260011c92600181168015612060575b6020958686108214611faa5750848852908115611f88575060011461202557610b5086866114ed828b03836120f1565b929550600583528583205b82841061204d5750505082610b50946114ed928201019438611f3c565b8054868501880152928601928101612030565b93607f1693611ff5565b905034610b105781600319360112610b10577f00000000000000000000000000000000000000000000000000000000000000006001600160a01b03168152602090f35b6001600160401b0381116120c057604052565b634e487b7160e01b600052604160045260246000fd5b604081019081106001600160401b038211176120c057604052565b601f909101601f19168101906001600160401b038211908210176120c057604052565b6020808252825181830181905290939260005b82811061214957505060409293506000838284010152601f8019910116010190565b818101860151848201604001528501612127565b346103c25760003660031901126103c25760206121786122f0565b604051908152f35b600435906001600160a01b03821682036103c257565b602435906001600160a01b03821682036103c257565b346103c25760003660031901126103c25760206121786124f8565b346103c25760203660031901126103c2576121e0612180565b50602060405160008152f35b346103c25760003660031901126103c257602060405160028152f35b346103c25760003660031901126103c257602060405160048152f35b346103c25760003660031901126103c257602060405160038152f35b346103c25760003660031901126103c257602060405160018152f35b346103c25760003660031901126103c257602060405160ff7f0000000000000000000000000000000000000000000000000000000000000000168152f35b919082039182116122a757565b634e487b7160e01b600052601160045260246000fd5b818102929181159184041417156122a757565b81156122da570490565b634e487b7160e01b600052601260045260246000fd5b60ff6006541660058110156123515760031461234b57600954612710908181029181830414901517156122a757612348907f0000000000000000000000000000000000000000000000000000000000000000906122d0565b90565b61271090565b634e487b7160e01b600052602160045260246000fd5b61ffff7f000000000000000000000000000000000000000000000000000000000000000016606481146124d75760c881146124b65761012c8114612495576101908114612474576101f48114612453576102588114612432576102bc811461241157610320146123f1576040516123dd816120d6565b60048152630e4ccc4d60e21b602082015290565b6040516123fd816120d6565b60048152630e0ccc4d60e21b602082015290565b5060405161241e816120d6565b60048152630dcccc4d60e21b602082015290565b5060405161243f816120d6565b60048152630d8ccc4d60e21b602082015290565b50604051612460816120d6565b60048152630d4ccc4d60e21b602082015290565b50604051612481816120d6565b60048152630d0ccc4d60e21b602082015290565b506040516124a2816120d6565b60048152630ccccc4d60e21b602082015290565b506040516124c3816120d6565b60048152630c8ccc4d60e21b602082015290565b506040516124e4816120d6565b60048152630c4ccc4d60e21b602082015290565b60ff6006541660058110156123515760031461253957612516612acb565b670de0b6b3a7640000918281029281840414901517156122a757612348916122d0565b6125416129d3565b90801561256b57670de0b6b3a7640000918281029281840414901517156122a757612348916122d0565b5050600090565b919082018092116122a757565b60ff600654166005811015612351576001036125c55780156125c5576125bf916123486125b96125ae84612bd9565b919792939097612cd3565b96612572565b9361229a565b50600090600090600090565b6001600160a01b03166000908152600e602052604090205480156125fd57600181018091116122a75790565b50600090565b51906001600160701b03821682036103c257565b908160609103126103c25761262b81612603565b91604061263a60208401612603565b92015163ffffffff811681036103c25790565b60065460081c6001600160a01b039081169182156127ba57818316916040928351926318160ddd60e01b84526020938481600481865afa9081156127af57600091612782575b5094805193630240bc6b60e21b8552606085600481875afa801561277757600095600091612751575b50949584600052600081528083600020549560248551809581936370a0823160e01b835260048301527f0000000000000000000000000000000000000000000000000000000000000000165afa928315612747575060009261271d57505090565b90809250813d8311612740575b61273481836120f1565b810103126103c2575190565b503d61272a565b513d6000823e3d90fd5b905061276d91955060603d60601161058f5761057f81836120f1565b50949094386126bc565b82513d6000823e3d90fd5b90508481813d83116127a8575b61279981836120f1565b810103126103c2575138612693565b503d61278f565b86513d6000823e3d90fd5b600092508291508190819081908190565b6001600160a01b031660009081526020819052604090205490565b60ff6006541660058110156123515760030361280257600b5490565b600090565b60ff60065416600581101561235157600103612802576123486009547f000000000000000000000000000000000000000000000000000000000000000061229a565b60ff600654166005811015612351576001036125c55780156125c55761288490610eb7610eb1612877612acb565b919093610eab83866122bd565b9061288e8261342e565b505061289a818461229a565b91565b60008051602061402f83398151915260028154146128bb5760029055565b604051633ee5aeb560e01b8152600490fd5b906001600160a01b03337f00000000000000000000000000000000000000000000000000000000000000008216141580612988575b612977578216801561296557600a549283156129535783612927916000600a556134bb565b7f0f58cb6262d88971b87878468debb7bc81f1714be597710e16a9fb84c66ff7b56020604051858152a2565b6040516312d37ee560e31b8152600490fd5b60405163d92e233d60e01b8152600490fd5b6040516282b42960e81b8152600490fd5b50807f000000000000000000000000000000000000000000000000000000000000000016331415612902565b908160209103126103c257516001600160a01b03811681036103c25790565b60065460081c6001600160a01b0390811691908215612ac257604051630240bc6b60e21b815290606082600481875afa938415612a8757600092600095612a93575b5090602060049260405193848092630dfe168160e01b82525afa918215612a8757600092612a66575b50163003612a56576001600160701b03908116921690565b6001600160701b03928316921690565b612a8091925060203d6020116105295761051a81836120f1565b9038612a3e565b6040513d6000823e3d90fd5b60049291955060209350612ab59060603d60601161058f5761057f81836120f1565b5093909395919250612a15565b50600091508190565b612af86009547f000000000000000000000000000000000000000000000000000000000000000090612572565b90612348612b0b60075460085490612572565b7f000000000000000000000000000000000000000000000000000000000000000090612572565b906001600160a01b037f0000000000000000000000000000000000000000000000000000000000000000811633036129775760ff60065416600581101561235157600303612bc7578216801561296557600b549283156129535783612b9b916000600b556134bb565b7fd046302bdc39599e60a5981e59227dcd1c643f512f56f2e984390c3ac6eadedb6020604051858152a2565b60405163baf3f0f760e01b8152600490fd5b90612c066009547f000000000000000000000000000000000000000000000000000000000000000061229a565b918215612cc157612c21612c198261342e565b50508261229a565b92808411612c3d575091905b612c368361342e565b9091509091565b925050612c5c612c4c83613925565b6126ac6127108509151590612572565b91825b612c7f575b50612c79612c718361342e565b50508361229a565b90612c2d565b9182612c8d612c718361342e565b1115612cbb576000198101908111612ca6579182612c5f565b60246000634e487b7160e01b81526011600452fd5b91612c64565b60405163c83ba27d60e01b8152600490fd5b612cdf81600954612572565b7f000000000000000000000000000000000000000000000000000000000000000014612d2a57612d24610eb761234892612d17612acb565b939091610eab85846122bd565b906122d0565b5060075490565b60ff6006541660058110156123515760011480612da5575b80612d6e575b80612d575790565b50600c5462278d0081018091116122a75742101590565b507f000000000000000000000000000000000000000000000000000000000000000062ed4e0081018091116122a757421015612d4f565b50600b541515612d49565b612348612dc2600954600a5490612572565b600b5490612572565b612dd3612db0565b47908082111561256b576123489161229a565b6001600160a01b0380821694939092600091861580156133f3575b80156133e3575b6133d15734156133b757612e1b34612bd9565b9792999091968a1580156133c9575b6133b757600954612e3b8982612572565b9b7f00000000000000000000000000000000000000000000000000000000000000009687612e688c612cd3565b9e146133ad575b8d1580156133a2575b613390578d1061339057612edd8d60008051602061400f83398151915294612ec18e612ea78f61010098612572565b600955612eb68a600a54612572565b600a55600b54612572565b600b5542600c55612ed48260075461229a565b60075530613465565b838952602097600e895260409b8c9643888d2055612efb843461229a565b928380613380575b50506009549c60075498519485528b8501528d840152606083015260808201528c60a08201528960c08201528460e0820152a282861090811591613377575b50612f50575b505050505050565b60069081549160ff8316966005881015613363576001880361335257840361334157600260ff198094161780825588516002600080516020613f8f833981519152998a8a80a383600892831c16156133325750612fab613eb7565b828254821c16938951996318160ddd60e01b8b5260049a88818d818a5afa9081156103ce578a91613305575b5061325f57612fe5866127cb565b61325f578051630240bc6b60e21b81526060818d818a5afa9081156103ce578a908b926132e2575b508251630dfe168160e01b81528a818f818c5afa90811561325557908e918d916132c5575b508b8551809363d21220a760e01b8252818d5afa9182156132bb578d9261329c575b508816300361327e57506001600160701b039190821661326e5716965b871161325f5782549a6130918c61308a8a60095461229a565b9830613465565b86613177575b8989878754871c1660248551809481936335313c2160e11b835261dead888401525af1998a156104b9578b9a613147575b50508984556130d988600a54612572565b600a5589600955600385549360ff851694161780955560058310156131345750916003600080516020613fcf8339815191529a9998969492613126989694519a8a8c9ba31c16978561388e565b0390a2388080808080612f48565b634e487b7160e01b8a5260219052602489fd5b9080929a50813d8311613170575b61315f81836120f1565b810103126103c257519738806130c8565b503d613155565b857f000000000000000000000000000000000000000000000000000000000000000016803b15613239578251630d0e30db60e41b81528b8184818c865af1801561325557613244575b50898b916044898954891c168651948593849263a9059cbb60e01b8452888401528d60248401525af19081156104b9578b9161320a575b506130975790516314da028560e11b8152fd5b90508981813d831161323d575b61322181836120f1565b810103126132395751801515810361323957386131f7565b8a80fd5b503d613217565b9a61324f8b9c6120ad565b9a6131c0565b84513d8e823e3d90fd5b51633c1413fb60e01b81528a90fd5b8251633c1413fb60e01b81528d90fd5b8716300361326e576001600160701b0391821661326e571696613071565b6132b49192508c8d3d106105295761051a81836120f1565b9038613054565b85513d8f823e3d90fd5b6132dc91508c8d3d106105295761051a81836120f1565b38613032565b90506132fd915060603d60601161058f5761057f81836120f1565b50903861300d565b90508881813d831161332b575b61331c81836120f1565b8101031261049b575138612fd7565b503d613312565b633c1413fb60e01b8152600490fd5b8751638199f5f360e01b8152600490fd5b885163baf3f0f760e01b8152600490fd5b634e487b7160e01b87526021600452602487fd5b90501538612f42565b613389916134bb565b3883612f03565b604051638199f5f360e01b8152600490fd5b508d60075410612e78565b6007549d50612e6f565b604051631f2a200560e01b8152600490fd5b508715612e2a565b604051634e46966960e11b8152600490fd5b508460065460081c168714612e08565b50308714612e01565b90801561341b5761341360019160001984016122d0565b019015150290565b634e487b7160005260126020526024601cfd5b80156125c5578061271060646134466134509461398f565b9209151590612572565b9061345a826138aa565b90612348828461229a565b91906001600160a01b03808416156134a25781161561348957613487926139f8565b565b60405163ec442f0560e01b815260006004820152602490fd5b604051634b637e8f60e11b815260006004820152602490fd5b81471061351f57604051602081016001600160401b038111828210176120c057604052600080809481948280955260018060a01b03165af1156134fb5750565b3d1561350d57604051903d90823e3d90fd5b60405163d6bda27560e01b8152600490fd5b60405163cf47918160e01b815247600482015260248101839052604490fd5b3d15613578573d906001600160401b0382116120c0576040519161356c601f8201601f1916602001846120f1565b82523d6000602084013e565b606090565b6001600160a01b039081167f000000000000000000000000000000000000000000000000000000000000000082168114613651577f0000000000000000000000000000000000000000000000000000000000000000803b1561364957600080916040516020810190638da5cb5b60e01b8252600481526135fc816120d6565b51915afa9161360961353e565b8361363b575b8361361b575b50505090565b61363191929350602080825183010191016129b4565b1614388080613615565b92506020835110159261360f565b505050600090565b5050600190565b6001600160a01b039080821680159081156137e9575b5080156137e0575b61256b5760405160209283820191630dfe168160e01b83526004815261369b816120d6565b6000809381925190865afa6136ae61353e565b83806040518881019063d21220a760e01b8252600481526136ce816120d6565b5190885afa84806136dd61353e565b976040518a81019063c45a015560e01b8252600481526136fc816120d6565b51915afa61370861353e565b93159182156137d4575b82156137cb575b5081156137bf575b81156137b6575b5080156137ac575b6137a357908261375f8161374f858a8061376e985183010191016129b4565b16968880825183010191016129b4565b169580825183010191016129b4565b168015908115613799575b506137935750301490811561378c575090565b9050301490565b91505090565b90503b1538613779565b50505091505090565b5085825110613730565b90501538613728565b90508686511090613721565b15915038613719565b91508783511091613712565b50803b15613676565b905030143861366e565b6001600160a01b039081166000818152600f602052604090208054919390929015159060ff831615158214613869577ff1d8d554547fde8a73173802e84a46a02e1c0211606173662897eae8bd39d0429360409360ff84169060ff191617905560065460081c16841482519182526020820152a2565b5050505050565b604091949392606082019560018060a01b0316825260208201520152565b9094939260609260808301968352602083015260408201520152565b600019601e8209601e82029081808210910390808203911461391c578060641115613909576064601e7f5c28f5c28f5c28f5c28f5c28f5c28f5c28f5c28f5c28f5c28f5c28f5c28f5c29940990828211900360fe1b910360021c170290565b634e487b7160005260116020526024601cfd5b50606491500490565b61271060001981830981830291828083109203918083039214613984576126ac9082821115613909577fa902ffe58553adaa902ffe58553adaa902ffe58553adaa902ffe58553adaa903940990828211900360fe1b910360021c170290565b50506126ac91500490565b6000196064820960648202908180821091039080820391146139ee57612710818111156139095760647fbc01a36e2eb1c432ca57a786c226809d495182a9930be0ded288ce703afb7e91940990828211900360fc1b910360041c170290565b5061271091500490565b9190613a05828285613cb8565b613a13575b61348792613d27565b61ffff61271080613a467f00000000000000000000000000000000000000000000000000000000000000008416866122bd565b049182613a5557505050613a0a565b613a84909392937f000000000000000000000000000000000000000000000000000000000000000016846122bd565b04613a8f818461229a565b90613aa4613a9d858761229a565b8488613d27565b80613b18575b81613ae391600080516020613faf833981519152959493613ae8575b6040516001600160a01b039485169890941696939485948561388e565b0390a3565b613b13827f00000000000000000000000000000000000000000000000000000000000000008a613d27565b613ac6565b60ff6006541660058110158061235157600182148015613cab575b15613c665750506001600160a01b0386168015908115613c5d575b3014908115613c51575b159081613c48575b50613c36575b6001600160a01b03861680613bd7579181600080516020613faf833981519152959493613b98613ae394600254612572565b6002555b61dead908160005260006020526040600020838154019055600080516020613fef8339815191526020604051858152a3915091929350613aaa565b6000818152806020526040812054838110613c18579181604085600080516020613faf8339815191529998979584613ae39896528360205203912055613b9c565b88611cde8560405193849363391434e360e21b855260048501613870565b6040516377d87fb560e11b8152600490fd5b90501538613b60565b61dead30149150613b58565b60009150613b4e565b6123515760028103613c895750306001600160a01b03871603612bc7575b613b66565b600303613b66573061dead03613c8457604051634e46966960e11b8152600490fd5b5050600060048214613b33565b90911561256b5760ff6006541660058110156123515760030361256b576001600160a01b0390811680158015613d1d575b61364957600052600f60205260ff60406000205416918215613d0a57505090565b9091501660005260ff6040600020541690565b5081831615613ce9565b9060ff6006541660058110158061235157600182148015613eaa575b15613e5e57506001600160a01b0390508281168015908115613e53575b3014918215613e47575b50159081613e3e575b50613c36575b6001600160a01b038281169290919083613de25750600080516020613fef83398151915291602091613dad86600254612572565b6002555b169384613dca5780600254036002555b604051908152a3565b84600052600082526040600020818154019055613dc1565b60009084825281602052604082205490868210613e215750918160408760209588600080516020613fef83398151915298965283875203912055613db1565b611cde8760405193849363391434e360e21b855260048501613870565b90501538613d73565b83163014915038613d6a565b838316159150613d60565b6123515760028103613e815750306001600160a01b03831603612bc7575b613d79565b600303613d7957306001600160a01b03821603613e7c57604051634e46966960e11b8152600490fd5b5050600060048214613d43565b60065460081c6001600160a01b03908116908115613f58576040516318160ddd60e01b8152602081600481865afa908115612a8757600091613f5c575b50613f5857813b156103c25760009160248392604051948593849263bc25cf7760e01b84527f00000000000000000000000000000000000000000000000000000000000000001660048401525af18015612a8757613f4f5750565b613487906120ad565b5050565b90506020813d602011613f86575b81613f77602093836120f1565b810103126103c2575138613ef4565b3d9150613f6a56fe3a779de46631dd65116ae538600f1bc3c338200c6aef638429b5de43301c28f7e7394f16cc22ae35fb752bb4c8624944eb198544034ab0a3590d0e139bf9267871aa8c3702dbbc54247a4e6446450e64a46250dd72707a247ddb01d72eaef445ddf252ad1be2c89b69c2b068fc378daa952ba7f163c4a11628f55a4df523b3ef6ff5f8cb3bbdee941e910591101be7dcb3bd64213bbc4ac9e994c9d7b0ef74cd9b779b17422d0df92223018b32b4d1fa46e071723d6817e2486d003becc55f00a2646970667358221220c8fa0a600a6909330621c04dd84a74fc691985abef1e9793681b5e106c5243ca64736f6c63430008180033e7394f16cc22ae35fb752bb4c8624944eb198544034ab0a3590d0e139bf92678ddf252ad1be2c89b69c2b068fc378daa952ba7f163c4a11628f55a4df523b3efa26469706673582212202db14892f4af176ba500f50b8c929ea38157fad95c9a78361e287b4083bec99464736f6c63430008180033",
  "linkReferences": {},
  "deployedLinkReferences": {}
}