{
  "_format": "hh-sol-artifact-1",
  "contractName": "LaunchTokenWhitelist",
  "sourceName": "contracts/LaunchTokenWhitelist.sol",
  "abi": [
    {
      "inputs": [
        {
          "components": [
            {
              "internalType": "string",
              "name": "name",
              "type": "string"
            },
            {
              "internalType": "string",
              "name": "symbol",
              "type": "string"
            },
            {
              "internalType": "string",
              "name": "metadataURI",
              "type": "string"
            },
            {
              "internalType": "address",
              "name": "creator",
              "type": "address"
            },
            {
              "internalType": "address",
              "name": "factory",
              "type": "address"
            },
            {
              "internalType": "address",
              "name": "protocolFeeRecipient",
              "type": "address"
            },
            {
              "internalType": "address",
              "name": "router",
              "type": "address"
            },
            {
              "internalType": "uint256",
              "name": "graduationQuoteReserve",
              "type": "uint256"
            },
            {
              "internalType": "uint256",
              "name": "whitelistThreshold",
              "type": "uint256"
            },
            {
              "internalType": "uint256",
              "name": "whitelistSlotSize",
              "type": "uint256"
            },
            {
              "internalType": "uint256",
              "name": "whitelistOpensAt",
              "type": "uint256"
            },
            {
              "internalType": "address[]",
              "name": "whitelistAddresses",
              "type": "address[]"
            },
            {
              "internalType": "uint8",
              "name": "launchModeId",
              "type": "uint8"
            }
          ],
          "internalType": "struct LaunchTokenWhitelist.ConstructorArgs",
          "name": "args",
          "type": "tuple"
        }
      ],
      "stateMutability": "nonpayable",
      "type": "constructor"
    },
    {
      "inputs": [],
      "name": "CreatorFeeSweepUnavailable",
      "type": "error"
    },
    {
      "inputs": [],
      "name": "DuplicateWhitelistAddress",
      "type": "error"
    },
    {
      "inputs": [
        {
          "internalType": "address",
          "name": "spender",
          "type": "address"
        },
        {
          "internalType": "uint256",
          "name": "allowance",
          "type": "uint256"
        },
        {
          "internalType": "uint256",
          "name": "needed",
          "type": "uint256"
        }
      ],
      "name": "ERC20InsufficientAllowance",
      "type": "error"
    },
    {
      "inputs": [
        {
          "internalType": "address",
          "name": "sender",
          "type": "address"
        },
        {
          "internalType": "uint256",
          "name": "balance",
          "type": "uint256"
        },
        {
          "internalType": "uint256",
          "name": "needed",
          "type": "uint256"
        }
      ],
      "name": "ERC20InsufficientBalance",
      "type": "error"
    },
    {
      "inputs": [
        {
          "internalType": "address",
          "name": "approver",
          "type": "address"
        }
      ],
      "name": "ERC20InvalidApprover",
      "type": "error"
    },
    {
      "inputs": [
        {
          "internalType": "address",
          "name": "receiver",
          "type": "address"
        }
      ],
      "name": "ERC20InvalidReceiver",
      "type": "error"
    },
    {
      "inputs": [
        {
          "internalType": "address",
          "name": "sender",
          "type": "address"
        }
      ],
      "name": "ERC20InvalidSender",
      "type": "error"
    },
    {
      "inputs": [
        {
          "internalType": "address",
          "name": "spender",
          "type": "address"
        }
      ],
      "name": "ERC20InvalidSpender",
      "type": "error"
    },
    {
      "inputs": [],
      "name": "FailedCall",
      "type": "error"
    },
    {
      "inputs": [],
      "name": "GraduationAlreadyTriggered",
      "type": "error"
    },
    {
      "inputs": [
        {
          "internalType": "uint256",
          "name": "balance",
          "type": "uint256"
        },
        {
          "internalType": "uint256",
          "name": "needed",
          "type": "uint256"
        }
      ],
      "name": "InsufficientBalance",
      "type": "error"
    },
    {
      "inputs": [],
      "name": "InvalidGraduationConfig",
      "type": "error"
    },
    {
      "inputs": [],
      "name": "InvalidRecipient",
      "type": "error"
    },
    {
      "inputs": [],
      "name": "InvalidState",
      "type": "error"
    },
    {
      "inputs": [],
      "name": "InvalidWhitelistAddressCount",
      "type": "error"
    },
    {
      "inputs": [],
      "name": "InvalidWhitelistCommitAmount",
      "type": "error"
    },
    {
      "inputs": [],
      "name": "InvalidWhitelistOpenTime",
      "type": "error"
    },
    {
      "inputs": [],
      "name": "InvalidWhitelistSeatCount",
      "type": "error"
    },
    {
      "inputs": [],
      "name": "InvalidWhitelistSlotSize",
      "type": "error"
    },
    {
      "inputs": [],
      "name": "InvalidWhitelistThreshold",
      "type": "error"
    },
    {
      "inputs": [],
      "name": "NothingToClaim",
      "type": "error"
    },
    {
      "inputs": [],
      "name": "PairPolluted",
      "type": "error"
    },
    {
      "inputs": [],
      "name": "ReentrancyGuardReentrantCall",
      "type": "error"
    },
    {
      "inputs": [],
      "name": "SellCooldownActive",
      "type": "error"
    },
    {
      "inputs": [],
      "name": "SlippageExceeded",
      "type": "error"
    },
    {
      "inputs": [],
      "name": "TransferDisabledPreGraduation",
      "type": "error"
    },
    {
      "inputs": [],
      "name": "Unauthorized",
      "type": "error"
    },
    {
      "inputs": [],
      "name": "UnauthorizedFactoryCaller",
      "type": "error"
    },
    {
      "inputs": [],
      "name": "UnauthorizedFactoryDeployment",
      "type": "error"
    },
    {
      "inputs": [],
      "name": "WhitelistAddressNotApproved",
      "type": "error"
    },
    {
      "inputs": [],
      "name": "WhitelistAllocationUnavailable",
      "type": "error"
    },
    {
      "inputs": [],
      "name": "WhitelistAlreadyCommitted",
      "type": "error"
    },
    {
      "inputs": [],
      "name": "WhitelistNotActive",
      "type": "error"
    },
    {
      "inputs": [],
      "name": "WhitelistRefundUnavailable",
      "type": "error"
    },
    {
      "inputs": [],
      "name": "WhitelistSeatUnavailable",
      "type": "error"
    },
    {
      "inputs": [],
      "name": "WrappedQuoteTransferFailed",
      "type": "error"
    },
    {
      "inputs": [],
      "name": "ZeroAddress",
      "type": "error"
    },
    {
      "inputs": [],
      "name": "ZeroAmount",
      "type": "error"
    },
    {
      "anonymous": false,
      "inputs": [
        {
          "indexed": true,
          "internalType": "address",
          "name": "owner",
          "type": "address"
        },
        {
          "indexed": true,
          "internalType": "address",
          "name": "spender",
          "type": "address"
        },
        {
          "indexed": false,
          "internalType": "uint256",
          "name": "value",
          "type": "uint256"
        }
      ],
      "name": "Approval",
      "type": "event"
    },
    {
      "anonymous": false,
      "inputs": [
        {
          "indexed": true,
          "internalType": "address",
          "name": "buyer",
          "type": "address"
        },
        {
          "indexed": false,
          "internalType": "uint256",
          "name": "grossQuoteIn",
          "type": "uint256"
        },
        {
          "indexed": false,
          "internalType": "uint256",
          "name": "netQuoteIn",
          "type": "uint256"
        },
        {
          "indexed": false,
          "internalType": "uint256",
          "name": "protocolFee",
          "type": "uint256"
        },
        {
          "indexed": false,
          "internalType": "uint256",
          "name": "creatorFee",
          "type": "uint256"
        },
        {
          "indexed": false,
          "internalType": "uint256",
          "name": "refundAmount",
          "type": "uint256"
        },
        {
          "indexed": false,
          "internalType": "uint256",
          "name": "tokenOut",
          "type": "uint256"
        },
        {
          "indexed": false,
          "internalType": "uint256",
          "name": "newCurveQuoteReserve",
          "type": "uint256"
        },
        {
          "indexed": false,
          "internalType": "uint256",
          "name": "newSaleTokenReserve",
          "type": "uint256"
        }
      ],
      "name": "BuyExecuted",
      "type": "event"
    },
    {
      "anonymous": false,
      "inputs": [
        {
          "indexed": true,
          "internalType": "address",
          "name": "recipient",
          "type": "address"
        },
        {
          "indexed": false,
          "internalType": "uint256",
          "name": "amount",
          "type": "uint256"
        }
      ],
      "name": "CreatorFeesClaimed",
      "type": "event"
    },
    {
      "anonymous": false,
      "inputs": [
        {
          "indexed": true,
          "internalType": "address",
          "name": "caller",
          "type": "address"
        },
        {
          "indexed": false,
          "internalType": "uint256",
          "name": "amount",
          "type": "uint256"
        }
      ],
      "name": "CreatorFeesSwept",
      "type": "event"
    },
    {
      "anonymous": false,
      "inputs": [
        {
          "indexed": true,
          "internalType": "address",
          "name": "pair",
          "type": "address"
        },
        {
          "indexed": false,
          "internalType": "uint256",
          "name": "tokenAmount",
          "type": "uint256"
        },
        {
          "indexed": false,
          "internalType": "uint256",
          "name": "quoteAmountContributed",
          "type": "uint256"
        },
        {
          "indexed": false,
          "internalType": "uint256",
          "name": "preloadedQuoteAmount",
          "type": "uint256"
        },
        {
          "indexed": false,
          "internalType": "uint256",
          "name": "liquidityBurned",
          "type": "uint256"
        }
      ],
      "name": "Graduated",
      "type": "event"
    },
    {
      "anonymous": false,
      "inputs": [
        {
          "indexed": true,
          "internalType": "address",
          "name": "recipient",
          "type": "address"
        },
        {
          "indexed": false,
          "internalType": "uint256",
          "name": "amount",
          "type": "uint256"
        }
      ],
      "name": "ProtocolFeesClaimed",
      "type": "event"
    },
    {
      "anonymous": false,
      "inputs": [
        {
          "indexed": true,
          "internalType": "address",
          "name": "seller",
          "type": "address"
        },
        {
          "indexed": false,
          "internalType": "uint256",
          "name": "tokenIn",
          "type": "uint256"
        },
        {
          "indexed": false,
          "internalType": "uint256",
          "name": "grossQuoteOut",
          "type": "uint256"
        },
        {
          "indexed": false,
          "internalType": "uint256",
          "name": "netQuoteOut",
          "type": "uint256"
        },
        {
          "indexed": false,
          "internalType": "uint256",
          "name": "protocolFee",
          "type": "uint256"
        },
        {
          "indexed": false,
          "internalType": "uint256",
          "name": "creatorFee",
          "type": "uint256"
        },
        {
          "indexed": false,
          "internalType": "uint256",
          "name": "newCurveQuoteReserve",
          "type": "uint256"
        },
        {
          "indexed": false,
          "internalType": "uint256",
          "name": "newSaleTokenReserve",
          "type": "uint256"
        }
      ],
      "name": "SellExecuted",
      "type": "event"
    },
    {
      "anonymous": false,
      "inputs": [
        {
          "indexed": true,
          "internalType": "enum LaunchTokenBase.LaunchState",
          "name": "previousState",
          "type": "uint8"
        },
        {
          "indexed": true,
          "internalType": "enum LaunchTokenBase.LaunchState",
          "name": "newState",
          "type": "uint8"
        }
      ],
      "name": "StateTransition",
      "type": "event"
    },
    {
      "anonymous": false,
      "inputs": [
        {
          "indexed": true,
          "internalType": "address",
          "name": "from",
          "type": "address"
        },
        {
          "indexed": true,
          "internalType": "address",
          "name": "to",
          "type": "address"
        },
        {
          "indexed": false,
          "internalType": "uint256",
          "name": "value",
          "type": "uint256"
        }
      ],
      "name": "Transfer",
      "type": "event"
    },
    {
      "anonymous": false,
      "inputs": [
        {
          "indexed": true,
          "internalType": "address",
          "name": "caller",
          "type": "address"
        },
        {
          "indexed": false,
          "internalType": "uint256",
          "name": "amount",
          "type": "uint256"
        }
      ],
      "name": "UnexpectedNativeReconciled",
      "type": "event"
    },
    {
      "anonymous": false,
      "inputs": [
        {
          "indexed": true,
          "internalType": "address",
          "name": "account",
          "type": "address"
        },
        {
          "indexed": false,
          "internalType": "uint256",
          "name": "tokenAmount",
          "type": "uint256"
        }
      ],
      "name": "WhitelistAllocationClaimed",
      "type": "event"
    },
    {
      "anonymous": false,
      "inputs": [
        {
          "indexed": false,
          "internalType": "uint256",
          "name": "threshold",
          "type": "uint256"
        },
        {
          "indexed": false,
          "internalType": "uint256",
          "name": "slotSize",
          "type": "uint256"
        },
        {
          "indexed": false,
          "internalType": "uint256",
          "name": "seatCount",
          "type": "uint256"
        },
        {
          "indexed": false,
          "internalType": "uint256",
          "name": "opensAt",
          "type": "uint256"
        },
        {
          "indexed": false,
          "internalType": "uint256",
          "name": "deadline",
          "type": "uint256"
        }
      ],
      "name": "WhitelistConfigured",
      "type": "event"
    },
    {
      "anonymous": false,
      "inputs": [
        {
          "indexed": false,
          "internalType": "uint256",
          "name": "committedTotal",
          "type": "uint256"
        },
        {
          "indexed": false,
          "internalType": "uint256",
          "name": "seatsFilled",
          "type": "uint256"
        }
      ],
      "name": "WhitelistExpired",
      "type": "event"
    },
    {
      "anonymous": false,
      "inputs": [
        {
          "indexed": false,
          "internalType": "uint256",
          "name": "grossCommitted",
          "type": "uint256"
        },
        {
          "indexed": false,
          "internalType": "uint256",
          "name": "netQuoteAdded",
          "type": "uint256"
        },
        {
          "indexed": false,
          "internalType": "uint256",
          "name": "protocolFee",
          "type": "uint256"
        },
        {
          "indexed": false,
          "internalType": "uint256",
          "name": "creatorFee",
          "type": "uint256"
        },
        {
          "indexed": false,
          "internalType": "uint256",
          "name": "seatsFilled",
          "type": "uint256"
        },
        {
          "indexed": false,
          "internalType": "uint256",
          "name": "tokensPerSeat",
          "type": "uint256"
        },
        {
          "indexed": false,
          "internalType": "uint256",
          "name": "reservedTokenAmount",
          "type": "uint256"
        }
      ],
      "name": "WhitelistFinalized",
      "type": "event"
    },
    {
      "anonymous": false,
      "inputs": [
        {
          "indexed": true,
          "internalType": "address",
          "name": "account",
          "type": "address"
        },
        {
          "indexed": false,
          "internalType": "uint256",
          "name": "amount",
          "type": "uint256"
        }
      ],
      "name": "WhitelistRefundClaimed",
      "type": "event"
    },
    {
      "anonymous": false,
      "inputs": [
        {
          "indexed": true,
          "internalType": "address",
          "name": "account",
          "type": "address"
        },
        {
          "indexed": false,
          "internalType": "uint256",
          "name": "seatNumber",
          "type": "uint256"
        },
        {
          "indexed": false,
          "internalType": "uint256",
          "name": "amount",
          "type": "uint256"
        },
        {
          "indexed": false,
          "internalType": "uint256",
          "name": "committedTotal",
          "type": "uint256"
        }
      ],
      "name": "WhitelistSeatCommitted",
      "type": "event"
    },
    {
      "inputs": [],
      "name": "BPS_DENOMINATOR",
      "outputs": [
        {
          "internalType": "uint256",
          "name": "",
          "type": "uint256"
        }
      ],
      "stateMutability": "view",
      "type": "function"
    },
    {
      "inputs": [],
      "name": "CREATOR_FEE_BPS",
      "outputs": [
        {
          "internalType": "uint256",
          "name": "",
          "type": "uint256"
        }
      ],
      "stateMutability": "view",
      "type": "function"
    },
    {
      "inputs": [],
      "name": "CREATOR_FEE_SWEEP_MIN_AGE",
      "outputs": [
        {
          "internalType": "uint256",
          "name": "",
          "type": "uint256"
        }
      ],
      "stateMutability": "view",
      "type": "function"
    },
    {
      "inputs": [],
      "name": "CREATOR_FEE_SWEEP_MIN_INACTIVITY",
      "outputs": [
        {
          "internalType": "uint256",
          "name": "",
          "type": "uint256"
        }
      ],
      "stateMutability": "view",
      "type": "function"
    },
    {
      "inputs": [],
      "name": "CURVE_VIRTUAL_TOKEN_RESERVE",
      "outputs": [
        {
          "internalType": "uint256",
          "name": "",
          "type": "uint256"
        }
      ],
      "stateMutability": "view",
      "type": "function"
    },
    {
      "inputs": [],
      "name": "DEAD_ADDRESS",
      "outputs": [
        {
          "internalType": "address",
          "name": "",
          "type": "address"
        }
      ],
      "stateMutability": "view",
      "type": "function"
    },
    {
      "inputs": [],
      "name": "LP_TOKEN_RESERVE",
      "outputs": [
        {
          "internalType": "uint256",
          "name": "",
          "type": "uint256"
        }
      ],
      "stateMutability": "view",
      "type": "function"
    },
    {
      "inputs": [],
      "name": "MAX_SEATS",
      "outputs": [
        {
          "internalType": "uint256",
          "name": "",
          "type": "uint256"
        }
      ],
      "stateMutability": "view",
      "type": "function"
    },
    {
      "inputs": [],
      "name": "MAX_WHITELIST_DELAY",
      "outputs": [
        {
          "internalType": "uint256",
          "name": "",
          "type": "uint256"
        }
      ],
      "stateMutability": "view",
      "type": "function"
    },
    {
      "inputs": [],
      "name": "MAX_WHITELIST_MULTIPLE",
      "outputs": [
        {
          "internalType": "uint256",
          "name": "",
          "type": "uint256"
        }
      ],
      "stateMutability": "view",
      "type": "function"
    },
    {
      "inputs": [],
      "name": "MODE_STANDARD_0314",
      "outputs": [
        {
          "internalType": "uint8",
          "name": "",
          "type": "uint8"
        }
      ],
      "stateMutability": "view",
      "type": "function"
    },
    {
      "inputs": [],
      "name": "MODE_TAXED_1314",
      "outputs": [
        {
          "internalType": "uint8",
          "name": "",
          "type": "uint8"
        }
      ],
      "stateMutability": "view",
      "type": "function"
    },
    {
      "inputs": [],
      "name": "MODE_TAXED_2314",
      "outputs": [
        {
          "internalType": "uint8",
          "name": "",
          "type": "uint8"
        }
      ],
      "stateMutability": "view",
      "type": "function"
    },
    {
      "inputs": [],
      "name": "MODE_TAXED_3314",
      "outputs": [
        {
          "internalType": "uint8",
          "name": "",
          "type": "uint8"
        }
      ],
      "stateMutability": "view",
      "type": "function"
    },
    {
      "inputs": [],
      "name": "MODE_TAXED_4314",
      "outputs": [
        {
          "internalType": "uint8",
          "name": "",
          "type": "uint8"
        }
      ],
      "stateMutability": "view",
      "type": "function"
    },
    {
      "inputs": [],
      "name": "MODE_TAXED_5314",
      "outputs": [
        {
          "internalType": "uint8",
          "name": "",
          "type": "uint8"
        }
      ],
      "stateMutability": "view",
      "type": "function"
    },
    {
      "inputs": [],
      "name": "MODE_TAXED_6314",
      "outputs": [
        {
          "internalType": "uint8",
          "name": "",
          "type": "uint8"
        }
      ],
      "stateMutability": "view",
      "type": "function"
    },
    {
      "inputs": [],
      "name": "MODE_TAXED_7314",
      "outputs": [
        {
          "internalType": "uint8",
          "name": "",
          "type": "uint8"
        }
      ],
      "stateMutability": "view",
      "type": "function"
    },
    {
      "inputs": [],
      "name": "MODE_TAXED_8314",
      "outputs": [
        {
          "internalType": "uint8",
          "name": "",
          "type": "uint8"
        }
      ],
      "stateMutability": "view",
      "type": "function"
    },
    {
      "inputs": [],
      "name": "MODE_TAXED_9314",
      "outputs": [
        {
          "internalType": "uint8",
          "name": "",
          "type": "uint8"
        }
      ],
      "stateMutability": "view",
      "type": "function"
    },
    {
      "inputs": [],
      "name": "MODE_WHITELIST_B314",
      "outputs": [
        {
          "internalType": "uint8",
          "name": "",
          "type": "uint8"
        }
      ],
      "stateMutability": "view",
      "type": "function"
    },
    {
      "inputs": [],
      "name": "MODE_WHITELIST_TAX_F314",
      "outputs": [
        {
          "internalType": "uint8",
          "name": "",
          "type": "uint8"
        }
      ],
      "stateMutability": "view",
      "type": "function"
    },
    {
      "inputs": [],
      "name": "PROTOCOL_FEE_BPS",
      "outputs": [
        {
          "internalType": "uint256",
          "name": "",
          "type": "uint256"
        }
      ],
      "stateMutability": "view",
      "type": "function"
    },
    {
      "inputs": [],
      "name": "SALE_TOKEN_RESERVE",
      "outputs": [
        {
          "internalType": "uint256",
          "name": "",
          "type": "uint256"
        }
      ],
      "stateMutability": "view",
      "type": "function"
    },
    {
      "inputs": [],
      "name": "TOTAL_FEE_BPS",
      "outputs": [
        {
          "internalType": "uint256",
          "name": "",
          "type": "uint256"
        }
      ],
      "stateMutability": "view",
      "type": "function"
    },
    {
      "inputs": [],
      "name": "TOTAL_SUPPLY",
      "outputs": [
        {
          "internalType": "uint256",
          "name": "",
          "type": "uint256"
        }
      ],
      "stateMutability": "view",
      "type": "function"
    },
    {
      "inputs": [],
      "name": "WHITELIST_DURATION",
      "outputs": [
        {
          "internalType": "uint256",
          "name": "",
          "type": "uint256"
        }
      ],
      "stateMutability": "view",
      "type": "function"
    },
    {
      "inputs": [],
      "name": "WHITELIST_STATUS_ACTIVE",
      "outputs": [
        {
          "internalType": "uint8",
          "name": "",
          "type": "uint8"
        }
      ],
      "stateMutability": "view",
      "type": "function"
    },
    {
      "inputs": [],
      "name": "WHITELIST_STATUS_EXPIRED",
      "outputs": [
        {
          "internalType": "uint8",
          "name": "",
          "type": "uint8"
        }
      ],
      "stateMutability": "view",
      "type": "function"
    },
    {
      "inputs": [],
      "name": "WHITELIST_STATUS_FINALIZED",
      "outputs": [
        {
          "internalType": "uint8",
          "name": "",
          "type": "uint8"
        }
      ],
      "stateMutability": "view",
      "type": "function"
    },
    {
      "inputs": [],
      "name": "WHITELIST_STATUS_NONE",
      "outputs": [
        {
          "internalType": "uint8",
          "name": "",
          "type": "uint8"
        }
      ],
      "stateMutability": "view",
      "type": "function"
    },
    {
      "inputs": [],
      "name": "WHITELIST_STATUS_SCHEDULED",
      "outputs": [
        {
          "internalType": "uint8",
          "name": "",
          "type": "uint8"
        }
      ],
      "stateMutability": "view",
      "type": "function"
    },
    {
      "inputs": [],
      "name": "accountedNativeBalance",
      "outputs": [
        {
          "internalType": "uint256",
          "name": "",
          "type": "uint256"
        }
      ],
      "stateMutability": "view",
      "type": "function"
    },
    {
      "inputs": [],
      "name": "advanceWhitelistPhase",
      "outputs": [],
      "stateMutability": "nonpayable",
      "type": "function"
    },
    {
      "inputs": [
        {
          "internalType": "address",
          "name": "owner",
          "type": "address"
        },
        {
          "internalType": "address",
          "name": "spender",
          "type": "address"
        }
      ],
      "name": "allowance",
      "outputs": [
        {
          "internalType": "uint256",
          "name": "",
          "type": "uint256"
        }
      ],
      "stateMutability": "view",
      "type": "function"
    },
    {
      "inputs": [
        {
          "internalType": "address",
          "name": "spender",
          "type": "address"
        },
        {
          "internalType": "uint256",
          "name": "value",
          "type": "uint256"
        }
      ],
      "name": "approve",
      "outputs": [
        {
          "internalType": "bool",
          "name": "",
          "type": "bool"
        }
      ],
      "stateMutability": "nonpayable",
      "type": "function"
    },
    {
      "inputs": [
        {
          "internalType": "address",
          "name": "account",
          "type": "address"
        }
      ],
      "name": "balanceOf",
      "outputs": [
        {
          "internalType": "uint256",
          "name": "",
          "type": "uint256"
        }
      ],
      "stateMutability": "view",
      "type": "function"
    },
    {
      "inputs": [
        {
          "internalType": "uint256",
          "name": "minTokenOut",
          "type": "uint256"
        }
      ],
      "name": "buy",
      "outputs": [
        {
          "internalType": "uint256",
          "name": "tokenOut",
          "type": "uint256"
        }
      ],
      "stateMutability": "payable",
      "type": "function"
    },
    {
      "inputs": [
        {
          "internalType": "address",
          "name": "account",
          "type": "address"
        }
      ],
      "name": "canClaimWhitelistAllocation",
      "outputs": [
        {
          "internalType": "bool",
          "name": "",
          "type": "bool"
        }
      ],
      "stateMutability": "view",
      "type": "function"
    },
    {
      "inputs": [
        {
          "internalType": "address",
          "name": "account",
          "type": "address"
        }
      ],
      "name": "canClaimWhitelistRefund",
      "outputs": [
        {
          "internalType": "bool",
          "name": "",
          "type": "bool"
        }
      ],
      "stateMutability": "view",
      "type": "function"
    },
    {
      "inputs": [
        {
          "internalType": "address",
          "name": "account",
          "type": "address"
        }
      ],
      "name": "canCommitWhitelist",
      "outputs": [
        {
          "internalType": "bool",
          "name": "",
          "type": "bool"
        }
      ],
      "stateMutability": "view",
      "type": "function"
    },
    {
      "inputs": [
        {
          "internalType": "address",
          "name": "account",
          "type": "address"
        }
      ],
      "name": "canSell",
      "outputs": [
        {
          "internalType": "bool",
          "name": "",
          "type": "bool"
        }
      ],
      "stateMutability": "view",
      "type": "function"
    },
    {
      "inputs": [],
      "name": "claimCreatorFees",
      "outputs": [
        {
          "internalType": "uint256",
          "name": "amount",
          "type": "uint256"
        }
      ],
      "stateMutability": "nonpayable",
      "type": "function"
    },
    {
      "inputs": [
        {
          "internalType": "address payable",
          "name": "recipient",
          "type": "address"
        }
      ],
      "name": "claimCreatorFeesTo",
      "outputs": [
        {
          "internalType": "uint256",
          "name": "amount",
          "type": "uint256"
        }
      ],
      "stateMutability": "nonpayable",
      "type": "function"
    },
    {
      "inputs": [],
      "name": "claimProtocolFees",
      "outputs": [
        {
          "internalType": "uint256",
          "name": "amount",
          "type": "uint256"
        }
      ],
      "stateMutability": "nonpayable",
      "type": "function"
    },
    {
      "inputs": [
        {
          "internalType": "address payable",
          "name": "recipient",
          "type": "address"
        }
      ],
      "name": "claimProtocolFeesTo",
      "outputs": [
        {
          "internalType": "uint256",
          "name": "amount",
          "type": "uint256"
        }
      ],
      "stateMutability": "nonpayable",
      "type": "function"
    },
    {
      "inputs": [],
      "name": "claimWhitelistAllocation",
      "outputs": [
        {
          "internalType": "uint256",
          "name": "tokenAmount",
          "type": "uint256"
        }
      ],
      "stateMutability": "nonpayable",
      "type": "function"
    },
    {
      "inputs": [],
      "name": "claimWhitelistRefund",
      "outputs": [
        {
          "internalType": "uint256",
          "name": "refundAmount",
          "type": "uint256"
        }
      ],
      "stateMutability": "nonpayable",
      "type": "function"
    },
    {
      "inputs": [],
      "name": "commitWhitelistSeat",
      "outputs": [],
      "stateMutability": "payable",
      "type": "function"
    },
    {
      "inputs": [],
      "name": "createdAt",
      "outputs": [
        {
          "internalType": "uint256",
          "name": "",
          "type": "uint256"
        }
      ],
      "stateMutability": "view",
      "type": "function"
    },
    {
      "inputs": [],
      "name": "creator",
      "outputs": [
        {
          "internalType": "address",
          "name": "",
          "type": "address"
        }
      ],
      "stateMutability": "view",
      "type": "function"
    },
    {
      "inputs": [],
      "name": "creatorClaimable",
      "outputs": [
        {
          "internalType": "uint256",
          "name": "",
          "type": "uint256"
        }
      ],
      "stateMutability": "view",
      "type": "function"
    },
    {
      "inputs": [],
      "name": "creatorFeeSweepReady",
      "outputs": [
        {
          "internalType": "bool",
          "name": "",
          "type": "bool"
        }
      ],
      "stateMutability": "view",
      "type": "function"
    },
    {
      "inputs": [],
      "name": "creatorFeeVault",
      "outputs": [
        {
          "internalType": "uint256",
          "name": "",
          "type": "uint256"
        }
      ],
      "stateMutability": "view",
      "type": "function"
    },
    {
      "inputs": [],
      "name": "currentPriceQuotePerToken",
      "outputs": [
        {
          "internalType": "uint256",
          "name": "",
          "type": "uint256"
        }
      ],
      "stateMutability": "view",
      "type": "function"
    },
    {
      "inputs": [],
      "name": "curveQuoteReserve",
      "outputs": [
        {
          "internalType": "uint256",
          "name": "",
          "type": "uint256"
        }
      ],
      "stateMutability": "view",
      "type": "function"
    },
    {
      "inputs": [],
      "name": "decimals",
      "outputs": [
        {
          "internalType": "uint8",
          "name": "",
          "type": "uint8"
        }
      ],
      "stateMutability": "view",
      "type": "function"
    },
    {
      "inputs": [],
      "name": "dexFactory",
      "outputs": [
        {
          "internalType": "address",
          "name": "",
          "type": "address"
        }
      ],
      "stateMutability": "view",
      "type": "function"
    },
    {
      "inputs": [],
      "name": "dexReserves",
      "outputs": [
        {
          "internalType": "uint256",
          "name": "tokenReserve",
          "type": "uint256"
        },
        {
          "internalType": "uint256",
          "name": "quoteReserve",
          "type": "uint256"
        }
      ],
      "stateMutability": "view",
      "type": "function"
    },
    {
      "inputs": [],
      "name": "displayGraduationProgressBps",
      "outputs": [
        {
          "internalType": "uint256",
          "name": "",
          "type": "uint256"
        }
      ],
      "stateMutability": "view",
      "type": "function"
    },
    {
      "inputs": [],
      "name": "factory",
      "outputs": [
        {
          "internalType": "address",
          "name": "",
          "type": "address"
        }
      ],
      "stateMutability": "view",
      "type": "function"
    },
    {
      "inputs": [
        {
          "internalType": "address",
          "name": "recipient",
          "type": "address"
        },
        {
          "internalType": "uint256",
          "name": "minTokenOut",
          "type": "uint256"
        }
      ],
      "name": "factoryBuyFor",
      "outputs": [
        {
          "internalType": "uint256",
          "name": "tokenOut",
          "type": "uint256"
        }
      ],
      "stateMutability": "payable",
      "type": "function"
    },
    {
      "inputs": [
        {
          "internalType": "address payable",
          "name": "recipient",
          "type": "address"
        }
      ],
      "name": "factoryClaimProtocolFeesTo",
      "outputs": [
        {
          "internalType": "uint256",
          "name": "amount",
          "type": "uint256"
        }
      ],
      "stateMutability": "nonpayable",
      "type": "function"
    },
    {
      "inputs": [
        {
          "internalType": "address",
          "name": "account",
          "type": "address"
        }
      ],
      "name": "factoryCommitWhitelistSeat",
      "outputs": [],
      "stateMutability": "payable",
      "type": "function"
    },
    {
      "inputs": [],
      "name": "graduationProgressBps",
      "outputs": [
        {
          "internalType": "uint256",
          "name": "",
          "type": "uint256"
        }
      ],
      "stateMutability": "view",
      "type": "function"
    },
    {
      "inputs": [],
      "name": "graduationQuoteReserve",
      "outputs": [
        {
          "internalType": "uint256",
          "name": "",
          "type": "uint256"
        }
      ],
      "stateMutability": "view",
      "type": "function"
    },
    {
      "inputs": [
        {
          "internalType": "address",
          "name": "account",
          "type": "address"
        }
      ],
      "name": "isWhitelisted",
      "outputs": [
        {
          "internalType": "bool",
          "name": "",
          "type": "bool"
        }
      ],
      "stateMutability": "view",
      "type": "function"
    },
    {
      "inputs": [
        {
          "internalType": "address",
          "name": "",
          "type": "address"
        }
      ],
      "name": "lastBuyBlock",
      "outputs": [
        {
          "internalType": "uint256",
          "name": "",
          "type": "uint256"
        }
      ],
      "stateMutability": "view",
      "type": "function"
    },
    {
      "inputs": [],
      "name": "lastTradeAt",
      "outputs": [
        {
          "internalType": "uint256",
          "name": "",
          "type": "uint256"
        }
      ],
      "stateMutability": "view",
      "type": "function"
    },
    {
      "inputs": [],
      "name": "launchMode",
      "outputs": [
        {
          "internalType": "uint8",
          "name": "",
          "type": "uint8"
        }
      ],
      "stateMutability": "view",
      "type": "function"
    },
    {
      "inputs": [],
      "name": "launchModeId",
      "outputs": [
        {
          "internalType": "uint8",
          "name": "",
          "type": "uint8"
        }
      ],
      "stateMutability": "view",
      "type": "function"
    },
    {
      "inputs": [],
      "name": "launchSuffix",
      "outputs": [
        {
          "internalType": "string",
          "name": "",
          "type": "string"
        }
      ],
      "stateMutability": "view",
      "type": "function"
    },
    {
      "inputs": [],
      "name": "lpTokenReserve",
      "outputs": [
        {
          "internalType": "uint256",
          "name": "",
          "type": "uint256"
        }
      ],
      "stateMutability": "view",
      "type": "function"
    },
    {
      "inputs": [],
      "name": "metadataURI",
      "outputs": [
        {
          "internalType": "string",
          "name": "",
          "type": "string"
        }
      ],
      "stateMutability": "view",
      "type": "function"
    },
    {
      "inputs": [],
      "name": "name",
      "outputs": [
        {
          "internalType": "string",
          "name": "",
          "type": "string"
        }
      ],
      "stateMutability": "view",
      "type": "function"
    },
    {
      "inputs": [],
      "name": "pair",
      "outputs": [
        {
          "internalType": "address",
          "name": "",
          "type": "address"
        }
      ],
      "stateMutability": "view",
      "type": "function"
    },
    {
      "inputs": [],
      "name": "pairSnapshot",
      "outputs": [
        {
          "internalType": "address",
          "name": "pairAddress",
          "type": "address"
        },
        {
          "internalType": "uint256",
          "name": "pairTotalSupply",
          "type": "uint256"
        },
        {
          "internalType": "uint112",
          "name": "reserve0",
          "type": "uint112"
        },
        {
          "internalType": "uint112",
          "name": "reserve1",
          "type": "uint112"
        },
        {
          "internalType": "uint256",
          "name": "tokenBalance",
          "type": "uint256"
        },
        {
          "internalType": "uint256",
          "name": "wrappedNativeBalance",
          "type": "uint256"
        }
      ],
      "stateMutability": "view",
      "type": "function"
    },
    {
      "inputs": [
        {
          "internalType": "uint256",
          "name": "grossQuoteIn",
          "type": "uint256"
        }
      ],
      "name": "previewBuy",
      "outputs": [
        {
          "internalType": "uint256",
          "name": "tokenOut",
          "type": "uint256"
        },
        {
          "internalType": "uint256",
          "name": "feeAmount",
          "type": "uint256"
        },
        {
          "internalType": "uint256",
          "name": "refundAmount",
          "type": "uint256"
        }
      ],
      "stateMutability": "view",
      "type": "function"
    },
    {
      "inputs": [
        {
          "internalType": "uint256",
          "name": "tokenAmount",
          "type": "uint256"
        }
      ],
      "name": "previewSell",
      "outputs": [
        {
          "internalType": "uint256",
          "name": "grossQuoteOut",
          "type": "uint256"
        },
        {
          "internalType": "uint256",
          "name": "netQuoteOut",
          "type": "uint256"
        },
        {
          "internalType": "uint256",
          "name": "totalFee",
          "type": "uint256"
        }
      ],
      "stateMutability": "view",
      "type": "function"
    },
    {
      "inputs": [],
      "name": "priceQuotePerToken",
      "outputs": [
        {
          "internalType": "uint256",
          "name": "",
          "type": "uint256"
        }
      ],
      "stateMutability": "view",
      "type": "function"
    },
    {
      "inputs": [],
      "name": "protocolClaimable",
      "outputs": [
        {
          "internalType": "uint256",
          "name": "",
          "type": "uint256"
        }
      ],
      "stateMutability": "view",
      "type": "function"
    },
    {
      "inputs": [],
      "name": "protocolFeeRecipient",
      "outputs": [
        {
          "internalType": "address",
          "name": "",
          "type": "address"
        }
      ],
      "stateMutability": "view",
      "type": "function"
    },
    {
      "inputs": [],
      "name": "protocolFeeVault",
      "outputs": [
        {
          "internalType": "uint256",
          "name": "",
          "type": "uint256"
        }
      ],
      "stateMutability": "view",
      "type": "function"
    },
    {
      "inputs": [],
      "name": "reconcileUnexpectedNative",
      "outputs": [
        {
          "internalType": "uint256",
          "name": "amount",
          "type": "uint256"
        }
      ],
      "stateMutability": "nonpayable",
      "type": "function"
    },
    {
      "inputs": [],
      "name": "remainingQuoteCapacity",
      "outputs": [
        {
          "internalType": "uint256",
          "name": "",
          "type": "uint256"
        }
      ],
      "stateMutability": "view",
      "type": "function"
    },
    {
      "inputs": [],
      "name": "router",
      "outputs": [
        {
          "internalType": "address",
          "name": "",
          "type": "address"
        }
      ],
      "stateMutability": "view",
      "type": "function"
    },
    {
      "inputs": [],
      "name": "saleTokenReserve",
      "outputs": [
        {
          "internalType": "uint256",
          "name": "",
          "type": "uint256"
        }
      ],
      "stateMutability": "view",
      "type": "function"
    },
    {
      "inputs": [
        {
          "internalType": "uint256",
          "name": "tokenAmount",
          "type": "uint256"
        },
        {
          "internalType": "uint256",
          "name": "minQuoteOut",
          "type": "uint256"
        }
      ],
      "name": "sell",
      "outputs": [
        {
          "internalType": "uint256",
          "name": "netQuoteOut",
          "type": "uint256"
        }
      ],
      "stateMutability": "nonpayable",
      "type": "function"
    },
    {
      "inputs": [
        {
          "internalType": "address",
          "name": "account",
          "type": "address"
        }
      ],
      "name": "sellUnlockBlock",
      "outputs": [
        {
          "internalType": "uint256",
          "name": "",
          "type": "uint256"
        }
      ],
      "stateMutability": "view",
      "type": "function"
    },
    {
      "inputs": [],
      "name": "state",
      "outputs": [
        {
          "internalType": "enum LaunchTokenBase.LaunchState",
          "name": "",
          "type": "uint8"
        }
      ],
      "stateMutability": "view",
      "type": "function"
    },
    {
      "inputs": [],
      "name": "sweepAbandonedCreatorFees",
      "outputs": [
        {
          "internalType": "uint256",
          "name": "amount",
          "type": "uint256"
        }
      ],
      "stateMutability": "nonpayable",
      "type": "function"
    },
    {
      "inputs": [],
      "name": "symbol",
      "outputs": [
        {
          "internalType": "string",
          "name": "",
          "type": "string"
        }
      ],
      "stateMutability": "view",
      "type": "function"
    },
    {
      "inputs": [],
      "name": "taxConfig",
      "outputs": [
        {
          "internalType": "bool",
          "name": "enabled",
          "type": "bool"
        },
        {
          "internalType": "uint16",
          "name": "taxBps",
          "type": "uint16"
        },
        {
          "internalType": "uint16",
          "name": "burnShareBps",
          "type": "uint16"
        },
        {
          "internalType": "uint16",
          "name": "treasuryShareBps",
          "type": "uint16"
        },
        {
          "internalType": "address",
          "name": "treasuryWallet",
          "type": "address"
        },
        {
          "internalType": "bool",
          "name": "active",
          "type": "bool"
        }
      ],
      "stateMutability": "view",
      "type": "function"
    },
    {
      "inputs": [],
      "name": "totalSupply",
      "outputs": [
        {
          "internalType": "uint256",
          "name": "",
          "type": "uint256"
        }
      ],
      "stateMutability": "view",
      "type": "function"
    },
    {
      "inputs": [
        {
          "internalType": "address",
          "name": "to",
          "type": "address"
        },
        {
          "internalType": "uint256",
          "name": "value",
          "type": "uint256"
        }
      ],
      "name": "transfer",
      "outputs": [
        {
          "internalType": "bool",
          "name": "",
          "type": "bool"
        }
      ],
      "stateMutability": "nonpayable",
      "type": "function"
    },
    {
      "inputs": [
        {
          "internalType": "address",
          "name": "from",
          "type": "address"
        },
        {
          "internalType": "address",
          "name": "to",
          "type": "address"
        },
        {
          "internalType": "uint256",
          "name": "value",
          "type": "uint256"
        }
      ],
      "name": "transferFrom",
      "outputs": [
        {
          "internalType": "bool",
          "name": "",
          "type": "bool"
        }
      ],
      "stateMutability": "nonpayable",
      "type": "function"
    },
    {
      "inputs": [],
      "name": "unexpectedNativeBalance",
      "outputs": [
        {
          "internalType": "uint256",
          "name": "",
          "type": "uint256"
        }
      ],
      "stateMutability": "view",
      "type": "function"
    },
    {
      "inputs": [],
      "name": "virtualQuoteReserve",
      "outputs": [
        {
          "internalType": "uint256",
          "name": "",
          "type": "uint256"
        }
      ],
      "stateMutability": "view",
      "type": "function"
    },
    {
      "inputs": [],
      "name": "virtualTokenReserve",
      "outputs": [
        {
          "internalType": "uint256",
          "name": "",
          "type": "uint256"
        }
      ],
      "stateMutability": "view",
      "type": "function"
    },
    {
      "inputs": [
        {
          "internalType": "address",
          "name": "",
          "type": "address"
        }
      ],
      "name": "whitelist",
      "outputs": [
        {
          "internalType": "bool",
          "name": "",
          "type": "bool"
        }
      ],
      "stateMutability": "view",
      "type": "function"
    },
    {
      "inputs": [
        {
          "internalType": "address",
          "name": "",
          "type": "address"
        }
      ],
      "name": "whitelistAllocationClaimed",
      "outputs": [
        {
          "internalType": "bool",
          "name": "",
          "type": "bool"
        }
      ],
      "stateMutability": "view",
      "type": "function"
    },
    {
      "inputs": [],
      "name": "whitelistAllocationTokenReserve",
      "outputs": [
        {
          "internalType": "uint256",
          "name": "",
          "type": "uint256"
        }
      ],
      "stateMutability": "view",
      "type": "function"
    },
    {
      "inputs": [],
      "name": "whitelistCommitVault",
      "outputs": [
        {
          "internalType": "uint256",
          "name": "",
          "type": "uint256"
        }
      ],
      "stateMutability": "view",
      "type": "function"
    },
    {
      "inputs": [],
      "name": "whitelistCommittedTotal",
      "outputs": [
        {
          "internalType": "uint256",
          "name": "",
          "type": "uint256"
        }
      ],
      "stateMutability": "view",
      "type": "function"
    },
    {
      "inputs": [],
      "name": "whitelistExpiredWithoutFinalization",
      "outputs": [
        {
          "internalType": "bool",
          "name": "",
          "type": "bool"
        }
      ],
      "stateMutability": "view",
      "type": "function"
    },
    {
      "inputs": [],
      "name": "whitelistFinalized",
      "outputs": [
        {
          "internalType": "bool",
          "name": "",
          "type": "bool"
        }
      ],
      "stateMutability": "view",
      "type": "function"
    },
    {
      "inputs": [
        {
          "internalType": "address",
          "name": "",
          "type": "address"
        }
      ],
      "name": "whitelistRefundClaimed",
      "outputs": [
        {
          "internalType": "bool",
          "name": "",
          "type": "bool"
        }
      ],
      "stateMutability": "view",
      "type": "function"
    },
    {
      "inputs": [
        {
          "internalType": "address",
          "name": "",
          "type": "address"
        }
      ],
      "name": "whitelistSeatCommitted",
      "outputs": [
        {
          "internalType": "bool",
          "name": "",
          "type": "bool"
        }
      ],
      "stateMutability": "view",
      "type": "function"
    },
    {
      "inputs": [],
      "name": "whitelistSeatsFilled",
      "outputs": [
        {
          "internalType": "uint256",
          "name": "",
          "type": "uint256"
        }
      ],
      "stateMutability": "view",
      "type": "function"
    },
    {
      "inputs": [],
      "name": "whitelistSnapshot",
      "outputs": [
        {
          "internalType": "uint8",
          "name": "status",
          "type": "uint8"
        },
        {
          "internalType": "uint256",
          "name": "opensAt",
          "type": "uint256"
        },
        {
          "internalType": "uint256",
          "name": "deadline",
          "type": "uint256"
        },
        {
          "internalType": "uint256",
          "name": "threshold",
          "type": "uint256"
        },
        {
          "internalType": "uint256",
          "name": "slotSize",
          "type": "uint256"
        },
        {
          "internalType": "uint256",
          "name": "seatCount",
          "type": "uint256"
        },
        {
          "internalType": "uint256",
          "name": "seatsFilled",
          "type": "uint256"
        },
        {
          "internalType": "uint256",
          "name": "committedTotal",
          "type": "uint256"
        },
        {
          "internalType": "uint256",
          "name": "tokensPerSeat",
          "type": "uint256"
        }
      ],
      "stateMutability": "view",
      "type": "function"
    },
    {
      "inputs": [],
      "name": "whitelistStatus",
      "outputs": [
        {
          "internalType": "uint8",
          "name": "",
          "type": "uint8"
        }
      ],
      "stateMutability": "view",
      "type": "function"
    },
    {
      "inputs": [],
      "name": "whitelistTokensPerSeat",
      "outputs": [
        {
          "internalType": "uint256",
          "name": "",
          "type": "uint256"
        }
      ],
      "stateMutability": "view",
      "type": "function"
    },
    {
      "inputs": [],
      "name": "wrappedNative",
      "outputs": [
        {
          "internalType": "address",
          "name": "",
          "type": "address"
        }
      ],
      "stateMutability": "view",
      "type": "function"
    },
    {
      "stateMutability": "payable",
      "type": "receive"
    }
  ],
  "bytecode": "0x610260806040523462000b46576200597d90813803809262000022828462001058565b8239602081838101031262000b465780516001600160401b03811162000b46576101a0818301848401031262000b4657604051916101a083016001600160401b0381118482101762000d1e57604052808201516001600160401b03811162000b46576200009790858301908484010162001098565b8352808201602001516001600160401b03811162000b4657620000c290858301908484010162001098565b6020840152808201604001516001600160401b03811162000b4657620000f090858301908484010162001098565b60408401526200010560608383010162001103565b60608401526200011a60808383010162001103565b60808401526200012f60a08383010162001103565b60a08401526200014460c08383010162001103565b60c084015280820160e0818101519085015261010080820151908501526101208082015190850152610140808201519085015261016001516001600160401b03811162000b4657848201601f828585010101121562000b46578183018101516001600160401b03811162000d1e5760405191620001c860208360051b018462001058565b8183526020830196840160208360051b838888010101011162000b46576020818686010101965b60208360051b8388880101010188106200101c578661018087878761016085015201015160ff8116810362000b465761018082018190528151602083015160408401516060850151608086015160a087015160c088015160e0890151875195976001600160a01b039586169791969286169593841694909316929091906001600160401b03821162000d1e5760035490600182811c9216801562001011575b602083101462000cfd5781601f84931162000f9f575b50602090601f831160011462000f105760009262000f04575b50508160011b916000199060031b1c1916176003555b8051906001600160401b03821162000d1e5760045490600182811c9216801562000ef9575b602083101462000cfd5781601f84931162000e87575b50602090601f831160011462000df85760009262000dec575b50508160011b916000199060031b1c1916176004555b60017f9b779b17422d0df92223018b32b4d1fa46e071723d6817e2486d003becc55f0055831562000dda57620003738462001305565b94851562000dda578015801562000dd1575b801562000dc8575b801562000dbf575b620007a25760a05260c05260e05261010081905260405163c45a015560e01b8152602081600481855afa90811562000b545760009162000d76575b50610120526040516315ab88c960e31b815290602090829060049082905afa90811562000b545760009162000d34575b506101405261016052610180526a5889e9f3e4c6e14f4000006101a052426101c0819052600c558051906001600160401b03821162000d1e57600554600181811c9116801562000d13575b602082101462000cfd57601f811162000cb3575b50602090601f831160011462000c3f5760ff9392916000918362000c33575b50508160011b916000199060031b1c1916176005555b16608052301562000c1a5760ff6006541660058110158062000bf65760018214801562000c0c575b1562000bb4575b50506002546b033b2e3c9fd0803ce800000081018111620009de576b033b2e3c9fd0803ce80000000160025530600052600060205260406000206b033b2e3c9fd0803ce800000081540190556040516b033b2e3c9fd0803ce8000000815260007fddf252ad1be2c89b69c2b068fc378daa952ba7f163c4a11628f55a4df523b3ef60203093a36b0295be96e6406697200000006007556aa56fa5b99019a5c8000000600855610120516101405160405163e6a4390560e01b8152600092909160209183916001600160a01b039182169183918291620005a891163060048401620013a1565b03915afa91821562000ba857809262000b60575b50506001600160a01b0381161562000ab1575b600680546001600160a81b03191660089290921b610100600160a81b031691909117600490811790915560007f3a779de46631dd65116ae538600f1bc3c338200c6aef638429b5de43301c28f78180a360808101516101008201516200063e916001600160a01b031662001167565b1562000a9f5761010081015160e0820151111562000a9f57608081015161012082015162000675916001600160a01b0316620011e9565b1562000a8d5761010081015161012082015190811562000a77570662000a58576101008101519061012081015190811562000a77578183041580801562000a6a575b62000a58576101608201515190838504821091821562000a36575b505062000a24576101408101518062000a1d575042915b428310801562000a06575b620009f4576201518083018311620009de576201518083016101e05261010082015161020052610120820151610220528084046102405260005b6101608301518051821015620007b457600582901b01602001516001600160a01b0316908115620007a2578160005260148060205260ff60406000205416620007905760019260005260205260406000208260ff19825416179055016200072e565b604051630fb0efa560e41b8152600490fd5b60405163d92e233d60e01b8152600490fd5b62000821847fc32c90bcebb1b5638e92a2a57d7cfd39596fa72768c7c95f945d9ed03baffac560a0868a8a61010086015192610120870151926101e05193604051958652602086015204604084015260608301526080820152a1608001516001600160a01b03166200121d565b15620009cc576040516145c19081620013bc8239608051816123a0015260a051818181611b47015281816121cd0152613580015260c05181818161094801528181610df40152818161163d01528181611fde01526130cc015260e0518181816116ca015281816119fe0152818161301901526144980152610100518161068d01526101205181610e8501526101405181818161078e0152818161268001528181612ceb01528181613c9301528181613cd60152613d43015261016051818181611aab0152818161244d015281816128640152818161299b0152818161362501528181613724015261390f0152610180518181816106fa015261321301526101a051818181611b8c015261324d01526101c051818181610c3101526137b401526101e05181818161084001528181610d3401528181610fe00152818161101d015281816127e3015281816133450152613395015261020051818181610892015281816132a1015281816134d001526141790152610220518181816108b8015281816117b901526133e80152610240518181816108de01528181610f790152818161342501526141ce0152f35b604051635bb6e57160e11b8152600490fd5b634e487b7160e01b600052601160045260246000fd5b6040516305c742e960e11b8152600490fd5b506203f4804201804211620009de578311620006f4565b91620006e9565b60405163529cc2c560e01b8152600490fd5b9091506003848604029184860483046003141715620009de57118480620006d2565b604051635ca83dcb60e11b8152600490fd5b50605083850411620006b7565b634e487b7160e01b600052601260045260246000fd5b604051633d8f86f560e21b8152600490fd5b60405163230bad2760e11b8152600490fd5b5061012051610140516040516364e329cb60e11b81529160209183916001600160a01b03908116918391600091839162000af191163060048401620013a1565b03925af1801562000b545760009062000b0d575b9050620005cf565b506020813d60201162000b4b575b8162000b2a6020938362001058565b8101031262000b465762000b4060049162001103565b62000b05565b600080fd5b3d915062000b1b565b6040513d6000823e3d90fd5b9091506020823d60201162000b9f575b8162000b7f6020938362001058565b8101031262000b9c575062000b949062001103565b8280620005bc565b80fd5b3d915062000b70565b604051903d90823e3d90fd5b62000bf6576002810362000bd45760405163baf3f0f760e01b8152600490fd5b60031462000be4578180620004c3565b604051634e46966960e11b8152600490fd5b634e487b7160e01b600052602160045260246000fd5b5050600060048214620004bc565b60405163ec442f0560e01b815260006004820152602490fd5b0151905085806200047e565b90600560005260206000209160005b601f198516811062000c9a575091839160019360ff9695601f1981161062000c80575b505050811b0160055562000494565b015160001960f88460031b161c1916905585808062000c71565b9192602060018192868501518155019401920162000c4e565b60056000526020600020601f840160051c81016020851062000cf5575b601f830160051c8201811062000ce85750506200045f565b6000815560010162000cd0565b508062000cd0565b634e487b7160e01b600052602260045260246000fd5b90607f16906200044b565b634e487b7160e01b600052604160045260246000fd5b90506020813d60201162000d6d575b8162000d526020938362001058565b8101031262000b465762000d669062001103565b8662000400565b3d915062000d43565b90506020813d60201162000db6575b8162000d946020938362001058565b8101031262000b465760049162000dad60209262001103565b915091620003d0565b3d915062000d85565b50831562000395565b5082156200038d565b50811562000385565b604051630d956e1760e21b8152600490fd5b015190508a8062000327565b6004600090815293507f8a35acfbc15ff81a39ae7d344fd709f28e8600b4aa8c65c6b64bfe7fe36bd19b91905b601f198416851062000e6b576001945083601f1981161062000e51575b505050811b016004556200033d565b015160001960f88460031b161c191690558a808062000e42565b8181015183556020948501946001909301929091019062000e25565b60046000529091507f8a35acfbc15ff81a39ae7d344fd709f28e8600b4aa8c65c6b64bfe7fe36bd19b601f840160051c81016020851062000ef1575b90849392915b601f830160051c8201811062000ee15750506200030e565b6000815585945060010162000ec9565b508062000ec3565b91607f1691620002f8565b015190508b80620002bd565b6003600090815293507fc2575a0e9e593c00f959f8c92f12db2869c3395a3b0502d05e2516446f71f85b91905b601f198416851062000f83576001945083601f1981161062000f69575b505050811b01600355620002d3565b015160001960f88460031b161c191690558b808062000f5a565b8181015183556020948501946001909301929091019062000f3d565b60036000529091507fc2575a0e9e593c00f959f8c92f12db2869c3395a3b0502d05e2516446f71f85b601f840160051c81016020851062001009575b90849392915b601f830160051c8201811062000ff9575050620002a4565b6000815585945060010162000fe1565b508062000fdb565b91607f16916200028e565b9060208080936200102d8b62001103565b815201980197909150620001ef565b606081019081106001600160401b0382111762000d1e57604052565b601f909101601f19168101906001600160401b0382119082101762000d1e57604052565b6001600160401b03811162000d1e57601f01601f191660200190565b9080601f8301121562000b4657815190620010b3826200107c565b92620010c3604051948562001058565b8284526020916020848301011162000b465760005b838110620010ef5750505060206000918301015290565b8181018301518582018401528201620010d8565b51906001600160a01b038216820362000b4657565b3d1562001148573d906200112c826200107c565b916200113c604051938462001058565b82523d6000602084013e565b606090565b9081602091031262000b465751801515810362000b465790565b90813b15620011e25760009182916040516020810191630468d6b760e51b83526024820152602481526200119b816200103c565b51915afa620011a962001118565b81620011d3575b81620011ba575090565b620011d09150602080825183010191016200114d565b90565b905060208151101590620011b0565b5050600090565b90813b15620011e25760009182916040516020810191633480481f60e21b83526024820152602481526200119b816200103c565b6001600160a01b039080821690338214620012fd573b15620011e257600260ff6080511614620012ce57600c60ff60805116146200125c575050600090565b602060049160405192838092631b5c66b560e31b82525afa90811562000b54576000916200128c575b5016331490565b90506020813d602011620012c5575b81620012aa6020938362001058565b8101031262000b4657620012be9062001103565b3862001285565b3d91506200129b565b6020600491604051928380926337eb7e0160e01b82525afa90811562000b54576000916200128c575016331490565b505050600190565b6afdf98fad74e08717400000600019818309818302918280831092039180830392146200138c576b0295be96e640669720000000908282111562001379577fab5d02869c14ad85338e6a157058d28e658611776aff168d01c445d3a8cc9189940990828211900360e31b9103601d1c170290565b634e487b7160005260116020526024601cfd5b50506b0295be96e64066972000000091500490565b6001600160a01b039182168152911660208201526040019056fe6080604081815260049182361015610044575b505050361561002057600080fd5b610028612fdd565b61003061290a565b600160008051602061456c83398151915255005b600092833560e01c91826302d05d3f146121b95750816303ee438c1461211657816306b51d481461154b57816306fdde031461203d578163079790031461201e578163086e5ca014611fab578163095ea7b314611f015781630b42aae014611ee557816315a0aa0814611e86578163173d5e4214611a6857816318160ddd14611e675781631c2945b214611e295781631cd97db514611e025781631d924c7714611de457816323b872dd14611c9857816324e69d7c14611c7157816325cacd0c14611c4d57816327bfa19614611c0f578163292e5b0014611bea5781632a025a8614611bcb578163313ce56714611baf578163343ee3b714611b74578163351fee4614611b2557816337488a4214611b0657816337b28bfd14611ace5781633993152714611a935781633af32abf1461123d5781633cfe0ade14611a6d578163403287a914610a2b57816340faa03c14611a68578163430437fb14611a4c578163463bb800146110f55781634815327914611a2b5781634a7d0369146119dc5781634e6fd6c4146119bf57816352fb81bb1461198157816353866006146118d9578163571b1f8a146118bb578163581b51f31461189e5781635878f8ce1461188157816358ebc06e146117745781636095a62014611758578163644537cb1461173257816364a5dc2b146116f957816364df049e146116b55781636723064e146116145781636887c848146115c157816368bc13f5146115a55781636a534fcb1461156c5781636a740d3114610ed05781636f28507c146115505781636f71f0171461154b57816370a0823114611525578163722eb97a1461150957816374452ec3146114ea5781637531abe31461147057816379e4698714610e2357816385cac23714610ef157816386d4ff1d146114215781638925d36e14611402578163902d55a5146113dc5781639111f13d146113b657816391e7cd34146113975781639454d7201461137b57816394c2c24f1461135f57816395d89b411461127b5781639b19251a1461123d5781639d0ee65b146112215781639ddf7ad3146111fa5781639e5f358a146111dd578163a202c86d146111c1578163a36cdf991461114d578163a8aa1b3114611120578163a8dccd02146110fa578163a8ea4445146110f5578163a9059cbb14611089578163aadade7a1461106a578163aecf6a7c14610f1a578163af1af3b914610c54578163b0cc792d14610ef6578163b37dd69014610ef1578163b5f1c1ff14610ed5578163b82020e814610ed0578163b88202a914610eb4578163b8d8fbb414610e70578163be37822814610e54578163c19d93fb14610e28578163c228987814610e23578163c45a015514610ddf578163c57da02914610da7578163cac01cbc14610d8c578163cc3cbd2a14610d70578163cc64aade14610c73578163ce228ad214610c54578163cf09e0d014610c19578163d119e96514610bfb578163d79875eb14610a30578163d81d946f14610a2b578163d96a094a146109ae578163d9d5a9f314610927578163db9b541314610823578163dd62ed3e146107da578163e1a45218146107bd578163eb6d3a1114610779578163ed1cc3a81461075a578163f3bf10ed1461073b578163f48f6f1d1461071d578163f5596626146106e2578163f7ce612a146106bc578163f887ea4014610678578163fb3dd95f14610642578163fb9a1d8d14610550575063fd897e0b1461052f5780610012565b3461054c578160031936011261054c57602090600d549051908152f35b5080fd5b83833461054c578160031936011261054c5761056a612fdd565b60ff6013541615801561062c575b8015610617575b61060857602092506012549133815260168452818120600160ff198254161790556105ac83600d546123c4565b600d55338152600e845281439120556105c6823330613fed565b80518281527f648b77675d9290f9aa4f34a5cd8b6ff268de43a375ce9f853f027bb3699ea84e843392a2600160008051602061456c8339815191525551908152f35b51630f6ff1d560e31b81529050fd5b50338252601660205260ff818320541661057f565b50338252601560205260ff818320541615610578565b828434610675576020366003190112610675575061066361067192356128b6565b909391925193849384612338565b0390f35b80fd5b50503461054c578160031936011261054c57517f00000000000000000000000000000000000000000000000000000000000000006001600160a01b03168152602090f35b50503461054c578160031936011261054c57602090516aa56fa5b99019a5c80000008152f35b50503461054c578160031936011261054c57602090517f00000000000000000000000000000000000000000000000000000000000000008152f35b50503461054c578160031936011261054c576020905162278d008152f35b50503461054c578160031936011261054c576020906012549051908152f35b50503461054c578160031936011261054c57602090600f549051908152f35b50503461054c578160031936011261054c57517f00000000000000000000000000000000000000000000000000000000000000006001600160a01b03168152602090f35b50503461054c578160031936011261054c57602090516127108152f35b50503461054c578060031936011261054c57806020926107f86122b9565b6108006122cf565b6001600160a01b0391821683526001865283832091168252845220549051908152f35b82843461067557806003193601126106755761083d61278f565b917f00000000000000000000000000000000000000000000000000000000000000006201517f1981019281841161091457506101209450600f5490601054926012549460ff82519716875260208701528501527f000000000000000000000000000000000000000000000000000000000000000060608501527f000000000000000000000000000000000000000000000000000000000000000060808501527f000000000000000000000000000000000000000000000000000000000000000060a085015260c084015260e0830152610100820152f35b634e487b7160e01b815260118652602490fd5b905060203660031901126109aa5761093d6122b9565b91610946612fdd565b7f00000000000000000000000000000000000000000000000000000000000000006001600160a01b0316330361099d578361098884610983613272565b61336c565b600160008051602061456c8339815191525580f35b51635b2fb5b360e11b8152fd5b8280fd5b82846020366003190112610675576109c4612fdd565b6109cc613272565b60ff60065416906005821015610a185750600103610a0b576109f26020923533336138b8565b90600160008051602061456c8339815191525551908152f35b5163baf3f0f760e01b8152fd5b634e487b7160e01b815260218452602490fd5b612300565b919050346109aa57806003193601126109aa57813592610a4e612fdd565b610a56613272565b60ff600654166005811015610be857600103610bda578315610bcc578190338152600e60205220544314610bbf57610ab4610aae610a9261320b565b610aa887610aa2838596956123e7565b9261250b565b90613f84565b906123c4565b9283158015610bb4575b610ba657610ad8610ace85613fb6565b91879391936123c4565b948515610b98576024358610610b985750602095610b7d7feebdf396b2ce33c6bf51df33b76958425b7430bd1c74fbef7b585106affddd1c938793610b1e873033613fed565b610b2a8760075461250b565b600755610b39846009546123c4565b600955610b4882600a5461250b565b600a55610b5781600b5461250b565b600b5542600c55610b688533613835565b60095490600754928951968796339a88612888565b0390a2600160008051602061456c8339815191525551908152f35b8451638199f5f360e01b8152fd5b5051638199f5f360e01b8152fd5b506009548411610abe565b51635aabee0f60e11b8152fd5b5051631f2a200560e01b8152fd5b505163baf3f0f760e01b8152fd5b634e487b7160e01b825260218452602482fd5b50503461054c578160031936011261054c57602090516203f4808152f35b50503461054c578160031936011261054c57602090517f00000000000000000000000000000000000000000000000000000000000000008152f35b50503461054c578160031936011261054c57602090600a549051908152f35b83833461054c57602036600319011261054c57610c8e6122b9565b916013549260ff8460081c16938415610cfb575b506020945083610cdd575b83610cbd575b5050519015158152f35b6001600160a01b03168152601784528190205460ff161591508380610cb3565b6001600160a01b0381168252601585528282205460ff169350610cad565b90935060ff600654166005811015610d5d57602095149081610d32575b81610d26575b509285610ca2565b60ff9150161585610d1e565b7f00000000000000000000000000000000000000000000000000000000000000004210159150610d18565b634e487b7160e01b835260218652602483fd5b50503461054c578160031936011261054c576020905160468152f35b50503461054c578160031936011261054c5751908152602090f35b50503461054c578160031936011261054c578160c09282519281845281602085015283015280606083015280608083015260a0820152f35b50503461054c578160031936011261054c57517f00000000000000000000000000000000000000000000000000000000000000006001600160a01b03168152602090f35b61236a565b83833461054c578160031936011261054c5760ff600654169051916005821015610a1857602083838152f35b50503461054c578160031936011261054c5760209051601e8152f35b50503461054c578160031936011261054c57517f00000000000000000000000000000000000000000000000000000000000000006001600160a01b03168152602090f35b50503461054c578160031936011261054c5760209051600b8152f35b61234e565b50503461054c578160031936011261054c5760209051600c8152f35b612386565b50503461054c578160031936011261054c57602090610f13612846565b9051908152f35b83833461054c57602036600319011261054c57610f356122b9565b9160ff6006541660058110156110575784149283611008575b6020945083610fde575b83610fc0575b83610fa0575b505081610f74575b519015158152f35b600f547f0000000000000000000000000000000000000000000000000000000000000000119150610f6c565b6001600160a01b03168152601584528190205460ff161591508380610f64565b6001600160a01b0381168252601485528282205460ff169350610f5e565b7f000000000000000000000000000000000000000000000000000000000000000042109350610f58565b925062015180420180421161104457602094507f0000000000000000000000000000000000000000000000000000000000000000111592610f4e565b634e487b7160e01b825260118552602482fd5b634e487b7160e01b825260218552602482fd5b50503461054c578160031936011261054c57602090600b549051908152f35b9050346109aa57816003193601126109aa576110a36122b9565b9260ff600654169060058210156110e257506003036110d457506110cd6020926024359033613fed565b5160018152f35b90516377d87fb560e11b8152fd5b634e487b7160e01b815260218352602490fd5b61231c565b50503461054c578160031936011261054c57516714adf4b7320334b9601d1b8152602090f35b50503461054c578160031936011261054c57600654905160089190911c6001600160a01b03168152602090f35b8284346106755780600319360112610675575061116861381a565b9081156111b2576020925061117f82600a5461250b565b600a5580518281527fa1e4c790cc8a017f9b597b92150a8a880324350496397bbb8fd774f571e710df843392a251908152f35b516312d37ee560e31b81529050fd5b50503461054c578160031936011261054c576020905160098152f35b50503461054c578160031936011261054c57602090610f13612825565b50503461054c578160031936011261054c5760209060ff61121961278f565b915191168152f35b50503461054c578160031936011261054c576020905160068152f35b50503461054c57602036600319011261054c5760209160ff9082906001600160a01b036112686122b9565b1681526014855220541690519015158152f35b83833461054c578160031936011261054c5780519180938054916001908360011c9260018516948515611355575b60209586861081146113425785895290811561131e57506001146112e3575b61067187876112d9828c0383612225565b5191829182612248565b9080949750528583205b82841061130b5750505082610671946112d9928201019486806112c8565b80548685018801529286019281016112ed565b60ff19168887015250505050151560051b83010192506112d98261067186806112c8565b634e487b7160e01b845260228352602484fd5b93607f16936112a9565b50503461054c578160031936011261054c576020905160508152f35b50503461054c578160031936011261054c5760209051600a8152f35b50503461054c578160031936011261054c576020906009549051908152f35b50503461054c578160031936011261054c576020906113d3613774565b90519015158152f35b50503461054c578160031936011261054c5751676765c793fa10079d601b1b8152602090f35b50503461054c578160031936011261054c576020906007549051908152f35b50503461054c57602036600319011261054c5760209181906001600160a01b036114496122b9565b168152600e84522054908115918215611466575b50519015158152f35b431191503861145d565b50503461054c57602036600319011261054c579060209161148f6122b9565b9160ff6013541692836114cc575b836114ac575050519015158152f35b6001600160a01b03168152601684528190205460ff161591503880610cb3565b6001600160a01b0381168252601585528282205460ff16935061149d565b50503461054c578160031936011261054c57602090600c549051908152f35b50503461054c578160031936011261054c576020905160038152f35b50503461054c57602036600319011261054c57602090610f136115466122b9565b612774565b612291565b50503461054c578160031936011261054c576020905160648152f35b9050346109aa5760203660031901126109aa5735916001600160a01b038316830361067557506109f26020926115a0612fdd565b613575565b50503461054c578160031936011261054c576020905160058152f35b50503461054c578160031936011261054c5760c0906115de6125e6565b9495909381519660018060a01b03168752602087015260018060701b0380931690860152166060840152608083015260a0820152f35b9050816003193601126109aa576116296122b9565b90611632612fdd565b6001600160a01b03937f0000000000000000000000000000000000000000000000000000000000000000851633036116a65761166c613272565b60ff600654169060058210156110e2575060010361169857506020926109f291602435918116906138b8565b825163baf3f0f760e01b8152fd5b508251635b2fb5b360e11b8152fd5b50503461054c578160031936011261054c57517f00000000000000000000000000000000000000000000000000000000000000006001600160a01b03168152602090f35b9050346109aa5760203660031901126109aa5735916001600160a01b038316830361067557506109f260209261172d612fdd565b61300d565b50503461054c57602036600319011261054c57602090610f136117536122b9565b61256a565b50503461054c578160031936011261054c576020905160078152f35b83833461054c578160031936011261054c5761178e612fdd565b611796613272565b60ff60135460081c1615801561186b575b8015611856575b6118475760209250807f0000000000000000000000000000000000000000000000000000000000000000923381526017855220600160ff198254161790556117f8826011546123c4565b6011556118058233613835565b80518281527feda835ea67193b5de1fbd871950998f0537eec03a9e40592414ba19a24b4325d843392a2600160008051602061456c8339815191525551908152f35b516319e1016760e01b81529050fd5b50338252601760205260ff81832054166117ae565b50338252601560205260ff8183205416156117a7565b50503461054c578160031936011261054c57602090610f1361381a565b50503461054c578160031936011261054c57602090610f136137f3565b50503461054c578160031936011261054c5760209051620151808152f35b83833461054c578160031936011261054c576118f3612fdd565b6118fb613774565b1561197257600b549182156119625760209350600b5561191d82600a5461250b565b600a5580518281527f6a0c33aa8c816cdfa77b389739210eadb9f9a653e441ee697d9a29d61a9884a1843392a2600160008051602061456c8339815191525551908152f35b81516312d37ee560e31b81528490fd5b51638a430e9f60e01b81529050fd5b50503461054c57602036600319011261054c5760209160ff9082906001600160a01b036119ac6122b9565b1681526015855220541690519015158152f35b50503461054c578160031936011261054c576020905161dead8152f35b50503461054c578160031936011261054c576020906119f9612fdd565b6109f27f00000000000000000000000000000000000000000000000000000000000000006001600160a01b031661300d565b82843461067557602036600319011261067557506106636106719235612518565b8334610675578060031936011261067557611a65613272565b80f35b6122e5565b50503461054c578160031936011261054c57602090516a5889e9f3e4c6e14f4000008152f35b50503461054c578160031936011261054c57602090517f00000000000000000000000000000000000000000000000000000000000000008152f35b50503461054c57602036600319011261054c5760209181906001600160a01b03611af66122b9565b168152600e845220549051908152f35b50503461054c578160031936011261054c576020906008549051908152f35b50503461054c578160031936011261054c57602090611b42612fdd565b6109f27f00000000000000000000000000000000000000000000000000000000000000006001600160a01b0316613575565b50503461054c578160031936011261054c57602090517f00000000000000000000000000000000000000000000000000000000000000008152f35b50503461054c578160031936011261054c576020905160128152f35b50503461054c578160031936011261054c576020906010549051908152f35b838060031936011261067557611bfe612fdd565b611c06613272565b6109883361336c565b50503461054c57602036600319011261054c5760209160ff9082906001600160a01b03611c3a6122b9565b1681526016855220541690519015158152f35b50503461054c578160031936011261054c5760209060ff6013541690519015158152f35b50503461054c578160031936011261054c5760209060ff60135460081c1690519015158152f35b9050823461067557606036600319011261067557611cb46122b9565b611cbc6122cf565b916044359360ff600654166005811015611dd15760038103611d9d575b506001600160a01b03831680835260016020908152878420338552905286832054916000198310611d13575b6020886110cd898989613fed565b868310611d7b578115611d64573315611d4d575082526001602090815286832033845281529186902090859003905582906110cd87611d05565b8751634a1406b160e11b8152908101849052602490fd5b875163e602df0560e01b8152908101849052602490fd5b9050611d99868851938493637dc7a0d960e11b85523390850161414a565b0390fd5b60021480611dbf575b15611db15786611cd9565b85516377d87fb560e11b8152fd5b506001600160a01b0383163014611da6565b634e487b7160e01b835260218252602483fd5b50503461054c578160031936011261054c576020905162ed4e008152f35b82843461067557806003193601126106755750611e1d613113565b82519182526020820152f35b50503461054c57602036600319011261054c5760209160ff9082906001600160a01b03611e546122b9565b1681526017855220541690519015158152f35b50503461054c578160031936011261054c576020906002549051908152f35b83833461054c578160031936011261054c57805191828201906001600160401b03821184831017611ed2575092610671938252825263188ccc4d60e21b60208301525191829182612248565b634e487b7160e01b815260418552602490fd5b50503461054c578160031936011261054c576020905160088152f35b9050346109aa57816003193601126109aa57611f1b6122b9565b602435903315611f94576001600160a01b0316918215611f7d57508083602095338152600187528181208582528752205582519081527f8c5be1e5ebec7d5bd14f71427d1e84f3dd0314c0f7b2291e5b200ac8c7c3b925843392a35160018152f35b8351634a1406b160e11b8152908101859052602490fd5b835163e602df0560e01b8152808401869052602490fd5b9050346109aa5760203660031901126109aa578035926001600160a01b039081851685036106755750611fdc612fdd565b7f000000000000000000000000000000000000000000000000000000000000000016330361201057506109f260209261300d565b9051635b2fb5b360e11b8152fd5b50503461054c578160031936011261054c576020906011549051908152f35b919050346109aa57826003193601126109aa5780519183600354906001908260011c9260018116801561210c575b60209586861082146120f957508488529081156120d7575060011461209c575b61067186866112d9828b0383612225565b929550600383528583205b8284106120c45750505082610671946112d992820101943861208b565b80548685018801529286019281016120a7565b60ff191687860152505050151560051b83010192506112d9826106713861208b565b634e487b7160e01b845260229052602483fd5b93607f169361206b565b919050346109aa57826003193601126109aa5780519183600554906001908260011c926001811680156121af575b60209586861082146120f957508488529081156120d757506001146121745761067186866112d9828b0383612225565b929550600583528583205b82841061219c5750505082610671946112d992820101943861208b565b805486850188015292860192810161217f565b93607f1693612144565b84903461054c578160031936011261054c577f00000000000000000000000000000000000000000000000000000000000000006001600160a01b03168152602090f35b6001600160401b03811161220f57604052565b634e487b7160e01b600052604160045260246000fd5b601f909101601f19168101906001600160401b0382119082101761220f57604052565b6020808252825181830181905290939260005b82811061227d57505060409293506000838284010152601f8019910116010190565b81810186015184820160400152850161225b565b346122b45760003660031901126122b45760206122ac61241a565b604051908152f35b600080fd5b600435906001600160a01b03821682036122b457565b602435906001600160a01b03821682036122b457565b346122b45760003660031901126122b45760206122ac612491565b346122b45760003660031901126122b457602060405160028152f35b346122b45760003660031901126122b457602060405160048152f35b6040919493926060820195825260208201520152565b346122b45760003660031901126122b457602060405160038152f35b346122b45760003660031901126122b457602060405160018152f35b346122b45760003660031901126122b457602060405160ff7f0000000000000000000000000000000000000000000000000000000000000000168152f35b919082039182116123d157565b634e487b7160e01b600052601160045260246000fd5b818102929181159184041417156123d157565b8115612404570490565b634e487b7160e01b600052601260045260246000fd5b60ff60065416600581101561247b5760031461247557600954612710908181029181830414901517156123d157612472907f0000000000000000000000000000000000000000000000000000000000000000906123fa565b90565b61271090565b634e487b7160e01b600052602160045260246000fd5b60ff60065416600581101561247b576003146124d2576124af61320b565b670de0b6b3a7640000918281029281840414901517156123d157612472916123fa565b6124da613113565b90801561250457670de0b6b3a7640000918281029281840414901517156123d157612472916123fa565b5050600090565b919082018092116123d157565b60ff60065416600581101561247b5760010361255e57801561255e57612558916124726125526125478461361c565b919792939097613716565b9661250b565b936123c4565b50600090600090600090565b6001600160a01b03166000908152600e6020526040902054801561259657600181018091116123d15790565b50600090565b51906001600160701b03821682036122b457565b908160609103126122b4576125c48161259c565b9160406125d36020840161259c565b92015163ffffffff811681036122b45790565b60065460081c6001600160a01b0390811691821561276357818316916040928351926318160ddd60e01b84526020938481600481865afa9081156127585760009161272b575b5094805193630240bc6b60e21b8552606085600481875afa8015612720576000956000916126ea575b50949584600052600081528083600020549560248551809581936370a0823160e01b835260048301527f0000000000000000000000000000000000000000000000000000000000000000165afa9283156126e057506000926126b657505090565b90809250813d83116126d9575b6126cd8183612225565b810103126122b4575190565b503d6126c3565b513d6000823e3d90fd5b905061270f91955060603d606011612719575b6127078183612225565b8101906125b0565b5094909438612655565b503d6126fd565b82513d6000823e3d90fd5b90508481813d8311612751575b6127428183612225565b810103126122b457513861262c565b503d612738565b86513d6000823e3d90fd5b600092508291508190819081908190565b6001600160a01b031660009081526020819052604090205490565b60135460ff811661281f5760ff60065416600581101561247b576004146127d35760081c60ff1680156127cb575b6127c657600290565b600490565b5060016127bd565b506201518042018042116123d1577f000000000000000000000000000000000000000000000000000000000000000080911061281957421061281457600490565b600290565b50600190565b50600390565b60ff60065416600581101561247b5760030361284157600b5490565b600090565b60ff60065416600581101561247b57600103612841576124726009547f00000000000000000000000000000000000000000000000000000000000000006123c4565b93909796959260c0959260e08601998652602086015260408501526060840152608083015260a08201520152565b60ff60065416600581101561247b5760010361255e57801561255e576128f190610aae610aa86128e461320b565b919093610aa283866123e7565b906128fb82613fb6565b505061290781846123c4565b91565b612912613272565b60069060ff82541691600583101561247b576004809314612fcf57805460ff81166005811015612fba576001146129545760405163baf3f0f760e01b81528490fd5b3315908115612fb0575b8115612f97575b50612f86573415612f75576129793461361c565b9391909280158015612f6d575b612f5c5760095494612998838761250b565b927f000000000000000000000000000000000000000000000000000000000000000092836129c583613716565b9514612f52575b84158015612f47575b612f36576129e58260009961250b565b6009556129f487600a5461250b565b600a55612a0383600b5461250b565b600b5542600c55612a16856007546123c4565b600755612a24853330613fed565b338852602094600e865260409343858b2055612a4083346123c4565b9081612f27575b6009549960075495875195865289860152868501526060840152608083015260a08201528660c08201528160e082015260008051602061454c8339815191526101003392a282861090811591612f1e575b50612aa8575b5050505050509050565b835460ff8116956005871015612f0b5760018703612efb578303612eeb57600260ff198092161793848655825196600260008051602061450c83398151915291828b80a36001600160a01b0397600896871c891615612edd5750612b0a614434565b865484516318160ddd60e01b815290871c8916939083818e81885afa908115612ea2578b91612eac575b50612de957612b4284612774565b612de9578451630240bc6b60e21b81526060818e81885afa908115612ea2578b908c92612e7f575b508d8588518092630dfe168160e01b8252818a5afa908115612ddf57908f918e91612e62575b50868951809363d21220a760e01b8252818b5afa918215612e56578e92612e27575b508c163003612e0957506001600160701b0391908216612df95716955b8611612de957865491612bef83612be8896009546123c4565b9630613fed565b84612ce8575b8a9b9c848b8b9c9d9a9b548c1c1660248951809c81936335313c2160e11b835261dead878401525af1988915612cde578d99612caf575b508c8a55612c3c88600a5461250b565b600a558c60095560038b549360ff8516941617809b556005831015612c9c575091600386949260008051602061452c8339815191529c9a98969460809c9a98519e80a38b528a015288015260608701521c1692a280388080808080612a9e565b634e487b7160e01b8d526021905260248cfd5b9098508481813d8311612cd7575b612cc78183612225565b810103126122b457519738612c2c565b503d612cbd565b87513d8f823e3d90fd5b897f000000000000000000000000000000000000000000000000000000000000000016803b15612db1578d8c88518092630d0e30db60e41b8252818a865af18015612ddf57908f91612dc6575b508c604487928e8d8f54901c16928b51958694859363a9059cbb60e01b85528401528b60248401525af1908115612dbc578c91612d82575b50612bf55785516314da028560e11b81528d90fd5b90508481813d8311612db5575b612d998183612225565b81010312612db157518015158103612db15738612d6d565b8b80fd5b503d612d8f565b87513d8e823e3d90fd5b8b87928e9f612dd58e946121fc565b9f50925050612d35565b88513d8f823e3d90fd5b8451633c1413fb60e01b81528c90fd5b8651633c1413fb60e01b81528e90fd5b8b163003612df9576001600160701b03918216612df9571695612bcf565b612e48919250873d8911612e4f575b612e408183612225565b8101906130f4565b9038612bb2565b503d612e36565b8e8a51903d90823e3d90fd5b612e799150873d8911612e4f57612e408183612225565b38612b90565b9050612e9a915060603d606011612719576127078183612225565b509038612b6a565b86513d8d823e3d90fd5b90508381813d8311612ed6575b612ec38183612225565b81010312612ed2575138612b34565b8a80fd5b503d612eb9565b633c1413fb60e01b81528b90fd5b8151638199f5f360e01b81528990fd5b825163baf3f0f760e01b81528a90fd5b634e487b7160e01b885260218a52602488fd5b90501538612a98565b612f318233613835565b612a47565b604051638199f5f360e01b81528a90fd5b5060075485116129d5565b60075494506129cc565b604051631f2a200560e01b81528790fd5b508115612986565b604051631f2a200560e01b81528390fd5b604051634e46966960e11b81528390fd5b3360089190911c6001600160a01b031614905038612965565b333014915061295e565b602185634e487b7160e01b6000525260246000fd5b509050612fdb3361336c565b565b60008051602061456c8339815191526002815414612ffb5760029055565b604051633ee5aeb560e01b8152600490fd5b906001600160a01b03337f000000000000000000000000000000000000000000000000000000000000000082161415806130c8575b6130b757821680156130a557600a549283156130935783613067916000600a55613835565b7f0f58cb6262d88971b87878468debb7bc81f1714be597710e16a9fb84c66ff7b56020604051858152a2565b6040516312d37ee560e31b8152600490fd5b60405163d92e233d60e01b8152600490fd5b6040516282b42960e81b8152600490fd5b50807f000000000000000000000000000000000000000000000000000000000000000016331415613042565b908160209103126122b457516001600160a01b03811681036122b45790565b60065460081c6001600160a01b039081169190821561320257604051630240bc6b60e21b815290606082600481875afa9384156131c7576000926000956131d3575b5090602060049260405193848092630dfe168160e01b82525afa9182156131c7576000926131a6575b50163003613196576001600160701b03908116921690565b6001600160701b03928316921690565b6131c091925060203d602011612e4f57612e408183612225565b903861317e565b6040513d6000823e3d90fd5b600492919550602093506131f59060603d606011612719576127078183612225565b5093909395919250613155565b50600091508190565b6132386009547f00000000000000000000000000000000000000000000000000000000000000009061250b565b9061247261324b6007546008549061250b565b7f00000000000000000000000000000000000000000000000000000000000000009061250b565b60065460ff811690600582101561247b576004821480613342575b80613335575b61329b575050565b601054917f000000000000000000000000000000000000000000000000000000000000000083106132d157505050612fdb614168565b7fd06618f00e4db5bc4d25734a5aefd22c95ef99b512f746c01022645e501b62a092600160409361010061ff0019601354161760135560ff191617600655600183519260008051602061450c833981519152600080a3600f549082526020820152a1565b5060ff6013541615613293565b507f000000000000000000000000000000000000000000000000000000000000000042101561328d565b9060ff6006541691600583101561247b57600480930361353e57620151804201804211613560577f000000000000000000000000000000000000000000000000000000000000000080911061354f5742101561353e576001600160a01b03166000818152601460205260408082205490919060ff161561352e577f0000000000000000000000000000000000000000000000000000000000000000340361351e57828152601560205260ff828220541661350e57600f547f000000000000000000000000000000000000000000000000000000000000000011156134fe578281526015602052818120600160ff19825416179055600f54906001820180921161091457506134cb93945090817f2937d4b8ffdeea00fe58bc57f57d3010576fc9b39a784691fcc8054e15c60a4392600f556134a93460105461250b565b948592836010556134bc3460115461250b565b60115551928392349084612338565b0390a27f0000000000000000000000000000000000000000000000000000000000000000146134f657565b612fdb614168565b8151635c766e7560e01b81528590fd5b815163887daea160e01b81528590fd5b8151636ece8a1b60e01b81528590fd5b815163033bb9db60e21b81528590fd5b6040516302664e7160e11b81528390fd5b6040516302664e7160e11b81528490fd5b601184634e487b7160e01b6000525260246000fd5b906001600160a01b037f0000000000000000000000000000000000000000000000000000000000000000811633036130b75760ff60065416600581101561247b5760030361360a57821680156130a557600b5492831561309357836135de916000600b55613835565b7fd046302bdc39599e60a5981e59227dcd1c643f512f56f2e984390c3ac6eadedb6020604051858152a2565b60405163baf3f0f760e01b8152600490fd5b906136496009547f00000000000000000000000000000000000000000000000000000000000000006123c4565b9182156137045761366461365c82613fb6565b5050826123c4565b92808411613680575091905b61367983613fb6565b9091509091565b92505061369f61368f83614361565b6126ac612710850915159061250b565b91825b6136c2575b506136bc6136b483613fb6565b5050836123c4565b90613670565b91826136d06136b483613fb6565b11156136fe5760001981019081116136e95791826136a2565b60246000634e487b7160e01b81526011600452fd5b916136a7565b60405163c83ba27d60e01b8152600490fd5b6137228160095461250b565b7f00000000000000000000000000000000000000000000000000000000000000001461376d57613767610aae6124729261375a61320b565b939091610aa285846123e7565b906123fa565b5060075490565b60ff60065416600581101561247b57600114806137e8575b806137b1575b8061379a5790565b50600c5462278d0081018091116123d15742101590565b507f000000000000000000000000000000000000000000000000000000000000000062ed4e0081018091116123d157421015613792565b50600b54151561378c565b612472613811613808600954600a549061250b565b600b549061250b565b6011549061250b565b6138226137f3565b47908082111561250457612472916123c4565b81471061389957604051602081016001600160401b0381118282101761220f57604052600080809481948280955260018060a01b03165af1156138755750565b3d1561388757604051903d90823e3d90fd5b60405163d6bda27560e01b8152600490fd5b60405163cf47918160e01b815247600482015260248101839052604490fd5b6001600160a01b038116939260009285158015613f7b575b8015613f64575b613f52573415613f38576138ea3461361c565b9892809692949196158015613f4a575b613f38576009549161390c868461250b565b9a7f0000000000000000000000000000000000000000000000000000000000000000978861393989613716565b9d14613f2e575b8c158015613f23575b613ee4578c10613ee4576139ae8c60008051602061454c833981519152966139748a6101009861250b565b6009556139838c600a5461250b565b600a5561399284600b5461250b565b600b5542600c556139a5826007546123c4565b60075530613fed565b858a52600e6020524360408b20556139c683346123c4565b918280613f13575b5050600954986007549760405194855260208501526040840152606083015260808201528960a08201528660c08201528460e0820152a281831090811591613f0a575b50613a1b57505050565b600690815460ff8116936005851015613ef6576001850361360a578203613ee45760029060ff1916179283835560026040519160008051602061450c8339815191528780a3600893841c6001600160a01b031615613ed55750613a7c614434565b81546040516318160ddd60e01b815290841c6001600160a01b03169190602081600481865afa908115613e98578691613ea3575b50613de857613abe82612774565b613de857604051630240bc6b60e21b8152606081600481865afa908115613e985786908792613e75575b50604051630dfe168160e01b8152602081600481885afa908115613e6a578891613e4b575b5060405163d21220a760e01b815290602082600481895afa918215613e40578992613e1f575b506001600160a01b03163003613dfa57506001600160701b0391908216613de85716905b8111613de85784918454613b7881613b71856009546123c4565b9330613fed565b81613c8f575b84546040516335313c2160e11b815261dead60048201529460209186916024918391908b1c6001600160a01b03165af1938415613c84578794613c50575b50868655613bcc83600a5461250b565b600a55866009558454600360ff82169160ff1916178096556005811015613c3c57916080959391600360008051602061452c83398151915298969460008051602061450c8339815191526040519b80a38852602088015260408701526060860152901c6001600160a01b031692a2565b634e487b7160e01b88526021600452602488fd5b9093506020813d602011613c7c575b81613c6c60209383612225565b810103126122b457519238613bbc565b3d9150613c5f565b6040513d89823e3d90fd5b92507f00000000000000000000000000000000000000000000000000000000000000006001600160a01b03163b15613de457604051630d0e30db60e41b81528681600481857f00000000000000000000000000000000000000000000000000000000000000006001600160a01b03165af18015613c8457613dd1575b50835460405163a9059cbb60e01b815290861c6001600160a01b03908116600483015260248201839052602090829060449082908b907f0000000000000000000000000000000000000000000000000000000000000000165af1908115613c84578791613d92575b5015613d80578592613b7e565b6040516314da028560e11b8152600490fd5b90506020813d602011613dc9575b81613dad60209383612225565b81010312613dc557518015158103613dc55738613d73565b8680fd5b3d9150613da0565b613ddd909691966121fc565b9438613d0b565b8580fd5b604051633c1413fb60e01b8152600490fd5b6001600160a01b03163003613de8576001600160701b03918216613de8571690613b57565b613e3991925060203d602011612e4f57612e408183612225565b9038613b33565b6040513d8b823e3d90fd5b613e64915060203d602011612e4f57612e408183612225565b38613b0d565b6040513d8a823e3d90fd5b9050613e90915060603d606011612719576127078183612225565b509038613ae8565b6040513d88823e3d90fd5b90506020813d602011613ecd575b81613ebe60209383612225565b81010312613de4575138613ab0565b3d9150613eb1565b633c1413fb60e01b8152600490fd5b604051638199f5f360e01b8152600490fd5b634e487b7160e01b86526021600452602486fd5b90501538613a11565b613f1c91613835565b38826139ce565b506007548d11613949565b6007549c50613940565b604051631f2a200560e01b8152600490fd5b5084156138fa565b604051634e46966960e11b8152600490fd5b5060065460081c6001600160a01b031686146138d7565b503086146138d0565b908015613fa357613f9b60019160001984016123fa565b019015150290565b634e487b7160005260126020526024601cfd5b801561255e57806127106064613fce613fd8946143cb565b920915159061250b565b90613fe2826142e6565b9061247282846123c4565b916001600160a01b0380841692831561413157169283156141185760ff6006541660058110158061247b5760018214801561410b575b156140d157505030831480156140c8575b156140b6575b60009083825281602052604082205490838210614099575091604082827fddf252ad1be2c89b69c2b068fc378daa952ba7f163c4a11628f55a4df523b3ef958760209652828652038282205586815220818154019055604051908152a3565b611d998460405193849363391434e360e21b85526004850161414a565b6040516377d87fb560e11b8152600490fd5b50308414614034565b61247b57600281036140eb575030830361360a575b61403a565b60030361403a573084036140e657604051634e46966960e11b8152600490fd5b5050600060048214614023565b60405163ec442f0560e01b815260006004820152602490fd5b604051634b637e8f60e11b815260006004820152602490fd5b604091949392606082019560018060a01b0316825260208201520152565b60135460ff811661360a57601054907f0000000000000000000000000000000000000000000000000000000000000000820361360a576141b6906141ab83613fb6565b9491829491946123c4565b908115613ee4576141c682613716565b6141fb6141f47f000000000000000000000000000000000000000000000000000000000000000080936123fa565b91826123e7565b91811580156142de575b80156142d3575b613ee457600160ff19809616176013558160125582600d5560006011556142358460095461250b565b60095561424486600a5461250b565b600a5561425387600b5461250b565b600b55614262836007546123c4565b60075542600c5560016006549560ff8716961617600655600585101561247b577f8020fdb0592775b626a997485c415e05a790703d920667e59222a260f0c3903a966001966142ce9560405198899860008051602061450c833981519152600080a3600f549388612888565b0390a1565b50600754831161420c565b508215614205565b600019601e8209601e820290818082109103908082039114614358578060641115614345576064601e7f5c28f5c28f5c28f5c28f5c28f5c28f5c28f5c28f5c28f5c28f5c28f5c28f5c29940990828211900360fe1b910360021c170290565b634e487b7160005260116020526024601cfd5b50606491500490565b612710600019818309818302918280831092039180830392146143c0576126ac9082821115614345577fa902ffe58553adaa902ffe58553adaa902ffe58553adaa902ffe58553adaa903940990828211900360fe1b910360021c170290565b50506126ac91500490565b60001960648209606482029081808210910390808203911461442a57612710818111156143455760647fbc01a36e2eb1c432ca57a786c226809d495182a9930be0ded288ce703afb7e91940990828211900360fc1b910360041c170290565b5061271091500490565b60065460081c6001600160a01b039081169081156144d5576040516318160ddd60e01b8152602081600481865afa9081156131c7576000916144d9575b506144d557813b156122b45760009160248392604051948593849263bc25cf7760e01b84527f00000000000000000000000000000000000000000000000000000000000000001660048401525af180156131c7576144cc5750565b612fdb906121fc565b5050565b90506020813d602011614503575b816144f460209383612225565b810103126122b4575138614471565b3d91506144e756fe3a779de46631dd65116ae538600f1bc3c338200c6aef638429b5de43301c28f771aa8c3702dbbc54247a4e6446450e64a46250dd72707a247ddb01d72eaef4456ff5f8cb3bbdee941e910591101be7dcb3bd64213bbc4ac9e994c9d7b0ef74cd9b779b17422d0df92223018b32b4d1fa46e071723d6817e2486d003becc55f00a2646970667358221220e8aa03e2d326af04113a2d3fa01e1fbe422b7e1dfb7d11301b9cdcc705db148f64736f6c63430008180033",
  "linkReferences": {},
  "deployedLinkReferences": {}
}