{
  "_format": "hh-sol-artifact-1",
  "contractName": "LaunchToken",
  "sourceName": "contracts/LaunchToken.sol",
  "abi": [
    {
      "inputs": [
        {
          "components": [
            {
              "internalType": "string",
              "name": "name",
              "type": "string"
            },
            {
              "internalType": "string",
              "name": "symbol",
              "type": "string"
            },
            {
              "internalType": "string",
              "name": "metadataURI",
              "type": "string"
            },
            {
              "internalType": "address",
              "name": "creator",
              "type": "address"
            },
            {
              "internalType": "address",
              "name": "factory",
              "type": "address"
            },
            {
              "internalType": "address",
              "name": "protocolFeeRecipient",
              "type": "address"
            },
            {
              "internalType": "address",
              "name": "router",
              "type": "address"
            },
            {
              "internalType": "uint256",
              "name": "graduationQuoteReserve",
              "type": "uint256"
            },
            {
              "internalType": "uint8",
              "name": "launchModeId",
              "type": "uint8"
            }
          ],
          "internalType": "struct LaunchToken.ConstructorArgs",
          "name": "args",
          "type": "tuple"
        }
      ],
      "stateMutability": "nonpayable",
      "type": "constructor"
    },
    {
      "inputs": [],
      "name": "CreatorFeeSweepUnavailable",
      "type": "error"
    },
    {
      "inputs": [
        {
          "internalType": "address",
          "name": "spender",
          "type": "address"
        },
        {
          "internalType": "uint256",
          "name": "allowance",
          "type": "uint256"
        },
        {
          "internalType": "uint256",
          "name": "needed",
          "type": "uint256"
        }
      ],
      "name": "ERC20InsufficientAllowance",
      "type": "error"
    },
    {
      "inputs": [
        {
          "internalType": "address",
          "name": "sender",
          "type": "address"
        },
        {
          "internalType": "uint256",
          "name": "balance",
          "type": "uint256"
        },
        {
          "internalType": "uint256",
          "name": "needed",
          "type": "uint256"
        }
      ],
      "name": "ERC20InsufficientBalance",
      "type": "error"
    },
    {
      "inputs": [
        {
          "internalType": "address",
          "name": "approver",
          "type": "address"
        }
      ],
      "name": "ERC20InvalidApprover",
      "type": "error"
    },
    {
      "inputs": [
        {
          "internalType": "address",
          "name": "receiver",
          "type": "address"
        }
      ],
      "name": "ERC20InvalidReceiver",
      "type": "error"
    },
    {
      "inputs": [
        {
          "internalType": "address",
          "name": "sender",
          "type": "address"
        }
      ],
      "name": "ERC20InvalidSender",
      "type": "error"
    },
    {
      "inputs": [
        {
          "internalType": "address",
          "name": "spender",
          "type": "address"
        }
      ],
      "name": "ERC20InvalidSpender",
      "type": "error"
    },
    {
      "inputs": [],
      "name": "FailedCall",
      "type": "error"
    },
    {
      "inputs": [],
      "name": "GraduationAlreadyTriggered",
      "type": "error"
    },
    {
      "inputs": [
        {
          "internalType": "uint256",
          "name": "balance",
          "type": "uint256"
        },
        {
          "internalType": "uint256",
          "name": "needed",
          "type": "uint256"
        }
      ],
      "name": "InsufficientBalance",
      "type": "error"
    },
    {
      "inputs": [],
      "name": "InvalidGraduationConfig",
      "type": "error"
    },
    {
      "inputs": [],
      "name": "InvalidRecipient",
      "type": "error"
    },
    {
      "inputs": [],
      "name": "InvalidState",
      "type": "error"
    },
    {
      "inputs": [],
      "name": "NothingToClaim",
      "type": "error"
    },
    {
      "inputs": [],
      "name": "PairPolluted",
      "type": "error"
    },
    {
      "inputs": [],
      "name": "ReentrancyGuardReentrantCall",
      "type": "error"
    },
    {
      "inputs": [],
      "name": "SellCooldownActive",
      "type": "error"
    },
    {
      "inputs": [],
      "name": "SlippageExceeded",
      "type": "error"
    },
    {
      "inputs": [],
      "name": "TransferDisabledPreGraduation",
      "type": "error"
    },
    {
      "inputs": [],
      "name": "Unauthorized",
      "type": "error"
    },
    {
      "inputs": [],
      "name": "UnauthorizedFactoryCaller",
      "type": "error"
    },
    {
      "inputs": [],
      "name": "UnauthorizedFactoryDeployment",
      "type": "error"
    },
    {
      "inputs": [],
      "name": "WrappedQuoteTransferFailed",
      "type": "error"
    },
    {
      "inputs": [],
      "name": "ZeroAddress",
      "type": "error"
    },
    {
      "inputs": [],
      "name": "ZeroAmount",
      "type": "error"
    },
    {
      "anonymous": false,
      "inputs": [
        {
          "indexed": true,
          "internalType": "address",
          "name": "owner",
          "type": "address"
        },
        {
          "indexed": true,
          "internalType": "address",
          "name": "spender",
          "type": "address"
        },
        {
          "indexed": false,
          "internalType": "uint256",
          "name": "value",
          "type": "uint256"
        }
      ],
      "name": "Approval",
      "type": "event"
    },
    {
      "anonymous": false,
      "inputs": [
        {
          "indexed": true,
          "internalType": "address",
          "name": "buyer",
          "type": "address"
        },
        {
          "indexed": false,
          "internalType": "uint256",
          "name": "grossQuoteIn",
          "type": "uint256"
        },
        {
          "indexed": false,
          "internalType": "uint256",
          "name": "netQuoteIn",
          "type": "uint256"
        },
        {
          "indexed": false,
          "internalType": "uint256",
          "name": "protocolFee",
          "type": "uint256"
        },
        {
          "indexed": false,
          "internalType": "uint256",
          "name": "creatorFee",
          "type": "uint256"
        },
        {
          "indexed": false,
          "internalType": "uint256",
          "name": "refundAmount",
          "type": "uint256"
        },
        {
          "indexed": false,
          "internalType": "uint256",
          "name": "tokenOut",
          "type": "uint256"
        },
        {
          "indexed": false,
          "internalType": "uint256",
          "name": "newCurveQuoteReserve",
          "type": "uint256"
        },
        {
          "indexed": false,
          "internalType": "uint256",
          "name": "newSaleTokenReserve",
          "type": "uint256"
        }
      ],
      "name": "BuyExecuted",
      "type": "event"
    },
    {
      "anonymous": false,
      "inputs": [
        {
          "indexed": true,
          "internalType": "address",
          "name": "recipient",
          "type": "address"
        },
        {
          "indexed": false,
          "internalType": "uint256",
          "name": "amount",
          "type": "uint256"
        }
      ],
      "name": "CreatorFeesClaimed",
      "type": "event"
    },
    {
      "anonymous": false,
      "inputs": [
        {
          "indexed": true,
          "internalType": "address",
          "name": "caller",
          "type": "address"
        },
        {
          "indexed": false,
          "internalType": "uint256",
          "name": "amount",
          "type": "uint256"
        }
      ],
      "name": "CreatorFeesSwept",
      "type": "event"
    },
    {
      "anonymous": false,
      "inputs": [
        {
          "indexed": true,
          "internalType": "address",
          "name": "pair",
          "type": "address"
        },
        {
          "indexed": false,
          "internalType": "uint256",
          "name": "tokenAmount",
          "type": "uint256"
        },
        {
          "indexed": false,
          "internalType": "uint256",
          "name": "quoteAmountContributed",
          "type": "uint256"
        },
        {
          "indexed": false,
          "internalType": "uint256",
          "name": "preloadedQuoteAmount",
          "type": "uint256"
        },
        {
          "indexed": false,
          "internalType": "uint256",
          "name": "liquidityBurned",
          "type": "uint256"
        }
      ],
      "name": "Graduated",
      "type": "event"
    },
    {
      "anonymous": false,
      "inputs": [
        {
          "indexed": true,
          "internalType": "address",
          "name": "recipient",
          "type": "address"
        },
        {
          "indexed": false,
          "internalType": "uint256",
          "name": "amount",
          "type": "uint256"
        }
      ],
      "name": "ProtocolFeesClaimed",
      "type": "event"
    },
    {
      "anonymous": false,
      "inputs": [
        {
          "indexed": true,
          "internalType": "address",
          "name": "seller",
          "type": "address"
        },
        {
          "indexed": false,
          "internalType": "uint256",
          "name": "tokenIn",
          "type": "uint256"
        },
        {
          "indexed": false,
          "internalType": "uint256",
          "name": "grossQuoteOut",
          "type": "uint256"
        },
        {
          "indexed": false,
          "internalType": "uint256",
          "name": "netQuoteOut",
          "type": "uint256"
        },
        {
          "indexed": false,
          "internalType": "uint256",
          "name": "protocolFee",
          "type": "uint256"
        },
        {
          "indexed": false,
          "internalType": "uint256",
          "name": "creatorFee",
          "type": "uint256"
        },
        {
          "indexed": false,
          "internalType": "uint256",
          "name": "newCurveQuoteReserve",
          "type": "uint256"
        },
        {
          "indexed": false,
          "internalType": "uint256",
          "name": "newSaleTokenReserve",
          "type": "uint256"
        }
      ],
      "name": "SellExecuted",
      "type": "event"
    },
    {
      "anonymous": false,
      "inputs": [
        {
          "indexed": true,
          "internalType": "enum LaunchTokenBase.LaunchState",
          "name": "previousState",
          "type": "uint8"
        },
        {
          "indexed": true,
          "internalType": "enum LaunchTokenBase.LaunchState",
          "name": "newState",
          "type": "uint8"
        }
      ],
      "name": "StateTransition",
      "type": "event"
    },
    {
      "anonymous": false,
      "inputs": [
        {
          "indexed": true,
          "internalType": "address",
          "name": "from",
          "type": "address"
        },
        {
          "indexed": true,
          "internalType": "address",
          "name": "to",
          "type": "address"
        },
        {
          "indexed": false,
          "internalType": "uint256",
          "name": "value",
          "type": "uint256"
        }
      ],
      "name": "Transfer",
      "type": "event"
    },
    {
      "anonymous": false,
      "inputs": [
        {
          "indexed": true,
          "internalType": "address",
          "name": "caller",
          "type": "address"
        },
        {
          "indexed": false,
          "internalType": "uint256",
          "name": "amount",
          "type": "uint256"
        }
      ],
      "name": "UnexpectedNativeReconciled",
      "type": "event"
    },
    {
      "inputs": [],
      "name": "BPS_DENOMINATOR",
      "outputs": [
        {
          "internalType": "uint256",
          "name": "",
          "type": "uint256"
        }
      ],
      "stateMutability": "view",
      "type": "function"
    },
    {
      "inputs": [],
      "name": "CREATOR_FEE_BPS",
      "outputs": [
        {
          "internalType": "uint256",
          "name": "",
          "type": "uint256"
        }
      ],
      "stateMutability": "view",
      "type": "function"
    },
    {
      "inputs": [],
      "name": "CREATOR_FEE_SWEEP_MIN_AGE",
      "outputs": [
        {
          "internalType": "uint256",
          "name": "",
          "type": "uint256"
        }
      ],
      "stateMutability": "view",
      "type": "function"
    },
    {
      "inputs": [],
      "name": "CREATOR_FEE_SWEEP_MIN_INACTIVITY",
      "outputs": [
        {
          "internalType": "uint256",
          "name": "",
          "type": "uint256"
        }
      ],
      "stateMutability": "view",
      "type": "function"
    },
    {
      "inputs": [],
      "name": "CURVE_VIRTUAL_TOKEN_RESERVE",
      "outputs": [
        {
          "internalType": "uint256",
          "name": "",
          "type": "uint256"
        }
      ],
      "stateMutability": "view",
      "type": "function"
    },
    {
      "inputs": [],
      "name": "DEAD_ADDRESS",
      "outputs": [
        {
          "internalType": "address",
          "name": "",
          "type": "address"
        }
      ],
      "stateMutability": "view",
      "type": "function"
    },
    {
      "inputs": [],
      "name": "LP_TOKEN_RESERVE",
      "outputs": [
        {
          "internalType": "uint256",
          "name": "",
          "type": "uint256"
        }
      ],
      "stateMutability": "view",
      "type": "function"
    },
    {
      "inputs": [],
      "name": "MODE_STANDARD_0314",
      "outputs": [
        {
          "internalType": "uint8",
          "name": "",
          "type": "uint8"
        }
      ],
      "stateMutability": "view",
      "type": "function"
    },
    {
      "inputs": [],
      "name": "MODE_TAXED_1314",
      "outputs": [
        {
          "internalType": "uint8",
          "name": "",
          "type": "uint8"
        }
      ],
      "stateMutability": "view",
      "type": "function"
    },
    {
      "inputs": [],
      "name": "MODE_TAXED_2314",
      "outputs": [
        {
          "internalType": "uint8",
          "name": "",
          "type": "uint8"
        }
      ],
      "stateMutability": "view",
      "type": "function"
    },
    {
      "inputs": [],
      "name": "MODE_TAXED_3314",
      "outputs": [
        {
          "internalType": "uint8",
          "name": "",
          "type": "uint8"
        }
      ],
      "stateMutability": "view",
      "type": "function"
    },
    {
      "inputs": [],
      "name": "MODE_TAXED_4314",
      "outputs": [
        {
          "internalType": "uint8",
          "name": "",
          "type": "uint8"
        }
      ],
      "stateMutability": "view",
      "type": "function"
    },
    {
      "inputs": [],
      "name": "MODE_TAXED_5314",
      "outputs": [
        {
          "internalType": "uint8",
          "name": "",
          "type": "uint8"
        }
      ],
      "stateMutability": "view",
      "type": "function"
    },
    {
      "inputs": [],
      "name": "MODE_TAXED_6314",
      "outputs": [
        {
          "internalType": "uint8",
          "name": "",
          "type": "uint8"
        }
      ],
      "stateMutability": "view",
      "type": "function"
    },
    {
      "inputs": [],
      "name": "MODE_TAXED_7314",
      "outputs": [
        {
          "internalType": "uint8",
          "name": "",
          "type": "uint8"
        }
      ],
      "stateMutability": "view",
      "type": "function"
    },
    {
      "inputs": [],
      "name": "MODE_TAXED_8314",
      "outputs": [
        {
          "internalType": "uint8",
          "name": "",
          "type": "uint8"
        }
      ],
      "stateMutability": "view",
      "type": "function"
    },
    {
      "inputs": [],
      "name": "MODE_TAXED_9314",
      "outputs": [
        {
          "internalType": "uint8",
          "name": "",
          "type": "uint8"
        }
      ],
      "stateMutability": "view",
      "type": "function"
    },
    {
      "inputs": [],
      "name": "MODE_WHITELIST_B314",
      "outputs": [
        {
          "internalType": "uint8",
          "name": "",
          "type": "uint8"
        }
      ],
      "stateMutability": "view",
      "type": "function"
    },
    {
      "inputs": [],
      "name": "MODE_WHITELIST_TAX_F314",
      "outputs": [
        {
          "internalType": "uint8",
          "name": "",
          "type": "uint8"
        }
      ],
      "stateMutability": "view",
      "type": "function"
    },
    {
      "inputs": [],
      "name": "PROTOCOL_FEE_BPS",
      "outputs": [
        {
          "internalType": "uint256",
          "name": "",
          "type": "uint256"
        }
      ],
      "stateMutability": "view",
      "type": "function"
    },
    {
      "inputs": [],
      "name": "SALE_TOKEN_RESERVE",
      "outputs": [
        {
          "internalType": "uint256",
          "name": "",
          "type": "uint256"
        }
      ],
      "stateMutability": "view",
      "type": "function"
    },
    {
      "inputs": [],
      "name": "TOTAL_FEE_BPS",
      "outputs": [
        {
          "internalType": "uint256",
          "name": "",
          "type": "uint256"
        }
      ],
      "stateMutability": "view",
      "type": "function"
    },
    {
      "inputs": [],
      "name": "TOTAL_SUPPLY",
      "outputs": [
        {
          "internalType": "uint256",
          "name": "",
          "type": "uint256"
        }
      ],
      "stateMutability": "view",
      "type": "function"
    },
    {
      "inputs": [],
      "name": "WHITELIST_STATUS_ACTIVE",
      "outputs": [
        {
          "internalType": "uint8",
          "name": "",
          "type": "uint8"
        }
      ],
      "stateMutability": "view",
      "type": "function"
    },
    {
      "inputs": [],
      "name": "WHITELIST_STATUS_EXPIRED",
      "outputs": [
        {
          "internalType": "uint8",
          "name": "",
          "type": "uint8"
        }
      ],
      "stateMutability": "view",
      "type": "function"
    },
    {
      "inputs": [],
      "name": "WHITELIST_STATUS_FINALIZED",
      "outputs": [
        {
          "internalType": "uint8",
          "name": "",
          "type": "uint8"
        }
      ],
      "stateMutability": "view",
      "type": "function"
    },
    {
      "inputs": [],
      "name": "WHITELIST_STATUS_NONE",
      "outputs": [
        {
          "internalType": "uint8",
          "name": "",
          "type": "uint8"
        }
      ],
      "stateMutability": "view",
      "type": "function"
    },
    {
      "inputs": [],
      "name": "WHITELIST_STATUS_SCHEDULED",
      "outputs": [
        {
          "internalType": "uint8",
          "name": "",
          "type": "uint8"
        }
      ],
      "stateMutability": "view",
      "type": "function"
    },
    {
      "inputs": [],
      "name": "accountedNativeBalance",
      "outputs": [
        {
          "internalType": "uint256",
          "name": "",
          "type": "uint256"
        }
      ],
      "stateMutability": "view",
      "type": "function"
    },
    {
      "inputs": [
        {
          "internalType": "address",
          "name": "owner",
          "type": "address"
        },
        {
          "internalType": "address",
          "name": "spender",
          "type": "address"
        }
      ],
      "name": "allowance",
      "outputs": [
        {
          "internalType": "uint256",
          "name": "",
          "type": "uint256"
        }
      ],
      "stateMutability": "view",
      "type": "function"
    },
    {
      "inputs": [
        {
          "internalType": "address",
          "name": "spender",
          "type": "address"
        },
        {
          "internalType": "uint256",
          "name": "value",
          "type": "uint256"
        }
      ],
      "name": "approve",
      "outputs": [
        {
          "internalType": "bool",
          "name": "",
          "type": "bool"
        }
      ],
      "stateMutability": "nonpayable",
      "type": "function"
    },
    {
      "inputs": [
        {
          "internalType": "address",
          "name": "account",
          "type": "address"
        }
      ],
      "name": "balanceOf",
      "outputs": [
        {
          "internalType": "uint256",
          "name": "",
          "type": "uint256"
        }
      ],
      "stateMutability": "view",
      "type": "function"
    },
    {
      "inputs": [
        {
          "internalType": "uint256",
          "name": "minTokenOut",
          "type": "uint256"
        }
      ],
      "name": "buy",
      "outputs": [
        {
          "internalType": "uint256",
          "name": "tokenOut",
          "type": "uint256"
        }
      ],
      "stateMutability": "payable",
      "type": "function"
    },
    {
      "inputs": [
        {
          "internalType": "address",
          "name": "",
          "type": "address"
        }
      ],
      "name": "canClaimWhitelistAllocation",
      "outputs": [
        {
          "internalType": "bool",
          "name": "",
          "type": "bool"
        }
      ],
      "stateMutability": "view",
      "type": "function"
    },
    {
      "inputs": [
        {
          "internalType": "address",
          "name": "",
          "type": "address"
        }
      ],
      "name": "canClaimWhitelistRefund",
      "outputs": [
        {
          "internalType": "bool",
          "name": "",
          "type": "bool"
        }
      ],
      "stateMutability": "view",
      "type": "function"
    },
    {
      "inputs": [
        {
          "internalType": "address",
          "name": "",
          "type": "address"
        }
      ],
      "name": "canCommitWhitelist",
      "outputs": [
        {
          "internalType": "bool",
          "name": "",
          "type": "bool"
        }
      ],
      "stateMutability": "view",
      "type": "function"
    },
    {
      "inputs": [
        {
          "internalType": "address",
          "name": "account",
          "type": "address"
        }
      ],
      "name": "canSell",
      "outputs": [
        {
          "internalType": "bool",
          "name": "",
          "type": "bool"
        }
      ],
      "stateMutability": "view",
      "type": "function"
    },
    {
      "inputs": [],
      "name": "claimCreatorFees",
      "outputs": [
        {
          "internalType": "uint256",
          "name": "amount",
          "type": "uint256"
        }
      ],
      "stateMutability": "nonpayable",
      "type": "function"
    },
    {
      "inputs": [
        {
          "internalType": "address payable",
          "name": "recipient",
          "type": "address"
        }
      ],
      "name": "claimCreatorFeesTo",
      "outputs": [
        {
          "internalType": "uint256",
          "name": "amount",
          "type": "uint256"
        }
      ],
      "stateMutability": "nonpayable",
      "type": "function"
    },
    {
      "inputs": [],
      "name": "claimProtocolFees",
      "outputs": [
        {
          "internalType": "uint256",
          "name": "amount",
          "type": "uint256"
        }
      ],
      "stateMutability": "nonpayable",
      "type": "function"
    },
    {
      "inputs": [
        {
          "internalType": "address payable",
          "name": "recipient",
          "type": "address"
        }
      ],
      "name": "claimProtocolFeesTo",
      "outputs": [
        {
          "internalType": "uint256",
          "name": "amount",
          "type": "uint256"
        }
      ],
      "stateMutability": "nonpayable",
      "type": "function"
    },
    {
      "inputs": [],
      "name": "createdAt",
      "outputs": [
        {
          "internalType": "uint256",
          "name": "",
          "type": "uint256"
        }
      ],
      "stateMutability": "view",
      "type": "function"
    },
    {
      "inputs": [],
      "name": "creator",
      "outputs": [
        {
          "internalType": "address",
          "name": "",
          "type": "address"
        }
      ],
      "stateMutability": "view",
      "type": "function"
    },
    {
      "inputs": [],
      "name": "creatorClaimable",
      "outputs": [
        {
          "internalType": "uint256",
          "name": "",
          "type": "uint256"
        }
      ],
      "stateMutability": "view",
      "type": "function"
    },
    {
      "inputs": [],
      "name": "creatorFeeSweepReady",
      "outputs": [
        {
          "internalType": "bool",
          "name": "",
          "type": "bool"
        }
      ],
      "stateMutability": "view",
      "type": "function"
    },
    {
      "inputs": [],
      "name": "creatorFeeVault",
      "outputs": [
        {
          "internalType": "uint256",
          "name": "",
          "type": "uint256"
        }
      ],
      "stateMutability": "view",
      "type": "function"
    },
    {
      "inputs": [],
      "name": "currentPriceQuotePerToken",
      "outputs": [
        {
          "internalType": "uint256",
          "name": "",
          "type": "uint256"
        }
      ],
      "stateMutability": "view",
      "type": "function"
    },
    {
      "inputs": [],
      "name": "curveQuoteReserve",
      "outputs": [
        {
          "internalType": "uint256",
          "name": "",
          "type": "uint256"
        }
      ],
      "stateMutability": "view",
      "type": "function"
    },
    {
      "inputs": [],
      "name": "decimals",
      "outputs": [
        {
          "internalType": "uint8",
          "name": "",
          "type": "uint8"
        }
      ],
      "stateMutability": "view",
      "type": "function"
    },
    {
      "inputs": [],
      "name": "dexFactory",
      "outputs": [
        {
          "internalType": "address",
          "name": "",
          "type": "address"
        }
      ],
      "stateMutability": "view",
      "type": "function"
    },
    {
      "inputs": [],
      "name": "dexReserves",
      "outputs": [
        {
          "internalType": "uint256",
          "name": "tokenReserve",
          "type": "uint256"
        },
        {
          "internalType": "uint256",
          "name": "quoteReserve",
          "type": "uint256"
        }
      ],
      "stateMutability": "view",
      "type": "function"
    },
    {
      "inputs": [],
      "name": "displayGraduationProgressBps",
      "outputs": [
        {
          "internalType": "uint256",
          "name": "",
          "type": "uint256"
        }
      ],
      "stateMutability": "view",
      "type": "function"
    },
    {
      "inputs": [],
      "name": "factory",
      "outputs": [
        {
          "internalType": "address",
          "name": "",
          "type": "address"
        }
      ],
      "stateMutability": "view",
      "type": "function"
    },
    {
      "inputs": [
        {
          "internalType": "address",
          "name": "recipient",
          "type": "address"
        },
        {
          "internalType": "uint256",
          "name": "minTokenOut",
          "type": "uint256"
        }
      ],
      "name": "factoryBuyFor",
      "outputs": [
        {
          "internalType": "uint256",
          "name": "tokenOut",
          "type": "uint256"
        }
      ],
      "stateMutability": "payable",
      "type": "function"
    },
    {
      "inputs": [
        {
          "internalType": "address payable",
          "name": "recipient",
          "type": "address"
        }
      ],
      "name": "factoryClaimProtocolFeesTo",
      "outputs": [
        {
          "internalType": "uint256",
          "name": "amount",
          "type": "uint256"
        }
      ],
      "stateMutability": "nonpayable",
      "type": "function"
    },
    {
      "inputs": [],
      "name": "graduationProgressBps",
      "outputs": [
        {
          "internalType": "uint256",
          "name": "",
          "type": "uint256"
        }
      ],
      "stateMutability": "view",
      "type": "function"
    },
    {
      "inputs": [],
      "name": "graduationQuoteReserve",
      "outputs": [
        {
          "internalType": "uint256",
          "name": "",
          "type": "uint256"
        }
      ],
      "stateMutability": "view",
      "type": "function"
    },
    {
      "inputs": [
        {
          "internalType": "address",
          "name": "",
          "type": "address"
        }
      ],
      "name": "isWhitelisted",
      "outputs": [
        {
          "internalType": "bool",
          "name": "",
          "type": "bool"
        }
      ],
      "stateMutability": "view",
      "type": "function"
    },
    {
      "inputs": [
        {
          "internalType": "address",
          "name": "",
          "type": "address"
        }
      ],
      "name": "lastBuyBlock",
      "outputs": [
        {
          "internalType": "uint256",
          "name": "",
          "type": "uint256"
        }
      ],
      "stateMutability": "view",
      "type": "function"
    },
    {
      "inputs": [],
      "name": "lastTradeAt",
      "outputs": [
        {
          "internalType": "uint256",
          "name": "",
          "type": "uint256"
        }
      ],
      "stateMutability": "view",
      "type": "function"
    },
    {
      "inputs": [],
      "name": "launchMode",
      "outputs": [
        {
          "internalType": "uint8",
          "name": "",
          "type": "uint8"
        }
      ],
      "stateMutability": "view",
      "type": "function"
    },
    {
      "inputs": [],
      "name": "launchModeId",
      "outputs": [
        {
          "internalType": "uint8",
          "name": "",
          "type": "uint8"
        }
      ],
      "stateMutability": "view",
      "type": "function"
    },
    {
      "inputs": [],
      "name": "launchSuffix",
      "outputs": [
        {
          "internalType": "string",
          "name": "",
          "type": "string"
        }
      ],
      "stateMutability": "view",
      "type": "function"
    },
    {
      "inputs": [],
      "name": "lpTokenReserve",
      "outputs": [
        {
          "internalType": "uint256",
          "name": "",
          "type": "uint256"
        }
      ],
      "stateMutability": "view",
      "type": "function"
    },
    {
      "inputs": [],
      "name": "metadataURI",
      "outputs": [
        {
          "internalType": "string",
          "name": "",
          "type": "string"
        }
      ],
      "stateMutability": "view",
      "type": "function"
    },
    {
      "inputs": [],
      "name": "name",
      "outputs": [
        {
          "internalType": "string",
          "name": "",
          "type": "string"
        }
      ],
      "stateMutability": "view",
      "type": "function"
    },
    {
      "inputs": [],
      "name": "pair",
      "outputs": [
        {
          "internalType": "address",
          "name": "",
          "type": "address"
        }
      ],
      "stateMutability": "view",
      "type": "function"
    },
    {
      "inputs": [],
      "name": "pairSnapshot",
      "outputs": [
        {
          "internalType": "address",
          "name": "pairAddress",
          "type": "address"
        },
        {
          "internalType": "uint256",
          "name": "pairTotalSupply",
          "type": "uint256"
        },
        {
          "internalType": "uint112",
          "name": "reserve0",
          "type": "uint112"
        },
        {
          "internalType": "uint112",
          "name": "reserve1",
          "type": "uint112"
        },
        {
          "internalType": "uint256",
          "name": "tokenBalance",
          "type": "uint256"
        },
        {
          "internalType": "uint256",
          "name": "wrappedNativeBalance",
          "type": "uint256"
        }
      ],
      "stateMutability": "view",
      "type": "function"
    },
    {
      "inputs": [
        {
          "internalType": "uint256",
          "name": "grossQuoteIn",
          "type": "uint256"
        }
      ],
      "name": "previewBuy",
      "outputs": [
        {
          "internalType": "uint256",
          "name": "tokenOut",
          "type": "uint256"
        },
        {
          "internalType": "uint256",
          "name": "feeAmount",
          "type": "uint256"
        },
        {
          "internalType": "uint256",
          "name": "refundAmount",
          "type": "uint256"
        }
      ],
      "stateMutability": "view",
      "type": "function"
    },
    {
      "inputs": [
        {
          "internalType": "uint256",
          "name": "tokenAmount",
          "type": "uint256"
        }
      ],
      "name": "previewSell",
      "outputs": [
        {
          "internalType": "uint256",
          "name": "grossQuoteOut",
          "type": "uint256"
        },
        {
          "internalType": "uint256",
          "name": "netQuoteOut",
          "type": "uint256"
        },
        {
          "internalType": "uint256",
          "name": "totalFee",
          "type": "uint256"
        }
      ],
      "stateMutability": "view",
      "type": "function"
    },
    {
      "inputs": [],
      "name": "priceQuotePerToken",
      "outputs": [
        {
          "internalType": "uint256",
          "name": "",
          "type": "uint256"
        }
      ],
      "stateMutability": "view",
      "type": "function"
    },
    {
      "inputs": [],
      "name": "protocolClaimable",
      "outputs": [
        {
          "internalType": "uint256",
          "name": "",
          "type": "uint256"
        }
      ],
      "stateMutability": "view",
      "type": "function"
    },
    {
      "inputs": [],
      "name": "protocolFeeRecipient",
      "outputs": [
        {
          "internalType": "address",
          "name": "",
          "type": "address"
        }
      ],
      "stateMutability": "view",
      "type": "function"
    },
    {
      "inputs": [],
      "name": "protocolFeeVault",
      "outputs": [
        {
          "internalType": "uint256",
          "name": "",
          "type": "uint256"
        }
      ],
      "stateMutability": "view",
      "type": "function"
    },
    {
      "inputs": [],
      "name": "reconcileUnexpectedNative",
      "outputs": [
        {
          "internalType": "uint256",
          "name": "amount",
          "type": "uint256"
        }
      ],
      "stateMutability": "nonpayable",
      "type": "function"
    },
    {
      "inputs": [],
      "name": "remainingQuoteCapacity",
      "outputs": [
        {
          "internalType": "uint256",
          "name": "",
          "type": "uint256"
        }
      ],
      "stateMutability": "view",
      "type": "function"
    },
    {
      "inputs": [],
      "name": "router",
      "outputs": [
        {
          "internalType": "address",
          "name": "",
          "type": "address"
        }
      ],
      "stateMutability": "view",
      "type": "function"
    },
    {
      "inputs": [],
      "name": "saleTokenReserve",
      "outputs": [
        {
          "internalType": "uint256",
          "name": "",
          "type": "uint256"
        }
      ],
      "stateMutability": "view",
      "type": "function"
    },
    {
      "inputs": [
        {
          "internalType": "uint256",
          "name": "tokenAmount",
          "type": "uint256"
        },
        {
          "internalType": "uint256",
          "name": "minQuoteOut",
          "type": "uint256"
        }
      ],
      "name": "sell",
      "outputs": [
        {
          "internalType": "uint256",
          "name": "netQuoteOut",
          "type": "uint256"
        }
      ],
      "stateMutability": "nonpayable",
      "type": "function"
    },
    {
      "inputs": [
        {
          "internalType": "address",
          "name": "account",
          "type": "address"
        }
      ],
      "name": "sellUnlockBlock",
      "outputs": [
        {
          "internalType": "uint256",
          "name": "",
          "type": "uint256"
        }
      ],
      "stateMutability": "view",
      "type": "function"
    },
    {
      "inputs": [],
      "name": "state",
      "outputs": [
        {
          "internalType": "enum LaunchTokenBase.LaunchState",
          "name": "",
          "type": "uint8"
        }
      ],
      "stateMutability": "view",
      "type": "function"
    },
    {
      "inputs": [],
      "name": "sweepAbandonedCreatorFees",
      "outputs": [
        {
          "internalType": "uint256",
          "name": "amount",
          "type": "uint256"
        }
      ],
      "stateMutability": "nonpayable",
      "type": "function"
    },
    {
      "inputs": [],
      "name": "symbol",
      "outputs": [
        {
          "internalType": "string",
          "name": "",
          "type": "string"
        }
      ],
      "stateMutability": "view",
      "type": "function"
    },
    {
      "inputs": [],
      "name": "taxConfig",
      "outputs": [
        {
          "internalType": "bool",
          "name": "enabled",
          "type": "bool"
        },
        {
          "internalType": "uint16",
          "name": "taxBps",
          "type": "uint16"
        },
        {
          "internalType": "uint16",
          "name": "burnShareBps",
          "type": "uint16"
        },
        {
          "internalType": "uint16",
          "name": "treasuryShareBps",
          "type": "uint16"
        },
        {
          "internalType": "address",
          "name": "treasuryWallet",
          "type": "address"
        },
        {
          "internalType": "bool",
          "name": "active",
          "type": "bool"
        }
      ],
      "stateMutability": "view",
      "type": "function"
    },
    {
      "inputs": [],
      "name": "totalSupply",
      "outputs": [
        {
          "internalType": "uint256",
          "name": "",
          "type": "uint256"
        }
      ],
      "stateMutability": "view",
      "type": "function"
    },
    {
      "inputs": [
        {
          "internalType": "address",
          "name": "to",
          "type": "address"
        },
        {
          "internalType": "uint256",
          "name": "value",
          "type": "uint256"
        }
      ],
      "name": "transfer",
      "outputs": [
        {
          "internalType": "bool",
          "name": "",
          "type": "bool"
        }
      ],
      "stateMutability": "nonpayable",
      "type": "function"
    },
    {
      "inputs": [
        {
          "internalType": "address",
          "name": "from",
          "type": "address"
        },
        {
          "internalType": "address",
          "name": "to",
          "type": "address"
        },
        {
          "internalType": "uint256",
          "name": "value",
          "type": "uint256"
        }
      ],
      "name": "transferFrom",
      "outputs": [
        {
          "internalType": "bool",
          "name": "",
          "type": "bool"
        }
      ],
      "stateMutability": "nonpayable",
      "type": "function"
    },
    {
      "inputs": [],
      "name": "unexpectedNativeBalance",
      "outputs": [
        {
          "internalType": "uint256",
          "name": "",
          "type": "uint256"
        }
      ],
      "stateMutability": "view",
      "type": "function"
    },
    {
      "inputs": [],
      "name": "virtualQuoteReserve",
      "outputs": [
        {
          "internalType": "uint256",
          "name": "",
          "type": "uint256"
        }
      ],
      "stateMutability": "view",
      "type": "function"
    },
    {
      "inputs": [],
      "name": "virtualTokenReserve",
      "outputs": [
        {
          "internalType": "uint256",
          "name": "",
          "type": "uint256"
        }
      ],
      "stateMutability": "view",
      "type": "function"
    },
    {
      "inputs": [],
      "name": "whitelistAllocationTokenReserve",
      "outputs": [
        {
          "internalType": "uint256",
          "name": "",
          "type": "uint256"
        }
      ],
      "stateMutability": "view",
      "type": "function"
    },
    {
      "inputs": [],
      "name": "whitelistSnapshot",
      "outputs": [
        {
          "internalType": "uint8",
          "name": "status",
          "type": "uint8"
        },
        {
          "internalType": "uint256",
          "name": "opensAt",
          "type": "uint256"
        },
        {
          "internalType": "uint256",
          "name": "deadline",
          "type": "uint256"
        },
        {
          "internalType": "uint256",
          "name": "threshold",
          "type": "uint256"
        },
        {
          "internalType": "uint256",
          "name": "slotSize",
          "type": "uint256"
        },
        {
          "internalType": "uint256",
          "name": "seatCount",
          "type": "uint256"
        },
        {
          "internalType": "uint256",
          "name": "seatsFilled",
          "type": "uint256"
        },
        {
          "internalType": "uint256",
          "name": "committedTotal",
          "type": "uint256"
        },
        {
          "internalType": "uint256",
          "name": "tokensPerSeat",
          "type": "uint256"
        }
      ],
      "stateMutability": "view",
      "type": "function"
    },
    {
      "inputs": [],
      "name": "whitelistStatus",
      "outputs": [
        {
          "internalType": "uint8",
          "name": "",
          "type": "uint8"
        }
      ],
      "stateMutability": "view",
      "type": "function"
    },
    {
      "inputs": [],
      "name": "wrappedNative",
      "outputs": [
        {
          "internalType": "address",
          "name": "",
          "type": "address"
        }
      ],
      "stateMutability": "view",
      "type": "function"
    },
    {
      "stateMutability": "payable",
      "type": "receive"
    }
  ],
  "bytecode": "0x6101e08060405234620006ef576200452a803803809162000021828562000c09565b8339810190602081830312620006ef578051906001600160401b038211620006ef570161012081830312620006ef576040519161012083016001600160401b03811184821017620008dc5760405281516001600160401b038111620006ef57816200008e91840162000c2d565b835260208201516001600160401b038111620006ef5781620000b291840162000c2d565b60208401908152604083015190916001600160401b038211620006ef57620000dc91840162000c2d565b806040850152620000f06060840162000ca3565b806060860152620001046080850162000ca3565b948560808201526200011960a0860162000ca3565b8060a08301526200012d60c0870162000ca3565b968760c084015261010060e0880151978860e086015201519560ff87168703620006ef57610100840187905283519051815190916001600160401b038211620008dc5760035490600182811c9216801562000bfe575b6020831014620008bb5781601f84931162000b8c575b50602090601f831160011462000afd5760009262000af1575b50508160011b916000199060031b1c1916176003555b8051906001600160401b038211620008dc5760045490600182811c9216801562000ae6575b6020831014620008bb5781601f84931162000a74575b50602090601f8311600114620009e557600092620009d9575b50508160011b916000199060031b1c1916176004555b60017f9b779b17422d0df92223018b32b4d1fa46e071723d6817e2486d003becc55f00558615620009c757620002688762000dbf565b938415620009c7576001600160a01b038116158015620009b5575b8015620009a3575b801562000991575b6200097f576001600160a01b0390811660a05290811660c05290811660e052861661010081905260405163c45a015560e01b815290602090829060049082905afa908115620006fd5760009162000936575b50610120526040516315ab88c960e31b815295602090879060049082906001600160a01b03165afa958615620006fd57600096620008f2575b506101409586526101609485526101809182526101a0926a5889e9f3e4c6e14f40000084526101c09442865242600c55815160018060401b038111620008dc576005928354600181811c91168015620008d1575b6020821014620008bb57601f811162000870575b50602090601f8311600114620008005760ff93929160009183620007f4575b50508160011b916000199060031b1c19161783555b166080523015620007db5760ff600654169081101580620007b757600182148015620007cd575b1562000775575b50506002546b033b2e3c9fd0803ce8000000908181018091116200075f57600255306000526000602052604060002081815401905560405190815260007fddf252ad1be2c89b69c2b068fc378daa952ba7f163c4a11628f55a4df523b3ef60203093a36b0295be96e6406697200000006007556aa56fa5b99019a5c800000060085561012051865160405163e6a4390560e01b815260009392909160209183916001600160a01b039182169183918291620004a99116306004840162000e5b565b03915afa9283156200075357809362000709575b50506001600160a01b0382161562000655575b600680546001600160a81b03191660089390931b610100600160a81b0316929092176001908117909255620005389160007f3a779de46631dd65116ae538600f1bc3c338200c6aef638429b5de43301c28f78180a3608001516001600160a01b031662000cb8565b156200064357604051936136b4958662000e768739608051866120c5015260a05186818161198d01528181611ee801526127fb015260c05186818161102c0152818161161101528181611d18015261264a015260e0518681816116960152818161186101528181612597015261358901526101005186610b4f015261012051866110bd0152518581816103e001528181610c12015281816123a501528181612e7f01528181612ec20152612f2f0152518481816086015281816118f101528181612172015281816124e3015281816128a00152818161299f0152612afb015251838181610bbc01526127910152518281816119d201526127cb015251818181610f610152612a2f0152f35b604051635bb6e57160e11b8152600490fd5b6101205187516040516364e329cb60e11b8152935060209184916001600160a01b039182169183916000918391620006939116306004840162000e5b565b03925af1918215620006fd57600092620006af575b50620004d0565b91506020823d602011620006f4575b81620006cd6020938362000c09565b81010312620006ef576001620006e7620005389362000ca3565b9250620006a8565b600080fd5b3d9150620006be565b6040513d6000823e3d90fd5b909192506020823d6020116200074a575b81620007296020938362000c09565b810103126200074757506200073e9062000ca3565b903880620004bd565b80fd5b3d91506200071a565b604051903d90823e3d90fd5b634e487b7160e01b600052601160045260246000fd5b620007b75760028103620007955760405163baf3f0f760e01b8152600490fd5b600314620007a5573880620003e8565b604051634e46966960e11b8152600490fd5b634e487b7160e01b600052602160045260246000fd5b5050600060048214620003e1565b60405163ec442f0560e01b815260006004820152602490fd5b015190503880620003a5565b90601f198316918560005260206000209260005b81811062000857575091600193918560ff979694106200083d575b505050811b018355620003ba565b015160001960f88460031b161c191690553880806200082f565b9293602060018192878601518155019501930162000814565b846000526020600020601f8401861c81019160208510620008b0575b601f01861c01905b818110620008a3575062000386565b6000815560010162000894565b90915081906200088c565b634e487b7160e01b600052602260045260246000fd5b90607f169062000372565b634e487b7160e01b600052604160045260246000fd5b9095506020813d6020116200092d575b81620009116020938362000c09565b81010312620006ef57620009259062000ca3565b94386200031e565b3d915062000902565b90506020813d60201162000976575b81620009546020938362000c09565b81010312620006ef576004966200096d60209262000ca3565b915096620002e5565b3d915062000945565b60405163d92e233d60e01b8152600490fd5b506001600160a01b0389161562000293565b506001600160a01b038316156200028b565b506001600160a01b0382161562000283565b604051630d956e1760e21b8152600490fd5b0151905038806200021c565b6004600090815293507f8a35acfbc15ff81a39ae7d344fd709f28e8600b4aa8c65c6b64bfe7fe36bd19b91905b601f198416851062000a58576001945083601f1981161062000a3e575b505050811b0160045562000232565b015160001960f88460031b161c1916905538808062000a2f565b8181015183556020948501946001909301929091019062000a12565b60046000529091507f8a35acfbc15ff81a39ae7d344fd709f28e8600b4aa8c65c6b64bfe7fe36bd19b601f840160051c81016020851062000ade575b90849392915b601f830160051c8201811062000ace57505062000203565b6000815585945060010162000ab6565b508062000ab0565b91607f1691620001ed565b015190503880620001b2565b6003600090815293507fc2575a0e9e593c00f959f8c92f12db2869c3395a3b0502d05e2516446f71f85b91905b601f198416851062000b70576001945083601f1981161062000b56575b505050811b01600355620001c8565b015160001960f88460031b161c1916905538808062000b47565b8181015183556020948501946001909301929091019062000b2a565b60036000529091507fc2575a0e9e593c00f959f8c92f12db2869c3395a3b0502d05e2516446f71f85b601f840160051c81016020851062000bf6575b90849392915b601f830160051c8201811062000be657505062000199565b6000815585945060010162000bce565b508062000bc8565b91607f169162000183565b601f909101601f19168101906001600160401b03821190821017620008dc57604052565b919080601f84011215620006ef5782516001600160401b038111620008dc576020906040519262000c6883601f19601f850116018562000c09565b818452828287010111620006ef5760005b81811062000c8f57508260009394955001015290565b858101830151848201840152820162000c79565b51906001600160a01b0382168203620006ef57565b6001600160a01b03908082169033821462000db7573b1562000db057600160ff608051161462000d815760ff608051166003811015908162000d74575b5062000d02575050600090565b602060049160405192838092631f6f884760e11b82525afa908115620006fd5760009162000d32575b5016331490565b90506020813d60201162000d6b575b8162000d506020938362000c09565b81010312620006ef5762000d649062000ca3565b3862000d2b565b3d915062000d41565b600b915011153862000cf5565b60206004916040519283809263136afe8560e31b82525afa908115620006fd5760009162000d32575016331490565b5050600090565b505050600190565b6afdf98fad74e087174000006000198183098183029182808310920391808303921462000e46576b0295be96e640669720000000908282111562000e33577fab5d02869c14ad85338e6a157058d28e658611776aff168d01c445d3a8cc9189940990828211900360e31b9103601d1c170290565b634e487b7160005260116020526024601cfd5b50506b0295be96e64066972000000091500490565b6001600160a01b039182168152911660208201526040019056fe60806040818152600491823610156106c2575b50361561001e57600080fd5b61002661255b565b6006805460ff811660058110156106ad5760010361069e573315908115610694575b811561067b575b5061066d57341561065f5761006334612897565b939290919481158015610657575b61064857600954956100838188612230565b927f000000000000000000000000000000000000000000000000000000000000000093846100b084612991565b911461063f575b80158015610634575b610624576100d08360009a612230565b6009556100df86600a54612230565b600a556100ee88600b54612230565b600b5542600c55610101816007546120e9565b60075561010f8133306131d9565b338952602097600e895243858b205561012883346120e9565b9081610615575b600954976007549587519586528b860152868501526060840152608083015260a08201528460c08201528160e082015260008051602061363f8339815191526101003392a28284109081159161060c575b5061019a575b600160008051602061365f83398151915255005b835460ff81169360058510156105f957600185036105e95783036105d95760029060ff19161794858555815160026000805160206135ff83398151915295868a80a36001600160a01b039660081c8716156105cb57506101f8613525565b85855460081c169082516318160ddd60e01b815281818b81865afa90811561059057899161059a575b506104c95761022f82612489565b6104c9578251630240bc6b60e21b81526060818b81865afa9081156105905789908a9261055d575b508451630dfe168160e01b815283818d81885afa9081156104bf57908c918c91610540575b50848751809363d21220a760e01b825281895afa918215610536578c92610507575b508a1630036104e957506001600160701b03919082166104d95716935b84116104c9576008546102db816102d4876009546120e9565b94306131d9565b826103dd575b87875460081c16958261dead60248d8d89519b8c9485936335313c2160e11b85528401525af19687156103d3578a9761039f575b508960085561032686600a54612230565b600a5589600955875490600360ff83169260ff191617809955600582101561038c5760008051602061361f8339815191529a9b50859493929160039160809b9a999897519d80a38a52890152870152606086015260081c1692a238808080808080610186565b634e487b7160e01b8b5260218c5260248bfd5b9096508281813d83116103cc575b6103b78183611f40565b810103126103c757519538610315565b600080fd5b503d6103ad565b85513d8c823e3d90fd5b877f000000000000000000000000000000000000000000000000000000000000000016803b156104a1578451630d0e30db60e41b81528a818d8188865af180156104bf576104ac575b508289895460081c1660448d8d8951958694859363a9059cbb60e01b85528401528960248401525af19081156103d3578a91610472575b506102e15783516314da028560e11b81528a90fd5b90508281813d83116104a5575b6104898183611f40565b810103126104a1575180151581036104a1573861045d565b8980fd5b503d61047f565b6104b8909a919a611f17565b9838610426565b86513d8d823e3d90fd5b8251633c1413fb60e01b81528990fd5b8451633c1413fb60e01b81528b90fd5b891630036104d9576001600160701b039182166104d95716936102bb565b610528919250853d871161052f575b6105208183611f40565b810190612672565b903861029e565b503d610516565b87513d8e823e3d90fd5b6105579150853d871161052f576105208183611f40565b3861027c565b9050610581915060603d606011610589575b6105798183611f40565b8101906122d5565b509038610257565b503d61056f565b84513d8b823e3d90fd5b90508181813d83116105c4575b6105b18183611f40565b810103126105c0575138610221565b8880fd5b503d6105a7565b633c1413fb60e01b81528890fd5b8151638199f5f360e01b81528890fd5b825163baf3f0f760e01b81528990fd5b634e487b7160e01b885260218952602488fd5b90501538610180565b61061f8233613336565b61012f565b8351638199f5f360e01b81528a90fd5b5060075481116100c0565b506007546100b7565b51631f2a200560e01b81528690fd5b508515610071565b5051631f2a200560e01b8152fd5b5051634e46966960e11b8152fd5b3360089190911c6001600160a01b03161490503861004f565b3330149150610048565b50505163baf3f0f760e01b8152fd5b602185634e487b7160e01b6000525260246000fd5b600090813560e01c90816302d05d3f14611ed45750806303ee438c14611e3157806306b51d481461151f57806306fdde0314611d58578063086e5ca014611ce5578063095ea7b314611c3b5780630b42aae014611c1f57806315a0aa0814611bc0578063173d5e42146118ae57806318160ddd14611ba15780631cd97db514611b7b5780631d924c7714611b5d57806323b872dd14611a11578063313ce567146119f5578063343ee3b7146119ba578063351fee461461196b57806337488a421461194c57806337b28bfd1461191457806339931527146118d95780633af32abf14610fa35780633cfe0ade146118b3578063403287a914610d6757806340faa03c146118ae578063463bb800146111e1578063481532791461188e5780634a7d03691461183f5780634e6fd6c414611822578063538660061461177a578063581b51f31461175d5780635878f8ce146117405780636095a62014611724578063644537cb146116fe57806364a5dc2b146116c557806364df049e146116815780636723064e146115e85780636887c8481461159557806368bc13f5146115795780636a534fcb146115405780636a740d31146111085780636f28507c146115245780636f71f0171461151f57806370a08231146114f957806374452ec3146114da5780637531abe314610fa357806379e469871461105b57806385cac2371461112957806386d4ff1d1461148b5780638925d36e1461146c578063902d55a5146114465780639111f13d1461142057806391e7cd34146114015780639454d720146113e557806395d89b41146113015780639d0ee65b146112e55780639ddf7ad314610fc45780639e5f358a146112c8578063a202c86d146112ac578063a36cdf9914611239578063a8aa1b311461120c578063a8dccd02146111e6578063a8ea4445146111e1578063a9059cbb14611171578063aadade7a14611152578063aecf6a7c14610fa3578063af1af3b914610f84578063b0cc792d1461112e578063b37dd69014611129578063b5f1c1ff1461110d578063b82020e814611108578063b88202a9146110ec578063b8d8fbb4146110a8578063be3782281461108c578063c19d93fb14611060578063c22898781461105b578063c45a015514611017578063c57da02914610fdf578063cac01cbc14610fc4578063cc3cbd2a14610fa8578063cc64aade14610fa3578063ce228ad214610f84578063cf09e0d014610f49578063d79875eb14610d6c578063d81d946f14610d67578063d96a094a14610cf3578063db9b541314610ca7578063dd62ed3e14610c5e578063e1a4521814610c41578063eb6d3a1114610bfd578063f48f6f1d14610bdf578063f559662614610ba4578063f7ce612a14610b7e578063f887ea4014610b3a578063fb3dd95f14610af75763fd897e0b03610012579034610af35781600319360112610af357602090600d549051908152f35b5080fd5b5034610b37576020366003190112610b375750610b17610b339235612507565b9251918252602082015260408101919091529081906060820190565b0390f35b80fd5b509034610af35781600319360112610af357517f00000000000000000000000000000000000000000000000000000000000000006001600160a01b03168152602090f35b509034610af35781600319360112610af357602090516aa56fa5b99019a5c80000008152f35b509034610af35781600319360112610af357602090517f00000000000000000000000000000000000000000000000000000000000000008152f35b509034610af35781600319360112610af3576020905162278d008152f35b509034610af35781600319360112610af357517f00000000000000000000000000000000000000000000000000000000000000006001600160a01b03168152602090f35b509034610af35781600319360112610af357602090516127108152f35b509034610af35780600319360112610af35780602092610c7c611fcf565b610c84611fe5565b6001600160a01b0391821683526001865283832091168252845220549051908152f35b509034610af35781600319360112610af35781610120928251928184528160208501528301528060608301528060808301528060a08301528060c08301528060e0830152610100820152f35b506020366003190112610b3757610d0861255b565b60ff60065416906005821015610d545750600103610d4757610d2e602092353333612aa4565b90600160008051602061365f8339815191525551908152f35b5163baf3f0f760e01b8152fd5b634e487b7160e01b815260218452602490fd5b61203b565b509034610af35780600319360112610af357823591610d8961255b565b60ff600654166005811015610f3657600103610f26578215610f16578190338152600e60205220544314610f0757610de7610de1610dc5612789565b610ddb86610dd58385969561210c565b92612230565b90613170565b906120e9565b9182158015610efc575b610eec5782610e02610e0b946131a2565b959091836120e9565b948515610edc576024358610610edc5760209650610e2a8430336131d9565b610e3684600754612230565b600755610e45836009546120e9565b600955610e5482600a54612230565b600a55610e6381600b54612230565b600b5542600c55610e748633613336565b600954916007549386519586528886015286868601526060850152608084015260a083015260c08201527feebdf396b2ce33c6bf51df33b76958425b7430bd1c74fbef7b585106affddd1c60e03392a2600160008051602061365f8339815191525551908152f35b8451638199f5f360e01b81528790fd5b8151638199f5f360e01b81528490fd5b506009548311610df1565b51635aabee0f60e11b81529050fd5b8151631f2a200560e01b81528490fd5b815163baf3f0f760e01b81528490fd5b634e487b7160e01b825260218552602482fd5b509034610af35781600319360112610af357602090517f00000000000000000000000000000000000000000000000000000000000000008152f35b509034610af35781600319360112610af357602090600a549051908152f35b612016565b509034610af35781600319360112610af3576020905160468152f35b509034610af35781600319360112610af35751908152602090f35b509034610af35781600319360112610af3578160c09282519281845281602085015283015280606083015280608083015260a0820152f35b509034610af35781600319360112610af357517f00000000000000000000000000000000000000000000000000000000000000006001600160a01b03168152602090f35b61208f565b509034610af35781600319360112610af35760ff600654169051916005821015610d5457602083838152f35b509034610af35781600319360112610af35760209051601e8152f35b509034610af35781600319360112610af357517f00000000000000000000000000000000000000000000000000000000000000006001600160a01b03168152602090f35b509034610af35781600319360112610af35760209051600b8152f35b612073565b509034610af35781600319360112610af35760209051600c8152f35b6120ab565b509034610af35781600319360112610af35760209061114b6124c5565b9051908152f35b509034610af35781600319360112610af357602090600b549051908152f35b5091346111dd57816003193601126111dd5761118b611fcf565b9260ff600654169060058210156111ca57506003036111bc57506111b560209260243590336131d9565b5160018152f35b90516377d87fb560e11b8152fd5b634e487b7160e01b815260218352602490fd5b8280fd5b612057565b509034610af35781600319360112610af357516714adf4b7320334b9601d1b8152602090f35b509034610af35781600319360112610af357600654905160089190911c6001600160a01b03168152602090f35b5034610b375780600319360112610b375750611253612a89565b90811561129d576020925061126a82600a54612230565b600a5580518281527fa1e4c790cc8a017f9b597b92150a8a880324350496397bbb8fd774f571e710df843392a251908152f35b516312d37ee560e31b81529050fd5b509034610af35781600319360112610af3576020905160098152f35b509034610af35781600319360112610af35760209061114b6124a4565b509034610af35781600319360112610af3576020905160068152f35b509034610af35781600319360112610af35780519180938054916001908360011c92600185169485156113db575b60209586861081146113c8578589529081156113a45750600114611369575b610b33878761135f828c0383611f40565b5191829182611f63565b9080949750528583205b8284106113915750505082610b339461135f9282010194388061134e565b8054868501880152928601928101611373565b60ff19168887015250505050151560051b830101925061135f82610b33388061134e565b634e487b7160e01b845260228352602484fd5b93607f169361132f565b509034610af35781600319360112610af35760209051600a8152f35b509034610af35781600319360112610af3576020906009549051908152f35b509034610af35781600319360112610af35760209061143d6129ef565b90519015158152f35b509034610af35781600319360112610af35751676765c793fa10079d601b1b8152602090f35b509034610af35781600319360112610af3576020906007549051908152f35b509034610af3576020366003190112610af35760209181906001600160a01b036114b3611fcf565b168152600e845220549081159182156114d0575b50519015158152f35b43119150836114c7565b509034610af35781600319360112610af357602090600c549051908152f35b509034610af3576020366003190112610af35760209061114b61151a611fcf565b612489565b611fac565b509034610af35781600319360112610af3576020905160648152f35b5091346111dd5760203660031901126111dd5735916001600160a01b0383168303610b375750610d2e60209261157461255b565b6127f0565b509034610af35781600319360112610af3576020905160058152f35b509034610af35781600319360112610af35760c0906115b261230b565b9495909381519660018060a01b03168752602087015260018060701b0380931690860152166060840152608083015260a0820152f35b5091816003193601126111dd576115fd611fcf565b9061160661255b565b6001600160a01b03937f0000000000000000000000000000000000000000000000000000000000000000851633036116725760ff600654169060058210156111ca57506001036116645750602092610d2e9160243591811690612aa4565b825163baf3f0f760e01b8152fd5b508251635b2fb5b360e11b8152fd5b509034610af35781600319360112610af357517f00000000000000000000000000000000000000000000000000000000000000006001600160a01b03168152602090f35b5091346111dd5760203660031901126111dd5735916001600160a01b0383168303610b375750610d2e6020926116f961255b565b61258b565b509034610af3576020366003190112610af35760209061114b61171f611fcf565b61228f565b509034610af35781600319360112610af3576020905160078152f35b509034610af35781600319360112610af35760209061114b612a89565b509034610af35781600319360112610af35760209061114b612a6e565b509034610af35781600319360112610af35761179461255b565b61179c6129ef565b1561181357600b549182156118035760209350600b556117be82600a54612230565b600a5580518281527f6a0c33aa8c816cdfa77b389739210eadb9f9a653e441ee697d9a29d61a9884a1843392a2600160008051602061365f8339815191525551908152f35b81516312d37ee560e31b81528490fd5b51638a430e9f60e01b81529050fd5b509034610af35781600319360112610af3576020905161dead8152f35b509034610af35781600319360112610af35760209061185c61255b565b610d2e7f00000000000000000000000000000000000000000000000000000000000000006001600160a01b031661258b565b5034610b37576020366003190112610b375750610b17610b33923561223d565b611ffb565b509034610af35781600319360112610af357602090516a5889e9f3e4c6e14f4000008152f35b509034610af35781600319360112610af357602090517f00000000000000000000000000000000000000000000000000000000000000008152f35b509034610af3576020366003190112610af35760209181906001600160a01b0361193c611fcf565b168152600e845220549051908152f35b509034610af35781600319360112610af3576020906008549051908152f35b509034610af35781600319360112610af35760209061198861255b565b610d2e7f00000000000000000000000000000000000000000000000000000000000000006001600160a01b03166127f0565b509034610af35781600319360112610af357602090517f00000000000000000000000000000000000000000000000000000000000000008152f35b509034610af35781600319360112610af3576020905160128152f35b50829034610b37576060366003190112610b3757611a2d611fcf565b611a35611fe5565b916044359360ff600654166005811015611b4a5760038103611b16575b506001600160a01b03831680835260016020908152878420338552905286832054916000198310611a8c575b6020886111b58989896131d9565b868310611af4578115611add573315611ac6575082526001602090815286832033845281529186902090859003905582906111b587611a7e565b8751634a1406b160e11b8152908101849052602490fd5b875163e602df0560e01b8152908101849052602490fd5b9050611b12868851938493637dc7a0d960e11b8552339085016133b9565b0390fd5b60021480611b38575b15611b2a5786611a52565b85516377d87fb560e11b8152fd5b506001600160a01b0383163014611b1f565b634e487b7160e01b835260218252602483fd5b509034610af35781600319360112610af3576020905162ed4e008152f35b5034610b375780600319360112610b375750611b95612691565b82519182526020820152f35b509034610af35781600319360112610af3576020906002549051908152f35b509034610af35781600319360112610af357805191828201906001600160401b03821184831017611c0c575092610b339382528252630c0ccc4d60e21b60208301525191829182611f63565b634e487b7160e01b815260418552602490fd5b509034610af35781600319360112610af3576020905160088152f35b5091346111dd57816003193601126111dd57611c55611fcf565b602435903315611cce576001600160a01b0316918215611cb757508083602095338152600187528181208582528752205582519081527f8c5be1e5ebec7d5bd14f71427d1e84f3dd0314c0f7b2291e5b200ac8c7c3b925843392a35160018152f35b8351634a1406b160e11b8152908101859052602490fd5b835163e602df0560e01b8152808401869052602490fd5b5091346111dd5760203660031901126111dd578035926001600160a01b03908185168503610b375750611d1661255b565b7f0000000000000000000000000000000000000000000000000000000000000000163303611d4a5750610d2e60209261258b565b9051635b2fb5b360e11b8152fd5b509190346111dd57826003193601126111dd5780519183600354906001908260011c92600181168015611e27575b6020958686108214611e145750848852908115611df25750600114611db7575b610b33868661135f828b0383611f40565b929550600383528583205b828410611ddf5750505082610b339461135f928201019438611da6565b8054868501880152928601928101611dc2565b60ff191687860152505050151560051b830101925061135f82610b3338611da6565b634e487b7160e01b845260229052602483fd5b93607f1693611d86565b509190346111dd57826003193601126111dd5780519183600554906001908260011c92600181168015611eca575b6020958686108214611e145750848852908115611df25750600114611e8f57610b33868661135f828b0383611f40565b929550600583528583205b828410611eb75750505082610b339461135f928201019438611da6565b8054868501880152928601928101611e9a565b93607f1693611e5f565b905034610af35781600319360112610af3577f00000000000000000000000000000000000000000000000000000000000000006001600160a01b03168152602090f35b6001600160401b038111611f2a57604052565b634e487b7160e01b600052604160045260246000fd5b601f909101601f19168101906001600160401b03821190821017611f2a57604052565b6020808252825181830181905290939260005b828110611f9857505060409293506000838284010152601f8019910116010190565b818101860151848201604001528501611f76565b346103c75760003660031901126103c7576020611fc761213f565b604051908152f35b600435906001600160a01b03821682036103c757565b602435906001600160a01b03821682036103c757565b346103c75760003660031901126103c7576020611fc76121b6565b346103c75760203660031901126103c75761202f611fcf565b50602060405160008152f35b346103c75760003660031901126103c757602060405160028152f35b346103c75760003660031901126103c757602060405160048152f35b346103c75760003660031901126103c757602060405160038152f35b346103c75760003660031901126103c757602060405160018152f35b346103c75760003660031901126103c757602060405160ff7f0000000000000000000000000000000000000000000000000000000000000000168152f35b919082039182116120f657565b634e487b7160e01b600052601160045260246000fd5b818102929181159184041417156120f657565b8115612129570490565b634e487b7160e01b600052601260045260246000fd5b60ff6006541660058110156121a05760031461219a57600954612710908181029181830414901517156120f657612197907f00000000000000000000000000000000000000000000000000000000000000009061211f565b90565b61271090565b634e487b7160e01b600052602160045260246000fd5b60ff6006541660058110156121a0576003146121f7576121d4612789565b670de0b6b3a7640000918281029281840414901517156120f6576121979161211f565b6121ff612691565b90801561222957670de0b6b3a7640000918281029281840414901517156120f6576121979161211f565b5050600090565b919082018092116120f657565b60ff6006541660058110156121a0576001036122835780156122835761227d9161219761227761226c84612897565b919792939097612991565b96612230565b936120e9565b50600090600090600090565b6001600160a01b03166000908152600e602052604090205480156122bb57600181018091116120f65790565b50600090565b51906001600160701b03821682036103c757565b908160609103126103c7576122e9816122c1565b9160406122f8602084016122c1565b92015163ffffffff811681036103c75790565b60065460081c6001600160a01b0390811691821561247857818316916040928351926318160ddd60e01b84526020938481600481865afa90811561246d57600091612440575b5094805193630240bc6b60e21b8552606085600481875afa80156124355760009560009161240f575b50949584600052600081528083600020549560248551809581936370a0823160e01b835260048301527f0000000000000000000000000000000000000000000000000000000000000000165afa92831561240557506000926123db57505090565b90809250813d83116123fe575b6123f28183611f40565b810103126103c7575190565b503d6123e8565b513d6000823e3d90fd5b905061242b91955060603d606011610589576105798183611f40565b509490943861237a565b82513d6000823e3d90fd5b90508481813d8311612466575b6124578183611f40565b810103126103c7575138612351565b503d61244d565b86513d6000823e3d90fd5b600092508291508190819081908190565b6001600160a01b031660009081526020819052604090205490565b60ff6006541660058110156121a0576003036124c057600b5490565b600090565b60ff6006541660058110156121a0576001036124c0576121976009547f00000000000000000000000000000000000000000000000000000000000000006120e9565b60ff6006541660058110156121a0576001036122835780156122835761254290610de1610ddb612535612789565b919093610dd5838661210c565b9061254c826131a2565b505061255881846120e9565b91565b60008051602061365f83398151915260028154146125795760029055565b604051633ee5aeb560e01b8152600490fd5b906001600160a01b03337f00000000000000000000000000000000000000000000000000000000000000008216141580612646575b612635578216801561262357600a5492831561261157836125e5916000600a55613336565b7f0f58cb6262d88971b87878468debb7bc81f1714be597710e16a9fb84c66ff7b56020604051858152a2565b6040516312d37ee560e31b8152600490fd5b60405163d92e233d60e01b8152600490fd5b6040516282b42960e81b8152600490fd5b50807f0000000000000000000000000000000000000000000000000000000000000000163314156125c0565b908160209103126103c757516001600160a01b03811681036103c75790565b60065460081c6001600160a01b039081169190821561278057604051630240bc6b60e21b815290606082600481875afa93841561274557600092600095612751575b5090602060049260405193848092630dfe168160e01b82525afa91821561274557600092612724575b50163003612714576001600160701b03908116921690565b6001600160701b03928316921690565b61273e91925060203d60201161052f576105208183611f40565b90386126fc565b6040513d6000823e3d90fd5b600492919550602093506127739060603d606011610589576105798183611f40565b50939093959192506126d3565b50600091508190565b6127b66009547f000000000000000000000000000000000000000000000000000000000000000090612230565b906121976127c960075460085490612230565b7f000000000000000000000000000000000000000000000000000000000000000090612230565b906001600160a01b037f0000000000000000000000000000000000000000000000000000000000000000811633036126355760ff6006541660058110156121a057600303612885578216801561262357600b549283156126115783612859916000600b55613336565b7fd046302bdc39599e60a5981e59227dcd1c643f512f56f2e984390c3ac6eadedb6020604051858152a2565b60405163baf3f0f760e01b8152600490fd5b906128c46009547f00000000000000000000000000000000000000000000000000000000000000006120e9565b91821561297f576128df6128d7826131a2565b5050826120e9565b928084116128fb575091905b6128f4836131a2565b9091509091565b92505061291a61290a83613452565b6126ac6127108509151590612230565b91825b61293d575b5061293761292f836131a2565b5050836120e9565b906128eb565b918261294b61292f836131a2565b111561297957600019810190811161296457918261291d565b60246000634e487b7160e01b81526011600452fd5b91612922565b60405163c83ba27d60e01b8152600490fd5b61299d81600954612230565b7f0000000000000000000000000000000000000000000000000000000000000000146129e8576129e2610de1612197926129d5612789565b939091610dd5858461210c565b9061211f565b5060075490565b60ff6006541660058110156121a05760011480612a63575b80612a2c575b80612a155790565b50600c5462278d0081018091116120f65742101590565b507f000000000000000000000000000000000000000000000000000000000000000062ed4e0081018091116120f657421015612a0d565b50600b541515612a07565b612197612a80600954600a5490612230565b600b5490612230565b612a91612a6e565b47908082111561222957612197916120e9565b6001600160a01b038116939260009285158015613167575b8015613150575b61313e57341561312457612ad634612897565b9892809692949196158015613136575b6131245760095491612af88684612230565b9a7f00000000000000000000000000000000000000000000000000000000000000009788612b2589612991565b9d1461311a575b8c15801561310f575b6130d0578c106130d057612b9a8c60008051602061363f83398151915296612b608a61010098612230565b600955612b6f8c600a54612230565b600a55612b7e84600b54612230565b600b5542600c55612b91826007546120e9565b600755306131d9565b858a52600e6020524360408b2055612bb283346120e9565b9182806130ff575b5050600954986007549760405194855260208501526040840152606083015260808201528960a08201528660c08201528460e0820152a2818310908115916130f6575b50612c0757505050565b600690815460ff81169360058510156130e257600185036128855782036130d05760029060ff191617928383556002604051916000805160206135ff8339815191528780a3600893841c6001600160a01b0316156130c15750612c68613525565b81546040516318160ddd60e01b815290841c6001600160a01b03169190602081600481865afa90811561308457869161308f575b50612fd457612caa82612489565b612fd457604051630240bc6b60e21b8152606081600481865afa9081156130845786908792613061575b50604051630dfe168160e01b8152602081600481885afa908115613056578891613037575b5060405163d21220a760e01b815290602082600481895afa91821561302c57899261300b575b506001600160a01b03163003612fe657506001600160701b0391908216612fd45716905b8111612fd45784918454612d6481612d5d856009546120e9565b93306131d9565b81612e7b575b84546040516335313c2160e11b815261dead60048201529460209186916024918391908b1c6001600160a01b03165af1938415612e70578794612e3c575b50868655612db883600a54612230565b600a55866009558454600360ff82169160ff1916178096556005811015612e2857916080959391600360008051602061361f8339815191529896946000805160206135ff8339815191526040519b80a38852602088015260408701526060860152901c6001600160a01b031692a2565b634e487b7160e01b88526021600452602488fd5b9093506020813d602011612e68575b81612e5860209383611f40565b810103126103c757519238612da8565b3d9150612e4b565b6040513d89823e3d90fd5b92507f00000000000000000000000000000000000000000000000000000000000000006001600160a01b03163b15612fd057604051630d0e30db60e41b81528681600481857f00000000000000000000000000000000000000000000000000000000000000006001600160a01b03165af18015612e7057612fbd575b50835460405163a9059cbb60e01b815290861c6001600160a01b03908116600483015260248201839052602090829060449082908b907f0000000000000000000000000000000000000000000000000000000000000000165af1908115612e70578791612f7e575b5015612f6c578592612d6a565b6040516314da028560e11b8152600490fd5b90506020813d602011612fb5575b81612f9960209383611f40565b81010312612fb157518015158103612fb15738612f5f565b8680fd5b3d9150612f8c565b612fc990969196611f17565b9438612ef7565b8580fd5b604051633c1413fb60e01b8152600490fd5b6001600160a01b03163003612fd4576001600160701b03918216612fd4571690612d43565b61302591925060203d60201161052f576105208183611f40565b9038612d1f565b6040513d8b823e3d90fd5b613050915060203d60201161052f576105208183611f40565b38612cf9565b6040513d8a823e3d90fd5b905061307c915060603d606011610589576105798183611f40565b509038612cd4565b6040513d88823e3d90fd5b90506020813d6020116130b9575b816130aa60209383611f40565b81010312612fd0575138612c9c565b3d915061309d565b633c1413fb60e01b8152600490fd5b604051638199f5f360e01b8152600490fd5b634e487b7160e01b86526021600452602486fd5b90501538612bfd565b61310891613336565b3882612bba565b506007548d11612b35565b6007549c50612b2c565b604051631f2a200560e01b8152600490fd5b508415612ae6565b604051634e46966960e11b8152600490fd5b5060065460081c6001600160a01b03168614612ac3565b50308614612abc565b90801561318f57613187600191600019840161211f565b019015150290565b634e487b7160005260126020526024601cfd5b8015612283578061271060646131ba6131c4946134bc565b9209151590612230565b906131ce826133d7565b9061219782846120e9565b916001600160a01b0380841692831561331d57169283156133045760ff600654166005811015806121a0576001821480156132f7575b156132bd57505030831480156132b4575b156132a2575b60009083825281602052604082205490838210613285575091604082827fddf252ad1be2c89b69c2b068fc378daa952ba7f163c4a11628f55a4df523b3ef958760209652828652038282205586815220818154019055604051908152a3565b611b128460405193849363391434e360e21b8552600485016133b9565b6040516377d87fb560e11b8152600490fd5b50308414613220565b6121a057600281036132d75750308303612885575b613226565b600303613226573084036132d257604051634e46966960e11b8152600490fd5b505060006004821461320f565b60405163ec442f0560e01b815260006004820152602490fd5b604051634b637e8f60e11b815260006004820152602490fd5b81471061339a57604051602081016001600160401b03811182821017611f2a57604052600080809481948280955260018060a01b03165af1156133765750565b3d1561338857604051903d90823e3d90fd5b60405163d6bda27560e01b8152600490fd5b60405163cf47918160e01b815247600482015260248101839052604490fd5b604091949392606082019560018060a01b0316825260208201520152565b600019601e8209601e820290818082109103908082039114613449578060641115613436576064601e7f5c28f5c28f5c28f5c28f5c28f5c28f5c28f5c28f5c28f5c28f5c28f5c28f5c29940990828211900360fe1b910360021c170290565b634e487b7160005260116020526024601cfd5b50606491500490565b612710600019818309818302918280831092039180830392146134b1576126ac9082821115613436577fa902ffe58553adaa902ffe58553adaa902ffe58553adaa902ffe58553adaa903940990828211900360fe1b910360021c170290565b50506126ac91500490565b60001960648209606482029081808210910390808203911461351b57612710818111156134365760647fbc01a36e2eb1c432ca57a786c226809d495182a9930be0ded288ce703afb7e91940990828211900360fc1b910360041c170290565b5061271091500490565b60065460081c6001600160a01b039081169081156135c8576040516318160ddd60e01b8152602081600481865afa908115612745576000916135cc575b506135c857813b156103c75760009160248392604051948593849263bc25cf7760e01b84527f00000000000000000000000000000000000000000000000000000000000000001660048401525af18015612745576135bd5750565b6135c690611f17565b565b5050565b90506020813d6020116135f6575b816135e760209383611f40565b810103126103c7575138613562565b3d91506135da56fe3a779de46631dd65116ae538600f1bc3c338200c6aef638429b5de43301c28f771aa8c3702dbbc54247a4e6446450e64a46250dd72707a247ddb01d72eaef4456ff5f8cb3bbdee941e910591101be7dcb3bd64213bbc4ac9e994c9d7b0ef74cd9b779b17422d0df92223018b32b4d1fa46e071723d6817e2486d003becc55f00a26469706673582212206850651014ecf0bdc2bac3b1c0497b7aa858b708fc2dad4669894e553b111b1d64736f6c63430008180033",
  "linkReferences": {},
  "deployedLinkReferences": {}
}